:2000A700AF827E00751B0A8E1C8F828E83C007C00612840BAC82D006D007ECC454F0FC75B6
:2000C7001B0A751C008F828E83C0041283D5AE82D004EE4CF58222E582FFC4540F75F00A40
:2000E700A4FE740F5F2EF582221203EB7582D012042A75820E12042A75821012042A020415
:2001070006AD82AE83AFF0C007C006C0051203EB7582D012042A75820312042A1204061212
:2001270003EB7582D112042AD20012044FAC82D005D006D0078D828E838FF0EC128334ADDA
:200147002BAE2CAF2DD200C007C006C00512044F1200DEAC82D005D006D0078D828E838FDF
:20016700F0EC128334AD2EAE2FAF30D200C007C006C00512044F1200DEAC82D005D006D01A
:20018700078D828E838FF0EC128334AD31AE32AF33C200C007C006C00512044F1200DEAC48
:2001A70082D005D006D0078D828E838FF0EC128334020406AD82AE83AFF0C007C006C00583
:2001C7001203EB7582D012042A75820012042A1204061203EB7582D112042AAA37AB38AC46
:2001E70039D200C004C003C00212044F1200DEA982D002D003D0048A828B838CF0E9128397
:2002070034AA34AB35AC36D200C004C003C00212044F1200DEA982D002D003D0048A828B58
:20022700838CF0E9128334C20012044F1200DEAC82D005D006D0078D828E838FF0EC12831F
:2002470034020406AF82C0071203EB7582D012042A75820012042A853B821200A712042AE6
:20026700853A821200A712042AD0078F821200A712042A020406AF82C0071203EB7582D091
:2002870012042A75820312042AD0078F8212042A853C821200A712042A853D821200A7126A
:0E02A700042A853E821200A712042A020406D1
:2002B50075C70075C50075C60075C38075C40043C11022AE82AF8375C78375C5018EC48F14
:2002D500C375C65A75C6A500AFC2C0071202B5D0078F8222AE82AF8375C78375C5028EC417
:2002F5008FC38518C275C65A75C6A5000202B5AE82AF8375C78375C5038EC48FC375C65A73
:2003150075C6A5000202B543C1107F20EF60101FEF24BDF582E43400F58374FFF080EDBF98
:2003350020005018EF24BDFDE43400FE8F827583F00FE493FC8D828E83F080E390000002BD
:2003550003047F00BF2000502975C78375C5028FC475C300EF24BDF582E43400F5830FE05E
:13037500F5C275C65A75C6A500C0071202B5D00780D2226E
:20038800759850438E40538EFE758BB2758DFFC2ABD28ED2ACD2A022E582FF700122C29922
:2003A8008F9920990543C11080F8C29922AD82AE83AFF0C2998D828E838FF01283B9FC60A3
:2003C800218C9920990543C11080F8C2998D828E838FF01283B9FCBC1A01220DBD00D60E9A
:0303E80080D3229D
:2003EB00D2C043C11043C110D2CD43C11043C110C2C043C11043C110C2CD22C2C043C11080
:20040B0043C110D2CD43C11043C110D2C02243C11043C110D2CD43C11043C110C2CD22AFF3
:20042B00827E00EF23540124FF92C08F05ED2DFFC007C006120419D006D0070EBE080040AB
:20044B00E20204197F00D2C07E0043C11043C110D2CD43C11043C1108F05ED2DFDA2C0E421
:1E046B00334DFFC2CD0EBE080040DFA200B392C0C007120419D007A2C092CD8F82220A
:20048900AE82AF837C007D00C3EC9EED9F500A43C1100CBC00F20D80EF22AE82AF837C007B
:2004A9007D00C3EC9EED9F501D9003E8C007C006C005C004120489D004D005D006D0070CDE
:2004C900BC00DF0D80DC22AF82E53F4FF58212055975820D020559AF82302D118F82120537
:2004E900598540828541838542F00205D98F820205BAAF82D285EFC4540124FF9283EFA248
:20050900E5E43324FF9282EF2323540124FF9281EF235401FE24FF9280D28400C28400EFBA
:20052900540124FF9283EF03540124FF9282EF03035401FE24FF9281EFA2E3E433FF24FF7C
:200549009280D28400C284900064120489C28522AF82C285EFC4540124FF9283EFA2E5E4D6
:200569003324FF9282EF2323540124FF9281EF235401FE24FF9280D28400C28400EF5401CE
:2005890024FF9283EF03540124FF9282EF03035401FE24FF9281EFA2E3E433FF24FF92805F
:2005A900D28400C28490006402048975820C020559E582FF600E8F8212055990844775F09B
:2005C900800205D9758201120559900640020489AD82AE83AFF07C008D828E838FF0128336
:2005E900B9FB6055BC10005050BB80005025EB24E050200CEC601C0DBD00010E8B82C007ED
:20060900C006C005C0041204FBD004D005D006D00780C58D828E838FF01283B9FBA3AD821C
:20062900AE838B82C007C006C005C004120559D004D005D006D007809F22C286903A98129A
:20064900048975801C00C284900FA0120489D28400C2849000A0120489D28400C284900038
:20066900A012048975801400C2849003E8120489D28400C2840075801100C2849000281217
:20068900048975801000C2840075801300C28490002812048975801000C28400758016007E
:2006A900C28490002812048975801000C2840075801800C2849003E8020489AF82E548246A
:2006C9000540030207798F821205598543828544838545F01205D974F6254640067D207E50
:2006E90000801DAB467C00751B0A8C1C8B828C8312840BAB82AC8374302BFBFD3395E0FE1F
:200709008D821204FBAD467E00751B0A8E1C8D828E831283D5AD8274302DF5821204FBE504
:2007290048240350123001067D3A7E0080047D207E008D821204FBAD477E00751B0A8E1CFE
:200749008D828E83C006C00512840BAB8274302BF5821204FBD005D006751B0A751C008D5D
:20076900828E831283D5AD8274302DF5820204FB8F821205598543828544838545F0120513
:20078900D974F6254640067E207F00801DAC467D00751B0A8D1C8C828D8312840BAC82AD56
:2007A9008374302CFCFE3395E0FF8E821204FBAE467F00751B0A8F1C8E828F831283D5AE29
:2007C9008274302EF5821204FBC3E5489464E433FF60163001067D3A7E0080047D207E00B5
:2007E9008D82C0071204FBD007AD477E00751B0A8E1C8D828E83C007C006C00512840BABBE
:200809008274302BF5821204FBD005D006751B0A751C008D828E831283D5AD8274302DF5A1
:20082900821204FBD007EF60123001067E3A7F0080047E207F008E821204FBAE487F0075CA
:200849001B648F1C8E828F83C007C0061283D5751B0A751C0012840BAC8274302CF58212F9
:2008690004FBD006D007751B0A751C008E828F831283D5AE8274302EF5821204FB7582206B
:030889000204FB6B
:11844700202020202020202020202020202020200024
:04000000020049327F
:03000B0002143AA2
:0100130032BA
:01001B0032B2
:030023000229DBD4
:03002B000281A7A8
:01003300329A
:03003B000210CBE5
:03004300028197A0
:0500A200C23F02004610
:03004600025697C8
:20088C00E54B75F006A4FFAD4A7E00751B0A8E1C8D828E83C00712840BAD82D007ED2FF5B6
:2008AC00587E017D0190F007E493FCC3ED9C4003020956ED90F00793FC8D030BEB3395E0BC
:2008CC00FAEB2407F582EA34F0F583E493F9C3EC99E433F97C0009B900010CED90F00793E5
:2008EC00F8C3E55898E4337F0029F9EF3CFCEB2407F582EA34F0F583E493FFC3E5589FE471
:20090C00337B0029F582EB3CF583751B028B1CC006C0051283D5E5828583F0D005D0064561
:20092C00F060218E047F008C828F83A3751B028F1CC0061283D5AC82AF83D006EC4F24FF65
:20094C0092A180060D8D060208B190F007E493FFEEB50702800122EE90F00793FF90F0089C
:20096C00E493FDC3EF9DE433FF7D000FBF00010DEE90F00793FCC3E5589CE4337B002FFFD9
:20098C00EB3DFD90F008E493FCC3E5589CE4337B002FF582EB3DF583751B028B1CC00612A6
:2009AC0083D5E5828583F0D00645F060197F008E828F83A3751B028F1C1283D5AE82AF83A3
:2009CC00EE4F24FF92A122787FB600028010787FB60103020A6A787FB6020280672278813D
:2009EC00E6B54B077882E6B54A0122AF4B7881A607AE4A7882A60690F010E493FDBD020CEF
:200A0C008F198E1A75820A12820C802F8E047D00751B058D1C8C828D83C007C0061283D5C8
:200A2C00E5828583F0D006D00745F0700E9000DDE0FD8F198E1A8D8212820C7883765A785F
:200A4C007F76022230920BD2C2787FA2C2E433F6800C788386077883EF14F6EF7009209286
:200A6C0006787F7600C2C2222002092036069000F4E06006C213758205229000E2E0FF605C
:200A8C001C9000E1E0600FEF5401FE60091FEFFE3395E0FF80047E057F008E822290012F98
:200AAC00E0FFBF03004003020B429000E8E07003020B3CE551FFB54A07E54CB54D02807083
:200ACC00854D1B751C0090003CC00712834FE5828583F0D00724D0FD740235F0FE7C00EFEA
:200AEC002DFDEC3EFE854C1B8C1C90003CC006C00512834FAC82AF83D005D006EDC39CFD75
:200B0C00EE9FFEAC4A7F00EDC39CF582EE9FF583751BD0751C021283D5AE82AF83C37468A3
:200B2C009E74818FF063F08095F0921375820022C21375820522E55624FE4003020BD19080
:200B4C0000E8E07003020BD1E551FFB54A07E54CB54D028070854D1B751C0090003CC007FF
:200B6C0012834FE5828583F0D00724D0FD740235F0FE7C00EF2DFDEC3EFE854C1B8C1C90E4
:200B8C00003CC006C00512834FAC82AF83D005D006EDC39CFDEE9FFEAC4A7F00EDC39CF509
:200BAC0082EE9FF583751BD0751C021283D5AE82AF83C374689E74818FF063F08095F09248
:200BCC0013758200229000EAE07003020C57E553FFB54A07E54CB54F028070854F1B751CC7
:200BEC000090003CC00712834FE5828583F0D00724D0FD740235F0FE7C00EF2DFDEC3EFEF5
:200C0C00854C1B8C1C90003CC006C00512834FAC82AF83D005D006EDC39CFDEE9FFEAC4A24
:200C2C007F00EDC39CF582EE9FF583751BD0751C021283D5AE82AF83C374689E74818FF0F1
:200C4C0063F08095F092137582022274FE25565003020CE69000E8E07003020CE6E551FF48
:200C6C00B54A07E54CB54D028070854D1B751C0090003CC00712834FE5828583F0D00724EE
:200C8C00D0FD740235F0FE7C00EF2DFDEC3EFE854C1B8C1C90003CC006C00512834FAC8228
:200CAC00AF83D005D006EDC39CFDEE9FFEAC4A7F00EDC39CF582EE9FF583751BD0751C0247
:200CCC001283D5AE82AF83C374689E74818FF063F08095F0921375820022C2137582052282
:200CEC0090012FE0FFBF0102800C2002092036069000F4E06006C214758205229000E2E064
:200D0C00FE601C9000E1E0600FEE5401FD70091EEEFD3395E0FE80047D057E008D8222BFB1
:200D2C0004004003020DBF9000E9E07003020DB9E552FFB54A07E54CB54E028070854E1BAE
:200D4C00751C0090003CC00712834FE5828583F0D00724D0FD740235F0FE7C00EF2DFDEC3E
:200D6C003EFE854C1B8C1C90003CC006C00512834FAC82AF83D005D006EDC39CFDEE9FFE7D
:200D8C00AC4A7F00EDC39CF582EE9FF583751BD0751C021283D5AE82AF83C374689E748119
:200DAC008FF063F08095F0921475820122C21475820522E55724FE4003020E4E9000E9E044
:200DCC007003020E4EE552FFB54A07E54CB54E028070854E1B751C0090003CC00712834FDE
:200DEC00E5828583F0D00724D0FD740235F0FE7C00EF2DFDEC3EFE854C1B8C1C90003CC04A
:200E0C0006C00512834FAC82AF83D005D006EDC39CFDEE9FFEAC4A7F00EDC39CF582EE9F73
:200E2C00F583751BD0751C021283D5AE82AF83C374689E74818FF063F08095F092147582C9
:200E4C0001229000EBE07003020ED4E554FFB54A07E54CB55002807085501B751C0090003A
:200E6C003CC00712834FE5828583F0D00724D0FD740235F0FE7C00EF2DFDEC3EFE854C1B16
:200E8C008C1C90003CC006C00512834FAC82AF83D005D006EDC39CFDEE9FFEAC4A7F00ED22
:200EAC00C39CF582EE9FF583751BD0751C021283D5AE82AF83C374689E74818FF063F08008
:200ECC0095F092147582032274FE25575003020F639000E9E07003020F63E552FFB54A078E
:200EEC00E54CB54E028070854E1B751C0090003CC00712834FE5828583F0D00724D0FD742F
:200F0C000235F0FE7C00EF2DFDEC3EFE854C1B8C1C90003CC006C00512834FAC82AF83D0E4
:200F2C0005D006EDC39CFDEE9FFEAC4A7F00EDC39CF582EE9FF583751BD0751C021283D55C
:200F4C00AE82AF83C374689E74818FF063F08095F0921475820122C21475820522900200D4
:200F6C0012030490012FE0FFBF01028043BF0202802CBF03028015BF0448855418900206CC
:200F8C001202E98550189002071202E98553189002041202E9854F189002051202E98552EB
:200FAC00189002021202E9854E189002031202E98551189002001202E9854D189002010203
:200FCC0002E92275FA0075EA009000E474A8F07461A3F075DA49D2DE22538E7F75890090EA
:200FEC0000EDE0FF8F1B751C009007D0C00712834FAD82AE83D007EE3395E0FCFB7430C3A1
:20100C009D74F89EFEE49CE49B8E8CEF75F0D0A4D39430F4F58AC28DD28CD2A92243C110D6
:20102C00B220A2209287D21E9000FBE0FFE06006EF149000FBF09000FDE0FFE06006EF1424
:20104C009000FDF09000F4E0FFBF0201220549900130E0FF7E001FBFFF011EAC497D00C323
:20106C00EF9CEE64808DF063F08095F050507549009000B9E0600E9000BAE014F0E07005BA
:20108C009000B9E4F0D21F054AE54A24C4502FC203754A00054BE54B24E850177881761853
:2010AC00754B009000E6E0FFE06006EF149000E6F0C204054CE54C24F45003754C0022C00A
:2010CC002AC0E0C0F0C082C083C007C006C005C004C003C002C001C000C0D075D00843C108
:2010EC001010D80302141D9000E4E0FEA3E0FF8EEA8FFA9000E474A82EF074613FA3F090FC
:20110C00F01FE493600CA2B6B39215A2B7B392168008A2B69215A2B7921690012FE0FFBF85
:20112C00015390F01FE4936027303412201503301604C2408002D240A240921580372015AF
:20114C0007201604C2408002D240A24092158025303412301507301604C2408002D240A23A
:20116C004092158010301503201604C2408002D240A24092157405B5560302124A30150D14
:20118C00301705D21902124AD21702124A201B0302123EE55624E8FEE43400FF9000ECE01F
:2011AC008E828F83F09000E1E0FFE06008EF149000E1F0806030122EE5562451F9870F0F77
:2011CC00A70FEF24C4501FE5562451F87600E556244DF9870F0FA70FEF24F45038E55624FB
:2011EC004DF87600802F20122CE5562451F9870F1FA70FEF24C3501DE5562451F8763BE586
:20120C0056244DF9870F1FA70FEF24F35007E556244DF8760BC219C217C21B75D000120A23
:20122C007475D00885825675D000120F6975D008800C301904D21B800510170280007405FB
:20124C00B5570302131330160D301805D21A021313D218021313201C03021307E55724E8E2
:20126C00FEE43400FF9000ECE08E828F83F09000E1E0FFE06008EF149000E1F080603012C1
:20128C002EE5572451F9870F0FA70FEF24C4501FE5572451F87600E557244DF9870F0FA7B8
:2012AC000FEF24F45038E557244DF87600802F20122CE5572451F9870F1FA70FEF24C35021
:2012CC001DE5572451F8763BE557244DF9870F1FA70FEF24F35007E557244DF8760BC21A1B
:2012EC00C218C21C75D000120CEC75D00885825775D000120F6975D008800C301A04D21C4C
:20130C008005101802800030210930B5069000F17402F030210330B504C2408002D240A2F1
:20132C0040922420230330B504C2408002D240A240922120220A202403202104C2408002F5
:20134C00D240A2409222A2B5922330250930B3069000F27402F030250330B304C2408002DB
:20136C00D240A240922820270330B304C2408002D240A240922520260A202803202504C2AD
:20138C00408002D240A2409226A2B3922730290930B4069000F37402F030290330B404C28A
:2013AC00408002D240A240922C202B0330B404C2408002D240A2409229202A0A202C032081
:2013CC002904C2408002D240A240922AA2B4922B900144E014F0E0700AD23F90014474140C
:2013EC00F0B22D9000E7E0FFE0600EEF149000E7F09001457428F08018900145E014F0E070
:20140C00700F9001457428F075D00012102975D008D0D0D000D001D002D003D004D005D0A3
:20142C0006D007D083D082D0F0D0E0D02A32C0E0C082C083C0D075D01043C110303543E5D7
:20144C0056B401009241E43324FF92A77401B55703D38001C39241E43324FF92A57402B525
:20146C005603D38001C39241E43324FF92A67403B55703D38001C39241E43324FF92A402C9
:20148C00151DE556700B90F000E493540760028004C2418002D241A241E43324FF92C474A1
:2014AC0001B55703D38001C39241E43324FF92C32034109000E2E0700A201307201404C233
:2014CC00418002D241A24192122034427405B556097405B55704E5567034E5A0540FFFE54C
:2014EC005590846E934FF5A03012067E017F0080047EFF7FFFAF55EE2FF55524F75005757D
:20150C005507800D7408B55508755500800353A00FD0D0D083D082D0E032AF829000BBE472
:20152C00F0BFA100500FEF2417F582E43400F5830FE4F080EC2285825E85835F85F060AC01
:20154C005A9000FCECF08559F0ECA4FB9000FD740A2BF0C22E855E82855F838560F0C004E9
:20156C001203B5D0047402255EF9E4355FFAAB607407255EF561E4355FF56285606374086B
:20158C00255EF564E4355FF565856066A859302E030217129000FDE070030217123030034B
:2015AC0002171243C110758280C004C003C002C001C000120559855B82855C83855DF01285
:2015CC0005D9D000D001D002D003D004301D32754313754488754580854B46854A47854948
:2015EC0048A22092017582C0C004C003C002C001C0001206C4D000D001D002D003D004804B
:20160C006990F002E493703275431B754488754580854B46854A47854948A22092017582DE
:20162C00C0C004C003C002C001C0001206C4D000D001D002D003D004803075432375448852
:20164C00754580854B46854A47854948A22092017582C0C004C003C002C001C0001206C450
:20166C00D000D001D002D003D0041032028002C3229000FBE0600620310302159AC2318848
:20168C000718EF70030217129000FBECF09000FCECF089828A838BF01283B9FFBF2B448530
:2016AC0061828562838563F01283B9FFBF3F0280328564828565838566F01283B9FFBF3FFC
:2016CC0002802090882B75F080C004C003C002C001C0001203B5D000D001D002D003D00486
:2016EC0002159A855E82855F838560F0C004C003C002C001C0001203B5D000D001D002D0B5
:20170C0003D00402159A7582801205BA9000FEE4F0A22E22AD82AE83AFF090882F75F0806E
:20172C00C007C006C0051203B5D005D006D0078D828E838FF01203B5755B36755C88755D65
:20174C0080755901755A3C90883375F080021542900017E0602090001AE0701A755B4975F1
:20176C005C88755D80755903755A0190884775F080121542C32290885A75F0801203B530A3
:20178C00420B90000175F0001203B5800990F01175F0801203B59000FE7408F0755B6775C1
:2017AC005C88755D80755905755A3D90886475F080021542900017E4F0C20F9000FE7407F9
:2017CC00F0755B89755C88755D80755903755A1E90887575F0801215429000FEE4F090007E
:2017EC0017E024FF22C20F9000FE740DF09000F9E0FFBF50028025BF66028038BF6E028025
:20180C004BBF7460755B9A755C88755D80755903755A1E90887575F080021542755B9A7561
:20182C005C88755D80755903755A1E9088AC75F080021542755B9A755C88755D80755903C0
:20184C00755A1E9088C075F080021542755B9A755C88755D80755903755A1E90887575F0B4
:20186C0080021542C3229000FE740EF07582001215269000BBE4F0755BDA755C88755D80E6
:20188C0075590F755A019088D275F08012154250339000FAE4F07F00EF2417F582E434003E
:2018AC00F583E0FEBE2C0122EF2417F582E43400F5830FE024D0FE9000FAE0FD75F00AA42D
:2018CC002EF080D422787E861B751C0090001C12834F751B00751C0112840BAE8230350652
:2018EC007D387F0080047D537F008D82C0061203A0D0063034067D447F0080047D537F00F8
:20190C008D82C0061203A0D0067F00EF24E8FCE43400FD8C828D83E0700E758245C007C091
:20192C00061203A0D006D007EF244DF987057C00751B0A8C1C8D828C83C007C006C0011212
:20194C00840BAC8274302CF5821203A0D00187057C00751B0A8C1C8D828C831283D5AC82F1
:20196C0074302CF5821203A0D006D007EF2451F987057C00751B0A8C1C8D828C83C007C066
:20198C0006C00112840BAC8274302CF5821203A0D00187057C00751B0A8C1C8D828C83125E
:2019AC0083D5AC8274302CF5821203A0D006D0070F90012FE0FDEFB50502800302191730B0
:2019CC004323301D1390F002E49360067D477F00800A7D447F0080047D647F008D82C00610
:2019EC001203A0D006AD4B7F00751B0A8F1C8D828F83C00612840BAD8274302DF582120380
:201A0C00A0AD4B7F00751B0A8F1C8D828F831283D5AD8274302DF5821203A0AD4A7F0075BC
:201A2C001B0A8F1C8D828F8312840BAD8274302DF5821203A0AD4A7F00751B0A8F1C8D8212
:201A4C008F831283D5AD8274302DF5821203A09000DDE02430F5821203A07582201203A039
:201A6C00D0063036067D307F0080047D317F008D82C0061203A0D0069000E7E060067D3170
:201A8C007F0080047D307F008D82C0061203A0D00630A1067D317F0080047D307F008D82E8
:201AAC00C0061203A0D00690F010E4935403700330431C3092067D307F0080047D2F7F00C6
:201ACC0090F010E4932DF582C0061203A0D006758220C0061203A0D0067F00751B0A8F1CD2
:201AEC008E828F83C007C00612840BAC8274302CF5821203A0D006D007751B0A751C008EFA
:201B0C00828F831283D5AE8274302EF5821203A0204301229000FAE0FF7E00751B0A8E1CDC
:201B2C008F828E8312840BAE8274302EF5821203A09000FAE0FF7E00751B0A8E1C8F828EDE
:201B4C00831283D5AE8274302EF5820203A03035067EE17F8880047EE87F887D808E828F10
:201B6C00838DF01203B57F003034067DEF7E8880047DF37E887C808D828E838CF0C00712C9
:201B8C0003B5D0078F0674312EF582C0071203A075823D1203A0D007EF24E8FDE43400FE81
:201BAC008D828E83E0700A758245C0071203A0D007EF244DF987067D00751B0A8D1C8E825A
:201BCC008D83C007C00112840BAD8274302DF5821203A0D00187067D00751B0A8D1C8E8266
:201BEC008D831283D5AD8274302DF5821203A075823A1203A0D007EF2451F987067D00759A
:201C0C001B0A8D1C8E828D83C007C00112840BAD8274302DF5821203A0D00187067D007525
:201C2C001B0A8D1C8E828D831283D5AD8274302DF5821203A0D0070F90012FE0FEEFB506E6
:201C4C000122021B74229088F775F0801203B5AE4B7F00751B0A8F1C8E828F8312840BAEB6
:201C6C008274302EF5821203A0AE4B7F00751B0A8F1C8E828F831283D5AE8274302EF58216
:201C8C001203A075823A1203A0AE4A7F00751B0A8F1C8E828F8312840BAE8274302EF582A5
:201CAC001203A0AE4A7F00751B0A8F1C8E828F831283D5AE8274302EF5821203A09000DD80
:201CCC00E0FFBF010B9088FB75F0801203B5801A90890075F0801203B59000DDE02430F594
:201CEC00821203A075822C1203A09000DEE0FF7E00751B0A8E1C8F828E8312840BAE827453
:201D0C00302EF5821203A09000DEE0FF7E00751B0A8E1C8F828E831283D5AE8274302EF59B
:201D2C00821203A075822F1203A09000DFE0FF7E00751B0A8E1C8F828E8312840BAE82740E
:201D4C00302EF5821203A09000DFE0FF7E00751B0A8E1C8F828E831283D5AE8274302EF55A
:201D6C00821203A075822F1203A09000E0E0FF7E00751B0A8E1C8F828E8312840BAE8274CD
:201D8C00302EF5821203A09000E0E0FF7E00751B0A8E1C8F828E831283D5AE8274302EF519
:201DAC00821203A030442190890375F0801203B5301D067E317F0080047E307F0090F002CC
:201DCC00E4932EF5820203A022787E861B751C0090001C12834F751B00751C0112840BAEEB
:201DEC0082AF83204503021EC390890975F080C0061203B5D0063036067D307F0080047DD2
:201E0C00317F008D82C0061203A090890E75F0801203B590F001E4932430F5821203A0909E
:201E2C00891375F0801203B5D0069000E7E060067D317F0080047D307F008D82C0061203F1
:201E4C00A090891875F0801203B59000E6E02430F5821203A075822F1203A090F003E4934B
:201E6C002430F5821203A090891D75F0801203B590F004E493FF7D00751B0A8D1C8F828D99
:201E8C008312840BAD8274302DF5821203A090F004E493FF7D00751B0A8D1C8F828D8312F9
:201EAC0083D5AD8274302DF5821203A090892275F0801203B5D00690892675F080C00612D6
:201ECC0003B5D00630A1067D317F0080047D307F008D82C0061203A090892C75F0801203EB
:201EEC00B5D0067F00751B0A8F1C8E828F83C007C00612840BAC8274302CF5821203A0D03D
:201F0C0006D007751B0A751C008E828F831283D5AE8274302EF5821203A090F010E4935498
:201F2C0003700330452190893275F0801203B53092067E307F0080047E2F7F0090F010E476
:201F4C00932EF5821203A02045012290893875F0801203B59000FAE0FF7E00751B0A8E1CD5
:201F6C008F828E8312840BAE8274302EF5821203A09000FAE0FF7E00751B0A8E1C8F828E9A
:201F8C00831283D5AE8274302EF5821203A090893E75F0801203B590F01CE4932430F58236
:201FAC001203A090F01CE493FFBF02012275822C1203A090F01175F0800203B5AD82AE8302
:201FCC00AFF0900132E0700122755B47755C89755D8075590F755A0190894375F080C007A8
:201FEC00C006C005121542121872D005D006D00774012DFAE43EFB8F048A828B838CF012CF
:20200C0083B9F9B92A028027900132E0F9B90402801DC007C006C005C004C003C002121737
:20202C00C0D002D003D004D005D006D0078005900017E4F0A2469242C007C006C005C00407
:20204C00C003C00212175CD002D003D004D005D006D007400122900132E0F9B90316A246B6
:20206C009243C007C006C0051218D1D005D006D0070221299084ED75F080C007C006C0052C
:20208C00C004C003C0021203B5121B5AA2469244121C52A2469245121DD5D002D003D00420
:2020AC00D005D006D0078A828B838CF01283B9FABA2A028053900017E0604D90895875F0F1
:2020CC0080C007C006C0051203B590001775F0001203B5D005D006D00730461B90001BE0E4
:2020EC00701590896375F080C007C006C0051203B5D005D006D00790001BE4F090001AF037
:20210C00900019F0900018F08D828E838FF0C007C006C0051203B5D005D006D0070DBD007B
:20212C00010E8D828E838FF01283B9FDBD2A0990884775F0800203B5755B7D755C89755D33
:20214C0080755932755A0190884775F08002154290892675F0801203B530A1067E317F0093
:20216C0080047E307F008E821203A090898E75F0801203B590F007E4932430F5821203A009
:20218C0090F007E493700990899675F0800203B59089AB75F0801203B590F007E493FF7589
:2021AC00820DC0071203A0D007EF90F00793FE7D00751B3C8D1C8E828D83C00712840BAD03
:2021CC008274302DF5821203A0D007EF90F00793FE7D00751B068D1C8E828D83C00712845D
:2021EC000B751B0A751C001283D5AD8274302DF5821203A075823A1203A0D007EF90F007D4
:20220C0093FF7E00751B068E1C8F828E831283D5AE8274302EF5821203A09089B875F080F2
:20222C001203B590F008E493FF7E00751B3C8E1C8F828E8312840BAE8274302EF582120385
:20224C00A090F008E493FF7E00751B068E1C8F828E8312840B751B0A751C001283D5AE828E
:20226C0074302EF5821203A075823A1203A090F008E493FF7E00751B068E1C8F828E83127E
:20228C0083D5AE8274302EF5821203A07582301203A07F0290F007E493FEC3EF9E400122A0
:2022AC0075820DC0071203A0D007EF90F00793FE7D00751B3C8D1C8E828D83C00712840B3A
:2022CC00AD8274302DF5821203A0D007EF90F00793FE7D00751B068D1C8E828D83C0071233
:2022EC00840B751B0A751C001283D5AD8274302DF5821203A075823A1203A0D007EF90F056
:20230C000793FE7D00751B068D1C8E828D83C0071283D5AD8274302DF5821203A09089B80F
:20232C0075F0801203B5D0078F06EE04FD3395E0FCED2407F582EC34F0F583E493FB7A00E0
:20234C00751B3C8A1C8B828A83C006C005C00412840BAA8274302AF5821203A0D004D00526
:20236C00ED2407F582EC34F0F583E493FB7A00751B068A1C8B828A83C005C00412840B7559
:20238C001B0A751C001283D5AA8274302AF5821203A075823A1203A0D004D005ED2407F54F
:2023AC0082EC34F0F583E493FD7C00751B068C1C8D828C831283D5AC8274302CF5821203C7
:2023CC00A07582301203A0D00674022EFF0222A0AD82AE83AFF0900132E0700122755B47EC
:2023EC00755C89755D8075590F755A0190894375F080C007C006C005121542A247924212AD
:20240C00175CD005D006D007400122A2479244C007C006C005121C52A2479245121DD512F1
:20242C00215CD005D006D0078D828E838FF01203B5755BBD755C89755D80755932755A011F
:20244C0090884775F080021542900017E4F0D24212175C4001229084FD75F0801203B57527
:20246C005BCE755C89755D80755932755A0190884775F080021542755BDF755C89755D80B3
:20248C0075590F755A0190894375F08012154250367582001215269000BBE4F09000FE74EE
:2024AC000AF0755BFA755C89755D8075590F755A019089F075F080121542500990001BE0B8
:2024CC00FF9000F9F0D322C322C248900131E0FFBF3D0122755B15755C8A755D8075590F65
:2024EC00755A01908A0A75F0801215424003022682755B30755C8A755D8075590F755A0147
:20250C00908A2575F08012154240030226829000FE740CF0755B4B755C8A755D8075590A97
:20252C00755A3C908A4075F08012154240030226827582001215269000BBE4F09000FE748A
:20254C0002F0755B65755C8A755D8075590F755A01908A5B75F080121542400302268290AE
:20256C00001AE024D075F00AA4FF90001BE02F24D0FF9000E0F090001DE024D075F00AA4AE
:20258C00FE90001EE02E24D0FE9000DFF0900020E024D075F00AA4FD900021E02D24D0FDE1
:2025AC009000DEF0900023E024D075F00AA4FC900024E02C24D0F54B900026E024D075F038
:2025CC000AA4FC900027E02C24D0F54A900029E024D075F00AA4FC90002AE02C24D0F549BB
:2025EC008E048C1B751C00900017C007C006C00512834F751B09751C0012840BAB82AC8301
:20260C00D005D006D0077A00ED2BFDEA3CFCEE24FD501274035F7E004EB401009249E433C1
:20262C00FB7E0080047B027E00EB2DFDEE3CFC8F067B00EE2DFDEB3CFC7E008F828E83A3CD
:20264C00A3A3751B048E1CC005C00412840BAE82AF83D004D005EE2DFDEF3CFC8D828C8358
:20266C00A3751B07751C0012836CAE82AF839000DDEE04F0D248A248921D9000FEE4F0229A
:20268C00755B80755C8A755D8075590F755A01908A7575F080121542502D758200121526E6
:2026AC009000BBE4F09000FE740BF0755B9C755C8A755D8075590F755A01908A9175F0809C
:2026CC001215425002D322C32230A006900132E07002C322755BB7755C8A755D8075590F78
:2026EC00755A01908AAC75F0801215425039755BDB755C8A755D8075590F755A01908AC87A
:20270C0075F080121542501F755B00755C8B755D8075590F755A01908AEC75F08012154271
:20272C005005121872D322C32230A006900132E07002C322755B11755C8B755D8075590F86
:20274C00755A0190894375F080121542400122755BB7755C8A755D8075590F755A02908A94
:20276C00AC75F0801215425036755BDB755C8A755D8075590F755A01908AC875F0801215DA
:20278C0042501C755B22755C8B755D80755914755A03908AEC75F0801215425002D322C3CD
:2027AC0022C24A900131E0FFBF3D0122755B34755C8B755D8075590F755A0190894375F0FF
:2027CC008012154240030229D1755B4F755C8B755D8075590F755A01908B4575F0801215DF
:2027EC004240030229D1755B80755C8A755D8075590F755A01908A7575F08012154290F045
:20280C0002E49370030229D1755B60755C8B755D8075590F755A01908A0A75F080121542C7
:20282C0040030229D1755B7C755C8B755D8075590F755A01908B7175F08012154240030287
:20284C0029D19000FE7406F0755B99755C8B755D8075590F755A02908B8E75F080121542BE
:20286C0040030229D19000FFE0FFBF010280030229D17F007E00EE2411F582E43401F58336
:20288C000EE0FDBD2C060FBF0300500ABE0B00500543C11080E0EF24FD40030229D18E07B1
:2028AC000FEF3395E0FDEF2411F582ED3401F583E0FFBF2C15EE04FFEE2411F582E43401B1
:2028CC00F583E0FD24D0F54B8029EE04FDEE2411F582E43401F583E024D075F00AA4FEEDCE
:2028EC0004FFED2411F582E43401F583E0FD24D02EF54B0F8F060EEE3395E0FDEE2411F503
:20290C0082ED3401F583E0FEBE2C15EF04FEEF2411F582E43401F583E0FD24D0F54A8029DC
:20292C00EF04FDEF2411F582E43401F583E024D075F00AA4FFED04FEED2411F582E43401E8
:20294C00F583E0FD24D02FF54AEE04FFFE0EEE3395E0FDEE2411F582ED3401F583E0FEBE54
:20296C002C12EF2411F582E43401F583E0FE24D0F5498026EF04FEEF2411F582E43401F591
:20298C0083E024D075F00AA4FFEE2411F582E43401F583E0FE24D02FF549AE4B7F00740765
:2029AC002EFEE43FFFC374179E74808FF063F08095F05007E54B24EFFF8006AE4B74072E45
:2029CC00FF8F4BD24AA24A921D9000FEE4F022C02AC0E0C0F0C082C083C007C006C005C006
:2029EC0004C003C002C001C000C0D075D01020980302429743C1109000FCE09000FBF090BB
:202A0C000100E02402F582E43401F583E599F0900100E0FF2402F582E43401F583E0FEBEF3
:202A2C004E028003022B618F147D00740C2CF582E43DF583751B0D8D1CC017C016C015C0C5
:202A4C001475D0001283D575D010AA82AB83D014D015D016D017EA2402F582EB3401F58343
:202A6C00E0FBBB49028003022B61740B2CF582E43DF583751B0D751C00C017C016C015C02D
:202A8C001475D0001283D575D010AA82AB83D014D015D016D017EA2402F582EB3401F58303
:202AAC00E0FBBB20028003022B61740A2CF582E43DF583751B0D751C00C017C016C015C017
:202ACC001475D0001283D575D010AA82AB83D014D015D016D017EA2402F582EB3401F583C3
:202AEC00E0FBBB547074092CF582E43DF583751B0D751C00C017C016C015C01475D00012DC
:202B0C0083D575D010AA82AB83D014D015D016D017EA2402F582EB3401F583E0FBBB4F35D3
:202B2C0074082CF582E43DF583751B0D751C00C017C01675D0001283D575D010AC82AD8394
:202B4C00D016D017EC2402F582ED3401F583E0FDBD4E02D2309000FEE0FD24F15003024276
:202B6C0083ED240A83F582ED241383F583E47366E8983883B018AC2283EE89FE12992E36FD
:202B8C002D374238353A3A422C2D2B402B9000BBE0FC04F0EC2417F582E43400F583E599AA
:202BAC00F07420B59936900100E0FC7B00740C2CF582E43BF583751B0D8B1C75D000128341
:202BCC00D575D010AB82AC83EB2402F582EC3401F583E0FCBC3A059000BBE4F0742CB5995E
:202BEC000280030242839000FEE4F09000BBF00242837454B5996E8F137C00740C2BF58255
:202C0C00E43CF583751B0D8C1CC017C014C01375D0001283D575D010A982AA83D013D0142A
:202C2C00D017E92402F582EA3401F583E0FABA5334740B2BF582E43CF583751B0D751C0082
:202C4C00C01775D0001283D575D010AB82AC83D017EB2402F582EC3401F583E0FCBC440548
:202C6C00D22E0242837452B5990280030242838F137C00740C2BF582E43CF583751B0D8C20
:202C8C001CC014C01375D0001283D575D010A982AA83D013D014E92402F582EA3401F58325
:202CAC00E0FABA4F028003024283740B2BF582E43CF583751B0D751C0075D0001283D575CE
:202CCC00D010AB82AC83EB2402F582EC3401F583E0FCBC520280030242839000FBE4F002F4
:202CEC0042839000BBE0FC04F0EC2417F582E43400F583E599F07422B59936900100E0FCC5
:202D0C007B00740C2CF582E43BF583751B0D8B1C75D0001283D575D010AB82AC83EB2402BD
:202D2C00F582EC3401F583E0FCBC20059000BBE4F0742CB599028003024283900100E0FCF4
:202D4C007B00740C2CF582E43BF583751B0D8B1C75D0001283D575D010AB82AC83EB24027D
:202D6C00F582EC3401F583E0FCBC220280030242839000FEE4F09000BBF00242837431B573
:202D8C0099028003024283D22E0242839000BBE0FC04F0EC2417F582E43400F583E599F0C4
:202DAC00744BB59969900100E0FB7C00740C2BF582E43CF583751B0D8C1CC014C01375D0BE
:202DCC00001283D575D010A982AA83D013D014E92402F582EA3401F583E0FABA4C30740B5D
:202DEC002BF582E43CF583751B0D751C0075D0001283D575D010AB82AC83EB2402F582EC8B
:202E0C003401F583E0FCBC43059000BBE4F0740DB599028003024283900100E0FC7B007483
:202E2C000C2CF582E43BF583751B0D8B1C75D0001283D575D010AB82AC83EB2402F582EC28
:202E4C003401F583E0FCBC220280030242839000FEE4F09000BBF0024283743EB5991290AD
:202E6C00884775F08075D0001203B575D010024283BE47028003022F548F137C00740C2B8F
:202E8C00F582E43CF583751B0D8C1CC017C016C015C014C01375D0001283D575D010A9827A
:202EAC00AA83D013D014D015D016D017E92402F582EA3401F583E0FABA4E028003022F5457
:202ECC00740B2BF582E43CF583751B0D751C00C017C016C015C014C01375D0001283D575B2
:202EEC00D010A982AA83D013D014D015D016D017E92402F582EA3401F583E0FABA4949745E
:202F0C000A2BF582E43CF583751B0D751C00C017C016C01575D0001283D575D010AB82ACD4
:202F2C0083D015D016D017EB2402F582EC3401F583E0FCBC5212908BAB75F08075D0001231
:202F4C0003B575D010024283BE3A0280030230A68F137C00740C2BF582E43CF583751B0DC7
:202F6C008C1CC017C016C015C014C01375D0001283D575D010A982AA83D013D014D015D09C
:202F8C0016D017E92402F582EA3401F583E0FABA490280030230A6740B2BF582E43CF58318
:202FAC00751B0D751C00C017C016C015C014C01375D0001283D575D010A982AA83D013D09F
:202FCC0014D015D016D017E92402F582EA3401F583E0FABA540280030230A6740A2BF5829D
:202FEC00E43CF583751B0D751C00C017C016C015C014C01375D0001283D575D010A982AAFD
:20300C0083D013D014D015D016D017E92402F582EA3401F583E0FABA4D0280030230A674D9
:20302C00092BF582E43CF583751B0D751C00C017C016C015C014C01375D0001283D575D0F6
:20304C0010A982AA83D013D014D015D016D017E92402F582EA3401F583E0FABA433C7408D7
:20306C002BF582E43CF583751B0D751C00C017C016C01575D0001283D575D010AB82AC83FA
:20308C00D015D016D017EB2402F582EC3401F583E0FCBC2B05D20C024283E4BE200104FC21
:2030AC0070030232558F127B00740C2AF582E43BF583751B0D8B1CC017C016C015C014C0DA
:2030CC0013C01275D0001283D575D010A882A983D012D013D014D015D016D017E82402F547
:2030EC0082E93401F583E0F9B93A028003023255740B2AF582E43BF583751B0D751C00C02D
:20310C0017C016C015C014C013C01275D0001283D575D010A882A983D012D013D014D01580
:20312C00D016D017E82402F582E93401F583E0F9B94C028003023255740A2AF582E43BF57C
:20314C0083751B0D751C00C017C016C015C014C013C01275D0001283D575D010A882A9835D
:20316C00D012D013D014D015D016D017E82402F582E93401F583E0F9B947028003023255E6
:20318C0074092AF582E43BF583751B0D751C00C017C016C015C014C013C01275D00012836B
:2031AC00D575D010A882A983D012D013D014D015D016D017E82402F582E93401F583E0F934
:2031CC00B94D02800302325574082AF582E43BF583751B0D751C00C017C016C015C014C0D7
:2031EC0013C01275D0001283D575D010A882A983D012D013D014D015D016D017E82402F526
:20320C0082E93401F583E0F9B9433E74072AF582E43BF583751B0D751C00C017C016C01514
:20322C00C01475D0001283D575D010AA82AB83D014D015D016D017EA2402F582EB3401F51E
:20324C0083E0FBBB2B030233E9EC70030234348F137C00740C2BF582E43CF583751B0D8C33
:20326C001CC017C016C015C014C01375D0001283D575D010A982AA83D013D014D015D0160F
:20328C00D017E92402F582EA3401F583E0FABA3A028003023434740B2BF582E43CF5837533
:2032AC001B0D751C00C017C016C015C014C01375D0001283D575D010A982AA83D013D014FD
:2032CC00D015D016D017E92402F582EA3401F583E0FABA50028003023434740A2BF582E43C
:2032EC003CF583751B0D751C00C017C016C015C014C01375D0001283D575D010A982AA835B
:20330C00D013D014D015D016D017E92402F582EA3401F583E0FABA490280030234347409C2
:20332C002BF582E43CF583751B0D751C00C017C016C015C014C01375D0001283D575D010EC
:20334C00A982AA83D013D014D015D016D017E92402F582EA3401F583E0FABA4C028003020C
:20336C00343474082BF582E43CF583751B0D751C00C017C016C015C014C01375D0001283F2
:20338C00D575D010A982AA83D013D014D015D016D017E92402F582EA3401F583E0FABA4332
:2033AC0002800302343474072BF582E43CF583751B0D751C00C017C016C01575D0001283D3
:2033CC00D575D010AB82AC83D015D016D017EB2402F582EC3401F583E0FCBC2B4B8F137C5C
:2033EC000074092BF582E43CF583751B0D8C1C75D0001283D575D010AB82AC83EB2402F55F
:20340C0082EC3401F583E0FCBC4C03D38001C392064006300E03024283C20BC209C20890AF
:20342C0000FE7403F0024283BE4B698F137C00740C2BF582E43CF583751B0D8C1CC017C02E
:20344C0016C01575D0001283D575D010AB82AC83D015D016D017EB2402F582EC3401F58342
:20346C00E0FCBC4F2FBD02059000BBE4F0A22FB3922EC22F9000BBE070030242839000BB62
:20348C00E4F0908AEC75F08075D0001203B575D010024283BE540280030242838F147D00B8
:2034AC00740C2CF582E43DF583751B0D8D1CC015C01475D0001283D575D010AA82AB83D027
:2034CC0014D015EA2402F582EB3401F583E0FBBB4F028003024283740B2CF582E43DF583DC
:2034EC00751B0D751C0075D0001283D575D010AC82AD83EC2402F582ED3401F583E0FDBD73
:20350C004E028003024283D22F024283BE200280030242838F147D00740C2CF582E43DF5BA
:20352C0083751B0D8D1CC015C01475D0001283D575D010AA82AB83D014D015EA2402F5825F
:20354C00EB3401F583E0FBBB3A028003024283740B2CF582E43DF583751B0D751C00C015ED
:20356C00C01475D0001283D575D010AA82AB83D014D015EA2402F582EB3401F583E0FBBB8F
:20358C005A028003024283740A2CF582E43DF583751B0D751C00C015C01475D0001283D539
:2035AC0075D010AA82AB83D014D015EA2402F582EB3401F583E0FBBB5402800302428374BE
:2035CC00092CF582E43DF583751B0D751C00C015C01475D0001283D575D010AA82AB83D095
:2035EC0014D015EA2402F582EB3401F583E0FBBB5402800302428374082CF582E43DF583B9
:20360C00751B0D751C00C015C01475D0001283D575D010AA82AB83D014D015EA2402F58219
:20362C00EB3401F583E0FBBB5502800302428374072CF582E43DF583751B0D751C00C015F5
:20364C00C01475D0001283D575D010AA82AB83D014D015EA2402F582EB3401F583E0FBBBAE
:20366C005302800302428374062CF582E43DF583751B0D751C00C015C01475D0001283D563
:20368C0075D010AA82AB83D014D015EA2402F582EB3401F583E0FBBB500280030242838CC9
:2036AC00828D83A3A3A3A3A3751B0D751C0075D0001283D575D010AC82AD83EC2402F58224
:2036CC00ED3401F583E0FDBD2A028003024283900101E4F09000FE04F0024283740DB599B6
:2036EC00028020900101E0FDBD1E005016900101ED04F0ED2411F582E43401F583E599F061
:20370C00024283900101E0FD1DED3395E0FCED2411F582EC3401F583E4F09000FEE09000B5
:20372C00FFF09000FEE4F0D22E024283200B030237BB9000BBE0FD7023740DB59902800334
:20374C0002428330060D9000BA7402F09000B9E02401F09000FE7405F0024283BD0A0D745F
:20376C0022B599089000BBE4F0024283200813ED2401F582E43400F583E0FCB599028002DD
:20378C00D208300A0E20090DED90F01193FCB599028002D2099000BBED04F0200803024270
:2037AC00832009030242839000FEE4F002428330063CBE30398F147D00740C2CF582E43D61
:2037CC00F583751B0D8D1CC017C01675D0001283D575D010AC82AD83D016D017EC2402F53C
:2037EC0082ED3401F583E0FDBD2203023896BE3402800302389E8F147D00740C2CF582E49C
:20380C003DF583751B0D8D1CC015C01475D0001283D575D010AA82AB83D014D015EA2402C1
:20382C00F582EB3401F583E0FBBB3866740B2CF582E43DF583751B0D751C00C015C0147532
:20384C00D0001283D575D010AA82AB83D014D015EA2402F582EB3401F583E0FBBB2B337423
:20386C000A2CF582E43DF583751B0D751C0075D0001283D575D010AC82AD83EC2402F582DD
:20388C00ED3401F583E0FDBD2208D20B9000BB7401F0740DB5990280030242839000FEE4A4
:2038AC00F0024283300D3F743BB599028027740DB5990280209000BBE0FDBDA00050169037
:2038CC0000BBED04F0ED2417F582E43400F583E599F00242839000BBE4F0C20D9000FEE47C
:2038EC00F0D20E024283BE2C028003023A008F147D00740C2CF582E43DF583751B0D8D1C58
:20390C00C015C01475D0001283D575D010AA82AB83D014D015EA2402F582EB3401F583E0CC
:20392C00FBBB43028003023A00740B2CF582E43DF583751B0D751C00C015C01475D00012D8
:20394C0083D575D010AA82AB83D014D015EA2402F582EB3401F583E0FBBB55028003023AC0
:20396C0000740A2CF582E43DF583751B0D751C00C015C01475D0001283D575D010AA82ABCF
:20398C0083D014D015EA2402F582EB3401F583E0FBBB446074092CF582E43DF583751B0D20
:2039AC00751C00C015C01475D0001283D575D010AA82AB83D014D015EA2402F582EB3401F3
:2039CC00F583E0FBBB502D74082CF582E43DF583751B0D751C0075D0001283D575D010ACBA
:2039EC0082AD83EC2402F582ED3401F583E0FDBD2A028004C24B8002D24BA24B920D740DE3
:203A0C00B5990280030242839000BB7401F09000FEE4F0024283743EB5990A9000FEE4F0BB
:203A2C00D22E024283BE520280030242838F147D00740C2CF582E43DF583751B0D8D1CC075
:203A4C0015C01475D0001283D575D010AA82AB83D014D015EA2402F582EB3401F583E0FB50
:203A6C00BB52028003024283740B2CF582E43DF583751B0D751C0075D0001283D575D010F4
:203A8C00AC82AD83EC2402F582ED3401F583E0FDBD450280030242839000FBE4F002428348
:203AAC00300F669000F9E0FDBD50028003BD66057420B5990FBD74028003BD6E2F7464B5A7
:203ACC00990280289000BBE0FDBDA000501E742EB599030242839000BBED04F0ED2417F5A1
:203AEC0082E43400F583E599F0024283C20FC2119000BBE0FD2417F582E43400F583E4F091
:203B0C009000BBF0D22E0242839000F9E0FDBD50028003023C72BE3D028003023C728F131D
:203B2C007C00740C2BF582E43CF583751B0D8C1CC017C016C015C014C01375D0001283D526
:203B4C0075D010A982AA83D013D014D015D016D017E92402F582EA3401F583E0FABA680218
:203B6C008003023C72740B2BF582E43CF583751B0D751C00C017C016C015C014C01375D0B1
:203B8C00001283D575D010A982AA83D013D014D015D016D017E92402F582EA3401F583E08C
:203BAC00FABA6E028003023C72740A2BF582E43CF583751B0D751C00C017C016C015C01466
:203BCC00C01375D0001283D575D010A982AA83D013D014D015D016D017E92402F582EA348D
:203BEC0001F583E0FABA69028003023C7274092BF582E43CF583751B0D751C00C017C0167C
:203C0C00C015C014C01375D0001283D575D010A982AA83D013D014D015D016D017E9240238
:203C2C00F582EA3401F583E0FABA683A74082BF582E43CF583751B0D751C00C017C016C0E3
:203C4C001575D0001283D575D010AB82AC83D015D016D017EB2402F582EC3401F583E0FC34
:203C6C00BC630302400DBD74028003023DCABE20028003023DCA8F137C00740C2BF582E478
:203C8C003CF583751B0D8C1CC017C016C015C014C01375D0001283D575D010A982AA83D0CA
:203CAC0013D014D015D016D017E92402F582EA3401F583E0FABA3A028003023DCA740B2B2C
:203CCC00F582E43CF583751B0D751C00C017C016C015C014C01375D0001283D575D010A9C5
:203CEC0082AA83D013D014D015D016D017E92402F582EA3401F583E0FABA47028003023DD4
:203D0C00CA740A2BF582E43CF583751B0D751C00C017C016C015C014C01375D0001283D50F
:203D2C0075D010A982AA83D013D014D015D016D017E92402F582EA3401F583E0FABA4B0253
:203D4C008003023DCA74092BF582E43CF583751B0D751C00C017C016C015C014C01375D078
:203D6C00001283D575D010A982AA83D013D014D015D016D017E92402F582EA3401F583E0AA
:203D8C00FABA543A74082BF582E43CF583751B0D751C00C017C016C01575D0001283D5754B
:203DAC00D010AB82AC83D015D016D017EB2402F582EC3401F583E0FCBC200302400DBD66BB
:203DCC00028003023F22BE20028003023F228F137C00740C2BF582E43CF583751B0D8C1C0C
:203DEC00C017C016C015C014C01375D0001283D575D010A982AA83D013D014D015D016D0D0
:203E0C0017E92402F582EA3401F583E0FABA43028003023F22740B2BF582E43CF583751B5A
:203E2C000D751C00C017C016C015C014C01375D0001283D575D010A982AA83D013D014D0BC
:203E4C0015D016D017E92402F582EA3401F583E0FABA4B028003023F22740A2BF582E43C50
:203E6C00F583751B0D751C00C017C016C015C014C01375D0001283D575D010A982AA83D03B
:203E8C0013D014D015D016D017E92402F582EA3401F583E0FABA54028003023F2274092BD8
:203EAC00F582E43CF583751B0D751C00C017C016C015C014C01375D0001283D575D010A9E3
:203ECC0082AA83D013D014D015D016D017E92402F582EA3401F583E0FABA203A74082BF507
:203EEC0082E43CF583751B0D751C00C017C016C01575D0001283D575D010AB82AC83D015A7
:203F0C00D016D017EB2402F582EC3401F583E0FCBC2E0302400DBD6E028003024283BE203A
:203F2C000280030242838F147D00740C2CF582E43DF583751B0D8D1CC015C01475D0001207
:203F4C0083D575D010AA82AB83D014D015EA2402F582EB3401F583E0FBBB3A0280030242CD
:203F6C0083740B2CF582E43DF583751B0D751C00C015C01475D0001283D575D010AA82AB45
:203F8C0083D014D015EA2402F582EB3401F583E0FBBB43028003024283740A2CF582E43D43
:203FAC00F583751B0D751C00C015C01475D0001283D575D010AA82AB83D014D015EA24026F
:203FCC00F582EB3401F583E0FBBB4B02800302428374092CF582E43DF583751B0D751C00B2
:203FEC0075D0001283D575D010AC82AD83EC2402F582ED3401F583E0FDBD54028003024279
:20400C0083D20F024283200F030240A39000F9E0FDBD50028003BD6E05740AB59912BD6629
:20402C00057422B5990ABD743D742EB5990280369000BBE0FDBD0A00502CBD0900501E8D3F
:20404C00149000BBED04F00CEC3395E0FBEC240CF582EB3400F583E599F00242839000BBCF
:20406C00ED04F0024283C20FC2119000BBE0FDBD0A005016D22E0DED3395E0FCED240CF5E3
:20408C0082EC3400F583E4F080059000FBE4F09000BBE4F00242839000F9E0FDBD5040BEEB
:2040AC003A3D8F137C00740C2BF582E43CF583751B0D8C1CC017C016C01575D0001283D52F
:2040CC0075D010AB82AC83D015D016D017EB2402F582EC3401F583E0FCBC290302416ABD22
:2040EC006E3FBE303C8F137C00740C2BF582E43CF583751B0D8C1CC017C016C01575D000F9
:20410C001283D575D010AB82AC83D015D016D017EB2402F582EC3401F583E0FCBC2002806B
:20412C003DBD66028003BD743ABE34378F157E00740C2DF582E43EF583751B0D8E1CC017FC
:20414C0075D0001283D575D010AD82AE83D017ED2402F582EE3401F583E0FEBE3805D20F29
:20416C000242837435B59902800302421B8F157E00740C2DF582E43EF583751B0D8E1CC0AA
:20418C0017C016C01575D0001283D575D010AB82AC83D015D016D017EB2402F582EC340196
:2041AC00F583E0FCBC3168740B2DF582E43EF583751B0D751C00C017C016C01575D0001286
:2041CC0083D575D010AB82AC83D015D016D017EB2402F582EC3401F583E0FCBC2031740A90
:2041EC002DF582E43EF583751B0D751C00C01775D0001283D575D010AD82AE83D017ED2414
:20420C0002F582EE3401F583E0FEBE2C0280667452B599638F167F00740C2EF582E43FF5F6
:20422C0083751B0D8F1CC017C01675D0001283D575D010AC82AD83D016D017EC2402F58242
:20424C00ED3401F583E0FDBD522D740B2EF582E43FF583751B0D751C0075D0001283D5758E
:20426C00D010AE82AF83EE2402F582EF3401F583E0FFBF4502D231900100E02401F0E0FF7C
:20428C0024F35005900100E4F0C298D0D0D000D001D002D003D004D005D006D007D083D088
:2042AC0082D0F0D0E0D02A32C2107F00EF2417FDE43400FE0F8D828E83E0600543C110803E
:2042CC00EBBFA000500FEF2417F582E43400F5830FE4F080EC900017E0FFBF3F028008900B
:2042EC000018E0FFBF3F06200803022455900018E0FFBF4303024A4FBF4503024BE9BF48A6
:20430C00028044BF49030252AFBF5003024F7DBF5303024B07BF5403025320BF6303024A78
:20432C004FBF6503024BE9BF6802801BBF69030252AFBF7003024F7DBF7303024B07BF7417
:20434C000302532002564D90001AE0FFC374309FE433FE7D00700302440CBF350040030215
:20436C00440C90001DE0600302440C90001BE0FEBE44028003BE64047D04800CBE530280C9
:20438C0007BE73028002D21020101C90001CE0FEBE4102800ABE61028005EF24CD50088DA7
:2043AC000674082EFD801720100890001CE0FEBE530A90001CE0FEBE73028002D2108F061A
:2043CC00EE24D02DFEC00612031CD0069000BDEEF0120357D246908BB075F080121FC8C2DD
:2043EC00AF900200120304C2A07518009000051202E9D2A3900FA01204A375C7600249EC96
:20440C00BF2B0280030245C990001BE0FEC3742F9EE433FD7003024554BE330040030245E7
:20442C005490001CE0FC24D04003024554BC3A00400302455490001DE0FB24D040030245E8
:20444C0054BB3600400302455490001EE0F56D24D0400302455474C6256D50030245549021
:20446C000020E0F56924D0400302455474CD25695003024554900021E0F56A24D04003021A
:20448C00455474C6256A5003024554900022E0F56B24D0400302455474CA256B5003024594
:2044AC0054900023E0F56C24D0400302455474C6256C50030245548E0274022AF56EAA6977
:2044CC00C39A75F00AA42404F56E254B2CAC6AC39CFAAC6B74062CC39B75F00AA4256CAB60
:2044EC006DC39BF5678A6F757000AB4A7C00743C2BF571E43CF572AA677C00C3E5719AE54D
:20450C007264808CF063F08095F0E433FA7C00E56FC39AF582E5709CF583751B0C8C1C12F1
:20452C0083D5AB828B4DAC4A74782CAB67C39BFC7B00751B3C8B1C8C828B831283D5AB82F7
:20454C008B51120F690249ECED606DBE3600506890001CE0FD24D0505FBD3A00505AEE246D
:20456C00D075F00AA42D24D0FEAD4D740C2DFDC3E5519EE433FCEDC39CFD7C00751B0C8CF2
:20458C001C8D828C83C0061283D5AC82D0068C4DAC517D00743C2CFCE43DFD7B00ECC39E90
:2045AC00F582ED9BF583751B3C8B1C1283D5AD828D51120F690249ECD2100249ECBF2D4682
:2045CC0090001BE0FF24D05038BF3600503390001CE0FE24D0502ABE3A005025EF24D07594
:2045EC00F00AA4AD512D2E24D0F55124C4500CE54D04F54DE551FF24C4F551120F6902498A
:20460C00ECD2100249EC90001BE0FFBF4E028003BF6E2430080302567312031C9000BDE0B8
:20462C0054EFF0120357C236787F7600788176187882763C0249ECBF46028003BF663930E8
:20464C00080302567312031C9000BDE04410F0120357D23690F010E4935403FE7F00BE02C7
:20466C0012BF000F30920C751900751A0075820912820CC2C20249EC9001347403F07568FF
:20468C0001900134E0FE2417F582E43400F583E0FDBD2C46E56870099001347465F002497D
:2046AC00D6AB687C0074012BF571E43CF57290012FE0FA7C0074012AF51BE43CF51C857110
:2046CC0082857283C0061283D5AB82AC83D0068B68900134EE04F00249D6BD30005015E57E
:2046EC006870057C65FE80047CCA7E00900134ECF00249D6E5687051BD6702800DBD470221
:20470C008008BD61028003BD413F30920C751900751A0075820912820CC2C2787F76001297
:20472C0024D5AD4B7E00751B0C8E1C8D828E831283D5AD82AE838D4C788176187882763CC2
:20474C009001347465F00249D6900134E0FE2417F582E43400F583E0FD24D040030249D08A
:20476C00BD330040030249D08E037C0074012BFAE43CFFEA2417F582EF3400F583E0FF24DF
:20478C00D040030249D074012BFAE43CFFEA2417F582EF3400F583E0FFBF3A004003024989
:2047AC00D074022BFAE43CFFEA2417F582EF3400F583E0FF24D040030249D074022BFAE47C
:2047CC003CFFEA2417F582EF3400F583E0FFBF360040030249D074032BFAE43CFFEA241749
:2047EC00F582EF3400F583E0FF24D040030249D074032BFAE43CFFEA2417F582EF3400F5FB
:20480C0083E0FFBF3A0040030249D0E56870030248F8AF681FEF244DF5717A00ED24D0F585
:20482C001BEA34FFF51C90000AC007C006C004C00312834F85826F858370D003D004740187
:20484C002BFAE43CFDEA2417F582ED3400F583E07A00256FFDEA3570FAED24D0F582EA34EB
:20486C00FFF583751B0C751C00C004C0031283D5AA82D003D004D006D007A871A602EF2443
:20488C0051F974022BFDE43CFFED2417F582EF3400F583E024D075F00AA4FF74032BFBE464
:2048AC003CFCEB2417F582EC3400F583E02F24D0F7C006120F69D006AD687F000DBD000100
:2048CC000F90012FE0FC7B0074012CF51BE43BF51C8D828F83C0061283D5AD82AF83D0063D
:2048EC008D6890013474052EF00249D630920C751900751A0075820912820CC2C2787F76BE
:20490C0000900134E0FF2417F582E43400F583E07D0024D0F51BED34FFF51C90000AC007B2
:20492C0012834FAD82AE83D0077C0074012FFAE43CFBEA2417F582EB3400F583E07A002D61
:20494C00FDEA3EFEED24D0F582EE34FFF583751B188C1CC007C0041283D5AD82D004D00718
:20496C008D4B74022FFDE43CFEED2417F582EE3400F583E024D075F00AA4FE74032FFFE4EC
:20498C003CFCEF2417F582EC3400F583E02E24D0F54AAE4B7F00751B0C8F1C8E828F831266
:2049AC0083D5AE828E4C854A3A85493B854B8212024BC21D788176187882763C900134747B
:2049CC0065F0800690013474CAF0900134E0FFBF6400500302468DBFCA03D38001C39210C9
:2049EC00120A74858256120CEC85825730102A30090ED246908BD575F080121FC8025673F4
:204A0C00D246908BE875F080121FC8C246908BD575F080121FC802567330090ED246908C75
:204A2C001675F080121FC8025673D246908C3075F080121FC8C246908C1675F080121FC851
:204A4C0002567390001BE0FFBF65028003BF4514300803025673D247908C5D75F080122382
:204A6C00DC025673BF6E028003BF4E1430080302567312031C9000BE7401F0120357805189
:204A8C00BF66028003BF461330080302567312031C9000BEE4F01203578036900019E060E4
:204AAC003090001AE0602A30090ED246908BD575F080121FC8025673D246908C7575F08020
:204ACC00121FC8C246908BD575F080121FC802567330090ED246908C9F75F080121FC80236
:204AEC005673D246908CB375F080121FC8C246908C9F75F080121FC802567330080302561D
:204B0C007390001BE0FFBF7902800DBF59028008BF44028003BF6426D246908CDA75F0805F
:204B2C00121FC8C2AFC2A07518009000051202E9D2A3900FA01204A375C760025673BF6784
:204B4C00028003BF477190001FE0FE24D0505ABE3A00505512031C90001FE024D0FE900043
:204B6C00C0F09000E6EEF0900021E0FE24D05028BE33005023900022E0FD24D0501ABD3AE2
:204B8C00005015EE24D075F00AA42D24D0FEBE180050059000C1EEF0120357D246908CEFA7
:204BAC0075F080121FC8025673D246908D0575F080121FC8025673BF69028003BF4910D2C6
:204BCC0046908D1D75F080121FC8C2A0025673D246908D2F75F080121FC8025673300803F6
:204BEC0002567390001BE0FFBF58028003BF781912031C9000C4E4F0120357D247908D4825
:204C0C0075F0801223DC02567312031C1203579000C4E4F09001347404F0900134E0FF240D
:204C2C0017F582E43400F583E0FE24D04003024F3BBE33004003024F3B8F057F0074012D34
:204C4C00FBE43FFCEB2417F582EC3400F583E0FC24D04003024F3B74012DFBE43FFCEB248F
:204C6C0017F582EC3400F583E0FCBC3A004003024F3B74022DFBE43FFCEB2417F582EC34E7
:204C8C0000F583E0FC24D04003024F3B74022DFBE43FFCEB2417F582EC3400F583E0FCBC67
:204CAC0036004003024F3B74032DFBE43FFCEB2417F582EC3400F583E0FC24D04003024F8C
:204CCC003B74032DFBE43FFCEB2417F582EC3400F583E0FCBC3A004003024F3B74052DFB58
:204CEC00E43FFCEB2417F582EC3400F583E0FC24D04003024F3B74052DFBE43FFCEB2417CF
:204D0C00F582EC3400F583E0FCBC33004003024F3B74062DFBE43FFCEB2417F582EC340060
:204D2C00F583E0FC24D04003024F3B74062DFBE43FFCEB2417F582EC3400F583E0FCBC3A88
:204D4C00004003024F3B74072DFBE43FFCEB2417F582EC3400F583E0FC24D04003024F3BE2
:204D6C0074072DFBE43FFCEB2417F582EC3400F583E0FCBC36004003024F3B74082DFBE40B
:204D8C003FFCEB2417F582EC3400F583E0FC24D04003024F3B74082DFBE43FFCEB2417F51A
:204DAC0082EC3400F583E0FCBC3A004003024F3B8E1B751C0090000AC007C006C005128371
:204DCC004FAB82AC83D005D006D007C00674012DFAE43FFEEA2417F582EE3400F583E07A87
:204DEC00002BFBEA3CFCC3EB9428EC64809482D0064003024F3BC00674052DFBE43FFCEBF9
:204E0C002417F582EC3400F583E0FC8C1B751C0090000AC007C006C00512834FAB82AC83FC
:204E2C00D005D006D00774062DFAE43FFEEA2417F582EE3400F583E07A002BFBEA3CFCC387
:204E4C00EB9428EC64809482D0064003024F3BED24FCF582EF34FFF583751B05751C00C010
:204E6C0007C006C00512840BAB82D005D006D00774082BFC3395E0FAEC24BDF56FEA3400B0
:204E8C00F570EE24D075F00AA4F57174012DFCE43FFEEC2417F582EE3400F583E0257124B5
:204EAC00D075F006A4FE74022DFAE43FFCEA2417F582EC3400F583E02E24D0856F828570AC
:204ECC0083F074092BFB3395E0FEEB24BDFBEE3400FE74052DFAE43FFCEA2417F582EC34A8
:204EEC0000F583E024D075F00AA4F57174062DFAE43FFCEA2417F582EC3400F583E0257177
:204F0C0024D075F006A4FC74072DFDE43FFFED2417F582EF3400F583E02C24D08B828E8367
:204F2C00F09000C4E0FF0F0F9000C4EFF08006900134744BF0900134E0240AF0E0FFBF4B4B
:204F4C00005003024C269000C4E06017900000120304120357D247908D6075F0801223DC32
:204F6C00025673D246908D7575F080121FC802567330080302567390F010E4935403700E25
:204F8C00D246908D9075F080121FC802567390001CE0FFBF54028003BF741F30920C7519C6
:204FAC0000751A0075820912820CC2C2D246908DA575F080121FC8025673BF4E028003BF5E
:204FCC006E3B90F010E4935403FD7E00BD0120BE001D12031C9000CDE0FE0E9000CDEEF0D5
:204FEC00120357787F7600788176187882763CD246908DAF75F080121FC8025673BF460205
:20500C008003BF664090F010E4935403FD7E00BD0225BE002230920C751900751A0075821D
:20502C000912820CC2C212031C9000CDE0FE1E9000CDEEF0120357D246908DB875F0801222
:20504C001FC802567390001BE0FE24D040030252A1BE330040030252A1EF24D0400302523A
:20506C00A1BF3A0040030252A190001DE0FF24D040030252A1BF360040030252A190001EBF
:20508C00E0FFBF30028008BF350280030252A1900020E0FF24D040030252A1BF340040034D
:2050AC000252A1900021E0FF24D040030252A1BF3A0040030252A1900022E0FF24D040033A
:2050CC000252A1BF320040030252A1900023E0FF24D040030252A1BF3A0040030252A19027
:2050EC000024E0FF24D040030252A1BF3A0040030252A1900025E0FF24D040030252A1BFC5
:20510C003A0040030252A130920C751900751A0075820912820C309203025293D2C29000B6
:20512C0024E024D075F00AA4FF900025E02F24D0FF900022E07D0024D0F51BED34FFF51C5E
:20514C0090000AC00712834FAD82AE83900023E07B002DFDEB3EFEED24D0FDEE34FFFE8DB5
:20516C001B8E1C900017C006C00512834F751B09751C0012840BE5828583F0D005D006D0A3
:20518C000724D1FB74FF35F0FCC374029D74808EF063F08095F0501274035F7E004EB4011F
:2051AC0000924CE433FD7E0080047D027E00ED2BFBEE3CFC7E00EF2BFBEE3CFC8F828E83DE
:2051CC00A3A3A3751B048E1CC004C00312840BAE82AF83D003D004EE2BFBEF3CFC90002080
:2051EC00E07E0024D0F51BEE34FFF51C90000AC004C00312834FAE82AF83D003D004900071
:20520C0021E0FD7A002EFEEA3FFFEE2BFEEF3CFF90F010E493FD24FC5017751B07751C00C2
:20522C008E828F8312836CAE820EEE3395E0FF80047E0A7F0090001BE024D075F00AA4FF50
:20524C0090001CE02F24D0F51990001DE024D075F00AA4FF90001EE02F24D0F51A8E821210
:20526C00820C9005DC1204A330920ED246908DC175F080121FC8025673D246908DD675F08B
:20528C0080121FC8025673D246908DF875F080121FC8025673D246908E1E75F080121FC8B6
:2052AC0002567330080302567390001BE0FFBF42028012BF6202800D90001CE0FEBE4E02AA
:2052CC008003BE6E1D12031C9000BF7401F01203571224D5D246908E3575F080121FC8024F
:2052EC005673BF54028012BF7402800DBE42028008BE6202800302567312031C9000BFE412
:20530C00F0120357C21DD246908E3E75F080121FC802567330080302563F90001AE0FFBF0F
:20532C004702800DBF67028008BF43028003BF6310D207D246908E4775F080121FC8025696
:20534C003FBF2B02800302548790001BE0FEBE3802800302548790001CE0FEBE34028003D4
:20536C0002548790001DE0FEBE30005003025479EE24C6500302547990001EE0FEBE300035
:20538C005003025479EE24C6500302547990001FE0FEBE30005003025479EE24C65003021B
:2053AC005479900020E0FEBE30005003025479EE24C65003025479900021E0FEBE300050AF
:2053CC0003025479EE24C65003025479900022E0FEBE30005003025479EE24C650030254D4
:2053EC0079900023E0FEBE30005003025479EE24C6407A900024E0FEBE30004070EE24C6ED
:20540C00406B900025E0FEBE30004061EE24C6405C12031C9000CEE4F07E018E0574112D18
:20542C00FD3395E0FCED24BDFDEC3400FC8E027B0074062AFAE43BFBEA2417F582EB34005A
:20544C00F583E08D828C83F00EBE0A0040CD9000D9E0FEBE02069000D97401F0120357D2DE
:20546C0046908E6475F080121FC802563FD246908E8275F080121FC802563FBF3002800342
:20548C0002559F90001BE0FEBE30005003025591EE24C6500302559190001CE0FEBE3000CD
:2054AC005003025591EE24C6500302559190001DE0FEBE30005003025591EE24C6500302B1
:2054CC00559190001EE0FEBE30005003025591EE24C6500302559190001FE0FEBE30005047
:2054EC0003025591EE24C65003025591900020E0FEBE30005003025591EE24C65003025569
:20550C0091900021E0FEBE3000407AEE24C64075900022E0FEBE3000406BEE24C6406690F3
:20552C000023E0FEBE3000405CEE24C6405712031C7E008E0574112DFD3395E0FCED24BD02
:20554C00FDEC3400FC8E027B0074032AFAE43BFBEA2417F582EB3400F583E08D828C83F045
:20556C000EBE0A0040CD9000D9E0FEBE02069000D97401F0120357D246908E6475F0801264
:20558C001FC802563FD246908E8275F080121FC802563FBF78028003BF581A12031C9000A6
:2055AC00D97402F0120357D246908EA775F080121FC802563F90F01CE493FFBF022490005B
:2055CC001BE0FFBF6E02800DBF4E028008BF66028003BF465ED246908EB675F080121FC89B
:2055EC00805190001BE0FFBF4E028003BF6E1912031C9000D97401F0120357D246908EE8E3
:20560C0075F080121FC8802BBF46028003BF661812031C9000D9E4F0120357D246908EF727
:20562C0075F080121FC8800BD246908F0675F080121FC890F01CE4935401FF24FF920A8034
:20564C002630090DD246908F2375F080121FC88016D246908F3675F080121FC8C246908F92
:20566C002375F080121FC843C1107F00EF2417FDE43400FE8D828E83E0600FEF2417F5823D
:20568C00E43400F5830FE4F080E2227F007E008F749001357401F0900136F09001377415D4
:2056AC00F09001387401F08F937594FF8F928F918F957596FF8FB28FB175B30275B41C8FA8
:2056CC00CA8FC98FC075B0FF8FA075B881759D088F978FBD75BC83D2ADD2AF9000E7E4F0C1
:2056EC009000B9F075570575560590000C7430F09000B8740AF09000F37402F09000F2F083
:20570C009000F1F09000F47407F09000F57401F0C007C0061206437582801205599084ED63
:20572C0075F0801205D99013881204A3758280120559908F5C75F0801205D912031CD00666
:20574C00D0079000BDE0FCBCFF069000BD740BF09000BEE024FE50059000BEE4F09000BFAA
:20576C00E024FE50069000BF7401F09000C0E024F650069000C07401F09000C1E024E8502F
:20578C00059000C1E4F09000C3E0FCC4540FFB7A001BBBFF011AC374089B74808AF063F07D
:2057AC008095F0500A740F5C4450FC9000C3F09000C3E0FC53040F7B001CBCFF011BC37492
:2057CC00089C74808BF063F08095F0500F9000C3E0FC74F05C4401FC9000C3F09001397442
:2057EC0001F09000C4E0FCBC0900502EEC20E02A7B01C3EC9B401E8B0274072AFA3395E02B
:20580C00FDEA24BDF582ED3400F583E0FDBD900050030B80DD900139EBF0900139E0FDC3B0
:20582C00EC9D40129000C47402F09000C57424F09000C6746CF0900139E4F09000D9E0FDE0
:20584C00BD020050479000D8E07041FDBD0A0050368D0474112CFB3395E0FAEB24BDF58281
:20586C00EA3400F583E0FBBB3000401B74112CFC3395E0FBEC24BDF582EB3400F583E0FC5E
:20588C0024C640030D80C5900139EDF0900139E0FDBD0A00500B9000D8E4F09000D97402F2
:2058AC00F09000DAE0FD24E750059000DAE4F030920A9000CDE05404FDF0801D9000CDE0DF
:2058CC00FD24F950089000CD7402F0800CED540370070D0D9000CDEDF09000DBE0FD53054C
:2058EC000F7C001DBDFF011CC3740A9D74808CF063F08095F050069000DB743BF09000DCA9
:20590C00E024FE50069000DC7401F0C007C006120357D006D00790F000E493FD74035D9054
:20592C00012F04F090F000E4930303540124FF9234E493A2E3E43324FF9235921290F000DB
:20594C00E493C4540124FF9236E493A2E5E433FD24FF923720341920351690F000E493FDF6
:20596C005305C0E43395E0FDFC9000EDEDF080059000EDE4F090F01EE493FD5305E0E4031D
:20598C00CDC40354076DCD5407CD6DCD30E20244F8FC900132EDF0BD021D7D00ED2401FB1E
:2059AC00E43400FCED90846393FA8B828C83F00DBD0B0040E7801B7D00ED2401FBE4340091
:2059CC00FCED90845893FA8B828C83F00DBD0B0040E7900131E4F090F01E93FD53050F7C2A
:2059EC0000C3ED9406EC64809480501190F01EE493FD740F5D04FC3395E0FD802790F01E30
:205A0C00E493FB53030F7A00740CC39BF51BE49AF51C90003CC007C00612840BAC82AD8354
:205A2C00D006D007900130ECF090F01EE49330E405BC3C005006900131743DF090F000E4CD
:205A4C009330E6067CFF7D0080113034067A1E7B0080047A0A7B008A048B059000ECECF08C
:205A6C0090012FE0FDBD0103025B27BD02028075BD0302803ABD04028003025B5D9000EB8B
:205A8C00ECF090F206E493FD24C4400A90F207E493FD24F4500BC007C006120F69D006D0C3
:205AAC000790F206E493F55490F207E493F5509000ECE0FD9000EAF090F204E493FD24C4A1
:205ACC00400A90F205E493FD24F4500BC007C006120F69D006D00790F204E493F55390F277
:205AEC0005E493F54F9000ECE0FD9000E9F090F202E493FD24C4400A90F203E493FD24F4DD
:205B0C00500BC007C006120F69D006D00790F202E493F55290F203E493F54E9000ECE0FD80
:205B2C009000E8F090F200E493FD24C4400A90F201E493FD24F4500BC007C006120F69D078
:205B4C0006D00790F200E493F55190F201E493F54DD2A2758280C007C006120559908F6D6D
:205B6C0075F0801205D9120388758280120559908F7E75F0801205D9D006D00790F010E42D
:205B8C00935403FC7D00BC021ABD0017C007C0061281F6D006D007787F76007881761878BB
:205BAC0082763CD20390F003E4939000E6F0C007C006120FCFD006D00720220302638320F9
:205BCC002603026383202A0302638375750090F010E493F576C24D90F01EE493F57390F00B
:205BEC0000E493FAC22AC226C222908F8F75F080C0021205D9908FA075F0801205D9900106
:205C0C002FE02430F5821204FBD0023034087579A6757A8F80067579AC757A8FAB79AC7A55
:205C2C007D808B828C838DF0C0021205D9D0023035067CB27D8F80047CB87D8F7B808C82CC
:205C4C008D838BF0C0021205D9908FBE75F0801205D99000EDE02430F5821204FB753F0458
:205C6C007582C01204D0D00290012FE0FD149000F5F09000F4E4F0204D03026023203F03D4
:205C8C00025E6FC002C23F908FC275F080C0021205D9D002AB737D00740F5BFA7C00C3EA80
:205CAC009406EC64809480D0025010AC73740F5C04FC8C793395E0F57A802CC002740F5BC2
:205CCC00FA7C00740CC39AF51BE49CF51C90003CC005C003C00212840B85827985837AD03B
:205CEC0002D003D005D00285797B9000F4E0700B302D0875795F757A00802BC002AA7B7C15
:205D0C0000751B0A8C1C8A828C83C005C00312840BAA82AC83D003D00574302AFA8A7933F0
:205D2C0095E0F57AD002857982C005C003C0021204FBD002D003D0059000F4E0700B302D10
:205D4C000875795F757A00802BC002AA7B7C00751B0A8C1C8A828C83C005C0031283D5AAEC
:205D6C0082AC83D003D00574302AFA8A793395E0F57AD002857982C005C003C0021204FB2F
:205D8C00908FC675F0801205D9D002D003D0059000F4E0FCBC010B302D0875795F757A00FA
:205DAC008027C00274E05BFAE403CAC40354076ACA5407CA6ACA30E20244F8FC74302AFA51
:205DCC008A793395E0F57AD002857982C005C003C0021204FB908FCA75F0801205D9D00260
:205DEC00D003D0059000F4E0FCBC020B302D0875795F757A008020530310E4CBC4540F6BDE
:205E0C00CB540FCB6BCB30E30244F0FD74302BFB8B793395E0F57A857982C0021204FB9039
:205E2C008FCE75F0801205D9D0029000F4E0FDBD0309302D067C5F7D00801FC002AA765399
:205E4C000204E4A2E713CA13CAA2E713CA13CAFB74302AFC3395E0FDD0028C82C0021204A4
:205E6C00FBD002102203025F139000F4E02401F0E0FDBD01028012BD0202802DBD03028048
:205E8C0046BD0402805B025F13AB735303E0E403CBC40354076BCB5407CB6BCB30E202448C
:205EAC00F8FD9000F5EBF0805EAB73530310E4CBC4540F6BCB540FCB6BCB30E30244F0FD69
:205ECC009000F5EBF08040AC76530404E4A2E713CC13CCA2E713CC13CCFD9000F5ECF080C9
:205EEC0026C00212031C9000BDE054EFF09000DBE573F09000CDE576F012035790020012B2
:205F0C000304D00275C76010260280659000F4E0FDE06006ED149000F4F09000F4E0FD6006
:205F2C000ABD0102800FBD0248802A9000F5740F5573F0803CAB73530360E403CBC403542E
:205F4C00076BCB5407CB6BCB30E20244F8FD9000F5EBF0801CAB73530310E4CBC4540F6B8E
:205F6C00CB540FCB6BCB30E30244F0FD9000F5EBF0102A03025C839000F5E02401F0900018
:205F8C00F4E0FD24FC5003025C83ED2D905F9C73800680218040805E9000F5E024F4500521
:205FAC009000F5E4F074F05573FD9000F5E0FC4DF573025C839000F5E024FB50059000F5FE
:205FCC00E4F0741F5573FD9000F5E0C42354E0FC4DF573025C839000F5E024FE500590000B
:205FEC00F5E4F074EF5573FD9000F5E0C454F0FC4DF573025C839000F5E024FE5005900039
:20600C00F5E4F074035576FD9000F5E025E025E0FC4DF576025C839000F4E0FD24FA500396
:20602C000261A4ED2D2D9060367302604802605E0260A30260E102611D02613590012FE003
:20604C00149000F5F07582C4C002120559D0020261A49000F5A234E433F0C0021205B4D026
:20606C0002103F030261A4302D067CD27D8F80153034087579A6757A8F80067579AC757ADA
:20608C008FAC79AD7A7B808C828D838BF0C0021205D9D0020261A49000F5A235E433F01087
:2060AC003F030261A4302D067CD87D8F80153035087579B2757A8F80067579B8757A8FAC52
:2060CC0079AD7A7B808C828D838BF0C0021205D9D0020261A49000EDE09000F5F0103F03D1
:2060EC000261A4908FBE75F080C0021205D9D002302D067C5F7D00800C9000EDE02430FB54
:20610C00FC3395E0FD8C82C0021204FBD0020261A4908FDD75F080C0021205D9908FEF7502
:20612C00F0801205D9D002806F74105AFD90012FE0FC1CEC2DFD3034067B047C0080047B25
:20614C00007C00EB2DFD90012FE0FCBC010280123035067B087C0080047B007C008D04EB54
:20616C002CFD20341020350D9000EDE0030354C0FC8D032BFD900000C005C0021203049039
:20618C000200120304D002D0058D18900000C0021202E9D00275C760102A030262537575F1
:2061AC00009000F4E0FD24FC5003026253ED2D9061BF738006803A804A806B9000F5E0FDB4
:2061CC00BD030050090DEDFC3395E0FD80047C007D009000F5ECF00C90012FECF074302CA9
:2061EC00F582C0021204FB7582C4120559D00280569000F5E0FD7401C39DFD24FF9234ED6C
:20620C00F0804490012FE0FD24FD500A9000F57401F0D23580109000F5E0FD7401C39DFDF1
:20622C0024FF9235EDF09000F5E0FDBD030050090DEDFC3395E0FD80047C007D009000F573
:20624C00ECF09000EDECF010220280717575009000F4E02401F0908FA075F080C0021205F8
:20626C00D990012FE02430F5821204FBD0023034067CA67D8F80047CAC7D8F7B808C828D05
:20628C00838BF0C0021205D9D0023035067CB27D8F80047CB87D8F7B808C828D838BF0C0B3
:2062AC00021205D9908FBE75F0801205D99000EDE02430F5821204FB1205B4D0021026031F
:2062CC00025C839000F4E0FDE06006ED149000F4F0908F8F75F080C0021205D9908FA0753C
:2062EC00F0801205D990012FE02430F5821204FBD0023034067CA67D8F80047CAC7D8F7B19
:20630C00808C828D838BF0C0021205D9D0023035067CB27D8F80047CB87D8F7B808C828DD5
:20632C00838BF0C0021205D9908FBE75F0801205D99000EDE02430F5821204FBD002900054
:20634C00F4E06003025C83AD750575ED24F75017D24DC0021205B4D00290F01EE4939000EB
:20636C00F5540FF0025C83753F047582C0C0021204D0D002025C8375BC8BD2A8D288758297
:20638C0080C007C00612055990900175F0801205D9D006D00790012FE0FD24FD400302646A
:2063AC004D75771430B60302644DAC771577EC700302644D7582C0C007C006120559AB7751
:2063CC007C00751B0A8C1C8B828C83C004C00312840BAA8274302AF5821204FBD003D00486
:2063EC00751B0A751C008B828C831283D5AC8274302CF5821204FBD006D007D2A7303406CA
:20640C007CE87D0380047CFA7D008C828D83C007C0061204A3D006D007C2A720B686D2A6C7
:20642C003034067CE87D0380047CFA7D008C828D83C007C0061204A3D006D007C2A60263AD
:20644C00B0758280C007C00612055990901275F0801205D9D006D00790012FE0FD24FC405B
:20646C000302651075780530B703026510AC781578EC70030265107582C0C007C006120561
:20648C0059AB787C00751B0A8C1C8B828C83C004C00312840BAA8274302AF5821204FBD020
:2064AC0003D004751B0A751C008B828C831283D5AC8274302CF5821204FBD006D007D2A59E
:2064CC003034067CE87D0380047CFA7D008C828D83C007C0061204A3D006D007C2A520B79C
:2064EC0086D2A43034067CE87D0380047CFA7D008C828D83C007C0061204A3D006D007C2FC
:20650C00A4026473758280C007C00612055990902375F0801205D9120FE5D006D00790F033
:20652C001CE4935401FD24FF920AC21D203070C007C006122483D006D0075063C007C006D9
:20654C001224D512268C1226D5D006D007505090F005E4937015D24690903475F080C0076D
:20656C00C006121FC8D006D0078029D24690905175F080C007C006121FC8D006D007300A1F
:20658C0013C24690905175F080C007C006121FC8D006D007C007C0061217F1D006D00720D7
:2065AC001D03757401E54B24F45007E54B24F4FD8002AD4B8D4C90F005E493701C9000F680
:2065CC007405F0C007C00612031C9000C274FFF0120357D006D00780069000F6743CF07599
:2065EC00C16590012FE0FDBD042090F206E493B5540B90F207E493FDB55002800DC007C0C0
:20660C0006120F69D006D007807090012FE0FD24FD502090F204E493B5530B90F205E49305
:20662C00FDB54F02800DC007C006120F69D006D007804790012FE0FD24FE502090F202E49C
:20664C0093B5520B90F203E493FDB54E02800DC007C006120F69D006D007801E90F200E436
:20666C0093B5510B90F201E493FDB54D02800BC007C006120F69D006D0079000F6E0600654
:20668C009000F4E0702B9000F4E4F07405B5560EC007C006120A74858256D006D007740565
:2066AC00B5570EC007C006120CEC858257D006D007101F0302682790906575F080C007C05E
:2066CC00061203B59000DEE0FD7C00751B0A8C1C8D828C8312840BAC8274302CF58212038C
:2066EC00A09000DEE0FD7C00751B0A8C1C8D828C831283D5AC8274302CF5821203A09000A3
:20670C00DFE0FD7C00751B0A8C1C8D828C8312840BAC8274302CF5821203A09000DFE0FDBE
:20672C007C00751B0A8C1C8D828C831283D5AC8274302CF5821203A09000E0E0FD7C00759F
:20674C001B0A8C1C8D828C8312840BAC8274302CF5821203A09000E0E0FD7C00751B0A8C88
:20676C001C8D828C831283D5AC8274302CF5821203A0AC4B7D00751B0A8D1C8C828D831258
:20678C00840BAC8274302CF5821203A0AC4B7D00751B0A8D1C8C828D831283D5AC82743023
:2067AC002CF5821203A0AC4A7D00751B0A8D1C8C828D8312840BAC8274302CF5821203A0D6
:2067CC00AC4A7D00751B0A8D1C8C828D831283D5AC8274302CF5821203A0AC497D00751B43
:2067EC000A8D1C8C828D8312840BAC8274302CF5821203A0AC497D00751B0A8D1C8C828DA1
:20680C00831283D5AC8274302CF5821203A090906C75F0801203B5D006D007203E2E3002AF
:20682C002BD24690907275F080C007C006121FC8D006D007300A13C24690907275F080C0D3
:20684C0007C006121FC8D006D007D23E303E2E20022BD24690908075F080C007C006121F65
:20686C00C8D006D007300A13C24690908075F080C007C006121FC8D006D007C23E9000E713
:20688C00E07005203802D2389000E8E0702E20392BD239D24690909375F080C007C006125F
:2068AC001FC8D006D007300A13C24690909375F080C007C006121FC8D006D00790012FE078
:2068CC00FD24FE50349000E9E0702E203A2BD23AD2469090A275F080C007C006121FC8D06C
:2068EC0006D007300A13C2469090A275F080C007C006121FC8D006D00790012FE0FD24FDC2
:20690C0050349000EAE0702E203B2BD23BD2469090B175F080C007C006121FC8D006D0075B
:20692C00300A13C2469090B175F080C007C006121FC8D006D00790012FE0FDBD04349000EB
:20694C00EBE0702E203C2BD23CD2469090C075F080C007C006121FC8D006D007300A13C20E
