:2000A500AF827E0075730A8E748F828E83C007C006124799AC82D006D007ECC454F0FC75B7
:2000C500730A7574008F828E83C004124763AE82D004EE4CF58222E582FFC4540F75F00A40
:2000E500A4FE740F5F2EF582221203167582D0120355758207120355758210120355020376
:20010500311203167582D01203557582041203551203311203167582D1120355C20012036E
:200125007A1200DCAF82C007120331D0078F8222AD82AE83AFF0C007C006C0051203167519
:2001450082D01203557582001203551203311203167582D1120355AA1BAB1CAC1DD200C0F3
:2001650004C003C00212037A1200DCA982D002D003D0048A828B838CF0E9124699AA18ABF3
:2001850019AC1AD200C004C003C00212037A1200DCA982D002D003D0048A828B838CF0E9C0
:2001A500124699C20012037A1200DCAC82D005D006D0078D828E838FF0EC124699020331A8
:2001C500AF82C0071203167582D0120355758200120355851F821200A5120355851E8212E7
:1201E50000A5120355D0078F821200A5120355020331BA
:2001F70075C70075C50075C60075C38075C40043C11022AE82AF8375C78375C5018EC48FD3
:20021700C375C65A75C6A500AFC2C0071201F7D0078F8222AE82AF8375C78375C5028EC494
:200237008FC38528C275C65A75C6A5000201F7AE82AF8375C78375C5038EC48FC375C65AE0
:2002570075C6A5000201F743C1107F1FEF60101FEF24A3F582E43400F58374FFF080EDBF31
:200277001F005018EF24A3FDE43400FE8F827583F00FE493FC8D828E83F080E39000000297
:2002970002467F00BFCD00502975C78375C5028FC475C300EF24A3F582E43400F5830FE049
:1302B700F5C275C65A75C6A500C0071201F7D00780D222EC
:2002CA00759850438E40538EFE758BCC758DFFC2ABD28ED2ACD2A022AD82AE83AFF08D820D
:2002EA008E838FF0124747FC60218C9920990543C11080F8C2998D828E838FF0124747FC42
:0C030A00BC1A01220DBD00D60E80D322CB
:20031600D2C043C11043C110D2CD43C11043C110C2C043C11043C110C2CD22C2C043C11055
:2003360043C110D2CD43C11043C110D2C02243C11043C110D2CD43C11043C110C2CD22AFC9
:20035600827E00EF23540124FF92C08F05ED2DFFC007C006120344D006D0070EBE08004057
:20037600E20203447F00D2C07E0043C11043C110D2CD43C11043C1108F05ED2DFDA2C0E4CD
:1E039600334DFFC2CD0EBE080040DFA200B392C0C007120344D007A2C092CD8F8222B6
:2003B400AE82AF837C007D00C3EC9EED9F500A43C1100CBC00F20D80EF22AE82AF837C0051
:2003D4007D00C3EC9EED9F501D9003E8C007C006C005C0041203B4D004D005D006D0070C8A
:2003F400BC00DF0D80DC22AF82E5294FF58212048175820D020481AF82302A118F821204D9
:2004140081852A82852B83852CF00204FE8F820204DFE582FFC4540124FF9283EFA2E5E437
:200434003324FF9282EF2323540124FF9281EF23540124FF9280D284D285C284EF54012487
:20045400FF9283EF03540124FF9282EF03035401FE24FF9281EFA2E3E433FF24FF9280D2E7
:200474008400C2849000321203B4C28522E582FFC4540124FF9283EFA2E5E43324FF92822F
:20049400EF2323540124FF9281EF23540124FF9280D284C285C284EF540124FF9283EF039B
:2004B400540124FF9282EF03035401FE24FF9281EFA2E3E433FF24FF9280D28400C2849033
:2004D40000320203B475820C020481E582FF600E8F821204819047D575F0800204FE75828B
:2004F400011204819006400203B4AD82AE83AFF07C008D828E838FF0124747FB6055BC108B
:20051400005050BB80005025EB24E050200CEC601C8B820DBD00010EC007C006C005C004A8
:20053400120426D004D005D006D00780C58D828E838FF0124747FBA3AD82AE838B82C007BF
:20055400C006C005C004120481D004D005D006D007809F22C286903A981203B475801C0086
:20057400C284900FA01203B4D28400C2849000A01203B4D28400C2849000A01203B47580FA
:200594001400C2849003E81203B4D28400C2840075801100C2849000281203B4758010003B
:2005B400C2840075801300C2849000281203B475801000C2840075801600C28490002812AC
:2005D40003B475801000C2840075801800C2849003E80203B4AF82AD307E0075730A8E74FE
:2005F4008D828E83C007C006C005124799AB82D005D00674302BF53375730A7574008D82CA
:200614008E83124763AD82D00774302DF5343001067D3A7E0080047D207E008D35AD317ED0
:200634000075730A8E748D828E83C007C006C005124799AB82D005D00674302BF536757394
:200654000A7574008D828E83124763AD82D00774302DF5373001067D3A7E0080047D207EA9
:20067400008D38AD327E0075730A8E748D828E83C007C006C005124799AB82D005D00674A0
:20069400302BF53975730A7574008D828E83124763AD82D00774302DF53A753B008F82122D
:1E06B4000481852D82852E83852FF01204FE74E82530400990003375F0400204FE22F9
:1147D5002020202020202020202020202020202000D3
:06000000020049020A6E35
:03000B00020D3DA6
:0100130032BA
:01001B0032B2
:03002300021A7648
:03002B0002454249
:01003300329A
:03003B00020ABEF8
:0300430002453241
:0300A20002004613
:0300460002377E00
:2006D200E54275F006A4FFAD417E0075730A8E748D828E83C007124799AD82D007ED2FF583
:2006F2005B7E017D0190F008E493FCC3ED9C400302079CED90F00893FC8D030BEB3395E02F
:20071200FAEB2408F582EA34F0F583E493F9C3EC99E433F97C0009B900010CED90F008939E
:20073200F8C3E55B98E4337F0029F9EF3CFCEB2408F582EA34F0F583E493FFC3E55B9FE425
:20075200337B0029F582EB3CF5837573028B74C006C005124763E5828583F0D005D006451B
:20077200F060218E047F008C828F83A37573028F74C006124763AC82AF83D006EC4F24FF1F
:2007920092A180060D8D060206F790F008E493FFEEB50702800122EE90F00893FF90F00911
:2007B200E493FDC3EF9DE433FF7D000FBF00010DEE90F00893FCC3E55B9CE4337B002FFF91
:2007D200EB3DFD90F009E493FCC3E55B9CE4337B002FF582EB3DF5837573028B74C00612AE
:2007F2004763E5828583F0D00645F060197F008E828F83A37573028F74124763AE82AF830B
:20081200EE4F24FF92A1227876B60002800E7876B6010280447876B6024880287877E6B552
:2008320042077878E6B5410122AF427877A607AE417878A6068E728F82124604753C5A7866
:200852007676022230920BD2C27876A2C2E433F68007AF3C153CEF7009209206787676006F
:20087200C2C222754E0190F001E49360069000C7E070389000C6E0603220022F90F000E442
:2008920093602890F01EE493FF24E8401EE552701A9000C2E0FFE07014E541B54607E54307
:2008B200B5450280069000C4E06002C322EF706D854573F57490003C1246B4E5828583F080
:2008D20024D0FE740235F0FFAC467D00EC2EFEED3FFF8543738D7490003CC007C0061246DB
:2008F200B4AC82AD83D006D007EEC39CFEEF9DFFAC417D00EEC39CF582EF9DF5837573D067
:20091200757402124763AE82AF83C3742D9E74808FF063F08095F040047F0080027F01EF3B
:2009320024FF2290F001E49370069000C6E070389000C7E0603220022F90F000E49360287B
:2009520090F01EE493FF24E8401EE552701A9000C2E0FFE07017E541B54607E543B5450262
:2009720080069000C4E0600553A00FC322EF706D854573F57490003C1246B4E5828583F0B6
:2009920024D0FE740235F0FFAC467D00EC2EFEED3FFF8543738D7490003CC007C00612461A
:2009B200B4AC82AD83D006D007EEC39CFEEF9DFFAC417D00EEC39CF582EF9DF5837573D0A6
:2009D200757402124763AE82AF83C374689E74818FF063F08095F040047F0080027F018F9F
:2009F2004ED32275FA0075EA007547A875486175DA49D2DE22538E7F758900758A24758C66
:200A1200FAC28DD28CD2A92243C110B219A2199287D217E555600215557402B55201220539
:200A320040E54024C45034754000D2180541E54124C45027C2037541000542E54224E85024
:200A52000F78777618754200E54960021549C2040543E54324F4500375430022C027C0E051
:200A7200C0F0C082C083C007C006C005C004C003C002C001C000C0D075D00843C110900092
:200A9200C574FAF0C22E75D000120A1A75D008D0D0D000D001D002D003D004D005D006D034
:200AB20007D083D082D0F0D0E0D02732C027C0E0C0F0C082C083C007C006C005C004C0034A
:200AD200C002C001C000C0D075D00843C11010D803020D208547EA8548FA74A82547F54775
:200AF20074613548F548301A07A2B6B3920F8004A2B6920F20C406201A03020C18300F0D42
:200B1200301005D212020C18D210020C18201403020C0C30C4239000C7E4F09000C6741EF1
:200B3200F090F001E493603A75280090000175D00012022B75D00880299000C6E4F09000BF
:200B5200C77405F090F001E4937017F5D012025E75D0089000A474FFF075D0001202997552
:200B7200D0089000C2E0FFE06008EF149000C2F08036E54E60180546E54624C450107546F3
:200B9200000545E54524F4501F754500801AE54E70161546E54624C3500E75463B1545E53B
:200BB2004524F3500375450BC212C210C21475D00012087553D0E743D0084002C2C475D02D
:200BD2000012093553D0E743D0084002C21A90020075D00012024675D0088546289003FE6E
:200BF20075D00012022B75D0088545289003FF75D00012022B75D008800C301204D2148085
:200C1200051010028000301B0630B503754F02301B0330B5047F0080027F01EF24FF921FA1
:200C3200201E0330B5047F0080027F01EF24FF921B201C0A201F03201B047F0080027F01F0
:200C5200EF24FF921CA2B5921E30200630B30375500230200330B3047F0080027F01EF24EA
:200C7200FF922420230330B3047F0080027F01EF24FF922020210A2024032020047F008066
:200C9200027F01EF24FF9221A2B3922330250630B40375510230250330B4047F0080027F27
:200CB20001EF24FF922920280330B4047F0080027F01EF24FF922520260A202903202504F2
:200CD2007F0080027F01EF24FF9226A2B492289001B2E014F0E070089001B2740EF0B22A97
:200CF2009000C5E0FFE0600EEF149000C5F09001B3741CF080189001B3E014F0E0700F90A5
:200D120001B3741CF075D000120A1A75D008D0D0D000D001D002D003D004D005D006D00789
:200D3200D083D082D0F0D0E0D02732C0E0C082C083C0D075D01043C110301A33E5A0540FE0
:200D5200FFE54A9047F1934FF5A0E54E60067E017F0080047EFF7FFFAF4AEE2FF54A24F78E
:200D72005005754A0780087408B54A03754A00D0D0D083D082D0E032AD82AE83AFF0AC5D52
:200D92008C56C22BAB5C302B03020E9643C110758280C007C006C005C004C00312048185E7
:200DB2005E82855F838560F01204FED003D004D005D006D007301632752D75752E4B752FA7
:200DD20080854230854131854032A21992017582C0C007C006C005C004C0031205E9D003EB
:200DF200D004D005D006D007806990F003E4937032752D7D752E4B752F80854230854131E7
:200E1200854032A21992017582C0C007C006C005C004C0031205E9D003D004D005D006D0C9
:200E3200078030752D85752E4B752F80854230854131854032A21992017582C0C007C00639
:200E5200C005C004C0031205E9D003D004D005D006D007E5556003020D988B021BEA6024B1
:200E72008C558C568D828E838FF0C007C006C005C004C0031202E2D003D004D005D006D00D
:200E920007020D987582801204DFA22B22900001E06020900004E0701A755E8F755F4B7552
:200EB2006080755C03755D01904B8D75F080120D8AC322904BA075F0801202E23031067E83
:200ED200E67F4780047E127FF07D808E828F838DF01202E2904BAA75F0801202E29000054A
:200EF2001203CED322900001E4F0C20C755707755EC1755F4B756080755C0F755D01904B6C
:200F1200AD75F080120D8A755700900001E024FF2285826185836285F0639001327420F011
:200F3200900133744BF0900134743DF0AB457C0075730A8C748B828C83C004C003124799D3
:200F5200AA82D003D00474302A900135F075730A7574008B828C83124763AE8274302E90E3
:200F72000136F0900137743AF0AE467F0075730A8F748E828F83C007C006124799AC82D0CB
:200F920006D00774302C900138F075730A7574008E828F83124763AE8274302E900139F064
:200FB20090013AE4F090013B7420F090013C7454F090013D743DF0AE427F0075730A8F74D8
:200FD2008E828F83C007C006124799AC82D006D00774302C90013EF075730A7574008E8209
:200FF2008F83124763AE8274302E90013FF0900140743AF0AE417F0075730A8F748E828FDE
:2010120083C007C006124799AC82D006D00774302C900141F075730A7574008E828F831240
:201032004763AE8274302E900142F09001437420F09001447447F09001457450F0900146F6
:201052007453F0900147743DF0A216E433FF90F003E4932F2430900148F0900149E4F07814
:20107200758673F57490001C1246B4757300757401124799AE8290014A7420F090014B742C
:2010920044F090014C7448F090014D743DF090F000E493243090014EF090014F7420F090F4
:2010B20001507442F090015104F0900152743DF090F002E4932430900153F0900154742033
:2010D200F09001557444F090015614F0900157743DF09000C6E060067D317F0080047D3012
:2010F2007F00900158EDF09001597420F090015A7453F090015B04F090015C743DF090008B
:20111200C7E060067D317F0080047D307F0090015DEDF090015E7420F090015F7458F09059
:2011320001607447F0900161743DF09000C5E060067D317F0080047D307F00900162EDF0B6
:201152009001637420F09001647452F090016504F0900166743DF0AF4974302F900167F025
:20117200900168742FF090F004E4932430900169F090016A7420F090016B7454F090016C68
:201192007452F090016D743DF090F005E493FF7D0075730A8D748F828D83C006124799ADF7
:2011B2008274302D90016EF090F005E493FF7D0075730A8D748F828D83124763AD82D0068E
:2011D20074302D90016FF09001707420F09001717444F090017204F0900173744EF09001CF
:2011F20074743DF0A2A1E4332430900175F09001767420F09001777456F0900178744FF01B
:20121200900179744CF090017A743DF07F0075730A8F748E828F83C007C006124799AC8213
:20123200D006D00774302C90017BF075730A7574008E828F83124763AE8274302E90017C5B
:20125200F090017D7420F090017E744DF090017F7450F09001807433F0900181743DF0908B
:20127200F011E4932430900182F03032067E207F0080047E007F00900183EEF0900184740C
:2012920044F09001857454F0900186743DF090F01DE4932430900187F0900188E4F00425FC
:2012B20061FDE43562FEAF638D828E838FF0124747FCBC2A028011C007C006C005120EF716
:2012D200D005D006D0078005900001E4F0A2329231C007C006C005120E9FD005D006D00766
:2012F20040012290484975F080C007C006C0051202E290013275F0001202E290013B75F0DC
:20131200001202E290014A75F0001202E2D005D006D00790F01DE493FCBC0200502130326C
:201332001E904BD275F080C007C006C0051202E290F01275F0801202E2D005D006D0078D27
:20135200828E838FF0124747FDBD2A02803B900001E06035904BD475F0801202E290000107
:2013720075F0001202E230320F900005E07009904BDF75F0801202E2900005E4F09000040F
:20139200F0900003F0900002F08561828562838563F01202E274012561FDE43562FEAF6323
:2013B2008D828E838FF0124747FDBD2A09904B8D75F0800202E2755EF9755F4B7560807507
:2013D2005C32755D01904B8D75F080020D8AAD82AE83AFF09001897454F090018A743DF027
:2013F200AB427C0075730A8C748B828C83C007C006C005C004C003124799A982D003D004C7
:2014120074302990018BF075730A7574008B828C83124763AB8274302B90018CF090018D07
:20143200743AF0AB417C0075730A8C748B828C83C004C003124799A982D003D0047430296E
:2014520090018EF075730A7574008B828C83124763AB8274302B90018FF09001907420F007
:201472009001917447F09001927450F09001937453F0900194743DF0A216E433FC90F003C7
:20149200E4932C2430900195F09001967420F09001977444F090019804F0900199744EF0B9
:2014B20090019A743DF0A2A1E433243090019BF090019CE4F090019D740DF090019E744DF4
:2014D200F090019F744FF09001A07444F09001A104F09001A2744EF09001A3743DF090F0EE
:2014F20008E49324309001A4F09001A5E4F0A2339231120E9FD005D006D00740012290010B
:201512008975F000C007C006C0051202E290019D75F0001202E2D005D006D00790F008E40C
:20153200937003021713904C0A75F080C007C006C0051202E290F008E493FC90F00893FB43
:201552007A0075733C8A748B828A83C004124799AA82D00474302A90019EF0EC90F0089319
:20157200FB7A007573068A748B828A83C00412479975730A757400124763AA82D0047430ED
:201592002A90019FF09001A0743AF0EC90F00893FC7B007573068B748C828B83124763AB32
:2015B2008274302B9001A1F09001A27430F09001A37420F09001A4742DF090019D75F000CE
:2015D2001202E290019D7420F090F009E493FC7B0075733C8B748C828B83124799AB827408
:2015F200302B90019EF090F009E493FC7B007573068B748C828B8312479975730A75740012
:20161200124763AB8274302B90019FF090F009E493FC7B007573068B748C828B83124763A4
:20163200AB8274302B9001A1F09001A3E4F090019D75F0001202E2D005D006D0077C029059
:20165200F008E493FBC3EC9B4003021728EC90F00893FB7A0075733C8A748B828A83C007C1
:20167200C006C005C004124799AA82D00474302A90019EF0EC90F00893FB7A007573068A36
:20169200748B828A83C00412479975730A757400124763AA82D00474302A90019FF0EC90F3
:2016B200F00893FB7A007573068A748B828A83C004124763AA82D004D005D006D00774306C
:2016D2002A9001A1F08C02EA30E00D90019D7420F09001A3E4F0800C90019D740DF09001A1
:2016F200A37420F090019D75F000C007C006C005C0041202E2D004D005D006D0070C021698
:2017120051904C1775F080C007C006C0051202E2D005D006D0078D828E838FF01202E275BA
:201732005E2C755F4C756080755C32755D01904B8D75F080020D8A900001E4F0D231120E54
:201752009F40012290485975F0801202E2755E3D755F4C756080755C32755D01904B8D7531
:20177200F080020D8A755700755E58755F4C756080755C0F755D02904C4E75F080120D8A76
:2017920050637402B5585E90011CE024D075F00AA4FF90011DE02F24D0F542AE427F007544
:2017B200730C8F748E828F83124763AE828E4390011FE024D075F00AA4FF900120E02F243C
:2017D200D0F541900122E024D075F00AA4FF900123E02F24D0F54085411E85401F8542825B
:2017F2001201C5D322C3227F00755E49755F48756080755C0F755D01904C6975F080C00775
:20181200120D8AD0074003021A16755E77755F4C756080755C0F755D01904C6D75F080C061
:2018320007120D8AD0074003021A1690F003E4937003021A16755E93755F4C756080755C4F
:201852000F755D01904C8875F080C007120D8AD0074003021A16755EAF755F4C7560807523
:201872005C0F755D01904CA475F080C007120D8AD0074003021A16755706755ECC755F4C66
:20189200756080755C0F755D02904CC175F080C007120D8AD0074003021A167401B558026B
:2018B2008003021A167E007D00ED2413F582E43401F5830DE0FCBC2C060EBE0300500ABD7D
:2018D2000B00500543C11080E0EE24FD4003021A168D060EEE3395E0FCEE2413F582EC34AF
:2018F20001F583E0FEBE2C15ED04FEED2413F582E43401F583E0FC24D0F5428029ED04FCC8
:20191200ED2413F582E43401F583E024D075F00AA4FDEC04FEEC2413F582E43401F583E0AC
:20193200FC24D02DF5420E8E050DED3395E0FCED2413F582EC3401F583E0FDBD2C15EE0401
:20195200FDEE2413F582E43401F583E0FC24D0F5418029EE04FCEE2413F582E43401F58381
:20197200E024D075F00AA4FEEC04FDEC2413F582E43401F583E0FC24D02EF541ED04FEFD38
:201992000DED3395E0FCED2413F582EC3401F583E0FDBD2C12EE2413F582E43401F583E07E
:2019B200FD24D0F5408026EE04FDEE2413F582E43401F583E024D075F00AA4FEED2413F52F
:2019D20082E43401F583E0FD24D02EF540AD427E0074072DFDE43EFEC374179D74808EF01F
:2019F20063F08095F05007E54224EFFE8006AD4274072DFE8E4285411E85401F85428212E0
:201A120001C57F01EF24FF92167557002220A002C322755EE9755F4C756080755C0F755D3C
:201A320002904CDE75F080120D8A5036755E0D755F4D756080755C0F755D01904CFA75F080
:201A520080120D8A501C755E32755F4D756080755C0F755D01904D1E75F080120D8A5002D6
:201A7200D322C322C027C0E0C0F0C082C083C007C006C005C004C003C002C001C000C0D012
:201A920075D01020980302265143C110855655E5592404FEE43401FF8E828F83E599F0E576
:201AB2005724F85003022644E557240B83F582E557240C83F583E473DA353574448B63F2E3
:201AD2001A222222262320248E828F83E0FDBD22028003021C9FAC597D00740C2CF582E43E
:201AF2003DF58375730D8D74C017C016C015C01475D00012476375D010AA82AB83D014D06F
:201B120015D016D017EA2404F582EB3401F583E0FBBB20028003021C9F740B2CF582E43D75
:201B3200F58375730D757400C017C016C015C01475D00012476375D010AA82AB83D014D083
:201B520015D016D017EA2404F582EB3401F583E0FBBB3A028003021C9F740A2CF582E43D1C
:201B7200F58375730D757400C017C016C015C01475D00012476375D010AA82AB83D014D043
:201B920015D016D017EA2404F582EB3401F583E0FBBB4B028003021C9F74092CF582E43DCC
:201BB200F58375730D757400C017C016C015C01475D00012476375D010AA82AB83D014D003
:201BD20015D016D017EA2404F582EB3401F583E0FBBB4C028003021C9F74082CF582E43D8C
:201BF200F58375730D757400C017C016C015C01475D00012476375D010AA82AB83D014D0C3
:201C120015D016D017EA2404F582EB3401F583E0FBBB43028003021C9F74072CF582E43D55
:201C3200F58375730D757400C017C016C015C01475D00012476375D010AA82AB83D014D082
:201C520015D016D017EA2404F582EB3401F583E0FBBB433974062CF582E43DF58375730DB2
:201C7200757400C017C01675D00012476375D010AC82AD83D016D017EC2404F582ED34018E
:201C9200F583E0FDBD2B067557020226448E828F83E0FDBD3A028003021DF0AC597D007435
:201CB2000C2CF582E43DF58375730D8D74C017C016C015C01475D00012476375D010AA82FC
:201CD200AB83D014D015D016D017EA2404F582EB3401F583E0FBBB49028003021DF0740B1B
:201CF2002CF582E43DF58375730D757400C017C016C015C01475D00012476375D010AA82E0
:201D1200AB83D014D015D016D017EA2404F582EB3401F583E0FBBB54028003021DF0740AD0
:201D32002CF582E43DF58375730D757400C017C016C015C01475D00012476375D010AA829F
:201D5200AB83D014D015D016D017EA2404F582EB3401F583E0FBBB4D028003021DF0740998
:201D72002CF582E43DF58375730D757400C017C016C015C01475D00012476375D010AA825F
:201D9200AB83D014D015D016D017EA2404F582EB3401F583E0FBBB434574082CF582E43DEE
:201DB200F58375730D757400C017C01675D00012476375D010AC82AD83D016D017EC240479
:201DD200F582ED3401F583E0FDBD2B12904D4475F08075D0001202E275D0100226448E82F7
:201DF2008F83E0FDBD20028003021F83AC597D00740C2CF582E43DF58375730D8D74C017D1
:201E1200C016C015C01475D00012476375D010AA82AB83D014D015D016D017EA2404F58262
:201E3200EB3401F583E0FBBB3A028003021F83740B2CF582E43DF58375730D757400C0178F
:201E5200C016C015C01475D00012476375D010AA82AB83D014D015D016D017EA2404F58222
:201E7200EB3401F583E0FBBB4C028003021F83740A2CF582E43DF58375730D757400C0173E
:201E9200C016C015C01475D00012476375D010AA82AB83D014D015D016D017EA2404F582E2
:201EB200EB3401F583E0FBBB47028003021F8374092CF582E43DF58375730D757400C01704
:201ED200C016C015C01475D00012476375D010AA82AB83D014D015D016D017EA2404F582A2
:201EF200EB3401F583E0FBBB4D028003021F8374082CF582E43DF58375730D757400C017BF
:201F1200C016C015C01475D00012476375D010AA82AB83D014D015D016D017EA2404F58261
:201F3200EB3401F583E0FBBB434774072CF582E43DF58375730D757400C017C01675D00050
:201F520012476375D010AC82AD83D016D017EC2404F582ED3401F583E0FDBD2B14300B03F7
:201F7200022644053DC209C207C2067557030226448E828F83E0FDBD4B59AC597D00740CA8
:201F92002CF582E43DF58375730D8D74C017C01675D00012476375D010AC82AD83D016D0E6
:201FB20017EC2404F582ED3401F583E0FDBD4F23A22CB3922BC22CE53E7003022644753EE6
:201FD20000904D1E75F08075D0001202E275D0100226448E828F83E0FDBD54028003022656
:201FF20044AC597D00740C2CF582E43DF58375730D8D74C015C01475D00012476375D01058
:20201200AA82AB83D014D015EA2404F582EB3401F583E0FBBB4F028003022644740B2CF5F4
:2020320082E43DF58375730D75740075D00012476375D010AC82AD83EC2404F582ED340134
:20205200F583E0FDBD4E028003022644D22C0226448E828F83E0FDBD20028003022644AC3A
:20207200597D00740C2CF582E43DF58375730D8D74C015C01475D00012476375D010AA829B
:20209200AB83D014D015EA2404F582EB3401F583E0FBBB3A028003022644740B2CF582E44F
:2020B2003DF58375730D757400C015C01475D00012476375D010AA82AB83D014D015EA244B
:2020D20004F582EB3401F583E0FBBB5A028003022644740A2CF582E43DF58375730D757462
:2020F20000C015C01475D00012476375D010AA82AB83D014D015EA2404F582EB3401F5838B
:20211200E0FBBB5402800302264474092CF582E43DF58375730D757400C015C01475D0004D
:2021320012476375D010AA82AB83D014D015EA2404F582EB3401F583E0FBBB5402800302C7
:20215200264474082CF582E43DF58375730D757400C015C01475D00012476375D010AA8242
:20217200AB83D014D015EA2404F582EB3401F583E0FBBB5502800302264474072CF582E457
:202192003DF58375730D757400C015C01475D00012476375D010AA82AB83D014D015EA246A
:2021B20004F582EB3401F583E0FBBB5302800302264474062CF582E43DF58375730D75748C
:2021D20000C015C01475D00012476375D010AA82AB83D014D015EA2404F582EB3401F583AA
:2021F200E0FBBB500280030226448C828D83A3A3A3A3A375730D75740075D0001247637555
:20221200D010AC82AD83EC2404F582ED3401F583E0FDBD2A028003022644755A00755701F8
:20223200022644740DB59902801A74E2255A4014AD5A055AED2413F582E43401F583E5997C
:20225200F0022644AD5A1DED3395E0FCED2413F582EC3401F583E4F0855758F557D22B02D4
:20227200264430095DE53E7010740DB599028003022644755705022644740AB53E0B74229A
:20229200B59906753E0002264420060EE53E9047E693FDB599028002D20630080F20070EEF
:2022B200E53E90F01293FDB599028002D207053E20060302264420070302264475570002E0
:2022D20026448E828F83E0FDBD3402800302237BAC597D00740C2CF582E43DF58375730D3A
:2022F2008D74C015C01475D00012476375D010AA82AB83D014D015EA2404F582EB3401F50B
:2023120083E0FBBB3863740B2CF582E43DF58375730D757400C015C01475D000124763753F
:20233200D010AA82AB83D014D015EA2404F582EB3401F583E0FBBB2B30740A2CF582E43D34
:20235200F58375730D75740075D00012476375D010AC82AD83EC2404F582ED3401F583E05C
:20237200FDBD2205D209753E01740DB599028003022644755700022644300A35743BB59977
:20239200028021740DB59902801A7460253E4014AD3E053EED2401F582E43400F583E599CD
:2023B200F0022644753E00C20A755700D20B0226448E828F83E0FDBD2C0280030224D7AC05
:2023D200597D00740C2CF582E43DF58375730D8D74C015C01475D00012476375D010AA8238
:2023F200AB83D014D015EA2404F582EB3401F583E0FBBB430280030224D7740B2CF582E452
:202412003DF58375730D757400C015C01475D00012476375D010AA82AB83D014D015EA24E7
:2024320004F582EB3401F583E0FBBB550280030224D7740A2CF582E43DF58375730D757472
:2024520000C015C01475D00012476375D010AA82AB83D014D015EA2404F582EB3401F58327
:20247200E0FBBB446074092CF582E43DF58375730D757400C015C01475D00012476375D08A
:2024920010AA82AB83D014D015EA2404F582EB3401F583E0FBBB502D74082CF582E43DF58E
:2024B2008375730D75740075D00012476375D010AC82AD83EC2404F582ED3401F583E0FDF3
:2024D200BD2A0280047D0080027D01ED24FF920A740DB5990280030226447557000226445C
:2024F200300C3B7420B59902801A7460253E4014AD3E053EED2401F582E43400F583E59985
:20251200F0022644C20CC20EE53E2401F582E43400F583E4F0F53EF557D22B0226448E8294
:202532008F83E0FEBE3D028003022644AE597F00740C2EF582E43FF58375730D8F74C01798
:20255200C01675D00012476375D010AC82AD83D016D017EC2404F582ED3401F583E0FDBD53
:2025720068028003022644740B2EF582E43FF58375730D757400C017C01675D000124763A5
:2025920075D010AC82AD83D016D017EC2404F582ED3401F583E0FDBD6E0280030226447417
:2025B2000A2EF582E43FF58375730D757400C017C01675D00012476375D010AC82AD83D0B0
:2025D20016D017EC2404F582ED3401F583E0FDBD696074092EF582E43FF58375730D7574C9
:2025F20000C017C01675D00012476375D010AC82AD83D016D017EC2404F582ED3401F58376
:20261200E0FDBD682D74082EF582E43FF58375730D75740075D00012476375D010AE82AFAA
:2026320083EE2404F582EF3401F583E0FFBF6302D20C0559E55924F35003755900C298D0FD
:20265200D0D000D001D002D003D004D005D006D007D083D082D0F0D0E0D02732C20D90005F
:2026720001E0FFBF3F028008900002E0FFBF3F06200603021749900002E0FFBF4103022E3C
:202692003DBF4303022C2ABF4503022ECABF4802803EBF50030232ACBF5303022CECBF5492
:2026B200030233E0BF6103022E3DBF6303022C2ABF6503022ECABF68028015BF700302329E
:2026D200ACBF7303022CECBF74030233E0023734900004E0FFBF2B0280030228D5900005BF
:2026F200E0FEC3742F9EE433FD7003022845BE33004003022845900006E0FC24D0400302A2
:202712002845BC3A004003022845900007E0FB24D04003022845BB36004003022845900047
:2027320008E0F56824D0400302284574C62568500302284590000AE0F56424D040030228DF
:202752004574CD2564500302284590000BE0F56524D0400302284574C62565500302284595
:2027720090000CE0F56624D0400302284574CA2566500302284590000DE0F56724D040032F
:2027920002284574C6256750030228458E0274022AF569AA64C39A75F00AA42404F5692579
:2027B200422CAC65C39CFAAC6674062CC39B75F00AA42567AB68C39BFC8A6A756B00AA414E
:2027D2007B00743C2AF56CE43BF56D8C027B00C3E56C9AE56D64808BF063F08095F0E433D9
:2027F200FA7B00E56AC39AF582E56B9BF58375730C8B74C004124763AA82D0048A45AB419E
:2028120074782BC39CFB7C0075733C8C748B828C83124763AB828B46900200120246854608
:20283200289003FE12022B8545289003FF12022B022BC9ED70030228D0BE3600400302281A
:20285200D0900006E0FD24D05074BD3A00506FEE24D075F00AA42D24D0FEAD45740C2DFD05
:20287200C3E5469EE433FCEDC39CFD7C0075730C8C748D828C83C006124763AC82D0068CBE
:2028920045AC467D00743C2CFCE43DFD7B00ECC39EF582ED9BF58375733C8B74124763ADB1
:2028B200828D469002001202468546289003FE12022B8545289003FF12022B022BC9D20D6A
:2028D200022BC9BF2D58900005E0FE24D0504ABE36005045900006E0FD24D0503CBD3A0038
:2028F2005037EE24D075F00AA4AC462C2D24D0F54624C450090545E546FE24C4F546900267
:20291200001202468546289003FE12022B8545289003FF12022B022BC9D20D022BC990006A
:2029320005E0FEBE4E028003BE6E2130060302375A12025E9000A37401F0120299787676DD
:2029520000787776187878763C022BC9BE46028003BE661630060302375A12025E9000A31C
:20297200E4F0120299C2C2022BC9BF2C028003022A44BE6702800DBE47028008BE61028086
:2029920003BE4116C2C2787676001217779216787776187878763C022BC9EE24D0400302A1
:2029B2002A3FBE33004003022A3F900006E0FD24D0507ABD3A005075900007E0FC24D05059
:2029D2006CBC36005067900008E0FB24D0505EBB3A0050598E02EA24D075F00AA4FA2D2451
:2029F200D0FDBD18005041C2C2787676008D42EC24D075F00AA42B24D0F541AC427D0075B3
:202A1200730C8D748C828D83124763AC828C4385411E85401F8542821201C5C21678777627
:202A3200187878763C022BC9D20D022BC9D20D022BC9EF24D04003022BC7BF3300400302D9
:202A52002BC7EE24D04003022BC7BE3A004003022BC7900006E0FD24D04003022BC7BD3699
:202A7200004003022BC7900007E0FC24D04003022BC7BC3A004003022BC77B00EF24D0F5EF
:202A920073EB34FFF57490000AC006C005C0041246B4AB82AF83D004D005D0067A00EE2BC4
:202AB200FBEA3FFFEB24D0F582EF34FFF58375730C8A74C005C004124763AE82D004D005E1
:202AD2008E45ED24D075F00AA42C24D0F5469002001202468546289003FE12022B85452821
:202AF2009003FF12022B900009E0FFBF6702800DBF47028008BF61028003BF412A90F003E4
:202B1200E4937003022BC9121777921690F011E4937003022BC9C2C27876760078777618A5
:202B32007878763C022BC9EF24D04003022BC9BF33004003022BC990000AE0FE24D0507771
:202B5200BE3A00507290000BE0FD24D05069BD3600506490000CE0FC24D0505BBC3A005080
:202B720056EF24D075F00AA42E24D0FFBF18005040C2C2787676008F42ED24D075F00AA4C2
:202B92002C24D0F541AE427F0075730C8F748E828F83124763AE828E4385411E85401F853B
:202BB20042821201C5787776187878763CC2168006D20D8002D20D300D2A30070ED232906A
:202BD2004D5375F080120F2302375AD232904D6675F080120F23C232904D5375F080120FED
:202BF2002302375A120935921A12087592C430070ED232904D8C75F080120F2302375AD2EC
:202C120032904DA675F080120F23C232904D8C75F080120F2302375A900005E0FFBF650211
:202C32008003BF452A30070ED233904DD375F0801213E002375AD233904DEB75F080121383
:202C5200E0C233904DD375F0801213E002375ABF6E028003BF4E0E12025E9000A57401F087
:202C7200120299804BBF66028003BF460D12025E9000A5E4F01202998036900003E060302D
:202C9200900004E0602A30070ED232904D5375F080120F2302375AD232904D6675F08012B1
:202CB2000F23C232904D5375F080120F2302375A30070ED232904E1675F080120F23023751
:202CD2005AD232904E2A75F080120F23C232904E1675F080120F2302375A900005E0FFBF7C
:202CF2007902800DBF59028008BF44028003BF642A30070DD232904E5175F080120F238023
:202D120016D232904E6E75F080120F23C232904E5175F080120F23C2AF80FEBF6702800827
:202D3200BF47028003022DE0900009E0FE24D05073BE3A00506E12025E900009E024D0FE26
:202D52009000A7F08E4990000BE0FE24D05028BE3300502390000CE0FD24D0501ABD3A004C
:202D72005015EE24D075F00AA42D24D0FEBE180050059000A8EEF012029930070ED2329001
:202D92004E9E75F080120F2302375AD232904EBD75F080120F23C232904E9E75F080120F3B
:202DB2002302375A30070ED232904EEF75F080120F2302375AD232904F1075F080120F235D
:202DD200C232904EEF75F080120F2302375ABF69028003BF492B30070DD232904F4475F0B4
:202DF20080120F238016D232904F6675F080120F23C232904F4475F080120F23C2A002371A
:202E12005A30070ED232904F9B75F080120F2302375AD232904FB475F080120F23C2329083
:202E32004F9B75F080120F2302375A900005E0FF24CF505ABF3A005055900007E0FF24CFC2
:202E5200504CBF3A00504712025E900005E024D0C454F0FF900007E024D042079000AAEF75
:202E7200F012029930070ED232904FE075F080120F2302375AD23290500675F080120F23CC
:202E9200C232904FE075F080120F2302375A30070ED23290503F75F080120F2302375AD2BB
:202EB2003290505C75F080120F23C23290503F75F080120F2302375A900005E0FFBF58020D
:202ED2008003BF783512025E9000ABE4F012029930070ED23390508C75F0801213E00237EA
:202EF2005AD2339050A775F0801213E0C23390508C75F0801213E002375A12025E120299F3
:202F12009000ABE4F09001A67404F09001A6E0FF2401F582E43400F583E0FE24D040030298
:202F32003232BE330040030232328F057F0074012DFBE43FFCEB2401F582EC3400F583E0B3
:202F5200FC24D0400302323274012DFBE43FFCEB2401F582EC3400F583E0FCBC3A004003D6
:202F720002323274022DFBE43FFCEB2401F582EC3400F583E0FC24D0400302323274022DE1
:202F9200FBE43FFCEB2401F582EC3400F583E0FCBC3600400302323274032DFBE43FFCEBC6
:202FB2002401F582EC3400F583E0FC24D0400302323274032DFBE43FFCEB2401F582EC34ED
:202FD20000F583E0FCBC3A00400302323274052DFBE43FFCEB2401F582EC3400F583E0FC31
:202FF20024D0400302323274052DFBE43FFCEB2401F582EC3400F583E0FCBC330040030233
:20301200323274062DFBE43FFCEB2401F582EC3400F583E0FC24D0400302323274062DFB3F
:20303200E43FFCEB2401F582EC3400F583E0FCBC3A00400302323274072DFBE43FFCEB24F4
:2030520001F582EC3400F583E0FC24D0400302323274072DFBE43FFCEB2401F582EC34006C
:20307200F583E0FCBC3600400302323274082DFBE43FFCEB2401F582EC3400F583E0FC246D
:20309200D0400302323274082DFBE43FFCEB2401F582EC3400F583E0FCBC3A00400302327A
:2030B200328E7375740090000AC007C006C0051246B4AB82AC83D005D006D007C0067401D1
:2030D2002DFAE43FFEEA2401F582EE3400F583E07A002BFBEA3CFCC3EB9428EC6480948284
:2030F200D0064003023232C00674052DFBE43FFCEB2401F582EC3400F583E0FC8C737574D6
:203112000090000AC007C006C0051246B4AB82AC83D005D006D00774062DFAE43FFEEA24F7
:2031320001F582EE3400F583E07A002BFBEA3CFCC3EB9428EC64809482D0064003023232FA
:20315200ED24FCF582EF34FFF583757305757400C007C006C005124799AB82D005D006D07D
:203172000774092BFC3395E0FAEC24A3F56AEA3400F56BEE24D075F00AA4F56C74012DFC6C
:20319200E43FFEEC2401F582EE3400F583E0256C24D075F006A4FE74022DFAE43FFCEA249E
:2031B20001F582EC3400F583E02E24D0856A82856B83F0740A2BFB3395E0FEEB24A3FBEE32
:2031D2003400FE74052DFAE43FFCEA2401F582EC3400F583E024D075F00AA4F56C74062DDF
:2031F200FAE43FFCEA2401F582EC3400F583E0256C24D075F006A4FC74072DFDE43FFFED62
:203212002401F582EF3400F583E02C24D08B828E83F09000ABE0FF0F0F9000ABEFF080067F
:203232009001A6744BF09001A6E0240AF0E0FFBF4B005003022F1D9000ABE0603390000099
:2032520012024612029930070ED2339050D575F0801213E002375AD2339050F575F0801208
:2032720013E0C2339050D575F0801213E002375A30070ED23290512875F080120F2302376E
:203292005AD23290514A75F080120F23C23290512875F080120F2302375A30060302375AE5
:2032B20090F011E493700ED23290517F75F080120F2302375A900006E0FFBF54028003BF8A
:2032D2007410C2C2D23290519475F080120F2302375ABF4E028003BF6E2F90F011E493FEAB
:2032F200BE011812025E9000B47402F012029978767600787776187878763CD23290519E16
:2033120075F080120F2302375ABF46028003BF662590F011E493FEBE020EC2C212025E90B1
:2033320000B47401F0120299D2329051A775F080120F2302375A900005E0FE24D0400302C1
:2033520033D2BE33005079EF24D05074BF3A00506F900007E0FD24D05066BD3600506190EB
:203372000008E0FC24D05058BC3A005053209242D2C2EE24D075F00AA42F24D0F582ED24FA
:20339200D075F00AA42C24D0F5721246049005DC1203CE30920ED2329051B075F080120F96
:2033B2002302375AD2329051C575F080120F2302375AD2329051E775F080120F2302375A57
:2033D200D23290520D75F080120F2302375A300603023729900004E0FFBF47028003BF676D
:2033F2001D12025E9000A67401F01202991217F9D23290522475F080120F23023729BF412D
:20341200028003BF611B12025E9000A6E4F0120299C216D23290522D75F080120F23023764
:2034320029BF2B02800302356F900005E0FEBE3802800302356F900006E0FEBE34028003BD
:2034520002356F900007E0FEBE30005003023561EE24C65003023561900008E0FEBE30003F
:203472005003023561EE24C65003023561900009E0FEBE30005003023561EE24C65003020F
:20349200356190000AE0FEBE30005003023561EE24C6500302356190000BE0FEBE300050B9
:2034B20003023561EE24C6500302356190000CE0FEBE30005003023561EE24C650030235E7
:2034D2006190000DE0FEBE30005003023561EE24C6500302356190000EE0FEBE3000406F49
:2034F200EE24C6406A90000FE0FEBE30004060EE24C6405B12025E9000B5E4F07E018E051D
:2035120074122DFD3395E0FCED24A3FDEC3400FC8E027B0074062AFAE43BFBEA2401F5822F
:20353200EB3400F583E08D828C83F00EBE0A0040CD9000C0E0FEBE02059000C0E4F01202E6
:2035520099D23290523675F080120F23023729D23290525475F080120F23023729BF300263
:203572008003023689900005E0FEBE3000500302367BEE24C6500302367B900006E0FEBE7E
:203592003000500302367BEE24C6500302367B900007E0FEBE3000500302367BEE24C65074
:2035B2000302367B900008E0FEBE3000500302367BEE24C6500302367B900009E0FEBE3096
:2035D20000500302367BEE24C6500302367B90000AE0FEBE3000500302367BEE24C650035E
:2035F20002367B90000BE0FEBE3000500302367BEE24C6407490000CE0FEBE3000406AEE0D
:2036120024C6406590000DE0FEBE3000405BEE24C6405612025E7E008E0574122DFD33959C
:20363200E0FCED24A3FDEC3400FC8E027B0074032AFAE43BFBEA2401F582EB3400F583E012
:203652008D828C83F00EBE0A0040CD9000C0E0FEBE02059000C0E4F0120299D23290523687
:2036720075F080120F23023729D23290525475F080120F23023729BF78028003BF581A12E9
:20369200025E9000C07402F0120299D23290527975F080120F2302372990F01DE493FFBF99
:2036B2000224900005E0FFBF6E02800DBF4E028008BF66028003BF465ED23290528875F02B
:2036D20080120F238051900005E0FFBF4E028003BF6E1912025E9000C07401F0120299D251
:2036F200329052BA75F080120F23802BBF46028003BF661812025E9000C0E4F0120299D23A
:20371200329052C975F080120F23800BD2329052D875F080120F2390F01DE493FF1392085F
:20373200802630070DD2329052F575F080120F238016D23290530875F080120F23C2329057
:2037520052F575F080120F2343C1107F00EF2401FDE43400FE8D828E83E0600FEF2401F5B5
:2037720082E43400F5830FE4F080E2227F008F6E8F937594FF8F928F918F957596FF8FB268
:203792008FB175B30275B41C8FCA8FC98FC075B0FF8FA0759D088F978FBD75BC83D2ADD284
:2037B200AF9000C574FAF09000C6741EF09000C77405F09000A223F0755102755002754F65
:2037D20002755205755301C007120A0712025ED0079000A3E024FE50069000A37401F0905A
:2037F20000A5E024FE50059000A5E4F09000A6E024FE50069000A67401F09000A7E024F658
:2038120050069000A77401F09000A8E024E850059000A8E4F09000AAE0FDC4540FFC7B006A
:203832001CBCFF011BC374089C74808BF063F08095F0500A740F5D4450FD9000AAF090005C
:20385200AAE0FD53050F7C001DBDFF011CC374089D74808CF063F08095F0500F9000AAE0D9
:20387200FD74F05D4401FD9000AAF09001A77401F09000ABE0FDBD0900502EED20E02A7C80
:2038920001C3ED9C401E8C0374082BFB3395E0FAEB24A3F582EA3400F583E0FBBB90005063
:2038B200030C80DD9001A7ECF09001A7E0FCC3ED9C40129000AB7402F09000AC7424F090CF
:2038D20000AD746CF09001A7E4F09000C0E0FDBD020050479000BFE07041FDBD0A005036A0
:2038F2008D0474122CFB3395E0FAEB24A3F582EA3400F583E0FBBB3000401B74122CFC3315
:2039120095E0FBEC24A3F582EB3400F583E0FC24C640030D80C59001A7EDF09001A7E0FDDF
:20393200BD0A00500B9000BFE4F09000C07402F09000C1E0FD24E750059000C1E4F0309205
:20395200079000B4E4F080129000B4E0FD6005ED24FD50069000B47402F0C007120299D0CC
:203972000790F3FEE493FD24C4400A90F3FFE493FD24F4501E900200C0071202467528003B
:203992009003FE12022B7528009003FF12022BD007800E90F3FEE493F54690F3FFE493F551
:2039B20045D2A2C0071202CAD00790F011E4936013C0071245EED007787676007877761881
:2039D2007878763CD20390F004E493F549C0071209F5120568751841751900751A40751B14
:2039F20040751C00751D4090004275F040120135D007E54224E8400CE54124C44006E54084
:203A120024C45010751E00751F00758200C0071201C5D007C0071200EED2A8D2887518414F
:203A3200751900751A40751B40751C00751D4090004275F0401201351217F9D007E54224E1
:203A5200F45007E54224F4FD8002AD428D4390F01DE49313920875BC8BC007121A1FD00726
:203A72005021D23290532E75F080C007120F23D00730080FC23290532E75F080C007120FCE
:203A920023D00790F006E4937015755405C00712025E9000A974FFF0120299D00780037579
:203AB200543C75C16590F3FEE493B5460B90F3FFE493FDB54502801C900200C0071202468A
:203AD2008546289003FE12022B8545289003FF12022BD007E5546004E552701B7552002031
:203AF2001A09C007120935921AD00720C409C00712087592C4D007201703023BAC20A0168E
:203B12009000A2E014F0E0700D75BC83D2A09000A2741EF0D2059000C4E0FDE0602B900043
:203B3200C2E07025ED149000C4F0E0701C9000C3E09000C2F09000C47405F0C00712093542
:203B5200921A12087592C4D00730C4199000C6E0FDE06011ED149000C6F0E07008C2C4A293
:203B7200C492129210301A179000C7E0FDE0600FED149000C7F0E07006C21AC212C210E540
:203B920054600C90F011E49360032092021554E54F6005301F02154FC21790F01EE493FD92
:203BB200BD18005022C0071206D2D007E552701790F000E493601090F011E493FDBD020734
:203BD200C007120819D00790F004E4936038E549703490F005E493FDB5422BE54124FA50EE
:203BF20025201A2220C41F90F011E4936003209215C2AF75280090000612022BD2A390070E
:203C1200D01203CE80FE9000C5E07026202E23D22ED23290535075F080C007120F23D00727
:203C320030080FC23290535075F080C007120F23D0079000C6E070329000C7E0702C202F43
:203C520029C2C4A2C4921AD22FD23290536D75F080C007120F23D00730080FC23290536DEA
:203C720075F080C007120F23D00720037374FB2541406D20161090F003E4936009C00712D1
:203C920017F9D007801F751841751900751A40751B40751C00751D4090004275F040C007F0
:203CB200120135D007E54224F45007E54224F4FD8002AD428D4390F002E4936021D23290B2
:203CD200538475F080C007120F23D00730080FC23290538475F080C007120F23D007D203F6
:203CF200E55224FA5003024526E55275F003A4903D0573023D1702400E02417E0244DF0287
:203D12004367023E6D30054975BC8BC205755700C0071217F9AC427D0075730C8D748C8216
:203D32008D83124763AC828C43121A1FD0075021D23290539575F080C007120F23D00730A2
:203D5200080FC23290539575F080C007120F23D007300B14C00712266E904D1E75F0801259
:203D720002E2D007C20B8020752DB2752E53752F80854530854631854032A2199201758269
:203D920080C0071205E9D007301622752D75752E4B752F80854230854131854032A2199230
:203DB200017582C0C0071205E9D007804990F003E4936022752D85752E4B752F8085423026
:203DD200854131854032A21992017582C0C0071205E9D0078020752D7D752E4B752F8085EA
:203DF2004230854131854032A21992017582C0C0071205E9D007E54F600302452CC21C7551
:203E1200543C9000C3E4F09000C2F09000C4F0755205755301C2C4A2C4921AC2C27876763E
:203E320000102102800302452C30081DD2329053BA75F080C007120F23C2329053CE75F057
:203E520080120F23D00702452CD2329053CE75F080C007120F23D00702452C101C02801E87
:203E720075543C05537404B5530990F011E49370020553E55324FB5003755300C22A1026E4
:203E920002800875543C755300C22A102103023FB075543C855352755300C0071209359208
:203EB2001A12087592C4D007E552700302452C758280C007120481E55275F010A424F9FCBF
:203ED200744735F0FD7B808C828D838BF01204FED0077401B5520280197402B55202803529
:203EF2007403B5520280787404B55203023F8A02452C752DB2752E53752F80854530854645
:203F120031753200A21992017582C0C0071205E9D00702452C3016067C757D4B801F90F07D
:203F320003E493600B756F8575704B7571808009756F7D75704B757180AC6FAD708C2D8D8D
:203F52002E752F80854230854131854032A21992017582C01205E9AF4285416E02452C90EB
:203F720053E475F080C0071204FE7529007582C01203FBD00702452C752DF6752E53752F57
:203F920080753000753100753200A21992017582C01205E9D2C2756E007F0002452C3016E9
:203FB200067C757D4B801990F003E49360087A857B4B7E8080067A7D7B4B7E808A048B0513
:203FD2008C2D8D2E752F80854230854131855432A21992017582C0C0071205E9E55375F0D5
:203FF20010A424F9FD744735F0FE8D2A8E2B752C8075828012040BD00702452CAE53740714
:204012002EFEAC537D007573028D748C828D83C007C006124799AC82D006EC2EF52975822B
:20403200C01203FBD00710260302412075543CE55324FC5003024100E55375F003A4904024
:20405200547302406002408C0240C20240DAE54524F2501DAD457E0075730A8E748D828E49
:2040720083C007124763AD82AE83D0078D45024100AE45740A2EF5458074E54524E9500583
:204092007545148069AD457E0075730A8E748D828E83C007124763AD82AE83D007BD090C47
:2040B200BE0009E545FE24F7F54580420545803EE54624CE5009E546FE24CEF546802FAEB7
:2040D20046740A2EF54680260546AD467E0075730A8E748D828E83C007124763E582858339
:2040F200F0D00745F07007E546FE24F6F546752DB2752E53752F80854530854631753200B2
:20411200A21992017582C0C0071205E9D007102102800975543CE55360021553101C0302F6
:20413200452C75543C0553E55324FC400302452CC0071204D9855253755205AD457E007500
:20415200730C8E748D828E83124763AD828D459002001202468546289003FE12022B854576
:20417200289003FF12022BD00702452CAE5374072EFEAC537D007573028D748C828D83C0FD
:2041920007C006124799AC82D006EC2EF5297582C01203FBD00790F003E4936055E54F7021
:2041B20051855253755205787776187878763C20161090F003E4936009C0071217F9D0071E
:2041D200801F751841751900751A40751B40751C00751D4090004275F040C007120135D07A
:2041F20007E54224F45007E54224F4FE8002AE428E4310260302430075543CE55324FC5065
:20421200030242C1E55375F003A49042207302422C02425102428302429BEF24F250188F34
:20423200057E0075730A8E748D828E83124763AD82AE838D0780788F06740A2EFF8070EF0E
:2042520024E950047F1480678F057E0075730A8E748D828E83C007124763AD82AE83D00791
:20427200BD090BBE00088F06EE24F7FF80410F803EE56E24CE5009E56EFE24CEF56E802F77
:20429200AE6E740A2EF56E8026056EAD6E7E0075730A8E748D828E83C007124763E58285AC
:2042B20083F0D00745F07007E56EFE24F6F56E3016067D757E4B801990F003E49360087AAC
:2042D200857B4B7C8080067A7D7B4B7C808A058B068D2D8E2E752F808F30856E318554329E
:2042F200A21992017582C0C0071205E9D007102102800975543CE55360021553101C030215
:20431200452C75543C0553E55324FC400302452CC0071204D9D0078552537552058F4285D6
:204332006E4185411E85401F854282C0071201C5AD427E0075730C8E748D828E83124763CD
:20435200AD82AE83D0078D43C216787776187878763C02452CAE5374072EFEAC537D007541
:2043720073028D748C828D83C007C006124799AC82D006EC2EF5297582C01203FBD007E559
:204392004F7008855253755205C2C210260302447975543CE55324FC500302445AE55375D5
:2043B200F003A49043B9730243C50243EA02441C024434EF24F250188F057E0075730A8E41
:2043D200748D828E83124763AD82AE838D0780788F06740A2EFF8070EF24E950047F1480FC
:2043F200678F057E0075730A8E748D828E83C007124763AD82AE83D007BD090BBE00088F3E
:2044120006EE24F7FF80410F803EE56E24CE5009E56EFE24CEF56E802FAE6E740A2EF56ED0
:204432008026056EAD6E7E0075730A8E748D828E83C007124763E5828583F0D00745F07046
:2044520007E56EFE24F6F56E752DF6752E53752F808F30856E31753200A21992017582C034
:20447200C0071205E9D007102102800975543CE55360021553101C0302452C75543C0553CA
:20449200E55324FC400302452C755300856E728F82C0071246049000641203CED00730922B
:2044B200067DFE7E5380047D067E548D2D8E2E752F808F30856E31753200A2199201758256
:2044D200C0C0071205E91204D9D007804D101C02801FAE530E9000C3EEF09000C2EEF090E3
:2044F20000C47405F0855253F552C0071204D9D0071026028024AE537404C39EF553AE5380
:2045120074312EF582C0071204267582C0120481D007800675530075520043C110023AB7FB
:20453200C0E043C110E59A30E003539AFED0E032C027C0E0C0F0C082C083C007C006C00548
:20455200C004C003C002C001C000C0D075D00075BC83AFBD7875A60730021DBF520050043C
:20457200C2A28058EF24915053C202D23290540E75F080120F238044BF5C00503FD202C2BF
:204592001AC2C453A00F90F3FEE493B5460B90F3FFE493FFB545028018900200120246856C
:2045B20046289003FE12022B8545289003FF12022BD23290542375F080120F2375BC8BD028
:1C45D200D0D000D001D002D003D004D005D006D007D083D082D0F0D0E0D0273223
:2047E600303934393834373039380080901030206040C020202020202045584954000000CF
:2048060000000020204348494E482047494F204B494D00204348494E482047494F205448A3
:204826005543002020202043414E48204B494D000000002020202054455354204D5033008F
:2048460000000020415349412047505320332E332E350044482C4F4E20646F6E6720686FDF
:204866002063686179202D2044482C4F464620646F6E6720686F2064756E670A44482C2BF3
:204886006D6D206B696D2070687574206C6563682064756F6E67206D6D2070687574202DD5
:2048A6002044482C2D6D6D206C65636820616D206D6D20706875740A44482C6B6B6B6B2CF4
:2048C60074747474206368696E682067696F206B696D2067696F20746875632067696F2066
:2048E600747520646F6E67207468617920747474742062616E67206175746F0A42432C4FA0
:204906004E2062616F2063616F206461752067696F202D2042432C4F464620746174206201
:20492600616F2063616F206461752067696F0A4243206775692062616F2063616F202D208F
:2049460042432C44454E2042432C4D50332062616F2063616F2064656E2062616F206361F6
:204966006F206D70330A52532072657365743A52532C737973207265736574206865207472
:20498600686F6E67202D2052532C73696D20726573657420677073206D6F64756C650A522F
:2049A600532C472C6E6E2C6767206D6F69206E6E206E6761792076616F2067696F20676746
:2049C6003A303620626F2064696575206B6869656E2072657365740A44454E2C584F4120F2
:2049E600786F6120746F616E20626F2074686F6E6720736F2064656E207461742064656E4D
:204A06000A44454E2C747474742C6D6D6D6D20783A20736F206361702067696F20746174E3
:204A26002F6D6F20747474742C6D6D6D6D2067696F207461742F6D6F2064656E0A4D503391
:204A46002C582C616C6C20786F6120746174206361202D204D70332C582C61612C62622CC7
:204A660063632C2E2E2E20786F61206361632067696F2061612C62622C63630A4D50332CDC
:204A8600542C676770702C32322C31312C2E2E2E206C6170206C616920746F6920646120EA
:204AA6003132206C616E20676770703A67696F20706875742070686174206E6861630A3247
:204AC600322C3131207468752074752062616920686174206C616E206C756F742074726F39
:204AE6006E6720746875206D7563203220766120310A44542C307878787878787878782015
:204B060044542C2B3834787878787878787878207468617920646F6920736F206469656E08
:204B26002074686F6169207068750A44542C584F4120786F6120736F206469656E207468F1
:204B46006F6169207068750A44542C4F4E2044542C4F4646202D20626174207461742064EE
:204B660069656E2074686F6169207068750A0020204750532020002041534941202000203F
:204B8600202044532020001A00544B3C31303030204B2042414F43414F0041542B434D477B
:204BA600533D2200220D0041542B435553443D312C222A31303123222C0D0020204B494510
:204BC6004D2054524120544B202020002C000D544B204368696E683D000D546169206B681F
:204BE6006F616E20636F6E2064756F692031303030300044414E47204755492042414F20FE
:204C060043414F000D47696F204D6F2044656E3A000D4B686F6E6720636F2067696F206D60
:204C26006F2064656E004755492042414F2043414F2044454E2000204755492048554F4E68
:204C4600472044414E20200041542B43434C4B3F0D00202053454E44494E472043434C4B26
:204C660020200041540D0041542B4950523D300D00202053454E44494E4720495052202094
:204C8600200041542B434C54533D310D00202053454E44494E4720434C545320200041540A
:204CA6002B4346554E3D300D00202053454E44494E47204346554E3020200041542B4346D0
:204CC600554E3D310D00202053454E44494E47204346554E3120200041542B434D47463D91
:204CE600310D00202053454E44494E4720434D474620200041542B434E4D493D312C312CCD
:204D0600302C302C310D00202053454E44494E4720434E4D4920200041542B434D474441AC
:204D26003D2244454C20414C4C220D00202053454E44494E4720434D474441202000415478
:204D46002B434D474C3D22414C4C220D000D6C656E68206B686F6E6720686F70206C650055
:204D66000D6C656E68206B686F6E6720686F70206C650D50686F6E65207068752067756911
:204D8600206C656E68000D6368696E6820646F6E6720686F207468616E6820636F6E670076
:204DA6000D6368696E6820646F6E6720686F207468616E6820636F6E670D50686F6E6520F6
:204DC60070687520677569206C656E68000D62616F2063616F2064656E207468616E682018
:204DE600636F6E67000D62616F2063616F2064656E207468616E6820636F6E670D50686FEF
:204E06006E652070687520677569206C656E68000D62616F2063616F207468616E682063D8
:204E26006F6E67000D62616F2063616F207468616E6820636F6E670D50686F6E652070689D
:204E46007520677569206C656E68000D6B686F6920646F6E67206C616920626F2064696592
:204E660075206B6869656E000D6B686F6920646F6E67206C616920626F2064696575206B6F
:204E86006869656E0D50686F6E652070687520677569206C656E68000D646174206E67612C
:204EA600792067696F207265736574207468616E6820636F6E67000D646174206E676179C2
:204EC6002067696F207265736574207468616E6820636F6E670D50686F6E6520706875209C
:204EE600677569206C656E68000D646174206E6761792067696F207265736574206B686F87
:204F06006E6720686F70206C65000D646174206E6761792067696F207265736574206B68B4
:204F26006F6E6720686F70206C650D50686F6E652070687520677569206C656E68000D67BB
:204F4600736D206D6F64756C65206B686F6920646F6E67206C61692073617520313073007F
:204F66000D67736D206D6F64756C65206B686F6920646F6E67206C6169207361752031305E
:204F8600730D50686F6E652070687520677569206C656E68000D6C656E6820726573657401
:204FA600206B686F6E6720686F70206C65000D6C656E68207265736574206B686F6E67200E
:204FC600686F70206C650D50686F6E652070687520677569206C656E68000D746861792010
:204FE600646F692067696F20736163207861206163717569207468616E6820636F6E670093
:205006000D7468617920646F692067696F20736163207861206163717569207468616E6856
:2050260020636F6E670D50686F6E652070687520677569206C656E68000D4C656E682073DC
:205046006163206163717569206B686F6E6720686F70206C65000D4C656E682073616320B9
:205066006163717569206B686F6E6720686F70206C650D50686F6E652070687520677569AF
:20508600206C656E68000D786F6120746174206D6F2064656E207468616E6820636F6E6738
:2050A600000D786F6120746174206D6F2064656E207468616E6820636F6E670D50686F6E3D
:2050C600652070687520677569206C656E68000D677569206C656E6820746174206D6F202E
:2050E60064656E207468616E6820636F6E67000D677569206C656E6820746174206D6F20DB
:2051060064656E207468616E6820636F6E670D50686F6E652070687520677569206C656E20
:2051260068000D74686F6E6720736F20746174206D6F2064656E206B686F6E6720686F7078
:20514600206C65000D74686F6E6720736F20746174206D6F2064656E206B686F6E672068AE
:205166006F70206C650D50686F6E652070687520677569206C656E68000D4B686F6E672095
:20518600436F204D6F64756C65204D7033000D44756E67204D7033000D426174206D7033C2
:2051A600000D546174206D7033000D54657374206D7033207468616E6820636F6E67000D9F
:2051C6006B686F6E672064756E672067696F207068617420686F6163206D7033206C6F6969
:2051E600000D4D70332064616E672063686F69206E686163206E656E206368756120746857
:20520600652074657374000D4C656E68204D5033206B686F6E6720686F70206C65000D42E1
:20522600617420475053000D54617420475053000D6768692070686F6E6520706875206DD0
:205246006F69207468616E6820636F6E67000D7468617920646F692070686F6E6520706825
:2052660075206B686F6E67207468616E6820636F6E67000D586F612070686F6E652070681B
:2052860075000D6C656E68206B686F6E67207468616E6820636F6E6720646F2063687561FA
:2052A600206B686F692074616F2070686F6E6520706875000D4261742070686F6E65207024
:2052C6006875000D5461742070686F6E6520706875000D4C656E682070686F6E6520706848
:2052E60075206B686F6E6720686F70206C65000D4C656E68206B686F6E6720686F70206CE6
:2053060065000D4C656E68206B686F6E6720686F70206C650D50686F6E6520706875206704
:205326007569206C656E68000D626F2064696575206B6869656E206B686F6920646F6E675B
:205346002073616E2073616E67000D70686174206869656E206C6F69206D61742078756E5D
:20536600672067696179000D70686174206869656E206C6F6920646F632063616D000D62FE
:20538600616F2063616F206461752067696F000D67736D206D6F64756C65207265736574EE
:2053A600207468616E6820636F6E670020204B494D2020000D6368696E682067696F206294
:2053C600616E6720746179000D2A6368696E682067696F2062616E67207461792A00C03142
:2053E6002050485554202020202020202020200020204D503320200020204F4B202020007C
:2054060020204E4F202020000D2A6469656E206170206B686F6920706875632A000D2A6421
:1554260069656E20617020616371756920746861702A001428DE
:2045EE0075BA01759A50438E0475D7C875D6FE438E1075AF0122AF828F73757400900064B4
:20460E001246B4AE82AF83AC727D00EC2EFEED3FFF8E058D037C0074E9C39BFB74FE9CFCE1
:20462E008F017A00EBC399FBEC9AFC9001A8747EF09001A974FFF09001AA7406F09001AB05
:20464E007412F09001ACE4F08F069001ADEEF09001AEEDF08C079001AFEFF09001B0EBF02A
:20466E009001B174EFF07F00EF24A8F582E43401F583E0F59BE59A035401700543C1108005
:0B468E00F4539AFD0FBF0A0040DE222B
:06007800E478FFF6D8FD5C
:200056007902E94400601B7A0190543978B275A001E493F2A308B8000205A0D9F4DAF2750E
:02007600A0FFE9
:1B46990020F71130F6138883A88220F509F6A8837583002280FEF280F5F02220
:1D46B400E5828573F0A4C582C0F08574F0A4D0F025F0C5838573F0A42583F5832287
:2046D100E573457460467A01E57325E0F573E574334012F574E5829573E583957440030A5E
:2046F10080E6C3E57413F574E57313F573C3E5829573F5F0E58395744005F58385F082C3D9
:0D471100E57413F574E57313F573DAE12216
:20007E007800E84400600A790175A000E4F309D8FC78B1E84401600C7902900001E4F0A3CC
:04009E00D8FCD9FAB7
:20471E007A10E4FBFCE58225E0F582E58333F583EB33FBEC33FCEB9573F5F0EC95744006D9
:09473E00FCABF0438201DADD223C
:0D0049007581781247D1E582600302004600
:1C47470020F71430F6148883A88220F507E6A88375830022E280F7E49322E02281
:20476300C2D5E58330E70DD2D5E4C39582F582E49583F583E57430E70BE4C39573F573E44D
:164783009574F5741246D130D50BE4C39582F582E49583F58322AA
:20479900C2D5E58330E70DD2D5E4C39582F582E49583F583E57430E70DB2D5E4C39573F5E5
:1847B90073E49574F57412471E30D50BE4C39582F582E49583F58322CD
:0447D10075820022CB
:00000001FF
