:2000A500AF827E00757D0A8E7E8F828E83C007C006124C72AC82D006D007ECC454F0FC75C5
:2000C5007D0A757E008F828E83C004124C3CAE82D004EE4CF58222E582FFC4540F75F00A4E
:2000E500A4FE740F5F2EF582221203187582D012035775820712035775821012035702036E
:20010500331203187582D01203577582041203571203331203187582D1120357C200120360
:200125007C1200DCAF82C007120333D0078F8222AD82AE83AFF0C007C006C0051203187513
:2001450082D01203577582001203571203331203187582D1120357AA1BAB1CAC1DD200C0E9
:2001650004C003C00212037C1200DCA982D002D003D0048A828B838CF0E9124B72AA18AB13
:2001850019AC1AD200C004C003C00212037C1200DCA982D002D003D0048A828B838CF0E9BE
:2001A500124B72C20012037C1200DCAC82D005D006D0078D828E838FF0EC124B72020333E8
:2001C500AF82C0071203187582D0120357758200120357851F821200A5120357851E8212DF
:1201E50000A5120357D0078F821200A5120357020333B4
:2001F70075C70075C50075C60075C38075C40043C11022AE82AF8375C78375C5018EC48FD3
:20021700C375C65A75C6A500AFC2C0071201F7D0078F8222AE82AF8375C78375C5028EC494
:200237008FC38528C275C65A75C6A5000201F7AE82AF8375C78375C5038EC48FC375C65AE0
:2002570075C6A5000201F743C1107F20EF60101FEF24A3F582E43400F58374FFF080EDBF30
:2002770020005018EF24A3FDE43400FE8F827583F00FE493FC8D828E83F080E39000000296
:2002970002467F00BFCD00502975C78375C5028FC475C300EF24A3F582E43400F5830FE049
:1302B700F5C275C65A75C6A500C0071201F7D00780D222EC
:2002CA00759850438E40538EFE758BCC758DFFC2ABD28ED2ACD2A022AD82AE83AFF0C299C1
:2002EA008D828E838FF0124C20FC60218C9920990543C11080F8C2998D828E838FF0124C93
:0E030A0020FCBC1A01220DBD00D60E80D322AD
:20031800D2C043C11043C110D2CD43C11043C110C2C043C11043C110C2CD22C2C043C11053
:2003380043C110D2CD43C11043C110D2C02243C11043C110D2CD43C11043C110C2CD22AFC7
:20035800827E00EF23540124FF92C08F05ED2DFFC007C006120346D006D0070EBE08004053
:20037800E20203467F00D2C07E0043C11043C110D2CD43C11043C1108F05ED2DFDA2C0E4C9
:1E039800334DFFC2CD0EBE080040DFA200B392C0C007120346D007A2C092CD8F8222B2
:2003B600AE82AF837C007D00C3EC9EED9F500A43C1100CBC00F20D80EF22AE82AF837C004F
:2003D6007D00C3EC9EED9F501D9003E8C007C006C005C0041203B6D004D005D006D0070C86
:2003F600BC00DF0D80DC22AF82E5294FF58212048375820D020483AF82302A118F821204D3
:2004160083852A82852B83852CF00205008F820204E1E582FFC4540124FF9283EFA2E5E42E
:200436003324FF9282EF2323540124FF9281EF23540124FF9280D284D285C284EF54012485
:20045600FF9283EF03540124FF9282EF03035401FE24FF9281EFA2E3E433FF24FF9280D2E5
:200476008400C2849000321203B6C28522E582FFC4540124FF9283EFA2E5E43324FF92822B
:20049600EF2323540124FF9281EF23540124FF9280D284C285C284EF540124FF9283EF0399
:2004B600540124FF9282EF03035401FE24FF9281EFA2E3E433FF24FF9280D28400C2849031
:2004D60000320203B675820C020483E582FF600E8F82120483904CAE75F0800205007582A2
:2004F600011204839006400203B6AD82AE83AFF07C008D828E838FF0124C20FB6055BC10A7
:20051600005050BB80005025EB24E050200CEC601C8B820DBD00010EC007C006C005C004A6
:20053600120428D004D005D006D00780C58D828E838FF0124C20FBA3AD82AE838B82C007DD
:20055600C006C005C004120483D004D005D006D007809F22C286903A981203B675801C0080
:20057600C284900FA01203B6D28400C2849000A01203B6D28400C2849000A01203B67580F2
:200596001400C2849003E81203B6D28400C2840075801100C2849000281203B67580100035
:2005B600C2840075801300C2849000281203B675801000C2840075801600C28490002812A8
:2005D60003B675801000C2840075801800C2849003E80203B6AF82E5322405400302067D3F
:2005F600AD307E00757D0A8E7E8D828E83C007C006C005124C72AB82D005D00674302BF5A4
:2006160033757D0A757E008D828E83124C3CAD8274302DF534AD317E00757D0A8E7E8D824C
:200636008E83C006C005124C72AB82D005D00674302BF535757D0A757E008D828E83124CFA
:200656003CAD82D00774302DF5367537008F82120483852D82852E83852FF012050090003B
:200676003375F040020500AD307E00757D0A8E7E8D828E83C007C006C005124C72AB82D0E3
:2006960005D00674302BF538757D0A757E008D828E83124C3CAD82D00774302DF53930018E
:2006B600067D3A7E0080047D207E008D3AAD317E00757D0A8E7E8D828E83C007C006C005AD
:2006D600124C72AB82D005D00674302BF53B757D0A757E008D828E83124C3CAD82D007743A
:2006F600302DF53C3001067D3A7E0080047D207E008D3DAD327E00757D0A8E7E8D828E83FC
:20071600C007C006C005124C72AB82D005D00674302BF53E757D0A757E008D828E83124C5A
:200736003CAD82D00774302DF53F7540008F82120483852D82852E83852FF012050074E87C
:0E0756002530400990003875F0400205002261
:114CAE002020202020202020202020202020202000F5
:06000000020049020ABAE9
:03000B00020D43A0
:0100130032BA
:01001B0032B2
:03002300021B3885
:03002B00024A2D59
:01003300329A
:03003B00020B0AAB
:03004300024A1D51
:0300A20002004613
:03004600023ACBB0
:20076400E54875F006A4FFAD477E00757D0A8E7E8D828E83C007124C72AD82D007ED2FF5F2
:20078400657E017D0190F008E493FCC3ED9C400302082EED90F00893FC8D030BEB3395E0FF
:2007A400FAEB2408F582EA34F0F583E493F9C3EC99E433F97C0009B900010CED90F008930C
:2007C400F8C3E56598E4337F0029F9EF3CFCEB2408F582EA34F0F583E493FFC3E5659FE47F
:2007E400337B0029F582EB3CF583757D028B7EC006C005124C3CE5828583F0D005D0064597
:20080400F060218E047F008C828F83A3757D028F7EC006124C3CAC82AF83D006EC4F24FF9A
:2008240092A180060D8D0602078990F008E493FFEEB50702800122EE90F00893FF90F009EB
:20084400E493FDC3EF9DE433FF7D000FBF00010DEE90F00893FCC3E5659CE4337B002FFFF4
:20086400EB3DFD90F009E493FCC3E5659CE4337B002FF582EB3DF583757D028B7EC00612FD
:200884004C3CE5828583F0D00645F060197F008E828F83A3757D028F7E124C3CAE82AF83A8
:2008A400EE4F24FF92A1227880B60002800E7880B6010280447880B6024880287881E6B598
:2008C40048077882E6B5470122AF487881A607AE477882A6068E7C8F82124ADD75415A78B2
:2008E4008076022230920BD2C27880A2C2E433F68007AF411541EF700920920678807600B5
:20090400C2C22220021590F000E493600E90F01EE493FF24E84004E55B60047582002290E0
:2009240000C4E0FFE060167557019000C3E060068F067F0080047E007F008E8222AF53EF9C
:2009440024C7FDE43400FE8D828E83E070030209F4EF244DF9E7FEB5470CEF244BF9E7FDA2
:20096400B549030209F49000C3E07079EF244BF987058D7D757E0090003CC007C006124BC1
:200984008DE5828583F0D00624D0FC740235F0FD7B00EE2CFCEB3DFD85497D8B7E90003C33
:2009A400C005C004124B8DAB82AE83D004D005ECC39BFCED9EFDAB477E00ECC39BF582EDCD
:2009C4009EF583757DD0757E02124C3CAD82AE83D007C374689D74818EF063F08095F0402E
:2009E400047E0080027E018E578F06EE04F582228F067401C39EFFB55302800302094375B1
:200A0400820022900200120246854D289003FE12022B854B289003FF12022B854E28900321
:200A2400FC12022B854C289003FD02022B75FA0075EA00754FA875506175DA49D2DE2253A2
:200A44008E7F758900758A24758CFAC28DD28CD2A92243C110B21AA21A9287D218E55E60DD
:200A640002155EE560600215607402B55B01220546E54624C4503E754600E5426006D543EC
:200A840003754200D2190547E54724C45027C2037547000548E54824E8500F788176187574
:200AA4004800E55160021551C2040549E54924F4500375490022C027C0E0C0F0C082C083A3
:200AC400C007C006C005C004C003C002C001C000C0D075D00843C1109000C674FAF0C22E61
:200AE40075D000120A5675D008D0D0D000D001D002D003D004D005D006D007D083D082D03D
:200B0400F0D0E0D02732C027C0E0C0F0C082C083C007C006C005C004C003C002C001C00030
:200B2400C0D075D00843C11010D803020D26854FEA8550FA74A8254FF54F74613550F550A0
:200B4400E5537003020C1E30B60320B70D301105D213020C1ED211020C1E201503020C122F
:200B6400E553FF14FE3395E0FDEE24C7F582ED3400F583741EF09000C3E0FEE06008EE149D
:200B84009000C3F0806BE5576032EF14244DF9870F0FA70FEF24C45023E55314244DF87618
:200BA40000E55314244BF9870F0FA70FEF24F45040E553FF14244BF876008035E5577031D1
:200BC400E55314244DF9870F1FA70FEF24C35021E55314244DF8763BE55314244BF9870FF9
:200BE4001FA70FEF24F35009E553FF14244BF8760BC213C211C21575D00012090775D00857
:200C040085825375D000120A0775D008800C301304D21580051011028000301B0630B503A6
:200C2400755802301B0330B5047F0080027F01EF24FF921F201E0330B5047F0080027F01BB
:200C4400EF24FF921B201C0A201F03201B047F0080027F01EF24FF921CA2B5921E3020066C
:200C640030B30375590230200330B3047F0080027F01EF24FF922420230330B3047F00800B
:200C8400027F01EF24FF922020210A2024032020047F0080027F01EF24FF9221A2B39223E4
:200CA40030250630B403755A0230250330B4047F0080027F01EF24FF922920280330B4045C
:200CC4007F0080027F01EF24FF922520260A2029032025047F0080027F01EF24FF9226A2F4
:200CE400B492289001B9E014F0E070089001B9740EF0B22A9000C6E0FFE0600EEF1490004E
:200D0400C6F09001BA741CF080189001BAE014F0E0700F9001BA741CF075D000120A567531
:200D2400D008D0D0D000D001D002D003D004D005D006D007D083D082D0F0D0E0D02732C09D
:200D4400E0C082C083C0D075D01043C110E55360517401B5530474018001E424FF92C47400
:200D640002B5530474018001E424FF92C3E5A0540FFFE552904CCA934FF5A0E55760067EB4
:200D8400017F0080047EFF7FFFAF52EE2FF55224F7500575520780137408B5520E755200C2
:200DA4008009C2C3A2C392C453A00FD0D0D083D082D0E032AD82AE83AFF0AC678C5F856655
:200DC400F0ECA4240AF560C22BAB66302B03020ED4E5607003020ED443C110758280C007DE
:200DE400C006C005C004C003120483856882856983856AF0120500D003D004D005D006D04C
:200E040007301732752D4F752E50752F80854830854731854632A21A92017582C0C007C0C2
:200E240006C005C004C0031205EBD003D004D005D006D007806990F003E4937032752D57B3
:200E4400752E50752F80854830854731854632A21A92017582C0C007C006C005C004C003A1
:200E64001205EBD003D004D005D006D0078030752D5F752E50752F808548308547318546B6
:200E840032A21A92017582C0C007C006C005C004C0031205EBD003D004D005D006D007E52D
:200EA4005E6003020DCF8B021BEA60248C5E8C5F8D828E838FF0C007C006C005C004C0032C
:200EC4001202E2D003D004D005D006D007020DCF7582801204E1A22B22900001E060209033
:200EE4000004E0701A756869756950756A8075660375670190506775F080120DB8C322907A
:200F0400507A75F0801202E23032067EBF7F4C80047E127FF07D808E828F838DF01202E2A3
:200F240090508475F0801202E29000051203D0D322900001E4F0C20D75610775689B756998
:200F440050756A8075660F75670190508775F080120DB8756100900001E024FF2285826BF6
:200F640085836C85F06D9001337420F0900134744BF0900135743DF0AB4B7C00757D0A8CFA
:200F84007E8B828C83124C72AB8274302B900136F0AB4B7C00757D0A8C7E8B828C83124C3E
:200FA4003CAB8274302B900137F0900138743AF0AB4D7C00757D0A8C7E8B828C83124C7270
:200FC400AB8274302B900139F0AB4D7C00757D0A8C7E8B828C83124C3CAB8274302B90019A
:200FE4003AF090013B742CF0AB4C7C00757D0A8C7E8B828C83124C72AB8274302B90013C39
:20100400F0AB4C7C00757D0A8C7E8B828C83124C3CAB8274302B90013DF090013E743AF086
:20102400AB4E7C00757D0A8C7E8B828C83124C72AB8274302B90013FF0AB4E7C00757D0A18
:201044008C7E8B828C83124C3CAB8274302B900140F0900141E4F09001427420F09001433E
:201064007454F0900144743DF0AB487C00757D0A8C7E8B828C83C004C003124C72AA82D05A
:2010840003D00474302A900145F0757D0A757E008B828C83124C3CAE8274302E900146F073
:2010A400900147743AF0AE477F00757D0A8F7E8E828F83C007C006124C72AC82D006D007DF
:2010C40074302C900148F0757D0A757E008E828F83124C3CAE8274302E900149F090014A21
:2010E4007420F090014B7447F090014C7450F090014D7453F090014E743DF0A217E433FF6C
:2011040090F003E4932F243090014FF0900150E4F0787F867DF57E90001C124B8D757D00D4
:20112400757E01124C72AE829001517420F09001527444F09001537448F0900154743DF0B0
:2011440090F000E4932430900155F09001567420F09001577442F090015804F09001597436
:201164003DF090F002E493243090015AF090015B7420F090015C744DF090015D7431F090F5
:20118400015E743DF09000C7E060067D317F0080047D307F0090015FEDF09001607420F08F
:2011A400900161744DF09001627432F0900163743DF09000C8E060067D317F0080047D306E
:2011C4007F00900164EDF09001657420F09001667458F09001677447F0900168743DF090C0
:2011E40000C6E060067D317F0080047D307F00900169EDF090016A7420F090016B7452F0FA
:2012040090016C04F090016D743DF0AF5174302F90016EF090016F742FF090F004E49324C6
:2012240030900170F09001717420F09001727454F09001737452F0900174743DF090F00563
:20124400E493FF7D00757D0A8D7E8F828D83C006124C72AD8274302D900175F090F005E47A
:2012640093FF7D00757D0A8D7E8F828D83124C3CAD82D00674302D900176F0900177742030
:20128400F09001787444F090017904F090017A744EF090017B743DF0A2A1E4332430900102
:2012A4007CF090017D7420F090017E7456F090017F744FF0900180744CF0900181743DF02C
:2012C4007F00757D0A8F7E8E828F83C007C006124C72AC82D006D00774302C900182F075E0
:2012E4007D0A757E008E828F83124C3CAE8274302E900183F09001847420F0900185744D3E
:20130400F09001867450F09001877433F0900188743DF090F011E4932430900189F03033DC
:20132400067E207F0080047E007F0090018AEEF090018B7444F090018C7454F090018D74E1
:201344003DF090F01DE493243090018EF090018FE4F004256BFDE4356CFEAF6D8D828E83A1
:201364008FF0124C20FCBC2A028011C007C006C005120F35D005D006D0078005900001E4D3
:20138400F0A2339232C007C006C005120EDDD005D006D007400122904D2275F080C007C021
:2013A40006C0051202E290013375F0001202E290014275F0001202E290015175F0001202C0
:2013C400E2D005D006D00790F01DE493FCBC0200502130331E9050AC75F080C007C006C027
:2013E400051202E290F01275F0801202E2D005D006D0078D828E838FF0124C20FDBD2A02FC
:20140400803B900001E060359050AE75F0801202E290000175F0001202E230330F900005AB
:20142400E070099050B975F0801202E2900005E4F0900004F0900003F0900002F0856B8277
:20144400856C83856DF01202E27401256BFDE4356CFEAF6D8D828E838FF0124C20FDBD2A9A
:201464000990506775F0800202E27568D3756950756A8075663275670190506775F08002F8
:201484000DB8AD82AE83AFF09001907454F0900191743DF0AB487C00757D0A8C7E8B828CDA
:2014A40083C007C006C005C004C003124C72A982D003D004743029900192F0757D0A757E5B
:2014C400008B828C83124C3CAB8274302B900193F0900194743AF0AB477C00757D0A8C7E0B
:2014E4008B828C83C004C003124C72A982D003D004743029900195F0757D0A757E008B82C4
:201504008C83124C3CAB8274302B900196F09001977420F09001987447F09001997450F0AD
:2015240090019A7453F090019B743DF0A217E433FC90F003E4932C243090019CF090019D67
:201544007420F090019E7444F090019F04F09001A0744EF09001A1743DF0A2A1E4332430A4
:201564009001A2F09001A3E4F09001A4740DF09001A5744DF09001A6744FF09001A77444D5
:20158400F09001A804F09001A9744EF09001AA743DF090F008E49324309001ABF09001ACA6
:2015A400E4F0A2349232120EDDD005D006D00740012290019075F000C007C006C0051202EB
:2015C400E29001A475F0001202E2D005D006D00790F008E49370030217B99050E475F08026
:2015E400C007C006C0051202E290F008E493FC90F00893FB7A00757D3C8A7E8B828A83C004
:2016040004124C72AA82D00474302A9001A5F0EC90F00893FB7A00757D068A7E8B828A8368
:20162400C004124C72757D0A757E00124C3CAA82D00474302A9001A6F09001A7743AF0ECD2
:2016440090F00893FC7B00757D068B7E8C828B83124C3CAB8274302B9001A8F09001A9746A
:2016640030F09001AA7420F09001AB742DF09001A475F0001202E29001A47420F090F009E8
:20168400E493FC7B00757D3C8B7E8C828B83124C72AB8274302B9001A5F090F009E493FC17
:2016A4007B00757D068B7E8C828B83124C72757D0A757E00124C3CAB8274302B9001A6F012
:2016C40090F009E493FC7B00757D068B7E8C828B83124C3CAB8274302B9001A8F09001AA78
:2016E400E4F09001A475F0001202E2D005D006D0077C0290F008E493FBC3EC9B40030217E2
:20170400CEEC90F00893FB7A00757D3C8A7E8B828A83C007C006C005C004124C72AA82D049
:201724000474302A9001A5F0EC90F00893FB7A00757D068A7E8B828A83C004124C72757D91
:201744000A757E00124C3CAA82D00474302A9001A6F0EC90F00893FB7A00757D068A7E8BF2
:20176400828A83C004124C3CAA82D004D005D006D00774302A9001A8F08C02EA30E00D90DA
:2017840001A47420F09001AAE4F0800C9001A4740DF09001AA7420F09001A475F000C007BB
:2017A400C006C005C0041202E2D004D005D006D0070C0216F79050F175F080C007C006C06C
:2017C400051202E2D005D006D0078D828E838FF01202E2756806756951756A807566327500
:2017E400670190506775F080020DB8900001E4F0D232120EDD400122904D3375F0801202B8
:20180400E2756817756951756A8075663275670190506775F080020DB87561007568327529
:201824006951756A8075660F75670290512875F080120DB850637402B5625E90011DE024AE
:20184400D075F00AA4FF90011EE02F24D0F548AE487F00757D0C8F7E8E828F83124C3CAEC9
:20186400828E49900120E024D075F00AA4FF900121E02F24D0F547900123E024D075F00A8C
:20188400A4FF900124E02F24D0F54685471E85461F8548821201C5D322C3227F007568225B
:2018A40075694D756A8075660F75670190514375F080C007120DB8D0074003021AD8756841
:2018C40051756951756A8075660F75670190514775F080C007120DB8D0074003021AD87530
:2018E400686D756951756A8075660F75670190516275F080C007120DB8D00790F003E49323
:201904007003021AD8756889756951756A8075660F75670190517E75F080C007120DB8D0EF
:20192400074003021AD87568A5756951756A8075660F75670190519A75F080C007120DB890
:20194400D0074003021AD87561067568C2756951756A8075660F7567029051B775F080C067
:2019640007120DB8D0074003021AD87401B562028003021AD87E007D00ED2414F582E434C3
:2019840001F5830DE0FCBC2C060EBE0300500ABD0B00500543C11080E0EE24FD4003021ACB
:2019A400D88D060EEE3395E0FCEE2414F582EC3401F583E0FEBE2C15ED04FEED2414F5827A
:2019C400E43401F583E0FC24D0F5488029ED04FCED2414F582E43401F583E024D075F00A5F
:2019E400A4FDEC04FEEC2414F582E43401F583E0FC24D02DF5480E8E050DED3395E0FCEDC2
:201A04002414F582EC3401F583E0FDBD2C15EE04FDEE2414F582E43401F583E0FC24D0F5BD
:201A2400478029EE04FCEE2414F582E43401F583E024D075F00AA4FEEC04FDEC2414F58229
:201A4400E43401F583E0FC24D02EF547ED04FEFD0DED3395E0FCED2414F582EC3401F583F8
:201A6400E0FDBD2C12EE2414F582E43401F583E0FD24D0F5468026EE04FDEE2414F582E43A
:201A84003401F583E024D075F00AA4FEED2414F582E43401F583E0FD24D02EF546AD487ED6
:201AA4000074072DFDE43EFEC374179D74808EF063F08095F05007E54824EFFE8006AD4898
:201AC40074072DFE8E4885471E85461F8548821201C57F01EF24FF92177561002220A00296
:201AE400C3227568DF756951756A8075660F7567029051D475F080120DB85036756803759F
:201B04006952756A8075660F7567019051F075F080120DB8501C756828756952756A8075DE
:201B2400660F75670190521475F080120DB85002D322C322C027C0E0C0F0C082C083C007EE
:201B4400C006C005C004C003C002C001C000C0D075D0102098030229EA43C110855F5EE53C
:201B6400632405FEE43401FF8E828F83E599F0E56124F850030229DDE561240B83F582E51E
:201B840061240C83F583E4739C7E7EBDDD24AC8B1B252525292723288E828F83E0FDBD22CE
:201BA400028003021D61AC637D00740C2CF582E43DF583757D0D8D7EC017C016C015C01474
:201BC40075D000124C3C75D010AA82AB83D014D015D016D017EA2405F582EB3401F583E0DB
:201BE400FBBB20028003021D61740B2CF582E43DF583757D0D757E00C017C016C015C01403
:201C040075D000124C3C75D010AA82AB83D014D015D016D017EA2405F582EB3401F583E09A
:201C2400FBBB3A028003021D61740A2CF582E43DF583757D0D757E00C017C016C015C014A9
:201C440075D000124C3C75D010AA82AB83D014D015D016D017EA2405F582EB3401F583E05A
:201C6400FBBB4B028003021D6174092CF582E43DF583757D0D757E00C017C016C015C01459
:201C840075D000124C3C75D010AA82AB83D014D015D016D017EA2405F582EB3401F583E01A
:201CA400FBBB4C028003021D6174082CF582E43DF583757D0D757E00C017C016C015C01419
:201CC40075D000124C3C75D010AA82AB83D014D015D016D017EA2405F582EB3401F583E0DA
:201CE400FBBB43028003021D6174072CF582E43DF583757D0D757E00C017C016C015C014E3
:201D040075D000124C3C75D010AA82AB83D014D015D016D017EA2405F582EB3401F583E099
:201D2400FBBB433974062CF582E43DF583757D0D757E00C017C01675D000124C3C75D010E4
:201D4400AC82AD83D016D017EC2405F582ED3401F583E0FDBD2B067561020229DD8E828FE4
:201D640083E0FDBD47028003021E32AC637D00740C2CF582E43DF583757D0D8D7EC017C03B
:201D840016C015C01475D000124C3C75D010AA82AB83D014D015D016D017EA2405F582EBE7
:201DA4003401F583E0FBBB4E028003021E32740B2CF582E43DF583757D0D757E00C017C073
:201DC40016C015C01475D000124C3C75D010AA82AB83D014D015D016D017EA2405F582EBA7
:201DE4003401F583E0FBBB4945740A2CF582E43DF583757D0D757E00C017C01675D000125E
:201E04004C3C75D010AC82AD83D016D017EC2405F582ED3401F583E0FDBD521290523A7501
:201E2400F08075D0001202E275D0100229DD8E828F83E0FDBD3A028003021F83AC637D00EB
:201E4400740C2CF582E43DF583757D0D8D7EC017C016C015C01475D000124C3C75D010AA84
:201E640082AB83D014D015D016D017EA2405F582EB3401F583E0FBBB49028003021F83747A
:201E84000B2CF582E43DF583757D0D757E00C017C016C015C01475D000124C3C75D010AAD1
:201EA40082AB83D014D015D016D017EA2405F582EB3401F583E0FBBB54028003021F83742F
:201EC4000A2CF582E43DF583757D0D757E00C017C016C015C01475D000124C3C75D010AA92
:201EE40082AB83D014D015D016D017EA2405F582EB3401F583E0FBBB4D028003021F8374F6
:201F0400092CF582E43DF583757D0D757E00C017C016C015C01475D000124C3C75D010AA52
:201F240082AB83D014D015D016D017EA2405F582EB3401F583E0FBBB434574082CF582E414
:201F44003DF583757D0D757E00C017C01675D000124C3C75D010AC82AD83D016D017EC24BA
:201F640005F582ED3401F583E0FDBD2B1290523F75F08075D0001202E275D0100229DD8E44
:201F8400828F83E0FDBD20028003022100AC637D00740C2CF582E43DF583757D0D8D7EC035
:201FA40017C016C015C01475D000124C3C75D010AA82AB83D014D015D016D017EA2405F55B
:201FC40082EB3401F583E0FBBB3A028003022100740B2CF582E43DF583757D0D757E00C0FE
:201FE40017C016C015C01475D000124C3C75D010AA82AB83D014D015D016D017EA2405F51B
:2020040082EB3401F583E0FBBB4C028003022100740A2CF582E43DF583757D0D757E00C0AC
:2020240017C016C015C01475D000124C3C75D010AA82AB83D014D015D016D017EA2405F5DA
:2020440082EB3401F583E0FBBB4702800302210074092CF582E43DF583757D0D757E00C072
:2020640017C016C015C01475D000124C3C75D010AA82AB83D014D015D016D017EA2405F59A
:2020840082EB3401F583E0FBBB4D7174082CF582E43DF583757D0D757E00C017C016C015A2
:2020A400C01475D000124C3C75D010AA82AB83D014D015D016D017EA2405F582EB3401F585
:2020C40083E0FBBB433674072CF582E43DF583757D0D757E00C017C01675D000124C3C75C0
:2020E400D010AC82AD83D016D017EC2405F582ED3401F583E0FDBD2B030222848E828F8319
:20210400E0FDBD200280030222CCAC637D00740C2CF582E43DF583757D0D8D7EC017C0168D
:20212400C015C01475D000124C3C75D010AA82AB83D014D015D016D017EA2405F582EB3425
:2021440001F583E0FBBB3A0280030222CC740B2CF582E43DF583757D0D757E00C017C01663
:20216400C015C01475D000124C3C75D010AA82AB83D014D015D016D017EA2405F582EB34E5
:2021840001F583E0FBBB500280030222CC740A2CF582E43DF583757D0D757E00C017C0160E
:2021A400C015C01475D000124C3C75D010AA82AB83D014D015D016D017EA2405F582EB34A5
:2021C40001F583E0FBBB490280030222CC74092CF582E43DF583757D0D757E00C017C016D6
:2021E400C015C01475D000124C3C75D010AA82AB83D014D015D016D017EA2405F582EB3465
:2022040001F583E0FBBB4C0280030222CC74082CF582E43DF583757D0D757E00C017C01693
:20222400C015C01475D000124C3C75D010AA82AB83D014D015D016D017EA2405F582EB3424
:2022440001F583E0FBBB430280030222CC74072CF582E43DF583757D0D757E00C017C0165D
:2022640075D000124C3C75D010AC82AD83D016D017EC2405F582ED3401F583E0FDBD2B48C8
:20228400AC637D0074092CF582E43DF583757D0D8D7E75D000124C3C75D010AC82AD83EC6D
:2022A4002405F582ED3401F583E0FDBD4C03D38001C392064006300C030229DDC20AC20825
:2022C400C2077561030229DD8E828F83E0FDBD4B59AC637D00740C2CF582E43DF583757DB6
:2022E4000D8D7EC017C01675D000124C3C75D010AC82AD83D016D017EC2405F582ED340108
:20230400F583E0FDBD4F23A22CB3922BC22CE54470030229DD75440090521475F08075D08C
:20232400001202E275D0100229DD8E828F83E0FDBD540280030229DDAC637D00740C2CF57C
:2023440082E43DF583757D0D8D7EC015C01475D000124C3C75D010AA82AB83D014D015EA6A
:202364002405F582EB3401F583E0FBBB4F0280030229DD740B2CF582E43DF583757D0D7580
:202384007E0075D000124C3C75D010AC82AD83EC2405F582ED3401F583E0FDBD4E02800396
:2023A4000229DDD22C0229DD8E828F83E0FDBD200280030229DDAC637D00740C2CF582E40F
:2023C4003DF583757D0D8D7EC015C01475D000124C3C75D010AA82AB83D014D015EA240527
:2023E400F582EB3401F583E0FBBB3A0280030229DD740B2CF582E43DF583757D0D757E00C0
:20240400C015C01475D000124C3C75D010AA82AB83D014D015EA2405F582EB3401F583E0B6
:20242400FBBB5A0280030229DD740A2CF582E43DF583757D0D757E00C015C01475D000124F
:202444004C3C75D010AA82AB83D014D015EA2405F582EB3401F583E0FBBB540280030229BC
:20246400DD74092CF582E43DF583757D0D757E00C015C01475D000124C3C75D010AA82AB1C
:2024840083D014D015EA2405F582EB3401F583E0FBBB540280030229DD74082CF582E43D13
:2024A400F583757D0D757E00C015C01475D000124C3C75D010AA82AB83D014D015EA24059B
:2024C400F582EB3401F583E0FBBB550280030229DD74072CF582E43DF583757D0D757E00C8
:2024E400C015C01475D000124C3C75D010AA82AB83D014D015EA2405F582EB3401F583E0D6
:20250400FBBB530280030229DD74062CF582E43DF583757D0D757E00C015C01475D0001279
:202524004C3C75D010AA82AB83D014D015EA2405F582EB3401F583E0FBBB500280030229DF
:20254400DD8C828D83A3A3A3A3A3757D0D757E0075D000124C3C75D010AC82AD83EC2405B4
:20256400F582ED3401F583E0FDBD2A0280030229DD7564007561010229DD740DB5990280EC
:202584001A74E225644014AD640564ED2414F582E43401F583E599F00229DDAD641DED337F
:2025A40095E0FCED2414F582EC3401F583E4F0856162F561D22B0229DD200A03022628E598
:2025C400447018740DB5990280030229DD30060575430205427561050229DD740AB5440B2E
:2025E4007422B599067544000229DD20070EE544904CBF93FDB599028002D20730090F2090
:20260400080EE54490F01293FDB599028002D20805442007030229DD2008030229DD756125
:20262400000229DD3006428E828F83E0FDBD3039AC637D00740C2CF582E43DF583757D0DAA
:202644008D7EC017C01675D000124C3C75D010AC82AD83D016D017EC2405F582ED3401F5BC
:2026640083E0FDBD220302270F8E828F83E0FDBD34028003022714AC637D00740C2CF5827B
:20268400E43DF583757D0D8D7EC015C01475D000124C3C75D010AA82AB83D014D015EA2485
:2026A40005F582EB3401F583E0FBBB3863740B2CF582E43DF583757D0D757E00C015C0147B
:2026C40075D000124C3C75D010AA82AB83D014D015EA2405F582EB3401F583E0FBBB2B308C
:2026E400740A2CF582E43DF583757D0D757E0075D000124C3C75D010AC82AD83EC2405F58E
:2027040082ED3401F583E0FDBD2205D20A754401740DB5990280030229DD7561000229DD08
:20272400300B35743BB599028021740DB59902801A746025444014AD440544ED2401F582C6
:20274400E43400F583E599F00229DD754400C20B756100D20C0229DD8E828F83E0FDBD2C45
:20276400028003022870AC637D00740C2CF582E43DF583757D0D8D7EC015C01475D00012E4
:202784004C3C75D010AA82AB83D014D015EA2405F582EB3401F583E0FBBB4302800302288B
:2027A40070740B2CF582E43DF583757D0D757E00C015C01475D000124C3C75D010AA82AB44
:2027C40083D014D015EA2405F582EB3401F583E0FBBB55028003022870740A2CF582E43D3B
:2027E400F583757D0D757E00C015C01475D000124C3C75D010AA82AB83D014D015EA240558
:20280400F582EB3401F583E0FBBB446074092CF582E43DF583757D0D757E00C015C01475A2
:20282400D000124C3C75D010AA82AB83D014D015EA2405F582EB3401F583E0FBBB502D7409
:20284400082CF582E43DF583757D0D757E0075D000124C3C75D010AC82AD83EC2405F58220
:20286400ED3401F583E0FDBD2A0280047D0080027D01ED24FF920B740DB5990280030229C7
:20288400DD7561000229DD300D3B7420B59902801A746025444014AD440544ED2401F5822F
:2028A400E43400F583E599F00229DDC20DC20FE5442401F582E43400F583E4F0F544F561B6
:2028C400D22B0229DD8E828F83E0FEBE3D0280030229DDAE637F00740C2EF582E43FF58317
:2028E400757D0D8F7EC017C01675D000124C3C75D010AC82AD83D016D017EC2405F582ED43
:202904003401F583E0FDBD680280030229DD740B2EF582E43FF583757D0D757E00C017C02F
:202924001675D000124C3C75D010AC82AD83D016D017EC2405F582ED3401F583E0FDBD6EF0
:202944000280030229DD740A2EF582E43FF583757D0D757E00C017C01675D000124C3C7535
:20296400D010AC82AD83D016D017EC2405F582ED3401F583E0FDBD696074092EF582E43F7A
:20298400F583757D0D757E00C017C01675D000124C3C75D010AC82AD83D016D017EC2405A8
:2029A400F582ED3401F583E0FDBD682D74082EF582E43FF583757D0D757E0075D000124C82
:2029C4003C75D010AE82AF83EE2405F582EF3401F583E0FFBF6302D20D0563E56324F350DD
:2029E40003756300C298D0D0D000D001D002D003D004D005D006D007D083D082D0F0D0E04D
:202A0400D02732C20E900001E0FFBF3F028008900002E0FFBF3F062007030217EF90000288
:202A2400E0FFBF410302318ABF4303022F60BF4503023217BF4802803EBF50030235F9BF43
:202A44005303023022BF540302372DBF610302318ABF6303022F60BF6503023217BF68021B
:202A64008015BF70030235F9BF7303023022BF740302372D023A81900004E0FFBF2B02809A
:202A840003022C3E900005E0FEC3742F9EE433FD7003022BC9BE33004003022BC99000060F
:202AA400E0FC24D04003022BC9BC3A004003022BC9900007E0FB24D04003022BC9BB36004A
:202AC4004003022BC9900008E0F57224D04003022BC974C625725003022BC990000AE0F524
:202AE4006E24D04003022BC974CD256E5003022BC990000BE0F56F24D04003022BC974C6D4
:202B0400256F5003022BC990000CE0F57024D04003022BC974CA25705003022BC990000D0D
:202B2400E0F57124D04003022BC974C625715003022BC98E0274022AF573AA6EC39A75F093
:202B44000AA42404F57325482CAC6FC39CFAAC7074062CC39B75F00AA42571AB72C39BFCE6
:202B64008A74757500AA477B00743C2AF576E43BF5778C027B00C3E5769AE57764808BF0B1
:202B840063F08095F0E433FA7B00E574C39AF582E5759BF583757D0C8B7EC004124C3CAAA4
:202BA40082D0048A4BAB4774782BC39CFB7C00757D3C8C7E8B828C83124C3CAB828B4D1202
:202BC4000A07022F03ED606DBE36005068900006E0FD24D0505FBD3A00505AEE24D075F048
:202BE4000AA42D24D0FEAD4B740C2DFDC3E54D9EE433FCEDC39CFD7C00757D0C8C7E8D82E0
:202C04008C83C006124C3CAC82D0068C4BAC4D7D00743C2CFCE43DFD7B00ECC39EF582EDCE
:202C24009BF583757D3C8B7E124C3CAD828D4D120A07022F03D20E022F03BF2D4690000571
:202C4400E0FE24D05038BE36005033900006E0FD24D0502ABD3A005025EE24D075F00AA45D
:202C6400AC4D2C2D24D0F54D24C4500CE54B04F54BE54DFE24C4F54D120A07022F03D20E7F
:202C8400022F03900005E0FEBE4E028003BE6E21300703023AA712025E9000A37401F01272
:202CA400029978807600788176187882763C022F03BE46028003BE6616300703023AA712AE
:202CC400025E9000A3E4F0120299C2C2022F03BF2C028003022D9BBE6702800DBE470280AF
:202CE40008BE61028003BE4116C2C27880760012181D9217788176187882763C022F03EED8
:202D040024D04003022D96BE33004003022D96900006E0FD24D0507ABD3A00507590000736
:202D2400E0FC24D0506CBC36005067900008E0FB24D0505EBB3A0050598E02EA24D075F0D4
:202D44000AA4FA2D24D0FDBD18005041C2C2788076008D48EC24D075F00AA42B24D0F5472E
:202D6400AC487D00757D0C8D7E8C828D83124C3CAC828C4985471E85461F8548821201C51F
:202D8400C217788176187882763C022F03D20E022F03D20E022F03EF24D04003022F01BFB0
:202DA40033004003022F01EE24D04003022F01BE3A004003022F01900006E0FD24D04003F9
:202DC400022F01BD36004003022F01900007E0FD24D04003022F01BD3A004003022F017D8F
:202DE40000EF24D0F57DED34FFF57E90000AC006124B8DAD82AF83D0067C00EE2DFDEC3FA7
:202E0400FFED24D0F582EF34FFF583757D0C8C7E124C3CAE828E4B900006E024D075F00A39
:202E2400A4FF900007E02F24D0F54D120A07900009E0FFBF6702800DBF47028008BF61020D
:202E44008003BF412A90F003E4937003022F0312181D921790F011E4937003022F03C2C2FD
:202E640078807600788176187882763C022F03EF24D04003022F03BF33004003022F039026
:202E8400000AE0FE24D05077BE3A00507290000BE0FD24D05069BD3600506490000CE0FC8D
:202EA40024D0505BBC3A005056EF24D075F00AA42E24D0FFBF18005040C2C2788076008FD4
:202EC40048ED24D075F00AA42C24D0F547AE487F00757D0C8F7E8E828F83124C3CAE828E5C
:202EE4004985471E85461F8548821201C5788176187882763CC2178006D20E8002D20E3086
:202F04000E2A30080ED23390524E75F080120F61023AA7D23390526175F080120F61C2330C
:202F240090524E75F080120F61023AA712090785825330080ED23390528775F080120F617C
:202F4400023AA7D2339052A175F080120F61C23390528775F080120F61023AA7900005E07E
:202F6400FFBF65028003BF452A30080ED2349052CE75F080121486023AA7D2349052E675C4
:202F8400F080121486C2349052CE75F080121486023AA7BF6E028003BF4E0E12025E900028
:202FA400A57401F0120299804BBF66028003BF460D12025E9000A5E4F01202998036900061
:202FC40003E06030900004E0602A30080ED23390524E75F080120F61023AA7D2339052616F
:202FE40075F080120F61C23390524E75F080120F61023AA730080ED23390531175F08012C1
:203004000F61023AA7D23390532575F080120F61C23390531175F080120F61023AA7900022
:2030240005E0FFBF7902800DBF59028008BF44028003BF644130080DD23390534C75F080F5
:20304400120F618016D23390536975F080120F61C23390534C75F080120F61C2AFC2A075C9
:20306400280090000612022BD2A3900FA01203D075C760023AA7BF67028008BF47028003FC
:2030840002312D900009E0FE24D05073BE3A00506E12025E900009E024D0FE9000A7F08E56
:2030A4005190000BE0FE24D05028BE3300502390000CE0FD24D0501ABD3A005015EE24D05D
:2030C40075F00AA42D24D0FEBE180050059000A8EEF012029930080ED23390539975F08020
:2030E400120F61023AA7D2339053B875F080120F61C23390539975F080120F61023AA73075
:20310400080ED2339053EA75F080120F61023AA7D23390540B75F080120F61C2339053EA5C
:2031240075F080120F61023AA7BF69028003BF492B30080DD23390543F75F080120F61800D
:2031440016D23390546175F080120F61C23390543F75F080120F61C2A0023AA730080ED2C8
:203164003390549675F080120F61023AA7D2339054AF75F080120F61C23390549675F08001
:20318400120F61023AA7900005E0FF24CF505ABF3A005055900007E0FF24CF504CBF3A0019
:2031A400504712025E900005E024D0C454F0FF900007E024D042079000AAEFF012029930E8
:2031C400080ED2339054DB75F080120F61023AA7D23390550175F080120F61C2339054DBC1
:2031E40075F080120F61023AA730080ED23390553A75F080120F61023AA7D2339055577517
:20320400F080120F61C23390553A75F080120F61023AA7900005E0FFBF58028003BF7835DE
:2032240012025E9000ABE4F012029930080ED23490558775F080121486023AA7D234905545
:20324400A275F080121486C23490558775F080121486023AA712025E1202999000ABE4F033
:203264009001AD7404F09001ADE0FF2401F582E43400F583E0FE24D0400302357FBE33009F
:20328400400302357F8F057F0074012DFBE43FFCEB2401F582EC3400F583E0FC24D0400330
:2032A40002357F74012DFBE43FFCEB2401F582EC3400F583E0FCBC3A00400302357F740238
:2032C4002DFBE43FFCEB2401F582EC3400F583E0FC24D0400302357F74022DFBE43FFCEB13
:2032E4002401F582EC3400F583E0FCBC3600400302357F74032DFBE43FFCEB2401F582EC9E
:203304003400F583E0FC24D0400302357F74032DFBE43FFCEB2401F582EC3400F583E0FC7B
:20332400BC3A00400302357F74052DFBE43FFCEB2401F582EC3400F583E0FC24D0400302A6
:20334400357F74052DFBE43FFCEB2401F582EC3400F583E0FCBC3300400302357F74062D6B
:20336400FBE43FFCEB2401F582EC3400F583E0FC24D0400302357F74062DFBE43FFCEB2477
:2033840001F582EC3400F583E0FCBC3A00400302357F74072DFBE43FFCEB2401F582EC34E5
:2033A40000F583E0FC24D0400302357F74072DFBE43FFCEB2401F582EC3400F583E0FCBC4F
:2033C4003600400302357F74082DFBE43FFCEB2401F582EC3400F583E0FC24D0400302358E
:2033E4007F74082DFBE43FFCEB2401F582EC3400F583E0FCBC3A00400302357F8E7D757E9F
:203404000090000AC007C006C005124B8DAB82AC83D005D006D007C00674012DFAE43FFE71
:20342400EA2401F582EE3400F583E07A002BFBEA3CFCC3EB9428EC64809482D0064003025B
:20344400357FC00674052DFBE43FFCEB2401F582EC3400F583E0FC8C7D757E0090000AC0DD
:2034640007C006C005124B8DAB82AC83D005D006D00774062DFAE43FFEEA2401F582EE3484
:2034840000F583E07A002BFBEA3CFCC3EB9428EC64809482D006400302357FED24FCF5826B
:2034A400EF34FFF583757D05757E00C007C006C005124C72AB82D005D006D00774092BFC0F
:2034C4003395E0FAEC24A3F574EA3400F575EE24D075F00AA4F57674012DFCE43FFEEC2473
:2034E40001F582EE3400F583E0257624D075F006A4FE74022DFAE43FFCEA2401F582EC34D8
:2035040000F583E02E24D0857482857583F0740A2BFB3395E0FEEB24A3FBEE3400FE7405B5
:203524002DFAE43FFCEA2401F582EC3400F583E024D075F00AA4F57674062DFAE43FFCEA27
:203544002401F582EC3400F583E0257624D075F006A4FC74072DFDE43FFFED2401F582EF7A
:203564003400F583E02C24D08B828E83F09000ABE0FF0F0F9000ABEFF080069001AD744BB8
:20358400F09001ADE0240AF0E0FFBF4B00500302326A9000ABE06033900000120246120275
:2035A4009930080ED2349055D075F080121486023AA7D2349055F075F080121486C2349007
:2035C40055D075F080121486023AA730080ED23390562375F080120F61023AA7D2339056C5
:2035E4004575F080120F61C23390562375F080120F61023AA7300703023AA790F011E493AE
:20360400700ED23390567A75F080120F61023AA7900006E0FFBF54028003BF7410C2C2D2D3
:203624003390568F75F080120F61023AA7BF4E028003BF6E2F90F011E493FEBE01181202B5
:203644005E9000B47402F012029978807600788176187882763CD23390569975F080120F86
:2036640061023AA7BF46028003BF662590F011E493FEBE020EC2C212025E9000B47401F0BB
:20368400120299D2339056A275F080120F61023AA7900005E0FE24D0400302371FBE3300AF
:2036A4005079EF24D05074BF3A00506F900007E0FD24D05066BD36005061900008E0FC2484
:2036C400D05058BC3A005053209242D2C2EE24D075F00AA42F24D0F582ED24D075F00AA4CA
:2036E4002C24D0F57C124ADD9005DC1203D030920ED2339056AB75F080120F61023AA7D224
:20370400339056C075F080120F61023AA7D2339056E275F080120F61023AA7D23390570877
:2037240075F080120F61023AA7300703023A76900004E0FFBF47028003BF671D12025E900C
:2037440000A67401F012029912189FD23390571F75F080120F61023A76BF41028003BF611B
:203764001B12025E9000A6E4F0120299C217D23390572875F080120F61023A76BF2B02808F
:20378400030238BC900005E0FEBE380280030238BC900006E0FEBE340280030238BC9000D7
:2037A40007E0FEBE300050030238AEEE24C650030238AE900008E0FEBE300050030238AE45
:2037C400EE24C650030238AE900009E0FEBE300050030238AEEE24C650030238AE90000A85
:2037E400E0FEBE300050030238AEEE24C650030238AE90000BE0FEBE300050030238AEEE1B
:2038040024C650030238AE90000CE0FEBE300050030238AEEE24C650030238AE90000DE04C
:20382400FEBE300050030238AEEE24C650030238AE90000EE0FEBE3000406FEE24C6406AAF
:2038440090000FE0FEBE30004060EE24C6405B12025E9000B5E4F07E018E0574122DFD3366
:2038640095E0FCED24A3FDEC3400FC8E027B0074062AFAE43BFBEA2401F582EB3400F58326
:20388400E08D828C83F00EBE0A0040CD9000C0E0FEBE02059000C0E4F0120299D2339057A3
:2038A4003175F080120F61023A76D23390574F75F080120F61023A76BF300280030239D6E1
:2038C400900005E0FEBE300050030239C8EE24C650030239C8900006E0FEBE300050030248
:2038E40039C8EE24C650030239C8900007E0FEBE300050030239C8EE24C650030239C8901E
:203904000008E0FEBE300050030239C8EE24C650030239C8900009E0FEBE30005003023958
:20392400C8EE24C650030239C890000AE0FEBE300050030239C8EE24C650030239C8900013
:203944000BE0FEBE300050030239C8EE24C6407490000CE0FEBE3000406AEE24C64065908B
:20396400000DE0FEBE3000405BEE24C6405612025E7E008E0574122DFD3395E0FCED24A3D6
:20398400FDEC3400FC8E027B0074032AFAE43BFBEA2401F582EB3400F583E08D828C83F03F
:2039A4000EBE0A0040CD9000C0E0FEBE02059000C0E4F0120299D23390573175F080120F39
:2039C40061023A76D23390574F75F080120F61023A76BF78028003BF581A12025E9000C0CD
:2039E4007402F0120299D23390577475F080120F61023A7690F01DE493FFBF0224900005AA
:203A0400E0FFBF6E02800DBF4E028008BF66028003BF465ED23390578375F080120F61800D
:203A240051900005E0FFBF4E028003BF6E1912025E9000C07401F0120299D2339057B575FB
:203A4400F080120F61802BBF46028003BF661812025E9000C0E4F0120299D2339057C47596
:203A6400F080120F61800BD2339057D375F080120F6190F01DE493FF139209802630080DF3
:203A8400D2339057F075F080120F618016D23390580375F080120F61C2339057F075F08041
:203AA400120F6143C1107F00EF2401FDE43400FE8D828E83E0600FEF2401F582E43400F5BF
:203AC400830FE4F080E2227F008F788F937594FF8F928F918F957596FF8FB28FB175B3022E
:203AE40075B41C8FCA8FC98FC075B0FF8FA075B881759D088F978FBD75BC83D2ADD2AF90AC
:203B040000C674FAF07542009000C7741EF09000C8F09000A2740AF0755A02755902755897
:203B240002755B05755C01C007120A4312025ED0079000A3E024FE50069000A37401F090B6
:203B440000A5E024FE50059000A5E4F09000A6E024FE50069000A67401F09000A7E024F602
:203B640050069000A77401F09000A8E024E850059000A8E4F09000AAE0FDC4540FFC7B0015
:203B84001CBCFF011BC374089C74808BF063F08095F0500A740F5D4450FD9000AAF0900007
:203BA400AAE0FD53050F7C001DBDFF011CC374089D74808CF063F08095F0500F9000AAE084
:203BC400FD74F05D4401FD9000AAF09001AE7401F09000ABE0FDBD0900502EED20E02A7C24
:203BE40001C3ED9C401E8C0374082BFB3395E0FAEB24A3F582EA3400F583E0FBBB9000500E
:203C0400030C80DD9001AEECF09001AEE0FCC3ED9C40129000AB7402F09000AC7424F0906B
:203C240000AD746CF09001AEE4F09000C0E0FDBD020050479000BFE07041FDBD0A00503643
:203C44008D0474122CFB3395E0FAEB24A3F582EA3400F583E0FBBB3000401B74122CFC33BF
:203C640095E0FBEC24A3F582EB3400F583E0FC24C640030D80C59001AEEDF09001AEE0FD7C
:203C8400BD0A00500B9000BFE4F09000C07402F09000C1E0FD24E750059000C1E4F03092B0
:203CA400079000B4E4F080129000B4E0FD6005ED24FD50069000B47402F09000C2E0FD7C10
:203CC400001DBDFF011CC374039D74808CF063F08095F050069000C27401F0C007120299CA
:203CE400D00790F3FEE493FD24C4401E90F3FFE493FD24F4401490F3FCE493FD24C4400A27
:203D040090F3FDE493FD24F45009C007120A07D007801C90F3FEE493F54D90F3FFE493F5B5
:203D24004B90F3FCE493F54E90F3FDE493F54CD2A2C0071202CAD00790F011E4936013C098
:203D440007124AC7D00778807600788176187882763CD20390F004E493F551C007120A3193
:203D640012056A751847751900751A40751B46751C00751D4090004875F040120135D007B8
:203D8400E54824E8400CE54724C44006E54624C45010751E00751F00758200C0071201C510
:203DA400D007C0071200EED2A8D288751847751900751A40751B46751C00751D409000484B
:203DC40075F040120135D007301C77302174102602806FC221C21C90582975F0801205009E
:203DE40090583A75F0801205007529007582C01203FD755C00102602802774FD255C400B4D
:203E0400AD5C0DEDFC3395E0FD80047C007D008C5CAD5C74312DF5821204287582C0120438
:203E240083101C0280CF900000120246900200120246E55C04F52890001F12022B75C760BC
:203E440080B3C00712189FD007E54824F45007E54824F4FD8002AD488D4990F01DE4931372
:203E6400920975BC8BC007121AE1D0075021D23390584175F080C007120F61D00730090F50
:203E8400C23390584175F080C007120F61D00790F006E4937015755D05C00712025E9000D9
:203EA400A974FFF0120299D0078003755D3C75C16590F3FEE493FDB54D1D90F3FFE493FD38
:203EC400B54B1490F3FCE493FDB54E0B90F3FDE493FDB54C028007C007120A07D007E55D48
:203EE4006004E55B7011755B00E553700AC007120907858253D007201803023FA020A0160B
:203F04009000A2E014F0E0700D75BC83D2A09000A2741EF0D2059000C5E0FDE06023900054
:203F2400C3E0701DED149000C5F0E070149000C37405F09000C5F0C007120907858253D08F
:203F440007E553603CE553FD14FC3395E0FBEC24C7FCEB3400FB8C828B83E060241DED33F0
:203F640095E0FCED24C7FDEC3400FC8D828C83E0FB1B8D828C83EBF0EB7006F553C213C28E
:203F840011E55D600C90F011E4936003209202155DE5586005301F021558C218C0071207B3
:203FA40064D007E55B701790F000E493601090F011E493FDBD0207C0071208ABD00790F0E6
:203FC40004E4936013E551700F90F005E493FDB54806E54724FA4006E54224FD502AE553B4
:203FE400702690F011E493600320921CC2AFC2A0752800900006C00712022BD2A3900FA02E
:204004001203D0D00775C7609000C6E07026202E23D22ED23390586375F080C007120F6189
:20402400D00730090FC23390586375F080C007120F61D0079000C7E07026202F23D22FD206
:204044003390588075F080C007120F61D00730090FC23390588075F080C007120F61D00712
:204064009000C8E07026203023D230D23390589975F080C007120F61D00730090FC23390A1
:20408400589975F080C007120F61D00720035274FB2547404C20170E90F003E4936007C0E4
:2040A4000712189FD007E54824F45007E54824F4FD8002AD488D4990F002E4936021D233AB
:2040C4009058B275F080C007120F61D00730090FC2339058B275F080C007120F61D007D28F
:2040E40003E55B24FA5003024A11E55B75F003A49040F87302410A02444A02468C0249C95F
:2041040002485102428730054975BC8BC205756100C00712189FAC487D00757D0C8D7E8CC8
:20412400828D83124C3CAC828C49121AE1D0075021D2339058C375F080C007120F61D00742
:2041440030090FC2339058C375F080C007120F61D007300C14C007122A0790521475F08039
:204164001202E2D007C20C8045752DE0752E58752F80854B30854D317532FDA21A920175CF
:204184008280C0071205EB752DE0752E58752F80854C30854E317532FDA21A92017582853B
:2041A4001205EB9058E275F080120500D007301722752D4F752E50752F80854830854731F1
:2041C400854632A21A92017582C0C0071205EBD007804990F003E4936022752D5F752E50FF
:2041E400752F80854830854731854632A21A92017582C0C0071205EBD0078020752D5775EC
:204204002E50752F80854830854731854632A21A92017582C0C0071205EBD007E5586003BB
:20422400024A17301103024A17C21C755D3C9000C4E4F09000C3F09000C5F0755B05755C2E
:2042440001F553C2C2788076001021028003024A1730091DD2339058E975F080C007120F0D
:2042640061C2339058FD75F080120F61D007024A17D2339058FD75F080C007120F61D0076F
:20428400024A17101C02801E755D3C055C7404B55C0990F011E4937002055CE55C24FB505F
:2042A40003755C00C22A1026028008755D3C755C00C22A1021030243EC755D3C855C5B758B
:2042C4005C00C007120907858253D007E55B7003024A17758280C007120483E55B75F010C2
:2042E400A424D2FC744C35F0FD7B808C828D838BF0120500D0077401B55B02801A7402B574
:204304005B02805B7403B55B030243AD7404B55B030243C6024A17752DE0752E58752F804B
:20432400854B30854D317532FDA21A92017582C0C0071205EB752DE0752E58752F80854C91
:2043440030854E317532FDA21A92017582C51205EB9058E275F080120500D007024A173044
:2043640017067C4F7D50801F90F003E493600B75795F757A50757B808009757957757A5077
:20438400757B80AC79AD7A8C2D8D2E752F80854830854731854632A21A92017582C01205B1
:2043A400EBAF48854778024A1790591375F080C0071205007529047582C01203FDD007026D
:2043C4004A17752D24752E59752F80753000753100753200A21A92017582C01205EBD2C204
:2043E4007578007F00024A173017067C4F7D50801990F003E49360087A5F7B507E808006E2
:204404007A577B507E808A048B058C2D8D2E752F80854830854731855D32A21A92017582F4
:20442400C0C0071205EBE55C75F010A424D2FD744C35F0FE8D2A8E2B752C807582801204A1
:204444000DD007024A17AE5C0EAC5C7D00757D048D7E8C828D83C007C006124C72AC82D0FA
:2044640006EC2EF5297582C01203FDD007102603024643755D3CE55C24F850030245FEE5AE
:204484005C240B83F582E55C240C83F583E473A3CF10295782BFD64444454545454545E5AC
:2044A4004BFE24F2501D8E047D00757D0A8D7E8C828D83C007124C3CAC82AD83D0078C4B8B
:2044C4000245FE740A2EF54B0245FEE54B24E95006754B140245FEAE4B8E047D00757D0AB2
:2044E4008D7E8C828D83C007C006124C3CAC82AD83D006D007BC090DBD000A8E05ED24F729
:20450400F54B0245FEEE04F54B0245FEE54DFE24CE500A8E05ED24CEF54D0245FE740A2E7A
:20452400F54D0245FEE54D04FE8E4D7D00757D0A8D7E8E828D83C007124C3CE5828583F07D
:20454400D00745F060030245FEE54DFE24F6F54D0245FEE54CFE24F2501D8E047D00757D1F
:204564000A8D7E8C828D83C007124C3CAC82AD83D0078C4C0245FE740A2EF54C807CE54C37
:20458400FE24E95005754C1480708E047D00757D0A8D7E8C828D83C007C006124C3CAC8269
:2045A400AD83D006D007BC090CBD00098E05ED24F7F54C8045EE04F54C803FE54EFE24CECD
:2045C40050098E05ED24CEF54E802F740A2EF54E8028E54E04FE8E4E7D00757D0A8D7E8E60
:2045E400828D83C007124C3CE5828583F0D00745F07007E54EFE24F6F54E752DE0752E58D7
:20460400752F80854B30854D317532FDA21A92017582C0C0071205EB752DE0752E58752FDB
:2046240080854C30854E317532FDA21A92017582C51205EB9058E275F080120500D0071093
:2046440021028009755D3CE55C6002155C101C03024A17755D3C055CE55C24F84003024A9B
:2046640017C0071204DB855B5C755B05AD4B7E00757D0C8E7E8D828E83124C3CAD828D4B15
:20468400120A07D007024A17AE5C74072EFEAC5C7D00757D028D7E8C828D83C007C00612C7
:2046A4004C72AC82D006EC2EF5297582C01203FDD00790F003E4936031E558702D855B5CBB
:2046C400755B05788176187882763C90F003E4936007C00712189FD007E54824F45007E585
:2046E4004824F4FE8002AE488E491026030247EA755D3CE55C24FC50030247ABE55C75F041
:2047040003A490470A7302471602473B02476D024785EF24F250188F057E00757D0A8E7EAC
:204724008D828E83124C3CAD82AE838D0780788F06740A2EFF8070EF24E950047F148067D5
:204744008F057E00757D0A8E7E8D828E83C007124C3CAD82AE83D007BD090BBE00088F0657
:20476400EE24F7FF80410F803EE57824CE5009E578FE24CEF578802FAE78740A2EF57880CF
:20478400260578AD787E00757D0A8E7E8D828E83C007124C3CE5828583F0D00745F0700764
:2047A400E578FE24F6F5783017067D4F7E50801990F003E49360087A5F7B507C8080067A91
:2047C400577B507C808A058B068D2D8E2E752F808F30857831855D32A21A92017582C0C036
:2047E400071205EBD0071021028009755D3CE55C6002155C101C03024A17755D3C055CE511
:204804005C24FC4003024A17C0071204DBD007855B5C755B058F4885784785471E85461FE3
:20482400854882C0071201C5AD487E00757D0C8E7E8D828E83124C3CAD82AE83D0078D4942
:20484400C217788176187882763C024A17AE5C74072EFEAC5C7D00757D028D7E8C828D8392
:20486400C007C006124C72AC82D006EC2EF5297582C01203FDD007E5587008855B5C755B3A
:2048840005C2C2102603024963755D3CE55C24FC5003024944E55C75F003A49048A3730216
:2048A40048AF0248D402490602491EEF24F250188F057E00757D0A8E7E8D828E83124C3CE4
:2048C400AD82AE838D0780788F06740A2EFF8070EF24E950047F1480678F057E00757D0AE0
:2048E4008E7E8D828E83C007124C3CAD82AE83D007BD090BBE00088F06EE24F7FF80410FEC
:20490400803EE57824CE5009E578FE24CEF578802FAE78740A2EF57880260578AD787E00BF
:20492400757D0A8E7E8D828E83C007124C3CE5828583F0D00745F07007E578FE24F6F57826
:20494400752D24752E59752F808F30857831753200A21A92017582C0C0071205EBD0071023
:2049640021028009755D3CE55C6002155C101C03024A17755D3C055CE55C24FC4003024A74
:2049840017755C0085787C8F82C007124ADD9000641203D0D0073092067D2C7E5980047DA8
:2049A400347E598D2D8E2E752F808F30857831753200A21A92017582C0C0071205EB1204D5
:2049C400DBD007804E101C0280209000C37405F0AE5C9000C4EE04F09000C57405F0855BEB
:2049E4005CF55BC0071204DBD0071026028024AE5C7401C39EF55CAE5C74312EF582C00750
:204A04001204287582C4120483D0078006755C00755B0043C110023EB5C0E043C110E59AC6
:204A240030E003539AFED0E032C027C0E0C0F0C082C083C007C006C005C004C003C002C07B
:204A440001C000C0D075D00075BC83AFBD787FA607E553704E30021DBF52005004C2A2806A
:204A640042EF2491503DC202D23390593C75F080120F61802EBF5C005029D2027553005339
:204A8400A00F90F3FEE493B54D0B90F3FFE493FFB54B028003120A07D23390595175F0809A
:204AA400120F6175BC8BD0D0D000D001D002D003D004D005D006D007D083D082D0F0D0E063
:034AC400D02732C6
:204CBF00303938383838383930310080901030206040C020202020202045584954000000F0
:204CDF0000000020204348494E482047494F204B494D00204348494E482047494F205448C6
:204CFF005543002020202043414E48204B494D000000002020202054455354204D503300B2
:204D1F0000000020535445502047505320312E312E35200044482C4F4E20646F6E67206836
:204D3F006F2063686179202D2044482C4F464620646F6E6720686F2064756E670A44482CD1
:204D5F002B6D6D206B696D2070687574206C6563682064756F6E67206D6D207068757420F9
:204D7F002D2044482C2D6D6D206C65636820616D206D6D20706875740A44482C6B6B6B6B15
:204D9F002C74747474206368696E682067696F206B696D2067696F20746875632067696F7C
:204DBF0020747520646F6E67207468617920747474742062616E67206175746F0A42432CF1
:204DDF004F4E2062616F2063616F206461752067696F202D2042432C4F4646207461742037
:204DFF0062616F2063616F206461752067696F0A4243206775692062616F2063616F202D70
:204E1F002042432C44454E2042432C4D50332062616F2063616F2064656E2062616F206359
:204E3F00616F206D70330A52532072657365743A52532C73797320726573657420686520A7
:204E5F0074686F6E67202D2052532C73696D20726573657420677073206D6F64756C650A2F
:204E7F0052532C472C6E6E2C6767206D6F69206E6E206E6761792076616F2067696F20677D
:204E9F00673A303620626F2064696575206B6869656E2072657365740A44454E2C584F41CD
:204EBF0020786F6120746F616E20626F2074686F6E6720736F2064656E20746174206465BD
:204EDF006E0A44454E2C747474742C6D6D6D6D20783A20736F206361702067696F2074610C
:204EFF00742F6D6F20747474742C6D6D6D6D2067696F207461742F6D6F2064656E0A4D5073
:204F1F00332C582C616C6C20786F6120746174206361202D204D70332C582C61612C6262E2
:204F3F002C63632C2E2E2E20786F61206361632067696F2061612C62622C63630A4D5033FE
:204F5F002C542C676770702C32322C31312C2E2E2E206C6170206C616920746F6920646100
:204F7F00203132206C616E20676770703A67696F20706875742070686174206E6861630A7B
:204F9F0032322C3131207468752074752062616920686174206C616E206C756F7420747298
:204FBF006F6E6720746875206D7563203220766120310A44542C30787878787878787878E8
:204FDF002044542C2B3834787878787878787878207468617920646F6920736F2064696579
:204FFF006E2074686F6169207068750A44542C584F4120786F6120736F206469656E20740E
:20501F00686F6169207068750A44542C4F4E2044542C4F4646202D2062617420746174200C
:20503F006469656E2074686F6169207068750A00202047505320200020415349412020001D
:20505F0020202044532020001A00544B3C31303030204B2042414F43414F0041542B434DC4
:20507F0047533D2200220D0041542B435553443D312C222A31303123222C0D0020204B4930
:20509F00454D2054524120544B202020002C000D544B204368696E683D000D546169206B64
:2050BF00686F616E20636F6E2064756F692031303030300044414E47204755492042414FD8
:2050DF002043414F000D47696F204D6F2044656E3A000D4B686F6E6720636F2067696F20D0
:2050FF006D6F2064656E004755492042414F2043414F2044454E2000204755492048554F6C
:20511F004E472044414E20200041542B43434C4B3F0D00202053454E44494E472043434C45
:20513F004B20200041540D0041542B4950523D300D00202053454E44494E4720495052208B
:20515F0020200041542B434C49503D310D00202053454E44494E4720434C4950202000417C
:20517F00542B434C54533D310D00202053454E44494E4720434C545320200041542B4346B9
:20519F00554E3D300D00202053454E44494E47204346554E3020200041542B4346554E3DA6
:2051BF00310D00202053454E44494E47204346554E3120200041542B434D47463D310D0035
:2051DF00202053454E44494E4720434D474620200041542B434E4D493D312C312C302C3081
:2051FF002C310D00202053454E44494E4720434E4D4920200041542B434D4744413D224498
:20521F00454C20414C4C220D00202053454E44494E4720434D4744412020004154480D00C8
:20523F0041542B434D474C3D22414C4C220D000D6C656E68206B686F6E6720686F70206C27
:20525F0065000D6C656E68206B686F6E6720686F70206C650D50686F6E652070687520678C
:20527F007569206C656E68000D6368696E6820646F6E6720686F207468616E6820636F6E01
:20529F0067000D6368696E6820646F6E6720686F207468616E6820636F6E670D50686F6E16
:2052BF00652070687520677569206C656E68000D62616F2063616F2064656E207468616E1D
:2052DF006820636F6E67000D62616F2063616F2064656E207468616E6820636F6E670D5040
:2052FF00686F6E652070687520677569206C656E68000D62616F2063616F207468616E6887
:20531F0020636F6E67000D62616F2063616F207468616E6820636F6E670D50686F6E6520F4
:20533F0070687520677569206C656E68000D6B686F6920646F6E67206C616920626F20648A
:20535F00696575206B6869656E000D6B686F6920646F6E67206C616920626F20646965752E
:20537F00206B6869656E0D50686F6E652070687520677569206C656E68000D646174206E6B
:20539F006761792067696F207265736574207468616E6820636F6E67000D646174206E67D6
:2053BF0061792067696F207265736574207468616E6820636F6E670D50686F6E6520706859
:2053DF007520677569206C656E68000D646174206E6761792067696F207265736574206BCB
:2053FF00686F6E6720686F70206C65000D646174206E6761792067696F20726573657420B3
:20541F006B686F6E6720686F70206C650D50686F6E652070687520677569206C656E68005E
:20543F000D67736D206D6F64756C65206B686F6920646F6E67206C61692073617520313080
:20545F0073000D67736D206D6F64756C65206B686F6920646F6E67206C616920736175204E
:20547F003130730D50686F6E652070687520677569206C656E68000D6C656E68207265737B
:20549F006574206B686F6E6720686F70206C65000D6C656E68207265736574206B686F6EBE
:2054BF006720686F70206C650D50686F6E652070687520677569206C656E68000D74686124
:2054DF007920646F692067696F20736163207861206163717569207468616E6820636F6E63
:2054FF0067000D7468617920646F692067696F2073616320786120616371756920746861C8
:20551F006E6820636F6E670D50686F6E652070687520677569206C656E68000D4C656E689B
:20553F0020736163206163717569206B686F6E6720686F70206C65000D4C656E68207361AB
:20555F0063206163717569206B686F6E6720686F70206C650D50686F6E652070687520670C
:20557F007569206C656E68000D786F6120746174206D6F2064656E207468616E6820636F31
:20559F006E67000D786F6120746174206D6F2064656E207468616E6820636F6E670D506847
:2055BF006F6E652070687520677569206C656E68000D677569206C656E6820746174206DE2
:2055DF006F2064656E207468616E6820636F6E67000D677569206C656E6820746174206DDD
:2055FF006F2064656E207468616E6820636F6E670D50686F6E652070687520677569206C67
:20561F00656E68000D74686F6E6720736F20746174206D6F2064656E206B686F6E67206886
:20563F006F70206C65000D74686F6E6720736F20746174206D6F2064656E206B686F6E6759
:20565F0020686F70206C650D50686F6E652070687520677569206C656E68000D4B686F6E96
:20567F006720436F204D6F64756C65204D7033000D44756E67204D7033000D426174206DE0
:20569F007033000D546174206D7033000D54657374206D7033207468616E6820636F6E670B
:2056BF00000D6B686F6E672064756E672067696F207068617420686F6163206D7033206C36
:2056DF006F69000D4D70332064616E672063686F69206E686163206E656E2063687561205D
:2056FF007468652074657374000D4C656E68204D5033206B686F6E6720686F70206C650057
:20571F000D42617420475053000D54617420475053000D6768692070686F6E652070687510
:20573F00206D6F69207468616E6820636F6E67000D7468617920646F692070686F6E652072
:20575F00706875206B686F6E67207468616E6820636F6E67000D586F612070686F6E65201D
:20577F00706875000D6C656E68206B686F6E67207468616E6820636F6E6720646F206368FA
:20579F007561206B686F692074616F2070686F6E6520706875000D4261742070686F6E65E0
:2057BF0020706875000D5461742070686F6E6520706875000D4C656E682070686F6E652092
:2057DF00706875206B686F6E6720686F70206C65000D4C656E68206B686F6E6720686F709C
:2057FF00206C65000D4C656E68206B686F6E6720686F70206C650D50686F6E652070687502
:20581F0020677569206C656E680080204E4841205048415420545249454E00C031204D4138
:20583F0059000D626F2064696575206B6869656E206B686F6920646F6E672073616E207394
:20585F00616E67000D70686174206869656E206C6F69206D61742078756E67206769617903
:20587F00000D70686174206869656E206C6F6920646F632063616D2031000D706861742055
:20589F006869656E206C6F6920646F632063616D2032000D62616F2063616F2064617520DC
:2058BF0067696F000D67736D206D6F64756C65207265736574207468616E6820636F6E6753
:2058DF00002000202020202020000D6368696E682067696F2062616E6720746179000D2AF6
:2058FF006368696E682067696F2062616E67207461792A00C04D4159203120202020202018
:20591F00202020200020204D503320200020204F4B2020200020204E4F202020000D2A6486
:20593F0069656E206170206B686F6920706875632A000D2A6469656E2061702061637175C4
:0A595F006920746861702A001428A2
:204AC70075BA01759A50438E0475D7C875D6FE438E1075AF0122AF828F7D757E00900064C2
:204AE700124B8DAE82AF83AC7C7D00EC2EFEED3FFF8E058D037C0074E9C39BFB74FE9CFC1C
:204B07008F017A00EBC399FBEC9AFC9001AF747EF09001B074FFF09001B17406F09001B20B
:204B27007412F09001B3E4F08F069001B4EEF09001B5EDF08C079001B6EFF09001B7EBF029
:204B47009001B874EFF07F00EF24AFF582E43401F583E0F59BE59A035401700543C1108019
:0B4B6700F4539AFD0FBF0A0040DE224D
:06007800E478FFF6D8FD5C
:200056007902E94400601B7A0190596778B975A001E493F2A308B8000205A0D9F4DAF275D4
:02007600A0FFE9
:1B4B720020F71130F6138883A88220F509F6A8837583002280FEF280F5F02242
:1D4B8D00E582857DF0A4C582C0F0857EF0A4D0F025F0C583857DF0A42583F583228B
:204BAA00E57D457E60467A01E57D25E0F57DE57E334012F57EE582957DE583957E40030A30
:204BCA0080E6C3E57E13F57EE57D13F57DC3E582957DF5F0E583957E4005F58385F082C3BF
:0D4BEA00E57E13F57EE57D13F57DDAE12211
:20007E007800E84400600A790175A000E4F309D8FC78B8E84401600C7902900001E4F0A3C5
:04009E00D8FCD9FAB7
:204BF7007A10E4FBFCE58225E0F582E58333F583EB33FBEC33FCEB957DF5F0EC957E4006E8
:094C1700FCABF0438201DADD225E
:0D004900758182124CAAE582600302004618
:1C4C200020F71430F6148883A88220F507E6A88375830022E280F7E49322E022A3
:204C3C00C2D5E58330E70DD2D5E4C39582F582E49583F583E57E30E70BE4C3957DF57DE451
:164C5C00957EF57E124BAA30D50BE4C39582F582E49583F58322DA
:204C7200C2D5E58330E70DD2D5E4C39582F582E49583F583E57E30E70DB2D5E4C3957DF5F3
:184C92007DE4957EF57E124BF730D50BE4C39582F582E49583F58322F4
:044CAA0075820022ED
:00000001FF
