:2000A700AF827E0075680A8E698F828E83C007C006126064AC82D006D007ECC454F0FC75E7
:2000C700680A7569008F828E83C00412602EAE82D004EE4CF58222E582FFC4540F75F00A70
:2000E700A4FE740F5F2EF5822212032F7582D012036E75820712036E75821012036E020310
:200107004A12032F7582D012036E75820412036E12034A12032F7582D112036EC2001203BD
:20012700931200DEAF82C00712034AD0078F8222AD82AE83AFF0C007C006C00512032F75CA
:2001470082D012036E75820012036E12034A12032F7582D112036EAA1BAB1CAC1DD200C074
:2001670004C003C0021203931200DEA982D002D003D0048A828B838CF0E9125F64AA18ABF2
:2001870019AC1AD200C004C003C0021203931200DEA982D002D003D0048A828B838CF0E9A3
:2001A700125F64C2001203931200DEAC82D005D006D0078D828E838FF0EC125F6402034AAA
:2001C700AF82C00712032F7582D012036E75820012036E851F821200A712036E851E82127F
:1201E70000A712036ED0078F821200A712036E02034A69
:2001F90075C70075C50075C60075C38075C40043C11022AE82AF8375C78375C5018EC48FD1
:20021900C375C65A75C6A500AFC2C0071201F9D0078F8222AE82AF8375C78375C5028EC490
:200239008FC38529C275C65A75C6A5000201F9AE82AF8375C78375C5038EC48FC375C65ADB
:2002590075C6A5000201F943C1107F1FEF60101FEF24AEF582E43400F58374FFF080EDBF22
:200279001F005018EF24AEFDE43400FE8F827583F00FE493FC8D828E83F080E3900000028A
:2002990002487F00BF1F00502975C78375C5028FC475C300EF24AEF582E43400F5830FE0E8
:1302B900F5C275C65A75C6A500C0071201F9D00780D222E8
:2002CC00759850438E40538EFE758BCC758DFFC2ABD28ED2ACD2A022E582FF700122C299C5
:2002EC008F9920990543C11080F8C29922AD82AE83AFF0C2998D828E838FF0126012FC602A
:20030C00218C9920990543C11080F8C2998D828E838FF0126012FCBC1A01220DBD00D60E20
:03032C0080D32259
:20032F00D2C043C11043C110D2CD43C11043C110C2C043C11043C110C2CD22C2C043C1103C
:20034F0043C110D2CD43C11043C110D2C02243C11043C110D2CD43C11043C110C2CD22AFB0
:20036F00827E00EF23540124FF92C08F05ED2DFFC007C00612035DD006D0070EBE08004025
:20038F00E202035D7F00D2C07E0043C11043C110D2CD43C11043C1108F05ED2DFDA2C0E49B
:1E03AF00334DFFC2CD0EBE080040DFA200B392C0C00712035DD007A2C092CD8F822284
:2003CD00AE82AF837C007D00C3EC9EED9F500A43C1100CBC00F20D80EF22AE82AF837C0038
:2003ED007D00C3EC9EED9F501D9003E8C007C006C005C0041203CDD004D005D006D0070C58
:20040D00BC00DF0D80DC22AF82E52A4FF58212049A75820D02049AAF82302B118F8212048B
:20042D009A852B82852C83852DF00205178F820204F8E582FFC4540124FF9283EFA2E5E4CF
:20044D003324FF9282EF2323540124FF9281EF23540124FF9280D284D285C284EF5401246E
:20046D00FF9283EF03540124FF9282EF03035401FE24FF9281EFA2E3E433FF24FF9280D2CE
:20048D008400C2849000321203CDC28522E582FFC4540124FF9283EFA2E5E43324FF9282FD
:2004AD00EF2323540124FF9281EF23540124FF9280D284C285C284EF540124FF9283EF0382
:2004CD00540124FF9282EF03035401FE24FF9281EFA2E3E433FF24FF9280D28400C284901A
:2004ED0000320203CD75820C02049AE582FF600E8F8212049A9060A075F080020517758229
:20050D000112049A9006400203CDAD82AE83AFF07C008D828E838FF0126012FB6055BC105B
:20052D00005050BB80005025EB24E050200CEC601C0DBD00010E8B82C007C006C005C0048F
:20054D0012043FD004D005D006D00780C58D828E838FF0126012FBA3AD82AE838B82C007A9
:20056D00C006C005C00412049AD004D005D006D007809F22C286903A981203CD75801C003B
:20058D00C284900FA01203CDD28400C2849000A01203CDD28400C2849000A01203CD758096
:2005AD001400C2849003E81203CDD28400C2840075801100C2849000281203CD75801000F0
:2005CD00C2840075801300C2849000281203CD75801000C2840075801600C284900028127A
:2005ED0003CD75801000C2840075801800C2849003E80203CDAF82E53124E8500122E53355
:20060D00240540030206BE8F8212049A852E82852F838530F012051774F6253140067D20F8
:20062D007E00801DAB317C0075680A8C698B828C83126064AB82AC8374302BFBFD3395E0A1
:20064D00FE8D8212043FAD317E0075680A8E698D828E8312602EAD8274302DF58212043F65
:20066D00E533240350123001067D3A7E0080047D207E008D8212043FAD327E0075680A8E8B
:20068D00698D828E83C006C005126064AB8274302BF58212043FD005D00675680A7569002B
:2006AD008D828E8312602EAD8274302DF58202043F8F8212049A852E82852F838530F012CD
:2006CD00051774F6253140067E207F00801DAC317D0075680A8D698C828D83126064AC82D8
:2006ED00AD8374302CFCFE3395E0FF8E8212043FAE317F0075680A8F698E828F8312602EE8
:20070D00AE8274302EF58212043F3001067E3A7F0080047E207F008E8212043FAE327F002B
:20072D0075680A8F698E828F83C007C006126064AC8274302CF58212043FD006D0077568F4
:20074D000A7569008E828F8312602EAE8274302EF58212043F3001067E3A7F0080047E2084
:20076D007F008E8212043FAE337F0075680A8F698E828F83C007C006126064AC8274302CC6
:20078D00F58212043FD006D00775680A7569008E828F8312602EAE8274302EF58212043F7E
:0607AD0075822002043FEA
:1160A0002020202020202020202020202020202000EF
:06000000020049020F722C
:03000B000212FDE1
:0100130032BA
:01001B0032B2
:03002300021FE7D2
:03002B00025E3F33
:01003300329A
:03003B00020FC2EF
:03004300025E2F2B
:0500A200C23B02004614
:030046000240F87D
:2007B300E53B75F006A4FFAD3A7E0075680A8E698D828E83C007126064AD82D007ED2FF5E1
:2007D300497E017D0190F007E493FCC3ED9C400302087DED90F00793FC8D030BEB3395E07F
:2007F300FAEB2407F582EA34F0F583E493F9C3EC99E433F97C0009B900010CED90F00793BF
:20081300F8C3E54998E4337F0029F9EF3CFCEB2407F582EA34F0F583E493FFC3E5499FE468
:20083300337B0029F582EB3CF5837568028B69C006C00512602EE5828583F0D005D006456B
:20085300F060218E047F008C828F83A37568028F69C00612602EAC82AF83D006EC4F24FF6F
:2008730092A180060D8D060207D890F007E493FFEEB50702800122EE90F00793FF90F00850
:20089300E493FDC3EF9DE433FF7D000FBF00010DEE90F00793FCC3E5499CE4337B002FFFC2
:2008B300EB3DFD90F008E493FCC3E5499CE4337B002FF582EB3DF5837568028B69C00612F5
:2008D300602EE5828583F0D00645F060197F008E828F83A37568028F6912602EAE82AF8377
:2008F300EE4F24FF92A122786BB60002800E786BB601028044786BB602488028786CE6B59D
:200913003B07786DE6B53A0122AF3B786CA607AE3A786DA6068E678F82125ECF75345A78F1
:200933006B76022230920BD2C2786BA2C2E433F68007AF341534EF7009209206786B7600BE
:20095300C2C2222002092032069000DFE06006C211758205229000CEE0FF601C9000CDE0BF
:20097300600FEF13924050091FEFFE3395E0FF80047E057F008E8222900116E0FFBF030015
:200993004003020A249000D4E07003020A1EE542FFB53A07E53CB53E028070853E687569C5
:2009B3000090003CC007125F7FE5828583F0D00724D0FD740235F0FE7C00EF2DFDEC3EFE24
:2009D300853C688C6990003CC006C005125F7FAC82AF83D005D006EDC39CFDEE9FFEAC3ADA
:2009F3007F00EDC39CF582EE9FF5837568D075690212602EAE82AF83C374689E74818FF05D
:200A130063F08095F0921175820022C21175820522E54724FE4003020AB39000D4E07003B7
:200A3300020AB3E542FFB53A07E53CB53E028070853E6875690090003CC007125F7FE582CF
:200A53008583F0D00724D0FD740235F0FE7C00EF2DFDEC3EFE853C688C6990003CC006C0FD
:200A730005125F7FAC82AF83D005D006EDC39CFDEE9FFEAC3A7F00EDC39CF582EE9FF58362
:200A93007568D075690212602EAE82AF83C374689E74818FF063F08095F0921175820022EF
:200AB3009000D6E07003020B39E544FFB53A07E53CB54002807085406875690090003CC067
:200AD30007125F7FE5828583F0D00724D0FD740235F0FE7C00EF2DFDEC3EFE853C688C6971
:200AF30090003CC006C005125F7FAC82AF83D005D006EDC39CFDEE9FFEAC3A7F00EDC39C0C
:200B1300F582EE9FF5837568D075690212602EAE82AF83C374689E74818FF063F08095F0AE
:200B330092117582022274FE25475003020BC89000D4E07003020BC8E542FFB53A07E53C15
:200B5300B53E028070853E6875690090003CC007125F7FE5828583F0D00724D0FD7402353F
:200B7300F0FE7C00EF2DFDEC3EFE853C688C6990003CC006C005125F7FAC82AF83D005D04D
:200B930006EDC39CFDEE9FFEAC3A7F00EDC39CF582EE9FF5837568D075690212602EAE82DE
:200BB300AF83C374689E74818FF063F08095F0921175820022C21175820522900116E0FFB4
:200BD300BF0102800C2002092032069000DFE06006C212758205229000CEE0FE601C900042
:200BF300CDE0600FEE5401FD70091EEEFD3395E0FE80047D057E008D8222BF0400400302A1
:200C13000CA19000D5E07003020C9BE543FFB53A07E53CB53F028070853F687569009000F5
:200C33003CC007125F7FE5828583F0D00724D0FD740235F0FE7C00EF2DFDEC3EFE853C6808
:200C53008C6990003CC006C005125F7FAC82AF83D005D006EDC39CFDEE9FFEAC3A7F00ED14
:200C7300C39CF582EE9FF5837568D075690212602EAE82AF83C374689E74818FF063F08073
:200C930095F0921275820122C21275820522E54724FE4003020D309000D5E07003020D3045
:200CB300E543FFB53A07E53CB53F028070853F6875690090003CC007125F7FE5828583F011
:200CD300D00724D0FD740235F0FE7C00EF2DFDEC3EFE853C688C6990003CC006C005125FFD
:200CF3007FAC82AF83D005D006EDC39CFDEE9FFEAC3A7F00EDC39CF582EE9FF5837568D0A9
:200D130075690212602EAE82AF83C374689E74818FF063F08095F09211758201229000D7B1
:200D3300E07003020DB6E545FFB53A07E53CB54102807085416875690090003CC007125F50
:200D53007FE5828583F0D00724D0FD740235F0FE7C00EF2DFDEC3EFE853C688C6990003C9A
:200D7300C006C005125F7FAC82AF83D005D006EDC39CFDEE9FFEAC3A7F00EDC39CF582EEF0
:200D93009FF5837568D075690212602EAE82AF83C374689E74818FF063F08095F092117579
:200DB30082032274FE25475003020E459000D5E07003020E45E543FFB53A07E53CB53F02B2
:200DD3008070853F6875690090003CC007125F7FE5828583F0D00724D0FD740235F0FE7C47
:200DF30000EF2DFDEC3EFE853C688C6990003CC006C005125F7FAC82AF83D005D006EDC37F
:200E13009CFDEE9FFEAC3A7F00EDC39CF582EE9FF5837568D075690212602EAE82AF83C31C
:200E330074689E74818FF063F08095F0921175820122C2127582052290020012024890012B
:200E530016E0FFBF01028043BF0202802CBF03028015BF044885452990020612022D8541A0
:200E73002990020712022D85442990020412022D85402990020512022D8543299002021236
:200E9300022D853F2990020312022D85422990020012022D853E2990020102022D2275FA49
:200EB3000075EA009000D074A8F07461A3F075DA49D2DE22538E7F758900758A24758CFA06
:200ED300C28DD28CD2A92243C110B21EA21E9287D21C9000E2E0FFE06006EF149000E2F00E
:200EF3009000E4E0FFE06006EF149000E4F09000DFE0FFBF0201220539900117E0FF7E006A
:200F13001FBFFF011EAC397D00C3EF9CEE64808DF063F08095F05046753900E5356006D5D2
:200F33003603753500D21D053AE53A24C4502FC203753A00053BE53B24E85017786C76184E
:200F5300753B009000D2E0FFE06006EF149000D2F0C204053CE53C24F45003753C0022C0CC
:200F730028C0E0C0F0C082C083C007C006C005C004C003C002C001C000C0D075D00843C164
:200F9300109000D374FAF0C23475D000120EDA75D008D0D0D000D001D002D003D004D0055C
:200FB300D006D007D083D082D0F0D0E0D02832C028C0E0C0F0C082C083C007C006C005C063
:200FD30004C003C002C001C000C0D075D00843C11010D8030212E09000D0E0FEA3E0FF8ED6
:200FF300EA8FFA9000D074A82EF074613FA3F0A2B6B39213A2B7B39214900116E0FFBF0182
:20101300273030132013033014047F0080027F01EF24FF921380112013072014047F00806B
:20103300027F01EF24FF92137405B5470302110430130D301505D217021104D2150211043D
:201053002019030210F8E54724D4FEE43400FF9000D8E08E828F83F09000CDE0FFE0600820
:20107300EF149000CDF0806030102EE5472442F9870F0FA70FEF24C4501FE5472442F87693
:2010930000E547243EF9870F0FA70FEF24F45038E547243EF87600802F20102CE547244233
:2010B300F9870F1FA70FEF24C3501DE5472442F8763BE547243EF9870F1FA70FEF24F350F3
:2010D30007E547243EF8760BC217C215C21975D00012095675D00885824775D000120E4B63
:2010F30075D008800C301704D219800510150280007405B548030211CD20B70D301605D248
:20111300180211CDD2160211CD201A030211C1E54824D4FEE43400FF9000D8E08E828F8347
:20113300F09000CDE0FFE06008EF149000CDF0806030102EE5482442F9870F0FA70FEF2490
:20115300C4501FE5482442F87600E548243EF9870F0FA70FEF24F45038E548243EF87600D9
:20117300802F20102CE5482442F9870F1FA70FEF24C3501DE5482442F8763BE548243EF953
:20119300870F1FA70FEF24F35007E548243EF8760BC218C216C21A75D000120BCE75D00861
:2011B30085824875D000120E4B75D008800C301804D21A80051016028000301F0930B5069C
:2011D3009000DC7402F0301F0330B5047F0080027F01EF24FF922220210330B5047F00807C
:2011F300027F01EF24FF921F20200A202203201F047F0080027F01EF24FF9220A2B5922176
:2012130030230930B3069000DD7402F030230330B3047F0080027F01EF24FF9226202503D3
:2012330030B3047F0080027F01EF24FF922320240A2026032023047F0080027F01EF24FFFB
:201253009224A2B3922530270930B4069000DE7402F030270330B4047F0080027F01EF24C5
:20127300FF922A20290330B4047F0080027F01EF24FF922720280A202A032027047F008037
:20129300027F01EF24FF9228A2B49229900127E014F0E0700AD23B900127740EF0B22B9042
:2012B30000D3E0FFE0600EEF149000D3F0900128741CF08018900128E014F0E0700F900167
:2012D30028741CF075D000120EDA75D008D0D0D000D001D002D003D004D005D006D007D0BB
:2012F30083D082D0F0D0E0D02832C0E0C082C083C0D075D01043C110303139E547B40100D3
:20131300E43324FF92A77401B5480474018001E424FF92A57402B5470474018001E424FF2A
:2013330092A67403B5480474018001E4FF24FF92A40213CEE547700B90F000E4935407607C
:201353000280047F0080027F01EF24FF92C47401B5480474018001E424FF92C39000CEE005
:20137300700A2011072012047F0080027F01EF24FF92102030427405B547097405B54804B3
:20139300E5477034E5A0540FFFE5469060C7934FF5A03010067E017F0080047EFF7FFFAFB8
:2013B30046EE2FF54624F75005754607800D7408B54608754600800353A00FD0D0D083D03B
:2013D30082D0E032AD82AE83AFF0AC4B9000E3ECF0854AF0ECA4FB9000E4740A2BF0C22C0C
:2013F300AB4A302C030215049000E4E0700302150443C110758280C007C006C005C004C028
:201413000312049A854C82854D83854EF0120517D003D004D005D006D007301B32752E51D3
:20143300752F64753080853B31853A32853933A21E92017582C0C007C006C005C004C003B6
:20145300120602D003D004D005D006D007806990F002E4937032752E59752F647530808504
:201473003B31853A32853933A21E92017582C0C007C006C005C004C003120602D003D00467
:20149300D005D006D0078030752E61752F64753080853B31853A32853933A21E92017582B9
:2014B300C0C007C006C005C004C003120602D003D004D005D006D0079000E2E06003021373
:2014D300F58B021BEA602A9000E2ECF09000E3ECF08D828E838FF0C007C006C005C004C0D6
:2014F300031202F9D003D004D005D006D0070213F57582801204F8A22C2290000CE0602025
:2015130090000FE0701A754C6B754D64754E80754A03754B0190646975F0801213D7C32274
:2015330090647C75F0801202F9303C067E017F0080047E117FF07D008E828F838DF0120214
:20155300F990648675F0801202F99000051203E7D32290000CE4F0C20D9000E57407F075F9
:201573004C9D754D64754E80754A0F754B0190648975F0801213D79000E5E4F090000CE054
:2015930024FF227F009064AE75F080C0071202F9D0078F0674312EF582C0071202E47582AD
:2015B3003D1202E4D007EF24D4FDE43400FE8D828E83E060067D007E0080047D457E008D60
:2015D30082C0071202E4D007EF243EF987067D0075680A8D698E828D83C007C00112606431
:2015F300AD8274302DF5821202E4D00187067D0075680A8D698E828D8312602EAD8274301E
:201613002DF5821202E475823A1202E4D007EF2442F987067D0075680A8D698E828D83C006
:2016330007C001126064AD8274302DF5821202E4D00187067D0075680A8D698E828D8312A0
:20165300602EAD8274302DF5821202E4D0070F900116E0FEEFB5060122021598229064B1CC
:2016730075F0801202F9AE3B7F0075680A8F698E828F83126064AE8274302EF5821202E4B5
:20169300AE3B7F0075680A8F698E828F8312602EAE8274302EF5821202E475823A1202E494
:2016B300AE3A7F0075680A8F698E828F83126064AE8274302EF5821202E4AE3A7F00756824
:2016D3000A8F698E828F8312602EAE8274302EF5821202E49064B575F0801202F9301B06D6
:2016F3007E317F0080047E307F0090F002E4932EF5820202E4786A866875690090001C1206
:201713005F7F756800756901126064AE829064BB75F080C0061202F9D0063032067D017F74
:201733000080047D307F008D82C0061202E49064C075F0801202F990F001E4932430F582B0
:201753001202E49064C575F0801202F9D0069000D3E060067D317F0080047D307F008D8268
:20177300C0061202E49064CA75F0801202F99000D2E02430F5821202E475822F1202E49035
:20179300F003E4932430F5821202E49064CF75F0801202F990F004E493FF7D0075680A8D69
:2017B300698F828D83126064AD8274302DF5821202E490F004E493FF7D0075680A8D698F64
:2017D300828D8312602EAD8274302DF5821202E49064D475F0801202F99064D875F08012D8
:2017F30002F9D00630A1067D317F0080047D307F008D82C0061202E49064DE75F0801202B9
:20181300F9D0067F0075680A8F698E828F83C007C006126064AC8274302CF5821202E4D0C6
:2018330006D00775680A7569008E828F8312602EAE8274302EF5821202E49064E475F08003
:201853001202F990F010E4932430F5821202E4203D01229064EA75F0801202F990F01CE4CE
:20187300932430F5821202E490F01CE493FFBF02012275822C1202E490F01175F080020274
:20189300F9AD82AE83AFF0900119E0700122754C24754D61754E80754A0F754B019064EF63
:2018B30075F080C007C006C0051213D7D005D006D00774012DFAE43EFB8F048A828B838C6E
:2018D300F0126012F9B92A02801DC007C006C005C004C003C002121565D002D003D004D096
:2018F30005D006D007800590000CE4F0A23E923CC007C006C005C004C003C00212150DD0E1
:2019130002D003D004D005D006D00740012290612475F080C007C006C005C004C003C00291
:201933001202F9121596121670A23E923D121708D002D003D004D005D006D0078A828B833D
:201953008CF0126012FABA2A02805390000CE0604D9064F375F080C007C006C0051202F96D
:2019730090000C75F0001202F9D005D006D007303E1B900010E070159064FE75F080C00798
:20199300C006C0051202F9D005D006D007900010E4F090000FF090000EF090000DF08D82ED
:2019B3008E838FF0C007C006C0051202F9D005D006D0070DBD00010E8D828E838FF01260B9
:2019D30012FDBD2A0990646975F0800202F9754C18754D65754E80754A32754B0190646964
:2019F30075F0800213D79064D875F0801202F930A1067E317F0080047E307F008E8212026B
:201A1300E490652975F0801202F990F007E4932430F5821202E490F007E493700990653161
:201A330075F0800202F990654675F0801202F990F007E493FF75820DC0071202E4D007EFFE
:201A530090F00793FE7D0075683C8D698E828D83C007126064AD8274302DF5821202E4D0D3
:201A730007EF90F00793FE7D007568068D698E828D83C00712606475680A75690012602ECD
:201A9300AD8274302DF5821202E475823A1202E4D007EF90F00793FF7E007568068E698FD5
:201AB300828E8312602EAE8274302EF5821202E490655375F0801202F990F008E493FF7EB9
:201AD3000075683C8E698F828E83126064AE8274302EF5821202E490F008E493FF7E007589
:201AF30068068E698F828E8312606475680A75690012602EAE8274302EF5821202E47582A9
:201B13003A1202E490F008E493FF7E007568068E698F828E8312602EAE8274302EF58212DD
:201B330002E47582301202E47F0290F007E493FEC3EF9E40012275820DC0071202E4D007C3
:201B5300EF90F00793FE7D0075683C8D698E828D83C007126064AD8274302DF5821202E4B3
:201B7300D007EF90F00793FE7D007568068D698E828D83C00712606475680A75690012602A
:201B93002EAD8274302DF5821202E475823A1202E4D007EF90F00793FE7D007568068D6938
:201BB3008E828D83C00712602EAD8274302DF5821202E490655375F0801202F9D0078F0676
:201BD300EE04FD3395E0FCED2407F582EC34F0F583E493FB7A0075683C8A698B828A83C076
:201BF30006C005C004126064AA8274302AF5821202E4D004D005ED2407F582EC34F0F58344
:201C1300E493FB7A007568068A698B828A83C005C00412606475680A75690012602EAA82E5
:201C330074302AF5821202E475823A1202E4D004D005ED2407F582EC34F0F583E493FD7C7B
:201C5300007568068C698D828C8312602EAC8274302CF5821202E47582301202E4D0067405
:201C7300022EFF021B3DAD82AE83AFF0900119E0700122754C24754D61754E80754A0F751E
:201C93004B019064EF75F080C007C006C0051213D7A23F923C12150DD005D006D007400129
:201CB30022C007C006C005121670A23F923D1217081219F9D005D006D0078D828E838FF0DF
:201CD3001202F9754C58754D65754E80754A32754B0190646975F0800213D790000CE4F011
:201CF300D23C12150D40012290613575F0801202F9754C69754D65754E80754A32754B01CE
:201D130090646975F0800213D77F00900118E0FEBE3D0122754C24754D61754E80754A0F45
:201D3300754B019064EF75F080C0071213D7D0074003021F64754C84754D65754E80754A37
:201D53000F754B0190657A75F080C0071213D7D0074003021F64754CA0754D65754E8075AA
:201D73004A0F754B0190659575F080C0071213D7D00790F002E4937003021F64754CBC754A
:201D93004D65754E80754A0F754B019065B175F080C0071213D7D0074003021F64754CD826
:201DB300754D65754E80754A0F754B019065CD75F080C0071213D7D0074003021F6490007E
:201DD300E57406F0754CF5754D65754E80754A0F754B029065EA75F080C0071213D7D00793
:201DF3004003021F649000E6E0FEBE01028003021F647E007D00ED24F8F582E43400F583E0
:201E13000DE0FCBC2C060EBE0300500ABD0B00500543C11080E0EE24FD4003021F648D06B4
:201E33000EEE3395E0FCEE24F8F582EC3400F583E0FEBE2C15ED04FEED24F8F582E4340072
:201E5300F583E0FC24D0F53B8029ED04FCED24F8F582E43400F583E024D075F00AA4FDEC81
:201E730004FEEC24F8F582E43400F583E0FC24D02DF53B0E8E050DED3395E0FCED24F8F5D4
:201E930082EC3400F583E0FDBD2C15EE04FDEE24F8F582E43400F583E0FC24D0F53A802992
:201EB300EE04FCEE24F8F582E43400F583E024D075F00AA4FEEC04FDEC24F8F582E43400A7
:201ED300F583E0FC24D02EF53AED04FEFD0DED3395E0FCED24F8F582EC3400F583E0FDBD0E
:201EF3002C12EE24F8F582E43400F583E0FD24D0F5398026EE04FDEE24F8F582E43400F55E
:201F130083E024D075F00AA4FEED24F8F582E43400F583E0FD24D02EF539AD3B7E00740728
:201F33002DFDE43EFEC374179D74808EF063F08095F05007E53B24EFFE8006AD3B74072DF1
:201F5300FE8E3B853A1E85391F853B821201C77F01EF24FF921B9000E5E4F02230A00690C1
:201F73000119E07002C322754C24754D61754E80754A0F754B019064EF75F0801213D7401F
:201F93000122754C12754D66754E80754A0F754B0290660775F0801213D75036754C36756D
:201FB3004D66754E80754A0F754B0190662375F0801213D7501C754C5B754D66754E807527
:201FD3004A0F754B0190664775F0801213D75002D322C322C028C0E0C0F0C082C083C00706
:201FF300C006C005C004C003C002C001C000C0D075D010209803022F0143C1109000E3E040
:202013009000E2F09000E7E0FF24E9F582E43400F583E599F09000E5E0FF24F85003022E80
:20203300EDEF240A83F582EF240C83F583E473524C4C9CED1A6C8F202A2A2A2E2C282D90B3
:2020530000E7E0FF24E9F582E43400F583E0FEBE220280030222248F147D00740C2CF582C5
:20207300E43DF58375680D8D69C017C016C015C01475D00012602E75D010AA82AB83D01406
:20209300D015D016D017EA24E9F582EB3400F583E0FBBB20028003022224740B2CF582E4ED
:2020B3003DF58375680D756900C017C016C015C01475D00012602E75D010AA82AB83D014C2
:2020D300D015D016D017EA24E9F582EB3400F583E0FBBB3A028003022224740A2CF582E494
:2020F3003DF58375680D756900C017C016C015C01475D00012602E75D010AA82AB83D01482
:20211300D015D016D017EA24E9F582EB3400F583E0FBBB4B02800302222474092CF582E443
:202133003DF58375680D756900C017C016C015C01475D00012602E75D010AA82AB83D01441
:20215300D015D016D017EA24E9F582EB3400F583E0FBBB4C02800302222474082CF582E403
:202173003DF58375680D756900C017C016C015C01475D00012602E75D010AA82AB83D01401
:20219300D015D016D017EA24E9F582EB3400F583E0FBBB4302800302222474072CF582E4CD
:2021B3003DF58375680D756900C017C016C015C01475D00012602E75D010AA82AB83D014C1
:2021D300D015D016D017EA24E9F582EB3400F583E0FBBB433C74062CF582E43DF58375688D
:2021F3000D756900C017C01675D00012602E75D010AC82AD83D016D017EC24E9F582ED343E
:2022130000F583E0FDBD2B099000E57402F0022EEDBE470280030222EF8F147D00740C2C04
:20223300F582E43DF58375680D8D69C017C016C015C01475D00012602E75D010AA82AB83B1
:20225300D014D015D016D017EA24E9F582EB3400F583E0FBBB4E0280030222EF740B2CF5B4
:2022730082E43DF58375680D756900C017C016C015C01475D00012602E75D010AA82AB837E
:20229300D014D015D016D017EA24E9F582EB3400F583E0FBBB4945740A2CF582E43DF583B2
:2022B30075680D756900C017C01675D00012602E75D010AC82AD83D016D017EC24E9F582C1
:2022D300ED3400F583E0FDBD521290666D75F08075D0001202F975D010022EEDBE3A0280CE
:2022F3000302243A8F147D00740C2CF582E43DF58375680D8D69C017C016C015C01475D011
:202313000012602E75D010AA82AB83D014D015D016D017EA24E9F582EB3400F583E0FBBB2A
:202333004902800302243A740B2CF582E43DF58375680D756900C017C016C015C01475D03E
:202353000012602E75D010AA82AB83D014D015D016D017EA24E9F582EB3400F583E0FBBBEA
:202373005402800302243A740A2CF582E43DF58375680D756900C017C016C015C01475D0F4
:202393000012602E75D010AA82AB83D014D015D016D017EA24E9F582EB3400F583E0FBBBAA
:2023B3004D02800302243A74092CF582E43DF58375680D756900C017C016C015C01475D0BC
:2023D3000012602E75D010AA82AB83D014D015D016D017EA24E9F582EB3400F583E0FBBB6A
:2023F300434574082CF582E43DF58375680D756900C017C01675D00012602E75D010AC82AD
:20241300AD83D016D017EC24E9F582ED3400F583E0FDBD2B1290667275F08075D000120226
:20243300F975D010022EEDE4BE200104FD70030225D18F137C00740C2BF582E43CF58375A2
:20245300680D8C69C017C016C015C014C01375D00012602E75D010A982AA83D013D014D0AD
:2024730015D016D017E924E9F582EA3400F583E0FABA3A0280030225D1740B2BF582E43CD8
:20249300F58375680D756900C017C016C015C014C01375D00012602E75D010A982AA83D05E
:2024B30013D014D015D016D017E924E9F582EA3400F583E0FABA4C0280030225D1740A2B57
:2024D300F582E43CF58375680D756900C017C016C015C014C01375D00012602E75D010A906
:2024F30082AA83D013D014D015D016D017E924E9F582EA3400F583E0FABA47028003022517
:20251300D174092BF582E43CF58375680D756900C017C016C015C014C01375D00012602E4A
:2025330075D010A982AA83D013D014D015D016D017E924E9F582EA3400F583E0FABA4D027C
:2025530080030225D174082BF582E43CF58375680D756900C017C016C015C014C01375D001
:202573000012602E75D010A982AA83D013D014D015D016D017E924E9F582EA3400F583E09F
:20259300FABA433A74072BF582E43CF58375680D756900C017C016C01575D00012602E759E
:2025B300D010AB82AC83D015D016D017EB24E9F582EC3400F583E0FCBC2B0302274DED707A
:2025D300030227988F147D00740C2CF582E43DF58375680D8D69C017C016C015C01475D0CD
:2025F3000012602E75D010AA82AB83D014D015D016D017EA24E9F582EB3400F583E0FBBB48
:202613003A028003022798740B2CF582E43DF58375680D756900C017C016C015C01475D009
:202633000012602E75D010AA82AB83D014D015D016D017EA24E9F582EB3400F583E0FBBB07
:2026530050028003022798740A2CF582E43DF58375680D756900C017C016C015C01475D0B4
:202673000012602E75D010AA82AB83D014D015D016D017EA24E9F582EB3400F583E0FBBBC7
:202693004902800302279874092CF582E43DF58375680D756900C017C016C015C01475D07C
:2026B3000012602E75D010AA82AB83D014D015D016D017EA24E9F582EB3400F583E0FBBB87
:2026D3004C02800302279874082CF582E43DF58375680D756900C017C016C015C01475D03A
:2026F3000012602E75D010AA82AB83D014D015D016D017EA24E9F582EB3400F583E0FBBB47
:202713004302800302279874072CF582E43DF58375680D756900C017C01675D00012602E0C
:2027330075D010AC82AD83D016D017EC24E9F582ED3400F583E0FDBD2B4B8F147D00740950
:202753002CF582E43DF58375680D8D6975D00012602E75D010AC82AD83EC24E9F582ED3421
:2027730000F583E0FDBD4C03D38001C392064006300C03022EEDC20AC208C2079000E5744C
:2027930003F0022EEDBE4B598F147D00740C2CF582E43DF58375680D8D69C017C01675D006
:2027B3000012602E75D010AC82AD83D016D017EC24E9F582ED3400F583E0FDBD4F23A22D02
:2027D300B3922CC22DE5377003022EED75370090664775F08075D0001202F975D010022E35
:2027F300EDBE54028003022EED8F167F00740C2EF582E43FF58375680D8F69C017C016753D
:20281300D00012602E75D010AC82AD83D016D017EC24E9F582ED3400F583E0FDBD4F028041
:2028330003022EED740B2EF582E43FF58375680D75690075D00012602E75D010AE82AF8342
:20285300EE24E9F582EF3400F583E0FFBF4E028003022EEDD22D022EED9000E7E0FF24E94B
:20287300F582E43400F583E0FEBE20028003022EED8F167F00740C2EF582E43FF58375681F
:202893000D8F69C017C01675D00012602E75D010AC82AD83D016D017EC24E9F582ED34007D
:2028B300F583E0FDBD3A028003022EED740B2EF582E43FF58375680D756900C017C016756E
:2028D300D00012602E75D010AC82AD83D016D017EC24E9F582ED3400F583E0FDBD5A028076
:2028F30003022EED740A2EF582E43FF58375680D756900C017C01675D00012602E75D01038
:20291300AC82AD83D016D017EC24E9F582ED3400F583E0FDBD54028003022EED74092EF540
:2029330082E43FF58375680D756900C017C01675D00012602E75D010AC82AD83D016D0178D
:20295300EC24E9F582ED3400F583E0FDBD54028003022EED74082EF582E43FF58375680D25
:20297300756900C017C01675D00012602E75D010AC82AD83D016D017EC24E9F582ED3400C3
:20299300F583E0FDBD55028003022EED74072EF582E43FF58375680D756900C017C0167576
:2029B300D00012602E75D010AC82AD83D016D017EC24E9F582ED3400F583E0FDBD5302809C
:2029D30003022EED74062EF582E43FF58375680D756900C017C01675D00012602E75D0105B
:2029F300AC82AD83D016D017EC24E9F582ED3400F583E0FDBD50028003022EED8E828F83E2
:202A1300A3A3A3A3A375680D75690075D00012602E75D010AE82AF83EE24E9F582EF34007B
:202A3300F583E0FFBF2A028003022EED9000E8E4F09000E504F0022EED740DB5990280205E
:202A53009000E8E0FFBF1E0050169000E8EF04F0EF24F8F582E43400F583E599F0022EEDD1
:202A73009000E8E0FF1FEF3395E0FEEF24F8F582EE3400F583E4F09000E5E09000E6F090FD
:202A930000E5E4F0D22C022EED200A03022B12E537701B740DB599028003022EED30060590
:202AB30075360205359000E57405F0022EED740AB5370B7422B59906753700022EED2007D2
:202AD30014E5372401F582E43400F583E0FFB599028002D20730090F20080EE53790F011D2
:202AF30093FFB599028002D2080537200703022EED200803022EED9000E5E4F0022EED3024
:202B130006429000E7E0FF24E9F582E43400F583E0FEBE302F7E00740C2FF582E43EF583B7
:202B330075680D8E6975D00012602E75D010AE82AF83EE24E9F582EF3400F583E0FFBF2238
:202B530003022C039000E7E0FF24E9F582E43400F583E0FEBE34028003022C088F167F0015
:202B7300740C2EF582E43FF58375680D8F69C017C01675D00012602E75D010AC82AD83D08B
:202B930016D017EC24E9F582ED3400F583E0FDBD3863740B2EF582E43FF58375680D756960
:202BB30000C017C01675D00012602E75D010AC82AD83D016D017EC24E9F582ED3400F583E7
:202BD300E0FDBD2B30740A2EF582E43FF58375680D75690075D00012602E75D010AE82AF4E
:202BF30083EE24E9F582EF3400F583E0FFBF2205D20A753701740DB599028003022EED90E3
:202C130000E5E4F0022EED300B37743BB599028021740DB59902801A746025374014AF37E4
:202C33000537EF240CF582E43400F583E599F0022EED753700C20B9000E5E4F0D20C022EC4
:202C5300ED9000E7E0FF24E9F582E43400F583E0FEBE2C028003022D728F167F00740C2E4A
:202C7300F582E43FF58375680D8F69C017C01675D00012602E75D010AC82AD83D016D0173B
:202C9300EC24E9F582ED3400F583E0FDBD43028003022D72740B2EF582E43FF58375680D6C
:202CB300756900C017C01675D00012602E75D010AC82AD83D016D017EC24E9F582ED340080
:202CD300F583E0FDBD55028003022D72740A2EF582E43FF58375680D756900C017C01675AC
:202CF300D00012602E75D010AC82AD83D016D017EC24E9F582ED3400F583E0FDBD44607416
:202D1300092EF582E43FF58375680D756900C017C01675D00012602E75D010AC82AD83D07A
:202D330016D017EC24E9F582ED3400F583E0FDBD502D74082EF582E43FF58375680D7569DF
:202D53000075D00012602E75D010AE82AF83EE24E9F582EF3400F583E0FFBF2A0280047FEA
:202D73000080027F01EF24FF920B740DB599028003022EED9000E5E4F0022EED300D3D74CA
:202D930020B59902801A746025374014AF370537EF240CF582E43400F583E599F0022EEDBF
:202DB300C20DC20FE537240CF582E43400F583E4F0F5379000E5F0D22C022EED9000E7E036
:202DD300FF24E9F582E43400F583E0FEBE3D028003022EED8F167F00740C2EF582E43FF5F1
:202DF3008375680D8F69C017C01675D00012602E75D010AC82AD83D016D017EC24E9F582D9
:202E1300ED3400F583E0FDBD68028003022EED740B2EF582E43FF58375680D756900C01704
:202E3300C01675D00012602E75D010AC82AD83D016D017EC24E9F582ED3400F583E0FDBDA1
:202E53006E028003022EED740A2EF582E43FF58375680D756900C017C01675D00012602E37
:202E730075D010AC82AD83D016D017EC24E9F582ED3400F583E0FDBD696074092EF582E44D
:202E93003FF58375680D756900C017C01675D00012602E75D010AC82AD83D016D017EC247E
:202EB300E9F582ED3400F583E0FDBD682D74082EF582E43FF58375680D75690075D00012FC
:202ED300602E75D010AE82AF83EE24E9F582EF3400F583E0FFBF6302D20D9000E7E024012F
:202EF300F0E0FF24F350059000E7E4F0C298D0D0D000D001D002D003D004D005D006D007A3
:202F1300D083D082D0F0D0E0D02832C20E90000CE0FFBF3F02800890000DE0FFBF3F0620EC
:202F33000703021CEE90000DE0FFBF41030237B7BF430302358ABF4503023844BF48028025
:202F53003EBF5003023C26BF530302364CBF5403023D5ABF61030237B7BF630302358ABFAA
:202F73006503023844BF68028015BF7003023C26BF730302364CBF7403023D5A0240AE90FC
:202F9300000FE0FFBF2B028003023155900010E0FEC3742F9EE433FD70030230E0BE33002D
:202FB30040030230E0900011E0FC24D040030230E0BC3A0040030230E0900012E0FB24D027
:202FD30040030230E0BB360040030230E0900013E0F55424D040030230E074C62554500328
:202FF3000230E0900015E0F55024D040030230E074CD255050030230E0900016E0F551248E
:20301300D040030230E074C6255150030230E0900017E0F55224D040030230E074CA255297
:2030330050030230E0900018E0F55324D040030230E074C6255350030230E08E0274022AB8
:20305300F555AA50C39A75F00AA42404F555253B2CAC51C39CFAAC5274062CC39B75F00AE4
:20307300A42553AB54C39BFC8A56755700AA3A7B00743C2AF558E43BF5598C027B00C3E578
:20309300589AE55964808BF063F08095F0E433FA7B00E556C39AF582E5579BF58375680C63
:2030B3008B69C00412602EAA82D0048A3EAB3A74782BC39CFB7C0075683C8C698B828C83E1
:2030D30012602EAB828B42120E4B023527ED606DBE36005068900011E0FD24D0505FBD3AFC
:2030F30000505AEE24D075F00AA42D24D0FEAD3E740C2DFDC3E5429EE433FCEDC39CFD7C0A
:203113000075680C8C698D828C83C00612602EAC82D0068C3EAC427D00743C2CFCE43DFD0B
:203133007B00ECC39EF582ED9BF58375683C8B6912602EAD828D42120E4B023527D20E02E7
:203153003527BF2D46900010E0FF24D05038BF36005033900011E0FE24D0502ABE3A005026
:2031730025EF24D075F00AA4AD422D2E24D0F54224C4500CE53E04F53EE542FF24C4F542C9
:20319300120E4B023527D20E023527900010E0FFBF4E028003BF6E213007030240D4120252
:2031B300609000AE7401F012029B786B7600786C7618786D763C023527BF46028003BF66DB
:2031D300163007030240D41202609000AEE4F012029BC2C202352790011B7403F0754F0187
:2031F30090011BE0FE240CF582E43400F583E0FDBD2C46E54F700990011B7465F002351185
:20321300AB4F7C0074012BF558E43CF559900116E0FA7C0074012AF568E43CF569855882F4
:20323300855983C00612602EAB82AC83D0068B4F90011BEE04F0023511BD30005015E54F4C
:2032530070057C65FE80047CCA7E0090011BECF0023511E54F7042BD6702800DBD470280D0
:2032730008BD61028003BD4130C2C2786B7600121D1CAD3B7E0075680C8E698D828E8312C2
:20329300602EAD82AE838D3C786C7618786D763C90011B7465F002351190011BE0FE240CE4
:2032B300F582E43400F583E0FD24D0400302350BBD3300400302350B8E037C0074012BFA82
:2032D300E43CFFEA240CF582EF3400F583E0FF24D0400302350B74012BFAE43CFFEA240C65
:2032F300F582EF3400F583E0FFBF3A00400302350B74022BFAE43CFFEA240CF582EF3400DE
:20331300F583E0FF24D0400302350B74022BFAE43CFFEA240CF582EF3400F583E0FFBF3610
:2033330000400302350B74032BFAE43CFFEA240CF582EF3400F583E0FF24D0400302350BB6
:2033530074032BFAE43CFFEA240CF582EF3400F583E0FFBF3A00400302350BE54F7003026D
:20337300344FE54F14F556243EF5588D027F00EA24D0F568EF34FFF56990000AC006C00488
:20339300C003125F7F85825A85835BD003D00474012BFAE43CFFEA240CF582EF3400F58317
:2033B300E07A00255AFFEA355BFAEF24D0F582EA34FFF58375680C756900C004C0031260FF
:2033D3002EAA82D003D004A858A602E5562442F974022BFAE43CFFEA240CF582EF3400F534
:2033F30083E024D075F00AA4F55A74032BFAE43CFFEA240CF582EF3400F583E0255A24D0C7
:20341300F7120E4BAA4F7F0074012AF55AE43FF55B900116E0FF7A0074012FF568E43AF54A
:2034330069855A82855B8312602EAA82AF83D0068A4F90011B74052EF0023511C2C2786BAD
:20345300E4F6FFED24D0F568EF34FFF56990000AC004C003125F7FAE82AF83D003D0047434
:20347300012BFAE43CFDEA240CF582ED3400F583E07A002EFEEA3FFFEE24D0F582EF34FFA3
:20349300F5837568188A69C004C00312602EAE82D003D0048E3B74022BFEE43CFFEE240C16
:2034B300F582EF3400F583E024D075F00AA4FF74032BFBE43CFCEB240CF582EC3400F5831E
:2034D300E02F24D0F53AAE3B7F0075680C8F698E828F8312602EAE828E3C853A1E85391FE8
:2034F300853B821201C7C21B786C7618786D763C90011B7465F0800690011B74CAF0900151
:203513001BE0FFBF640050030231F3BFCA03D38001C3920E120956858247120BCE858248C6
:20353300300E2A30080ED23E90668175F0801218940240D4D23E90669475F080121894C28B
:203553003E90668175F0801218940240D430080ED23E9066BA75F0801218940240D4D23E1B
:203573009066D475F080121894C23E9066BA75F0801218940240D4900010E0FFBF6502803D
:2035930003BF452A30080ED23F90670175F080121C790240D4D23F90671975F080121C7949
:2035B300C23F90670175F080121C790240D4BF6E028003BF4E0E1202609000AF7401F01266
:2035D300029B804BBF66028003BF460D1202609000AFE4F012029B803690000EE06030902A
:2035F300000FE0602A30080ED23E90668175F0801218940240D4D23E90669475F080121810
:2036130094C23E90668175F0801218940240D430080ED23E90674475F0801218940240D489
:20363300D23E90675875F080121894C23E90674475F0801218940240D4900010E0FFBF79CA
:2036530002800DBF59028008BF44028003BF644130080DD23E90677F75F080121894801636
:20367300D23E90679475F080121894C23E90677F75F080121894C2AFC2A0752900900005DA
:2036930012022DD2A3900FA01203E775C7600240D4BF67028008BF4702800302375A900016
:2036B30014E0FE24D05076BE3A005071120260900014E024D0FE9000B1F09000D2EEF090A7
:2036D3000016E0FE24D05028BE33005023900017E0FD24D0501ABD3A005015EE24D075F08E
:2036F3000AA42D24D0FEBE180050059000B2EEF012029B30080ED23E9067BC75F0801218D8
:20371300940240D4D23E9067D275F080121894C23E9067FB75F0801218940240D430080E7F
:20373300D23E90681A75F0801218940240D4D23E90683275F080121894C23E90681A75F047
:20375300801218940240D4BF69028003BF492B30080DD23E90685D75F0801218948016D26D
:203773003E90686F75F080121894C23E90685D75F080121894C2A00240D430080ED23E9098
:20379300689475F0801218940240D4D23E9068AD75F080121894C23E90689475F08012186E
:2037B300940240D4900010E0FF24CF505ABF3A005055900012E0FF24CF504CBF3A005047F2
:2037D300120260900010E024D0C454F0FF900012E024D042079000B4EFF012029B30080E10
:2037F300D23E9068D975F0801218940240D4D23E9068FF75F080121894C23E9068D975F03C
:20381300801218940240D430080ED23E90693875F0801218940240D4D23E90695575F080BE
:20383300121894C23E90693875F0801218940240D4900010E0FFBF58028003BF7835120232
:20385300609000B5E4F012029B30080ED23F90698575F080121C790240D4D23F90699D759A
:20387300F080121C79C23F90698575F080121C790240D412026012029B9000B5E4F0900130
:203893001B7404F090011BE0FF240CF582E43400F583E0FE24D04003023BACBE330040039E
:2038B300023BAC8F057F0074012DFBE43FFCEB240CF582EC3400F583E0FC24D04003023BC3
:2038D300AC74012DFBE43FFCEB240CF582EC3400F583E0FCBC3A004003023BAC74022DFBA7
:2038F300E43FFCEB240CF582EC3400F583E0FC24D04003023BAC74022DFBE43FFCEB240C98
:20391300F582EC3400F583E0FCBC36004003023BAC74032DFBE43FFCEB240CF582EC34001B
:20393300F583E0FC24D04003023BAC74032DFBE43FFCEB240CF582EC3400F583E0FCBC3A46
:20395300004003023BAC74052DFBE43FFCEB240CF582EC3400F583E0FC24D04003023BAC42
:2039730074052DFBE43FFCEB240CF582EC3400F583E0FCBC33004003023BAC74062DFBE4CD
:203993003FFCEB240CF582EC3400F583E0FC24D04003023BAC74062DFBE43FFCEB240CF5E2
:2039B30082EC3400F583E0FCBC3A004003023BAC74072DFBE43FFCEB240CF582EC3400F573
:2039D30083E0FC24D04003023BAC74072DFBE43FFCEB240CF582EC3400F583E0FCBC36009B
:2039F3004003023BAC74082DFBE43FFCEB240CF582EC3400F583E0FC24D04003023BAC742B
:203A1300082DFBE43FFCEB240CF582EC3400F583E0FCBC3A004003023BAC8E6875690090B8
:203A3300000AC007C006C005125F7FAB82AC83D005D006D007C00674012DFAE43FFEEA24B8
:203A53000CF582EE3400F583E07A002BFBEA3CFCC3EB9428EC64809482D0064003023BAC42
:203A7300C00674052DFBE43FFCEB240CF582EC3400F583E0FC8C6875690090000AC007C0B4
:203A930006C005125F7FAB82AC83D005D006D00774062DFAE43FFEEA240CF582EE3400F510
:203AB30083E07A002BFBEA3CFCC3EB9428EC64809482D0064003023BACED24FCF582EF34D5
:203AD300FFF583756805756900C007C006C005126064AB82D005D006D00774082BFC33955A
:203AF300E0FAEC24AEF558EA3400F559EE24D075F00AA4F55A74012DFCE43FFEEC240CF54E
:203B130082EE3400F583E0255A24D075F006A4FE74022DFAE43FFCEA240CF582EC3400F5B4
:203B330083E02E24D0855882855983F074092BFB3395E0FEEB24AEFBEE3400FE74052DFA7C
:203B5300E43FFCEA240CF582EC3400F583E024D075F00AA4F55A74062DFAE43FFCEA240CFA
:203B7300F582EC3400F583E0255A24D075F006A4FC74072DFDE43FFFED240CF582EF340047
:203B9300F583E02C24D08B828E83F09000B5E0FF0F0F9000B5EFF0800690011B744BF090B5
:203BB300011BE0240AF0E0FFBF4B0050030238979000B5E0603390000012024812029B3048
:203BD300080ED23F9069C875F080121C790240D4D23F9069DD75F080121C79C23F9069C813
:203BF30075F080121C790240D430080ED23E906A0575F0801218940240D4D23E906A207563
:203C1300F080121894C23E906A0575F0801218940240D43007030240D490F010E493700ED6
:203C3300D23E906A4E75F0801218940240D4900011E0FFBF54028003BF7410C2C2D23E90E1
:203C53006A6375F0801218940240D4BF4E028003BF6E2F90F010E493FEBE011812026090FD
:203C730000BE7402F012029B786B7600786C7618786D763CD23E906A6D75F08012189402E0
:203C930040D4BF46028003BF662590F010E493FEBE020EC2C21202609000BE7401F0120297
:203CB3009BD23E906A7675F0801218940240D4900010E0FE24D04003023D4CBE3300507923
:203CD300EF24D05074BF3A00506F900012E0FD24D05066BD36005061900013E0FC24D050E2
:203CF30058BC3A005053209242D2C2EE24D075F00AA42F24D0F582ED24D075F00AA42C2465
:203D1300D0F567125ECF9005DC1203E730920ED23E906A7F75F0801218940240D4D23E9006
:203D33006A9475F0801218940240D4D23E906AB675F0801218940240D4D23E906ADC75F0F5
:203D5300801218940240D43007030240A390000FE0FFBF47028003BF671D1202609000B0DD
:203D73007401F012029B121D1CD23E906AF375F0801218940240A3BF41028003BF611B127A
:203D930002609000B0E4F012029BC21BD23E906AFC75F0801218940240A3BF2B028003020F
:203DB3003EE9900010E0FEBE38028003023EE9900011E0FEBE34028003023EE9900012E006
:203DD300FEBE30005003023EDBEE24C65003023EDB900013E0FEBE30005003023EDBEE2441
:203DF300C65003023EDB900014E0FEBE30005003023EDBEE24C65003023EDB900015E0FED5
:203E1300BE30005003023EDBEE24C65003023EDB900016E0FEBE30005003023EDBEE24C635
:203E33005003023EDB900017E0FEBE30005003023EDBEE24C65003023EDB900018E0FEBE96
:203E530030005003023EDBEE24C65003023EDB900019E0FEBE3000406FEE24C6406A900035
:203E73001AE0FEBE30004060EE24C6405B1202609000BFE4F07E018E0574112DFD3395E036
:203E9300FCED24AEFDEC3400FC8E027B0074062AFAE43BFBEA240CF582EB3400F583E08DE3
:203EB300828C83F00EBE0A0040CD9000CAE0FEBE02059000CAE4F012029BD23E906B05752C
:203ED300F0801218940240A3D23E906B2375F0801218940240A3BF300280030240039000BD
:203EF30010E0FEBE30005003023FF5EE24C65003023FF5900011E0FEBE30005003023FF5F3
:203F1300EE24C65003023FF5900012E0FEBE30005003023FF5EE24C65003023FF590001332
:203F3300E0FEBE30005003023FF5EE24C65003023FF5900014E0FEBE30005003023FF5EED1
:203F530024C65003023FF5900015E0FEBE30005003023FF5EE24C65003023FF5900016E0FA
:203F7300FEBE30005003023FF5EE24C64074900017E0FEBE3000406AEE24C64065900018EB
:203F9300E0FEBE3000405BEE24C640561202607E008E0574112DFD3395E0FCED24AEFDECB9
:203FB3003400FC8E027B0074032AFAE43BFBEA240CF582EB3400F583E08D828C83F00EBE1C
:203FD3000A0040CD9000CAE0FEBE02059000CAE4F012029BD23E906B0575F0801218940228
:203FF30040A3D23E906B2375F0801218940240A3BF78028003BF581A1202609000CA7402E4
:20401300F012029BD23E906B4875F0801218940240A390F01CE493FFBF0224900010E0FF9D
:20403300BF6E02800DBF4E028008BF66028003BF465ED23E906B5775F080121894805190A7
:204053000010E0FFBF4E028003BF6E191202609000CA7401F012029BD23E906B8975F0802B
:20407300121894802BBF46028003BF66181202609000CAE4F012029BD23E906B9875F08024
:20409300121894800BD23E906BA775F08012189490F01CE493FF139209802630080DD23EB4
:2040B300906BC475F0801218948016D23E906BD775F080121894C23E906BC475F0801218A2
:2040D3009443C1107F00EF240CFDE43400FE8D828E83E0600FEF240CF582E43400F5830FD0
:2040F300E4F080E2227F007E008F937594FF8F928F918F957596FF8FB28FB175B30275B4EB
:204113001C8FCA8FC98FC075B0FF8FA075B881759D088F978FBD75BC83D2ADD2AF9000D3CC
:2041330074FAF07535007548057547059000AD740AF09000DE7402F09000DDF09000DCF0A9
:204153009000DF7405F09000E07401F0C007C006120EC7120260D006D0079000AEE0FDBD32
:20417300FF059000AEE4F09000AEE0540370089000AEE054F4FDF09000AFE024FE500590B0
:2041930000AFE4F09000B0E024FE50069000B07401F09000B1E024F650069000B17401F015
:2041B3009000B2E024E850059000B2E4F09000B4E0FDC4540FFC7B001CBCFF011BC3740862
:2041D3009C74808BF063F08095F0500A740F5D4450FD9000B4F09000B4E0FD53050F7C0066
:2041F3001DBDFF011CC374089D74808CF063F08095F0500F9000B4E0FD74F05D4401FD90FF
:2042130000B4F090011C7401F09000B5E0FDBD0900502EED20E02A7C01C3ED9C401E8C03A2
:2042330074072BFB3395E0FAEB24AEF582EA3400F583E0FBBB900050030C80DD90011CECE3
:20425300F090011CE0FCC3ED9C40129000B57402F09000B67424F09000B7746CF090011CF7
:20427300E4F09000CAE0FDBD020050479000C9E07041FDBD0A0050368D0474112CFB339591
:20429300E0FAEB24AEF582EA3400F583E0FBBB3000401B74112CFC3395E0FBEC24AEF582C1
:2042B300EB3400F583E0FC24C640030D80C590011CEDF090011CE0FDBD0A00500B9000C96A
:2042D300E4F09000CA7402F09000CBE0FD24E750059000CBE4F03092079000BEE4F08012F3
:2042F3009000BEE0FD6005ED24FD50069000BE7402F09000CCE0FD53050F7C001DBDFF010D
:204313001CC3740A9D74808CF063F08095F050069000CC743BF0C007C00612029BD006D095
:204333000790F000E493FD74035D90011604F090F000E493A2E2923090F000E493A2E392B5
:2043530031921090F000E493A2E4923290F000E493A2E5923390F01EE493FD530560E40342
:20437300CDC40354076DCD5407CD6DCD30E20244F8FC900119EDF07D00ED2401FBE434002A
:20439300FC900119E0FABA02005008ED9060B193FA8006ED9060BC93FA8B828C83EAF00DAC
:2043B300BD0B0040D4900118E4F090F01E93FD53050F7C00C3ED9406EC6480948050119061
:2043D300F01EE493FD740F5D04FC3395E0FD802790F01EE493FB53030F7A00740CC39BF55A
:2043F30068E49AF56990003CC007C006126064AC82AD83D006D007900117ECF090F01EE426
:204413009330E405BC3C005006900118743DF090F000E49330E6067CFF7D00801130300643
:204433007A1E7B0080047A057B008A048B059000D8ECF0900116E0FDBD0103024501BD022A
:20445300028075BD0302803ABD040280030245379000D7ECF090F206E493FD24C4400A9011
:20447300F207E493FD24F4500BC007C006120E4BD006D00790F206E493F54590F207E4936B
:20449300F5419000D8E0FD9000D6F090F204E493FD24C4400A90F205E493FD24F4500BC0DE
:2044B30007C006120E4BD006D00790F204E493F54490F205E493F5409000D8E0FD9000D5F1
:2044D300F090F202E493FD24C4400A90F203E493FD24F4500BC007C006120E4BD006D0079E
:2044F30090F202E493F54390F203E493F53F9000D8E0FD9000D4F090F200E493FD24C4408F
:204513000A90F201E493FD24F4500BC007C006120E4BD006D00790F200E493F54290F201BC
:20453300E493F53ED2A2C007C0061202CCD006D00790F010E4936017C007C006125EB9D02C
:2045530006D007786B7600786C7618786D763CD20390F003E4939000D2F0C007C006120E3B
:20457300B1120581D006D007202003024B80202403024B80202803024B80755D007C009018
:20459300F01EE493F55C90F000E493C228C224C220906BFD75F080C004120517906C0E753B
:2045B300F080120517900116E02430F58212043FD0043030067A147D6C80047A1A7D6C8D64
:2045D300037D808A828B838DF0C004120517D0043031067B207D6C80047B297D6C7A808BEA
:2045F300828D838AF0C004120517752A047582C0120414D004900116E0FD149000E0F090CA
:2046130000DFE4F0EC70030248D4103B030247A0906C3275F080C004120517D004855C5E08
:20463300755F00740F555EFA7D00C3EA9406ED64809480500DAB5C740F5B04FB3395E0FDD4
:204653008023740F555EF560756100740CC39560F568E49561F56990003CC004126064AB65
:2046730082AD83D0048B609000DFE07009302B067A5F7D00802A85606275630075680A7512
:204693006900856282856383C004126064858262858363D004AB6274302BFBFA3395E0FD12
:2046B3008A82C00412043FD0049000DFE07009302B067B5F7D00802A8560627563007568C8
:2046D3000A756900856282856383C00412602E858262858363D004AA6274302AFAFB339568
:2046F300E0FD8B82C00412043F906C3675F080120517D0049000DFE0FDBD0109302B067B9C
:204713005F7D00802F7460555EF562E4F563C403C562C40354076562C5625407C56265629A
:20473300C56230E20244F8F563AA6274302AFAFB3395E0FD8B82C00412043F906C3B75F061
:2047530080120517D0049000DFE0FDBD0209302B067B5F7D00802D7410555EF562E4F56381
:20477300C4C562C4540F6562C562540FC5626562C56230E30244F0F563AA6274302AFAFB3E
:204793003395E0FD8B82C00412043FD00410200280699000DFE02401F0E0FDBD0102800AC1
:2047B300BD02028025BD0353803EAB5C530360E403CBC40354076BCB5407CB6BCB30E20278
:2047D30044F8FD9000E0EBF08031AB5C530310E4CBC4540F6BCB540FCB6BCB30E30244F06B
:2047F300FD9000E0EBF08013C0041202609000CCE55CF012029BD00475C7601024028042EF
:204813009000DFE0FDE06006ED149000DFF09000DFE0FD6005BD012A800A9000E0740F5528
:204833005CF0801EAB5C530360E403CBC40354076BCB5407CB6BCB30E20244F8FD9000E09B
:20485300EBF01028030246179000E0E02401F09000DFE0FD600DBD01028025BD02028041CB
:204873000246179000E0E024F450059000E0E4F074F0555CFD9000E0E0FB4DF55C0246176B
:204893009000E0E024FD50059000E0E4F0741F555CFD9000E0E0C42354E0FB4DF55C02466E
:2048B300179000E0E024FE50059000E0E4F074EF555CFD9000E0E0C454F0FB4DF55C024679
:2048D300179000DFE0FD24FB5003024A07ED2D2D9048E7730248F602490C02495702499A06
:2048F3000249B2900116E0149000E0F07582C4C00412049AD004024A079000E0A230E433FE
:20491300F0C0041204F2D004103B03024A07302B067B417D6C801B30300B75641475656C14
:20493300756680800975641A75656C756680AB64AD657A808B828D838AF0C004120517D078
:2049530004024A079000E0A231E433F0103B03024A07302B067B477D6C801B30310B756416
:204973002075656C756680800975642975656C756680AB64AD657A808B828D838AF0C004C1
:20499300120517D004806D906C4E75F080C004120517906C6075F080120517D0048055904C
:2049B3000116E0FD1D3030067A047B0080047A007B00EA2DFD900116E0FBBB0102801230E5
:2049D30031067A087B0080047A007B008D03EA2BFD900000C005C00412024890020012025A
:2049F30048D004D0058D29900000C00412022DD00475C760102802806C755D009000DFE0B1
:204A1300FD600ABD0102803BBD025A80489000E0E0FDBD030050090DEDFB3395E0FD80043C
:204A33007B007D009000E0EBF00B900116EBF074302BF582C00412043F7582C412049AD0F9
:204A53000480229000E0E0FD7401C39DFD24FF9230EDF080109000E0E0FD7401C39DFD24E9
:204A7300FF9231EDF0102002805D755D009000DFE02401F0906C0E75F080C00412051790CE
:204A93000116E02430F58212043FD0043030067B147D6C80047B1A7D6C7A808B828D838A97
:204AB300F0C004120517D0043031067B207D6C80047B297D6C7A808B828D838AF0C00412CA
:204AD30005171204F2D0041024030246179000DFE0FDE06006ED149000DFF0906BFD75F0E6
:204AF30080C004120517906C0E75F080120517900116E02430F58212043FD0043030067BB8
:204B1300147D6C80047B1A7D6C7A808B828D838AF0C004120517D0043031067B207D6C80C1
:204B3300047B297D6C7A808B828D838AF0C004120517D0049000DFE06003024617AD5D055A
:204B53005DED24F750177C01C0041204F2D00490F01EE4939000E0540FF0024617752A047F
:204B73007582C0C004120414D00402461775183A751900751A40751B39751C00751D40906A
:204B9300003B75F040C007C006120137D006D007E53B24E8400CE53A24C44006E53924C4D3
:204BB3005014751E00751F00758200C007C0061201C7D006D007C007C0061200F0D2A8D271
:204BD3008875183A751900751A40751B39751C00751D4090003B75F040120137121D1C9055
:204BF300F01CE493139209121F6FD006D0075029D23E906C7275F080C007C006121894D02D
:204C130006D007300913C23E906C7275F080C007C006121894D006D007E53B24F45007E599
:204C33003B24F4FD8002AD3B8D3C75BC8B90F005E493701C9000E17405F0C007C00612021F
:204C5300609000B374FFF012029BD006D00780069000E1743CF075C165900116E0FDBD0468
:204C73002090F206E493B5450B90F207E493FDB54102800DC007C006120E4BD006D0078056
:204C930070900116E0FD24FD502090F204E493B5440B90F205E493FDB54002800DC007C075
:204CB30006120E4BD006D0078047900116E0FD24FE502090F202E493B5430B90F203E493EC
:204CD300FDB53F02800DC007C006120E4BD006D007801E90F200E493B5420B90F201E49309
:204CF300FDB53E02800BC007C006120E4BD006D0079000E1E060069000DFE0702B9000DF6F
:204D1300E4F07405B5470EC007C006120956858247D006D0077405B5480EC007C006120B02
:204D3300CE858248D006D007203A18300215D23E906C9475F080C007C006121894D006D067
:204D530007D23A303A18200215D23E906CA475F080C007C006121894D006D007C23A90005B
:204D7300D3E0702E20342BD234D23E906CB975F080C007C006121894D006D007300913C29A
:204D93003E906CB975F080C007C006121894D006D0079000D4E0702E20352BD235D23E9027
:204DB3006CC875F080C007C006121894D006D007300913C23E906CE175F080C007C0061222
:204DD3001894D006D007900116E0FD24FE50349000D5E0702E20362BD236D23E906CF07560
:204DF300F080C007C006121894D006D007300913C23E906D0975F080C007C006121894D0E6
:204E130006D007900116E0FD24FD50349000D6E0702E20372BD237D23E906D1875F080C040
:204E330007C006121894D006D007300913C23E906D3175F080C007C006121894D006D007D0
:204E5300900116E0FDBD04349000D7E0702E20382BD238D23E906D4075F080C007C0061283
:204E73001894D006D007300913C23E906D5975F080C007C006121894D006D007201C030206
:204E93004F5E20A0169000ADE014F0E0700D75BC83D2A09000AD741EF0D2059000CFE0FD06
:204EB300E0602D9000CDE07027ED149000CFF0E0701E9000CD7405F09000CFF0C007C0063E
:204ED300120956858247120BCE858248D006D0077405B547028022E54724D4FCE43400FDCB
:204EF3008C828D83E0FB60111B8C828D83EBF0EB7007C217C2157547057405B54802802234
:204F1300E54824D4FCE43400FD8C828D83E0FB60111B8C828D83EBF0EB7007C218C2167541
:204F330048059000E1E0601090F010E49360032092069000E1E014F09000DCE0FDE0600947
:204F5300302206ED149000DCF0C21CC007C0061207B3D006D0079000DFE0701B90F000E467
:204F730093601490F010E493FDBD020BC007C0061208FAD006D00790F003E49360159000FC
:204F9300D2E0700F90F004E493FDB53B06E53A24FA4006E53524FD50347405B5472F740580
:204FB300B5482A90F010E4936003209220C2AFC2A0752900900005C007C00612022DD2A332
:204FD300900FA01203E7D006D00775C76020035E74FB253A4058201B2390F002E493601C80
:204FF300C007C006121D1CD006D007E53B24F45007E53B24F4FD8002AD3B8D3C90F001E4BD
:20501300936029D23E906D6875F080C007C006121894D006D007300913C23E906D6875F0F9
:2050330080C007C006121894D006D007D2039000DFE0FD24FA5003025E20ED2D2D90505458
:20505300730250660255E10259F0025DA2025BF802530A30055775BC8BC2059000E5E4F082
:20507300C007C006121D1CAB3B7C0075680C8C698B828C8312602EAB828B3C121F6FD006DF
:20509300D0075029D23E906D7975F080C007C006121894D006D007300913C23E906D797513
:2050B300F080C007C006121894D006D007300C19C007C006122F1E90664775F0801202F905
:2050D300D006D007C20C02528C900116E0FCBC01028014BC02028041BC03030251DCBC045A
:2050F300030251780252383030067B8F7C6D80047B977C6D8B2E8C2F753080853E31854217
:2051130032853933A21E9201758280C007C006120602D006D007025238752E9F752F6D75E7
:205133003080853E318542327533FDA21E9201758280C007C006120602752E9F752F6D75E1
:205153003080853F318543327533FDA21E9201758287120602906D9F75F080120517D00688
:20517300D007025238301B067BA27C6D801F90F002E493600B7564A675656D7566808009B5
:205193007564AA75656D756680AB64AC658B2E8C2F753080853B31853A32853933A21E92F9
:2051B300017582C5C007C006120602752EAE752F6D7530808541318545327533FBC2017523
:2051D30082C0120602D006D007752EAE752F6D753080853E318542327533FBC20175828062
:2051F300C007C006120602752EAE752F6D753080853F318543327533FBC201758285120685
:2052130002752EAE752F6D7530808540318544327533FBC20175828A1206027582201204D3
:205233003FD006D007900116E0FCBC0402804A301B067B517C64801F90F002E493600B75EB
:2052530064617565647566808009756459756564756680AB64AC658B2E8C2F753080853B10
:2052730031853A32853933A21E92017582C0C007C006120602D006D0079000DCE0600302F9
:205293005E29301503025E29C2209000E1743CF09000CEE4F09000CDF09000CFF09000DF73
:2052B3007405F09000E07401F0754805754705C2C2786B76001024028003025E29300921A1
:2052D300D23E906DB075F080C007C006121894C23E906DC475F080121894D006D007025E5D
:2052F30029D23E906DC475F080C007C006121894D006D007025E29102002802F9000E17475
:205313003CF09000E0E02401F0E0FCBC040D90F010E49370069000E0EC04F09000E0E0FC27
:2053330024FB50059000E0E4F0C22B102802800D9000E1743CF09000E0E4F0C22B10240375
:205353000255749000E1743CF09000E0E09000DFF09000E0E4F0C007C0061209568582471F
:20537300120BCE858248D006D0079000DFE07003025E29758280C007C00612049A9000DFC5
:20539300E075F011A424CFFB746035F0FC7A808B828C838AF0120517D006D0079000DFE063
:2053B300FCBC01028015BC02030254EBBC0303025532BC040302554F025E29900116E0FCC8
:2053D300BC012F3030067A8F7B6D80047A977B6D8A2E8B2F753080853E31854232753300CE
:2053F300D2017582C0C007C006120602D006D007806EBC030050067BC07C0080047B807C07
:20541300008B82752E9F752F6D753080853E318542327533FDD201C007C006120602D00612
:20543300D007900116E0FCBC030050067BC77C0080047B877C008B82752E9F752F6D753025
:2054530080853F318543327533FDD201C007C006120602906D9F75F080120517D006D0074F
:20547300900116E0FC24FD4003025E29752E9F752F6D7530808540318544327533FDD201C8
:205493007582C0C007C006120602D006D007900116E0FCBC042E752E9F752F6D7530808580
:2054B30041318545327533FDD2017582C7C007C006120602906D9F75F080120517D006D039
:2054D30007025E29906DDA75F080C007C006120517D006D007025E29301B067B517C6480FF
:2054F3001F90F002E493600B7564617565647566808009756459756564756680AB64AC65CF
:205513008B2E8C2F753080853B31853A32853933D2017582C0120602AF3BAE3A025E29907D
:205533006DE475F080C007C006120517752A047582C0120414D006D007025E29752EF575A0
:205553002F6D753080753100753200753300A21E92017582C0120602D2C27E007F00025E6D
:2055730029301B067B517C64801F90F002E493600B756461756564756680800975645975EC
:205593006564756680AB64AC658B2E8C2F7530809000E1E0F533853B31853A32A21E92016D
:2055B3007582C0C007C0061206029000E0E075F011A424CFFB746035F0FC8B2B8C2C752D1D
:2055D30080758280120424D006D007025E299000E0E0FCBC0800500F900116E0FC24FD50EE
:2055F300067B807C0080047BC07C00900116E0FCBC0132C0039000E0E0FC2407FA8C037C2F
:20561300007568028C698B828C83C007C006C002126064AB82AC83D002D006D007EB2AF57D
:2056330064D003804FC0039000E0E0FC7A0074075CF5608A61AB6074022BF5627568028A45
:2056530069856082856183C007C006126064E5822562FB756804756900856082856183C063
:2056730003126064AA82AC83D003D006D007EA2BF564D00385642A8B82C007C0061204144B
:20569300D006D00710280302591F9000E1743CF09000E0E0FC24F05003025807EC240A83D3
:2056B300F582EC241483F583E473DD2B95C7DD2B95C7DD2B95C7DD2B95C756575757565752
:2056D300575756575757565757578C027B007568048B698A828B83C007C006126064AA82CC
:2056F300D006D007EA243EF9E7FB24F25023C0068B027E0075680A8E698A828E83C007C0E7
:205713000112602EAA82D001D007A702D006025807740A2BF70258078C027B007568048BAB
:20573300698A828B83C007C006126064AA82AB83D006D007EA243EF9E7F56424E95005770B
:2057530014025807C001AA647B0075680A8B698A828B83C007C006C00112602EAA82AB833A
:20577300D001D006D007BA0905BB00028004D001800AD001E564FB24F7F78078E56404F7D1
:2057930080728C027B007568048B698A828B83C007C006126064AA82D006D007EA2442F987
:2057B300E7FB24CE50088B02EA24CEF78046740A2BF780407B007568048B698C828B83C0F8
:2057D30007C006126064E5822442F987040CA7047B0075680A8B698C828B83C00112602E38
:2057F300E5828583F0D001D006D00745F07005E7FC24F6F7900116E0FCBC01313030067ACA
:205813008F7B6D80047A977B6D8A2E8B2F753080853E31854232753300A21E92017582C04B
:20583300C007C006120602D006D007806EBC030050067BC07C0080047B807C008B82752E9C
:205853009F752F6D753080853E318542327533FDD201C007C006120602D006D00790011600
:20587300E0FCBC030050067BC77C0080047B877C008B82752E9F752F6D753080853F318565
:2058930043327533FDD201C007C006120602906D9F75F080120517D006D007900116E0FC82
:2058B30024FD5068752E9F752F6D7530808540318544327533FDD2017582C0C007C00612C5
:2058D3000602D006D007900116E0FCBC042D752E9F752F6D7530808541318545327533FD80
:2058F300D2017582C7C007C006120602906D9F75F080120517D006D0078011906DDA75F034
:2059130080C007C006120517D006D00710240280149000E1743CF09000E0E0FCE06006EC33
:20593300149000E0F0202003025E29C006C2209000E1743CF09000E0E02401F0900116E06F
:205953007B0025E0FCEB33FBEC2CFCEB33FB1CBCFF011B9000E0E0FA7E00C3EC9AEB64809F
:205973008EF063F08095F0D0064003025E29C007C0061204F29000DFE09000E0F09000DFE9
:205993007405F0AB3E7C0075680C8C698B828C8312602EAB828B3EAB3F7C0075680C8C6952
:2059B3008B828C8312602EAB828B3FAB407C0075680C8C698B828C8312602EAB828B40AB7D
:2059D300417C0075680C8C698B828C8312602EAB828B41120E4BD006D007025E299000E053
:2059F300E0FC2407FB7A007568028A698C828A83C007C006C003126064AA82D003EA2BF5FC
:205A13002A7582C0120414D006D00790F002E493603F9000DCE070399000DFE09000E0F07F
:205A33009000DF7405F0786C7618786D763C90F002E493600BC007C006121D1CD006D00789
:205A5300E53B24F45007E53B24F4FC8002AC3B8C3C102803025B6F9000E1743CF09000E0B7
:205A7300E0FC24FC5003025B26EC2C905A82738006802D80618074EF24F2501C8F037C00C3
:205A930075680A8C698B828C83C00612602EAB82AC83D0068B07807B8F04740A2CFF8073A7
:205AB300EF24E950047F14806A8F037C0075680A8C698B828C83C007C00612602EAB82ACFA
:205AD30083D006D007BB090BBC00088F04EC24F7FF80400F803DEE24CE50088E04EC24CE23
:205AF300FE80308E04740A2CFE80280E8E037C0075680A8C698B828C83C007C00612602EC3
:205B1300E5828583F0D006D00745F070068E04EC24F6FE301B067B517C64801F90F002E423
:205B330093600B7564617565647566808009756459756564756680AB64AC658B2E8C2F7524
:205B530030809000E1E0F5338F318E32D2017582C0C007C006120602D006D00710240280F5
:205B7300149000E1743CF09000E0E0FCE06006EC149000E0F0102003025E299000E1743C1E
:205B9300F09000E0E02401F0E0FC24FC4003025E29C007C0061204F2D006D0079000DFE044
:205BB3009000E0F09000DF7405F08F3B8E3A853A1E85391F853B82C007C0061201C7AB3BBF
:205BD3007C0075680C8C698B828C8312602EAB82AC83D006D0078B3CC21B786C7618786D98
:205BF300763C025E299000E0E0FC2407FB7A007568028A698C828A83C007C006C0031260BC
:205C130064AA82D003EA2BF52A7582C0120414D006D0079000DCE070109000DFE09000E0C1
:205C3300F09000DF7405F0C2C2102803025D209000E1743CF09000E0E0FC24FC5003025C1D
:205C5300FEEC2C905C5A738006802D80618074EF24F2501C8F037C0075680A8C698B828C66
:205C730083C00612602EAB82AC83D0068B07807B8F04740A2CFF8073EF24E950047F1480D7
:205C93006A8F037C0075680A8C698B828C83C007C00612602EAB82AC83D006D007BB090B7C
:205CB300BC00088F04EC24F7FF80400F803DEE24CE50088E04EC24CEFE80308E04740A2C56
:205CD300FE80280E8E037C0075680A8C698B828C83C007C00612602EE5828583F0D006D0C6
:205CF3000745F070068E04EC24F6FE752EF5752F6D7530808F318E32753300A21E9201758B
:205D130082C0C007C006120602D006D00710240280149000E1743CF09000E0E0FCE060066D
:205D3300EC149000E0F0102003025E299000E1743CF09000E0E02401F0E0FC24FC4003027D
:205D53005E299000E0E4F08E678F82C007C006125ECF9000641203E7D006D0073092067BB3
:205D7300FD7C6D80047B057C6E8B2E8C2F7530808F318E32753300A21E92017582C0C007AA
:205D9300C0061206021204F2D006D007025E29102002802B9000CD7405F09000E0E090004F
:205DB300CE04F09000CF7405F09000E0EDF09000DF7405F0C007C0061204F2D006D00710CF
:205DD300280280529000E0E02401F0900116E0FD7C001DBDFF011C9000E0E0FB7A00C3EDE4
:205DF3009BEC64808AF063F08095F050059000E0E4F09000E0E02431F582C007C0061204FB
:205E13003F7582C412049AD006D00780099000E0E4F09000DFF043C110024C6CC0E043C17A
:205E330010E59A30E003539AFED0E032C028C0E0C0F0C082C083C007C006C005C004C0034A
:205E5300C002C001C000C0D075D00075BC83AFBD786AA6077405B5472D7405B548283002F6
:205E730012BF52005004C2A2801CEF24915017C2028013BF5C00500ED20275480575470566
:205E930053A00F120E4B75BC8BD0D0D000D001D002D003D004D005D006D007D083D082D015
:065EB300F0D0E0D028321F
:2060B1003039343938343730393800303938383838383930310080901030206040C020208A
:2060D10020202020455849542020202020200020204348494E482047494F204B494D20006B
:2060F100204348494E482047494F205448554320002020202043414E48204B494D20202097
:2061110020002020202054455354204D5033202020200020415349412047505320342E3123
:206131002E30530044482C4F4E20646F6E6720686F2063686179202D2044482C4F464620A4
:20615100646F6E6720686F2064756E670A44482C2B6D6D206B696D2070687574206C656364
:20617100682064756F6E67206D6D2070687574202D2044482C2D6D6D206C65636820616DB8
:20619100206D6D20706875740A44482C6B6B6B6B2C74747474206368696E682067696F2000
:2061B1006B696D2067696F20746875632067696F20747520646F6E6720746861792074744C
:2061D10074742062616E67206175746F0A42432C4F4E2062616F2063616F20646175206757
:2061F100696F202D2042432C4F4646207461742062616F2063616F206461752067696F0AEC
:206211004243206775692062616F2063616F202D2042432C44454E2042432C4D50332062C6
:20623100616F2063616F2064656E2062616F2063616F206D70330A52532072657365743AD2
:2062510052532C7379732072657365742068652074686F6E67202D2052532C73696D207274
:206271006573657420677073206D6F64756C650A52532C472C6E6E2C6767206D6F69206E35
:206291006E206E6761792076616F2067696F2067673A303620626F2064696575206B686949
:2062B100656E2072657365740A44454E2C584F4120786F6120746F616E20626F2074686F2C
:2062D1006E6720736F2064656E207461742064656E0A44454E2C747474742C6D6D6D6D20E2
:2062F100783A20736F206361702067696F207461742F6D6F20747474742C6D6D6D6D20675B
:20631100696F207461742F6D6F2064656E0A4D50332C582C616C6C20786F61207461742015
:206331006361202D204D70332C582C61612C62622C63632C2E2E2E20786F61206361632052
:2063510067696F2061612C62622C63630A4D50332C542C676770702C32322C31312C2E2E4F
:206371002E206C6170206C616920746F69206461203132206C616E20676770703A67696FB5
:2063910020706875742070686174206E6861630A32322C31312074687520747520626169C2
:2063B10020686174206C616E206C756F742074726F6E6720746875206D75632032207661C7
:2063D10020310A44542C307878787878787878782044542C2B383478787878787878787872
:2063F100207468617920646F6920736F206469656E2074686F6169207068750A44542C58D0
:206411004F4120786F6120736F206469656E2074686F6169207068750A44542C4F4E204440
:20643100542C4F4646202D2062617420746174206469656E2074686F6169207068750A0077
:206451002020475053202000204153494120200020202044532020001A00544B3C31303086
:2064710030204B2042414F43414F0041542B434D47533D2200220D0041542B435553443D07
:20649100312C222A31303123222C0D0020204B49454D2054524120544B20202000204B003B
:2064B10020543D00204750533D002044483D002042433D002058473D002052533D00205496
:2064D100523D003A3036002044454E3D0020564F4C3D00204D50333D002044543D00415443
:2064F1000D000D544B204368696E683D000D546169206B686F616E20636F6E2064756F69FE
:206511002031303030300044414E47204755492042414F2043414F000D4D4F44454E3D0098
:206531000D4B686F6E6720636F2067696F206D6F2064656E000D47696F204D6F2044656E63
:206551003A0030202D20004755492042414F2043414F2044454E2000204755492048554F61
:206571004E472044414E20200041542B4950523D300D00202053454E44494E4720495052CA
:206591002020200041542B434C49503D310D00202053454E44494E4720434C495020200057
:2065B10041542B434C54533D310D00202053454E44494E4720434C545320200041542B4378
:2065D10046554E3D300D00202053454E44494E47204346554E3020200041542B4346554E57
:2065F1003D310D00202053454E44494E47204346554E3120200041542B434D47463D310DB2
:2066110000202053454E44494E4720434D474620200041542B434E4D493D312C312C302C6A
:20663100302C310D00202053454E44494E4720434E4D4920200041542B434D4744413D2265
:2066510044454C20414C4C220D00202053454E44494E4720434D4744412020004154480D3E
:206671000041542B434D474C3D22414C4C220D000D6C656E68206B686F6E6720686F70204D
:206691006C65000D6C656E68206B686F6E6720686F70206C650D50686F6E65207068752041
:2066B100677569206C656E68000D6368696E6820646F6E6720686F207468616E6820636FC2
:2066D1006E67000D6368696E6820646F6E6720686F207468616E6820636F6E670D50686FD0
:2066F1006E652070687520677569206C656E68000D62616F2063616F2064656E20746861D7
:206711006E6820636F6E67000D62616F2063616F2064656E207468616E6820636F6E670DDB
:2067310050686F6E652070687520677569206C656E68000D62616F2063616F207468616E58
:206751006820636F6E67000D62616F2063616F207468616E6820636F6E670D50686F6E6566
:206771002070687520677569206C656E68000D726573657420626F2064696575206B68692B
:20679100656E000D726573657420626F2064696575206B6869656E0D50686F6E65207068FF
:2067B1007520677569206C656E68000D646174207265736574207468616E6820636F6E67A4
:2067D100000D646174207265736574207468616E6820636F6E670D50686F6E6520706875B1
:2067F10020677569206C656E68000D646174206E6761792067696F207265736574207468A9
:20681100616E6820636F6E67000D646174207265736574206B686F6E6720686F70206C6551
:20683100000D646174207265736574206B686F6E6720686F70206C650D50686F6E65207098
:20685100687520677569206C656E68000D72657365742067736D20736175313073000D72CB
:20687100657365742067736D207361753130730D50686F6E652070687520677569206C65E8
:206891006E68000D6C656E68207265736574206B686F6E6720686F70206C65000D6C656E3F
:2068B10068207265736574206B686F6E6720686F70206C650D50686F6E6520706875206792
:2068D1007569206C656E68000D7468617920646F692067696F2073616320786120616371DF
:2068F1007569207468616E6820636F6E67000D7468617920646F692067696F2073616320BA
:206911007861206163717569207468616E6820636F6E670D50686F6E6520706875206775F0
:2069310069206C656E68000D4C656E6820736163206163717569206B686F6E6720686F705A
:20695100206C65000D4C656E6820736163206163717569206B686F6E6720686F70206C6588
:206971000D50686F6E652070687520677569206C656E68000D786F612067696F2064656E5B
:20699100207468616E6820636F6E67000D786F612067696F2064656E207468616E6820632B
:2069B1006F6E670D50686F6E652070687520677569206C656E68000D6C656E682064656ED7
:2069D100207468616E6820636F6E67000D6C656E682064656E207468616E6820636F6E67A7
:2069F1000D50686F6E652070687520677569206C656E68000D74686F6E6720736F206465CE
:206A11006E206B686F6E6720686F70206C65000D74686F6E6720736F2064656E206B686F80
:206A31006E6720686F70206C650D50686F6E652070687520677569206C656E68000D4B68B8
:206A51006F6E6720436F204D6F64756C65204D7033000D44756E67204D7033000D426174AA
:206A7100206D7033000D546174206D7033000D54657374206D7033207468616E6820636F6D
:206A91006E67000D6B686F6E672064756E672067696F207068617420686F6163206D703307
:206AB100206C6F69000D4D70332064616E672063686F69206E686163206E656E206368756C
:206AD10061207468652074657374000D4C656E68204D5033206B686F6E6720686F70206C55
:206AF10065000D42617420475053000D54617420475053000D6768692070686F6E652070A3
:206B11006875206D6F69207468616E6820636F6E67000D7468617920646F692070686F6E34
:206B31006520706875206B686F6E67207468616E6820636F6E67000D586F612070686F6E37
