:2000A500AF827E0075720A8E738F828E83C007C006125135AC82D006D007ECC454F0FC7513
:2000C500720A7573008F828E83C0041250FFAE82D004EE4CF58222E582FFC4540F75F00A9D
:2000E500A4FE740F5F2EF582221203187582D012035775820712035775821012035702036E
:20010500331203187582D01203577582041203571203331203187582D1120357C200120360
:200125007C1200DCAF82C007120333D0078F8222AD82AE83AFF0C007C006C0051203187513
:2001450082D01203577582001203571203331203187582D1120357AA1BAB1CAC1DD200C0E9
:2001650004C003C00212037C1200DCA982D002D003D0048A828B838CF0E9125035AA18AB4B
:2001850019AC1AD200C004C003C00212037C1200DCA982D002D003D0048A828B838CF0E9BE
:2001A500125035C20012037C1200DCAC82D005D006D0078D828E838FF0EC12503502033358
:2001C500AF82C0071203187582D0120357758200120357851F821200A5120357851E8212DF
:1201E50000A5120357D0078F821200A5120357020333B4
:2001F70075C70075C50075C60075C38075C40043C11022AE82AF8375C78375C5018EC48FD3
:20021700C375C65A75C6A500AFC2C0071201F7D0078F8222AE82AF8375C78375C5028EC494
:200237008FC38528C275C65A75C6A5000201F7AE82AF8375C78375C5038EC48FC375C65AE0
:2002570075C6A5000201F743C1107F20EF60101FEF24A3F582E43400F58374FFF080EDBF30
:2002770020005018EF24A3FDE43400FE8F827583F00FE493FC8D828E83F080E39000000296
:2002970002467F00BFCD00502975C78375C5028FC475C300EF24A3F582E43400F5830FE049
:1302B700F5C275C65A75C6A500C0071201F7D00780D222EC
:2002CA00759850438E40538EFE758BCC758DFFC2ABD28ED2ACD2A022AD82AE83AFF0C299C1
:2002EA008D828E838FF01250E3FC60218C9920990543C11080F8C2998D828E838FF01250C8
:0E030A00E3FCBC1A01220DBD00D60E80D322EA
:20031800D2C043C11043C110D2CD43C11043C110C2C043C11043C110C2CD22C2C043C11053
:2003380043C110D2CD43C11043C110D2C02243C11043C110D2CD43C11043C110C2CD22AFC7
:20035800827E00EF23540124FF92C08F05ED2DFFC007C006120346D006D0070EBE08004053
:20037800E20203467F00D2C07E0043C11043C110D2CD43C11043C1108F05ED2DFDA2C0E4C9
:1E039800334DFFC2CD0EBE080040DFA200B392C0C007120346D007A2C092CD8F8222B2
:2003B600AE82AF837C007D00C3EC9EED9F500A43C1100CBC00F20D80EF22AE82AF837C004F
:2003D6007D00C3EC9EED9F501D9003E8C007C006C005C0041203B6D004D005D006D0070C86
:2003F600BC00DF0D80DC22AF82E5294FF58212048375820D020483AF823028118F821204D5
:2004160083852A82852B83852CF00205008F820204E1E582FFC4540124FF9283EFA2E5E42E
:200436003324FF9282EF2323540124FF9281EF23540124FF9280D284D285C284EF54012485
:20045600FF9283EF03540124FF9282EF03035401FE24FF9281EFA2E3E433FF24FF9280D2E5
:200476008400C2849000321203B6C28522E582FFC4540124FF9283EFA2E5E43324FF92822B
:20049600EF2323540124FF9281EF23540124FF9280D284C285C284EF540124FF9283EF0399
:2004B600540124FF9282EF03035401FE24FF9281EFA2E3E433FF24FF9280D28400C2849031
:2004D60000320203B675820C020483E582FF600E8F8212048390517175F0800205007582DA
:2004F600011204839006400203B6AD82AE83AFF07C008D828E838FF01250E3FB6055BC10E0
:20051600005050BB80005025EB24E050200CEC601C8B820DBD00010EC007C006C005C004A6
:20053600120428D004D005D006D00780C58D828E838FF01250E3FBA3AD82AE838B82C00716
:20055600C006C005C004120483D004D005D006D007809F22C286903A981203B675801C0080
:20057600C284900FA01203B6D28400C2849000A01203B6D28400C2849000A01203B67580F2
:200596001400C2849003E81203B6D28400C2840075801100C2849000281203B67580100035
:2005B600C2840075801300C2849000281203B675801000C2840075801600C28490002812A8
:2005D60003B675801000C2840075801800C2849003E80203B6AF82E5322405400302067D3F
:2005F600AD307E0075720A8E738D828E83C007C006C005125135AB82D005D00674302BF5F2
:200616003375720A7573008D828E831250FFAD8274302DF534AD317E0075720A8E738D82B1
:200636008E83C006C005125135AB82D005D00674302BF53575720A7573008D828E83125044
:20065600FFAD82D00774302DF5367537008F82120483852D82852E83852FF0120500900078
:200676003375F040020500AD307E0075720A8E738D828E83C007C006C005125135AB82D031
:2006960005D00674302BF53875720A7573008D828E831250FFAD82D00774302DF5393001DD
:2006B600067D3A7E0080047D207E008D3AAD317E0075720A8E738D828E83C007C006C005C3
:2006D600125135AB82D005D00674302BF53B75720A7573008D828E831250FFAD82D00774C1
:2006F600302DF53C3001067D3A7E0080047D207E008D3DAD327E0075720A8E738D828E8312
:20071600C007C006C005125135AB82D005D00674302BF53E75720A7573008D828E831250A4
:20073600FFAD82D00774302DF53F7540008F82120483852D82852E83852FF012050074E8B9
:0E0756002530400990003875F0400205002261
:1151710020202020202020202020202020202020002D
:06000000020049020B168C
:03000B00020E6A78
:0100130032BA
:01001B0032B2
:03002300021C526A
:03002B00024EE79B
:01003300329A
:03003B00020B664F
:03004300024ED793
:0300A20002004613
:03004600023C4A2F
:20076400E54875F006A4FFAD477E0075720A8E738D828E83C007125135AD82D007ED2FF540
:20078400597E017D0190F008E493FCC3ED9C400302082EED90F00893FC8D030BEB3395E00B
:2007A400FAEB2408F582EA34F0F583E493F9C3EC99E433F97C0009B900010CED90F008930C
:2007C400F8C3E55998E4337F0029F9EF3CFCEB2408F582EA34F0F583E493FFC3E5599FE497
:2007E400337B0029F582EB3CF5837572028B73C006C0051250FFE5828583F0D005D00645E6
:20080400F060218E047F008C828F83A37572028F73C0061250FFAC82AF83D006EC4F24FFE9
:2008240092A180060D8D0602078990F008E493FFEEB50702800122EE90F00893FF90F009EB
:20084400E493FDC3EF9DE433FF7D000FBF00010DEE90F00893FCC3E5599CE4337B002FFF00
:20086400EB3DFD90F009E493FCC3E5599CE4337B002FF582EB3DF5837572028B73C006121F
:2008840050FFE5828583F0D00645F060197F008E828F83A37572028F731250FFAE82AF8330
:2008A400EE4F24FF92A1227875B60002800E7875B6010280447875B6024880287876E6B5C4
:2008C40048077877E6B5470122AF487876A607AE477877A6068E718F82124FA075415A7816
:2008E4007576022230920BD2C27875A2C2E433F68007AF411541EF700920920678757600D6
:20090400C2C22275570120021790F000E493601090F01EE493FF24E84006900111E0600474
:20092400758205229000C4E0FF601B9000C3E0600EBF030050091FEFFE3395E0FF80047E76
:20094400057F008E8222AE547F008E828F83A37572028F731250FFAE828E07EF24CAFCE4C9
:200964003400FD8C828D83E06016EF244FF9E7B5470BEF244BF9E7FDB5490280038F822294
:200984008F057401C39DFFB506D17582052275580120021790F000E493601090F01EE493BE
:2009A400FF24E84006900111E06004758205229000C4E0FF601B9000C3E0600EEF24FD502F
:2009C400091FEFFE3395E0FF80047E057F008E8222AE557F008E828F83A37572028F73125B
:2009E40050FFAE8274022EFFFEEE24CAFCE43400FD8C828D83E06016EE244FF9E7B5470B2A
:200A0400EE244BF9E7FDB5490280038E82228E057405C39DFEB507D175820522900200122A
:200A24000246854F2890020012022B854B2890020112022B85502890020212022B854C280A
:200A440090020312022B85512890020412022B854D2890020512022B855228900206120270
:200A64002B854E2890020702022B75FA0075EA009000C674A8F07461A3F075DA49D2DE2282
:200A8400538E7F758900758A24758CFAC28DD28CD2A92243C110B21BA21B9287D219900159
:200AA40014E0FFE06006EF14900114F0900116E0FFE06006EF14900116F0900111E0FFBFBB
:200AC4000201220546E54624C45046754600E5426006D54303754200D21A0547E54724C493
:200AE400502FC2037547000548E54824E85017787676187548009000C8E0FFE06006EF144C
:200B04009000C8F0C2040549E54924F4500375490022C027C0E0C0F0C082C083C007C006B3
:200B2400C005C004C003C002C001C000C0D075D00843C1109000C974FAF0C22C75D0001235
:200B44000A9775D008D0D0D000D001D002D003D004D005D006D007D083D082D0F0D0E0D082
:200B64002732C027C0E0C0F0C082C083C007C006C005C004C003C002C001C000C0D075D06B
:200B84000843C11010D803020E4D9000C6E0FEA3E0FF8EEA8FFA9000C674A82EF074613F92
:200BA400A3F07405B55403020C7120B70D301205D214020C71D212020C71201603020C65FB
:200BC400E55424CAFEE43400FF9000CEE08E828F83F09000C3E0FFE06008EF149000C3F0C5
:200BE4008062E557602EE554244FF9870F0FA70FEF24C4501FE554244FF87600E554244B3D
:200C0400F9870F0FA70FEF24F45039E554244BF876008030E557702CE554244FF9870F1FF4
:200C2400A70FEF24C3501DE554244FF8763BE554244BF9870F1FA70FEF24F35007E554249C
:200C44004BF8760BC214C212C21675D00012090775D00885825475D000120A2075D00880ED
:200C64000C301404D216800510120280007405B55503020D3C20B60D301305D215020D3CDD
:200C8400D213020D3C201703020D30E55524CAFEE43400FF9000CEE08E828F83F09000C3C7
:200CA400E0FFE06008EF149000C3F08062E558602EE555244FF9870F0FA70FEF24C4501FCF
:200CC400E555244FF87600E555244BF9870F0FA70FEF24F45039E555244BF876008030E5BC
:200CE40058702CE555244FF9870F1FA70FEF24C3501DE555244FF8763BE555244BF9870F1A
:200D04001FA70FEF24F35007E555244BF8760BC215C213C21775D00012099275D0088582B0
:200D24005575D000120A2075D008800C301504D21780051013028000301C0930B5069001D3
:200D44000E7402F0301C0330B5047F0080027F01EF24FF921F201E0330B5047F0080027FF5
:200D640001EF24FF921C201D0A201F03201C047F0080027F01EF24FF921DA2B5921E30204C
:200D84000930B30690010F7402F030200330B3047F0080027F01EF24FF922320220330B3AD
:200DA400047F0080027F01EF24FF922020210A2023032020047F0080027F01EF24FF9221CB
:200DC400A2B3922230240930B4069001107402F030240330B4047F0080027F01EF24FF9254
:200DE4002720260330B4047F0080027F01EF24FF922420250A2027032024047F0080027FED
:200E040001EF24FF9225A2B492269001CFE014F0E070089001CF740EF0B2289000C9E0FF76
:200E2400E0600EEF149000C9F09001D0741CF080189001D0E014F0E0700F9001D0741CF016
:200E440075D000120A9775D008D0D0D000D001D002D003D004D005D006D007D083D082D098
:200E6400F0D0E0D02732C0E0C0D075D01043C110E554B40100E43324FF92A77401B5540429
:200E840074018001E424FF92A67402B5550474018001E424FF92A57403B5550474018001E6
:200EA400E424FF92A4D0D0D0E032AD82AE83AFF0AC5B900115ECF0855AF0ECA4FB900116E6
:200EC400740A2BF0C229AB5A302903020FDB900116E07003020FDB43C110758280C007C045
:200EE40006C005C004C003120483855C82855D83855EF0120500D003D004D005D006D00728
:200F0400301832752D17752E55752F80854830854731854632A21B92017582C0C007C006F3
:200F2400C005C004C0031205EBD003D004D005D006D007806990F003E4937032752D1F757B
:200F44002E55752F80854830854731854632A21B92017582C0C007C006C005C004C00312FD
:200F640005EBD003D004D005D006D0078030752D27752E55752F80854830854731854632C8
:200F8400A21B92017582C0C007C006C005C004C0031205EBD003D004D005D006D0079001B1
:200FA40014E06003020ECC8B021BEA602A900114ECF0900115ECF08D828E838FF0C007C0B5
:200FC40006C005C004C0031202E2D003D004D005D006D007020ECC7582801204E1A2292265
:200FE400900001E06020900004E0701A755C31755D55755E80755A03755B0190552F75F066
:2010040080120EAEC32290554275F0801202E23032067E827F5180047E127FF07D808E82CF
:201024008F838DF01202E290554C75F0801202E29000051203D0D322900001E4F0C20D90E8
:2010440001177407F0755C63755D55755E80755A0F755B0190554F75F080120EAE9001171D
:20106400E4F0900001E024FF2285825F85836085F0619001497420F090014A744BF09001C5
:201084004B743DF0AB4B7C0075720A8C738B828C83125135AB8274302B90014CF0AB4B7C0F
:2010A4000075720A8C738B828C831250FFAB8274302B90014DF090014E743AF0AB4F7C0002
:2010C40075720A8C738B828C83125135AB8274302B90014FF0AB4F7C0075720A8C738B8229
:2010E4008C831250FFAB8274302B900150F0900151742CF0AB4C7C0075720A8C738B828C41
:2011040083125135AB8274302B900152F0AB4C7C0075720A8C738B828C831250FFAB827460
:20112400302B900153F0900154743AF0AB507C0075720A8C738B828C83125135AB8274300D
:201144002B900155F0AB507C0075720A8C738B828C831250FFAB8274302B900156F0900142
:2011640057E4F09001587420F09001597454F090015A743DF0AB487C0075720A8C738B8239
:201184008C83C004C003125135AA82D003D00474302A90015BF075720A7573008B828C83AB
:2011A4001250FFAE8274302E90015CF090015D743AF0AE477F0075720A8F738E828F83C016
:2011C40007C006125135AC82D006D00774302C90015EF075720A7573008E828F831250FFC0
:2011E400AE8274302E90015FF09001607420F09001617447F09001627450F0900163745395
:20120400F0900164743DF0A218E433FF90F003E4932F2430900165F0900166E4F0787486D4
:2012240072F57390001C125050757200757301125135AE829001677420F09001687444F0BD
:201244009001697448F090016A743DF090F000E493243090016BF090016C7420F090016D92
:201264007442F090016E04F090016F743DF090F002E4932430900170F09001717420F090DC
:201284000172744DF09001737431F0900174743DF09000CAE060067D317F0080047D307F6A
:2012A40000900175EDF09001767420F0900177744DF09001787432F0900179743DF0900029
:2012C400CBE060067D317F0080047D307F0090017AEDF090017B7420F090017C7458F0904B
:2012E400017D7447F090017E743DF09000C9E060067D317F0080047D307F0090017FEDF0A8
:201304009001807420F09001817452F090018204F0900183743DF09000C8E024309001840F
:20132400F0900185742FF090F004E4932430900186F09001877420F09001887454F09001BC
:20134400897452F090018A743DF090F005E493FF7D0075720A8D738F828D83C006125135A6
:20136400AD8274302D90018BF090F005E493FF7D0075720A8D738F828D831250FFAD82D073
:201384000674302D90018CF090018D7420F090018E7444F090018F04F0900190744EF09085
:2013A4000191743DF0A2A1E4332430900192F09001937420F09001947456F0900195744FC5
:2013C400F0900196744CF0900197743DF07F0075720A8F738E828F83C007C006125135AC14
:2013E40082D006D00774302C900198F075720A7573008E828F831250FFAE8274302E9001E2
:2014040099F090019A7420F090019B744DF090019C7450F090019D7433F090019E743DF03D
:2014240090F011E493243090019FF03033067E207F0080047E007F009001A0EEF09001A1E4
:201444007444F09001A27454F09001A3743DF090F01DE49324309001A4F09001A5E4F00485
:20146400255FFDE43560FEAF618D828E838FF01250E3FCBC2A028011C007C006C005121093
:201484003CD005D006D0078005900001E4F0A2339232C007C006C005120FE4D005D006D035
:2014A400074001229051EA75F080C007C006C0051202E290014975F0001202E29001587533
:2014C400F0001202E290016775F0001202E2D005D006D00790F01DE493FCBC0200502130DE
:2014E400331E90557475F080C007C006C0051202E290F01275F0801202E2D005D006D00722
:201504008D828E838FF01250E3FDBD2A02803B900001E0603590557675F0801202E2900076
:201524000175F0001202E230330F900005E0700990558175F0801202E2900005E4F09000B1
:2015440004F0900003F0900002F0855F828560838561F01202E27401255FFDE43560FEAFD8
:20156400618D828E838FF01250E3FDBD2A0990552F75F0800202E2755C9B755D55755E8070
:20158400755A32755B0190552F75F080020EAEAD82AE83AFF09001A67454F09001A7743DE7
:2015A400F0AB487C0075720A8C738B828C83C007C006C005C004C003125135A982D003D07D
:2015C400047430299001A8F075720A7573008B828C831250FFAB8274302B9001A9F0900100
:2015E400AA743AF0AB477C0075720A8C738B828C83C004C003125135A982D003D004743090
:20160400299001ABF075720A7573008B828C831250FFAB8274302B9001ACF09001AD742020
:20162400F09001AE7447F09001AF7450F09001B07453F09001B1743DF0A218E433FC90F0B0
:2016440003E4932C24309001B2F09001B37420F09001B47444F09001B504F09001B6744E61
:20166400F09001B7743DF0A2A1E43324309001B8F09001B9E4F09001BA740DF09001BB740C
:201684004DF09001BC744FF09001BD7444F09001BE04F09001BF744EF09001C0743DF0904C
:2016A400F008E49324309001C1F09001C2E4F0A2349232120FE4D005D006D00740012290E6
:2016C40001A675F000C007C006C0051202E29001BA75F0001202E2D005D006D00790F00802
:2016E400E49370030218C69055AC75F080C007C006C0051202E290F008E493FC90F0089348
:20170400FB7A0075723C8A738B828A83C004125135AA82D00474302A9001BBF0EC90F0083C
:2017240093FB7A007572068A738B828A83C00412513575720A7573001250FFAA82D004748F
:20174400302A9001BCF09001BD743AF0EC90F00893FC7B007572068B738C828B831250FF1C
:20176400AB8274302B9001BEF09001BF7430F09001C07420F09001C1742DF09001BA75F0DE
:20178400001202E29001BA7420F090F009E493FC7B0075723C8B738C828B83125135AB8207
:2017A40074302B9001BBF090F009E493FC7B007572068B738C828B8312513575720A75732B
:2017C400001250FFAB8274302B9001BCF090F009E493FC7B007572068B738C828B8312508B
:2017E400FFAB8274302B9001BEF09001C0E4F09001BA75F0001202E2D005D006D0077C02E0
:2018040090F008E493FBC3EC9B40030218DBEC90F00893FB7A0075723C8A738B828A83C0D2
:2018240007C006C005C004125135AA82D00474302A9001BBF0EC90F00893FB7A0075720643
:201844008A738B828A83C00412513575720A7573001250FFAA82D00474302A9001BCF0ECE0
:2018640090F00893FB7A007572068A738B828A83C0041250FFAA82D004D005D006D00774B5
:20188400302A9001BEF08C02EA30E00D9001BA7420F09001C0E4F0800C9001BA740DF0904A
:2018A40001C07420F09001BA75F000C007C006C005C0041202E2D004D005D006D0070C02BF
:2018C40018049055B975F080C007C006C0051202E2D005D006D0078D828E838FF01202E206
:2018E400755CCE755D55755E80755A32755B0190552F75F080020EAE900001E4F0D23212C7
:201904000FE44001229051FB75F0801202E2755CDF755D55755E80755A32755B0190552FA6
:2019240075F080020EAE900117E4F0755CFA755D55755E80755A0F755B029055F075F080D5
:20194400120EAE5066900118E0FFBF025E900133E024D075F00AA4FF900134E02F24D0F5F1
:2019640048AE487F0075720C8F738E828F831250FFAE828E49900136E024D075F00AA4FF7A
:20198400900137E02F24D0F547900139E024D075F00AA4FF90013AE02F24D0F54685471E99
:2019A40085461F8548821201C5D322C3227F00755CEA755D51755E80755A0F755B019056F3
:2019C4000B75F080C007120EAED0074003021BF0755C19755D56755E80755A0F755B0190B3
:2019E400560F75F080C007120EAED0074003021BF0755C35755D56755E80755A0F755B01AD
:201A040090562A75F080C007120EAED00790F003E4937003021BF0755C51755D56755E804A
:201A2400755A0F755B0190564675F080C007120EAED0074003021BF0755C6D755D56755EED
:201A440080755A0F755B0190566275F080C007120EAED0074003021BF09001177406F075E3
:201A64005C8A755D56755E80755A0F755B0290567F75F080C007120EAED0074003021BF04B
:201A8400900118E0FEBE01028003021BF07E007D00ED242AF582E43401F5830DE0FCBC2C5B
:201AA400060EBE0300500ABD0B00500543C11080E0EE24FD4003021BF08D060EEE3395E0CC
:201AC400FCEE242AF582EC3401F583E0FEBE2C15ED04FEED242AF582E43401F583E0FC24AB
:201AE400D0F5488029ED04FCED242AF582E43401F583E024D075F00AA4FDEC04FEEC242AF0
:201B0400F582E43401F583E0FC24D02DF5480E8E050DED3395E0FCED242AF582EC3401F578
:201B240083E0FDBD2C15EE04FDEE242AF582E43401F583E0FC24D0F5478029EE04FCEE245B
:201B44002AF582E43401F583E024D075F00AA4FEEC04FDEC242AF582E43401F583E0FC243B
:201B6400D02EF547ED04FEFD0DED3395E0FCED242AF582EC3401F583E0FDBD2C12EE242A3E
:201B8400F582E43401F583E0FD24D0F5468026EE04FDEE242AF582E43401F583E024D0750B
:201BA400F00AA4FEED242AF582E43401F583E0FD24D02EF546AD487E0074072DFDE43EFED0
:201BC400C374179D74808EF063F08095F05007E54824EFFE8006AD4874072DFE8E488547F4
:201BE4001E85461F8548821201C57F01EF24FF9218900117E4F02220A002C322755CA77544
:201C04005D56755E80755A0F755B0290569C75F080120EAE5036755CCB755D56755E8075C3
:201C24005A0F755B019056B875F080120EAE501C755CF0755D56755E80755A0F755B01902E
:201C440056DC75F080120EAE5002D322C322C027C0E0C0F0C082C083C007C006C005C0049D
:201C6400C003C002C001C000C0D075D010209803022B6643C110900115E0900114F0900167
:201C840019E0FF241BF582E43401F583E599F0900117E0FF24F85003022B52EF240A83F589
:201CA40082EF240C83F583E473BDB7B707527FD7F41C2626272B282429900119E0FF241B68
:201CC400F582E43401F583E0FEBE22028003021E8F8F147D00740C2CF582E43DF583757243
:201CE4000D8D73C017C016C015C01475D0001250FF75D010AA82AB83D014D015D016D01792
:201D0400EA241BF582EB3401F583E0FBBB20028003021E8F740B2CF582E43DF58375720DEE
:201D2400757300C017C016C015C01475D0001250FF75D010AA82AB83D014D015D016D01776
:201D4400EA241BF582EB3401F583E0FBBB3A028003021E8F740A2CF582E43DF58375720D95
:201D6400757300C017C016C015C01475D0001250FF75D010AA82AB83D014D015D016D01736
:201D8400EA241BF582EB3401F583E0FBBB4B028003021E8F74092CF582E43DF58375720D45
:201DA400757300C017C016C015C01475D0001250FF75D010AA82AB83D014D015D016D017F6
:201DC400EA241BF582EB3401F583E0FBBB4C028003021E8F74082CF582E43DF58375720D05
:201DE400757300C017C016C015C01475D0001250FF75D010AA82AB83D014D015D016D017B6
:201E0400EA241BF582EB3401F583E0FBBB43028003021E8F74072CF582E43DF58375720DCE
:201E2400757300C017C016C015C01475D0001250FF75D010AA82AB83D014D015D016D01775
:201E4400EA241BF582EB3401F583E0FBBB433C74062CF582E43DF58375720D757300C017C8
:201E6400C01675D0001250FF75D010AC82AD83D016D017EC241BF582ED3401F583E0FDBD8C
:201E84002B099001177402F0022B52BE47028003021F5A8F147D00740C2CF582E43DF5839C
:201EA40075720D8D73C017C016C015C01475D0001250FF75D010AA82AB83D014D015D016D0
:201EC400D017EA241BF582EB3401F583E0FBBB4E028003021F5A740B2CF582E43DF58375CB
:201EE400720D757300C017C016C015C01475D0001250FF75D010AA82AB83D014D015D0161D
:201F0400D017EA241BF582EB3401F583E0FBBB4945740A2CF582E43DF58375720D757300E4
:201F2400C017C01675D0001250FF75D010AC82AD83D016D017EC241BF582ED3401F583E0AE
:201F4400FDBD521290570275F08075D0001202E275D010022B52BE3A0280030220A58F149B
:201F64007D00740C2CF582E43DF58375720D8D73C017C016C015C01475D0001250FF75D0EF
:201F840010AA82AB83D014D015D016D017EA241BF582EB3401F583E0FBBB4902800302207F
:201FA400A5740B2CF582E43DF58375720D757300C017C016C015C01475D0001250FF75D0A0
:201FC40010AA82AB83D014D015D016D017EA241BF582EB3401F583E0FBBB54028003022034
:201FE400A5740A2CF582E43DF58375720D757300C017C016C015C01475D0001250FF75D061
:2020040010AA82AB83D014D015D016D017EA241BF582EB3401F583E0FBBB4D0280030220FA
:20202400A574092CF582E43DF58375720D757300C017C016C015C01475D0001250FF75D021
:2020440010AA82AB83D014D015D016D017EA241BF582EB3401F583E0FBBB434574082CF589
:2020640082E43DF58375720D757300C017C01675D0001250FF75D010AC82AD83D016D01792
:20208400EC241BF582ED3401F583E0FDBD2B1290570775F08075D0001202E275D010022B99
:2020A40052E4BE200104FD700302223C8F137C00740C2BF582E43CF58375720D8C73C01791
:2020C400C016C015C014C01375D0001250FF75D010A982AA83D013D014D015D016D017E9F5
:2020E400241BF582EA3401F583E0FABA3A02800302223C740B2BF582E43CF58375720D75BA
:202104007300C017C016C015C014C01375D0001250FF75D010A982AA83D013D014D015D050
:2021240016D017E9241BF582EA3401F583E0FABA4C02800302223C740A2BF582E43CF583EB
:2021440075720D757300C017C016C015C014C01375D0001250FF75D010A982AA83D013D070
:2021640014D015D016D017E9241BF582EA3401F583E0FABA4702800302223C74092BF58280
:20218400E43CF58375720D757300C017C016C015C014C01375D0001250FF75D010A982AACE
:2021A40083D013D014D015D016D017E9241BF582EA3401F583E0FABA4D02800302223C74AF
:2021C400082BF582E43CF58375720D757300C017C016C015C014C01375D0001250FF75D0C9
:2021E40010A982AA83D013D014D015D016D017E9241BF582EA3401F583E0FABA433A740738
:202204002BF582E43CF58375720D757300C017C016C01575D0001250FF75D010AB82AC83CB
:20222400D015D016D017EB241BF582EC3401F583E0FCBC2B030223B8ED70030224038F14DF
:202244007D00740C2CF582E43DF58375720D8D73C017C016C015C01475D0001250FF75D00C
:2022640010AA82AB83D014D015D016D017EA241BF582EB3401F583E0FBBB3A0280030224A7
:2022840003740B2CF582E43DF58375720D757300C017C016C015C01475D0001250FF75D05F
:2022A40010AA82AB83D014D015D016D017EA241BF582EB3401F583E0FBBB50028003022451
:2022C40003740A2CF582E43DF58375720D757300C017C016C015C01475D0001250FF75D020
:2022E40010AA82AB83D014D015D016D017EA241BF582EB3401F583E0FBBB49028003022418
:202304000374092CF582E43DF58375720D757300C017C016C015C01475D0001250FF75D0E0
:2023240010AA82AB83D014D015D016D017EA241BF582EB3401F583E0FBBB4C0280030224D4
:202344000374082CF582E43DF58375720D757300C017C016C015C01475D0001250FF75D0A1
:2023640010AA82AB83D014D015D016D017EA241BF582EB3401F583E0FBBB4302800302249D
:202384000374072CF582E43DF58375720D757300C017C01675D0001250FF75D010AC82AD20
:2023A40083D016D017EC241BF582ED3401F583E0FDBD2B4B8F147D0074092CF582E43DF527
:2023C4008375720D8D7375D0001250FF75D010AC82AD83EC241BF582ED3401F583E0FDBD53
:2023E4004C03D38001C392064006300C03022B52C20AC208C2079001177403F0022B52BE2C
:202404004B598F147D00740C2CF582E43DF58375720D8D73C017C01675D0001250FF75D0AC
:2024240010AC82AD83D016D017EC241BF582ED3401F583E0FDBD4F23A22AB39229C22AE50A
:20244400447003022B527544009056DC75F08075D0001202E275D010022B52BE540280033C
:20246400022B528F167F00740C2EF582E43FF58375720D8F73C017C01675D0001250FF7537
:20248400D010AC82AD83D016D017EC241BF582ED3401F583E0FDBD4F028003022B52740B85
:2024A4002EF582E43FF58375720D75730075D0001250FF75D010AE82AF83EE241BF582EF0C
:2024C4003401F583E0FFBF4E028003022B52D22A022B52900119E0FF241BF582E43401F593
:2024E40083E0FEBE20028003022B528F167F00740C2EF582E43FF58375720D8F73C017C024
:202504001675D0001250FF75D010AC82AD83D016D017EC241BF582ED3401F583E0FDBD3A6B
:20252400028003022B52740B2EF582E43FF58375720D757300C017C01675D0001250FF7530
:20254400D010AC82AD83D016D017EC241BF582ED3401F583E0FDBD5A028003022B52740ABA
:202564002EF582E43FF58375720D757300C017C01675D0001250FF75D010AC82AD83D0164F
:20258400D017EC241BF582ED3401F583E0FDBD54028003022B5274092EF582E43FF58375F0
:2025A400720D757300C017C01675D0001250FF75D010AC82AD83D016D017EC241BF582ED4E
:2025C4003401F583E0FDBD54028003022B5274082EF582E43FF58375720D757300C017C029
:2025E4001675D0001250FF75D010AC82AD83D016D017EC241BF582ED3401F583E0FDBD5570
:20260400028003022B5274072EF582E43FF58375720D757300C017C01675D0001250FF7553
:20262400D010AC82AD83D016D017EC241BF582ED3401F583E0FDBD53028003022B527406E4
:202644002EF582E43FF58375720D757300C017C01675D0001250FF75D010AC82AD83D0166E
:20266400D017EC241BF582ED3401F583E0FDBD50028003022B528E828F83A3A3A3A3A3757F
:20268400720D75730075D0001250FF75D010AE82AF83EE241BF582EF3401F583E0FFBF2A6A
:2026A400028003022B5290011AE4F090011704F0022B52740DB59902802090011AE0FFBFBE
:2026C4001E00501690011AEF04F0EF242AF582E43401F583E599F0022B5290011AE0FF1F09
:2026E400EF3395E0FEEF242AF582EE3401F583E4F0900117E0900118F0900117E4F0D22986
:20270400022B52200A03022777E544701B740DB599028003022B5230060575430205429016
:2027240001177405F0022B52740AB5440B7422B59906754400022B5220070EE54490518230
:2027440093FFB599028002D20730090F20080EE54490F01293FFB599028002D20805442058
:202764000703022B52200803022B52900117E4F0022B52300642900119E0FF241BF582E48C
:202784003401F583E0FEBE302F7E00740C2FF582E43EF58375720D8E7375D0001250FF753F
:2027A400D010AE82AF83EE241BF582EF3401F583E0FFBF2203022868900119E0FF241BF581
:2027C40082E43401F583E0FEBE3402800302286D8F167F00740C2EF582E43FF58375720D1E
:2027E4008F73C017C01675D0001250FF75D010AC82AD83D016D017EC241BF582ED3401F547
:2028040083E0FDBD3863740B2EF582E43FF58375720D757300C017C01675D0001250FF7599
:20282400D010AC82AD83D016D017EC241BF582ED3401F583E0FDBD2B30740A2EF582E43F12
:20284400F58375720D75730075D0001250FF75D010AE82AF83EE241BF582EF3401F583E0A3
:20286400FFBF2205D20A754401740DB599028003022B52900117E4F0022B52300B37743BEA
:20288400B599028021740DB59902801A746025444014AF440544EF2401F582E43400F583F0
:2028A400E599F0022B52754400C20B900117E4F0D20C022B52900119E0FF241BF582E43471
:2028C40001F583E0FEBE2C0280030229D78F167F00740C2EF582E43FF58375720D8F73C092
:2028E40017C01675D0001250FF75D010AC82AD83D016D017EC241BF582ED3401F583E0FDA8
:20290400BD430280030229D7740B2EF582E43FF58375720D757300C017C01675D00012503D
:20292400FF75D010AC82AD83D016D017EC241BF582ED3401F583E0FDBD550280030229D762
:20294400740A2EF582E43FF58375720D757300C017C01675D0001250FF75D010AC82AD83D3
:20296400D016D017EC241BF582ED3401F583E0FDBD446074092EF582E43FF58375720D75E6
:202984007300C017C01675D0001250FF75D010AC82AD83D016D017EC241BF582ED3401F534
:2029A40083E0FDBD502D74082EF582E43FF58375720D75730075D0001250FF75D010AE82B6
:2029C400AF83EE241BF582EF3401F583E0FFBF2A0280047F0080027F01EF24FF920B740D82
:2029E400B599028003022B52900117E4F0022B52300D3D7420B59902801A746025444014FD
:202A0400AF440544EF2401F582E43400F583E599F0022B52C20DC20FE5442401F582E434F1
:202A240000F583E4F0F544900117F0D229022B52900119E0FF241BF582E43401F583E0FE4D
:202A4400BE3D028003022B528F167F00740C2EF582E43FF58375720D8F73C017C01675D0A7
:202A6400001250FF75D010AC82AD83D016D017EC241BF582ED3401F583E0FDBD68028003AE
:202A8400022B52740B2EF582E43FF58375720D757300C017C01675D0001250FF75D010ACC4
:202AA40082AD83D016D017EC241BF582ED3401F583E0FDBD6E028003022B52740A2EF58228
:202AC400E43FF58375720D757300C017C01675D0001250FF75D010AC82AD83D016D017ECBC
:202AE400241BF582ED3401F583E0FDBD696074092EF582E43FF58375720D757300C017C0EF
:202B04001675D0001250FF75D010AC82AD83D016D017EC241BF582ED3401F583E0FDBD6837
:202B24002D74082EF582E43FF58375720D75730075D0001250FF75D010AE82AF83EE241B42
:202B4400F582EF3401F583E0FFBF6302D20D900119E02401F0E0FF24F35005900119E4F014
:202B6400C298D0D0D000D001D002D003D004D005D006D007D083D082D0F0D0E0D02732C2BB
:202B84000E900001E0FFBF3F028008900002E0FFBF3F062007030218FC900002E0FFBF4105
:202BA40003023309BF43030230DCBF4503023396BF4802803EBF5003023778BF5303023119
:202BC4009EBF54030238ACBF6103023309BF63030230DCBF6503023396BF68028015BF70E4
:202BE40003023778BF730302319EBF74030238AC023C00900004E0FFBF2B028003022DBAF2
:202C0400900005E0FEC3742F9EE433FD7003022D45BE33004003022D45900006E0FC24D030
:202C24004003022D45BC3A004003022D45900007E0FB24D04003022D45BB36004003022DAC
:202C440045900008E0F56624D04003022D4574C625665003022D4590000AE0F56224D0401C
:202C640003022D4574CD25625003022D4590000BE0F56324D04003022D4574C625635003B7
:202C8400022D4590000CE0F56424D04003022D4574CA25645003022D4590000DE0F56524B3
:202CA400D04003022D4574C625655003022D458E0274022AF567AA62C39A75F00AA42404CE
:202CC400F56725482CAC63C39CFAAC6474062CC39B75F00AA42565AB66C39BFC8A687569A7
:202CE40000AA477B00743C2AF56AE43BF56B8C027B00C3E56A9AE56B64808BF063F08095E0
:202D0400F0E433FA7B00E568C39AF582E5699BF58375720C8B73C0041250FFAA82D0048A11
:202D24004BAB4774782BC39CFB7C0075723C8C738B828C831250FFAB828B4F120A20023051
:202D44007FED606DBE36005068900006E0FD24D0505FBD3A00505AEE24D075F00AA42D248D
:202D6400D0FEAD4B740C2DFDC3E54F9EE433FCEDC39CFD7C0075720C8C738D828C83C0069C
:202D84001250FFAC82D0068C4BAC4F7D00743C2CFCE43DFD7B00ECC39EF582ED9BF58375D1
:202DA400723C8B731250FFAD828D4F120A2002307FD20E02307FBF2D46900005E0FE24D0E0
:202DC4005038BE36005033900006E0FD24D0502ABD3A005025EE24D075F00AA4AC4F2C2D5A
:202DE40024D0F54F24C4500CE54B04F54BE54FFE24C4F54F120A2002307FD20E02307F9073
:202E04000005E0FEBE4E028003BE6E21300703023C2612025E9000A37401F01202997875AB
:202E24007600787676187877763C02307FBE46028003BE6616300703023C2612025E9000E7
:202E4400A3E4F0120299C2C202307FBF2C028003022F17BE6702800DBE47028008BE6102F9
:202E64008003BE4116C2C27875760012192A9218787676187877763C02307FEE24D04003DD
:202E8400022F12BE33004003022F12900006E0FD24D0507ABD3A005075900007E0FC24D020
:202EA400506CBC36005067900008E0FB24D0505EBB3A0050598E02EA24D075F00AA4FA2D4E
:202EC40024D0FDBD18005041C2C2787576008D48EC24D075F00AA42B24D0F547AC487D001C
:202EE40075720C8D738C828D831250FFAC828C4985471E85461F8548821201C5C218787696
:202F040076187877763C02307FD20E02307FD20E02307FEF24D0400302307DBF33004003A1
:202F240002307DEE24D0400302307DBE3A00400302307D900006E0FD24D0400302307DBD0A
:202F44003600400302307D900007E0FD24D0400302307DBD3A00400302307D7D00EF24D0A2
:202F6400F572ED34FFF57390000AC006125050AD82AF83D0067C00EE2DFDEC3FFFED24D076
:202F8400F582EF34FFF58375720C8C731250FFAE828E4B900006E024D075F00AA4FF9000B4
:202FA40007E02F24D0F54F120A20900009E0FFBF6702800DBF47028008BF61028003BF4121
:202FC4002A90F003E493700302307F12192A921890F011E493700302307FC2C27875760093
:202FE400787676187877763C02307FEF24D0400302307FBF3300400302307F90000AE0FECA
:2030040024D05077BE3A00507290000BE0FD24D05069BD3600506490000CE0FC24D0505B54
:20302400BC3A005056EF24D075F00AA42E24D0FFBF18005040C2C2787576008F48ED24D0D3
:2030440075F00AA42C24D0F547AE487F0075720C8F738E828F831250FFAE828E4985471E1F
:2030640085461F8548821201C5787676187877763CC2188006D20E8002D20E300E2A3008DC
:203084000ED23390571675F08012106D023C26D23390572975F08012106DC2339057167554
:2030A400F08012106D023C2612090785825430080ED23390574F75F08012106D023C26D201
:2030C4003390576975F08012106DC23390574F75F08012106D023C26900005E0FFBF650258
:2030E4008003BF452A30080ED23490579675F080121593023C26D2349057AE75F0801215A8
:2031040093C23490579675F080121593023C26BF6E028003BF4E0E12025E9000A57401F0C9
:20312400120299804BBF66028003BF460D12025E9000A5E4F01202998036900003E0603076
:20314400900004E0602A30080ED23390571675F08012106D023C26D23390572975F0801241
:20316400106DC23390571675F08012106D023C2630080ED2339057D975F08012106D023C47
:2031840026D2339057ED75F08012106DC2339057D975F08012106D023C26900005E0FFBFF8
:2031A4007902800DBF59028008BF44028003BF644130080DD23390581475F08012106D803B
:2031C40016D23390582975F08012106DC23390581475F08012106DC2AFC2A07528009000E6
:2031E4000612022BD2A3900FA01203D075C760023C26BF67028008BF470280030232AC9042
:203204000009E0FE24D05076BE3A00507112025E900009E024D0FE9000A7F09000C8EEF016
:2032240090000BE0FE24D05028BE3300502390000CE0FD24D0501ABD3A005015EE24D075B7
:20324400F00AA42D24D0FEBE180050059000A8EEF012029930080ED23390585175F0801244
:20326400106D023C26D23390586775F08012106DC23390589075F08012106D023C26300824
:203284000ED2339058AF75F08012106D023C26D2339058C775F08012106DC2339058AF757F
:2032A400F08012106D023C26BF69028003BF492B30080DD2339058F275F08012106D801699
:2032C400D23390590475F08012106DC2339058F275F08012106DC2A0023C2630080ED23330
:2032E40090592975F08012106D023C26D23390594275F08012106DC23390592975F080123E
:20330400106D023C26900005E0FF24CF505ABF3A005055900007E0FF24CF504CBF3A0050CB
:203324004712025E900005E024D0C454F0FF900007E024D042079000AAEFF01202993008AE
:203344000ED23390596E75F08012106D023C26D23390599475F08012106DC23390596E7570
:20336400F08012106D023C2630080ED2339059CD75F08012106D023C26D2339059EA75F0D0
:203384008012106DC2339059CD75F08012106D023C26900005E0FFBF58028003BF78351209
:2033A400025E9000ABE4F012029930080ED234905A1A75F080121593023C26D234905A3278
:2033C40075F080121593C234905A1A75F080121593023C2612025E1202999000ABE4F0908F
:2033E40001C37404F09001C3E0FF2401F582E43400F583E0FE24D040030236FEBE330040C2
:20340400030236FE8F057F0074012DFBE43FFCEB2401F582EC3400F583E0FC24D04003026C
:2034240036FE74012DFBE43FFCEB2401F582EC3400F583E0FCBC3A0040030236FE74022D8B
:20344400FBE43FFCEB2401F582EC3400F583E0FC24D040030236FE74022DFBE43FFCEB241A
:2034640001F582EC3400F583E0FCBC360040030236FE74032DFBE43FFCEB2401F582EC348C
:2034840000F583E0FC24D040030236FE74032DFBE43FFCEB2401F582EC3400F583E0FCBCF2
:2034A4003A0040030236FE74052DFBE43FFCEB2401F582EC3400F583E0FC24D0400302362B
:2034C400FE74052DFBE43FFCEB2401F582EC3400F583E0FCBC330040030236FE74062DFB25
:2034E400E43FFCEB2401F582EC3400F583E0FC24D040030236FE74062DFBE43FFCEB240170
:20350400F582EC3400F583E0FCBC3A0040030236FE74072DFBE43FFCEB2401F582EC3400E4
:20352400F583E0FC24D040030236FE74072DFBE43FFCEB2401F582EC3400F583E0FCBC3617
:203544000040030236FE74082DFBE43FFCEB2401F582EC3400F583E0FC24D040030236FEC3
:2035640074082DFBE43FFCEB2401F582EC3400F583E0FCBC3A0040030236FE8E7275730032
:2035840090000AC007C006C005125050AB82AC83D005D006D007C00674012DFAE43FFEEA3E
:2035A4002401F582EE3400F583E07A002BFBEA3CFCC3EB9428EC64809482D006400302368E
:2035C400FEC00674052DFBE43FFCEB2401F582EC3400F583E0FC8C7275730090000AC00721
:2035E400C006C005125050AB82AC83D005D006D00774062DFAE43FFEEA2401F582EE340042
:20360400F583E07A002BFBEA3CFCC3EB9428EC64809482D00640030236FEED24FCF582EF7A
:2036240034FFF583757205757300C007C006C005125135AB82D005D006D00774092BFC3397
:2036440095E0FAEC24A3F568EA3400F569EE24D075F00AA4F56A74012DFCE43FFEEC240147
:20366400F582EE3400F583E0256A24D075F006A4FE74022DFAE43FFCEA2401F582EC340063
:20368400F583E02E24D0856882856983F0740A2BFB3395E0FEEB24A3FBEE3400FE74052D1F
:2036A400FAE43FFCEA2401F582EC3400F583E024D075F00AA4F56A74062DFAE43FFCEA24BB
:2036C40001F582EC3400F583E0256A24D075F006A4FC74072DFDE43FFFED2401F582EF34F5
:2036E40000F583E02C24D08B828E83F09000ABE0FF0F0F9000ABEFF080069001C3744BF065
:203704009001C3E0240AF0E0FFBF4B0050030233E99000ABE06033900000120246120299B4
:2037240030080ED234905A5D75F080121593023C26D234905A7275F080121593C234905A0E
:203744005D75F080121593023C2630080ED233905A9A75F08012106D023C26D233905AB5BA
:2037640075F08012106DC233905A9A75F08012106D023C26300703023C2690F011E493706A
:203784000ED233905AE375F08012106D023C26900006E0FFBF54028003BF7410C2C2D23394
:2037A400905AF875F08012106D023C26BF4E028003BF6E2F90F011E493FEBE011812025E0E
:2037C4009000B47402F012029978757600787676187877763CD233905B0275F08012106DA8
:2037E400023C26BF46028003BF662590F011E493FEBE020EC2C212025E9000B47401F01208
:203804000299D233905B0B75F08012106D023C26900005E0FE24D0400302389EBE33005073
:2038240079EF24D05074BF3A00506F900007E0FD24D05066BD36005061900008E0FC24D082
:203844005058BC3A005053209242D2C2EE24D075F00AA42F24D0F582ED24D075F00AA42CEC
:2038640024D0F571124FA09005DC1203D030920ED233905B1475F08012106D023C26D233E2
:20388400905B2975F08012106D023C26D233905B4B75F08012106D023C26D233905B71754F
:2038A400F08012106D023C26300703023BF5900004E0FFBF47028003BF671D12025E9000F2
:2038C400A67401F01202991219B1D233905B8875F08012106D023BF5BF41028003BF611B72
:2038E40012025E9000A6E4F0120299C218D233905B9175F08012106D023BF5BF2B0280032B
:20390400023A3B900005E0FEBE38028003023A3B900006E0FEBE34028003023A3B900007CE
:20392400E0FEBE30005003023A2DEE24C65003023A2D900008E0FEBE30005003023A2DEE59
:2039440024C65003023A2D900009E0FEBE30005003023A2DEE24C65003023A2D90000AE08E
:20396400FEBE30005003023A2DEE24C65003023A2D90000BE0FEBE30005003023A2DEE24D2
:20398400C65003023A2D90000CE0FEBE30005003023A2DEE24C65003023A2D90000DE0FE6E
:2039A400BE30005003023A2DEE24C65003023A2D90000EE0FEBE3000406FEE24C6406A909A
:2039C400000FE0FEBE30004060EE24C6405B12025E9000B5E4F07E018E0574122DFD3395E0
:2039E400E0FCED24A3FDEC3400FC8E027B0074062AFAE43BFBEA2401F582EB3400F583E05A
:203A04008D828C83F00EBE0A0040CD9000C0E0FEBE02059000C0E4F0120299D233905B9A63
:203A240075F08012106D023BF5D233905BB875F08012106D023BF5BF30028003023B5590F8
:203A44000005E0FEBE30005003023B47EE24C65003023B47900006E0FEBE30005003023B19
:203A640047EE24C65003023B47900007E0FEBE30005003023B47EE24C65003023B479000D3
:203A840008E0FEBE30005003023B47EE24C65003023B47900009E0FEBE30005003023B478C
:203AA400EE24C65003023B4790000AE0FEBE30005003023B47EE24C65003023B4790000BCC
:203AC400E0FEBE30005003023B47EE24C6407490000CE0FEBE3000406AEE24C64065900094
:203AE4000DE0FEBE3000405BEE24C6405612025E7E008E0574122DFD3395E0FCED24A3FD58
:203B0400EC3400FC8E027B0074032AFAE43BFBEA2401F582EB3400F583E08D828C83F00EAC
:203B2400BE0A0040CD9000C0E0FEBE02059000C0E4F0120299D233905B9A75F08012106DEA
:203B4400023BF5D233905BB875F08012106D023BF5BF78028003BF581A12025E9000C074BE
:203B640002F0120299D233905BDD75F08012106D023BF590F01DE493FFBF0224900005E0C2
:203B8400FFBF6E02800DBF4E028008BF66028003BF465ED233905BEC75F08012106D8051A1
:203BA400900005E0FFBF4E028003BF6E1912025E9000C07401F0120299D233905C1E75F06D
:203BC4008012106D802BBF46028003BF661812025E9000C0E4F0120299D233905C2D75F09A
:203BE4008012106D800BD233905C3C75F08012106D90F01DE493FF139209802630080DD208
:203C040033905C5975F08012106D8016D233905C6C75F08012106DC233905C5975F080121C
:203C2400106D43C1107F00EF2401FDE43400FE8D828E83E0600FEF2401F582E43400F583BF
:203C44000FE4F080E222756C00756D007593007594FF7592007591007595007596FF75B2DE
:203C64000075B10075B30275B41C75CA0075C90075C00075B0FF75A00075B881759D087583
:203C8400970075BD0075BC83D2ADD2AF9000C974FAF075420075550575540590F001E493A0
:203CA40060067C057D0080047C1E7D009000CEECF09000CAECF09000CEE09000CBF0900078
:203CC400CEE09000CCF09000CEE09000CDF09000A2740AF09001107402F090010FF0900193
:203CE4000EF09001117405F09001127401F0120A8412025E9000A3E024FE50069000A3746B
:203D040001F09000A5E024FE50059000A5E4F09000A6E024FE50069000A67401F09000A7B9
:203D2400E024F650069000A77401F09000A8E024E850059000A8E4F09000AAE0FDC4540FD0
:203D4400FC7B001CBCFF011BC374089C74808BF063F08095F0500A740F5D4450FD9000AA4E
:203D6400F09000AAE0FD53050F7C001DBDFF011CC374089D74808CF063F08095F0500F90CC
:203D840000AAE0FD74F05D4401FD9000AAF09001C47401F09000ABE0FDBD0900502EED2048
:203DA400E02A7C01C3ED9C401E8C0374082BFB3395E0FAEB24A3F582EA3400F583E0FBBBA6
:203DC400900050030C80DD9001C4ECF09001C4E0FCC3ED9C40129000AB7402F09000AC7442
:203DE40024F09000AD746CF09001C4E4F09000C0E0FDBD020050479000BFE07041FDBD0A4E
:203E04000050368D0474122CFB3395E0FAEB24A3F582EA3400F583E0FBBB3000401B7412D2
:203E24002CFC3395E0FBEC24A3F582EB3400F583E0FC24C640030D80C59001C4EDF09001D4
:203E4400C4E0FDBD0A00500B9000BFE4F09000C07402F09000C1E0FD24E750059000C1E4FF
:203E6400F03092079000B4E4F080129000B4E0FD6005ED24FD50069000B47402F09000C2F5
:203E8400E0FD7C001DBDFF011CC374039D74808CF063F08095F050069000C27401F012020F
:203EA4009990F200E493FD24C4404690F201E493FD24F4403C90F202E493FD24C440329094
:203EC400F203E493FD24F4402890F204E493FD24C4401E90F205E493FD24F4401490F206C6
:203EE400E493FD24C4400A90F207E493FD24F45005120A20803890F200E493F54F90F201FA
:203F0400E493F54B90F202E493F55090F203E493F54C90F204E493F55190F205E493F54DE6
:203F240090F206E493F55290F207E493F54ED2A21202CA90F011E493600F124F8A787576DD
:203F440000787676187877763CD20390F004E4939000C8F0120A6E12056A751847751900BB
:203F6400751A40751B46751C00751D4090004875F040120135E54824E8400CE54724C44097
:203F840006E54624C4500C751E00751F007582001201C51200EED2A8D2887518477519007C
:203FA400751A40751B46751C00751D4090004875F040120135201D0302403D30217B102570
:203FC400028076C221C21D905C9275F080120500905CA375F0801205007529007582C012B7
:203FE40003FD900112E4F0102502802A900112E0FDBD030050090DEDFC3395E0FD80047C31
:20400400007D00900112ECF074312CF5821204287582C0120483101D0280CC9000001202AB
:2040240046900200120246900112E004F52890001F12022B75C76080AEE54824F45007E56D
:204044004824F4FD8002AD488D4975BC8B90F006E49370149001137405F012025E9000A9BD
:2040640074FFF01202998006900113743CF075C16590F200E493FDB54F4190F201E493FD95
:20408400B54B3890F202E493FDB5502F90F203E493FDB54C2690F204E493FDB5511D90F2F9
:2040A40005E493FDB54D1490F206E493FDB5520B90F207E493FDB54E028003120A2090010D
:2040C40013E06006900111E0701B900111E4F07405B554061209078582547405B555061260
:2040E40009928582552019030241B020A0169000A2E014F0E0700D75BC83D2A09000A27481
:204104001EF0D2059000C5E0FDE060259000C3E0701FED149000C5F0E070169000C37405E5
:20412400F09000C5F01209078582541209928582557405B554028022E55424CAFCE434005F
:20414400FD8C828D83E0FB60111B8C828D83EBF0EB7007C214C2127554057405B555028001
:2041640022E55524CAFCE43400FD8C828D83E0FB60111B8C828D83EBF0EB7007C215C21354
:20418400755505900113E0601090F011E4936003209206900113E014F090010EE0FDE060F1
:2041A40009301F06ED1490010EF0C219120764900111E0701390F000E493600C90F011E4D8
:2041C40093FDBD02031208AB90F004E49360159000C8E0700F90F005E493FDB54806E54775
:2041E40024FA4006E54224FD502C7405B554277405B5552290F011E4936003209218C2AF9F
:20420400C2A075280090000612022BD2A3900FA01203D075C7609000C9E0701E202C1BD291
:204224002CD233905CAA75F08012106D30090BC233905CAA75F08012106D9000CAE0701E34
:20424400202D1BD22DD233905CB975F08012106D30090BC233905CD275F08012106D9000DA
:20426400CBE0701E202E1BD22ED233905CE175F08012106D30090BC233905CFA75F080123C
:20428400106D9000CCE0701E202F1BD22FD233905D0975F08012106D30090BC233905D22B1
:2042A40075F08012106D9000CDE0701E20301BD230D233905D3175F08012106D30090BC2B1
:2042C40033905D4A75F08012106D20034674FB2547404020180A90F003E49360031219B1BD
:2042E400E54824F45007E54824F4FD8002AD488D4990F002E4936019D233905D5975F080ED
:2043040012106D30090BC233905D5975F08012106DD203900111E0FD24FA5003024EC8ED4D
:204324002D2D90432A7302433C0246F0024B24024E81024CFB0244D130053F75BC8BC2055D
:20434400900117E4F01219B1AB487C0075720C8C738B828C831250FFAB828B49121BFB50AA
:2043640019D233905D6A75F08012106D30090BC233905D6A75F08012106D300C10122B8340
:204384009056DC75F0801202E2C20C8070752D80752E5D752F80854B30854F317532FDA22D
:2043A4001B92017582801205EB752D80752E5D752F80854C308550317532FDA21B9201751C
:2043C40082851205EB752D80752E5D752F80854D308551317532FDA21B920175828A1205F5
:2043E400EB752D80752E5D752F80854E308552317532FDA21B92017582C01205EB30181E6A
:20440400752D82752E5D752F80854830854731854632A21B92017582C51205EB804190F00A
:2044240003E493601E752D86752E5D752F80854830854731854632A21B92017582C512051A
:20444400EB801C752D8A752E5D752F80854830854731854632A21B92017582C51205EB90EC
:20446400010EE06003024ED1301203024ED1C21D900113743CF09000C4E4F09000C3F09041
:2044840000C5F09001117405F09001127401F0755505755405C2C278757600102102800316
:2044A400024ED1300919D233905D8E75F08012106DC233905DA275F08012106D024ED1D2A6
:2044C40033905DA275F08012106D024ED1101D02802F900113743CF0900112E02401F0E0E7
:2044E400FCBC040D90F011E4937006900112EC04F0900112E0FC24FB5005900112E4F0C2C2
:2045040028102502800D900113743CF0900112E4F0C228102103024691900113743CF09025
:204524000112E0900111F0900112E4F0120907858254120992858255900111E07003024EB0
:20454400D1758280120483900111E075F011A42495FB745135F0FC7A808B828C838AF0129E
:204564000500900111E0FCBC01028015BC020302460ABC0303024655BC040302466A024E29
:20458400D1752D80752E5D752F80854B30854F317532FDA21B92017582801205EB752D806C
:2045A400752E5D752F80854C308550317532FDA21B92017582851205EB905DB875F08012BE
:2045C4000500752D80752E5D752F80854D308551317532FDA21B92017582C01205EB752D34
:2045E40080752E5D752F80854E308552317532FDA21B92017582C51205EB905DB875F080CC
:20460400120500024ED13018067B177C55801F90F003E493600B756E27756F557570808081
:2046240009756E1F756F55757080AB6EAC6F8B2D8C2E752F80854830854731854632A21B4F
:2046440092017582C01205EB85486C85476D024ED1905DBF75F0801205007529047582C076
:204664001203FD024ED1752DD0752E5D752F80753000753100753200A21B92017582C01262
:2046840005EBD2C2756D00756C00024ED13018067B177C55801990F003E49360087A277EE3
:2046A400557F8080067A1F7E557F808A038E048B2D8C2E752F80900113E0F53285483085CF
:2046C4004731A21B92017582C01205EB900112E075F011A42495FE745135F0FF8E2A8F2BA6
:2046E400752C8075828012040D024ED1900112E0FFBF080050067E807F0080047EC07F007D
:20470400900112E0FF5307077C008F030B7572048C738F828C83C006C003125135AC82D070
:2047240003D006EC2BF5298E821203FD102503024A88900113743CF0900112E0FF24F0500F
:2047440003024A06EF240A83F582EF241483F583E473769EDBF41E46829BC5ED29426C92F1
:20476400CBE247474747484848484848494949494949E54BFF24F250198F047E0075720A56
:204784008E738C828E831250FFAC82AE838C4B024A06740A2FF54B024A06E54B24E950063A
:2047A400754B14024A06AF4B8F047E0075720A8E738C828E83C0071250FFAC82AE83D00755
:2047C400BC090DBE000A8F06EE24F7F54B024A06EF04F54B024A06E54FFF24CE500A8F0672
:2047E400EE24CEF54F024A06740A2FF54F024A06E54F04FF8F4F7E0075720A8E738F828ED8
:20480400831250FFE5828583F045F06003024A06E54FFF24F6F54F024A06E54CFF24F250EE
:20482400198F047E0075720A8E738C828E831250FFAC82AE838C4C024A06740A2FF54C025F
:204844004A06E54CFF24E95006754C14024A068F047E0075720A8E738C828E83C0071250FF
:20486400FFAC82AE83D007BC090DBE000A8F06EE24F7F54C024A06EF04F54C024A06E55079
:20488400FF24CE500A8F06EE24CEF550024A06740A2FF550024A06E55004FF8F507E00756F
:2048A400720A8E738F828E831250FFE5828583F045F06003024A06E550FF24F6F550024ACC
:2048C40006E54DFF24F250198F047E0075720A8E738C828E831250FFAC82AE838C4D024A17
:2048E40006740A2FF54D024A06E54DFF24E95006754D14024A068F047E0075720A8E738C22
:20490400828E83C0071250FFAC82AE83D007BC090DBE000A8F06EE24F7F54D024A06EF04E3
:20492400F54D024A06E551FF24CE500A8F06EE24CEF551024A06740A2FF551024A06E551D6
:2049440004FF8F517E0075720A8E738F828E831250FFE5828583F045F06003024A06E551FE
:20496400FF24F6F551024A06E54EFF24F250188F047E0075720A8E738C828E831250FFACA3
:2049840082AE838C4E807B740A2FF54E8074E54EFF24E95005754E1480688F047E0075725C
:2049A4000A8E738C828E83C0071250FFAC82AE83D007BC090CBE00098F06EE24F7F54E8072
:2049C40041EF04F54E803BE552FF24CE50098F06EE24CEF552802B740A2FF5528024E552EA
:2049E40004FF8F527E0075720A8E738F828E831250FFE5828583F045F07007E552FF24F681
:204A0400F552752D80752E5D752F80854B30854F317532FDA21B92017582801205EB752DF1
:204A240080752E5D752F80854C308550317532FDA21B92017582851205EB905DB875F080CB
:204A4400120500752D80752E5D752F80854D308551317532FDA21B92017582C01205EB75CA
:204A64002D80752E5D752F80854E308552317532FDA21B92017582C51205EB905DB875F09A
:204A8400801205001021028014900113743CF0900112E0FFE06006EF14900112F0101D03E2
:204AA400024ED1900113743CF0900112E02401F0E0FF24F04003024ED11204DB900111E02B
:204AC400900112F09001117405F0AE4B7F0075720C8F738E828F831250FFAE828E4BAE4C41
:204AE4007F0075720C8F738E828F831250FFAE828E4CAE4D7F0075720C8F738E828F83120E
:204B040050FFAE828E4DAE4E7F0075720C8F738E828F831250FFAE828E4E120A20024ED1DB
:204B2400900112E0FF2407FE7C007572028C738F828C83C006125135AC82D006EC2EF529A8
:204B44007582C01203FD90F003E493603790010EE07031900111E0900112F09001117405A7
:204B6400F0787676187877763C90F003E49360031219B1E54824F45007E54824F4FF800289
:204B8400AF488F49102503024C80900113743CF0900112E0FF24FC5003024C41EF2F904B7B
:204BA400A6738006802B805B8071E56C24F25018AE6C7F0075720A8F738E828F831250FFFD
:204BC400AE82AF838E6C8075AF6C740A2FF56C806CE56C24E95005756C148061AE6C7F0049
:204BE40075720A8F738E828F831250FFAE82AF83BE090CBF0009E56CFF24F7F56C803E05AF
:204C04006C803AE56D24CE5009E56DFE24CEF56D802BAE6D740A2EF56D8022056DAE6D7FA7
:204C24000075720A8F738E828F831250FFE5828583F045F07007E56DFE24F6F56D301806D5
:204C44007E177F55801990F003E49360087A277B557C8080067A1F7B557C808A068B078EE4
:204C64002D8F2E752F80900113E0F532856C30856D31A21B92017582C01205EB1021028077
:204C840014900113743CF0900112E0FFE06006EF14900112F0101D03024ED1900113743CB5
:204CA400F0900112E02401F0E0FF24FC4003024ED11204DB900111E0900112F090011174E9
:204CC40005F0856C48856D4785471E85461F8548821201C5AE487F0075720C8F738E828F65
:204CE400831250FFAE82AF838E49C218787676187877763C024ED1900112E0FF2407FE7C54
:204D0400007572028C738F828C83C006125135AC82D006EC2EF5297582C01203FD90010E85
:204D2400E07010900111E0900112F09001117405F0C2C2102503024E0C900113743CF09003
:204D44000112E0FF24FC5003024DF0EF2F904D55738006802B805B8071E56C24F25018AE6E
:204D64006C7F0075720A8F738E828F831250FFAE82AF838E6C8075AF6C740A2FF56C806C68
:204D8400E56C24E95005756C148061AE6C7F0075720A8F738E828F831250FFAE82AF83BE57
:204DA400090CBF0009E56CFF24F7F56C803E056C803AE56D24CE5009E56DFE24CEF56D809C
:204DC4002BAE6D740A2EF56D8022056DAE6D7F0075720A8F738E828F831250FFE5828583E8
:204DE400F045F07007E56DFE24F6F56D752DD0752E5D752F80856C30856D31753200A21B09
:204E040092017582C01205EB1021028014900113743CF0900112E0FFE06006EF14900112C9
:204E2400F0101D03024ED1900113743CF0900112E02401F0E0FF24FC4003024ED19001124B
:204E4400E4F0856D71856C82124FA09000641203D03092067ED87F5D80047EE07F5D8E2D57
:204E64008F2E752F80856C30856D31753200A21B92017582C01205EB1204DB8050101D0269
:204E840080239000C37405F0900112E09000C404F09000C57405F0900112EDF09001117490
:204EA40005F01204DB1025028023900112E0FF7401C39FF0E02431F5821204287582C4122E
:204EC40004838009900112E4F0900111F043C110024075C0E043C110E59A30E003539AFEB9
:204EE400D0E032C027C0E0C0F0C082C083C007C006C005C004C003C002C001C000C0D075EF
:204F0400D00075BC83AFBD7874A6077405B554567405B5555130021DBF52005004C2A280C0
:204F240045EF24915040C202D233905DE875F08012106D8031BF5C00502CD2027555057582
:204F4400540553A00F90F200E493B54F0B90F201E493FFB54B028003120A20D233905DFD41
:204F640075F08012106D75BC8BD0D0D000D001D002D003D004D005D006D007D083D082D04C
:064F8400F0D0E0D027325E
:20518200303938383838383930310080901030206040C020202020202045584954202020C8
:2051A2002020200020204348494E482047494F204B494D2000204348494E482047494F201A
:2051C2005448554320002020202043414E48204B494D20202020002020202054455354207E
:2051E2004D5033202020200020535445502047505320312E312E35200044482C4F4E2064EB
:205202006F6E6720686F2063686179202D2044482C4F464620646F6E6720686F2064756E66
:20522200670A44482C2B6D6D206B696D2070687574206C6563682064756F6E67206D6D20E9
:2052420070687574202D2044482C2D6D6D206C65636820616D206D6D20706875740A444844
:205262002C6B6B6B6B2C74747474206368696E682067696F206B696D2067696F207468759E
:20528200632067696F20747520646F6E67207468617920747474742062616E672061757491
:2052A2006F0A42432C4F4E2062616F2063616F206461752067696F202D2042432C4F4646CE
:2052C200207461742062616F2063616F206461752067696F0A4243206775692062616F209F
:2052E20063616F202D2042432C44454E2042432C4D50332062616F2063616F2064656E20C7
:2053020062616F2063616F206D70330A52532072657365743A52532C7379732072657365AB
:20532200742068652074686F6E67202D2052532C73696D20726573657420677073206D6F9A
:2053420064756C650A52532C472C6E6E2C6767206D6F69206E6E206E6761792076616F20C7
:2053620067696F2067673A303620626F2064696575206B6869656E2072657365740A4445A1
:205382004E2C584F4120786F6120746F616E20626F2074686F6E6720736F2064656E207451
:2053A20061742064656E0A44454E2C747474742C6D6D6D6D20783A20736F20636170206753
:2053C200696F207461742F6D6F20747474742C6D6D6D6D2067696F207461742F6D6F206458
:2053E200656E0A4D50332C582C616C6C20786F6120746174206361202D204D70332C582C53
:2054020061612C62622C63632C2E2E2E20786F61206361632067696F2061612C62622C63C1
:20542200630A4D50332C542C676770702C32322C31312C2E2E2E206C6170206C61692074B8
:205442006F69206461203132206C616E20676770703A67696F20706875742070686174209A
:205462006E6861630A32322C3131207468752074752062616920686174206C616E206C7515
:205482006F742074726F6E6720746875206D7563203220766120310A44542C30787878788F
:2054A20078787878782044542C2B3834787878787878787878207468617920646F6920731A
:2054C2006F206469656E2074686F6169207068750A44542C584F4120786F6120736F206455
:2054E20069656E2074686F6169207068750A44542C4F4E2044542C4F4646202D20626174FE
:2055020020746174206469656E2074686F6169207068750A00202047505320200020415396
:20552200494120200020202044532020001A00544B3C31303030204B2042414F43414F0082
:2055420041542B434D47533D2200220D0041542B435553443D312C222A31303123222C0DEC
:205562000020204B49454D2054524120544B202020002C000D544B204368696E683D000D71
:20558200546169206B686F616E20636F6E2064756F692031303030300044414E47204755A2
:2055A200492042414F2043414F000D47696F204D6F2044656E3A000D4B686F6E6720636F4C
:2055C2002067696F206D6F2064656E004755492042414F2043414F2044454E20002047557A
:2055E200492048554F4E472044414E20200041542B43434C4B3F0D00202053454E44494E62
:20560200472043434C4B20200041540D0041542B4950523D300D00202053454E44494E47B5
:20562200204950522020200041542B434C49503D310D00202053454E44494E4720434C495A
:205642005020200041542B434C54533D310D00202053454E44494E4720434C545320200069
:2056620041542B4346554E3D300D00202053454E44494E47204346554E3020200041542BFE
:205682004346554E3D310D00202053454E44494E47204346554E3120200041542B434D47C5
:2056A200463D310D00202053454E44494E4720434D474620200041542B434E4D493D312CE1
:2056C200312C302C302C310D00202053454E44494E4720434E4D4920200041542B434D470F
:2056E20044413D2244454C20414C4C220D00202053454E44494E4720434D474441202000C3
:205702004154480D0041542B434D474C3D22414C4C220D000D6C656E68206B686F6E672048
:20572200686F70206C65000D6C656E68206B686F6E6720686F70206C650D50686F6E6520C5
:2057420070687520677569206C656E68000D6368696E6820646F6E6720686F207468616E2D
:205762006820636F6E67000D6368696E6820646F6E6720686F207468616E6820636F6E6728
:205782000D50686F6E652070687520677569206C656E68000D62616F2063616F2064656E7E
:2057A200207468616E6820636F6E67000D62616F2063616F2064656E207468616E6820634E
:2057C2006F6E670D50686F6E652070687520677569206C656E68000D62616F2063616F2031
:2057E2007468616E6820636F6E67000D62616F2063616F207468616E6820636F6E670D50E4
:20580200686F6E652070687520677569206C656E68000D726573657420626F20646965755B
:20582200206B6869656E000D726573657420626F2064696575206B6869656E0D50686F6E7E
:20584200652070687520677569206C656E68000D646174207265736574207468616E68206C
:20586200636F6E67000D646174207265736574207468616E6820636F6E670D50686F6E65F5
:205882002070687520677569206C656E68000D646174206E6761792067696F20726573652A
:2058A20074207468616E6820636F6E67000D646174207265736574206B686F6E6720686FC1
:2058C20070206C65000D646174207265736574206B686F6E6720686F70206C650D50686F19
:2058E2006E652070687520677569206C656E68000D72657365742067736D207361753130D9
:2059020073000D72657365742067736D207361753130730D50686F6E6520706875206775CE
:2059220069206C656E68000D6C656E68207265736574206B686F6E6720686F70206C6500AF
:205942000D6C656E68207265736574206B686F6E6720686F70206C650D50686F6E65207028
:20596200687520677569206C656E68000D7468617920646F692067696F207361632078614E
:20598200206163717569207468616E6820636F6E67000D7468617920646F692067696F203A
:2059A200736163207861206163717569207468616E6820636F6E670D50686F6E6520706889
:2059C2007520677569206C656E68000D4C656E6820736163206163717569206B686F6E67CF
:2059E20020686F70206C65000D4C656E6820736163206163717569206B686F6E6720686F01
:205A020070206C650D50686F6E652070687520677569206C656E68000D786F612067696FCF
:205A22002064656E207468616E6820636F6E67000D786F612067696F2064656E20746861AB
:205A42006E6820636F6E670D50686F6E652070687520677569206C656E68000D6C656E6853
:205A62002064656E207468616E6820636F6E67000D6C656E682064656E207468616E682075
:205A8200636F6E670D50686F6E652070687520677569206C656E68000D74686F6E672073FD
:205AA2006F2064656E206B686F6E6720686F70206C65000D74686F6E6720736F2064656E09
:205AC200206B686F6E6720686F70206C650D50686F6E652070687520677569206C656E6895
:205AE200000D4B686F6E6720436F204D6F64756C65204D7033000D44756E67204D7033008D
:205B02000D426174206D7033000D546174206D7033000D54657374206D7033207468616E21
:205B22006820636F6E67000D6B686F6E672064756E672067696F207068617420686F61635B
:205B4200206D7033206C6F69000D4D70332064616E672063686F69206E686163206E656E1A
:205B62002063687561207468652074657374000D4C656E68204D5033206B686F6E672068DE
:205B82006F70206C65000D42617420475053000D54617420475053000D6768692070686F19
:205BA2006E6520706875206D6F69207468616E6820636F6E67000D7468617920646F692005
:205BC20070686F6E6520706875206B686F6E67207468616E6820636F6E67000D586F6120B6
:205BE20070686F6E6520706875000D6C656E68206B686F6E67207468616E6820636F6E6737
:205C020020646F2063687561206B686F692074616F2070686F6E6520706875000D426174D4
:205C22002070686F6E6520706875000D5461742070686F6E6520706875000D4C656E68202A
:205C420070686F6E6520706875206B686F6E6720686F70206C65000D4C656E68206B686F36
:205C62006E6720686F70206C65000D4C656E68206B686F6E6720686F70206C650D50686F9E
:205C82006E652070687520677569206C656E680080204E4841205048415420545249454E30
:205CA20000C031204D4159000D6D61742078756E672067696179000D7068617420686965DF
:205CC2006E206C6F6920646F632063616D2031000D6C6F6920646F632063616D2031000DA2
:205CE20070686174206869656E206C6F6920646F632063616D2032000D6C6F6920646F632D
:205D02002063616D2032000D70686174206869656E206C6F6920646F632063616D20330002
:205D22000D6C6F6920646F632063616D2033000D70686174206869656E206C6F6920646F41
:205D4200632063616D2034000D6C6F6920646F632063616D2034000D62616F2063616F203B
:205D62006461752067696F000D67736D207265736574207468616E6820636F6E67002000D7
:205D82002047200020442000204120000D6368696E682067696F2062616E672074617900D9
:205DA2000D2A6368696E682067696F2062616E67207461792A0020202020202000C04D41E3
:205DC200592031202020202020202020200020204D503320200020204F4B2020200020200D
:205DE2004E4F202020000D2A6469656E206170206B686F6920706875632A000D2A646965AE
:0D5E02006E20617020746861702A00142801
:204F8A0075BA01759A50438E0475D7C875D6FE438E1075AF0122AF828F7275730090006410
:204FAA00125050AE82AF83AC717D00EC2EFEED3FFF8E058D037C0074E9C39BFB74FE9CFC97
:204FCA008F017A00EBC399FBEC9AFC9001C5747EF09001C674FFF09001C77406F09001C8EC
:204FEA007412F09001C9E4F08F069001CAEEF09001CBEDF08C079001CCEFF09001CDEBF0F4
:20500A009001CE74EFF07F00EF24C5F582E43401F583E0F59BE59A035401700543C1108025
:0B502A00F4539AFD0FBF0A0040DE2285
:06007800E478FFF6D8FD5C
:200056007902E94400601B7A01905E0D78CF75A001E493F2A308B8000205A0D9F4DAF27513
:02007600A0FFE9
:1B50350020F71130F6138883A88220F509F6A8837583002280FEF280F5F0227A
:1D505000E5828572F0A4C582C0F08573F0A4D0F025F0C5838572F0A42583F58322E4
:20506D00E572457360467A01E57225E0F572E573334012F573E5829572E583957340030AC0
:20508D0080E6C3E57313F573E57213F572C3E5829572F5F0E58395734005F58385F082C339
:0D50AD00E57313F573E57213F572DAE12275
:20007E007800E84400600A790175A000E4F309D8FC78CEE84401600C7902900001E4F0A3AF
:04009E00D8FCD9FAB7
:2050BA007A10E4FBFCE58225E0F582E58333F583EB33FBEC33FCEB9572F5F0EC9573400636
:0950DA00FCABF0438201DADD2297
:0D00490075817712516DE58260030200465B
:1C50E30020F71430F6148883A88220F507E6A88375830022E280F7E49322E022DC
:2050FF00C2D5E58330E70DD2D5E4C39582F582E49583F583E57330E70BE4C39572F572E4AB
:16511F009573F57312506D30D50BE4C39582F582E49583F5832260
:20513500C2D5E58330E70DD2D5E4C39582F582E49583F583E57330E70DB2D5E4C39572F541
:1851550072E49573F5731250BA30D50BE4C39582F582E49583F5832285
:04516D007582002225
:00000001FF
