:2000A500AF827E0075730A8E748F828E83C007C006124D29AC82D006D007ECC454F0FC7521
:2000C500730A7574008F828E83C004124CF3AE82D004EE4CF58222E582FFC4540F75F00AAB
:2000E500A4FE740F5F2EF582221203187582D012035775820712035775821012035702036E
:20010500331203187582D01203577582041203571203331203187582D1120357C200120360
:200125007C1200DCAF82C007120333D0078F8222AD82AE83AFF0C007C006C0051203187513
:2001450082D01203577582001203571203331203187582D1120357AA1BAB1CAC1DD200C0E9
:2001650004C003C00212037C1200DCA982D002D003D0048A828B838CF0E9124C29AA18AB5B
:2001850019AC1AD200C004C003C00212037C1200DCA982D002D003D0048A828B838CF0E9BE
:2001A500124C29C20012037C1200DCAC82D005D006D0078D828E838FF0EC124C2902033378
:2001C500AF82C0071203187582D0120357758200120357851F821200A5120357851E8212DF
:1201E50000A5120357D0078F821200A5120357020333B4
:2001F70075C70075C50075C60075C38075C40043C11022AE82AF8375C78375C5018EC48FD3
:20021700C375C65A75C6A500AFC2C0071201F7D0078F8222AE82AF8375C78375C5028EC494
:200237008FC38528C275C65A75C6A5000201F7AE82AF8375C78375C5038EC48FC375C65AE0
:2002570075C6A5000201F743C1107F20EF60101FEF24A3F582E43400F58374FFF080EDBF30
:2002770020005018EF24A3FDE43400FE8F827583F00FE493FC8D828E83F080E39000000296
:2002970002467F00BFCD00502975C78375C5028FC475C300EF24A3F582E43400F5830FE049
:1302B700F5C275C65A75C6A500C0071201F7D00780D222EC
:2002CA00759850438E40538EFE758BCC758DFFC2ABD28ED2ACD2A022AD82AE83AFF0C299C1
:2002EA008D828E838FF0124CD7FC60218C9920990543C11080F8C2998D828E838FF0124CDC
:0E030A00D7FCBC1A01220DBD00D60E80D322F6
:20031800D2C043C11043C110D2CD43C11043C110C2C043C11043C110C2CD22C2C043C11053
:2003380043C110D2CD43C11043C110D2C02243C11043C110D2CD43C11043C110C2CD22AFC7
:20035800827E00EF23540124FF92C08F05ED2DFFC007C006120346D006D0070EBE08004053
:20037800E20203467F00D2C07E0043C11043C110D2CD43C11043C1108F05ED2DFDA2C0E4C9
:1E039800334DFFC2CD0EBE080040DFA200B392C0C007120346D007A2C092CD8F8222B2
:2003B600AE82AF837C007D00C3EC9EED9F500A43C1100CBC00F20D80EF22AE82AF837C004F
:2003D6007D00C3EC9EED9F501D9003E8C007C006C005C0041203B6D004D005D006D0070C86
:2003F600BC00DF0D80DC22AF82E5294FF58212048375820D020483AF823028118F821204D5
:2004160083852A82852B83852CF00205008F820204E1E582FFC4540124FF9283EFA2E5E42E
:200436003324FF9282EF2323540124FF9281EF23540124FF9280D284D285C284EF54012485
:20045600FF9283EF03540124FF9282EF03035401FE24FF9281EFA2E3E433FF24FF9280D2E5
:200476008400C2849000321203B6C28522E582FFC4540124FF9283EFA2E5E43324FF92822B
:20049600EF2323540124FF9281EF23540124FF9280D284C285C284EF540124FF9283EF0399
:2004B600540124FF9282EF03035401FE24FF9281EFA2E3E433FF24FF9280D28400C2849031
:2004D60000320203B675820C020483E582FF600E8F82120483904D6575F0800205007582EA
:2004F600011204839006400203B6AD82AE83AFF07C008D828E838FF0124CD7FB6055BC10F0
:20051600005050BB80005025EB24E050200CEC601C8B820DBD00010EC007C006C005C004A6
:20053600120428D004D005D006D00780C58D828E838FF0124CD7FBA3AD82AE838B82C00726
:20055600C006C005C004120483D004D005D006D007809F22C286903A981203B675801C0080
:20057600C284900FA01203B6D28400C2849000A01203B6D28400C2849000A01203B67580F2
:200596001400C2849003E81203B6D28400C2840075801100C2849000281203B67580100035
:2005B600C2840075801300C2849000281203B675801000C2840075801600C28490002812A8
:2005D60003B675801000C2840075801800C2849003E80203B6AF82E5322405400302067D3F
:2005F600AD307E0075730A8E748D828E83C007C006C005124D29AB82D005D00674302BF500
:200616003375730A7574008D828E83124CF3AD8274302DF534AD317E0075730A8E748D82BD
:200636008E83C006C005124D29AB82D005D00674302BF53575730A7574008D828E83124C56
:20065600F3AD82D00774302DF5367537008F82120483852D82852E83852FF0120500900084
:200676003375F040020500AD307E0075730A8E748D828E83C007C006C005124D29AB82D03F
:2006960005D00674302BF53875730A7574008D828E83124CF3AD82D00774302DF5393001EB
:2006B600067D3A7E0080047D207E008D3AAD317E0075730A8E748D828E83C007C006C005C1
:2006D600124D29AB82D005D00674302BF53B75730A7574008D828E83124CF3AD82D00774DF
:2006F600302DF53C3001067D3A7E0080047D207E008D3DAD327E0075730A8E748D828E8310
:20071600C007C006C005124D29AB82D005D00674302BF53E75730A7574008D828E83124CB6
:20073600F3AD82D00774302DF53F7540008F82120483852D82852E83852FF012050074E8C5
:0E0756002530400990003875F0400205002261
:114D650020202020202020202020202020202020003D
:06000000020049020AEEB5
:03000B00020D865D
:0100130032BA
:01001B0032B2
:03002300021B9F1E
:03002B00024AE4A2
:01003300329A
:03003B00020B3E77
:03004300024AD49A
:0300A20002004613
:03004600023B97E3
:20076400E54875F006A4FFAD477E0075730A8E748D828E83C007124D29AD82D007ED2FF54E
:20078400597E017D0190F008E493FCC3ED9C400302082EED90F00893FC8D030BEB3395E00B
:2007A400FAEB2408F582EA34F0F583E493F9C3EC99E433F97C0009B900010CED90F008930C
:2007C400F8C3E55998E4337F0029F9EF3CFCEB2408F582EA34F0F583E493FFC3E5599FE497
:2007E400337B0029F582EB3CF5837573028B74C006C005124CF3E5828583F0D005D00645F4
:20080400F060218E047F008C828F83A37573028F74C006124CF3AC82AF83D006EC4F24FFF7
:2008240092A180060D8D0602078990F008E493FFEEB50702800122EE90F00893FF90F009EB
:20084400E493FDC3EF9DE433FF7D000FBF00010DEE90F00893FCC3E5599CE4337B002FFF00
:20086400EB3DFD90F009E493FCC3E5599CE4337B002FF582EB3DF5837573028B74C006121D
:200884004CF3E5828583F0D00645F060197F008E828F83A37573028F74124CF3AE82AF834E
:2008A400EE4F24FF92A1227876B60002800E7876B6010280447876B6024880287877E6B5C0
:2008C40048077878E6B5470122AF487877A607AE477878A6068E728F82124B9475415A7822
:2008E4007676022230920BD2C27876A2C2E433F68007AF411541EF700920920678767600D3
:20090400C2C22220021790F000E493601090F01EE493FF24E84006900110E060047582004B
:20092400229000C4E0FFE060167556019000C3E060068F067F0080047E007F008E8222AE2E
:20094400545306017F008E5AE55A24CAFBE43400FC8B828C83E070030209FFE55A244FF91E
:20096400E7FCB5470DE55A244BF9E7FBB549030209FF9000C3E060030209F5E55A244BF9B6
:2009840087038B7375740090003CC004124C44E5828583F0D00424D0FA740235F0FB7D007C
:2009A400EC2AFAED3BFB8549738D7490003CC003C002124C44AC82AD83D002D003EAC39C7F
:2009C400FAEB9DFBAC477D00EAC39CF582EB9DF5837573D0757402124CF3AC82AD83C374DD
:2009E400689C74818DF063F08095F040047D0080027D018D56E55A04F58222AD5A7401C366
:200A04009DF55AAC5A7D00ECB50606EDB50702800302094C75820022900200120246854F58
:200A2400289003FE12022B854B289003FF12022B8550289003FC12022B854C289003FD029B
:200A4400022B75FA0075EA009000C674A8F07461A3F075DA49D2DE22538E7F758900758A06
:200A640024758CFAC28DD28CD2A92243C110B21BA21B9287D219900113E0FFE06006EF149B
:200A8400900113F0900115E0FFE06006EF14900115F0900110E0FFBF0201220546E546245C
:200AA400C45046754600E5426006D54303754200D21A0547E54724C4502FC203754700056D
:200AC40048E54824E85017787776187548009000C8E0FFE06006EF149000C8F0C204054914
:200AE400E54924F4500375490022C027C0E0C0F0C082C083C007C006C005C004C003C00222
:200B0400C001C000C0D075D00843C1109000C974FAF0C22C75D000120A6F75D008D0D0D02D
:200B240000D001D002D003D004D005D006D007D083D082D0F0D0E0D02732C027C0E0C0F070
:200B4400C082C083C007C006C005C004C003C002C001C000C0D075D00843C11010D8030212
:200B64000D699000C6E0FEA3E0FF8EEA8FFA9000C674A82EF074613FA3F0E5547003020C53
:200B84005830B60320B70D301205D214020C58D212020C58201603020C4CE554FF14FE333F
:200BA40095E0FDEE24CAF582ED3400F583741EF09000C3E0FEE06008EE149000C3F0806BA8
:200BC400E5566032EF14244FF9870F0FA70FEF24C45023E55414244FF87600E55414244B46
:200BE400F9870F0FA70FEF24F45040E554FF14244BF876008035E5567031E55414244FF993
:200C0400870F1FA70FEF24C35021E55414244FF8763BE55414244BF9870F1FA70FEF24F38F
:200C24005009E554FF14244BF8760BC214C212C21675D00012090775D00885825475D0004D
:200C4400120A1C75D008800C301404D21680051012028000301C0930B50690010D7402F0E2
:200C6400301C0330B5047F0080027F01EF24FF921F201E0330B5047F0080027F01EF24FF37
:200C8400921C201D0A201F03201C047F0080027F01EF24FF921DA2B5921E30200930B3064E
:200CA40090010E7402F030200330B3047F0080027F01EF24FF922320220330B3047F00807E
:200CC400027F01EF24FF922020210A2023032020047F0080027F01EF24FF9221A2B39222A6
:200CE40030240930B40690010F7402F030240330B4047F0080027F01EF24FF9227202603CF
:200D040030B4047F0080027F01EF24FF922420250A2027032024047F0080027F01EF24FF2A
:200D24009225A2B492269001CEE014F0E070089001CE740EF0B2289000C9E0FFE0600EEF2F
:200D4400149000C9F09001CF741CF080189001CFE014F0E0700F9001CF741CF075D00012E0
:200D64000A6F75D008D0D0D000D001D002D003D004D005D006D007D083D082D0F0D0E0D088
:200D84002732C0E0C082C083C0D075D01043C110E55460517401B5540474018001E424FF6F
:200DA40092C47402B5540474018001E424FF92C3E5A0540FFFE553904D81934FF5A0E556D5
:200DC40060067E017F0080047EFF7FFFAF53EE2FF55324F7500575530780137408B5530E61
:200DE4007553008009C2C3A2C392C453A00FD0D0D083D082D0E032AD82AE83AFF0AC5C909E
:200E04000114ECF0855BF0ECA4FB900115740A2BF0C229AB5B302903020F28900115E070C7
:200E240003020F2843C110758280C007C006C005C004C003120483855D82855E83855FF0D7
:200E4400120500D003D004D005D006D007301832752D0B752E51752F808548308547318590
:200E64004632A21B92017582C0C007C006C005C004C0031205EBD003D004D005D006D007EB
:200E8400806990F003E4937032752D13752E51752F80854830854731854632A21B92017540
:200EA40082C0C007C006C005C004C0031205EBD003D004D005D006D0078030752D1B752ED8
:200EC40051752F80854830854731854632A21B92017582C0C007C006C005C004C0031205AB
:200EE400EBD003D004D005D006D007900113E06003020E198B021BEA602A900113ECF0909E
:200F04000114ECF08D828E838FF0C007C006C005C004C0031202E2D003D004D005D006D04C
:200F240007020E197582801204E1A22922900001E06020900004E0701A755D25755E5175A3
:200F44005F80755B03755C0190512375F080120DFBC32290513675F0801202E23030067E4B
:200F6400767F4D80047E127FF07D808E828F838DF01202E290514075F0801202E290000585
:200F84001203D0D322900001E4F0C20D9001167407F0755D57755E51755F80755B0F755CDC
:200FA4000190514375F080120DFB900116E4F0900001E024FF2285826085836185F06290A1
:200FC40001487420F0900149744BF090014A743DF0AB4B7C0075730A8C748B828C83124D5C
:200FE40029AB8274302B90014BF0AB4B7C0075730A8C748B828C83124CF3AB8274302B909F
:20100400014CF090014D743AF0AB4F7C0075730A8C748B828C83124D29AB8274302B90017A
:201024004EF0AB4F7C0075730A8C748B828C83124CF3AB8274302B90014FF0900150742C4C
:20104400F0AB4C7C0075730A8C748B828C83124D29AB8274302B900151F0AB4C7C0075736A
:201064000A8C748B828C83124CF3AB8274302B900152F0900153743AF0AB507C0075730A3B
:201084008C748B828C83124D29AB8274302B900154F0AB507C0075730A8C748B828C831240
:2010A4004CF3AB8274302B900155F0900156E4F09001577420F09001587454F090015974F5
:2010C4003DF0AB487C0075730A8C748B828C83C004C003124D29AA82D003D00474302A9022
:2010E400015AF075730A7574008B828C83124CF3AE8274302E90015BF090015C743AF0AE42
:20110400477F0075730A8F748E828F83C007C006124D29AC82D006D00774302C90015DF050
:2011240075730A7574008E828F83124CF3AE8274302E90015EF090015F7420F090016074A3
:2011440047F09001617450F09001627453F0900163743DF0A218E433FF90F003E4932F2452
:2011640030900164F0900165E4F078758673F57490001C124C44757300757401124D29AEE7
:20118400829001667420F09001677444F09001687448F0900169743DF090F000E493243023
:2011A40090016AF090016B7420F090016C7442F090016D04F090016E743DF090F002E49392
:2011C400243090016FF09001707420F0900171744DF09001727431F0900173743DF09000C2
:2011E400CAE060067D317F0080047D307F00900174EDF09001757420F0900176744DF0904A
:2012040001777432F0900178743DF09000CBE060067D317F0080047D307F00900179EDF0AD
:2012240090017A7420F090017B7458F090017C7447F090017D743DF09000C9E060067D319F
:201244007F0080047D307F0090017EEDF090017F7420F09001807452F090018104F090017D
:2012640082743DF09000C8E02430900183F0900184742FF090F004E4932430900185F0902A
:2012840001867420F09001877454F09001887452F0900189743DF090F005E493FF7D0075F8
:2012A400730A8D748F828D83C006124D29AD8274302D90018AF090F005E493FF7D007573D2
:2012C4000A8D748F828D83124CF3AD82D00674302D90018BF090018C7420F090018D744434
:2012E400F090018E04F090018F744EF0900190743DF0A2A1E4332430900191F090019274FC
:2013040020F09001937456F0900194744FF0900195744CF0900196743DF07F0075730A8F65
:20132400748E828F83C007C006124D29AC82D006D00774302C900197F075730A7574008ED2
:20134400828F83124CF3AE8274302E900198F09001997420F090019A744DF090019B74500F
:20136400F090019C7433F090019D743DF090F011E493243090019EF03031067E207F008067
:20138400047E007F0090019FEEF09001A07444F09001A17454F09001A2743DF090F01DE422
:2013A4009324309001A3F09001A4E4F0042560FDE43561FEAF628D828E838FF0124CD7FC36
:2013C400BC2A028011C007C006C005120F89D005D006D0078005900001E4F0A2319230C0D3
:2013E40007C006C005120F31D005D006D007400122904DDE75F080C007C006C0051202E238
:2014040090014875F0001202E290015775F0001202E290016675F0001202E2D005D006D084
:201424000790F01DE493FCBC0200502130311E90516875F080C007C006C0051202E290F0ED
:201444001275F0801202E2D005D006D0078D828E838FF0124CD7FDBD2A02803B900001E033
:20146400603590516A75F0801202E290000175F0001202E230310F900005E070099051750D
:2014840075F0801202E2900005E4F0900004F0900003F0900002F08560828561838562F0D4
:2014A4001202E274012560FDE43561FEAF628D828E838FF0124CD7FDBD2A0990512375F088
:2014C400800202E2755D8F755E51755F80755B32755C0190512375F080020DFBAD82AE83A2
:2014E400AFF09001A57454F09001A6743DF0AB487C0075730A8C748B828C83C007C006C0B9
:2015040005C004C003124D29A982D003D0047430299001A7F075730A7574008B828C8312E3
:201524004CF3AB8274302B9001A8F09001A9743AF0AB477C0075730A8C748B828C83C0042B
:20154400C003124D29A982D003D0047430299001AAF075730A7574008B828C83124CF3AB7F
:201564008274302B9001ABF09001AC7420F09001AD7447F09001AE7450F09001AF7453F056
:201584009001B0743DF0A218E433FC90F003E4932C24309001B1F09001B27420F09001B3E1
:2015A4007444F09001B404F09001B5744EF09001B6743DF0A2A1E43324309001B7F09001EF
:2015C400B8E4F09001B9740DF09001BA744DF09001BB744FF09001BC7444F09001BD04F08E
:2015E4009001BE744EF09001BF743DF090F008E49324309001C0F09001C1E4F0A2329230A5
:20160400120F31D005D006D0074001229001A575F000C007C006C0051202E29001B975F0FD
:20162400001202E2D005D006D00790F008E49370030218139051A075F080C007C006C005D7
:201644001202E290F008E493FC90F00893FB7A0075733C8A748B828A83C004124D29AA8251
:20166400D00474302A9001BAF0EC90F00893FB7A007573068A748B828A83C004124D297546
:20168400730A757400124CF3AA82D00474302A9001BBF09001BC743AF0EC90F00893FC7B1C
:2016A400007573068B748C828B83124CF3AB8274302B9001BDF09001BE7430F09001BF74EB
:2016C40020F09001C0742DF09001B975F0001202E29001B97420F090F009E493FC7B0075B5
:2016E400733C8B748C828B83124D29AB8274302B9001BAF090F009E493FC7B007573068B6D
:20170400748C828B83124D2975730A757400124CF3AB8274302B9001BBF090F009E493FC4D
:201724007B007573068B748C828B83124CF3AB8274302B9001BDF09001BFE4F09001B975B3
:20174400F0001202E2D005D006D0077C0290F008E493FBC3EC9B4003021828EC90F00893CF
:20176400FB7A0075733C8A748B828A83C007C006C005C004124D29AA82D00474302A9001B7
:20178400BAF0EC90F00893FB7A007573068A748B828A83C004124D2975730A757400124C94
:2017A400F3AA82D00474302A9001BBF0EC90F00893FB7A007573068A748B828A83C00412D0
:2017C4004CF3AA82D004D005D006D00774302A9001BDF08C02EA30E00D9001B97420F09045
:2017E40001BFE4F0800C9001B9740DF09001BF7420F09001B975F000C007C006C005C00471
:201804001202E2D004D005D006D0070C0217519051AD75F080C007C006C0051202E2D00572
:20182400D006D0078D828E838FF01202E2755DC2755E51755F80755B32755C019051237509
:20184400F080020DFB900001E4F0D230120F31400122904DEF75F0801202E2755DD3755ECF
:2018640051755F80755B32755C0190512375F080020DFB900116E4F0755DEE755E51755FC5
:2018840080755B0F755C029051E475F080120DFB5066900117E0FFBF025E900132E024D05B
:2018A40075F00AA4FF900133E02F24D0F548AE487F0075730C8F748E828F83124CF3AE82FF
:2018C4008E49900135E024D075F00AA4FF900136E02F24D0F547900138E024D075F00AA4CB
:2018E400FF900139E02F24D0F54685471E85461F8548821201C5D322C3227F00755DDE7564
:201904005E4D755F80755B0F755C019051FF75F080C007120DFBD0074003021B3D755D0D1A
:20192400755E52755F80755B0F755C0190520375F080C007120DFBD0074003021B3D755D88
:2019440029755E52755F80755B0F755C0190521E75F080C007120DFBD00790F003E4937029
:2019640003021B3D755D45755E52755F80755B0F755C0190523A75F080C007120DFBD0070C
:201984004003021B3D755D61755E52755F80755B0F755C0190525675F080C007120DFBD07B
:2019A400074003021B3D9001167406F0755D7E755E52755F80755B0F755C0290527375F039
:2019C40080C007120DFBD0074003021B3D900117E0FEBE01028003021B3D7E007D00ED24FE
:2019E40029F582E43401F5830DE0FCBC2C060EBE0300500ABD0B00500543C11080E0EE240F
:201A0400FD4003021B3D8D060EEE3395E0FCEE2429F582EC3401F583E0FEBE2C15ED04FEDE
:201A2400ED2429F582E43401F583E0FC24D0F5488029ED04FCED2429F582E43401F583E09B
:201A440024D075F00AA4FDEC04FEEC2429F582E43401F583E0FC24D02DF5480E8E050DED7A
:201A64003395E0FCED2429F582EC3401F583E0FDBD2C15EE04FDEE2429F582E43401F58367
:201A8400E0FC24D0F5478029EE04FCEE2429F582E43401F583E024D075F00AA4FEEC04FD8A
:201AA400EC2429F582E43401F583E0FC24D02EF547ED04FEFD0DED3395E0FCED2429F5826C
:201AC400EC3401F583E0FDBD2C12EE2429F582E43401F583E0FD24D0F5468026EE04FDEEBF
:201AE4002429F582E43401F583E024D075F00AA4FEED2429F582E43401F583E0FD24D02E67
:201B0400F546AD487E0074072DFDE43EFEC374179D74808EF063F08095F05007E54824EF02
:201B2400FE8006AD4874072DFE8E4885471E85461F8548821201C57F01EF24FF92189001E4
:201B440016E4F02220A002C322755D9B755E52755F80755B0F755C0290529075F080120DC0
:201B6400FB5036755DBF755E52755F80755B0F755C019052AC75F080120DFB501C755DE476
:201B8400755E52755F80755B0F755C019052D075F080120DFB5002D322C322C027C0E0C0F3
:201BA400F0C082C083C007C006C005C004C003C002C001C000C0D075D010209803022AB311
:201BC40043C110900114E0900113F0900118E0FF241AF582E43401F583E599F0900116E011
:201BE400FF24F85003022A9FEF240A83F582EF240C83F583E4730A0404549FCC24411C26A8
:201C040026262A272429900118E0FF241AF582E43401F583E0FEBE22028003021DDC8F1427
:201C24007D00740C2CF582E43DF58375730D8D74C017C016C015C01475D000124CF375D040
:201C440010AA82AB83D014D015D016D017EA241AF582EB3401F583E0FBBB20028003021DEF
:201C6400DC740B2CF582E43DF58375730D757400C017C016C015C01475D000124CF375D0BA
:201C840010AA82AB83D014D015D016D017EA241AF582EB3401F583E0FBBB3A028003021D95
:201CA400DC740A2CF582E43DF58375730D757400C017C016C015C01475D000124CF375D07B
:201CC40010AA82AB83D014D015D016D017EA241AF582EB3401F583E0FBBB4B028003021D44
:201CE400DC74092CF582E43DF58375730D757400C017C016C015C01475D000124CF375D03C
:201D040010AA82AB83D014D015D016D017EA241AF582EB3401F583E0FBBB4C028003021D02
:201D2400DC74082CF582E43DF58375730D757400C017C016C015C01475D000124CF375D0FC
:201D440010AA82AB83D014D015D016D017EA241AF582EB3401F583E0FBBB43028003021DCB
:201D6400DC74072CF582E43DF58375730D757400C017C016C015C01475D000124CF375D0BD
:201D840010AA82AB83D014D015D016D017EA241AF582EB3401F583E0FBBB433C74062CF558
:201DA40082E43DF58375730D757400C017C01675D000124CF375D010AC82AD83D016D01763
:201DC400EC241AF582ED3401F583E0FDBD2B099001167402F0022A9FBE47028003021EA7CD
:201DE4008F147D00740C2CF582E43DF58375730D8D74C017C016C015C01475D000124CF321
:201E040075D010AA82AB83D014D015D016D017EA241AF582EB3401F583E0FBBB4E028003D9
:201E2400021EA7740B2CF582E43DF58375730D757400C017C016C015C01475D000124CF352
:201E440075D010AA82AB83D014D015D016D017EA241AF582EB3401F583E0FBBB4945740A60
:201E64002CF582E43DF58375730D757400C017C01675D000124CF375D010AC82AD83D01668
:201E8400D017EC241AF582ED3401F583E0FDBD52129052F675F08075D0001202E275D010D1
:201EA400022A9FBE3A028003021FF28F147D00740C2CF582E43DF58375730D8D74C017C05A
:201EC40016C015C01475D000124CF375D010AA82AB83D014D015D016D017EA241AF582EBDA
:201EE4003401F583E0FBBB49028003021FF2740B2CF582E43DF58375730D757400C017C08A
:201F040016C015C01475D000124CF375D010AA82AB83D014D015D016D017EA241AF582EB99
:201F24003401F583E0FBBB54028003021FF2740A2CF582E43DF58375730D757400C017C03F
:201F440016C015C01475D000124CF375D010AA82AB83D014D015D016D017EA241AF582EB59
:201F64003401F583E0FBBB4D028003021FF274092CF582E43DF58375730D757400C017C007
:201F840016C015C01475D000124CF375D010AA82AB83D014D015D016D017EA241AF582EB19
:201FA4003401F583E0FBBB434574082CF582E43DF58375730D757400C017C01675D00012B8
:201FC4004CF375D010AC82AD83D016D017EC241AF582ED3401F583E0FDBD2B129052FB75DA
:201FE400F08075D0001202E275D010022A9FE4BE200104FD70030221898F137C00740C2B66
:20200400F582E43CF58375730D8C74C017C016C015C014C01375D000124CF375D010A98279
:20202400AA83D013D014D015D016D017E9241AF582EA3401F583E0FABA3A028003022189C2
:20204400740B2BF582E43CF58375730D757400C017C016C015C014C01375D000124CF375B1
:20206400D010A982AA83D013D014D015D016D017E9241AF582EA3401F583E0FABA4C028014
:2020840003022189740A2BF582E43CF58375730D757400C017C016C015C014C01375D00089
:2020A400124CF375D010A982AA83D013D014D015D016D017E9241AF582EA3401F583E0FA96
:2020C400BA4702800302218974092BF582E43CF58375730D757400C017C016C015C014C01F
:2020E4001375D000124CF375D010A982AA83D013D014D015D016D017E9241AF582EA340150
:20210400F583E0FABA4D02800302218974082BF582E43CF58375730D757400C017C016C030
:2021240015C014C01375D000124CF375D010A982AA83D013D014D015D016D017E9241AF507
:2021440082EA3401F583E0FABA433A74072BF582E43CF58375730D757400C017C016C0153C
:2021640075D000124CF375D010AB82AC83D015D016D017EB241AF582EC3401F583E0FCBC91
:202184002B03022305ED70030223508F147D00740C2CF582E43DF58375730D8D74C017C0A5
:2021A40016C015C01475D000124CF375D010AA82AB83D014D015D016D017EA241AF582EBF7
:2021C4003401F583E0FBBB3A028003022350740B2CF582E43DF58375730D757400C017C054
:2021E40016C015C01475D000124CF375D010AA82AB83D014D015D016D017EA241AF582EBB7
:202204003401F583E0FBBB50028003022350740A2CF582E43DF58375730D757400C017C0FE
:2022240016C015C01475D000124CF375D010AA82AB83D014D015D016D017EA241AF582EB76
:202244003401F583E0FBBB4902800302235074092CF582E43DF58375730D757400C017C0C6
:2022640016C015C01475D000124CF375D010AA82AB83D014D015D016D017EA241AF582EB36
:202284003401F583E0FBBB4C02800302235074082CF582E43DF58375730D757400C017C084
:2022A40016C015C01475D000124CF375D010AA82AB83D014D015D016D017EA241AF582EBF6
:2022C4003401F583E0FBBB4302800302235074072CF582E43DF58375730D757400C017C04E
:2022E4001675D000124CF375D010AC82AD83D016D017EC241AF582ED3401F583E0FDBD2BAE
:202304004B8F147D0074092CF582E43DF58375730D8D7475D000124CF375D010AC82AD8356
:20232400EC241AF582ED3401F583E0FDBD4C03D38001C392064006300C03022A9FC20AC2E8
:2023440008C2079001167403F0022A9FBE4B598F147D00740C2CF582E43DF58375730D8D0F
:2023640074C017C01675D000124CF375D010AC82AD83D016D017EC241AF582ED3401F583E7
:20238400E0FDBD4F23A22AB39229C22AE5447003022A9F7544009052D075F08075D00012F9
:2023A40002E275D010022A9FBE54028003022A9F8F167F00740C2EF582E43FF58375730DDA
:2023C4008F74C017C01675D000124CF375D010AC82AD83D016D017EC241AF582ED3401F57B
:2023E40083E0FDBD4F028003022A9F740B2EF582E43FF58375730D75740075D000124CF3EA
:2024040075D010AE82AF83EE241AF582EF3401F583E0FFBF4E028003022A9FD22A022A9FBF
:20242400900118E0FF241AF582E43401F583E0FEBE20028003022A9F8F167F00740C2EF5F7
:2024440082E43FF58375730D8F74C017C01675D000124CF375D010AC82AD83D016D017ECB4
:20246400241AF582ED3401F583E0FDBD3A028003022A9F740B2EF582E43FF58375730D75BC
:202484007400C017C01675D000124CF375D010AC82AD83D016D017EC241AF582ED3401F549
:2024A40083E0FDBD5A028003022A9F740A2EF582E43FF58375730D757400C017C01675D0C3
:2024C40000124CF375D010AC82AD83D016D017EC241AF582ED3401F583E0FDBD5402800379
:2024E400022A9F74092EF582E43FF58375730D757400C017C01675D000124CF375D010AC2E
:2025040082AD83D016D017EC241AF582ED3401F583E0FDBD54028003022A9F74082EF5829E
:20252400E43FF58375730D757400C017C01675D000124CF375D010AC82AD83D016D017EC6F
:20254400241AF582ED3401F583E0FDBD55028003022A9F74072EF582E43FF58375730D75C4
:202564007400C017C01675D000124CF375D010AC82AD83D016D017EC241AF582ED3401F568
:2025840083E0FDBD53028003022A9F74062EF582E43FF58375730D757400C017C01675D0ED
:2025A40000124CF375D010AC82AD83D016D017EC241AF582ED3401F583E0FDBD500280039C
:2025C400022A9F8E828F83A3A3A3A3A375730D75740075D000124CF375D010AE82AF83EEC2
:2025E400241AF582EF3401F583E0FFBF2A028003022A9F900119E4F090011604F0022A9F8A
:20260400740DB599028020900119E0FFBF1E005016900119EF04F0EF2429F582E43401F52B
:2026240083E599F0022A9F900119E0FF1FEF3395E0FEEF2429F582EE3401F583E4F09001EA
:2026440016E0900117F0900116E4F0D229022A9F200A030226C4E544701B740DB599028089
:2026640003022A9F30060575430205429001167405F0022A9F740AB5440B7422B599067590
:202684004400022A9F20070EE544904D7693FFB599028002D20730090F20080EE54490F012
:2026A4001293FFB599028002D2080544200703022A9F200803022A9F900116E4F0022A9F4C
:2026C400300642900118E0FF241AF582E43401F583E0FEBE302F7E00740C2FF582E43EF5FA
:2026E4008375730D8E7475D000124CF375D010AE82AF83EE241AF582EF3401F583E0FFBF32
:2027040022030227B5900118E0FF241AF582E43401F583E0FEBE340280030227BA8F167F88
:2027240000740C2EF582E43FF58375730D8F74C017C01675D000124CF375D010AC82AD83E7
:20274400D016D017EC241AF582ED3401F583E0FDBD3863740B2EF582E43FF58375730D750F
:202764007400C017C01675D000124CF375D010AC82AD83D016D017EC241AF582ED3401F566
:2027840083E0FDBD2B30740A2EF582E43FF58375730D75740075D000124CF375D010AE8206
:2027A400AF83EE241AF582EF3401F583E0FFBF2205D20A754401740DB599028003022A9F2A
:2027C400900116E4F0022A9F300B37743BB599028021740DB59902801A746025444014AFF2
:2027E400440544EF2401F582E43400F583E599F0022A9F754400C20B900116E4F0D20C0213
:202804002A9F900118E0FF241AF582E43401F583E0FEBE2C0280030229248F167F00740CDD
:202824002EF582E43FF58375730D8F74C017C01675D000124CF375D010AC82AD83D016D0B0
:2028440017EC241AF582ED3401F583E0FDBD43028003022924740B2EF582E43FF5837573CA
:202864000D757400C017C01675D000124CF375D010AC82AD83D016D017EC241AF582ED34D9
:2028840001F583E0FDBD55028003022924740A2EF582E43FF58375730D757400C017C016AF
:2028A40075D000124CF375D010AC82AD83D016D017EC241AF582ED3401F583E0FDBD446085
:2028C40074092EF582E43FF58375730D757400C017C01675D000124CF375D010AC82AD8363
:2028E400D016D017EC241AF582ED3401F583E0FDBD502D74082EF582E43FF58375730D758F
:20290400740075D000124CF375D010AE82AF83EE241AF582EF3401F583E0FFBF2A02800465
:202924007F0080027F01EF24FF920B740DB599028003022A9F900116E4F0022A9F300D3D84
:202944007420B59902801A746025444014AF440544EF2401F582E43400F583E599F0022A73
:202964009FC20DC20FE5442401F582E43400F583E4F0F544900116F0D229022A9F900118AC
:20298400E0FF241AF582E43401F583E0FEBE3D028003022A9F8F167F00740C2EF582E43F79
:2029A400F58375730D8F74C017C01675D000124CF375D010AC82AD83D016D017EC241AF5C1
:2029C40082ED3401F583E0FDBD68028003022A9F740B2EF582E43FF58375730D757400C028
:2029E40017C01675D000124CF375D010AC82AD83D016D017EC241AF582ED3401F583E0FDB8
:202A0400BD6E028003022A9F740A2EF582E43FF58375730D757400C017C01675D000124C4B
:202A2400F375D010AC82AD83D016D017EC241AF582ED3401F583E0FDBD696074092EF5825F
:202A4400E43FF58375730D757400C017C01675D000124CF375D010AC82AD83D016D017EC4A
:202A6400241AF582ED3401F583E0FDBD682D74082EF582E43FF58375730D75740075D000F5
:202A8400124CF375D010AE82AF83EE241AF582EF3401F583E0FFBF6302D20D900118E0245C
:202AA40001F0E0FF24F35005900118E4F0C298D0D0D000D001D002D003D004D005D006D0CA
:202AC40007D083D082D0F0D0E0D02732C20E900001E0FFBF3F028008900002E0FFBF3F0670
:202AE400200703021849900002E0FFBF4103023256BF4303023029BF45030232E3BF4802C0
:202B0400803EBF50030236C5BF53030230EBBF54030237F9BF6103023256BF63030230293D
:202B2400BF65030232E3BF68028015BF70030236C5BF73030230EBBF74030237F9023B4D22
:202B4400900004E0FFBF2B028003022D07900005E0FEC3742F9EE433FD7003022C92BE33AA
:202B6400004003022C92900006E0FC24D04003022C92BC3A004003022C92900007E0FB2456
:202B8400D04003022C92BB36004003022C92900008E0F56724D04003022C9274C625675089
:202BA40003022C9290000AE0F56324D04003022C9274CD25635003022C9290000BE0F564D5
:202BC40024D04003022C9274C625645003022C9290000CE0F56524D04003022C9274CA25F4
:202BE400655003022C9290000DE0F56624D04003022C9274C625665003022C928E027402AC
:202C04002AF568AA63C39A75F00AA42404F56825482CAC64C39CFAAC6574062CC39B75F0AB
:202C24000AA42566AB67C39BFC8A69756A00AA477B00743C2AF56BE43BF56C8C027B00C327
:202C4400E56B9AE56C64808BF063F08095F0E433FA7B00E569C39AF582E56A9BF583757386
:202C64000C8B74C004124CF3AA82D0048A4BAB4774782BC39CFB7C0075733C8C748B828CBF
:202C840083124CF3AB828B4F120A1C022FCCED606DBE36005068900006E0FD24D0505FBDE7
:202CA4003A00505AEE24D075F00AA42D24D0FEAD4B740C2DFDC3E54F9EE433FCEDC39CFD85
:202CC4007C0075730C8C748D828C83C006124CF3AC82D0068C4BAC4F7D00743C2CFCE43DFF
:202CE400FD7B00ECC39EF582ED9BF58375733C8B74124CF3AD828D4F120A1C022FCCD20E00
:202D0400022FCCBF2D46900005E0FE24D05038BE36005033900006E0FD24D0502ABD3A0042
:202D24005025EE24D075F00AA4AC4F2C2D24D0F54F24C4500CE54B04F54BE54FFE24C4F5D2
:202D44004F120A1C022FCCD20E022FCC900005E0FEBE4E028003BE6E21300703023B7312C1
:202D6400025E9000A37401F012029978767600787776187878763C022FCCBE46028003BEE3
:202D84006616300703023B7312025E9000A3E4F0120299C2C2022FCCBF2C028003022E641E
:202DA400BE6702800DBE47028008BE61028003BE4116C2C27876760012187792187877767B
:202DC400187878763C022FCCEE24D04003022E5FBE33004003022E5F900006E0FD24D0500A
:202DE4007ABD3A005075900007E0FC24D0506CBC36005067900008E0FB24D0505EBB3A00C3
:202E040050598E02EA24D075F00AA4FA2D24D0FDBD18005041C2C2787676008D48EC24D069
:202E240075F00AA42B24D0F547AC487D0075730C8D748C828D83124CF3AC828C4985471E5E
:202E440085461F8548821201C5C218787776187878763C022FCCD20E022FCCD20E022FCCAD
:202E6400EF24D04003022FCABF33004003022FCAEE24D04003022FCABE3A004003022FCAA7
:202E8400900006E0FD24D04003022FCABD36004003022FCA900007E0FD24D04003022FCAB2
:202EA400BD3A004003022FCA7D00EF24D0F573ED34FFF57490000AC006124C44AD82AF8325
:202EC400D0067C00EE2DFDEC3FFFED24D0F582EF34FFF58375730C8C74124CF3AE828E4B1A
:202EE400900006E024D075F00AA4FF900007E02F24D0F54F120A1C900009E0FFBF6702801C
:202F04000DBF47028008BF61028003BF412A90F003E4937003022FCC121877921890F011FB
:202F2400E4937003022FCCC2C278767600787776187878763C022FCCEF24D04003022FCC7F
:202F4400BF33004003022FCC90000AE0FE24D05077BE3A00507290000BE0FD24D05069BD6C
:202F64003600506490000CE0FC24D0505BBC3A005056EF24D075F00AA42E24D0FFBF1800C2
:202F84005040C2C2787676008F48ED24D075F00AA42C24D0F547AE487F0075730C8F748E94
:202FA400828F83124CF3AE828E4985471E85461F8548821201C5787776187878763CC2182D
:202FC4008006D20E8002D20E300E2A30080ED23190530A75F080120FBA023B73D231905331
:202FE4001D75F080120FBAC23190530A75F080120FBA023B7312090785825430080ED231DA
:2030040090534375F080120FBA023B73D23190535D75F080120FBAC23190534375F0801203
:203024000FBA023B73900005E0FFBF65028003BF452A30080ED23290538A75F0801214E026
:20304400023B73D2329053A275F0801214E0C23290538A75F0801214E0023B73BF6E02809D
:2030640003BF4E0E12025E9000A57401F0120299804BBF66028003BF460D12025E9000A547
:20308400E4F01202998036900003E06030900004E0602A30080ED23190530A75F080120FB8
:2030A400BA023B73D23190531D75F080120FBAC23190530A75F080120FBA023B7330080E49
:2030C400D2319053CD75F080120FBA023B73D2319053E175F080120FBAC2319053CD75F03A
:2030E40080120FBA023B73900005E0FFBF7902800DBF59028008BF44028003BF64413008C0
:203104000DD23190540875F080120FBA8016D23190542575F080120FBAC23190540875F049
:2031240080120FBAC2AFC2A075280090000612022BD2A3900FA01203D075C760023B73BF47
:2031440067028008BF470280030231F9900009E0FE24D05076BE3A00507112025E900009CE
:20316400E024D0FE9000A7F09000C8EEF090000BE0FE24D05028BE3300502390000CE0FD5A
:2031840024D0501ABD3A005015EE24D075F00AA42D24D0FEBE180050059000A8EEF0120208
:2031A4009930080ED23190545575F080120FBA023B73D23190547475F080120FBAC23190E2
:2031C400545575F080120FBA023B7330080ED2319054A675F080120FBA023B73D2319054A8
:2031E400C775F080120FBAC2319054A675F080120FBA023B73BF69028003BF492B30080D32
:20320400D2319054FB75F080120FBA8016D23190551D75F080120FBAC2319054FB75F080F6
:20322400120FBAC2A0023B7330080ED23190555275F080120FBA023B73D23190556B75F0F5
:2032440080120FBAC23190555275F080120FBA023B73900005E0FF24CF505ABF3A005055C6
:20326400900007E0FF24CF504CBF3A00504712025E900005E024D0C454F0FF900007E02438
:20328400D042079000AAEFF012029930080ED23190559775F080120FBA023B73D23190552E
:2032A400BD75F080120FBAC23190559775F080120FBA023B7330080ED2319055F675F080A5
:2032C400120FBA023B73D23190561375F080120FBAC2319055F675F080120FBA023B7390D5
:2032E4000005E0FFBF58028003BF783512025E9000ABE4F012029930080ED23290564375C8
:20330400F0801214E0023B73D23290565E75F0801214E0C23290564375F0801214E0023B0B
:203324007312025E1202999000ABE4F09001C27404F09001C2E0FF2401F582E43400F583CF
:20334400E0FE24D0400302364BBE3300400302364B8F057F0074012DFBE43FFCEB2401F546
:2033640082EC3400F583E0FC24D0400302364B74012DFBE43FFCEB2401F582EC3400F583BE
:20338400E0FCBC3A00400302364B74022DFBE43FFCEB2401F582EC3400F583E0FC24D040A5
:2033A4000302364B74022DFBE43FFCEB2401F582EC3400F583E0FCBC3600400302364B749F
:2033C400032DFBE43FFCEB2401F582EC3400F583E0FC24D0400302364B74032DFBE43FFC2C
:2033E400EB2401F582EC3400F583E0FCBC3A00400302364B74052DFBE43FFCEB2401F582CB
:20340400EC3400F583E0FC24D0400302364B74052DFBE43FFCEB2401F582EC3400F583E0BB
:20342400FCBC3300400302364B74062DFBE43FFCEB2401F582EC3400F583E0FC24D04003E4
:2034440002364B74062DFBE43FFCEB2401F582EC3400F583E0FCBC3A00400302364B7407F2
:203464002DFBE43FFCEB2401F582EC3400F583E0FC24D0400302364B74072DFBE43FFCEB9F
:203484002401F582EC3400F583E0FCBC3600400302364B74082DFBE43FFCEB2401F582EC2A
:2034A4003400F583E0FC24D0400302364B74082DFBE43FFCEB2401F582EC3400F583E0FC08
:2034C400BC3A00400302364B8E7375740090000AC007C006C005124C44AB82AC83D005D0B3
:2034E40006D007C00674012DFAE43FFEEA2401F582EE3400F583E07A002BFBEA3CFCC3EBF8
:203504009428EC64809482D006400302364BC00674052DFBE43FFCEB2401F582EC3400F547
:2035240083E0FC8C7375740090000AC007C006C005124C44AB82AC83D005D006D00774065A
:203544002DFAE43FFEEA2401F582EE3400F583E07A002BFBEA3CFCC3EB9428EC648094820D
:20356400D006400302364BED24FCF582EF34FFF583757305757400C007C006C005124D29DD
:20358400AB82D005D006D00774092BFC3395E0FAEC24A3F569EA3400F56AEE24D075F00A53
:2035A400A4F56B74012DFCE43FFEEC2401F582EE3400F583E0256B24D075F006A4FE74023B
:2035C4002DFAE43FFCEA2401F582EC3400F583E02E24D0856982856A83F0740A2BFB339543
:2035E400E0FEEB24A3FBEE3400FE74052DFAE43FFCEA2401F582EC3400F583E024D075F006
:203604000AA4F56B74062DFAE43FFCEA2401F582EC3400F583E0256B24D075F006A4FC74D7
:20362400072DFDE43FFFED2401F582EF3400F583E02C24D08B828E83F09000ABE0FF0F0FC9
:203644009000ABEFF080069001C2744BF09001C2E0240AF0E0FFBF4B00500302333690003C
:20366400ABE0603390000012024612029930080ED23290568C75F0801214E0023B73D23236
:203684009056AC75F0801214E0C23290568C75F0801214E0023B7330080ED2319056DF7525
:2036A400F080120FBA023B73D23190570175F080120FBAC2319056DF75F080120FBA023BAB
:2036C40073300703023B7390F011E493700ED23190573675F080120FBA023B73900006E0FD
:2036E400FFBF54028003BF7410C2C2D23190574B75F080120FBA023B73BF4E028003BF6E04
:203704002F90F011E493FEBE011812025E9000B47402F012029978767600787776187878FF
:20372400763CD23190575575F080120FBA023B73BF46028003BF662590F011E493FEBE028A
:203744000EC2C212025E9000B47401F0120299D23190575E75F080120FBA023B73900005BE
:20376400E0FE24D040030237EBBE33005079EF24D05074BF3A00506F900007E0FD24D0503B
:2037840066BD36005061900008E0FC24D05058BC3A005053209242D2C2EE24D075F00AA4F5
:2037A4002F24D0F582ED24D075F00AA42C24D0F572124B949005DC1203D030920ED2319046
:2037C400576775F080120FBA023B73D23190577C75F080120FBA023B73D23190579E75F0F4
:2037E40080120FBA023B73D2319057C475F080120FBA023B73300703023B42900004E0FF70
:20380400BF47028003BF671D12025E9000A67401F01202991218FED2319057DB75F0801238
:203824000FBA023B42BF41028003BF611B12025E9000A6E4F0120299C218D2319057E47536
:20384400F080120FBA023B42BF2B028003023988900005E0FEBE3802800302398890000621
:20386400E0FEBE34028003023988900007E0FEBE3000500302397AEE24C6500302397A9051
:203884000008E0FEBE3000500302397AEE24C6500302397A900009E0FEBE30005003023975
:2038A4007AEE24C6500302397A90000AE0FEBE3000500302397AEE24C6500302397A9000CC
:2038C4000BE0FEBE3000500302397AEE24C6500302397A90000CE0FEBE3000500302397AB5
:2038E400EE24C6500302397A90000DE0FEBE3000500302397AEE24C6500302397A90000EF5
:20390400E0FEBE3000406FEE24C6406A90000FE0FEBE30004060EE24C6405B12025E900026
:20392400B5E4F07E018E0574122DFD3395E0FCED24A3FDEC3400FC8E027B0074062AFAE43A
:203944003BFBEA2401F582EB3400F583E08D828C83F00EBE0A0040CD9000C0E0FEBE02054C
:203964009000C0E4F0120299D2319057ED75F080120FBA023B42D23190580B75F080120F60
:20398400BA023B42BF30028003023AA2900005E0FEBE30005003023A94EE24C65003023AAD
:2039A40094900006E0FEBE30005003023A94EE24C65003023A94900007E0FEBE3000500339
:2039C400023A94EE24C65003023A94900008E0FEBE30005003023A94EE24C65003023A9496
:2039E400900009E0FEBE30005003023A94EE24C65003023A9490000AE0FEBE300050030285
:203A04003A94EE24C65003023A9490000BE0FEBE30005003023A94EE24C6407490000CE047
:203A2400FEBE3000406AEE24C6406590000DE0FEBE3000405BEE24C6405612025E7E008E7F
:203A44000574122DFD3395E0FCED24A3FDEC3400FC8E027B0074032AFAE43BFBEA2401F578
:203A640082EB3400F583E08D828C83F00EBE0A0040CD9000C0E0FEBE02059000C0E4F0122F
:203A84000299D2319057ED75F080120FBA023B42D23190580B75F080120FBA023B42BF7805
:203AA400028003BF581A12025E9000C07402F0120299D23190583075F080120FBA023B421D
:203AC40090F01DE493FFBF0224900005E0FFBF6E02800DBF4E028008BF66028003BF465E16
:203AE400D23190583F75F080120FBA8051900005E0FFBF4E028003BF6E1912025E9000C0F9
:203B04007401F0120299D23190587175F080120FBA802BBF46028003BF661812025E9000FF
:203B2400C0E4F0120299D23190588075F080120FBA800BD23190588F75F080120FBA90F0D0
:203B44001DE493FF139209802630080DD2319058AC75F080120FBA8016D2319058BF75F039
:203B640080120FBAC2319058AC75F080120FBA43C1107F00EF2401FDE43400FE8D828E83C5
:203B8400E0600FEF2401F582E43400F5830FE4F080E222756D00756E007593007594FF7506
:203BA40092007591007595007596FF75B20075B10075B30275B41C75CA0075C90075C000E7
:203BC40075B0FF75A00075B881759D0875970075BD0075BC83D2ADD2AF9000C974FAF075C2
:203BE40042009000CA741EF09000CBF09000A2740AF090010F7402F090010EF090010DF095
:203C04009001107405F09001117401F0120A5C12025E9000A3E024FE50069000A37401F082
:203C24009000A5E024FE50059000A5E4F09000A6E024FE50069000A67401F09000A7E02487
:203C4400F650069000A77401F09000A8E024E850059000A8E4F09000AAE0FDC4540FFC7B3E
:203C6400001CBCFF011BC374089C74808BF063F08095F0500A740F5D4450FD9000AAF09026
:203C840000AAE0FD53050F7C001DBDFF011CC374089D74808CF063F08095F0500F9000AA83
:203CA400E0FD74F05D4401FD9000AAF09001C37401F09000ABE0FDBD0900502EED20E02ACA
:203CC4007C01C3ED9C401E8C0374082BFB3395E0FAEB24A3F582EA3400F583E0FBBB900001
:203CE40050030C80DD9001C3ECF09001C3E0FCC3ED9C40129000AB7402F09000AC7424F0A1
:203D04009000AD746CF09001C3E4F09000C0E0FDBD020050479000BFE07041FDBD0A0050F3
:203D2400368D0474122CFB3395E0FAEB24A3F582EA3400F583E0FBBB3000401B74122CFCDB
:203D44003395E0FBEC24A3F582EB3400F583E0FC24C640030D80C59001C3EDF09001C3E03B
:203D6400FDBD0A00500B9000BFE4F09000C07402F09000C1E0FD24E750059000C1E4F03064
:203D840092079000B4E4F080129000B4E0FD6005ED24FD50069000B47402F09000C2E0FD19
:203DA4007C001DBDFF011CC374039D74808CF063F08095F050069000C27401F012029990A4
:203DC400F3FEE493FD24C4401E90F3FFE493FD24F4401490F3FCE493FD24C4400A90F3FD2D
:203DE400E493FD24F45005120A1C801C90F3FEE493F54F90F3FFE493F54B90F3FCE493F5AA
:203E04005090F3FDE493F54CD2A21202CA90F011E493600F124B7E78767600787776187819
:203E240078763CD20390F004E4939000C8F0120A4612056A751847751900751A40751B4652
:203E4400751C00751D4090004875F040120135E54824E8400CE54724C44006E54624C450F4
:203E64000C751E00751F007582001201C51200EED2A8D288751847751900751A40751B4661
:203E8400751C00751D4090004875F040120135201D03023F1730217B1025028076C221C2C0
:203EA4001D9058E575F0801205009058F675F0801205007529007582C01203FD900111E451
:203EC400F0102502802A900111E0FDBD030050090DEDFC3395E0FD80047C007D00900111BB
:203EE400ECF074312CF5821204287582C0120483101D0280CC900000120246900200120201
:203F040046900111E004F52890001F12022B75C76080AE1218FEE54824F45007E54824F4F3
:203F2400FD8002AD488D4990F01DE49313920975BC8B121B485019D2319058FD75F08012F8
:203F44000FBA30090BC2319058FD75F080120FBA90F006E49370149001127405F012025EB9
:203F64009000A974FFF01202998006900112743CF075C16590F3FEE493FDB54F1D90F3FFF8
:203F8400E493FDB54B1490F3FCE493FDB5500B90F3FDE493FDB54C028003120A1C9001123D
:203FA400E06006900110E0700F900110E4F0E554700612090785825420190302406B20A06D
:203FC400169000A2E014F0E0700D75BC83D2A09000A2741EF0D2059000C5E0FDE0601F9082
:203FE40000C3E07019ED149000C5F0E070109000C37405F09000C5F0120907858254E55434
:20400400603CE554FD14FC3395E0FBEC24CAFCEB3400FB8C828B83E060241DED3395E0FCF9
:20402400ED24CAFDEC3400FC8D828C83E0FB1B8D828C83EBF0EB7006F554C214C212900196
:2040440012E0601090F011E4936003209206900112E014F090010DE0FDE06009301F06ED4A
:204064001490010DF0C219120764900110E0701390F000E493600C90F011E493FDBD020314
:204084001208AB90F004E49360159000C8E0700F90F005E493FDB54806E54724FA4006E5BF
:2040A4004224FD5026E554702290F011E4936003209218C2AFC2A075280090000612022BDE
:2040C400D2A3900FA01203D075C7609000C9E0701E202C1BD22CD23190591F75F080120F6A
:2040E400BA30090BC23190591F75F080120FBA9000CAE0701E202D1BD22DD23190593C7537
:20410400F080120FBA30090BC23190593C75F080120FBA9000CBE0701E202E1BD22ED231FF
:2041240090595575F080120FBA30090BC23190595575F080120FBA20034674FB2547404084
:2041440020180A90F003E49360031218FEE54824F45007E54824F4FD8002AD488D4990F0E9
:2041640002E4936019D23190596E75F080120FBA30090BC23190596E75F080120FBAD2030C
:20418400900110E0FD24FA5003024AC5ED2D2D904197730241A90244E3024721024A7E02AE
:2041A40048F802430C30053F75BC8BC205900116E4F01218FEAB487C0075730C8C748B8260
:2041C4008C83124CF3AB828B49121B485019D23190597F75F080120FBA30090BC231905951
:2041E4007F75F080120FBA300C10122AD09052D075F0801202E2C20C8041752D9C752E59CE
:20420400752F80854B30854F317532FDA21B92017582801205EB752D9C752E59752F808521
:204224004C308550317532FDA21B92017582851205EB90599E75F08012050030181E752DFB
:204244000B752E51752F80854830854731854632A21B92017582C01205EB804190F003E40F
:2042640093601E752D1B752E51752F80854830854731854632A21B92017582C01205EB80D4
:204284001C752D13752E51752F80854830854731854632A21B92017582C01205EB90010D93
:2042A400E06003024ACE301203024ACEC21D900112743CF09000C4E4F09000C3F09000C55C
:2042C400F09001107405F09001117401F0755400C2C2787676001021028003024ACE30091F
:2042E40019D2319059A575F080120FBAC2319059B975F080120FBA024ACED2319059B975C7
:20430400F080120FBA024ACE101D02802F900112743CF0900111E02401F0E0FCBC040D9043
:20432400F011E4937006900111EC04F0900111E0FC24FB5005900111E4F0C2281025028000
:204344000D900112743CF0900111E4F0C228102103024484900112743CF0900111E0900155
:2043640010F0900111E4F0120907858254900110E07003024ACE758280120483900110E0A7
:2043840075F011A42489FB744D35F0FC7A808B828C838AF0120500900110E0FCBC01028012
:2043A40014BC02028053BC0303024448BC040302445D024ACE752D9C752E59752F80854B54
:2043C40030854F317532FDA21B92017582C01205EB752D9C752E59752F80854C3085503192
:2043E4007532FDA21B92017582C51205EB90599E75F080120500024ACE3018067B0B7C51C9
:20440400801F90F003E493600B756F1B7570517571808009756F13757051757180AB6FAC17
:20442400708B2D8C2E752F80854830854731854632A21B92017582C01205EB85486D85476C
:204444006E024ACE9059CF75F0801205007529047582C01203FD024ACE752DE0752E5975A4
:204464002F80753000753100753200A21B92017582C01205EBD2C2756E00756D00024ACE1B
:204484003018067B0B7C51801990F003E49360087A1B7E517F8080067A137E517F808A03AB
:2044A4008E048B2D8C2E752F80900112E0F532854830854731A21B92017582C01205EB9093
:2044C4000111E075F011A42489FE744D35F0FF8E2A8F2B752C8075828012040D024ACE9065
:2044E4000111E0FFFE0E7C007573048C748F828C83C006124D29AC82D006EC2EF5297582B2
:20450400C01203FD1025030246C1900112743CF0900111E0FF24F85003024680EF240A83E9
:20452400F582EF240C83F583E4733E66A3BCE60C455C4545454545464646E54BFF24F25039
:20454400198F047E0075730A8E748C828E83124CF3AC82AE838C4B024680740A2FF54B02DC
:204564004680E54B24E95006754B14024680AF4B8F047E0075730A8E748C828E83C007124B
:204584004CF3AC82AE83D007BC090DBE000A8F06EE24F7F54B024680EF04F54B024680E582
:2045A4004FFF24CE500A8F06EE24CEF54F024680740A2FF54F024680E54F04FF8F4F7E0090
:2045C40075730A8E748F828E83124CF3E5828583F045F06003024680E54FFF24F6F54F021E
:2045E4004680E54CFF24F250188F047E0075730A8E748C828E83124CF3AC82AE838C4C8017
:204604007B740A2FF54C8074E54CFF24E95005754C1480688F047E0075730A8E748C828E49
:2046240083C007124CF3AC82AE83D007BC090CBE00098F06EE24F7F54C8041EF04F54C80B9
:204644003BE550FF24CE50098F06EE24CEF550802B740A2FF5508024E55004FF8F507E000C
:2046640075730A8E748F828E83124CF3E5828583F045F07007E550FF24F6F550752D9C757E
:204684002E59752F80854B30854F317532FDA21B92017582C01205EB752D9C752E59752FDB
:2046A40080854C308550317532FDA21B92017582C51205EB90599E75F08012050010210207
:2046C4008014900112743CF0900111E0FFE06006EF14900111F0101D03024ACE9001127442
:2046E4003CF0900111E02401F0E0FF24F84003024ACE1204DB900110E0900111F0900110F6
:204704007405F0AE4B7F0075730C8F748E828F83124CF3AE828E4B120A1C024ACE9001114D
:20472400E0FF2407FE7C007573028C748F828C83C006124D29AC82D006EC2EF5297582C0A6
:204744001203FD90F003E493603790010DE07031900110E0900111F09001107405F0787787
:2047640076187878763C90F003E49360031218FEE54824F45007E54824F4FF8002AF488F98
:204784004910250302487D900112743CF0900111E0FF24FC500302483EEF2F9047A3738083
:2047A40006802B805B8071E56D24F25018AE6D7F0075730A8F748E828F83124CF3AE82AFC7
:2047C400838E6D8075AF6D740A2FF56D806CE56D24E95005756D148061AE6D7F0075730A34
:2047E4008F748E828F83124CF3AE82AF83BE090CBF0009E56DFF24F7F56D803E056D803A8A
:20480400E56E24CE5009E56EFE24CEF56E802BAE6E740A2EF56E8022056EAE6E7F007573E2
:204824000A8F748E828F83124CF3E5828583F045F07007E56EFE24F6F56E3018067E0B7FC5
:2048440051801990F003E49360087A1B7B517C8080067A137B517C808A068B078E2D8F2E36
:20486400752F80900112E0F532856D30856E31A21B92017582C01205EB10210280149001BF
:2048840012743CF0900111E0FFE06006EF14900111F0101D03024ACE900112743CF09001E8
:2048A40011E02401F0E0FF24FC4003024ACE1204DB900110E0900111F09001107405F085FF
:2048C4006D48856E4785471E85461F8548821201C5AE487F0075730C8F748E828F83124CFE
:2048E400F3AE82AF838E49C218787776187878763C024ACE900111E0FF2407FE7C00757367
:20490400028C748F828C83C006124D29AC82D006EC2EF5297582C01203FD90010DE0701020
:20492400900110E0900111F09001107405F0C2C2102503024A09900112743CF0900111E080
:20494400FF24FC50030249EDEF2F904952738006802B805B8071E56D24F25018AE6D7F0086
:2049640075730A8F748E828F83124CF3AE82AF838E6D8075AF6D740A2FF56D806CE56D24EC
:20498400E95005756D148061AE6D7F0075730A8F748E828F83124CF3AE82AF83BE090CBF08
:2049A4000009E56DFF24F7F56D803E056D803AE56E24CE5009E56EFE24CEF56E802BAE6E27
:2049C400740A2EF56E8022056EAE6E7F0075730A8F748E828F83124CF3E5828583F045F018
:2049E4007007E56EFE24F6F56E752DE0752E59752F80856D30856E31753200A21B9201751A
:204A040082C01205EB1021028014900112743CF0900111E0FFE06006EF14900111F0101DBB
:204A240003024ACE900112743CF0900111E02401F0E0FF24FC4003024ACE900111E4F08524
:204A44006E72856D82124B949000641203D03092067EE87F5980047EF07F598E2D8F2E7577
:204A64002F80856D30856E31753200A21B92017582C01205EB1204DB8050101D028023906A
:204A840000C37405F0900111E09000C404F09000C57405F0900111EDF09001107405F012C3
:204AA40004DB1025028023900111E0FF7401C39FF0E02431F5821204287582C41204838033
:204AC40009900111E4F0900110F043C110023F78C0E043C110E59A30E003539AFED0E032E2
:204AE400C027C0E0C0F0C082C083C007C006C005C004C003C002C001C000C0D075D0007590
:204B0400BC83AFBD7875A607E554704E30021DBF52005004C2A28042EF2491503DC202D2B4
:204B2400319059F875F080120FBA802EBF5C005029D20275540053A00F90F3FEE493B54FC2
:204B44000B90F3FFE493FFB54B028003120A1CD231905A0D75F080120FBA75BC8BD0D0D0AB
:1A4B640000D001D002D003D004D005D006D007D083D082D0F0D0E0D027322D
:204D7600303938383838383930310080901030206040C020202020202045584954202020D8
:204D96002020200020204348494E482047494F204B494D2000204348494E482047494F202A
:204DB6005448554320002020202043414E48204B494D20202020002020202054455354208E
:204DD6004D5033202020200020535445502047505320312E312E35200044482C4F4E2064FB
:204DF6006F6E6720686F2063686179202D2044482C4F464620646F6E6720686F2064756E77
:204E1600670A44482C2B6D6D206B696D2070687574206C6563682064756F6E67206D6D20F9
:204E360070687574202D2044482C2D6D6D206C65636820616D206D6D20706875740A444854
:204E56002C6B6B6B6B2C74747474206368696E682067696F206B696D2067696F20746875AE
:204E7600632067696F20747520646F6E67207468617920747474742062616E6720617574A1
:204E96006F0A42432C4F4E2062616F2063616F206461752067696F202D2042432C4F4646DE
:204EB600207461742062616F2063616F206461752067696F0A4243206775692062616F20AF
:204ED60063616F202D2042432C44454E2042432C4D50332062616F2063616F2064656E20D7
:204EF60062616F2063616F206D70330A52532072657365743A52532C7379732072657365BC
:204F1600742068652074686F6E67202D2052532C73696D20726573657420677073206D6FAA
:204F360064756C650A52532C472C6E6E2C6767206D6F69206E6E206E6761792076616F20D7
:204F560067696F2067673A303620626F2064696575206B6869656E2072657365740A4445B1
:204F76004E2C584F4120786F6120746F616E20626F2074686F6E6720736F2064656E207461
:204F960061742064656E0A44454E2C747474742C6D6D6D6D20783A20736F20636170206763
:204FB600696F207461742F6D6F20747474742C6D6D6D6D2067696F207461742F6D6F206468
:204FD600656E0A4D50332C582C616C6C20786F6120746174206361202D204D70332C582C63
:204FF60061612C62622C63632C2E2E2E20786F61206361632067696F2061612C62622C63D2
:20501600630A4D50332C542C676770702C32322C31312C2E2E2E206C6170206C61692074C8
:205036006F69206461203132206C616E20676770703A67696F2070687574207068617420AA
:205056006E6861630A32322C3131207468752074752062616920686174206C616E206C7525
:205076006F742074726F6E6720746875206D7563203220766120310A44542C30787878789F
:2050960078787878782044542C2B3834787878787878787878207468617920646F6920732A
:2050B6006F206469656E2074686F6169207068750A44542C584F4120786F6120736F206465
:2050D60069656E2074686F6169207068750A44542C4F4E2044542C4F4646202D206261740E
:2050F60020746174206469656E2074686F6169207068750A002020475053202000204153A7
:20511600494120200020202044532020001A00544B3C31303030204B2042414F43414F0092
:2051360041542B434D47533D2200220D0041542B435553443D312C222A31303123222C0DFC
:205156000020204B49454D2054524120544B202020002C000D544B204368696E683D000D81
:20517600546169206B686F616E20636F6E2064756F692031303030300044414E47204755B2
:20519600492042414F2043414F000D47696F204D6F2044656E3A000D4B686F6E6720636F5C
:2051B6002067696F206D6F2064656E004755492042414F2043414F2044454E20002047558A
:2051D600492048554F4E472044414E20200041542B43434C4B3F0D00202053454E44494E72
:2051F600472043434C4B20200041540D0041542B4950523D300D00202053454E44494E47C6
:20521600204950522020200041542B434C49503D310D00202053454E44494E4720434C496A
:205236005020200041542B434C54533D310D00202053454E44494E4720434C545320200079
:2052560041542B4346554E3D300D00202053454E44494E47204346554E3020200041542B0E
:205276004346554E3D310D00202053454E44494E47204346554E3120200041542B434D47D5
:20529600463D310D00202053454E44494E4720434D474620200041542B434E4D493D312CF1
:2052B600312C302C302C310D00202053454E44494E4720434E4D4920200041542B434D471F
:2052D60044413D2244454C20414C4C220D00202053454E44494E4720434D474441202000D3
:2052F6004154480D0041542B434D474C3D22414C4C220D000D6C656E68206B686F6E672059
:20531600686F70206C65000D6C656E68206B686F6E6720686F70206C650D50686F6E6520D5
:2053360070687520677569206C656E68000D6368696E6820646F6E6720686F207468616E3D
:205356006820636F6E67000D6368696E6820646F6E6720686F207468616E6820636F6E6738
:205376000D50686F6E652070687520677569206C656E68000D62616F2063616F2064656E8E
:20539600207468616E6820636F6E67000D62616F2063616F2064656E207468616E6820635E
:2053B6006F6E670D50686F6E652070687520677569206C656E68000D62616F2063616F2041
:2053D6007468616E6820636F6E67000D62616F2063616F207468616E6820636F6E670D50F4
:2053F600686F6E652070687520677569206C656E68000D6B686F6920646F6E67206C61697E
:2054160020626F2064696575206B6869656E000D6B686F6920646F6E67206C616920626FC8
:205436002064696575206B6869656E0D50686F6E652070687520677569206C656E68000DB3
:20545600646174206E6761792067696F207265736574207468616E6820636F6E67000D6421
:205476006174206E6761792067696F207265736574207468616E6820636F6E670D50686FA2
:205496006E652070687520677569206C656E68000D646174206E6761792067696F2072651F
:2054B600736574206B686F6E6720686F70206C65000D646174206E6761792067696F2072F5
:2054D60065736574206B686F6E6720686F70206C650D50686F6E652070687520677569207D
:2054F6006C656E68000D67736D206D6F64756C65206B686F6920646F6E67206C6169207379
:20551600617520313073000D67736D206D6F64756C65206B686F6920646F6E67206C6169C8
:2055360020736175203130730D50686F6E652070687520677569206C656E68000D6C656E0C
:2055560068207265736574206B686F6E6720686F70206C65000D6C656E6820726573657404
:20557600206B686F6E6720686F70206C650D50686F6E652070687520677569206C656E68E6
:20559600000D7468617920646F692067696F20736163207861206163717569207468616E29
:2055B6006820636F6E67000D7468617920646F692067696F2073616320786120616371750E
:2055D60069207468616E6820636F6E670D50686F6E652070687520677569206C656E6800B2
:2055F6000D4C656E6820736163206163717569206B686F6E6720686F70206C65000D4C652A
:205616006E6820736163206163717569206B686F6E6720686F70206C650D50686F6E65205E
:2056360070687520677569206C656E68000D786F6120746174206D6F2064656E207468616D
:205656006E6820636F6E67000D786F6120746174206D6F2064656E207468616E6820636F61
:205676006E670D50686F6E652070687520677569206C656E68000D677569206C656E682066
:20569600746174206D6F2064656E207468616E6820636F6E67000D677569206C656E682025
:2056B600746174206D6F2064656E207468616E6820636F6E670D50686F6E652070687520AA
:2056D600677569206C656E68000D74686F6E6720736F20746174206D6F2064656E206B68CA
:2056F6006F6E6720686F70206C65000D74686F6E6720736F20746174206D6F2064656E20ED
:205716006B686F6E6720686F70206C650D50686F6E652070687520677569206C656E680064
:205736000D4B686F6E6720436F204D6F64756C65204D7033000D44756E67204D7033000D2F
:20575600426174206D7033000D546174206D7033000D54657374206D7033207468616E6876
:2057760020636F6E67000D6B686F6E672064756E672067696F207068617420686F61632053
:205796006D7033206C6F69000D4D70332064616E672063686F69206E686163206E656E20CA
:2057B60063687561207468652074657374000D4C656E68204D5033206B686F6E6720686F3F
:2057D60070206C65000D42617420475053000D54617420475053000D6768692070686F6ECA
:2057F6006520706875206D6F69207468616E6820636F6E67000D7468617920646F692070B3
:20581600686F6E6520706875206B686F6E67207468616E6820636F6E67000D586F61207065
:20583600686F6E6520706875000D6C656E68206B686F6E67207468616E6820636F6E672036
:20585600646F2063687561206B686F692074616F2070686F6E6520706875000D4261742084
:2058760070686F6E6520706875000D5461742070686F6E6520706875000D4C656E6820708A
:20589600686F6E6520706875206B686F6E6720686F70206C65000D4C656E68206B686F6EE8
:2058B6006720686F70206C65000D4C656E68206B686F6E6720686F70206C650D50686F6E4E
:2058D600652070687520677569206C656E680080204E4841205048415420545249454E004E
:2058F600C031204D4159000D626F2064696575206B6869656E206B686F6920646F6E672013
:2059160073616E2073616E67000D70686174206869656E206C6F69206D61742078756E6740
:205936002067696179000D70686174206869656E206C6F6920646F632063616D2031000DA0
:2059560070686174206869656E206C6F6920646F632063616D2032000D62616F2063616FD1
:20597600206461752067696F000D67736D206D6F64756C65207265736574207468616E68E8
:2059960020636F6E67002000202020202020000D6368696E682067696F2062616E67207488
:2059B6006179000D2A6368696E682067696F2062616E67207461792A00C04D4159203120EF
:2059D6002020202020202020200020204D503320200020204F4B2020200020204E4F2020EA
:2059F60020000D2A6469656E206170206B686F6920706875632A000D2A6469656E2061701C
:0F5A160020616371756920746861702A0014281B
:204B7E0075BA01759A50438E0475D7C875D6FE438E1075AF0122AF828F737574009000641E
:204B9E00124C44AE82AF83AC727D00EC2EFEED3FFF8E058D037C0074E9C39BFB74FE9CFCB6
:204BBE008F017A00EBC399FBEC9AFC9001C4747EF09001C574FFF09001C67406F09001C700
:204BDE007412F09001C8E4F08F069001C9EEF09001CAEDF08C079001CBEFF09001CCEBF009
:204BFE009001CD74EFF07F00EF24C4F582E43401F583E0F59BE59A035401700543C1108038
:0B4C1E00F4539AFD0FBF0A0040DE2295
:06007800E478FFF6D8FD5C
:200056007902E94400601B7A01905A2378CE75A001E493F2A308B8000205A0D9F4DAF27502
:02007600A0FFE9
:1B4C290020F71130F6138883A88220F509F6A8837583002280FEF280F5F0228A
:1D4C4400E5828573F0A4C582C0F08574F0A4D0F025F0C5838573F0A42583F58322F1
:204C6100E573457460467A01E57325E0F573E574334012F574E5829573E583957440030AC8
:204C810080E6C3E57413F574E57313F573C3E5829573F5F0E58395744005F58385F082C343
:0D4CA100E57413F574E57313F573DAE12281
:20007E007800E84400600A790175A000E4F309D8FC78CDE84401600C7902900001E4F0A3B0
:04009E00D8FCD9FAB7
:204CAE007A10E4FBFCE58225E0F582E58333F583EB33FBEC33FCEB9573F5F0EC9574400644
:094CCE00FCABF0438201DADD22A7
:0D004900758178124D61E58260030200466A
:1C4CD70020F71430F6148883A88220F507E6A88375830022E280F7E49322E022EC
:204CF300C2D5E58330E70DD2D5E4C39582F582E49583F583E57430E70BE4C39573F573E4B8
:164D13009574F574124C6130D50BE4C39582F582E49583F583227E
:204D2900C2D5E58330E70DD2D5E4C39582F582E49583F583E57430E70DB2D5E4C39573F54F
:184D490073E49574F574124CAE30D50BE4C39582F582E49583F58322A2
:044D61007582002235
:00000001FF
