:2000A500AF827E0075730A8E748F828E83C007C006124708AC82D006D007ECC454F0FC7548
:2000C500730A7574008F828E83C0041246D2AE82D004EE4CF58222E582FFC4540F75F00AD2
:2000E500A4FE740F5F2EF582221203167582D0120355758207120355758210120355020376
:20010500311203167582D01203557582041203551203311203167582D1120355C20012036E
:200125007A1200DCAF82C007120331D0078F8222AD82AE83AFF0C007C006C0051203167519
:2001450082D01203557582001203551203311203167582D1120355AA1BAB1CAC1DD200C0F3
:2001650004C003C00212037A1200DCA982D002D003D0048A828B838CF0E9124608AA18AB84
:2001850019AC1AD200C004C003C00212037A1200DCA982D002D003D0048A828B838CF0E9C0
:2001A500124608C20012037A1200DCAC82D005D006D0078D828E838FF0EC124608020331CA
:2001C500AF82C0071203167582D0120355758200120355851F821200A5120355851E8212E7
:1201E50000A5120355D0078F821200A5120355020331BA
:2001F70075C70075C50075C60075C38075C40043C11022AE82AF8375C78375C5018EC48FD3
:20021700C375C65A75C6A500AFC2C0071201F7D0078F8222AE82AF8375C78375C5028EC494
:200237008FC38528C275C65A75C6A5000201F7AE82AF8375C78375C5038EC48FC375C65AE0
:2002570075C6A5000201F743C1107F1EEF60101FEF24A3F582E43400F58374FFF080EDBF32
:200277001E005018EF24A3FDE43400FE8F827583F00FE493FC8D828E83F080E39000000298
:2002970002467F00BFCD00502975C78375C5028FC475C300EF24A3F582E43400F5830FE049
:1302B700F5C275C65A75C6A500C0071201F7D00780D222EC
:2002CA00759850438E40538EFE758BCC758DFFC2ABD28ED2ACD2A022AD82AE83AFF08D820D
:2002EA008E838FF01246B6FC60218C9920990543C11080F8C2998D828E838FF01246B6FC66
:0C030A00BC1A01220DBD00D60E80D322CB
:20031600D2C043C11043C110D2CD43C11043C110C2C043C11043C110C2CD22C2C043C11055
:2003360043C110D2CD43C11043C110D2C02243C11043C110D2CD43C11043C110C2CD22AFC9
:20035600827E00EF23540124FF92C08F05ED2DFFC007C006120344D006D0070EBE08004057
:20037600E20203447F00D2C07E0043C11043C110D2CD43C11043C1108F05ED2DFDA2C0E4CD
:1E039600334DFFC2CD0EBE080040DFA200B392C0C007120344D007A2C092CD8F8222B6
:2003B400AE82AF837C007D00C3EC9EED9F500A43C1100CBC00F20D80EF22AE82AF837C0051
:2003D4007D00C3EC9EED9F501D9003E8C007C006C005C0041203B4D004D005D006D0070C8A
:2003F400BC00DF0D80DC22AF82E5294FF58212048175820D020481AF823029118F821204DA
:2004140081852A82852B83852CF00204FE8F820204DFE582FFC4540124FF9283EFA2E5E437
:200434003324FF9282EF2323540124FF9281EF23540124FF9280D284D285C284EF54012487
:20045400FF9283EF03540124FF9282EF03035401FE24FF9281EFA2E3E433FF24FF9280D2E7
:200474008400C2849000321203B4C28522E582FFC4540124FF9283EFA2E5E43324FF92822F
:20049400EF2323540124FF9281EF23540124FF9280D284C285C284EF540124FF9283EF039B
:2004B400540124FF9282EF03035401FE24FF9281EFA2E3E433FF24FF9280D28400C2849033
:2004D40000320203B475820C020481E582FF600E8F8212048190474475F0800204FE75821C
:2004F400011204819006400203B4AD82AE83AFF07C008D828E838FF01246B6FB6055BC101D
:20051400005050BB80005025EB24E050200CEC601C8B820DBD00010EC007C006C005C004A8
:20053400120426D004D005D006D00780C58D828E838FF01246B6FBA3AD82AE838B82C00751
:20055400C006C005C004120481D004D005D006D007809F22C286903A981203B475801C0086
:20057400C284900FA01203B4D28400C2849000A01203B4D28400C2849000A01203B47580FA
:200594001400C2849003E81203B4D28400C2840075801100C2849000281203B4758010003B
:2005B400C2840075801300C2849000281203B475801000C2840075801600C28490002812AC
:2005D40003B475801000C2840075801800C2849003E80203B4AF82AD307E0075730A8E74FE
:2005F4008D828E83C007C006C005124708AB82D005D00674302BF53375730A7574008D825B
:200614008E831246D2AD82D00774302DF5343001067D3A7E0080047D207E008D35AD317E62
:200634000075730A8E748D828E83C007C006C005124708AB82D005D00674302BF536757325
:200654000A7574008D828E831246D2AD82D00774302DF5373001067D3A7E0080047D207E3B
:20067400008D38AD327E0075730A8E748D828E83C007C006C005124708AB82D005D0067431
:20069400302BF53975730A7574008D828E831246D2AD82D00774302DF53A753B008F8212BF
:1E06B4000481852D82852E83852FF01204FE74E82530400990003375F0400204FE22F9
:11474400202020202020202020202020202020200064
:06000000020049020A3F64
:03000B00020CFDE7
:0100130032BA
:01001B0032B2
:03002300021A3688
:03002B000244B1DB
:01003300329A
:03003B00020A8C2A
:030043000244A1D3
:0300A20002004613
:030046000236E09F
:2006D200E54275F006A4FFAD417E0075730A8E748D828E83C007124708AD82D007ED2FF514
:2006F2005B7E017D0190F007E493FCC3ED9C400302079CED90F00793FC8D030BEB3395E031
:20071200FAEB2407F582EA34F0F583E493F9C3EC99E433F97C0009B900010CED90F00793A0
:20073200F8C3E55B98E4337F0029F9EF3CFCEB2407F582EA34F0F583E493FFC3E55B9FE426
:20075200337B0029F582EB3CF5837573028B74C006C0051246D2E5828583F0D005D00645AD
:20077200F060218E047F008C828F83A37573028F74C0061246D2AC82AF83D006EC4F24FFB1
:2007920092A180060D8D060206F790F007E493FFEEB50702800122EE90F00793FF90F00814
:2007B200E493FDC3EF9DE433FF7D000FBF00010DEE90F00793FCC3E55B9CE4337B002FFF92
:2007D200EB3DFD90F008E493FCC3E55B9CE4337B002FF582EB3DF5837573028B74C00612AF
:2007F20046D2E5828583F0D00645F060197F008E828F83A37573028F741246D2AE82AF832F
:20081200EE4F24FF92A1227876B60002800E7876B6010280447876B6024880287877E6B552
:2008320042077878E6B5410122AF427877A607AE417878A6068E728F82124573753C5A78F8
:200852007676022230920BD2C27876A2C2E433F68007AF3C153CEF7009209206787676006F
:20087200C2C2229000C5E0603220022F90F000E493602890F01DE493FF24E8401EE5527005
:200892001A9000C1E0FFE07014E541B54607E543B5450280069000C3E06002C322EF706D80
:2008B200854573F57490003C124623E5828583F024D0FE740235F0FFAC467D00EC2EFEEDDA
:2008D2003FFF8543738D7490003CC007C006124623AC82AD83D006D007EEC39CFEEF9DFFD7
:2008F200AC417D00EEC39CF582EF9DF5837573D07574021246D2AE82AF83C3742D9E74808F
:200912008FF063F08095F040047F0080027F01EF24FF229000C6E0603220022F90F000E478
:2009320093602890F01DE493FF24E8401EE552701A9000C1E0FFE07017E541B54607E54365
:20095200B5450280069000C3E0600553A00FC322EF706D854573F57490003C124623E58264
:200972008583F024D0FE740235F0FFAC467D00EC2EFEED3FFF8543738D7490003CC007C0A0
:2009920006124623AC82AD83D006D007EEC39CFEEF9DFFAC417D00EEC39CF582EF9DF583B1
:2009B2007573D07574021246D2AE82AF83C374689E74818FF063F08095F040047F008002A8
:2009D2007F018F4ED322538E7F758900758A24758CFAC28DD28CD2A92243C110B218A21855
:2009F2009287D216E555600215557402B55201220540E54024C45034754000D2170541E59F
:200A12004124C45027C2037541000542E54224E8500F78777618754200E54960021549C2EC
:200A3200040543E54324F4500375430022C027C0E0C0F0C082C083C007C006C005C004C059
:200A520003C002C001C000C0D075D0089000C474FAF0C22D75D0001209EB75D008D0D0D0B8
:200A720000D001D002D003D004D005D006D007D083D082D0F0D0E0D02732C027C0E0C0F023
:200A9200C082C083C007C006C005C004C003C002C001C000C0D075D00843C11010D80302C5
:200AB2000CE08547EA8548FA74A02547F547748C3548F548201903020B4230B76C301265C0
:200AD2009000C6740AF09000C5E4F0C2C49000C1E0FFE06008EF149000C1F08036E54E608C
:200AF200180546E54624C450107546000545E54524F4501F754500801AE54E70161546E50B
:200B12004624C3500E75463B1545E54524F3500375450B75D00012092553D0E743D00840A5
:200B320002C219C212C2108007301002D212D21020C403020BD830B60D300F05D211020B9E
:200B5200D8D20F020BD8201303020BCC9000C5741EF09000C1E0FFE06008EF149000C1F043
:200B720080160546E54624C4500E7546000545E54524F45003754500C211C20FC21375D0FF
:200B92000012087553D0E743D0084002C2C490020075D00012024675D0088546289003FEC5
:200BB20075D00012022B75D0088545289003FF75D00012022B75D008800C301104D21380C7
:200BD20005100F028000301A0630B503754F02301A0330B5047F0080027F01EF24FF921EE6
:200BF200201D0330B5047F0080027F01EF24FF921A201B0A201E03201A047F0080027F0136
:200C1200EF24FF921BA2B5921D301F0630B303755002301F0330B3047F0080027F01EF242E
:200C3200FF922320220330B3047F0080027F01EF24FF921F20200A202303201F047F0080AC
:200C5200027F01EF24FF9220A2B3922230240630B40375510230240330B4047F0080027F6B
:200C720001EF24FF922820270330B4047F0080027F01EF24FF922420250A20280320240438
:200C92007F0080027F01EF24FF9225A2B492279001B1E014F0E070089001B1740EF0B229DC
:200CB2009000C4E0FFE0600EEF149000C4F09001B2741CF080189001B2E014F0E0700F90E9
:200CD20001B2741CF075D0001209EB75D008D0D0D000D001D002D003D004D005D006D007FB
:200CF200D083D082D0F0D0E0D02732C0E0C082C083C0D075D01043C110301933E5A0540F22
:200D1200FFE54A904760934FF5A0E54E60067E017F0080047EFF7FFFAF4AEE2FF54A24F75F
:200D32005005754A0780087408B54A03754A00D0D0D083D082D0E032AD82AE83AFF0AC5D92
:200D52008C56C22AAB5C302A03020E5643C110758280C007C006C005C004C0031204818569
:200D72005E82855F838560F01204FED003D004D005D006D007301532752DE4752E4A752F7A
:200D920080854230854131854032A21892017582C0C007C006C005C004C0031205E9D0032C
:200DB200D004D005D006D007806990F002E4937032752DEC752E4A752F80854230854131BA
:200DD200854032A21892017582C0C007C006C005C004C0031205E9D003D004D005D006D00B
:200DF200078030752DF4752E4A752F80854230854131854032A21892017582C0C007C0060D
:200E1200C005C004C0031205E9D003D004D005D006D007E5556003020D588B021BEA602431
:200E32008C558C568D828E838FF0C007C006C005C004C0031202E2D003D004D005D006D04D
:200E520007020D587582801204DFA22A22900001E06020900004E0701A755EFE755F4A7565
:200E72006080755C03755D01904AFC75F080120D4AC322904B0F75F0801202E23030067E27
:200E9200557F4780047E117FF07D808E828F838DF01202E2904B1975F0801202E2900005AD
:200EB2001203CED322900001E4F0C20C755707755E30755F4B756080755C0F755D01904B3D
:200ED2001C75F080120D4A755700900001E024FF2285826185836285F0639001317420F024
:200EF200900132744BF0900133743DF0AB457C0075730A8C748B828C83C004C003124708A7
:200F1200AA82D003D00474302A900134F075730A7574008B828C831246D2AE8274302E90B6
:200F32000135F0900136743AF0AE467F0075730A8F748E828F83C007C006124708AC82D09E
:200F520006D00774302C900137F075730A7574008E828F831246D2AE8274302E900138F038
:200F7200900139E4F090013A7420F090013B7454F090013C743DF0AE427F0075730A8F741C
:200F92008E828F83C007C006124708AC82D006D00774302C90013DF075730A7574008E82DB
:200FB2008F831246D2AE8274302E90013EF090013F743AF0AE417F0075730A8F748E828FB2
:200FD20083C007C006124708AC82D006D00774302C900140F075730A7574008E828F831213
:200FF20046D2AE8274302E900141F09001427420F09001437447F09001447450F0900145CE
:201012007453F0900146743DF0A215E433FF90F002E4932F2430900147F0900148E4F07859
:20103200758673F57490001C124623757300757401124708AE829001497420F090014A7490
:2010520044F090014B7448F090014C743DF090F000E493243090014DF090014E7420F09038
:20107200014F7442F090015004F0900151743DF090F001E4932430900152F0900153742079
:20109200F09001547444F090015514F0900156743DF09000C5E060067D317F0080047D3056
:2010B2007F00900157EDF09001587420F09001597453F090015A04F090015B743DF09000D0
:2010D200C6E060067D317F0080047D307F0090015CEDF090015D7420F090015E7458F0909E
:2010F200015F7447F0900160743DF09000C4E060067D317F0080047D307F00900161EDF0FB
:201112009001627420F09001637452F090016404F0900165743DF0AF4974302F900166F06A
:20113200900167742FF090F003E4932430900168F09001697420F090016A7454F090016BAE
:201152007452F090016C743DF090F004E493FF7D0075730A8D748F828D83C006124708ADCA
:201172008274302D90016DF090F004E493FF7D0075730A8D748F828D831246D2AD82D00662
:2011920074302D90016EF090016F7420F09001707444F090017104F0900172744EF0900114
:2011B20073743DF0A2A1E4332430900174F09001757420F09001767456F0900177744FF060
:2011D200900178744CF0900179743DF07F0075730A8F748E828F83C007C006124708AC82E7
:2011F200D006D00774302C90017AF075730A7574008E828F831246D2AE8274302E90017B30
:20121200F090017C7420F090017D744DF090017E7450F090017F7433F0900180743DF090D0
:20123200F010E4932430900181F03031067E207F0080047E007F00900182EEF09001837451
:2012520044F09001847454F0900185743DF090F01CE4932430900186F0900187E4F0042541
:2012720061FDE43562FEAF638D828E838FF01246B6FCBC2A028011C007C006C005120EB728
:20129200D005D006D0078005900001E4F0A2319230C007C006C005120E5FD005D006D007E8
:2012B2004001229047B875F080C007C006C0051202E290013175F0001202E290013A75F0B0
:2012D200001202E290014975F0001202E2D005D006D00790F01CE493FCBC020050213031B0
:2012F2001E904B4175F080C007C006C0051202E290F01175F0801202E2D005D006D0078DFA
:20131200828E838FF01246B6FDBD2A02803B900001E06035904B4375F0801202E29000016A
:2013320075F0001202E230310F900005E07009904B4E75F0801202E2900005E4F0900004E1
:20135200F0900003F0900002F08561828562838563F01202E274012561FDE43562FEAF6363
:201372008D828E838FF01246B6FDBD2A09904AFC75F0800202E2755E68755F4B75608075FC
:201392005C32755D01904AFC75F080020D4AAD82AE83AFF09001887454F0900189743DF03B
:2013B200AB427C0075730A8C748B828C83C007C006C005C004C003124708A982D003D00498
:2013D20074302990018AF075730A7574008B828C831246D2AB8274302B90018BF090018CDD
:2013F200743AF0AB417C0075730A8C748B828C83C004C003124708A982D003D00474302940
:2014120090018DF075730A7574008B828C831246D2AB8274302B90018EF090018F7420F0DC
:201432009001907447F09001917450F09001927453F0900193743DF0A215E433FC90F0020D
:20145200E4932C2430900194F09001957420F09001967444F090019704F0900198744EF0FE
:20147200900199743DF0A2A1E433243090019AF090019BE4F090019C740DF090019D744D39
:20149200F090019E744FF090019F7444F09001A004F09001A1744EF09001A2743DF090F033
:2014B20007E49324309001A3F09001A4E4F0A2329230120E5FD005D006D007400122900190
:2014D2008875F000C007C006C0051202E290019C75F0001202E2D005D006D00790F007E450
:2014F2009370030216D3904B7975F080C007C006C0051202E290F007E493FC90F00793FB59
:201512007A0075733C8A748B828A83C004124708AA82D00474302A90019DF0EC90F00793EC
:20153200FB7A007573068A748B828A83C00412470875730A7574001246D2AA82D004743050
:201552002A90019EF090019F743AF0EC90F00793FC7B007573068B748C828B831246D2AB07
:201572008274302B9001A0F09001A17430F09001A27420F09001A3742DF090019C75F00013
:201592001202E290019C7420F090F008E493FC7B0075733C8B748C828B83124708AB8274DB
:2015B200302B90019DF090F008E493FC7B007573068B748C828B8312470875730A757400E5
:2015D2001246D2AB8274302B90019EF090F008E493FC7B007573068B748C828B831246D20B
:2015F200AB8274302B9001A0F09001A2E4F090019C75F0001202E2D005D006D0077C02909D
:20161200F007E493FBC3EC9B40030216E8EC90F00793FB7A0075733C8A748B828A83C00744
:20163200C006C005C004124708AA82D00474302A90019DF0EC90F00793FB7A007573068A09
:20165200748B828A83C00412470875730A7574001246D2AA82D00474302A90019EF0EC9057
:20167200F00793FB7A007573068A748B828A83C0041246D2AA82D004D005D006D00774303F
:201692002A9001A0F08C02EA30E00D90019C7420F09001A2E4F0800C90019C740DF09001E5
:2016B200A27420F090019C75F000C007C006C005C0041202E2D004D005D006D0070C0216DA
:2016D20011904B8675F080C007C006C0051202E2D005D006D0078D828E838FF01202E275CD
:2016F2005E9B755F4B756080755C32755D01904AFC75F080020D4A900001E4F0D230120EFA
:201712005F4001229047C875F0801202E2755EAC755F4B756080755C32755D01904AFC7567
:20173200F080020D4A755700755EC7755F4B756080755C0F755D02904BBD75F080120D4A5A
:2017520050637402B5585E90011BE024D075F00AA4FF90011CE02F24D0F542AE427F007586
:20177200730C8F748E828F831246D2AE828E4390011EE024D075F00AA4FF90011FE02F2410
:20179200D0F541900121E024D075F00AA4FF900122E02F24D0F54085411E85401F8542829D
:2017B2001201C5D322C3227F00755EB8755F47756080755C0F755D01904BD875F080C007D9
:2017D200120D4AD00740030219D6755EE6755F4B756080755C0F755D01904BDC75F080C047
:2017F20007120D4AD00740030219D690F002E49370030219D6755E02755F4C756080755CE4
:201812000F755D01904BF775F080C007120D4AD00740030219D6755E1E755F4C7560807507
:201832005C0F755D01904C1375F080C007120D4AD00740030219D6755706755E3B755F4C49
:20185200756080755C0F755D02904C3075F080C007120D4AD00740030219D67401B55802BD
:2018720080030219D67E007D00ED2412F582E43401F5830DE0FCBC2C060EBE0300500ABDFF
:201892000B00500543C11080E0EE24FD40030219D68D060EEE3395E0FCEE2412F582EC3431
:2018B20001F583E0FEBE2C15ED04FEED2412F582E43401F583E0FC24D0F5428029ED04FC09
:2018D200ED2412F582E43401F583E024D075F00AA4FDEC04FEEC2412F582E43401F583E0EF
:2018F200FC24D02DF5420E8E050DED3395E0FCED2412F582EC3401F583E0FDBD2C15EE0443
:20191200FDEE2412F582E43401F583E0FC24D0F5418029EE04FCEE2412F582E43401F583C3
:20193200E024D075F00AA4FEEC04FDEC2412F582E43401F583E0FC24D02EF541ED04FEFD79
:201952000DED3395E0FCED2412F582EC3401F583E0FDBD2C12EE2412F582E43401F583E0C0
:20197200FD24D0F5408026EE04FDEE2412F582E43401F583E024D075F00AA4FEED2412F571
:2019920082E43401F583E0FD24D02EF540AD427E0074072DFDE43EFEC374179D74808EF05F
:2019B20063F08095F05007E54224EFFE8006AD4274072DFE8E4285411E85401F8542821220
:2019D20001C57F01EF24FF92157557002220A002C322755E58755F4C756080755C0F755D0F
:2019F20002904C4D75F080120D4A5036755E7C755F4C756080755C0F755D01904C6975F0B5
:201A120080120D4A501C755EA1755F4C756080755C0F755D01904C8D75F080120D4A5002BA
:201A3200D322C322C027C0E0C0F0C082C083C007C006C005C004C003C002C001C000C0D052
:201A520075D01020980302261143C110855655E5592403FEE43401FF8E828F83E599F0E5F7
:201A72005724F85003022604E557240B83F582E557240C83F583E4739AF5F534044B23B263
:201A92001A212122262320248E828F83E0FDBD22028003021C5FAC597D00740C2CF582E4C0
:201AB2003DF58375730D8D74C017C016C015C01475D0001246D275D010AA82AB83D014D041
:201AD20015D016D017EA2403F582EB3401F583E0FBBB20028003021C5F740B2CF582E43DF7
:201AF200F58375730D757400C017C016C015C01475D0001246D275D010AA82AB83D014D056
:201B120015D016D017EA2403F582EB3401F583E0FBBB3A028003021C5F740A2CF582E43D9D
:201B3200F58375730D757400C017C016C015C01475D0001246D275D010AA82AB83D014D015
:201B520015D016D017EA2403F582EB3401F583E0FBBB4B028003021C5F74092CF582E43D4D
:201B7200F58375730D757400C017C016C015C01475D0001246D275D010AA82AB83D014D0D5
:201B920015D016D017EA2403F582EB3401F583E0FBBB4C028003021C5F74082CF582E43D0D
:201BB200F58375730D757400C017C016C015C01475D0001246D275D010AA82AB83D014D095
:201BD20015D016D017EA2403F582EB3401F583E0FBBB43028003021C5F74072CF582E43DD7
:201BF200F58375730D757400C017C016C015C01475D0001246D275D010AA82AB83D014D055
:201C120015D016D017EA2403F582EB3401F583E0FBBB433974062CF582E43DF58375730DF3
:201C3200757400C017C01675D0001246D275D010AC82AD83D016D017EC2403F582ED340161
:201C5200F583E0FDBD2B067557020226048E828F83E0FDBD3A028003021DB0AC597D0074F5
:201C72000C2CF582E43DF58375730D8D74C017C016C015C01475D0001246D275D010AA82CE
:201C9200AB83D014D015D016D017EA2403F582EB3401F583E0FBBB49028003021DB0740B9C
:201CB2002CF582E43DF58375730D757400C017C016C015C01475D0001246D275D010AA82B2
:201CD200AB83D014D015D016D017EA2403F582EB3401F583E0FBBB54028003021DB0740A52
:201CF2002CF582E43DF58375730D757400C017C016C015C01475D0001246D275D010AA8272
:201D1200AB83D014D015D016D017EA2403F582EB3401F583E0FBBB4D028003021DB0740919
:201D32002CF582E43DF58375730D757400C017C016C015C01475D0001246D275D010AA8231
:201D5200AB83D014D015D016D017EA2403F582EB3401F583E0FBBB434574082CF582E43D2F
:201D7200F58375730D757400C017C01675D0001246D275D010AC82AD83D016D017EC24034C
:201D9200F582ED3401F583E0FDBD2B12904CB375F08075D0001202E275D0100226048E8209
:201DB2008F83E0FDBD20028003021F43AC597D00740C2CF582E43DF58375730D8D74C01751
:201DD200C016C015C01475D0001246D275D010AA82AB83D014D015D016D017EA2403F58236
:201DF200EB3401F583E0FBBB3A028003021F43740B2CF582E43DF58375730D757400C01710
:201E1200C016C015C01475D0001246D275D010AA82AB83D014D015D016D017EA2403F582F5
:201E3200EB3401F583E0FBBB4C028003021F43740A2CF582E43DF58375730D757400C017BE
:201E5200C016C015C01475D0001246D275D010AA82AB83D014D015D016D017EA2403F582B5
:201E7200EB3401F583E0FBBB47028003021F4374092CF582E43DF58375730D757400C01784
:201E9200C016C015C01475D0001246D275D010AA82AB83D014D015D016D017EA2403F58275
:201EB200EB3401F583E0FBBB4D028003021F4374082CF582E43DF58375730D757400C0173F
:201ED200C016C015C01475D0001246D275D010AA82AB83D014D015D016D017EA2403F58235
:201EF200EB3401F583E0FBBB434774072CF582E43DF58375730D757400C017C01675D00091
:201F12001246D275D010AC82AD83D016D017EC2403F582ED3401F583E0FDBD2B14300B03CA
:201F3200022604053DC209C207C2067557030226048E828F83E0FDBD4B59AC597D00740C68
:201F52002CF582E43DF58375730D8D74C017C01675D0001246D275D010AC82AD83D016D0B8
:201F720017EC2403F582ED3401F583E0FDBD4F23A22BB3922AC22BE53E7003022604753E6A
:201F920000904C8D75F08075D0001202E275D0100226048E828F83E0FDBD54028003022668
:201FB20004AC597D00740C2CF582E43DF58375730D8D74C015C01475D0001246D275D0106A
:201FD200AA82AB83D014D015EA2403F582EB3401F583E0FBBB4F028003022604740B2CF576
:201FF20082E43DF58375730D75740075D0001246D275D010AC82AD83EC2403F582ED340108
:20201200F583E0FDBD4E028003022604D22B0226048E828F83E0FDBD20028003022604AC3B
:20203200597D00740C2CF582E43DF58375730D8D74C015C01475D0001246D275D010AA826D
:20205200AB83D014D015EA2403F582EB3401F583E0FBBB3A028003022604740B2CF582E4D0
:202072003DF58375730D757400C015C01475D0001246D275D010AA82AB83D014D015EA241D
:2020920003F582EB3401F583E0FBBB5A028003022604740A2CF582E43DF58375730D7574E3
:2020B20000C015C01475D0001246D275D010AA82AB83D014D015EA2403F582EB3401F5835E
:2020D200E0FBBB5402800302260474092CF582E43DF58375730D757400C015C01475D000CE
:2020F2001246D275D010AA82AB83D014D015EA2403F582EB3401F583E0FBBB54028003029B
:20211200260474082CF582E43DF58375730D757400C015C01475D0001246D275D010AA8254
:20213200AB83D014D015EA2403F582EB3401F583E0FBBB5502800302260474072CF582E4D8
:202152003DF58375730D757400C015C01475D0001246D275D010AA82AB83D014D015EA243C
:2021720003F582EB3401F583E0FBBB5302800302260474062CF582E43DF58375730D75740D
:2021920000C015C01475D0001246D275D010AA82AB83D014D015EA2403F582EB3401F5837D
:2021B200E0FBBB500280030226048C828D83A3A3A3A3A375730D75740075D0001246D27567
:2021D200D010AC82AD83EC2403F582ED3401F583E0FDBD2A028003022604755A007557017A
:2021F200022604740DB59902801A74E2255A4014AD5A055AED2412F582E43401F583E599FE
:20221200F0022604AD5A1DED3395E0FCED2412F582EC3401F583E4F0855758F557D22A0256
:20223200260430095DE53E7010740DB599028003022604755705022604740AB53E0B74229A
:20225200B59906753E0002260420060EE53E90475593FDB599028002D20630080F20070E00
:20227200E53E90F01193FDB599028002D207053E20060302260420070302260475570002A1
:2022920026048E828F83E0FDBD3402800302233BAC597D00740C2CF582E43DF58375730DFA
:2022B2008D74C015C01475D0001246D275D010AA82AB83D014D015EA2403F582EB3401F5DE
:2022D20083E0FBBB3863740B2CF582E43DF58375730D757400C015C01475D0001246D27512
:2022F200D010AA82AB83D014D015EA2403F582EB3401F583E0FBBB2B30740A2CF582E43D76
:20231200F58375730D75740075D0001246D275D010AC82AD83EC2403F582ED3401F583E02F
:20233200FDBD2205D209753E01740DB599028003022604755700022604300A35743BB59937
:20235200028021740DB59902801A7460253E4014AD3E053EED2401F582E43400F583E5990D
:20237200F0022604753E00C20A755700D20B0226048E828F83E0FDBD2C028003022497AC05
:20239200597D00740C2CF582E43DF58375730D8D74C015C01475D0001246D275D010AA820A
:2023B200AB83D014D015EA2403F582EB3401F583E0FBBB43028003022497740B2CF582E4D3
:2023D2003DF58375730D757400C015C01475D0001246D275D010AA82AB83D014D015EA24BA
:2023F20003F582EB3401F583E0FBBB55028003022497740A2CF582E43DF58375730D7574F4
:2024120000C015C01475D0001246D275D010AA82AB83D014D015EA2403F582EB3401F583FA
:20243200E0FBBB446074092CF582E43DF58375730D757400C015C01475D0001246D275D05C
:2024520010AA82AB83D014D015EA2403F582EB3401F583E0FBBB502D74082CF582E43DF5CF
:202472008375730D75740075D0001246D275D010AC82AD83EC2403F582ED3401F583E0FDC6
:20249200BD2A0280047D0080027D01ED24FF920A740DB5990280030226047557000226041C
:2024B200300C3B7420B59902801A7460253E4014AD3E053EED2401F582E43400F583E599C5
:2024D200F0022604C20CC20EE53E2401F582E43400F583E4F0F53EF557D22A0226048E8256
:2024F2008F83E0FEBE3D028003022604AE597F00740C2EF582E43FF58375730D8F74C01719
:20251200C01675D0001246D275D010AC82AD83D016D017EC2403F582ED3401F583E0FDBD26
:2025320068028003022604740B2EF582E43FF58375730D757400C017C01675D0001246D2B7
:2025520075D010AC82AD83D016D017EC2403F582ED3401F583E0FDBD6E0280030226047498
:202572000A2EF582E43FF58375730D757400C017C01675D0001246D275D010AC82AD83D082
:2025920016D017EC2403F582ED3401F583E0FDBD696074092EF582E43FF58375730D75740A
:2025B20000C017C01675D0001246D275D010AC82AD83D016D017EC2403F582ED3401F58349
:2025D200E0FDBD682D74082EF582E43FF58375730D75740075D0001246D275D010AE82AF7D
:2025F20083EE2403F582EF3401F583E0FFBF6302D20C0559E55924F35003755900C298D03F
:20261200D0D000D001D002D003D004D005D006D007D083D082D0F0D0E0D02732C20D90009F
:2026320001E0FFBF3F028008900002E0FFBF3F06200603021709900002E0FFBF4103022DBD
:202652009FBF4303022B8CBF4503022E2CBF4802803EBF500302320EBF5303022C4EBF54E9
:2026720003023342BF6103022D9FBF6303022B8CBF6503022E2CBF68028015BF7003023258
:202692000EBF7303022C4EBF7403023342023696900004E0FFBF2B028003022863900005EA
:2026B200E0FEC3742F9EE433FD70030227EFBE330040030227EF900006E0FC24D040030290
:2026D20027EFBC3A0040030227EF900007E0FB24D040030227EFBB360040030227EF9000E4
:2026F20008E0F56824D040030227EF74C6256850030227EF90000AE0F56424D040030227CF
:20271200EF74CD256450030227EF90000BE0F56524D040030227EF74C6256550030227EF30
:2027320090000CE0F56624D040030227EF74CA256650030227EF90000DE0F56724D040031D
:202752000227EF74C6256750030227EF8E0274022AF569AA64C39A75F00AA42404F5692567
:20277200422CAC65C39CFAAC6674062CC39B75F00AA42567AB68C39BFC8A6A756B00AA418E
:202792007B00743C2AF56CE43BF56D8C027B00C3E56C9AE56D64808BF063F08095F0E43319
:2027B200FA7B00E56AC39AF582E56B9BF58375730C8B74C0041246D2AA82D0048A45AB4170
:2027D20074782BC39CFB7C0075733C8C748B828C831246D2AB82AC838B46022B2BED606C52
:2027F200BE36005067900006E0FD24D0505EBD3A005059EE24D075F00AA42D24D0FEAD4561
:20281200740C2DFDC3E5469EE433FCEDC39CFD7C0075730C8C748D828C83C0061246D2ACEA
:2028320082D0068C45AC467D00743C2CFCE43DFD7B00ECC39EF582ED9BF58375733C8B7496
:202852001246D2AD82AE838D46022B2BD20D022B2BBF2D44900005E0FE24D05036BE360069
:202872005031900006E0FD24D05028BD3A005023EE24D075F00AA4AC462CFE2D24D0F5460F
:2028920024C44003022B2B0545E546FE24C4F546022B2BD20D022B2B900005E0FEBE4E02FD
:2028B2008003BE6E213006030236BC12025E9000A37401F0120299787676007877761878F9
:2028D20078763C022B2BBE46028003BE66163006030236BC12025E9000A3E4F0120299C28C
:2028F200C2022B2BBF2C0280030229BEBE6702800DBE47028008BE61028003BE4116C2C2D3
:20291200787676001217379215787776187878763C022B2BEE24D040030229B9BE33004089
:20293200030229B9900006E0FD24D0507ABD3A005075900007E0FC24D0506CBC36005067E5
:20295200900008E0FB24D0505EBB3A0050598E02EA24D075F00AA4FA2D24D0FDBD180050F4
:2029720041C2C2787676008D42EC24D075F00AA42B24D0F541AC427D0075730C8D748C8297
:202992008D831246D2AC828C4385411E85401F8542821201C5C215787776187878763C020D
:2029B2002B2BD20D022B2BD20D022B2BEF24D04003022B29BF33004003022B29EE24D04018
:2029D20003022B29BE3A004003022B29900006E0FD24D04003022B29BD36004003022B296F
:2029F200900007E0FC24D04003022B29BC3A004003022B297B00EF24D0F573EB34FFF574E9
:202A120090000AC006C005C004124623AB82AF83D004D005D0067A00EE2BFBEA3FFFEB249D
:202A3200D0F582EF34FFF58375730C8A74C005C0041246D2AE82D004D0058E45ED24D075FC
:202A5200F00AA42C24D0F546900009E0FFBF6702800DBF47028008BF61028003BF412A904F
:202A7200F002E4937003022B2B121737921590F010E4937003022B2BC2C278767600787760
:202A920076187878763C022B2BEF24D04003022B2BBF33004003022B2B90000AE0FE24D025
:202AB2005077BE3A00507290000BE0FD24D05069BD3600506490000CE0FC24D0505BBC3AAA
:202AD200005056EF24D075F00AA42E24D0FFBF18005040C2C2787676008F42ED24D075F0C1
:202AF2000AA42C24D0F541AE427F0075730C8F748E828F831246D2AE828E4385411E854064
:202B12001F8542821201C5787776187878763CC2158006D20D8002D20D300D2A30070ED229
:202B320031904CC275F080120EE30236BCD231904CD575F080120EE3C231904CC275F080C6
:202B5200120EE30236BC120925921912087592C430070ED231904CFB75F080120EE302365D
:202B7200BCD231904D1575F080120EE3C231904CFB75F080120EE30236BC900005E0FFBFD1
:202B920065028003BF452A30070ED232904D4275F0801213A00236BCD232904D5A75F080E5
:202BB2001213A0C232904D4275F0801213A00236BCBF6E028003BF4E0E12025E9000A474A6
:202BD20001F0120299804BBF66028003BF460D12025E9000A4E4F01202998036900003E06E
:202BF2006030900004E0602A30070ED231904CC275F080120EE30236BCD231904CD575F05A
:202C120080120EE3C231904CC275F080120EE30236BC30070ED231904D8575F080120EE320
:202C32000236BCD231904D9975F080120EE3C231904D8575F080120EE30236BC900005E087
:202C5200FFBF7902800DBF59028008BF44028003BF642A30070DD231904DC075F080120E3C
:202C7200E38016D231904DDD75F080120EE3C231904DC075F080120EE3C2AF80FEBF670295
:202C92008008BF47028003022D42900009E0FE24D05073BE3A00506E12025E900009E024AB
:202CB200D0FE9000A6F08E4990000BE0FE24D05028BE3300502390000CE0FD24D0501ABD5A
:202CD2003A005015EE24D075F00AA42D24D0FEBE180050059000A7EEF012029930070ED22B
:202CF20031904E0D75F080120EE30236BCD231904E2C75F080120EE3C231904E0D75F08012
:202D1200120EE30236BC30070ED231904E5E75F080120EE30236BCD231904E7F75F08012F3
:202D32000EE3C231904E5E75F080120EE30236BCBF69028003BF492B30070DD231904EB3CD
:202D520075F080120EE38016D231904ED575F080120EE3C231904EB375F080120EE3C2A077
:202D72000236BC30070ED231904F0A75F080120EE30236BCD231904F2375F080120EE3C291
:202D920031904F0A75F080120EE30236BC900005E0FF24CF505ABF3A005055900007E0FF06
:202DB20024CF504CBF3A00504712025E900005E024D0C454F0FF900007E024D042079000BC
:202DD200A9EFF012029930070ED231904F4F75F080120EE30236BCD231904F7575F080120C
:202DF2000EE3C231904F4F75F080120EE30236BC30070ED231904FAE75F080120EE30236DE
:202E1200BCD231904FCB75F080120EE3C231904FAE75F080120EE30236BC900005E0FFBFC0
:202E320058028003BF783512025E9000AAE4F012029930070ED232904FFB75F0801213A03D
:202E52000236BCD23290501675F0801213A0C232904FFB75F0801213A00236BC12025E12D8
:202E720002999000AAE4F09001A57404F09001A5E0FF2401F582E43400F583E0FE24D040A6
:202E920003023194BE330040030231948F057F0074012DFBE43FFCEB2401F582EC3400F5F0
:202EB20083E0FC24D0400302319474012DFBE43FFCEB2401F582EC3400F583E0FCBC3A00F6
:202ED200400302319474022DFBE43FFCEB2401F582EC3400F583E0FC24D0400302319474AC
:202EF200022DFBE43FFCEB2401F582EC3400F583E0FCBC3600400302319474032DFBE43FBE
:202F1200FCEB2401F582EC3400F583E0FC24D0400302319474032DFBE43FFCEB2401F58265
:202F3200EC3400F583E0FCBC3A00400302319474052DFBE43FFCEB2401F582EC3400F5832C
:202F5200E0FC24D0400302319474052DFBE43FFCEB2401F582EC3400F583E0FCBC3300409B
:202F72000302319474062DFBE43FFCEB2401F582EC3400F583E0FC24D04003023194740641
:202F92002DFBE43FFCEB2401F582EC3400F583E0FCBC3A00400302319474072DFBE43FFC1B
:202FB200EB2401F582EC3400F583E0FC24D0400302319474072DFBE43FFCEB2401F582ECD1
:202FD2003400F583E0FCBC3600400302319474082DFBE43FFCEB2401F582EC3400F583E099
:202FF200FC24D0400302319474082DFBE43FFCEB2401F582EC3400F583E0FCBC3A004003CE
:203012000231948E7375740090000AC007C006C005124623AB82AC83D005D006D007C006E2
:2030320074012DFAE43FFEEA2401F582EE3400F583E07A002BFBEA3CFCC3EB9428EC6480C5
:203052009482D0064003023194C00674052DFBE43FFCEB2401F582EC3400F583E0FC8C73E8
:2030720075740090000AC007C006C005124623AB82AC83D005D006D00774062DFAE43FFE4E
:20309200EA2401F582EE3400F583E07A002BFBEA3CFCC3EB9428EC64809482D006400302F1
:2030B2003194ED24FCF582EF34FFF583757305757400C007C006C005124708AB82D005D0C0
:2030D20006D00774082BFC3395E0FAEC24A3F56AEA3400F56BEE24D075F00AA4F56C740161
:2030F2002DFCE43FFEEC2401F582EE3400F583E0256C24D075F006A4FE74022DFAE43FFC24
:20311200EA2401F582EC3400F583E02E24D0856A82856B83F074092BFB3395E0FEEB24A3AE
:20313200FBEE3400FE74052DFAE43FFCEA2401F582EC3400F583E024D075F00AA4F56C74C9
:20315200062DFAE43FFCEA2401F582EC3400F583E0256C24D075F006A4FC74072DFDE43FBB
:20317200FFED2401F582EF3400F583E02C24D08B828E83F09000AAE0FF0F0F9000AAEFF0BC
:2031920080069001A5744BF09001A5E0240AF0E0FFBF4B005003022E7F9000AAE060339056
:2031B200000012024612029930070ED23290504475F0801213A00236BCD23290506475F03E
:2031D200801213A0C23290504475F0801213A00236BC30070ED23190509775F080120EE33B
:2031F2000236BCD2319050B975F080120EE3C23190509775F080120EE30236BC30060302C4
:2032120036BC90F010E493700ED2319050EE75F080120EE30236BC900006E0FFBF5402806E
:2032320003BF7410C2C2D23190510375F080120EE30236BCBF4E028003BF6E2F90F010E48D
:2032520093FEBE011812025E9000B37402F012029978767600787776187878763CD2319016
:20327200510D75F080120EE30236BCBF46028003BF662590F010E493FEBE020EC2C21202C3
:203292005E9000B37401F0120299D23190511675F080120EE30236BC900005E0FE24D040EC
:2032B20003023334BE33005079EF24D05074BF3A00506F900007E0FD24D05066BD36005016
:2032D20061900008E0FC24D05058BC3A005053209242D2C2EE24D075F00AA42F24D0F582BB
:2032F200ED24D075F00AA42C24D0F5721245739005DC1203CE30920ED23190511F75F0806B
:20331200120EE30236BCD23190513475F080120EE30236BCD23190515675F080120EE3028C
:2033320036BCD23190517C75F080120EE30236BC30060302368B900004E0FFBF4702800353
:20335200BF671D12025E9000A57401F01202991217B9D23190519375F080120EE302368B5B
:20337200BF41028003BF611B12025E9000A5E4F0120299C215D23190519C75F080120EE314
:2033920002368BBF2B0280030234D1900005E0FEBE380280030234D1900006E0FEBE340285
:2033B20080030234D1900007E0FEBE300050030234C3EE24C650030234C3900008E0FEBE6A
:2033D200300050030234C3EE24C650030234C3900009E0FEBE300050030234C3EE24C65062
:2033F200030234C390000AE0FEBE300050030234C3EE24C650030234C390000BE0FEBE3082
:203412000050030234C3EE24C650030234C390000CE0FEBE300050030234C3EE24C650034B
:203432000234C390000DE0FEBE300050030234C3EE24C650030234C390000EE0FEBE30003E
:20345200406FEE24C6406A90000FE0FEBE30004060EE24C6405B12025E9000B4E4F07E01A2
:203472008E0574112DFD3395E0FCED24A3FDEC3400FC8E027B0074062AFAE43BFBEA2401B5
:20349200F582EB3400F583E08D828C83F00EBE0A0040CD9000BFE0FEBE02059000BFE4F026
:2034B200120299D2319051A575F080120EE302368BD2319051C375F080120EE302368BBF08
:2034D200300280030235EB900005E0FEBE300050030235DDEE24C650030235DD900006E086
:2034F200FEBE300050030235DDEE24C650030235DD900007E0FEBE300050030235DDEE244C
:20351200C650030235DD900008E0FEBE300050030235DDEE24C650030235DD900009E0FEEB
:20353200BE300050030235DDEE24C650030235DD90000AE0FEBE300050030235DDEE24C640
:2035520050030235DD90000BE0FEBE300050030235DDEE24C6407490000CE0FEBE300040F0
:203572006AEE24C6406590000DE0FEBE3000405BEE24C6405612025E7E008E0574112DFDAE
:203592003395E0FCED24A3FDEC3400FC8E027B0074032AFAE43BFBEA2401F582EB3400F54E
:2035B20083E08D828C83F00EBE0A0040CD9000BFE0FEBE02059000BFE4F0120299D2319050
:2035D20051A575F080120EE302368BD2319051C375F080120EE302368BBF78028003BF5813
:2035F2001A12025E9000BF7402F0120299D2319051E875F080120EE302368B90F01CE49341
:20361200FFBF0224900005E0FFBF6E02800DBF4E028008BF66028003BF465ED2319051F705
:2036320075F080120EE38051900005E0FFBF4E028003BF6E1912025E9000BF7401F0120239
:2036520099D23190522975F080120EE3802BBF46028003BF661812025E9000BFE4F01202AE
:2036720099D23190523875F080120EE3800BD23190524775F080120EE390F01CE493FF13D6
:203692009208802630070DD23190526475F080120EE38016D23190527775F080120EE3C2C7
:2036B2003190526475F080120EE343C1107F00EF2401FDE43400FE8D828E83E0600FEF245D
:2036D20001F582E43400F5830FE4F080E2227F008F6E8F937594FF8F928F918F957596FF54
:2036F2008FB28FB175B30275B41C8FCA8FC98FC075B0FF8FA0759D088F978FBD75BC83D263
:20371200ADD2AF9000C474FAF09000C5741EF09000C6740AF09000A2F075510275500275F6
:203732004F02755205755301C0071209D812025ED0079000A3E024FE50069000A37401F06B
:203752009000A4E024FE50059000A4E4F09000A5E024FE50069000A57401F09000A6E02463
:20377200F650069000A67401F09000A7E024E850059000A7E4F09000A9E0FDC4540FFC7B19
:20379200001CBCFF011BC374089C74808BF063F08095F0500A740F5D4450FD9000A9F090FE
:2037B20000A9E0FD53050F7C001DBDFF011CC374089D74808CF063F08095F0500F9000A95C
:2037D200E0FD74F05D4401FD9000A9F09001A67401F09000AAE0FDBD0900502EED20E02AC0
:2037F2007C01C3ED9C401E8C0374072BFB3395E0FAEB24A3F582EA3400F583E0FBBB9000D9
:2038120050030C80DD9001A6ECF09001A6E0FCC3ED9C40129000AA7402F09000AB7424F0B3
:203832009000AC746CF09001A6E4F09000BFE0FDBD020050479000BEE07041FDBD0A0050EA
:20385200368D0474112CFB3395E0FAEB24A3F582EA3400F583E0FBBB3000401B74112CFCB4
:203872003395E0FBEC24A3F582EB3400F583E0FC24C640030D80C59001A6EDF09001A6E04C
:20389200FDBD0A00500B9000BEE4F09000BF7402F09000C0E0FD24E750059000C0E4F0303F
:2038B20092079000B3E4F080129000B3E0FD6005ED24FD50069000B37402F0C007120299AE
:2038D200D00790F3FEE493FD24C4400A90F3FFE493FD24F4501E900200C00712024675280C
:2038F200009003FE12022B7528009003FF12022BD007800E90F3FEE493F54690F3FFE493E7
:20391200F545D2A2C0071202CAD00790F010E4936013C00712455DD00778767600787776D6
:20393200187878763CD20390F003E493F54975FA0075EA007547A075488C75DA49D2DEC033
:2039520007120568751841751900751A40751B40751C00751D4090004275F040120135D0E2
:2039720007E54224E8400CE54124C44006E54024C45010751E00751F00758200C0071201F6
:20399200C5D007C0071200EED2A8D288751841751900751A40751B40751C00751D409000F0
:2039B2004275F0401201351217B9D007E54224F45007E54224F4FD8002AD428D4390F01C5E
:2039D200E49313920875BC8BC0071219DFD0075021D23190529D75F080C007120EE3D007D4
:2039F20030080FC23190529D75F080C007120EE3D00790F005E4937015755405C00712024C
:203A12005E9000A874FFF0120299D007800375543C75C16590F3FEE493B5460B90F3FFE490
:203A320093FDB54502801C900200C0071202468546289003FE12022B8545289003FF12023E
:203A52002BD007E5546004E552701B755200201909C0071209259219D00720C409C007129B
:203A7200087592C4D007201603023B0F20A0169000A2E014F0E0700D75BC83D2A09000A264
:203A9200741EF0D2059000C3E0FDE0600C9000C1E07006ED149000C3F09000C3E070219000
:203AB20000C2E0FDE060199000C1EDF09000C37405F0C007120925921912087592C4D007A4
:203AD20030C40E9000C5E0FDE06006ED149000C5F030190E9000C6E0FDE06006ED149000B3
:203AF200C6F0E554600C90F010E49360032092021554E54F6005301E02154FC21690F01D10
:203B1200E493FDBD18005022C0071206D2D007E552701790F000E493601090F010E493FD27
:203B3200BD0207C007120819D00790F003E4936044E549704090F004E493FDB54237E54114
:203B520024FA503190F3FFE493FDB5452890F3FEE493FDB5461F90F010E49360032092155C
:203B7200C2AF75280090000512022BD2A39007D01203CE80FE9000C4E07026202D23D22DDB
:203B9200D2319052BF75F080C007120EE3D00730080FC2319052BF75F080C007120EE3D08F
:203BB200079000C5E070329000C6E0702C202E29D22EC2C4A2C49219D2319052DC75F0808F
:203BD200C007120EE3D00730080FC2319052DC75F080C007120EE3D00720037374FB254149
:203BF200406D20151090F002E4936009C0071217B9D007801F751841751900751A40751B85
:203C120040751C00751D4090004275F040C007120135D007E54224F45007E54224F4FD8040
:203C320002AD428D4390F001E4936021D2319052F375F080C007120EE3D00730080FC231A0
:203C52009052F375F080C007120EE3D007D203E55224FA5003024495E55275F003A4903C90
:203C72007473023C86023F7D0240ED02444E0242D6023DDC30054975BC8BC205755700C044
:203C9200071217B9AC427D0075730C8D748C828D831246D2AC828C431219DFD0075021D260
:203CB2003190530475F080C007120EE3D00730080FC23190530475F080C007120EE3D007AD
:203CD200300B14C00712262E904C8D75F0801202E2D007C20B8020752D21752E53752F80F1
:203CF200854530854631854032A2189201758280C0071205E9D007301522752DE4752E4A89
:203D1200752F80854230854131854032A21892017582C0C0071205E9D007804990F002E4B7
:203D3200936022752DF4752E4A752F80854230854131854032A21892017582C0C0071205EE
:203D5200E9D0078020752DEC752E4A752F80854230854131854032A21892017582C0C007A2
:203D72001205E9D007E54F600302449BC21B75543C9000C2E4F09000C1F09000C3F075528F
:203D920005755301C2C4A2C49219C2C278767600102002800302449B30081DD231905329CA
:203DB20075F080C007120EE3C23190533D75F080120EE3D00702449BD23190533D75F08087
:203DD200C007120EE3D00702449B101B02801E75543C05537404B5530990F010E493700225
:203DF2000553E55324FB5003755300C229102502800875543C755300C229102003023F1FF2
:203E120075543C855352755300C007120925921912087592C4D007E552700302449B7582A9
:203E320080C007120481E55275F010A42468FC744735F0FD7B808C828D838BF01204FED065
:203E5200077401B5520280197402B5520280357403B5520280787404B55203023EF9024485
:203E72009B752D21752E53752F80854530854631753200A21892017582C0C0071205E9D080
:203E92000702449B3015067CE47D4A801F90F002E493600B756FF475704A75718080097548
:203EB2006FEC75704A757180AC6FAD708C2D8D2E752F80854230854131854032A2189201FE
:203ED2007582C01205E9AF4285416E02449B90535375F080C0071204FE7529007582C012B6
:203EF20003FBD00702449B752D65752E53752F80753000753100753200A21892017582C0E3
:203F12001205E9D2C2756E007F0002449B3015067CE47D4A801990F002E49360087AF47B63
:203F32004A7E8080067AEC7B4A7E808A048B058C2D8D2E752F80854230854131855432A227
:203F52001892017582C0C0071205E9E55375F010A42468FD744735F0FE8D2A8E2B752C80DD
:203F720075828012040BD00702449BAE5374072EFEAC537D007573028D748C828D83C007EB
:203F9200C006124708AC82D006EC2EF5297582C01203FBD00710250302408F75543CE553C8
:203FB20024FC500302406FE55375F003A4903FC373023FCF023FFB024031024049E54524EA
:203FD200F2501DAD457E0075730A8E748D828E83C0071246D2AD82AE83D0078D4502406F41
:203FF200AE45740A2EF5458074E54524E950057545148069AD457E0075730A8E748D828E9E
:2040120083C0071246D2AD82AE83D007BD090CBE0009E545FE24F7F54580420545803EE51E
:204032004624CE5009E546FE24CEF546802FAE46740A2EF54680260546AD467E0075730AA9
:204052008E748D828E83C0071246D2E5828583F0D00745F07007E546FE24F6F546752D2118
:20407200752E53752F80854530854631753200A21892017582C0C0071205E9D007102002A3
:20409200800975543CE55360021553101B0302449B75543C0553E55324FC400302449BC0D6
:2040B200071204D9855253755205AD457E0075730C8E748D828E831246D2AD828D459002BF
:2040D200001202468546289003FE12022B8545289003FF12022BD00702449BAE5374072E8C
:2040F200FEAC537D007573028D748C828D83C007C006124708AC82D006EC2EF5297582C04A
:204112001203FBD00790F002E4936055E54F7051855253755205787776187878763C2015B9
:204132001090F002E4936009C0071217B9D007801F751841751900751A40751B40751C0050
:20415200751D4090004275F040C007120135D007E54224F45007E54224F4FE8002AE428E4B
:204172004310250302426F75543CE55324FC5003024230E55375F003A490418F7302419BE6
:204192000241C00241F202420AEF24F250188F057E0075730A8E748D828E831246D2AD829B
:2041B200AE838D0780788F06740A2EFF8070EF24E950047F1480678F057E0075730A8E7430
:2041D2008D828E83C0071246D2AD82AE83D007BD090BBE00088F06EE24F7FF80410F803EC3
:2041F200E56E24CE5009E56EFE24CEF56E802FAE6E740A2EF56E8026056EAD6E7E007573F5
:204212000A8E748D828E83C0071246D2E5828583F0D00745F07007E56EFE24F6F56E30157A
:20423200067DE47E4A801990F002E49360087AF47B4A7C8080067AEC7B4A7C808A058B0647
:204252008D2D8E2E752F808F30856E31855432A21892017582C0C0071205E9D007102002F0
:20427200800975543CE55360021553101B0302449B75543C0553E55324FC400302449BC0F4
:20429200071204D9D0078552537552058F42856E4185411E85401F854282C0071201C5ADE7
:2042B200427E0075730C8E748D828E831246D2AD82AE83D0078D43C215787776187878762B
:2042D2003C02449BAE5374072EFEAC537D007573028D748C828D83C007C006124708AC8266
:2042F200D006EC2EF5297582C01203FBD007E54F7008855253755205C2C21025030243E875
:2043120075543CE55324FC50030243C9E55375F003A49043287302433402435902438B0232
:2043320043A3EF24F250188F057E0075730A8E748D828E831246D2AD82AE838D0780788F4D
:2043520006740A2EFF8070EF24E950047F1480678F057E0075730A8E748D828E83C00712E1
:2043720046D2AD82AE83D007BD090BBE00088F06EE24F7FF80410F803EE56E24CE5009E597
:204392006EFE24CEF56E802FAE6E740A2EF56E8026056EAD6E7E0075730A8E748D828E83AA
:2043B200C0071246D2E5828583F0D00745F07007E56EFE24F6F56E752D65752E53752F8029
:2043D2008F30856E31753200A21892017582C0C0071205E9D007102002800975543CE553A7
:2043F20060021553101B0302449B75543C0553E55324FC400302449B755300856E728F82BB
:20441200C0071245739000641203CED0073092067D6D7E5380047D757E538D2D8E2E752F67
:20443200808F30856E31753200A21892017582C0C0071205E91204D9D007804D101B028055
:204452001FAE530E9000C2EEF09000C1EEF09000C37405F0855253F552C0071204D9D00703
:204472001025028024AE537404C39EF553AE5374312EF582C0071204267582C0120481D0C1
:2044920007800675530075520043C110023A26C0E043C110E59A30E003539AFED0E032C0A5
:2044B20027C0E0C0F0C082C083C007C006C005C004C003C002C001C000C0D075D00075BCCC
:2044D20083AFBD7875A60730021DBF52005004C2A28058EF24915053C202D23190537D756E
:2044F200F080120EE38044BF5C00503FD202C219C2C453A00F90F3FEE493B5460B90F3FF12
:20451200E493FFB5450280189002001202468546289003FE12022B8545289003FF12022B0D
:20453200D23190539275F080120EE375BC8BD0D0D000D001D002D003D004D005D006D00711
:0B455200D083D082D0F0D0E0D0273220
:20475500303934393834373039380080901030206040C02020202020204558495400000060
:2047750000000020204348494E482047494F204B494D00204348494E482047494F20544835
:204795005543002020202043414E48204B494D000000002020202054455354204D50330021
:2047B50000000020415349412047505320332E332E320044482C4F4E20646F6E6720686F74
:2047D5002063686179202D2044482C4F464620646F6E6720686F2064756E670A44482C2B85
:2047F5006D6D206B696D2070687574206C6563682064756F6E67206D6D2070687574202D67
:204815002044482C2D6D6D206C65636820616D206D6D20706875740A44482C6B6B6B6B2C85
:2048350074747474206368696E682067696F206B696D2067696F20746875632067696F20F7
:20485500747520646F6E67207468617920747474742062616E67206175746F0A42432C4F31
:204875004E2062616F2063616F206461752067696F202D2042432C4F464620746174206293
:20489500616F2063616F206461752067696F0A4243206775692062616F2063616F202D2021
:2048B50042432C44454E2042432C4D50332062616F2063616F2064656E2062616F20636188
:2048D5006F206D70330A52532072657365743A52532C737973207265736574206865207404
:2048F500686F6E67202D2052532C73696D20726573657420677073206D6F64756C650A52C1
:20491500532C472C6E6E2C6767206D6F69206E6E206E6761792076616F2067696F206767D7
:204935003A303620626F2064696575206B6869656E2072657365740A44454E2C584F412083
:20495500786F6120746F616E20626F2074686F6E6720736F2064656E207461742064656EDE
:204975000A44454E2C747474742C6D6D6D6D20783A20736F206361702067696F2074617475
:204995002F6D6F20747474742C6D6D6D6D2067696F207461742F6D6F2064656E0A4D503323
:2049B5002C582C616C6C20786F6120746174206361202D204D70332C582C61612C62622C59
:2049D50063632C2E2E2E20786F61206361632067696F2061612C62622C63630A4D50332C6E
:2049F500542C676770702C32322C31312C2E2E2E206C6170206C616920746F69206461207C
:204A15003132206C616E20676770703A67696F20706875742070686174206E6861630A32D8
:204A3500322C3131207468752074752062616920686174206C616E206C756F742074726FCA
:204A55006E6720746875206D7563203220766120310A44542C3078787878787878787820A6
:204A750044542C2B3834787878787878787878207468617920646F6920736F206469656E9A
:204A95002074686F6169207068750A44542C584F4120786F6120736F206469656E20746883
:204AB5006F6169207068750A44542C4F4E2044542C4F4646202D2062617420746174206480
:204AD50069656E2074686F6169207068750A002020475053202000204153494120200020D1
:204AF500202044532020001A00544B3C31303030204B2042414F43414F0041542B434D470D
:204B1500533D2200220D0041542B435553443D312C222A31303123222C0D0020204B4945A1
:204B35004D2054524120544B202020002C000D544B204368696E683D000D546169206B68B0
:204B55006F616E20636F6E2064756F692031303030300044414E47204755492042414F208F
:204B750043414F000D47696F204D6F2044656E3A000D4B686F6E6720636F2067696F206DF2
:204B95006F2064656E004755492042414F2043414F2044454E2000204755492048554F4EFA
:204BB500472044414E20200041542B43434C4B3F0D00202053454E44494E472043434C4BB8
:204BD50020200041540D0041542B4950523D300D00202053454E44494E4720495052202026
:204BF500200041542B434C54533D310D00202053454E44494E4720434C545320200041549C
:204C15002B4346554E3D300D00202053454E44494E47204346554E3020200041542B434661
:204C3500554E3D310D00202053454E44494E47204346554E3120200041542B434D47463D22
:204C5500310D00202053454E44494E4720434D474620200041542B434E4D493D312C312C5E
:204C7500302C302C310D00202053454E44494E4720434E4D4920200041542B434D4744413E
:204C95003D2244454C20414C4C220D00202053454E44494E4720434D47444120200041540A
:204CB5002B434D474C3D22414C4C220D000D6C656E68206B686F6E6720686F70206C6500E7
:204CD5000D6C656E68206B686F6E6720686F70206C650D50686F6E652070687520677569A3
:204CF500206C656E68000D6368696E6820646F6E6720686F207468616E6820636F6E670008
:204D15000D6368696E6820646F6E6720686F207468616E6820636F6E670D50686F6E652087
:204D350070687520677569206C656E68000D62616F2063616F2064656E207468616E6820A9
:204D5500636F6E67000D62616F2063616F2064656E207468616E6820636F6E670D50686F80
:204D75006E652070687520677569206C656E68000D62616F2063616F207468616E6820636A
:204D95006F6E67000D62616F2063616F207468616E6820636F6E670D50686F6E652070682F
:204DB5007520677569206C656E68000D6B686F6920646F6E67206C616920626F2064696524
:204DD50075206B6869656E000D6B686F6920646F6E67206C616920626F2064696575206B01
:204DF5006869656E0D50686F6E652070687520677569206C656E68000D646174206E6761BE
:204E1500792067696F207265736574207468616E6820636F6E67000D646174206E67617953
:204E35002067696F207265736574207468616E6820636F6E670D50686F6E6520706875202D
:204E5500677569206C656E68000D646174206E6761792067696F207265736574206B686F18
:204E75006E6720686F70206C65000D646174206E6761792067696F207265736574206B6846
:204E95006F6E6720686F70206C650D50686F6E652070687520677569206C656E68000D674D
:204EB500736D206D6F64756C65206B686F6920646F6E67206C616920736175203130730011
:204ED5000D67736D206D6F64756C65206B686F6920646F6E67206C616920736175203130F0
:204EF500730D50686F6E652070687520677569206C656E68000D6C656E6820726573657493
:204F1500206B686F6E6720686F70206C65000D6C656E68207265736574206B686F6E67209F
:204F3500686F70206C650D50686F6E652070687520677569206C656E68000D7468617920A1
:204F5500646F692067696F20736163207861206163717569207468616E6820636F6E670024
:204F75000D7468617920646F692067696F20736163207861206163717569207468616E68E8
:204F950020636F6E670D50686F6E652070687520677569206C656E68000D4C656E6820736E
:204FB5006163206163717569206B686F6E6720686F70206C65000D4C656E6820736163204B
:204FD5006163717569206B686F6E6720686F70206C650D50686F6E65207068752067756941
:204FF500206C656E68000D786F6120746174206D6F2064656E207468616E6820636F6E67CA
:20501500000D786F6120746174206D6F2064656E207468616E6820636F6E670D50686F6ECE
:20503500652070687520677569206C656E68000D677569206C656E6820746174206D6F20BF
:2050550064656E207468616E6820636F6E67000D677569206C656E6820746174206D6F206C
:2050750064656E207468616E6820636F6E670D50686F6E652070687520677569206C656EB2
:2050950068000D74686F6E6720736F20746174206D6F2064656E206B686F6E6720686F700A
:2050B500206C65000D74686F6E6720736F20746174206D6F2064656E206B686F6E67206840
:2050D5006F70206C650D50686F6E652070687520677569206C656E68000D4B686F6E672027
:2050F500436F204D6F64756C65204D7033000D44756E67204D7033000D426174206D703354
:20511500000D546174206D7033000D54657374206D7033207468616E6820636F6E67000D30
:205135006B686F6E672064756E672067696F207068617420686F6163206D7033206C6F69FA
:20515500000D4D70332064616E672063686F69206E686163206E656E2063687561207468E8
:20517500652074657374000D4C656E68204D5033206B686F6E6720686F70206C65000D4273
:20519500617420475053000D54617420475053000D6768692070686F6E6520706875206D62
:2051B5006F69207468616E6820636F6E67000D7468617920646F692070686F6E65207068B7
:2051D50075206B686F6E67207468616E6820636F6E67000D586F612070686F6E65207068AD
:2051F50075000D6C656E68206B686F6E67207468616E6820636F6E6720646F20636875618C
:20521500206B686F692074616F2070686F6E6520706875000D4261742070686F6E652070B5
:205235006875000D5461742070686F6E6520706875000D4C656E682070686F6E65207068D9
:2052550075206B686F6E6720686F70206C65000D4C656E68206B686F6E6720686F70206C77
:2052750065000D4C656E68206B686F6E6720686F70206C650D50686F6E6520706875206796
:205295007569206C656E68000D626F2064696575206B6869656E206B686F6920646F6E67ED
:2052B5002073616E2073616E67000D70686174206869656E206C6F69206D61742078756EEF
:2052D500672067696179000D70686174206869656E206C6F6920646F632063616D000D6290
:2052F500616F2063616F206461752067696F000D67736D206D6F64756C6520726573657480
:20531500207468616E6820636F6E670020204B494D2020000D6368696E682067696F206225
:20533500616E6720746179000D2A6368696E682067696F2062616E67207461792A00C031D3
:205355002050485554202020202020202020200020204D503320200020204F4B202020000D
:2053750020204E4F202020000D2A6469656E206170206B686F6920706875632A000D2A64B3
:1553950069656E20617020616371756920746861702A00142870
:20455D0075BA01759A50438E0475D7C875D6FE438E1075AF0122AF828F7375740090006445
:20457D00124623AE82AF83AC727D00EC2EFEED3FFF8E058D037C0074E9C39BFB74FE9CFC04
:20459D008F017A00EBC399FBEC9AFC9001A7747EF09001A874FFF09001A97406F09001AA9B
:2045BD007412F09001ABE4F08F069001ACEEF09001ADEDF08C079001AEEFF09001AFEBF0C1
:2045DD009001B074EFF07F00EF24A7F582E43401F583E0F59BE59A035401700543C1108099
:0B45FD00F4539AFD0FBF0A0040DE22BD
:06007800E478FFF6D8FD5C
:200056007902E94400601B7A019053A878B175A001E493F2A308B8000205A0D9F4DAF275A1
:02007600A0FFE9
:1B46080020F71130F6138883A88220F509F6A8837583002280FEF280F5F022B1
:1D462300E5828573F0A4C582C0F08574F0A4D0F025F0C5838573F0A42583F5832218
:20464000E573457460467A01E57325E0F573E574334012F574E5829573E583957440030AEF
:2046600080E6C3E57413F574E57313F573C3E5829573F5F0E58395744005F58385F082C36A
:0D468000E57413F574E57313F573DAE122A8
:20007E007800E84400600A790175A000E4F309D8FC78B0E84401600C7902900001E4F0A3CD
:04009E00D8FCD9FAB7
:20468D007A10E4FBFCE58225E0F582E58333F583EB33FBEC33FCEB9573F5F0EC957440066B
:0946AD00FCABF0438201DADD22CE
:0D004900758178124740E582600302004691
:1C46B60020F71430F6148883A88220F507E6A88375830022E280F7E49322E02213
:2046D200C2D5E58330E70DD2D5E4C39582F582E49583F583E57430E70BE4C39573F573E4DF
:1646F2009574F57412464030D50BE4C39582F582E49583F58322CD
:20470800C2D5E58330E70DD2D5E4C39582F582E49583F583E57430E70DB2D5E4C39573F576
:1847280073E49574F57412468D30D50BE4C39582F582E49583F58322F0
:04474000758200225C
:00000001FF
