:2000A500AF827E0075730A8E748F828E83C007C0061246D4AC82D006D007ECC454F0FC757D
:2000C500730A7574008F828E83C00412469EAE82D004EE4CF58222E582FFC4540F75F00A06
:2000E500A4FE740F5F2EF582221203167582D0120355758207120355758210120355020376
:20010500311203167582D01203557582041203551203311203167582D1120355C20012036E
:200125007A1200DCAF82C007120331D0078F8222AD82AE83AFF0C007C006C0051203167519
:2001450082D01203557582001203551203311203167582D1120355AA1BAB1CAC1DD200C0F3
:2001650004C003C00212037A1200DCA982D002D003D0048A828B838CF0E91245D4AA18ABB9
:2001850019AC1AD200C004C003C00212037A1200DCA982D002D003D0048A828B838CF0E9C0
:2001A5001245D4C20012037A1200DCAC82D005D006D0078D828E838FF0EC1245D402033134
:2001C500AF82C0071203167582D0120355758200120355851F821200A5120355851E8212E7
:1201E50000A5120355D0078F821200A5120355020331BA
:2001F70075C70075C50075C60075C38075C40043C11022AE82AF8375C78375C5018EC48FD3
:20021700C375C65A75C6A500AFC2C0071201F7D0078F8222AE82AF8375C78375C5028EC494
:200237008FC38528C275C65A75C6A5000201F7AE82AF8375C78375C5038EC48FC375C65AE0
:2002570075C6A5000201F743C1107F1EEF60101FEF24A3F582E43400F58374FFF080EDBF32
:200277001E005018EF24A3FDE43400FE8F827583F00FE493FC8D828E83F080E39000000298
:2002970002467F00BFCD00502975C78375C5028FC475C300EF24A3F582E43400F5830FE049
:1302B700F5C275C65A75C6A500C0071201F7D00780D222EC
:2002CA00759850438E40538EFE758BCC758DFFC2ABD28ED2ACD2A022AD82AE83AFF08D820D
:2002EA008E838FF0124682FC60218C9920990543C11080F8C2998D828E838FF0124682FCCE
:0C030A00BC1A01220DBD00D60E80D322CB
:20031600D2C043C11043C110D2CD43C11043C110C2C043C11043C110C2CD22C2C043C11055
:2003360043C110D2CD43C11043C110D2C02243C11043C110D2CD43C11043C110C2CD22AFC9
:20035600827E00EF23540124FF92C08F05ED2DFFC007C006120344D006D0070EBE08004057
:20037600E20203447F00D2C07E0043C11043C110D2CD43C11043C1108F05ED2DFDA2C0E4CD
:1E039600334DFFC2CD0EBE080040DFA200B392C0C007120344D007A2C092CD8F8222B6
:2003B400AE82AF837C007D00C3EC9EED9F500A43C1100CBC00F20D80EF22AE82AF837C0051
:2003D4007D00C3EC9EED9F501D9003E8C007C006C005C0041203B4D004D005D006D0070C8A
:2003F400BC00DF0D80DC22AF82E5294FF58212048175820D020481AF82302A118F821204D9
:2004140081852A82852B83852CF00204FE8F820204DFE582FFC4540124FF9283EFA2E5E437
:200434003324FF9282EF2323540124FF9281EF23540124FF9280D284D285C284EF54012487
:20045400FF9283EF03540124FF9282EF03035401FE24FF9281EFA2E3E433FF24FF9280D2E7
:200474008400C2849000321203B4C28522E582FFC4540124FF9283EFA2E5E43324FF92822F
:20049400EF2323540124FF9281EF23540124FF9280D284C285C284EF540124FF9283EF039B
:2004B400540124FF9282EF03035401FE24FF9281EFA2E3E433FF24FF9280D28400C2849033
:2004D40000320203B475820C020481E582FF600E8F8212048190471075F0800204FE758250
:2004F400011204819006400203B4AD82AE83AFF07C008D828E838FF0124682FB6055BC1051
:20051400005050BB80005025EB24E050200CEC601C8B820DBD00010EC007C006C005C004A8
:20053400120426D004D005D006D00780C58D828E838FF0124682FBA3AD82AE838B82C00785
:20055400C006C005C004120481D004D005D006D007809F22C286903A981203B475801C0086
:20057400C284900FA01203B4D28400C2849000A01203B4D28400C2849000A01203B47580FA
:200594001400C2849003E81203B4D28400C2840075801100C2849000281203B4758010003B
:2005B400C2840075801300C2849000281203B475801000C2840075801600C28490002812AC
:2005D40003B475801000C2840075801800C2849003E80203B4AF82AD307E0075730A8E74FE
:2005F4008D828E83C007C006C0051246D4AB82D005D00674302BF53375730A7574008D8290
:200614008E8312469EAD82D00774302DF5343001067D3A7E0080047D207E008D35AD317E96
:200634000075730A8E748D828E83C007C006C0051246D4AB82D005D00674302BF53675735A
:200654000A7574008D828E8312469EAD82D00774302DF5373001067D3A7E0080047D207E6F
:20067400008D38AD327E0075730A8E748D828E83C007C006C0051246D4AB82D005D0067466
:20069400302BF53975730A7574008D828E8312469EAD82D00774302DF53A753B008F8212F3
:1E06B4000481852D82852E83852FF01204FE74E82530400990003375F0400204FE22F9
:11471000202020202020202020202020202020200098
:06000000020049020A3F64
:03000B00020CD50F
:0100130032BA
:01001B0032B2
:03002300021A0EB0
:03002B0002447D0F
:01003300329A
:03003B00020A8C2A
:0300430002446D07
:0300A20002004613
:030046000236B8C7
:2006D200E54275F006A4FFAD417E0075730A8E748D828E83C0071246D4AD82D007ED2FF549
:2006F2005B7E017D0190F007E493FCC3ED9C400302079CED90F00793FC8D030BEB3395E031
:20071200FAEB2407F582EA34F0F583E493F9C3EC99E433F97C0009B900010CED90F00793A0
:20073200F8C3E55B98E4337F0029F9EF3CFCEB2407F582EA34F0F583E493FFC3E55B9FE426
:20075200337B0029F582EB3CF5837573028B74C006C00512469EE5828583F0D005D00645E1
:20077200F060218E047F008C828F83A37573028F74C00612469EAC82AF83D006EC4F24FFE5
:2007920092A180060D8D060206F790F007E493FFEEB50702800122EE90F00793FF90F00814
:2007B200E493FDC3EF9DE433FF7D000FBF00010DEE90F00793FCC3E55B9CE4337B002FFF92
:2007D200EB3DFD90F008E493FCC3E55B9CE4337B002FF582EB3DF5837573028B74C00612AF
:2007F200469EE5828583F0D00645F060197F008E828F83A37573028F7412469EAE82AF8397
:20081200EE4F24FF92A1227876B60002800E7876B6010280447876B6024880287877E6B552
:2008320042077878E6B5410122AF427877A607AE417878A6068E728F8212453F753C5A782C
:200852007676022230920BD2C27876A2C2E433F68007AF3C153CEF7009209206787676006F
:20087200C2C2229000C5E0603220022F90F000E493602890F01DE493FF24E8401EE5527005
:200892001A9000C1E0FFE07014E541B54607E543B5450280069000C3E06002C322EF706D80
:2008B200854573F57490003C1245EFE5828583F024D0FE740235F0FFAC467D00EC2EFEED0F
:2008D2003FFF8543738D7490003CC007C0061245EFAC82AD83D006D007EEC39CFEEF9DFF0C
:2008F200AC417D00EEC39CF582EF9DF5837573D075740212469EAE82AF83C3742D9E7480C3
:200912008FF063F08095F040047F0080027F01EF24FF229000C6E0603220022F90F000E478
:2009320093602890F01DE493FF24E8401EE552701A9000C1E0FFE07017E541B54607E54365
:20095200B5450280069000C3E0600553A00FC322EF706D854573F57490003C1245EFE58299
:200972008583F024D0FE740235F0FFAC467D00EC2EFEED3FFF8543738D7490003CC007C0A0
:20099200061245EFAC82AD83D006D007EEC39CFEEF9DFFAC417D00EEC39CF582EF9DF583E6
:2009B2007573D075740212469EAE82AF83C374689E74818FF063F08095F040047F008002DC
:2009D2007F018F4ED322538E7F758900758A24758CFAC28DD28CD2A92243C110B219A21953
:2009F2009287D217E555600215557402B55201220540E54024C45034754000D2180541E59D
:200A12004124C45027C2037541000542E54224E8500F78777618754200E54960021549C2EC
:200A3200040543E54324F4500375430022C027C0E0C0F0C082C083C007C006C005C004C059
:200A520003C002C001C000C0D075D0089000C474FAF0C22E75D0001209EB75D008D0D0D0B7
:200A720000D001D002D003D004D005D006D007D083D082D0F0D0E0D02732C027C0E0C0F023
:200A9200C082C083C007C006C005C004C003C002C001C000C0D075D00843C11010D80302C5
:200AB2000CB88547EA8548FA74A02547F547748C3548F5489000C6E06007A2B6B3920F80A4
:200AD20004A2B6920F20C406201A03020BB0300F0D301005D212020BB0D210020BB020141E
:200AF20003020BA430C4089000C5741EF0800B9000C5E4F09000C67405F09000C1E0FFE0DA
:200B12006008EF149000C1F08036E54E60180546E54624C450107546000545E54524F45061
:200B32001F754500801AE54E70161546E54624C3500E75463B1545E54524F3500375450B03
:200B5200C212C210C21475D00012087553D0E743D0084002C2C475D00012092553D0E74374
:200B7200D0084002C21A90020075D00012024675D0088546289003FE75D00012022B75D0A2
:200B9200088545289003FF75D00012022B75D008800C301204D21480051010028000301BBC
:200BB2000630B503754F02301B0330B5047F0080027F01EF24FF921F201E0330B5047F004B
:200BD20080027F01EF24FF921B201C0A201F03201B047F0080027F01EF24FF921CA2B59251
:200BF2001E30200630B30375500230200330B3047F0080027F01EF24FF922420230330B316
:200C1200047F0080027F01EF24FF922020210A2024032020047F0080027F01EF24FF92215D
:200C3200A2B3922330250630B40375510230250330B4047F0080027F01EF24FF92292028B8
:200C52000330B4047F0080027F01EF24FF922520260A2029032025047F0080027F01EF24D4
:200C7200FF9226A2B492289001B1E014F0E070089001B1740EF0B22A9000C4E0FFE0600E0C
:200C9200EF149000C4F09001B2741CF080189001B2E014F0E0700F9001B2741CF075D00012
:200CB2001209EB75D008D0D0D000D001D002D003D004D005D006D007D083D082D0F0D0E07E
:200CD200D02732C0E0C082C083C0D075D01043C110301A33E5A0540FFFE54A90472C934F43
:200CF200F5A0E54E60067E017F0080047EFF7FFFAF4AEE2FF54A24F75005754A07800874B0
:200D120008B54A03754A00D0D0D083D082D0E032AD82AE83AFF0AC5D8C56C22BAB5C302B98
:200D320003020E2E43C110758280C007C006C005C004C003120481855E82855F838560F0C4
:200D52001204FED003D004D005D006D007301632752DB1752E4A752F8085423085413185F5
:200D72004032A21992017582C0C007C006C005C004C0031205E9D003D004D005D006D007E8
:200D9200806990F002E4937032752DB9752E4A752F80854230854131854032A219920175A9
:200DB20082C0C007C006C005C004C0031205E9D003D004D005D006D0078030752DC1752E27
:200DD2004A752F80854230854131854032A21992017582C0C007C006C005C004C0031205B9
:200DF200E9D003D004D005D006D007E5556003020D308B021BEA60248C558C568D828E83FA
:200E12008FF0C007C006C005C004C0031202E2D003D004D005D006D007020D307582801281
:200E320004DFA22B22900001E06020900004E0701A755ECB755F4A756080755C03755D0127
:200E5200904AC975F080120D22C322904ADC75F0801202E23031067E217F4780047E117FE3
:200E7200F07D808E828F838DF01202E2904AE675F0801202E29000051203CED32290000145
:200E9200E4F0C20C755707755EFD755F4A756080755C0F755D01904AE975F080120D227577
:200EB2005700900001E024FF2285826185836285F0639001317420F0900132744BF0900120
:200ED20033743DF0AB457C0075730A8C748B828C83C004C0031246D4AA82D003D004743088
:200EF2002A900134F075730A7574008B828C8312469EAE8274302E900135F0900136743AE7
:200F1200F0AE467F0075730A8F748E828F83C007C0061246D4AC82D006D00774302C900150
:200F320037F075730A7574008E828F8312469EAE8274302E900138F0900139E4F090013A61
:200F52007420F090013B7454F090013C743DF0AE427F0075730A8F748E828F83C007C006F6
:200F72001246D4AC82D006D00774302C90013DF075730A7574008E828F8312469EAE827433
:200F9200302E90013EF090013F743AF0AE417F0075730A8F748E828F83C007C0061246D476
:200FB200AC82D006D00774302C900140F075730A7574008E828F8312469EAE8274302E902E
:200FD2000141F09001427420F09001437447F09001447450F09001457453F0900146743D59
:200FF200F0A216E433FF90F002E4932F2430900147F0900148E4F078758673F57490001C35
:201012001245EF7573007574011246D4AE829001497420F090014A7444F090014B7448F0E1
:2010320090014C743DF090F000E493243090014DF090014E7420F090014F7442F09001503D
:2010520004F0900151743DF090F001E4932430900152F09001537420F09001547444F09063
:20107200015514F0900156743DF09000C5E060067D317F0080047D307F00900157EDF090AF
:2010920001587420F09001597453F090015A04F090015B743DF09000C6E060067D317F008B
:2010B20080047D307F0090015CEDF090015D7420F090015E7458F090015F7447F0900160FB
:2010D200743DF09000C4E060067D317F0080047D307F00900161EDF09001627420F090010F
:2010F200637452F090016404F0900165743DF0AF4974302F900166F0900167742FF090F088
:2011120003E4932430900168F09001697420F090016A7454F090016B7452F090016C743D75
:20113200F090F004E493FF7D0075730A8D748F828D83C0061246D4AD8274302D90016DF042
:2011520090F004E493FF7D0075730A8D748F828D8312469EAD82D00674302D90016EF090A7
:20117200016F7420F09001707444F090017104F0900172744EF0900173743DF0A2A1E43316
:201192002430900174F09001757420F09001767456F0900177744FF0900178744CF09001A4
:2011B20079743DF07F0075730A8F748E828F83C007C0061246D4AC82D006D00774302C9079
:2011D200017AF075730A7574008E828F8312469EAE8274302E90017BF090017C7420F09080
:2011F200017D744DF090017E7450F090017F7433F0900180743DF090F010E49324309001A6
:2012120081F03032067E207F0080047E007F00900182EEF09001837444F09001847454F0CB
:20123200900185743DF090F01CE4932430900186F0900187E4F0042561FDE43562FEAF6379
:201252008D828E838FF0124682FCBC2A028011C007C006C005120E8FD005D006D007800586
:20127200900001E4F0A2329231C007C006C005120E37D005D006D00740012290478475F012
:2012920080C007C006C0051202E290013175F0001202E290013A75F0001202E290014975E2
:2012B200F0001202E2D005D006D00790F01CE493FCBC0200502130321E904B0E75F080C068
:2012D20007C006C0051202E290F01175F0801202E2D005D006D0078D828E838FF01246820D
:2012F200FDBD2A02803B900001E06035904B1075F0801202E290000175F0001202E2303221
:201312000F900005E07009904B1B75F0801202E2900005E4F0900004F0900003F0900002EB
:20133200F08561828562838563F01202E274012561FDE43562FEAF638D828E838FF0124691
:2013520082FDBD2A09904AC975F0800202E2755E35755F4B756080755C32755D01904AC9A9
:2013720075F080020D22AD82AE83AFF09001887454F0900189743DF0AB427C0075730A8CD3
:20139200748B828C83C007C006C005C004C0031246D4A982D003D00474302990018AF07587
:2013B200730A7574008B828C8312469EAB8274302B90018BF090018C743AF0AB417C007503
:2013D200730A8C748B828C83C004C0031246D4A982D003D00474302990018DF075730A759B
:2013F20074008B828C8312469EAB8274302B90018EF090018F7420F09001907447F0900149
:20141200917450F09001927453F0900193743DF0A216E433FC90F002E4932C24309001946D
:20143200F09001957420F09001967444F090019704F0900198744EF0900199743DF0A2A12C
:20145200E433243090019AF090019BE4F090019C740DF090019D744DF090019E744FF09005
:20147200019F7444F09001A004F09001A1744EF09001A2743DF090F007E49324309001A3AF
:20149200F09001A4E4F0A2339231120E37D005D006D00740012290018875F000C007C00662
:2014B200C0051202E290019C75F0001202E2D005D006D00790F007E49370030216AB904B46
:2014D2004675F080C007C006C0051202E290F007E493FC90F00793FB7A0075733C8A748B51
:2014F200828A83C0041246D4AA82D00474302A90019DF0EC90F00793FB7A007573068A7408
:201512008B828A83C0041246D475730A75740012469EAA82D00474302A90019EF090019FC1
:20153200743AF0EC90F00793FC7B007573068B748C828B8312469EAB8274302B9001A0F062
:201552009001A17430F09001A27420F09001A3742DF090019C75F0001202E290019C7420EE
:20157200F090F008E493FC7B0075733C8B748C828B831246D4AB8274302B90019DF090F0EE
:2015920008E493FC7B007573068B748C828B831246D475730A75740012469EAB8274302B41
:2015B20090019EF090F008E493FC7B007573068B748C828B8312469EAB8274302B9001A058
:2015D200F09001A2E4F090019C75F0001202E2D005D006D0077C0290F007E493FBC3EC9B37
:2015F20040030216C0EC90F00793FB7A0075733C8A748B828A83C007C006C005C004124699
:20161200D4AA82D00474302A90019DF0EC90F00793FB7A007573068A748B828A83C00412A1
:2016320046D475730A75740012469EAA82D00474302A90019EF0EC90F00793FB7A0075735D
:20165200068A748B828A83C00412469EAA82D004D005D006D00774302A9001A0F08C02EAB7
:2016720030E00D90019C7420F09001A2E4F0800C90019C740DF09001A27420F090019C7500
:20169200F000C007C006C005C0041202E2D004D005D006D0070C0215E9904B5375F080C007
:2016B20007C006C0051202E2D005D006D0078D828E838FF01202E2755E68755F4B756080CA
:2016D200755C32755D01904AC975F080020D22900001E4F0D231120E374001229047957566
:2016F200F0801202E2755E79755F4B756080755C32755D01904AC975F080020D2275570057
:20171200755E94755F4B756080755C0F755D02904B8A75F080120D2250637402B5585E9079
:20173200011BE024D075F00AA4FF90011CE02F24D0F542AE427F0075730C8F748E828F8326
:2017520012469EAE828E4390011EE024D075F00AA4FF90011FE02F24D0F541900121E0244C
:20177200D075F00AA4FF900122E02F24D0F54085411E85401F8542821201C5D322C3227F48
:2017920000755E84755F47756080755C0F755D01904BA575F080C007120D22D00740030234
:2017B20019AE755EB3755F4B756080755C0F755D01904BA975F080C007120D22D007400318
:2017D2000219AE90F002E49370030219AE755ECF755F4B756080755C0F755D01904BC4751C
:2017F200F080C007120D22D00740030219AE755EEB755F4B756080755C0F755D01904BE0DC
:2018120075F080C007120D22D00740030219AE755706755E08755F4C756080755C0F755D12
:2018320002904BFD75F080C007120D22D00740030219AE7401B5580280030219AE7E007D21
:2018520000ED2412F582E43401F5830DE0FCBC2C060EBE0300500ABD0B00500543C110809A
:20187200E0EE24FD40030219AE8D060EEE3395E0FCEE2412F582EC3401F583E0FEBE2C1517
:20189200ED04FEED2412F582E43401F583E0FC24D0F5428029ED04FCED2412F582E43401CC
:2018B200F583E024D075F00AA4FDEC04FEEC2412F582E43401F583E0FC24D02DF5420E8ED2
:2018D200050DED3395E0FCED2412F582EC3401F583E0FDBD2C15EE04FDEE2412F582E434A3
:2018F20001F583E0FC24D0F5418029EE04FCEE2412F582E43401F583E024D075F00AA4FEAF
:20191200EC04FDEC2412F582E43401F583E0FC24D02EF541ED04FEFD0DED3395E0FCED24CF
:2019320012F582EC3401F583E0FDBD2C12EE2412F582E43401F583E0FD24D0F5408026EED5
:2019520004FDEE2412F582E43401F583E024D075F00AA4FEED2412F582E43401F583E0FD5B
:2019720024D02EF540AD427E0074072DFDE43EFEC374179D74808EF063F08095F05007E5DB
:201992004224EFFE8006AD4274072DFE8E4285411E85401F8542821201C57F01EF24FF92EA
:2019B200167557002220A002C322755E25755F4C756080755C0F755D02904C1A75F080125C
:2019D2000D225036755E49755F4C756080755C0F755D01904C3675F080120D22501C755E85
:2019F2006E755F4C756080755C0F755D01904C5A75F080120D225002D322C322C027C0E030
:201A1200C0F0C082C083C007C006C005C004C003C002C001C000C0D075D01020980302259C
:201A3200E943C110855655E5592403FEE43401FF8E828F83E599F0E55724F850030225DCAE
:201A5200E557240B83F582E557240C83F583E47372CDCD0CDC23FB8A1A21212225231F24AC
:201A72008E828F83E0FDBD22028003021C37AC597D00740C2CF582E43DF58375730D8D7468
:201A9200C017C016C015C01475D00012469E75D010AA82AB83D014D015D016D017EA24034D
:201AB200F582EB3401F583E0FBBB20028003021C37740B2CF582E43DF58375730D757400DC
:201AD200C017C016C015C01475D00012469E75D010AA82AB83D014D015D016D017EA24030D
:201AF200F582EB3401F583E0FBBB3A028003021C37740A2CF582E43DF58375730D75740083
:201B1200C017C016C015C01475D00012469E75D010AA82AB83D014D015D016D017EA2403CC
:201B3200F582EB3401F583E0FBBB4B028003021C3774092CF582E43DF58375730D75740032
:201B5200C017C016C015C01475D00012469E75D010AA82AB83D014D015D016D017EA24038C
:201B7200F582EB3401F583E0FBBB4C028003021C3774082CF582E43DF58375730D757400F2
:201B9200C017C016C015C01475D00012469E75D010AA82AB83D014D015D016D017EA24034C
:201BB200F582EB3401F583E0FBBB43028003021C3774072CF582E43DF58375730D757400BC
:201BD200C017C016C015C01475D00012469E75D010AA82AB83D014D015D016D017EA24030C
:201BF200F582EB3401F583E0FBBB433974062CF582E43DF58375730D757400C017C01675FC
:201C1200D00012469E75D010AC82AD83D016D017EC2403F582ED3401F583E0FDBD2B067508
:201C320057020225DC8E828F83E0FDBD3A028003021D88AC597D00740C2CF582E43DF583D6
:201C520075730D8D74C017C016C015C01475D00012469E75D010AA82AB83D014D015D0168D
:201C7200D017EA2403F582EB3401F583E0FBBB49028003021D88740B2CF582E43DF5837510
:201C9200730D757400C017C016C015C01475D00012469E75D010AA82AB83D014D015D016DA
:201CB200D017EA2403F582EB3401F583E0FBBB54028003021D88740A2CF582E43DF58375C6
:201CD200730D757400C017C016C015C01475D00012469E75D010AA82AB83D014D015D0169A
:201CF200D017EA2403F582EB3401F583E0FBBB4D028003021D8874092CF582E43DF583758E
:201D1200730D757400C017C016C015C01475D00012469E75D010AA82AB83D014D015D01659
:201D3200D017EA2403F582EB3401F583E0FBBB434574082CF582E43DF58375730D757400D6
:201D5200C017C01675D00012469E75D010AC82AD83D016D017EC2403F582ED3401F583E005
:201D7200FDBD2B12904C8075F08075D0001202E275D0100225DC8E828F83E0FDBD20028028
:201D920003021F1BAC597D00740C2CF582E43DF58375730D8D74C017C016C015C01475D023
:201DB2000012469E75D010AA82AB83D014D015D016D017EA2403F582EB3401F583E0FBBB20
:201DD2003A028003021F1B740B2CF582E43DF58375730D757400C017C016C015C01475D0C2
:201DF2000012469E75D010AA82AB83D014D015D016D017EA2403F582EB3401F583E0FBBBE0
:201E12004C028003021F1B740A2CF582E43DF58375730D757400C017C016C015C01475D070
:201E32000012469E75D010AA82AB83D014D015D016D017EA2403F582EB3401F583E0FBBB9F
:201E520047028003021F1B74092CF582E43DF58375730D757400C017C016C015C01475D036
:201E72000012469E75D010AA82AB83D014D015D016D017EA2403F582EB3401F583E0FBBB5F
:201E92004D028003021F1B74082CF582E43DF58375730D757400C017C016C015C01475D0F1
:201EB2000012469E75D010AA82AB83D014D015D016D017EA2403F582EB3401F583E0FBBB1F
:201ED200434774072CF582E43DF58375730D757400C017C01675D00012469E75D010AC8266
:201EF200AD83D016D017EC2403F582ED3401F583E0FDBD2B14300B030225DC053DC209C2C6
:201F120007C2067557030225DC8E828F83E0FDBD4B59AC597D00740C2CF582E43DF58375FB
:201F3200730D8D74C017C01675D00012469E75D010AC82AD83D016D017EC2403F582ED34FB
:201F520001F583E0FDBD4F23A22CB3922BC22CE53E70030225DC753E00904C5A75F08075E2
:201F7200D0001202E275D0100225DC8E828F83E0FDBD540280030225DCAC597D00740C2C6B
:201F9200F582E43DF58375730D8D74C015C01475D00012469E75D010AA82AB83D014D015CD
:201FB200EA2403F582EB3401F583E0FBBB4F0280030225DC740B2CF582E43DF58375730DD2
:201FD20075740075D00012469E75D010AC82AD83EC2403F582ED3401F583E0FDBD4E02808A
:201FF200030225DCD22C0225DC8E828F83E0FDBD200280030225DCAC597D00740C2CF582BF
:20201200E43DF58375730D8D74C015C01475D00012469E75D010AA82AB83D014D015EA24B5
:2020320003F582EB3401F583E0FBBB3A0280030225DC740B2CF582E43DF58375730D75748B
:2020520000C015C01475D00012469E75D010AA82AB83D014D015EA2403F582EB3401F583F2
:20207200E0FBBB5A0280030225DC740A2CF582E43DF58375730D757400C015C01475D00050
:2020920012469E75D010AA82AB83D014D015EA2403F582EB3401F583E0FBBB54028003022F
:2020B20025DC74092CF582E43DF58375730D757400C015C01475D00012469E75D010AA8211
:2020D200AB83D014D015EA2403F582EB3401F583E0FBBB540280030225DC74082CF582E462
:2020F2003DF58375730D757400C015C01475D00012469E75D010AA82AB83D014D015EA24D1
:2021120003F582EB3401F583E0FBBB550280030225DC74072CF582E43DF58375730D757493
:2021320000C015C01475D00012469E75D010AA82AB83D014D015EA2403F582EB3401F58311
:20215200E0FBBB530280030225DC74062CF582E43DF58375730D757400C015C01475D0007A
:2021720012469E75D010AA82AB83D014D015EA2403F582EB3401F583E0FBBB500280030252
:2021920025DC8C828D83A3A3A3A3A375730D75740075D00012469E75D010AC82AD83EC2403
:2021B20003F582ED3401F583E0FDBD2A0280030225DC755A007557010225DC740DB599023D
:2021D200801A74E2255A4014AD5A055AED2412F582E43401F583E599F00225DCAD5A1DED17
:2021F2003395E0FCED2412F582EC3401F583E4F0855758F557D22B0225DC30095DE53E7079
:2022120010740DB5990280030225DC7557050225DC740AB53E0B7422B59906753E00022531
:20223200DC20060EE53E90472193FDB599028002D20630080F20070EE53E90F01193FDB5B2
:2022520099028002D207053E2006030225DC2007030225DC7557000225DC8E828F83E0FD0C
:20227200BD34028003022313AC597D00740C2CF582E43DF58375730D8D74C015C01475D07C
:202292000012469E75D010AA82AB83D014D015EA2403F582EB3401F583E0FBBB3863740BEE
:2022B2002CF582E43DF58375730D757400C015C01475D00012469E75D010AA82AB83D0147B
:2022D200D015EA2403F582EB3401F583E0FBBB2B30740A2CF582E43DF58375730D7574005E
:2022F20075D00012469E75D010AC82AD83EC2403F582ED3401F583E0FDBD2205D209753E6B
:2023120001740DB5990280030225DC7557000225DC300A35743BB599028021740DB59902A4
:20233200801A7460253E4014AD3E053EED2401F582E43400F583E599F00225DC753E00C239
:202352000A755700D20B0225DC8E828F83E0FDBD2C02800302246FAC597D00740C2CF5820E
:20237200E43DF58375730D8D74C015C01475D00012469E75D010AA82AB83D014D015EA2452
:2023920003F582EB3401F583E0FBBB4302800302246F740B2CF582E43DF58375730D75748D
:2023B20000C015C01475D00012469E75D010AA82AB83D014D015EA2403F582EB3401F5838F
:2023D200E0FBBB5502800302246F740A2CF582E43DF58375730D757400C015C01475D00060
:2023F20012469E75D010AA82AB83D014D015EA2403F582EB3401F583E0FBBB446074092C5A
:20241200F582E43DF58375730D757400C015C01475D00012469E75D010AA82AB83D014D075
:2024320015EA2403F582EB3401F583E0FBBB502D74082CF582E43DF58375730D7574007537
:20245200D00012469E75D010AC82AD83EC2403F582ED3401F583E0FDBD2A0280047D008086
:20247200027D01ED24FF920A740DB5990280030225DC7557000225DC300C3B7420B599029D
:20249200801A7460253E4014AD3E053EED2401F582E43400F583E599F00225DCC20CC20EAF
:2024B200E53E2401F582E43400F583E4F0F53EF557D22B0225DC8E828F83E0FEBE3D0280EB
:2024D200030225DCAE597F00740C2EF582E43FF58375730D8F74C017C01675D00012469EBE
:2024F20075D010AC82AD83D016D017EC2403F582ED3401F583E0FDBD680280030225DC7428
:202512000B2EF582E43FF58375730D757400C017C01675D00012469E75D010AC82AD83D015
:2025320016D017EC2403F582ED3401F583E0FDBD6E0280030225DC740A2EF582E43FF5831A
:2025520075730D757400C017C01675D00012469E75D010AC82AD83D016D017EC2403F58299
:20257200ED3401F583E0FDBD696074092EF582E43FF58375730D757400C017C01675D000BF
:2025920012469E75D010AC82AD83D016D017EC2403F582ED3401F583E0FDBD682D74082EB6
:2025B200F582E43FF58375730D75740075D00012469E75D010AE82AF83EE2403F582EF3478
:2025D20001F583E0FFBF6302D20C0559E55924F35003755900C298D0D0D000D001D002D07E
:2025F20003D004D005D006D007D083D082D0F0D0E0D02732C20D900001E0FFBF3F0280086B
:20261200900002E0FFBF3F062006030216E1900002E0FFBF4103022D77BF4303022B64BFA2
:202632004503022E04BF4802803EBF50030231E6BF5303022C26BF540302331ABF61030227
:202652002D77BF6303022B64BF6503022E04BF68028015BF70030231E6BF7303022C26BF62
:20267200740302331A02366E900004E0FFBF2B02800302283B900005E0FEC3742F9EE43307
:20269200FD70030227C7BE330040030227C7900006E0FC24D040030227C7BC3A00400302D0
:2026B20027C7900007E0FB24D040030227C7BB360040030227C7900008E0F56824D0400351
:2026D2000227C774C6256850030227C790000AE0F56424D040030227C774CD2564500302D5
:2026F20027C790000BE0F56524D040030227C774C6256550030227C790000CE0F56624D00C
:2027120040030227C774CA256650030227C790000DE0F56724D040030227C774C625675052
:20273200030227C78E0274022AF569AA64C39A75F00AA42404F56925422CAC65C39CFAAC59
:202752006674062CC39B75F00AA42567AB68C39BFC8A6A756B00AA417B00743C2AF56CE498
:202772003BF56D8C027B00C3E56C9AE56D64808BF063F08095F0E433FA7B00E56AC39AF5BD
:2027920082E56B9BF58375730C8B74C00412469EAA82D0048A45AB4174782BC39CFB7C00ED
:2027B20075733C8C748B828C8312469EAB82AC838B46022B03ED606CBE360050679000067A
:2027D200E0FD24D0505EBD3A005059EE24D075F00AA42D24D0FEAD45740C2DFDC3E5469E8C
:2027F200E433FCEDC39CFD7C0075730C8C748D828C83C00612469EAC82D0068C45AC467DDD
:2028120000743C2CFCE43DFD7B00ECC39EF582ED9BF58375733C8B7412469EAD82AE838D6B
:2028320046022B03D20D022B03BF2D44900005E0FE24D05036BE36005031900006E0FD24D8
:20285200D05028BD3A005023EE24D075F00AA4AC462CFE2D24D0F54624C44003022B0305E7
:2028720045E546FE24C4F546022B03D20D022B03900005E0FEBE4E028003BE6E21300603EC
:2028920002369412025E9000A37401F012029978767600787776187878763C022B03BE46EC
:2028B200028003BE661630060302369412025E9000A3E4F0120299C2C2022B03BF2C0280FB
:2028D20003022996BE6702800DBE47028008BE61028003BE4116C2C27876760012170F9274
:2028F20016787776187878763C022B03EE24D04003022991BE33004003022991900006E01A
:20291200FD24D0507ABD3A005075900007E0FC24D0506CBC36005067900008E0FB24D050AB
:202932005EBB3A0050598E02EA24D075F00AA4FA2D24D0FDBD18005041C2C2787676008D15
:2029520042EC24D075F00AA42B24D0F541AC427D0075730C8D748C828D8312469EAC828CAD
:202972004385411E85401F8542821201C5C216787776187878763C022B03D20D022B03D211
:202992000D022B03EF24D04003022B01BF33004003022B01EE24D04003022B01BE3A0040A6
:2029B20003022B01900006E0FD24D04003022B01BD36004003022B01900007E0FC24D040F1
:2029D20003022B01BC3A004003022B017B00EF24D0F573EB34FFF57490000AC006C005C01B
:2029F200041245EFAB82AF83D004D005D0067A00EE2BFBEA3FFFEB24D0F582EF34FFF583F7
:202A120075730C8A74C005C00412469EAE82D004D0058E45ED24D075F00AA42C24D0F54638
:202A3200900009E0FFBF6702800DBF47028008BF61028003BF412A90F002E4937003022B5F
:202A52000312170F921690F010E4937003022B03C2C278767600787776187878763C022BA3
:202A720003EF24D04003022B03BF33004003022B0390000AE0FE24D05077BE3A0050729009
:202A9200000BE0FD24D05069BD3600506490000CE0FC24D0505BBC3A005056EF24D075F0ED
:202AB2000AA42E24D0FFBF18005040C2C2787676008F42ED24D075F00AA42C24D0F541AE1D
:202AD200427F0075730C8F748E828F8312469EAE828E4385411E85401F8542821201C578B2
:202AF2007776187878763CC2168006D20D8002D20D300D2A30070ED232904C8F75F080126D
:202B12000EBB023694D232904CA275F080120EBBC232904C8F75F080120EBB0236941209C6
:202B320025921A12087592C430070ED232904CC875F080120EBB023694D232904CE275F02D
:202B520080120EBBC232904CC875F080120EBB023694900005E0FFBF65028003BF452A3069
:202B7200070ED233904D0F75F080121378023694D233904D2775F080121378C233904D0F83
:202B920075F080121378023694BF6E028003BF4E0E12025E9000A47401F0120299804BBFC6
:202BB20066028003BF460D12025E9000A4E4F01202998036900003E06030900004E0602A28
:202BD20030070ED232904C8F75F080120EBB023694D232904CA275F080120EBBC232904C91
:202BF2008F75F080120EBB02369430070ED232904D5275F080120EBB023694D232904D665D
:202C120075F080120EBBC232904D5275F080120EBB023694900005E0FFBF7902800DBF59E0
:202C3200028008BF44028003BF642A30070DD232904D8D75F080120EBB8016D232904DAA90
:202C520075F080120EBBC232904D8D75F080120EBBC2AF80FEBF67028008BF470280030258
:202C72002D1A900009E0FE24D05073BE3A00506E12025E900009E024D0FE9000A6F08E493D
:202C920090000BE0FE24D05028BE3300502390000CE0FD24D0501ABD3A005015EE24D0754F
:202CB200F00AA42D24D0FEBE180050059000A7EEF012029930070ED232904DDA75F0801261
:202CD2000EBB023694D232904DF975F080120EBBC232904DDA75F080120EBB023694300745
:202CF2000ED232904E2B75F080120EBB023694D232904E4C75F080120EBBC232904E2B75BB
:202D1200F080120EBB023694BF69028003BF492B30070DD232904E8075F080120EBB8016AE
:202D3200D232904EA275F080120EBBC232904E8075F080120EBBC2A002369430070ED232B4
:202D5200904ED775F080120EBB023694D232904EF075F080120EBBC232904ED775F08012EE
:202D72000EBB023694900005E0FF24CF505ABF3A005055900007E0FF24CF504CBF3A0050AF
:202D92004712025E900005E024D0C454F0FF900007E024D042079000A9EFF0120299300748
:202DB2000ED232904F1C75F080120EBB023694D232904F4275F080120EBBC232904F1C751F
:202DD200F080120EBB02369430070ED232904F7B75F080120EBB023694D232904F9875F0BB
:202DF20080120EBBC232904F7B75F080120EBB023694900005E0FFBF58028003BF783512FE
:202E1200025E9000AAE4F012029930070ED233904FC875F080121378023694D233904FE37F
:202E320075F080121378C233904FC875F08012137802369412025E1202999000AAE4F09057
:202E520001A57404F09001A5E0FF2401F582E43400F583E0FE24D0400302316CBE3300402C
:202E72000302316C8F057F0074012DFBE43FFCEB2401F582EC3400F583E0FC24D04003029B
:202E9200316C74012DFBE43FFCEB2401F582EC3400F583E0FCBC3A00400302316C74022D51
:202EB200FBE43FFCEB2401F582EC3400F583E0FC24D0400302316C74022DFBE43FFCEB2449
:202ED20001F582EC3400F583E0FCBC3600400302316C74032DFBE43FFCEB2401F582EC34BB
:202EF20000F583E0FC24D0400302316C74032DFBE43FFCEB2401F582EC3400F583E0FCBC21
:202F12003A00400302316C74052DFBE43FFCEB2401F582EC3400F583E0FC24D0400302315E
:202F32006C74052DFBE43FFCEB2401F582EC3400F583E0FCBC3300400302316C74062DFBE5
:202F5200E43FFCEB2401F582EC3400F583E0FC24D0400302316C74062DFBE43FFCEB24019E
:202F7200F582EC3400F583E0FCBC3A00400302316C74072DFBE43FFCEB2401F582EC340013
:202F9200F583E0FC24D0400302316C74072DFBE43FFCEB2401F582EC3400F583E0FCBC3646
:202FB20000400302316C74082DFBE43FFCEB2401F582EC3400F583E0FC24D0400302316C89
:202FD20074082DFBE43FFCEB2401F582EC3400F583E0FCBC3A00400302316C8E737574005F
:202FF20090000AC007C006C0051245EFAB82AC83D005D006D007C00674012DFAE43FFEEA42
:203012002401F582EE3400F583E07A002BFBEA3CFCC3EB9428EC64809482D006400302312A
:203032006CC00674052DFBE43FFCEB2401F582EC3400F583E0FC8C7375740090000AC00748
:20305200C006C0051245EFAB82AC83D005D006D00774062DFAE43FFEEA2401F582EE340045
:20307200F583E07A002BFBEA3CFCC3EB9428EC64809482D006400302316CED24FCF582EFA9
:2030920034FFF583757305757400C007C006C0051246D4AB82D005D006D00774082BFC339A
:2030B20095E0FAEC24A3F56AEA3400F56BEE24D075F00AA4F56C74012DFCE43FFEEC2401D9
:2030D200F582EE3400F583E0256C24D075F006A4FE74022DFAE43FFCEA2401F582EC3400F9
:2030F200F583E02E24D0856A82856B83F074092BFB3395E0FEEB24A3FBEE3400FE74052DB4
:20311200FAE43FFCEA2401F582EC3400F583E024D075F00AA4F56C74062DFAE43FFCEA2450
:2031320001F582EC3400F583E0256C24D075F006A4FC74072DFDE43FFFED2401F582EF348A
:2031520000F583E02C24D08B828E83F09000AAE0FF0F0F9000AAEFF080069001A5744BF01C
:203172009001A5E0240AF0E0FFBF4B005003022E579000AAE0603390000012024612029902
:2031920030070ED23390501175F080121378023694D23390503175F080121378C233905027
:2031B2001175F08012137802369430070ED23290506475F080120EBB023694D2329050861B
:2031D20075F080120EBBC23290506475F080120EBB02369430060302369490F010E49370DD
:2031F2000ED2329050BB75F080120EBB023694900006E0FFBF54028003BF7410C2C2D232AC
:203212009050D075F080120EBB023694BF4E028003BF6E2F90F010E493FEBE011812025E24
:203232009000B37402F012029978767600787776187878763CD2329050DA75F080120EBB25
:20325200023694BF46028003BF662590F010E493FEBE020EC2C212025E9000B37401F01239
:203272000299D2329050E375F080120EBB023694900005E0FE24D0400302330CBE33005022
:2032920079EF24D05074BF3A00506F900007E0FD24D05066BD36005061900008E0FC24D01A
:2032B2005058BC3A005053209242D2C2EE24D075F00AA42F24D0F582ED24D075F00AA42C84
:2032D20024D0F57212453F9005DC1203CE30920ED2329050EC75F080120EBB023694D23267
:2032F20090510175F080120EBB023694D23290512375F080120EBB023694D2329051497517
:20331200F080120EBB023694300603023663900004E0FFBF47028003BF671D12025E90006D
:20333200A57401F0120299121791D23290516075F080120EBB023663BF41028003BF611BAA
:2033520012025E9000A5E4F0120299C216D23290516975F080120EBB023663BF2B02800343
:203372000234A9900005E0FEBE380280030234A9900006E0FEBE340280030234A99000072E
:20339200E0FEBE3000500302349BEE24C6500302349B900008E0FEBE3000500302349BEEB9
:2033B20024C6500302349B900009E0FEBE3000500302349BEE24C6500302349B90000AE0EE
:2033D200FEBE3000500302349BEE24C6500302349B90000BE0FEBE3000500302349BEE2432
:2033F200C6500302349B90000CE0FEBE3000500302349BEE24C6500302349B90000DE0FECE
:20341200BE3000500302349BEE24C6500302349B90000EE0FEBE3000406FEE24C6406A9061
:20343200000FE0FEBE30004060EE24C6405B12025E9000B4E4F07E018E0574112DFD339579
:20345200E0FCED24A3FDEC3400FC8E027B0074062AFAE43BFBEA2401F582EB3400F583E0F1
:203472008D828C83F00EBE0A0040CD9000BFE0FEBE02059000BFE4F0120299D23290517230
:2034920075F080120EBB023663D23290519075F080120EBB023663BF300280030235C390F1
:2034B2000005E0FEBE300050030235B5EE24C650030235B5900006E0FEBE300050030235E7
:2034D200B5EE24C650030235B5900007E0FEBE300050030235B5EE24C650030235B59000C5
:2034F20008E0FEBE300050030235B5EE24C650030235B5900009E0FEBE300050030235B5EC
:20351200EE24C650030235B590000AE0FEBE300050030235B5EE24C650030235B590000B2B
:20353200E0FEBE300050030235B5EE24C6407490000CE0FEBE3000406AEE24C640659000C3
:203552000DE0FEBE3000405BEE24C6405612025E7E008E0574112DFD3395E0FCED24A3FDF0
:20357200EC3400FC8E027B0074032AFAE43BFBEA2401F582EB3400F583E08D828C83F00E44
:20359200BE0A0040CD9000BFE0FEBE02059000BFE4F0120299D23290517275F080120EBB6B
:2035B200023663D23290519075F080120EBB023663BF78028003BF581A12025E9000BF746C
:2035D20002F0120299D2329051B575F080120EBB02366390F01CE493FFBF0224900005E0D9
:2035F200FFBF6E02800DBF4E028008BF66028003BF465ED2329051C475F080120EBB805120
:20361200900005E0FFBF4E028003BF6E1912025E9000BF7401F0120299D2329051F675F039
:2036320080120EBB802BBF46028003BF661812025E9000BFE4F0120299D23290520575F019
:2036520080120EBB800BD23290521475F080120EBB90F01CE493FF139208802630070DD23D
:203672003290523175F080120EBB8016D23290524475F080120EBBC23290523175F08012B5
:203692000EBB43C1107F00EF2401FDE43400FE8D828E83E0600FEF2401F582E43400F5830B
:2036B2000FE4F080E2227F008F6E8F937594FF8F928F918F957596FF8FB28FB175B302755C
:2036D200B41C8FCA8FC98FC075B0FF8FA0759D088F978FBD75BC83D2ADD2AF9000C474FAB3
:2036F200F09000C5741EF09000C6740AF09000A2F0755102755002754F0275520575530121
:20371200C0071209D812025ED0079000A3E024FE50069000A37401F09000A4E024FE5005E6
:203732009000A4E4F09000A5E024FE50069000A57401F09000A6E024F650069000A6740117
:20375200F09000A7E024E850059000A7E4F09000A9E0FDC4540FFC7B001CBCFF011BC37406
:20377200089C74808BF063F08095F0500A740F5D4450FD9000A9F09000A9E0FD53050F7CDF
:20379200001DBDFF011CC374089D74808CF063F08095F0500F9000A9E0FD74F05D4401FD05
:2037B2009000A9F09001A67401F09000AAE0FDBD0900502EED20E02A7C01C3ED9C401E8C0D
:2037D2000374072BFB3395E0FAEB24A3F582EA3400F583E0FBBB900050030C80DD9001A6B9
:2037F200ECF09001A6E0FCC3ED9C40129000AA7402F09000AB7424F09000AC746CF090012A
:20381200A6E4F09000BFE0FDBD020050479000BEE07041FDBD0A0050368D0474112CFB3301
:2038320095E0FAEB24A3F582EA3400F583E0FBBB3000401B74112CFC3395E0FBEC24A3F52F
:2038520082EB3400F583E0FC24C640030D80C59001A6EDF09001A6E0FDBD0A00500B900008
:20387200BEE4F09000BF7402F09000C0E0FD24E750059000C0E4F03092079000B3E4F080DE
:20389200129000B3E0FD6005ED24FD50069000B37402F0C007120299D00790F3FEE493FD32
:2038B20024C4400A90F3FFE493FD24F4501E900200C0071202467528009003FE12022B75B3
:2038D20028009003FF12022BD007800E90F3FEE493F54690F3FFE493F545D2A2C0071202C3
:2038F200CAD00790F010E4936013C007124529D00778767600787776187878763CD2039095
:20391200F003E493F54975FA0075EA007547A075488C75DA49D2DEC00712056875184175A9
:203932001900751A40751B40751C00751D4090004275F040120135D007E54224E8400CE560
:203952004124C44006E54024C45010751E00751F00758200C0071201C5D007C0071200EE1E
:20397200D2A8D288751841751900751A40751B40751C00751D4090004275F0401201351232
:203992001791D007E54224F45007E54224F4FD8002AD428D4390F01CE49313920875BC8B07
:2039B200C0071219B7D0075021D23290526A75F080C007120EBBD00730080FC23290526ACF
:2039D20075F080C007120EBBD00790F005E4937015755405C00712025E9000A874FFF01242
:2039F2000299D007800375543C75C16590F3FEE493B5460B90F3FFE493FDB54502801C9004
:203A12000200C0071202468546289003FE12022B8545289003FF12022BD007E5546004E592
:203A320052701B755200201A09C007120925921AD00720C409C00712087592C4D00720175C
:203A520003023AE720A0169000A2E014F0E0700D75BC83D2A09000A2741EF0D2059000C3E1
:203A7200E0FDE0600C9000C1E07006ED149000C3F09000C3E070219000C2E0FDE060199044
:203A920000C1EDF09000C37405F0C007120925921A12087592C4D00730C40E9000C5E0FD17
:203AB200E06006ED149000C5F0301A0E9000C6E0FDE06006ED149000C6F0E554600C90F02B
:203AD20010E49360032092021554E54F6005301F02154FC21790F01DE493FDBD180050224E
:203AF200C0071206D2D007E552701790F000E493601090F010E493FDBD0207C00712081943
:203B1200D00790F003E4936038E549703490F004E493FDB5422BE54124FA5025201A222009
:203B3200C41F90F010E4936003209215C2AF75280090000512022BD2A39007D01203CE803E
:203B5200FE9000C4E07026202E23D22ED23290528C75F080C007120EBBD00730080FC2320F
:203B720090528C75F080C007120EBBD0079000C5E070329000C6E0702C202F29D22FC2C4BF
:203B9200A2C4921AD2329052A975F080C007120EBBD00730080FC2329052A975F080C007A2
:203BB200120EBBD00720037374FB2541406D20161090F002E4936009C007121791D00780A9
:203BD2001F751841751900751A40751B40751C00751D4090004275F040C007120135D007F9
:203BF200E54224F45007E54224F4FD8002AD428D4390F001E4936021D2329052C075F0809C
:203C1200C007120EBBD00730080FC2329052C075F080C007120EBBD007D203E55224FA5064
:203C320003024461E55275F003A4903C4073023C52023F490240B902441A0242A2023DA8C4
:203C520030054975BC8BC205755700C007121791AC427D0075730C8D748C828D8312469E90
:203C7200AC828C431219B7D0075021D2329052D175F080C007120EBBD00730080FC232902B
:203C920052D175F080C007120EBBD007300B14C007122606904C5A75F0801202E2D007C293
:203CB2000B8020752DEE752E52752F80854530854631854032A2199201758280C00712050E
:203CD200E9D007301622752DB1752E4A752F80854230854131854032A21992017582C0C09C
:203CF200071205E9D007804990F002E4936022752DC1752E4A752F80854230854131854069
:203D120032A21992017582C0C0071205E9D0078020752DB9752E4A752F80854230854131C2
:203D3200854032A21992017582C0C0071205E9D007E54F6003024467C21C75543C9000C25E
:203D5200E4F09000C1F09000C3F0755205755301C2C4A2C4921AC2C2787676001021028031
:203D72000302446730081DD2329052F675F080C007120EBBC23290530A75F080120EBBD058
:203D920007024467D23290530A75F080C007120EBBD007024467101C02801E75543C055338
:203DB2007404B5530990F010E49370020553E55324FB5003755300C22A10260280087554B0
:203DD2003C755300C22A102103023EEB75543C855352755300C007120925921A12087592B7
:203DF200C4D007E5527003024467758280C007120481E55275F010A42434FC744735F0FD69
:203E12007B808C828D838BF01204FED0077401B5520280197402B5520280357403B5520246
:203E320080787404B55203023EC5024467752DEE752E52752F80854530854631753200A25C
:203E52001992017582C0C0071205E9D0070244673016067CB17D4A801F90F002E493600B5F
:203E7200756FC175704A7571808009756FB975704A757180AC6FAD708C2D8D2E752F8085E6
:203E92004230854131854032A21992017582C01205E9AF4285416E02446790532075F080F1
:203EB200C0071204FE7529007582C01203FBD007024467752D32752E53752F807530007524
:203ED2003100753200A21992017582C01205E9D2C2756E007F000244673016067CB17D4A10
:203EF200801990F002E49360087AC17B4A7E8080067AB97B4A7E808A048B058C2D8D2E7535
:203F12002F80854230854131855432A21992017582C0C0071205E9E55375F010A42434FD75
:203F3200744735F0FE8D2A8E2B752C8075828012040BD007024467AE5374072EFEAC537DC0
:203F5200007573028D748C828D83C007C0061246D4AC82D006EC2EF5297582C01203FBD0BA
:203F72000710260302405B75543CE55324FC500302403BE55375F003A4903F8F73023F9B34
:203F9200023FC7023FFD024015E54524F2501DAD457E0075730A8E748D828E83C007124622
:203FB2009EAD82AE83D0078D4502403BAE45740A2EF5458074E54524E950057545148069BB
:203FD200AD457E0075730A8E748D828E83C00712469EAD82AE83D007BD090CBE0009E54594
:203FF200FE24F7F54580420545803EE54624CE5009E546FE24CEF546802FAE46740A2EF582
:204012004680260546AD467E0075730A8E748D828E83C00712469EE5828583F0D00745F0AA
:204032007007E546FE24F6F546752DEE752E52752F80854530854631753200A21992017570
:2040520082C0C0071205E9D007102102800975543CE55360021553101C0302446775543CCA
:204072000553E55324FC4003024467C0071204D9855253755205AD457E0075730C8E748DEF
:20409200828E8312469EAD828D459002001202468546289003FE12022B8545289003FF123F
:2040B200022BD007024467AE5374072EFEAC537D007573028D748C828D83C007C00612462B
:2040D200D4AC82D006EC2EF5297582C01203FBD00790F002E4936055E54F705185525375DE
:2040F2005205787776187878763C20161090F002E4936009C007121791D007801F751841CB
:20411200751900751A40751B40751C00751D4090004275F040C007120135D007E54224F461
:204132005007E54224F4FE8002AE428E4310260302423B75543CE55324FC50030241FCE50A
:204152005375F003A490415B7302416702418C0241BE0241D6EF24F250188F057E00757355
:204172000A8E748D828E8312469EAD82AE838D0780788F06740A2EFF8070EF24E950047F20
:204192001480678F057E0075730A8E748D828E83C00712469EAD82AE83D007BD090BBE0069
:2041B200088F06EE24F7FF80410F803EE56E24CE5009E56EFE24CEF56E802FAE6E740A2EFF
:2041D200F56E8026056EAD6E7E0075730A8E748D828E83C00712469EE5828583F0D007456C
:2041F200F07007E56EFE24F6F56E3016067DB17E4A801990F002E49360087AC17B4A7C8040
:2042120080067AB97B4A7C808A058B068D2D8E2E752F808F30856E31855432A219920175A7
:2042320082C0C0071205E9D007102102800975543CE55360021553101C0302446775543CE8
:204252000553E55324FC4003024467C0071204D9D0078552537552058F42856E4185411E40
:2042720085401F854282C0071201C5AD427E0075730C8E748D828E8312469EAD82AE83D0B7
:20429200078D43C216787776187878763C024467AE5374072EFEAC537D007573028D748CF6
:2042B200828D83C007C0061246D4AC82D006EC2EF5297582C01203FBD007E54F7008855244
:2042D20053755205C2C21026030243B475543CE55324FC5003024395E55375F003A4904257
:2042F200F47302430002432502435702436FEF24F250188F057E0075730A8E748D828E83B3
:2043120012469EAD82AE838D0780788F06740A2EFF8070EF24E950047F1480678F057E009D
:2043320075730A8E748D828E83C00712469EAD82AE83D007BD090BBE00088F06EE24F7FF2F
:2043520080410F803EE56E24CE5009E56EFE24CEF56E802FAE6E740A2EF56E8026056EADD9
:204372006E7E0075730A8E748D828E83C00712469EE5828583F0D00745F07007E56EFE2417
:20439200F6F56E752D32752E53752F808F30856E31753200A21992017582C0C0071205E96E
:2043B200D007102102800975543CE55360021553101C0302446775543C0553E55324FC4080
:2043D20003024467755300856E728F82C00712453F9000641203CED0073092067D3A7E5382
:2043F20080047D427E538D2D8E2E752F808F30856E31753200A21992017582C0C007120590
:20441200E91204D9D007804D101C02801FAE530E9000C2EEF09000C1EEF09000C37405F017
:20443200855253F552C0071204D9D0071026028024AE537404C39EF553AE5374312EF58223
:20445200C0071204267582C0120481D007800675530075520043C1100239FEC0E043C1100C
:20447200E59A30E003539AFED0E032C027C0E0C0F0C082C083C007C006C005C004C003C076
:2044920002C001C000C0D075D00075BC83AFBD7875A60730021DBF52005004C2A28058EF19
:2044B20024915053C202D23290534A75F080120EBB8044BF5C00503FD202C21AC2C453A046
:2044D2000F90F3FEE493B5460B90F3FFE493FFB5450280189002001202468546289003FEC1
:2044F20012022B8545289003FF12022BD23290535F75F080120EBB75BC8BD0D0D000D001A5
:17451200D002D003D004D005D006D007D083D082D0F0D0E0D0273259
:20472100303934393834373039380080901030206040C02020202020204558495400000094
:2047410000000020204348494E482047494F204B494D00204348494E482047494F20544869
:204761005543002020202043414E48204B494D000000002020202054455354204D50330055
:2047810000000020415349412047505320332E332E33310044482C4F4E20646F6E672068E5
:2047A1006F2063686179202D2044482C4F464620646F6E6720686F2064756E670A44482C75
:2047C1002B6D6D206B696D2070687574206C6563682064756F6E67206D6D2070687574209D
:2047E1002D2044482C2D6D6D206C65636820616D206D6D20706875740A44482C6B6B6B6BB9
:204801002C74747474206368696E682067696F206B696D2067696F20746875632067696F1F
:2048210020747520646F6E67207468617920747474742062616E67206175746F0A42432C94
:204841004F4E2062616F2063616F206461752067696F202D2042432C4F46462074617420DA
:2048610062616F2063616F206461752067696F0A4243206775692062616F2063616F202D13
:204881002042432C44454E2042432C4D50332062616F2063616F2064656E2062616F2063FD
:2048A100616F206D70330A52532072657365743A52532C737973207265736574206865204B
:2048C10074686F6E67202D2052532C73696D20726573657420677073206D6F64756C650AD3
:2048E10052532C472C6E6E2C6767206D6F69206E6E206E6761792076616F2067696F206721
:20490100673A303620626F2064696575206B6869656E2072657365740A44454E2C584F4170
:2049210020786F6120746F616E20626F2074686F6E6720736F2064656E2074617420646560
:204941006E0A44454E2C747474742C6D6D6D6D20783A20736F206361702067696F207461AF
:20496100742F6D6F20747474742C6D6D6D6D2067696F207461742F6D6F2064656E0A4D5016
:20498100332C582C616C6C20786F6120746174206361202D204D70332C582C61612C626286
:2049A1002C63632C2E2E2E20786F61206361632067696F2061612C62622C63630A4D5033A2
:2049C1002C542C676770702C32322C31312C2E2E2E206C6170206C616920746F69206461A4
:2049E100203132206C616E20676770703A67696F20706875742070686174206E6861630A1F
:204A010032322C3131207468752074752062616920686174206C616E206C756F742074723B
:204A21006F6E6720746875206D7563203220766120310A44542C307878787878787878788B
:204A41002044542C2B3834787878787878787878207468617920646F6920736F206469651C
:204A61006E2074686F6169207068750A44542C584F4120786F6120736F206469656E2074B1
:204A8100686F6169207068750A44542C4F4E2044542C4F4646202D206261742074617420B0
:204AA1006469656E2074686F6169207068750A0020204750532020002041534941202000C1
:204AC10020202044532020001A00544B3C31303030204B2042414F43414F0041542B434D68
:204AE10047533D2200220D0041542B435553443D312C222A31303123222C0D0020204B49D4
:204B0100454D2054524120544B202020002C000D544B204368696E683D000D546169206B07
:204B2100686F616E20636F6E2064756F692031303030300044414E47204755492042414F7B
:204B41002043414F000D47696F204D6F2044656E3A000D4B686F6E6720636F2067696F2073
:204B61006D6F2064656E004755492042414F2043414F2044454E2000204755492048554F0F
:204B81004E472044414E20200041542B43434C4B3F0D00202053454E44494E472043434CE9
:204BA1004B20200041540D0041542B4950523D300D00202053454E44494E4720495052202F
:204BC10020200041542B434C54533D310D00202053454E44494E4720434C54532020004104
:204BE100542B4346554E3D300D00202053454E44494E47204346554E3020200041542B4388
:204C010046554E3D310D00202053454E44494E47204346554E3120200041542B434D47464D
:204C21003D310D00202053454E44494E4720434D474620200041542B434E4D493D312C3181
:204C41002C302C302C310D00202053454E44494E4720434E4D4920200041542B434D474487
:204C6100413D2244454C20414C4C220D00202053454E44494E4720434D4744412020004151
:204C8100542B434D474C3D22414C4C220D000D6C656E68206B686F6E6720686F70206C65C7
:204CA100000D6C656E68206B686F6E6720686F70206C650D50686F6E652070687520677540
:204CC10069206C656E68000D6368696E6820646F6E6720686F207468616E6820636F6E67D3
:204CE100000D6368696E6820646F6E6720686F207468616E6820636F6E670D50686F6E65DC
:204D01002070687520677569206C656E68000D62616F2063616F2064656E207468616E68DD
:204D210020636F6E67000D62616F2063616F2064656E207468616E6820636F6E670D506803
:204D41006F6E652070687520677569206C656E68000D62616F2063616F207468616E682092
:204D6100636F6E67000D62616F2063616F207468616E6820636F6E670D50686F6E65207068
:204D8100687520677569206C656E68000D6B686F6920646F6E67206C616920626F20646955
:204DA1006575206B6869656E000D6B686F6920646F6E67206C616920626F2064696575203B
:204DC1006B6869656E0D50686F6E652070687520677569206C656E68000D646174206E67E8
:204DE10061792067696F207265736574207468616E6820636F6E67000D646174206E6761A0
:204E0100792067696F207265736574207468616E6820636F6E670D50686F6E652070687508
:204E210020677569206C656E68000D646174206E6761792067696F207265736574206B689B
:204E41006F6E6720686F70206C65000D646174206E6761792067696F207265736574206B73
:204E6100686F6E6720686F70206C650D50686F6E652070687520677569206C656E68000D80
:204E810067736D206D6F64756C65206B686F6920646F6E67206C61692073617520313073DE
:204EA100000D67736D206D6F64756C65206B686F6920646F6E67206C616920736175203154
:204EC10030730D50686F6E652070687520677569206C656E68000D6C656E6820726573650B
:204EE10074206B686F6E6720686F70206C65000D6C656E68207265736574206B686F6E6780
:204F010020686F70206C650D50686F6E652070687520677569206C656E68000D74686179D5
:204F210020646F692067696F20736163207861206163717569207468616E6820636F6E6738
:204F4100000D7468617920646F692067696F20736163207861206163717569207468616E84
:204F61006820636F6E670D50686F6E652070687520677569206C656E68000D4C656E6820AD
:204F8100736163206163717569206B686F6E6720686F70206C65000D4C656E68207361632C
:204FA100206163717569206B686F6E6720686F70206C650D50686F6E6520706875206775BE
:204FC10069206C656E68000D786F6120746174206D6F2064656E207468616E6820636F6EFC
:204FE10067000D786F6120746174206D6F2064656E207468616E6820636F6E670D50686F0A
:205001006E652070687520677569206C656E68000D677569206C656E6820746174206D6FA5
:205021002064656E207468616E6820636F6E67000D677569206C656E6820746174206D6FA0
:205041002064656E207468616E6820636F6E670D50686F6E652070687520677569206C6534
:205061006E68000D74686F6E6720736F20746174206D6F2064656E206B686F6E6720686F40
:2050810070206C65000D74686F6E6720736F20746174206D6F2064656E206B686F6E67206C
:2050A100686F70206C650D50686F6E652070687520677569206C656E68000D4B686F6E6713
:2050C10020436F204D6F64756C65204D7033000D44756E67204D7033000D426174206D709B
:2050E10033000D546174206D7033000D54657374206D7033207468616E6820636F6E67003F
:205101000D6B686F6E672064756E672067696F207068617420686F6163206D7033206C6F8A
:2051210069000D4D70332064616E672063686F69206E686163206E656E206368756120741B
:2051410068652074657374000D4C656E68204D5033206B686F6E6720686F70206C65000D81
:2051610042617420475053000D54617420475053000D6768692070686F6E652070687520C1
:205181006D6F69207468616E6820636F6E67000D7468617920646F692070686F6E652070E6
:2051A1006875206B686F6E67207468616E6820636F6E67000D586F612070686F6E652070E1
:2051C1006875000D6C656E68206B686F6E67207468616E6820636F6E6720646F20636875B9
:2051E10061206B686F692074616F2070686F6E6520706875000D4261742070686F6E6520F9
:20520100706875000D5461742070686F6E6520706875000D4C656E682070686F6E65207005
:205221006875206B686F6E6720686F70206C65000D4C656E68206B686F6E6720686F7020AF
:205241006C65000D4C656E68206B686F6E6720686F70206C650D50686F6E652070687520C5
:20526100677569206C656E68000D626F2064696575206B6869656E206B686F6920646F6E21
:20528100672073616E2073616E67000D70686174206869656E206C6F69206D61742078752A
:2052A1006E672067696179000D70686174206869656E206C6F6920646F632063616D000DB8
:2052C10062616F2063616F206461752067696F000D67736D206D6F64756C652072657365C6
:2052E10074207468616E6820636F6E670020204B494D2020000D6368696E682067696F2048
:2053010062616E6720746179000D2A6368696E682067696F2062616E67207461792A00C0D6
:20532100312050485554202020202020202020200020204D503320200020204F4B20202010
:205341000020204E4F202020000D2A6469656E206170206B686F6920706875632A000D2A4B
:165361006469656E20617020616371756920746861702A0014283F
:2045290075BA01759A50438E0475D7C875D6FE438E1075AF0122AF828F7375740090006479
:204549001245EFAE82AF83AC727D00EC2EFEED3FFF8E058D037C0074E9C39BFB74FE9CFC6D
:204569008F017A00EBC399FBEC9AFC9001A7747EF09001A874FFF09001A97406F09001AACF
:204589007412F09001ABE4F08F069001ACEEF09001ADEDF08C079001AEEFF09001AFEBF0F5
:2045A9009001B074EFF07F00EF24A7F582E43401F583E0F59BE59A035401700543C11080CD
:0B45C900F4539AFD0FBF0A0040DE22F1
:06007800E478FFF6D8FD5C
:200056007902E94400601B7A0190537578B175A001E493F2A308B8000205A0D9F4DAF275D4
:02007600A0FFE9
:1B45D40020F71130F6138883A88220F509F6A8837583002280FEF280F5F022E6
:1D45EF00E5828573F0A4C582C0F08574F0A4D0F025F0C5838573F0A42583F583224D
:20460C00E573457460467A01E57325E0F573E574334012F574E5829573E583957440030A23
:20462C0080E6C3E57413F574E57313F573C3E5829573F5F0E58395744005F58385F082C39E
:0D464C00E57413F574E57313F573DAE122DC
:20007E007800E84400600A790175A000E4F309D8FC78B0E84401600C7902900001E4F0A3CD
:04009E00D8FCD9FAB7
:204659007A10E4FBFCE58225E0F582E58333F583EB33FBEC33FCEB9573F5F0EC957440069F
:09467900FCABF0438201DADD2202
:0D00490075817812470CE5826003020046C5
:1C46820020F71430F6148883A88220F507E6A88375830022E280F7E49322E02247
:20469E00C2D5E58330E70DD2D5E4C39582F582E49583F583E57430E70BE4C39573F573E413
:1646BE009574F57412460C30D50BE4C39582F582E49583F5832235
:2046D400C2D5E58330E70DD2D5E4C39582F582E49583F583E57430E70DB2D5E4C39573F5AB
:1846F40073E49574F57412465930D50BE4C39582F582E49583F5832259
:04470C007582002290
:00000001FF
