:2000A700AF827E00751A0A8E1B8F828E83C007C006127738AC82D006D007ECC454F0FC7598
:2000C7001A0A751B008F828E83C004127702AE82D004EE4CF58222E582FFC4540F75F00A21
:2000E700A4FE740F5F2EF582221203EB7582D012042A75820712042A75821012042A02041C
:2001070006AD82AE83AFF0C007C006C0051203EB7582D012042A75820312042A1204061212
:2001270003EB7582D112042AD20012044FAC82D005D006D0078D828E838FF0EC127638ADE3
:200147002AAE2BAF2CD200C007C006C00512044F1200DEAC82D005D006D0078D828E838FE2
:20016700F0EC127638AD2DAE2EAF2FD200C007C006C00512044F1200DEAC82D005D006D026
:20018700078D828E838FF0EC127638AD30AE31AF32C200C007C006C00512044F1200DEAC54
:2001A70082D005D006D0078D828E838FF0EC127638020406AD82AE83AFF0C007C006C0058C
:2001C7001203EB7582D012042A75820012042A1204061203EB7582D112042AAA36AB37AC48
:2001E70038D200C004C003C00212044F1200DEA982D002D003D0048A828B838CF0E91276A5
:2002070038AA33AB34AC35D200C004C003C00212044F1200DEA982D002D003D0048A828B57
:20022700838CF0E9127638C20012044F1200DEAC82D005D006D0078D828E838FF0EC127635
:2002470038020406AF82C0071203EB7582D012042A75820012042A853A821200A712042AE3
:200267008539821200A712042AD0078F821200A712042A020406AF82C0071203EB7582D092
:2002870012042A75820312042AD0078F8212042A853B821200A712042A853C821200A7126C
:0E02A700042A853D821200A712042A020406D2
:2002B50075C70075C50075C60075C38075C40043C11022AE82AF8375C78375C5018EC48F14
:2002D500C375C65A75C6A500AFC2C0071202B5D0078F8222AE82AF8375C78375C5028EC417
:2002F5008FC38518C275C65A75C6A5000202B5AE82AF8375C78375C5038EC48FC375C65A73
:2003150075C6A5000202B543C1107F20EF60101FEF24BDF582E43400F58374FFF080EDBF98
:2003350020005018EF24BDFDE43400FE8F827583F00FE493FC8D828E83F080E390000002BD
:2003550003047F00BF2000502975C78375C5028FC475C300EF24BDF582E43400F5830FE05E
:13037500F5C275C65A75C6A500C0071202B5D00780D2226E
:20038800759850438E40538EFE758BB2758DFFC2ABD28ED2ACD2A022E582FF700122C29922
:2003A8008F9920990543C11080F8C29922AD82AE83AFF0C2998D828E838FF01276E6FC6083
:2003C800218C9920990543C11080F8C2998D828E838FF01276E6FCBC1A01220DBD00D60E7A
:0303E80080D3229D
:2003EB00D2C043C11043C110D2CD43C11043C110C2C043C11043C110C2CD22C2C043C11080
:20040B0043C110D2CD43C11043C110D2C02243C11043C110D2CD43C11043C110C2CD22AFF3
:20042B00827E00EF23540124FF92C08F05ED2DFFC007C006120419D006D0070EBE080040AB
:20044B00E20204197F00D2C07E0043C11043C110D2CD43C11043C1108F05ED2DFDA2C0E421
:1E046B00334DFFC2CD0EBE080040DFA200B392C0C007120419D007A2C092CD8F82220A
:20048900AE82AF837C007D00C3EC9EED9F500A43C1100CBC00F20D80EF22AE82AF837C007B
:2004A9007D00C3EC9EED9F501D9003E8C007C006C005C004120489D004D005D006D0070CDE
:2004C900BC00DF0D80DC22AF82E53E4FF58212055975820D020559AF82302D118F82120538
:2004E90059853F828540838541F00205D98F820205BAAF82D285EFC4540124FF9283EFA24B
:20050900E5E43324FF9282EF2323540124FF9281EF235401FE24FF9280D28400C28400EFBA
:20052900540124FF9283EF03540124FF9282EF03035401FE24FF9281EFA2E3E433FF24FF7C
:200549009280D28400C284900064120489C28522AF82C285EFC4540124FF9283EFA2E5E4D6
:200569003324FF9282EF2323540124FF9281EF235401FE24FF9280D28400C28400EF5401CE
:2005890024FF9283EF03540124FF9282EF03035401FE24FF9281EFA2E3E433FF24FF92805F
:2005A900D28400C28490006402048975820C020559E582FF600E8F8212055990777475F07B
:2005C900800205D9758201120559900640020489AD82AE83AFF07C008D828E838FF0127643
:2005E900E6FB6055BC10005050BB80005025EB24E050200CEC601C0DBD00010E8B82C007C0
:20060900C006C005C0041204FBD004D005D006D00780C58D828E838FF01276E6FBA3AD82FC
:20062900AE838B82C007C006C005C004120559D004D005D006D007809F22C286903A98129A
:20064900048975801C00C284900FA0120489D28400C2849000A0120489D28400C284900038
:20066900A012048975801400C2849003E8120489D28400C2840075801100C2849000281217
:20068900048975801000C2840075801300C28490002812048975801000C28400758016007E
:2006A900C28490002812048975801000C2840075801800C2849003E8020489AF82E545246D
:2006C900E8500122E547240540030207808F821205598542828543838544F01205D974F66D
:2006E900254540067D207E00801DAB457C00751A0A8C1B8B828C83127738AB82AC83743000
:200709002BFBFD3395E0FE8D821204FBAD457E00751A0A8E1B8D828E83127702AD827430B7
:200729002DF5821204FBE547240350123001067D3A7E0080047D207E008D821204FBAD4628
:200749007E00751A0A8E1B8D828E83C006C005127738AB8274302BF5821204FBD005D00635
:20076900751A0A751B008D828E83127702AD8274302DF5820204FB8F8212055985428285D5
:2007890043838544F01205D974F6254540067E207F00801DAC457D00751A0A8D1B8C828DC3
:2007A90083127738AC82AD8374302CFCFE3395E0FF8E821204FBAE457F00751A0A8F1B8EB9
:2007C900828F83127702AE8274302EF5821204FB3001067E3A7F0080047E207F008E821236
:2007E90004FBAE467F00751A0A8F1B8E828F83C007C006127738AC8274302CF5821204FB45
:20080900D006D007751A0A751B008E828F83127702AE8274302EF5821204FB3001067E3AD3
:200829007F0080047E207F008E821204FBAE477F00751A0A8F1B8E828F83C007C00612777F
:2008490038AC8274302CF5821204FBD006D007751A0A751B008E828F83127702AE8274307A
:0C0869002EF5821204FB7582200204FBB5
:11777400202020202020202020202020202020200004
:0600000002004902107528
:03000B000214419B
:0100130032BA
:01001B0032B2
:0300230002269220
:03002B0002753E1D
:01003300329A
:03003B000210C5EB
:0300430002752E15
:0500A200C23F02004610
:0300460002510361
:20087500E54A75F006A4FFAD497E00751A0A8E1B8D828E83C007127738AD82D007ED2FF5B1
:20089500577E017D0190F007E493FCC3ED9C400302093FED90F00793FC8D030BEB3395E0EB
:2008B500FAEB2407F582EA34F0F583E493F9C3EC99E433F97C0009B900010CED90F00793FC
:2008D500F8C3E55798E4337F0029F9EF3CFCEB2407F582EA34F0F583E493FFC3E5579FE48A
:2008F500337B0029F582EB3CF583751A028B1BC006C005127702E5828583F0D005D006455A
:20091500F060218E047F008C828F83A3751A028F1BC006127702AC82AF83D006EC4F24FF5D
:2009350092A180060D8D0602089A90F007E493FFEEB50702800122EE90F00793FF90F008CA
:20095500E493FDC3EF9DE433FF7D000FBF00010DEE90F00793FCC3E5579CE4337B002FFFF1
:20097500EB3DFD90F008E493FCC3E5579CE4337B002FF582EB3DF583751A028B1BC00612C0
:200995007702E5828583F0D00645F060197F008E828F83A3751A028F1B127702AE82AF837A
:2009B500EE4F24FF92A122787FB60002800E787FB60102804A787FB6024E80297880E6B57D
:2009D5004A077881E6B5490122AF4A7880A607AE497881A6068E198F821275A37882765ACB
:2009F500787F76022230920BD2C2787FA2C2E433F6800C788286077882EF14F6EF700920FA
:200A15009206787F7600C2C2222002092036069000F4E06006C213758205229000E2E0FF81
:200A3500601C9000E1E0600FEF13924850091FEFFE3395E0FF80047E057F008E8222900134
:200A55002DE0FFBF03004003020AEC9000E8E07003020AE6E550FFB54907E54BB54C0280CF
:200A750070854C1A751B0090003CC007127653E5828583F0D00724D0FD740235F0FE7C00CC
:200A9500EF2DFDEC3EFE854B1A8C1B90003CC006C005127653AC82AF83D005D006EDC39CE6
:200AB500FDEE9FFEAC497F00EDC39CF582EE9FF583751AD0751B02127702AE82AF83C37448
:200AD500689E74818FF063F08095F0921375820022C21375820522E55524FE4003020B7B57
:200AF5009000E8E07003020B7BE550FFB54907E54BB54C028070854C1A751B0090003CC02B
:200B150007127653E5828583F0D00724D0FD740235F0FE7C00EF2DFDEC3EFE854B1A8C1BD0
:200B350090003CC006C005127653AC82AF83D005D006EDC39CFDEE9FFEAC497F00EDC39CCF
:200B5500F582EE9FF583751AD0751B02127702AE82AF83C374689E74818FF063F08095F01D
:200B75009213758200229000EAE07003020C01E552FFB54907E54BB54E028070854E1A7504
:200B95001B0090003CC007127653E5828583F0D00724D0FD740235F0FE7C00EF2DFDEC3E38
:200BB500FE854B1A8C1B90003CC006C005127653AC82AF83D005D006EDC39CFDEE9FFEACD4
:200BD500497F00EDC39CF582EE9FF583751AD0751B02127702AE82AF83C374689E74818FD1
:200BF500F063F08095F092137582022274FE25555003020C909000E8E07003020C90E5505D
:200C1500FFB54907E54BB54C028070854C1A751B0090003CC007127653E5828583F0D00779
:200C350024D0FD740235F0FE7C00EF2DFDEC3EFE854B1A8C1B90003CC006C005127653ACE9
:200C550082AF83D005D006EDC39CFDEE9FFEAC497F00EDC39CF582EE9FF583751AD0751B21
:200C750002127702AE82AF83C374689E74818FF063F08095F0921375820022C213758205D8
:200C95002290012DE0FFBF0102800C2002092036069000F4E06006C214758205229000E27B
:200CB500E0FE601C9000E1E0600FEE5401FD70091EEEFD3395E0FE80047D057E008D8222E8
:200CD500BF04004003020D699000E9E07003020D63E551FFB54907E54BB54D028070854D13
:200CF5001A751B0090003CC007127653E5828583F0D00724D0FD740235F0FE7C00EF2DFD72
:200D1500EC3EFE854B1A8C1B90003CC006C005127653AC82AF83D005D006EDC39CFDEE9FF2
:200D3500FEAC497F00EDC39CF582EE9FF583751AD0751B02127702AE82AF83C374689E74D5
:200D5500818FF063F08095F0921475820122C21475820522E55624FE4003020DF89000E952
:200D7500E07003020DF8E551FFB54907E54BB54D028070854D1A751B0090003CC00712760F
:200D950053E5828583F0D00724D0FD740235F0FE7C00EF2DFDEC3EFE854B1A8C1B90003C11
:200DB500C006C005127653AC82AF83D005D006EDC39CFDEE9FFEAC497F00EDC39CF582EEB4
:200DD5009FF583751AD0751B02127702AE82AF83C374689E74818FF063F08095F0921475E5
:200DF5008201229000EBE07003020E7EE553FFB54907E54BB54F028070854F1A751B00906D
:200E1500003CC007127653E5828583F0D00724D0FD740235F0FE7C00EF2DFDEC3EFE854B92
:200E35001A8C1B90003CC006C005127653AC82AF83D005D006EDC39CFDEE9FFEAC497F0057
:200E5500EDC39CF582EE9FF583751AD0751B02127702AE82AF83C374689E74818FF063F0D3
:200E75008095F092147582032274FE25565003020F0D9000E9E07003020F0DE551FFB5491B
:200E950007E54BB54D028070854D1A751B0090003CC007127653E5828583F0D00724D0FD01
:200EB500740235F0FE7C00EF2DFDEC3EFE854B1A8C1B90003CC006C005127653AC82AF83A4
:200ED500D005D006EDC39CFDEE9FFEAC497F00EDC39CF582EE9FF583751AD0751B021277C8
:200EF50002AE82AF83C374689E74818FF063F08095F0921475820122C2147582052290022A
:200F15000012030490012DE0FFBF01028043BF0202802CBF03028015BF044885531890022C
:200F3500061202E9854F189002071202E98552189002041202E9854E189002051202E98591
:200F550051189002021202E9854D189002031202E98550189002001202E9854C189002010E
:200F75000202E92275FA0075EA009000E474A8F07461A3F075DA49D2DE22538E7F758900CF
:200F95009000EDE0FF8F1A751B009007D0C007127653AD82AE83D007EE3395E0FCFB743036
:200FB500C39D74F89EFEE49CE49B8E8CEF75F0D0A4D39430F4F58AC28DD28CD2A92243C17B
:200FD50010B220A2209287D21E9000F9E0FFE06006EF149000F9F09000FBE0FFE06006EF86
:200FF500149000FBF09000F4E0FFBF020122054890012EE0FF7E001FBFFF011EAC487D0030
:20101500C3EF9CEE64808DF063F08095F050507548009000B9E0600E9000BAE014F0E07054
:20103500059000B9E4F0D21F0549E54924C4502FC203754900054AE54A24E85017788076C3
:2010550018754A009000E6E0FFE06006EF149000E6F0C204054BE54B24F45003754B00220D
:20107500C029C0E0C0F0C082C083C007C006C005C004C003C002C001C000C0D075D0084361
:20109500C1109000E774FAF0C23875D000120FD375D008D0D0D000D001D002D003D004D08B
:2010B50005D006D007D083D082D0F0D0E0D02932C029C0E0C0F0C082C083C007C006C00519
:2010D500C004C003C002C001C000C0D075D00843C11010D8030214249000E4E0FEA3E0FF47
:2010F5008EEA8FFA9000E474A82EF074613FA3F090F01FE493600CA2B6B39215A2B7B392B3
:20111500168008A2B69215A2B7921690012DE0FFBF015790F01FE49360293034132015031A
:201135003016047F0080027F01EF24FF9215803A2015072016047F0080027F01EF24FF92C1
:201155001580273034133015073016047F0080027F01EF24FF921580113015032016047FE5
:201175000080027F01EF24FF92157405B5550302124830150D301705D219021248D21702ED
:201195001248201B0302123CE55524E8FEE43400FF9000ECE08E828F83F09000E1E0FFE059
:2011B5006008EF149000E1F0806030122EE5552450F9870F0FA70FEF24C4501FE555245008
:2011D500F87600E555244CF9870F0FA70FEF24F45038E555244CF87600802F20122CE555A0
:2011F5002450F9870F1FA70FEF24C3501DE5552450F8763BE555244CF9870F1FA70FEF2447
:20121500F35007E555244CF8760BC219C217C21B75D000120A1E75D00885825575D000123C
:201235000F1375D008800C301904D21B800510170280007405B5560302131130160D3018EE
:2012550005D21A021311D218021311201C03021305E55624E8FEE43400FF9000ECE08E8231
:201275008F83F09000E1E0FFE06008EF149000E1F0806030122EE5562450F9870F0FA70F08
:20129500EF24C4501FE5562450F87600E556244CF9870F0FA70FEF24F45038E556244CF8A5
:2012B5007600802F20122CE5562450F9870F1FA70FEF24C3501DE5562450F8763BE5562489
:2012D5004CF9870F1FA70FEF24F35007E556244CF8760BC21AC218C21C75D000120C9675C6
:2012F500D00885825675D000120F1375D008800C301A04D21C80051018028000302109305D
:20131500B5069000F17402F030210330B5047F0080027F01EF24FF922420230330B5047FE2
:201335000080027F01EF24FF922120220A2024032021047F0080027F01EF24FF9222A2B55B
:20135500922330250930B3069000F27402F030250330B3047F0080027F01EF24FF922820E8
:20137500270330B3047F0080027F01EF24FF922520260A2028032025047F0080027F01EFA9
:2013950024FF9226A2B3922730290930B4069000F37402F030290330B4047F0080027F0155
:2013B500EF24FF922C202B0330B4047F0080027F01EF24FF9229202A0A202C032029047F55
:2013D5000080027F01EF24FF922AA2B4922B90013EE014F0E0700AD23F90013E7414F0B2FE
:2013F5002D9000E7E0FFE0600EEF149000E7F090013F7428F0801890013FE014F0E0700F96
:2014150090013F7428F075D000120FD375D008D0D0D000D001D002D003D004D005D006D0A0
:2014350007D083D082D0F0D0E0D02932C0E0C082C083C0D075D01043C110303539E555B4A6
:201455000100E43324FF92A77401B5560474018001E424FF92A57402B5550474018001E4ED
:2014750024FF92A67403B5560474018001E4FF24FF92A4021515E555700B90F000E4935418
:2014950007600280047F0080027F01EF24FF92C47401B5560474018001E424FF92C3203437
:2014B500109000E2E0700A2013072014047F0080027F01EF24FF92122034427405B5550970
:2014D5007405B55604E5557034E5A0540FFFE55490779B934FF5A03012067E017F0080048E
:2014F5007EFF7FFFAF54EE2FF55424F75005755407800D7408B55408755400800353A00FCB
:20151500D0D0D083D082D0E032AF829000BBE4F0BFA100500FEF2417F582E43400F5830F40
:20153500E4F080EC2285825D85835E85F05FAC599000FAECF08558F0ECA4FB9000FB740ACA
:201555002BF0C22E855D82855E83855FF0C0041203B5D0047402255DF9E4355EFAAB5F748B
:2015750007255DF560E4355EF561855F627408255DF563E4355EF564855F65A858302E0395
:2015950002170A9000FBE0700302170A30300302170A43C110758280C004C003C002C001F7
:2015B500C000120559855A82855B83855CF01205D9D000D001D002D003D004301D32754211
:2015D5004175437B754480854A45854946854847A22092017582C0C004C003C002C001C037
:2015F500001206C4D000D001D002D003D004806990F002E493703275424975437B754480F0
:20161500854A45854946854847A22092017582C0C004C003C002C001C0001206C4D000D027
:2016350001D002D003D004803075425175437B754480854A45854946854847A220920175F1
:2016550082C0C004C003C002C001C0001206C4D000D001D002D003D0041032028002C322C8
:201675009000F9E06006203103021592C231880718EF700302170A9000F9ECF09000FAEC8F
:20169500F089828A838BF01276E6FFBF2B448560828561838562F01276E6FFBF3F02803251
:2016B5008563828564838565F01276E6FFBF3F028020907B5975F080C004C003C002C00105
:2016D500C0001203B5D000D001D002D003D004021592855D82855E83855FF0C004C003C0C3
:2016F50002C001C0001203B5D000D001D002D003D0040215927582801205BA9000FCE4F01D
:20171500A22E22AD82AE83AFF0907B5D75F080C007C006C0051203B5D005D006D0078D82C9
:201735008E838FF01203B5755A64755B7B755C8075580175593C907B6175F08002153A9061
:201755000017E0602090001AE0701A755A77755B7B755C80755803755901907B7575F08003
:2017750012153AC322907B8875F0801203B530400B90000175F0001203B5800990F0117502
:20179500F0801203B59000FC7408F0755A95755B7B755C8075580575593D907B9275F080A3
:2017B50002153A900017E4F0C20F9000FC7407F0755AB7755B7B755C8075580375591E9012
:2017D5007BA375F08012153A9000FCE4F0900017E024FF22C20F9000FC740DF09000F7E02F
:2017F500FFBF50028025BF66028038BF6E02804BBF7460755AC8755B7B755C80755803753B
:20181500591E907BA375F08002153A755AC8755B7B755C8075580375591E907BDA75F0809F
:2018350002153A755AC8755B7B755C8075580375591E907BEE75F08002153A755AC8755BBD
:201855007B755C8075580375591E907BA375F08002153AC3229000FC740EF0758200121506
:201875001E9000BBE4F0755A08755B7C755C8075580F755901907C0075F08012153A503322
:201895009000F8E4F07F00EF2417F582E43400F583E0FEBE2C0122EF2417F582E43400F58E
:2018B500830FE024D0FE9000F8E0FD75F00AA42EF080D4223035067E0F7F7C80047E167F19
:2018D5007C7D808E828F838DF01203B57F003034067D1D7E7C80047D217E7C7C808D828EDF
:2018F500838CF0C0071203B5D0078F0674312EF582C0071203A075823D1203A0D007EF243E
:20191500E8FDE43400FE8D828E83E0700A758245C0071203A0D007EF244CF987067D0075D7
:201935001A0A8D1B8E828D83C007C001127738AD8274302DF5821203A0D00187067D0075E1
:201955001A0A8D1B8E828D83127702AD8274302DF5821203A075823A1203A0D007EF2450AF
:20197500F987067D00751A0A8D1B8E828D83C007C001127738AD8274302DF5821203A0D0A9
:201995000187067D00751A0A8D1B8E828D83127702AD8274302DF5821203A0D0070F900198
:2019B5002DE0FEEFB50601220218E322907C2575F0801203B5AE4A7F00751A0A8F1B8E8271
:2019D5008F83127738AE8274302EF5821203A0AE4A7F00751A0A8F1B8E828F83127702AEDC
:2019F5008274302EF5821203A075823A1203A0AE497F00751A0A8F1B8E828F83127738AE22
:201A15008274302EF5821203A0AE497F00751A0A8F1B8E828F83127702AE8274302EF58252
:201A35001203A0304121907C2975F0801203B5301D067E317F0080047E307F0090F002E4CE
:201A5500932EF5820203A022787E861A751B0090001C127653751A00751B01127738AE82B4
:201A7500AF83204203021B4B907C2F75F080C0061203B5D0063036067D307F0080047D3102
:201A95007F008D82C0061203A0907C3475F0801203B590F001E4932430F5821203A0907CB5
:201AB5003975F0801203B5D0069000E7E060067D317F0080047D307F008D82C0061203A02F
:201AD500907C3E75F0801203B59000E6E02430F5821203A075822F1203A090F003E4932429
:201AF50030F5821203A0907C4375F0801203B590F004E493FF7D00751A0A8D1B8F828D839E
:201B1500127738AD8274302DF5821203A090F004E493FF7D00751A0A8D1B8F828D83127761
:201B350002AD8274302DF5821203A0907C4875F0801203B5D006907C4C75F080C006120371
:201B5500B5D00630A1067D317F0080047D307F008D82C0061203A0907C5275F0801203B59A
:201B7500D0067F00751A0A8F1B8E828F83C007C006127738AC8274302CF5821203A0D00648
:201B9500D007751A0A751B008E828F83127702AE8274302EF5821203A090F010E4937003DB
:201BB500304221907C5875F0801203B53092067E307F0080047E2F7F0090F010E4932EF59B
:201BD500821203A020420122907C5E75F0801203B59000F8E0FF7E00751A0A8E1B8F828E55
:201BF50083127738AE8274302EF5821203A09000F8E0FF7E00751A0A8E1B8F828E8312778C
:201C150002AE8274302EF5821203A0907C6475F0801203B590F01CE4932430F5821203A0CD
:201C350090F01CE493FFBF02012275822C1203A090F01175F0800203B5AD82AE83AFF09002
:201C55000130E0700122755A1A755B78755C8075580F755901907C6975F080C007C006C0F7
:201C75000512153A12186AD005D006D00774012DFAE43EFB8F048A828B838CF01276E6F98A
:201C9500B92A02801DC007C006C005C004C003C0021217B8D002D003D004D005D006D00736
:201CB5008005900017E4F0A2439240C007C006C005C004C003C002121754D002D003D004C7
:201CD500D005D006D00740012290781A75F080C007C006C005C004C003C0021203B5121874
:201CF500C9A24392411219C1A2439242121A5DD002D003D004D005D006D0078A828B838C7F
:201D1500F01276E6FABA2A028053900017E0604D907C6D75F080C007C006C0051203B5905F
:201D3500001775F0001203B5D005D006D00730431B90001BE07015907C7875F080C007C038
:201D550006C0051203B5D005D006D00790001BE4F090001AF0900019F0900018F08D828E70
:201D7500838FF0C007C006C0051203B5D005D006D0070DBD00010E8D828E838FF01276E6C8
:201D9500FDBD2A09907B7575F0800203B5755A92755B7C755C80755832755901907B757561
:201DB500F08002153A907C4C75F0801203B530A1067E317F0080047E307F008E821203A0CB
:201DD500907CA375F0801203B590F007E4932430F5821203A090F007E4937009907CAB756F
:201DF500F0800203B5907CC075F0801203B590F007E493FF75820DC0071203A0D007EF9056
:201E1500F00793FE7D00751A3C8D1B8E828D83C007127738AD8274302DF5821203A0D0078A
:201E3500EF90F00793FE7D00751A068D1B8E828D83C007127738751A0A751B00127702ADC3
:201E55008274302DF5821203A075823A1203A0D007EF90F00793FF7E00751A068E1B8F825C
:201E75008E83127702AE8274302EF5821203A0907CCD75F0801203B590F008E493FF7E007F
:201E9500751A3C8E1B8F828E83127738AE8274302EF5821203A090F008E493FF7E00751A9D
:201EB500068E1B8F828E83127738751A0A751B00127702AE8274302EF5821203A075823A68
:201ED5001203A090F008E493FF7E00751A068E1B8F828E83127702AE8274302EF582120343
:201EF500A07582301203A07F0290F007E493FEC3EF9E40012275820DC0071203A0D007EFDB
:201F150090F00793FE7D00751A3C8D1B8E828D83C007127738AD8274302DF5821203A0D000
:201F350007EF90F00793FE7D00751A068D1B8E828D83C007127738751A0A751B0012770268
:201F5500AD8274302DF5821203A075823A1203A0D007EF90F00793FE7D00751A068D1B8E34
:201F7500828D83C007127702AD8274302DF5821203A0907CCD75F0801203B5D0078F06EE5A
:201F950004FD3395E0FCED2407F582EC34F0F583E493FB7A00751A3C8A1B8B828A83C00634
:201FB500C005C004127738AA8274302AF5821203A0D004D005ED2407F582EC34F0F583E4F8
:201FD50093FB7A00751A068A1B8B828A83C005C004127738751A0A751B00127702AA8274F2
:201FF500302AF5821203A075823A1203A0D004D005ED2407F582EC34F0F583E493FD7C00B0
:20201500751A068C1B8D828C83127702AC8274302CF5821203A07582301203A0D006740274
:202035002EFF021EFEAD82AE83AFF0900130E0700122755A1A755B78755C8075580F7559E1
:2020550001907C6975F080C007C006C00512153AA2449240121754D005D006D00740012243
:20207500A2449241C007C006C0051219C1A2449242121A5D121DBAD005D006D0078D828E09
:20209500838FF01203B5755AD2755B7C755C80755832755901907B7575F08002153A90000D
:2020B50017E4F0D24012175440012290782B75F0801203B5755AE3755B7C755C80755832FE
:2020D500755901907B7575F08002153A755A1A755B78755C8075580F755901907C6975F05F
:2020F5008012153A503675820012151E9000BBE4F09000FC740AF0755AFE755B7C755C80A5
:2021150075580F755901907CF475F08012153A500990001BE0FF9000F7F0D322C3227F0006
:2021350090012FE0FEBE3D0122755A19755B7D755C8075580F755901907D0E75F080C007D6
:2021550012153AD0074003022313755A34755B7D755C8075580F755901907D2975F080C090
:202175000712153AD00740030223139000FC740CF0755A4F755B7D755C8075580A75593CF7
:20219500907D4475F080C00712153AD0074003022313758200C00712151E9000BBE4F090C8
:2021B50000FC7402F0755A69755B7D755C8075580F755901907D5F75F08012153AD007405E
:2021D5000302231390001AE024D075F00AA4FE90001BE02E24D09000E0F090001DE024D092
:2021F50075F00AA4FE90001EE02E24D09000DFF0900020E024D075F00AA4FE900021E02E56
:2022150024D09000DEF0900023E024D075F00AA4FE900024E02E24D0F54A900026E024D040
:2022350075F00AA4FE900027E02E24D0F549900029E024D075F00AA4FE90002AE02E24D027
:20225500F54885493985483A854A8212024B9000DFE0FE8E1A751B00900017C006127653A1
:20227500751A09751B00127738AC82AD83D0069000DEE07A002CFCEA3DFDEE24FD50189011
:2022950000E0E0FE5306037B00EE4BB40100E433FB3395E0FE80047B027E00EB2CFCEE3D31
:2022B500FD9000E0E0FEFA7B002CFCEB3DFD8A828B83A3A3A3751A048B1BC006C005C00471
:2022D500127738AA82AB83D004D005EA2CFCEB3DFD8C828D83A3751A07751B00127670AC63
:2022F50082D0060C9000DDECF09000DEE0F53B9000DFE0F53C8E3D8C8212027D7F01EF2421
:20231500FF921D9000FCE4F022755A84755B7D755C8075580F755901907D7975F08012154A
:202335003A502D75820012151E9000BBE4F09000FC740BF0755AA0755B7D755C8075580F92
:20235500755901907D9575F08012153A5002D322C32230A006900130E07002C322755ABB2D
:20237500755B7D755C8075580F755901907DB075F08012153A5039755ADF755B7D755C8027
:2023950075580F755901907DCC75F08012153A501F755A04755B7E755C8075580F755901D2
:2023B500907DF075F08012153A500512186AD322C32230A006900130E07002C322755A1A4B
:2023D500755B78755C8075580F755901907C6975F08012153A400122755ABB755B7D755CDE
:2023F5008075580F755902907DB075F08012153A5036755ADF755B7D755C8075580F75591D
:2024150001907DCC75F08012153A501C755A15755B7E755C80755814755903907DF075F084
:202435008012153A5002D322C3227F0090012FE0FEBE3D0122755A1A755B78755C807558F0
:202455000F755901907C6975F080C00712153AD0074003022687755A31755B7E755C80752A
:20247500580F755901907E2775F080C00712153AD0074003022687755A84755B7D755C8015
:2024950075580F755901907D7975F080C00712153AD00790F002E4937003022687755A42E6
:2024B500755B7E755C8075580F755901907D0E75F080C00712153AD0074003022687755AFD
:2024D5005E755B7E755C8075580F755901907E5375F080C00712153AD00740030226879078
:2024F50000FC7406F0755A7B755B7E755C8075580F755902907E7075F080C00712153AD071
:202515000740030226879000FDE0FEBE010280030226877E007D00ED240FF582E43401F5AF
:20253500830DE0FCBC2C060EBE0300500ABD0B00500543C11080E0EE24FD40030226878DE4
:20255500060EEE3395E0FCEE240FF582EC3401F583E0FEBE2C15ED04FEED240FF582E43414
:2025750001F583E0FC24D0F54A8029ED04FCED240FF582E43401F583E024D075F00AA4FD1C
:20259500EC04FEEC240FF582E43401F583E0FC24D02DF54A0E8E050DED3395E0FCED240F76
:2025B500F582EC3401F583E0FDBD2C15EE04FDEE240FF582E43401F583E0FC24D0F5498075
:2025D50029EE04FCEE240FF582E43401F583E024D075F00AA4FEEC04FDEC240FF582E43426
:2025F50001F583E0FC24D02EF549ED04FEFD0DED3395E0FCED240FF582EC3401F583E0FD7A
:20261500BD2C12EE240FF582E43401F583E0FD24D0F5488026EE04FDEE240FF582E434012D
:20263500F583E024D075F00AA4FEED240FF582E43401F583E0FD24D02EF548AD4A7E0074DB
:20265500072DFDE43EFEC374179D74808EF063F08095F05007E54A24EFFE8006AD4A7407D0
:202675002DFE8E4A85493985483A854A8212024B7F01EF24FF921D9000FCE4F022C029C018
:20269500E0C0F0C082C083C007C006C005C004C003C002C001C000C0D075D0102098030252
:2026B5003F4F43C1109000FAE09000F9F09000FEE02400F582E43401F583E599F09000FEEA
:2026D500E0FF2400F582E43401F583E0FEBE4E0280030228188F147D00740C2CF582E43DC5
:2026F500F583751A0D8D1BC017C016C015C01475D00012770275D010AA82AB83D014D0156B
:20271500D016D017EA2400F582EB3401F583E0FBBB49028003022818740B2CF582E43DF5DC
:2027350083751A0D751B00C017C016C015C01475D00012770275D010AA82AB83D014D01537
:20275500D016D017EA2400F582EB3401F583E0FBBB20028003022818740A2CF582E43DF5C6
:2027750083751A0D751B00C017C016C015C01475D00012770275D010AA82AB83D014D015F7
:20279500D016D017EA2400F582EB3401F583E0FBBB547074092CF582E43DF583751A0D7516
:2027B5001B00C017C016C015C01475D00012770275D010AA82AB83D014D015D016D017EA94
:2027D5002400F582EB3401F583E0FBBB4F3574082CF582E43DF583751A0D751B00C017C01C
:2027F5001675D00012770275D010AC82AD83D016D017EC2400F582ED3401F583E0FDBD4E55
:2028150002D2309000FCE0FD24F15003023F3BED240A83F582ED241383F583E4731D9F4FBC
:20283500EF3B67CF64DA3BA540B5CA502B332A333F353137363F292A283C289000BBE0FCE4
:2028550004F0EC2417F582E43400F583E599F07420B599369000FEE0FC7B00740C2CF582B3
:20287500E43BF583751A0D8B1B75D00012770275D010AB82AC83EB2400F582EC3401F583CA
:20289500E0FCBC3A059000BBE4F0742CB599028003023F3B9000FCE4F09000BBF0023F3B27
:2028B5007454B5996E8F137C00740C2BF582E43CF583751A0D8C1BC017C014C01375D000A1
:2028D50012770275D010A982AA83D013D014D017E92400F582EA3401F583E0FABA53347453
:2028F5000B2BF582E43CF583751A0D751B00C01775D00012770275D010AB82AC83D017EB28
:202915002400F582EC3401F583E0FCBC4405D22E023F3B7452B599028003023F3B8F137CDE
:2029350000740C2BF582E43CF583751A0D8C1BC014C01375D00012770275D010A982AA8361
:20295500D013D014E92400F582EA3401F583E0FABA4F028003023F3B740B2BF582E43CF566
:2029750083751A0D751B0075D00012770275D010AB82AC83EB2400F582EC3401F583E0FC17
:20299500BC52028003023F3B9000F9E4F0023F3B9000BBE0FC04F0EC2417F582E43400F574
:2029B50083E599F07422B599369000FEE0FC7B00740C2CF582E43BF583751A0D8B1B75D0D1
:2029D5000012770275D010AB82AC83EB2400F582EC3401F583E0FCBC20059000BBE4F07437
:2029F5002CB599028003023F3B9000FEE0FC7B00740C2CF582E43BF583751A0D8B1B75D021
:202A15000012770275D010AB82AC83EB2400F582EC3401F583E0FCBC22028003023F3B90FB
:202A350000FCE4F09000BBF0023F3B7431B599028003023F3BD22E023F3B9000BBE0FC045F
:202A5500F0EC2417F582E43400F583E599F0744BB599699000FEE0FB7C00740C2BF582E474
:202A75003CF583751A0D8C1BC014C01375D00012770275D010A982AA83D013D014E9240052
:202A9500F582EA3401F583E0FABA4C30740B2BF582E43CF583751A0D751B0075D000127750
:202AB5000275D010AB82AC83EB2400F582EC3401F583E0FCBC43059000BBE4F0740DB59961
:202AD500028003023F3B9000FEE0FC7B00740C2CF582E43BF583751A0D8B1B75D000127731
:202AF5000275D010AB82AC83EB2400F582EC3401F583E0FCBC22028003023F3B9000FCE4C4
:202B1500F09000BBF0023F3B743EB59912907B7575F08075D0001203B575D010023F3BBEE4
:202B350047028003022C0B8F137C00740C2BF582E43CF583751A0D8C1BC017C016C015C01E
:202B550014C01375D00012770275D010A982AA83D013D014D015D016D017E92400F582EA15
:202B75003401F583E0FABA4E028003022C0B740B2BF582E43CF583751A0D751B00C017C077
:202B950016C015C014C01375D00012770275D010A982AA83D013D014D015D016D017E9248B
:202BB50000F582EA3401F583E0FABA4949740A2BF582E43CF583751A0D751B00C017C0163B
:202BD500C01575D00012770275D010AB82AC83D015D016D017EB2400F582EC3401F583E0D9
:202BF500FCBC5212907E8D75F08075D0001203B575D010023F3BBE3A028003022D5D8F1399
:202C15007C00740C2BF582E43CF583751A0D8C1BC017C016C015C014C01375D0001277022D
:202C350075D010A982AA83D013D014D015D016D017E92400F582EA3401F583E0FABA49025F
:202C55008003022D5D740B2BF582E43CF583751A0D751B00C017C016C015C014C01375D0FD
:202C75000012770275D010A982AA83D013D014D015D016D017E92400F582EA3401F583E093
:202C9500FABA54028003022D5D740A2BF582E43CF583751A0D751B00C017C016C015C014CC
:202CB500C01375D00012770275D010A982AA83D013D014D015D016D017E92400F582EA3494
:202CD50001F583E0FABA4D028003022D5D74092BF582E43CF583751A0D751B00C017C016E4
:202CF500C015C014C01375D00012770275D010A982AA83D013D014D015D016D017E9240040
:202D1500F582EA3401F583E0FABA433C74082BF582E43CF583751A0D751B00C017C016C02E
:202D35001575D00012770275D010AB82AC83D015D016D017EB2400F582EC3401F583E0FC3B
:202D5500BC2B05D20C023F3BE4BE200104FC7003022F0C8F127B00740C2AF582E43BF583D1
:202D7500751A0D8B1BC017C016C015C014C013C01275D00012770275D010A882A983D012A4
:202D9500D013D014D015D016D017E82400F582E93401F583E0F9B93A028003022F0C740B7F
:202DB5002AF582E43BF583751A0D751B00C017C016C015C014C013C01275D000127702755A
:202DD500D010A882A983D012D013D014D015D016D017E82400F582E93401F583E0F9B94C56
:202DF500028003022F0C740A2AF582E43BF583751A0D751B00C017C016C015C014C013C031
:202E15001275D00012770275D010A882A983D012D013D014D015D016D017E82400F582E949
:202E35003401F583E0F9B947028003022F0C74092AF582E43BF583751A0D751B00C017C0BD
:202E550016C015C014C013C01275D00012770275D010A882A983D012D013D014D015D0160A
:202E7500D017E82400F582E93401F583E0F9B94D028003022F0C74082AF582E43BF5837573
:202E95001A0D751B00C017C016C015C014C013C01275D00012770275D010A882A983D0120E
:202EB500D013D014D015D016D017E82400F582E93401F583E0F9B9433E74072AF582E43B1D
:202ED500F583751A0D751B00C017C016C015C01475D00012770275D010AA82AB83D014D0B0
:202EF50015D016D017EA2400F582EB3401F583E0FBBB2B030230A0EC70030230EB8F137C8E
:202F150000740C2BF582E43CF583751A0D8C1BC017C016C015C014C01375D0001277027531
:202F3500D010A982AA83D013D014D015D016D017E92400F582EA3401F583E0FABA3A028060
:202F5500030230EB740B2BF582E43CF583751A0D751B00C017C016C015C014C01375D000E9
:202F750012770275D010A982AA83D013D014D015D016D017E92400F582EA3401F583E0FA96
:202F9500BA500280030230EB740A2BF582E43CF583751A0D751B00C017C016C015C014C076
:202FB5001375D00012770275D010A982AA83D013D014D015D016D017E92400F582EA340150
:202FD500F583E0FABA490280030230EB74092BF582E43CF583751A0D751B00C017C016C095
:202FF50015C014C01375D00012770275D010A982AA83D013D014D015D016D017E92400F508
:2030150082EA3401F583E0FABA4C0280030230EB74082BF582E43CF583751A0D751B00C05E
:2030350017C016C015C014C01375D00012770275D010A982AA83D013D014D015D016D0171C
:20305500E92400F582EA3401F583E0FABA430280030230EB74072BF582E43CF583751A0D76
:20307500751B00C017C016C01575D00012770275D010AB82AC83D015D016D017EB2400F5F2
:2030950082EC3401F583E0FCBC2B4B8F137C0074092BF582E43CF583751A0D8C1B75D00095
:2030B50012770275D010AB82AC83EB2400F582EC3401F583E0FCBC4C03D38001C3920640CA
:2030D50006300E03023F3BC20BC209C2089000FC7403F0023F3BBE4B698F137C00740C2B0C
:2030F500F582E43CF583751A0D8C1BC017C016C01575D00012770275D010AB82AC83D01581
:20311500D016D017EB2400F582EC3401F583E0FCBC4F2FBD02059000BBE4F0A22FB3922E71
:20313500C22F9000BBE07003023F3B9000BBE4F0907DF075F08075D0001203B575D0100208
:203155003F3BBE54028003023F3B8F147D00740C2CF582E43DF583751A0D8D1BC015C01404
:2031750075D00012770275D010AA82AB83D014D015EA2400F582EB3401F583E0FBBB4F02EE
:203195008003023F3B740B2CF582E43DF583751A0D751B0075D00012770275D010AC82AD34
:2031B50083EC2400F582ED3401F583E0FDBD4E028003023F3BD22F023F3BBE20028003028B
:2031D5003F3B8F147D00740C2CF582E43DF583751A0D8D1BC015C01475D00012770275D082
:2031F50010AA82AB83D014D015EA2400F582EB3401F583E0FBBB3A028003023F3B740B2CEE
:20321500F582E43DF583751A0D751B00C015C01475D00012770275D010AA82AB83D014D081
:2032350015EA2400F582EB3401F583E0FBBB5A028003023F3B740A2CF582E43DF583751A0D
:203255000D751B00C015C01475D00012770275D010AA82AB83D014D015EA2400F582EB3427
:2032750001F583E0FBBB54028003023F3B74092CF582E43DF583751A0D751B00C015C01447
:2032950075D00012770275D010AA82AB83D014D015EA2400F582EB3401F583E0FBBB5402C8
:2032B5008003023F3B74082CF582E43DF583751A0D751B00C015C01475D00012770275D058
:2032D50010AA82AB83D014D015EA2400F582EB3401F583E0FBBB55028003023F3B74072CF6
:2032F500F582E43DF583751A0D751B00C015C01475D00012770275D010AA82AB83D014D0A1
:2033150015EA2400F582EB3401F583E0FBBB53028003023F3B74062CF582E43DF583751A37
:203335000D751B00C015C01475D00012770275D010AA82AB83D014D015EA2400F582EB3446
:2033550001F583E0FBBB50028003023F3B8C828D83A3A3A3A3A3751A0D751B0075D0001228
:20337500770275D010AC82AD83EC2400F582ED3401F583E0FDBD2A028003023F3B9000FF97
:20339500E4F09000FC04F0023F3B740DB5990280209000FFE0FDBD1E0050169000FFED04AA
:2033B500F0ED240FF582E43401F583E599F0023F3B9000FFE0FD1DED3395E0FCED240FF5C7
:2033D50082EC3401F583E4F09000FCE09000FDF09000FCE4F0D22E023F3B200B030234724E
:2033F5009000BBE0FD7023740DB599028003023F3B30060D9000BA7402F09000B9E02401EC
:20341500F09000FC7405F0023F3BBD0A0D7422B599089000BBE4F0023F3B200813ED24018E
:20343500F582E43400F583E0FCB599028002D208300A0E20090DED90F01193FCB59902808D
:2034550002D2099000BBED04F0200803023F3B200903023F3B9000FCE4F0023F3B30063CB1
:20347500BE30398F147D00740C2CF582E43DF583751A0D8D1BC017C01675D00012770275FE
:20349500D010AC82AD83D016D017EC2400F582ED3401F583E0FDBD220302354DBE34028034
:2034B500030235558F147D00740C2CF582E43DF583751A0D8D1BC015C01475D000127702CF
:2034D50075D010AA82AB83D014D015EA2400F582EB3401F583E0FBBB3866740B2CF582E408
:2034F5003DF583751A0D751B00C015C01475D00012770275D010AA82AB83D014D015EA24D7
:2035150000F582EB3401F583E0FBBB2B33740A2CF582E43DF583751A0D751B0075D0001256
:20353500770275D010AC82AD83EC2400F582ED3401F583E0FDBD2208D20B9000BB7401F0D8
:20355500740DB599028003023F3B9000FCE4F0023F3B300D3F743BB599028027740DB599B9
:203575000280209000BBE0FDBDA00050169000BBED04F0ED2417F582E43400F583E599F0E0
:20359500023F3B9000BBE4F0C20D9000FCE4F0D20E023F3BBE2C0280030236B78F147D0072
:2035B500740C2CF582E43DF583751A0D8D1BC015C01475D00012770275D010AA82AB83D0FE
:2035D50014D015EA2400F582EB3401F583E0FBBB430280030236B7740B2CF582E43DF583B8
:2035F500751A0D751B00C015C01475D00012770275D010AA82AB83D014D015EA2400F58214
:20361500EB3401F583E0FBBB550280030236B7740A2CF582E43DF583751A0D751B00C015E3
:20363500C01475D00012770275D010AA82AB83D014D015EA2400F582EB3401F583E0FBBBA6
:20365500446074092CF582E43DF583751A0D751B00C015C01475D00012770275D010AA82D2
:20367500AB83D014D015EA2400F582EB3401F583E0FBBB502D74082CF582E43DF583751AC7
:203695000D751B0075D00012770275D010AC82AD83EC2400F582ED3401F583E0FDBD2A020E
:2036B50080047D0080027D01ED24FF920D740DB599028003023F3B9000BB7401F09000FC39
:2036D500E4F0023F3B743EB5990A9000FCE4F0D22E023F3BBE52028003023F3B8F147D006E
:2036F500740C2CF582E43DF583751A0D8D1BC015C01475D00012770275D010AA82AB83D0BD
:2037150014D015EA2400F582EB3401F583E0FBBB52028003023F3B740B2CF582E43DF583DA
:20373500751A0D751B0075D00012770275D010AC82AD83EC2400F582ED3401F583E0FDBD0A
:2037550045028003023F3B9000F9E4F0023F3B300F669000F7E0FDBD50028003BD660574FE
:2037750020B5990FBD74028003BD6E2F7464B5990280289000BBE0FDBDA000501E742EB58D
:203795009903023F3B9000BBED04F0ED2417F582E43400F583E599F0023F3BC20FC2119083
:2037B50000BBE0FD2417F582E43400F583E4F09000BBF0D22E023F3B9000F7E0FDBD50021C
:2037D500800302392ABE3D02800302392A8F137C00740C2BF582E43CF583751A0D8C1BC02C
:2037F50017C016C015C014C01375D00012770275D010A982AA83D013D014D015D016D01755
:20381500E92400F582EA3401F583E0FABA6802800302392A740B2BF582E43CF583751A0D3D
:20383500751B00C017C016C015C014C01375D00012770275D010A982AA83D013D014D01591
:20385500D016D017E92400F582EA3401F583E0FABA6E02800302392A740A2BF582E43CF54A
:2038750083751A0D751B00C017C016C015C014C01375D00012770275D010A982AA83D013FB
:20389500D014D015D016D017E92400F582EA3401F583E0FABA6902800302392A74092BF5DE
:2038B50082E43CF583751A0D751B00C017C016C015C014C01375D00012770275D010A98234
:2038D500AA83D013D014D015D016D017E92400F582EA3401F583E0FABA683A74082BF582BE
:2038F500E43CF583751A0D751B00C017C016C01575D00012770275D010AB82AC83D015D037
:2039150016D017EB2400F582EC3401F583E0FCBC6303023CC5BD74028003023A82BE200221
:203935008003023A828F137C00740C2BF582E43CF583751A0D8C1BC017C016C015C014C000
:203955001375D00012770275D010A982AA83D013D014D015D016D017E92400F582EA3401A6
:20397500F583E0FABA3A028003023A82740B2BF582E43CF583751A0D751B00C017C016C057
:2039950015C014C01375D00012770275D010A982AA83D013D014D015D016D017E92400F55E
:2039B50082EA3401F583E0FABA47028003023A82740A2BF582E43CF583751A0D751B00C017
:2039D50017C016C015C014C01375D00012770275D010A982AA83D013D014D015D016D01773
:2039F500E92400F582EA3401F583E0FABA4B028003023A8274092BF582E43CF583751A0D22
:203A1500751B00C017C016C015C014C01375D00012770275D010A982AA83D013D014D015AF
:203A3500D016D017E92400F582EA3401F583E0FABA543A74082BF582E43CF583751A0D75A0
:203A55001B00C017C016C01575D00012770275D010AB82AC83D015D016D017EB2400F582FB
:203A7500EC3401F583E0FCBC2003023CC5BD66028003023BDABE3A028003023BDA8F137C69
:203A950000740C2BF582E43CF583751A0D8C1BC017C016C015C014C01375D00012770275A6
:203AB500D010A982AA83D013D014D015D016D017E92400F582EA3401F583E0FABA430280CC
:203AD50003023BDA740B2BF582E43CF583751A0D751B00C017C016C015C014C01375D00064
:203AF50012770275D010A982AA83D013D014D015D016D017E92400F582EA3401F583E0FA0B
:203B1500BA4B028003023BDA740A2BF582E43CF583751A0D751B00C017C016C015C014C0F5
:203B35001375D00012770275D010A982AA83D013D014D015D016D017E92400F582EA3401C4
:203B5500F583E0FABA54028003023BDA74092BF582E43CF583751A0D751B00C017C016C004
:203B750015C014C01375D00012770275D010A982AA83D013D014D015D016D017E92400F57C
:203B950082EA3401F583E0FABA203A74082BF582E43CF583751A0D751B00C017C016C015A5
:203BB50075D00012770275D010AB82AC83D015D016D017EB2400F582EC3401F583E0FCBC06
:203BD5002E03023CC5BD6E028003023F3BBE20028003023F3B8F147D00740C2CF582E43D2D
:203BF500F583751A0D8D1BC015C01475D00012770275D010AA82AB83D014D015EA2400F500
:203C150082EB3401F583E0FBBB3A028003023F3B740B2CF582E43DF583751A0D751B00C0FD
:203C350015C01475D00012770275D010AA82AB83D014D015EA2400F582EB3401F583E0FB46
:203C5500BB43028003023F3B740A2CF582E43DF583751A0D751B00C015C01475D0001277F3
:203C75000275D010AA82AB83D014D015EA2400F582EB3401F583E0FBBB4B028003023F3BB6
:203C950074092CF582E43DF583751A0D751B0075D00012770275D010AC82AD83EC2400F5A2
:203CB50082ED3401F583E0FDBD54028003023F3BD20F023F3B200F03023D5B9000F7E0FD57
:203CD500BD50028003BD6E05740AB59912BD66057422B5990ABD743D742EB5990280369073
:203CF50000BBE0FDBD0A00502CBD0900501E8D149000BBED04F00CEC3395E0FBEC240CF527
:203D150082EB3400F583E599F0023F3B9000BBED04F0023F3BC20FC2119000BBE0FDBD0A50
:203D3500005016D22E0DED3395E0FCED240CF582EC3400F583E4F080059000F9E4F09000F8
:203D5500BBE4F0023F3B9000F7E0FDBD5040BE3A3D8F137C00740C2BF582E43CF583751AF6
:203D75000D8C1BC017C016C01575D00012770275D010AB82AC83D015D016D017EB2400F5C1
:203D950082EC3401F583E0FCBC2903023E22BD6E3FBE303C8F137C00740C2BF582E43CF5E4
:203DB50083751A0D8C1BC017C016C01575D00012770275D010AB82AC83D015D016D017EB88
:203DD5002400F582EC3401F583E0FCBC2002803DBD66028003BD743ABE34378F157E007451
:203DF5000C2DF582E43EF583751A0D8E1BC01775D00012770275D010AD82AE83D017ED24CB
:203E150000F582EE3401F583E0FEBE3805D20F023F3B7435B599028003023ED38F157E0094
:203E3500740C2DF582E43EF583751A0D8E1BC017C016C01575D00012770275D010AB82ACEA
:203E550083D015D016D017EB2400F582EC3401F583E0FCBC3168740B2DF582E43EF5837596
:203E75001A0D751B00C017C016C01575D00012770275D010AB82AC83D015D016D017EB24B2
:203E950000F582EC3401F583E0FCBC2031740A2DF582E43EF583751A0D751B00C01775D010
:203EB5000012770275D010AD82AE83D017ED2400F582EE3401F583E0FEBE2C02806674522D
:203ED500B599638F167F00740C2EF582E43FF583751A0D8F1BC017C01675D0001277027500
:203EF500D010AC82AD83D016D017EC2400F582ED3401F583E0FDBD522D740B2EF582E43F21
:203F1500F583751A0D751B0075D00012770275D010AE82AF83EE2400F582EF3401F583E05C
:203F3500FFBF4502D2319000FEE02401F0E0FF24F350059000FEE4F0C298D0D0D000D00199
:203F5500D002D003D004D005D006D007D083D082D0F0D0E0D02932C2107F00EF2417FDE4B5
:203F75003400FE0F8D828E83E0600543C11080EBBFA000500FEF2417F582E43400F5830F09
:203F9500E4F080EC900017E0FFBF3F028008900018E0FFBF3F062008030220B3900018E0AB
:203FB500FFBF43030246B6BF4503024850BF48028044BF4903024D18BF5003024BE4BF53B5
:203FD5000302476EBF5403024D89BF63030246B6BF6503024850BF6802801BBF6903024D02
:203FF50018BF7003024BE4BF730302476EBF7403024D890250B990001AE0FF24CF4003026B
:2040150040BDBF350040030240BD90001DE060030240BD90001BE0FEBE44028003BE640433
:204035007D04800CBE53028007BE73028002D21020101C90001CE0FEBE4102800ABE6102AB
:204055008005EF24CD50088D0674082EFD801720100890001CE0FEBE530A90001CE0FEBE98
:2040750073028002D2108F06EE24D02DFEC00612031CD0069000BDEEF0120357D243907E29
:204095009275F080121C4EC2AF900200120304C2A07518009000051202E9D2A3900FA012B5
:2040B50004A375C760024653BF2B02800302427A90001BE0FEC3742F9EE433FD7003024288
:2040D50005BE3300400302420590001CE0FC24D04003024205BC3A00400302420590001D12
:2040F500E0FB24D04003024205BB3600400302420590001EE0F56C24D0400302420574C62A
:20411500256C5003024205900020E0F56824D0400302420574CD25685003024205900021D5
:20413500E0F56924D0400302420574C625695003024205900022E0F56A24D04003024205D7
:2041550074CA256A5003024205900023E0F56B24D0400302420574C6256B50030242058E7A
:204175000274022AF56DAA68C39A75F00AA42404F56D254A2CAC69C39CFAAC6A74062CC392
:204195009B75F00AA4256BAB6CC39BF5668A6E756F00AB497C00743C2BF570E43CF571AA40
:2041B500667C00C3E5709AE57164808CF063F08095F0E433FA7C00E56EC39AF582E56F9CA4
:2041D500F583751A0C8C1B127702AB828B4CAC4974782CAB66C39BFC7B00751A3C8B1B8C91
:2041F500828B83127702AB828B50120F13024653ED606DBE3600506890001CE0FD24D05085
:204215005FBD3A00505AEE24D075F00AA42D24D0FEAD4C740C2DFDC3E5509EE433FCEDC379
:204235009CFD7C00751A0C8C1B8D828C83C006127702AC82D0068C4CAC507D00743C2CFC76
:20425500E43DFD7B00ECC39EF582ED9BF583751A3C8B1B127702AD828D50120F1302465315
:20427500D210024653BF2D4690001BE0FF24D05038BF3600503390001CE0FE24D0502ABE46
:204295003A005025EF24D075F00AA4AD502D2E24D0F55024C4500CE54C04F54CE550FF24C1
:2042B500C4F550120F13024653D21002465390001BE0FFBF4E028003BF6E2430080302509A
:2042D500DF12031C9000BDE054EFF0120357C236787F7600788076187881763C024653BFFD
:2042F50046028003BF661A3008030250DF12031C9000BDE04410F0120357D236C2C2024651
:20431500539001327403F0756701900132E0FE2417F582E43400F583E0FDBD2C46E5677083
:20433500099001327465F002463DAB677C0074012BF570E43CF57190012DE0FA7C007401AC
:204355002AF51AE43CF51B857082857183C006127702AB82AC83D0068B67900132EE04F0D5
:2043750002463DBD30005015E56770057C65FE80047CCA7E00900132ECF002463DE5677089
:2043950042BD6702800DBD47028008BD61028003BD4130C2C2787F7600122133AD4A7E00E8
:2043B500751A0C8E1B8D828E83127702AD82AE838D4B788076187881763C9001327465F004
:2043D50002463D900132E0FE2417F582E43400F583E0FD24D04003024637BD330040030298
:2043F50046378E037C0074012BFAE43CFFEA2417F582EF3400F583E0FF24D0400302463799
:2044150074012BFAE43CFFEA2417F582EF3400F583E0FFBF3A00400302463774022BFAE47E
:204435003CFFEA2417F582EF3400F583E0FF24D0400302463774022BFAE43CFFEA2417F58C
:2044550082EF3400F583E0FFBF3600400302463774032BFAE43CFFEA2417F582EF3400F525
:2044750083E0FF24D0400302463774032BFAE43CFFEA2417F582EF3400F583E0FFBF3A0045
:204495004003024637E567700302457BE56714F56E244CF5708D027F00EA24D0F51AEF340E
:2044B500FFF51B90000AC006C004C003127653858272858373D003D00474012BFAE43CFFC2
:2044D500EA2417F582EF3400F583E07A002572FFEA3573FAEF24D0F582EA34FFF583751A96
:2044F5000C751B00C004C003127702AA82D003D004A870A602E56E2450F974022BFAE43CEB
:20451500FFEA2417F582EF3400F583E024D075F00AA4F57274032BFAE43CFFEA2417F582AB
:20453500EF3400F583E0257224D0F7120F13AA677F0074012AF572E43FF57390012DE0FF77
:204555007A0074012FF51AE43AF51B857282857383127702AA82AF83D0068A679001327410
:20457500052EF002463DC2C2787FE4F6FFED24D0F51AEF34FFF51B90000AC004C00312765F
:2045950053AE82AF83D003D00474012BFAE43CFDEA2417F582ED3400F583E07A002EFEEA4E
:2045B5003FFFEE24D0F582EF34FFF583751A188A1BC004C003127702AE82D003D0048E4AA8
:2045D50074022BFEE43CFFEE2417F582EF3400F583E024D075F00AA4FF74032BFBE43CFC2E
:2045F500EB2417F582EC3400F583E02F24D0F549AE4A7F00751A0C8F1B8E828F83127702C7
:20461500AE828E4B85493985483A854A8212024BC21D788076187881763C9001327465F022
:20463500800690013274CAF0900132E0FFBF6400500302431FBFCA03D38001C39210120A11
:204655001E858255120C9685825630102A30090ED243907EB775F080121C4E0250DFD24388
:20467500907ECA75F080121C4EC243907EB775F080121C4E0250DF30090ED243907EF875B9
:20469500F080121C4E0250DFD243907F1275F080121C4EC243907EF875F080121C4E025093
:2046B500DF90001BE0FFBF65028003BF45143008030250DFD244907F3F75F08012203A0298
:2046D50050DFBF6E028003BF4E143008030250DF12031C9000BE7401F01203578051BF6611
:2046F500028003BF46133008030250DF12031C9000BEE4F01203578036900019E06030907E
:20471500001AE0602A30090ED243907EB775F080121C4E0250DFD243907F5775F080121CBF
:204735004EC243907EB775F080121C4E0250DF30090ED243907F8175F080121C4E0250DF3C
:20475500D243907F9575F080121C4EC243907F8175F080121C4E0250DF3008030250DF9007
:20477500001BE0FFBF7902800DBF59028008BF44028003BF6426D243907FBC75F080121CFD
:204795004EC2AFC2A07518009000051202E9D2A3900FA01204A375C7600250DFBF670280E2
:2047B50003BF477190001FE0FE24D0505ABE3A00505512031C90001FE024D0FE9000C0F0B0
:2047D5009000E6EEF0900021E0FE24D05028BE33005023900022E0FD24D0501ABD3A0050DD
:2047F50015EE24D075F00AA42D24D0FEBE180050059000C1EEF0120357D243907FD175F05B
:2048150080121C4E0250DFD243907FE775F080121C4E0250DFBF69028003BF4910D243904F
:204835007FFF75F080121C4EC2A00250DFD24390801175F080121C4E0250DF30080302509C
:20485500DF90001BE0FFBF58028003BF781912031C9000C4E4F0120357D24490802A75F074
:204875008012203A0250DF12031C1203579000C4E4F09001327404F0900132E0FF2417F544
:2048950082E43400F583E0FE24D04003024BA2BE33004003024BA28F057F0074012DFBE436
:2048B5003FFCEB2417F582EC3400F583E0FC24D04003024BA274012DFBE43FFCEB2417F59A
:2048D50082EC3400F583E0FCBC3A004003024BA274022DFBE43FFCEB2417F582EC3400F536
:2048F50083E0FC24D04003024BA274022DFBE43FFCEB2417F582EC3400F583E0FCBC36005E
:204915004003024BA274032DFBE43FFCEB2417F582EC3400F583E0FC24D04003024BA274E7
:20493500032DFBE43FFCEB2417F582EC3400F583E0FCBC3A004003024BA274052DFBE43F1B
:20495500FCEB2417F582EC3400F583E0FC24D04003024BA274052DFBE43FFCEB2417F582B2
:20497500EC3400F583E0FCBC33004003024BA274062DFBE43FFCEB2417F582EC3400F58397
:20499500E0FC24D04003024BA274062DFBE43FFCEB2417F582EC3400F583E0FCBC3A0040F8
:2049B50003024BA274072DFBE43FFCEB2417F582EC3400F583E0FC24D04003024BA274077C
:2049D5002DFBE43FFCEB2417F582EC3400F583E0FCBC36004003024BA274082DFBE43FFC83
:2049F500EB2417F582EC3400F583E0FC24D04003024BA274082DFBE43FFCEB2417F582EC1F
:204A15003400F583E0FCBC3A004003024BA28E1A751B0090000AC007C006C005127653AB27
:204A350082AC83D005D006D007C00674012DFAE43FFEEA2417F582EE3400F583E07A002BF0
:204A5500FBEA3CFCC3EB9428EC64809482D0064003024BA2C00674052DFBE43FFCEB241720
:204A7500F582EC3400F583E0FC8C1A751B0090000AC007C006C005127653AB82AC83D00508
:204A9500D006D00774062DFAE43FFEEA2417F582EE3400F583E07A002BFBEA3CFCC3EB9478
:204AB50028EC64809482D0064003024BA2ED24FCF582EF34FFF583751A05751B00C007C002
:204AD50006C005127738AB82D005D006D00774082BFC3395E0FAEC24BDF570EA3400F5718B
:204AF500EE24D075F00AA4F57274012DFCE43FFEEC2417F582EE3400F583E0257224D0756E
:204B1500F006A4FE74022DFAE43FFCEA2417F582EC3400F583E02E24D0857082857183F016
:204B350074092BFB3395E0FEEB24BDFBEE3400FE74052DFAE43FFCEA2417F582EC3400F5C0
:204B550083E024D075F00AA4F57274062DFAE43FFCEA2417F582EC3400F583E0257224D010
:204B750075F006A4FC74072DFDE43FFFED2417F582EF3400F583E02C24D08B828E83F09076
:204B950000C4E0FF0F0F9000C4EFF08006900132744BF0900132E0240AF0E0FFBF4B00501A
:204BB5000302488D9000C4E06017900000120304120357D24490804275F08012203A02503B
:204BD500DFD24390805775F080121C4E0250DF3008030250DF90F010E493700ED2439080BD
:204BF5007275F080121C4E0250DF90001CE0FFBF54028003BF7410C2C2D24390808775F0A1
:204C150080121C4E0250DFBF4E028003BF6E2F90F010E493FEBE011812031C9000CD740284
:204C3500F0120357787F7600788076187881763CD24390809175F080121C4E0250DFBF4618
:204C5500028003BF662590F010E493FEBE020EC2C212031C9000CD7401F0120357D2439015
:204C7500809A75F080121C4E0250DF90001BE0FE24D04003024D0ABE33005079EF24D0506D
:204C950074BF3A00506F90001DE0FD24D05066BD3600506190001EE0FC24D05058BC3A00DF
:204CB5005053209242D2C2EE24D075F00AA42F24D0F582ED24D075F00AA42C24D0F51912F1
:204CD50075A39005DC1204A330920ED2439080A375F080121C4E0250DFD2439080B875F011
:204CF50080121C4E0250DFD2439080DA75F080121C4E0250DFD24390810075F080121C4E5A
:204D15000250DF3008030250DF90001BE0FFBF42028012BF6202800D90001CE0FEBE4E027A
:204D35008003BE6E1D12031C9000BF7401F0120357122133D24390811775F080121C4E023B
:204D550050DFBF54028012BF7402800DBE42028008BE620280030250DF12031C9000BFE4E2
:204D7500F0120357C21DD24390812075F080121C4E0250DF3008030250AE90001AE0FFBF88
:204D95004702800DBF67028008BF43028003BF6310D207D24390812975F080121C4E0250E4
:204DB500AEBF2B028003024EF390001BE0FEBE38028003024EF390001CE0FEBE3402800336
:204DD500024EF390001DE0FEBE30005003024EE5EE24C65003024EE590001EE0FEBE3000A0
:204DF5005003024EE5EE24C65003024EE590001FE0FEBE30005003024EE5EE24C650030286
:204E15004EE5900020E0FEBE30005003024EE5EE24C65003024EE5900021E0FEBE30005019
:204E350003024EE5EE24C65003024EE5900022E0FEBE30005003024EE5EE24C65003024E44
:204E5500E5900023E0FEBE30005003024EE5EE24C65003024EE5900024E0FEBE30004070C1
:204E7500EE24C6406B900025E0FEBE30004061EE24C6405C12031C9000CEE4F07E018E058F
:204E950074112DFD3395E0FCED24BDFDEC3400FC8E027B0074062AFAE43BFBEA2417F58264
:204EB500EB3400F583E08D828C83F00EBE0A0040CD9000D9E0FEBE02069000D97401F01288
:204ED5000357D24390814675F080121C4E0250AED24390816475F080121C4E0250AEBF30BC
:204EF50002800302500E90001BE0FEBE30005003025000EE24C6500302500090001CE0FE95
:204F1500BE30005003025000EE24C6500302500090001DE0FEBE30005003025000EE24C676
:204F3500500302500090001EE0FEBE30005003025000EE24C6500302500090001FE0FEBED0
:204F550030005003025000EE24C65003025000900020E0FEBE30005003025000EE24C650A1
:204F750003025000900021E0FEBE30005003025000EE24C64075900022E0FEBE3000406BEF
:204F9500EE24C64066900023E0FEBE3000405CEE24C6405712031C7E008E0574112DFD33D0
:204FB50095E0FCED24BDFDEC3400FC8E027B0074032AFAE43BFBEA2417F582EB3400F58391
:204FD500E08D828C83F00EBE0A0040CD9000D9E0FEBE02069000D97401F0120357D24390FF
:204FF500814675F080121C4E0250AED24390816475F080121C4E0250AEBF78028003BF58B6
:205015001A12031C9000D97402F0120357D24390818975F080121C4E0250AE90F01CE493D2
:20503500FFBF022490001BE0FFBF6E02800DBF4E028008BF66028003BF465ED243908198CF
:2050550075F080121C4E805190001BE0FFBF4E028003BF6E1912031C9000D97401F0120393
:2050750057D2439081CA75F080121C4E802BBF46028003BF661812031C9000D9E4F012037E
:2050950057D2439081D975F080121C4E800BD2439081E875F080121C4E90F01CE493FF1325
:2050B500920A802630090DD24390820575F080121C4E8016D24390821875F080121C4EC2CE
:2050D5004390820575F080121C4E43C1107F00EF2417FDE43400FE8D828E83E0600FEF24AE
:2050F50017F582E43400F5830FE4F080E2227F007E008F937594FF8F928F918F957596FF80
:205115008FB28FB175B30275B41C8FCA8FC98FC075B0FF8FA075B881759D088F978FBD7588
:20513500BC83D2ADD2AF9000E774FAF09000B9E4F075560575550590000C7430F09000B812
:20515500740AF09000F37402F09000F2F09000F1F09000F47407F09000F57401F0C007C0A0
:2051750006120F8F12031CD006D0079000BDE0FDBDFF059000BDE4F09000BEE024FE5005D5
:205195009000BEE4F09000BFE024FE50069000BF7401F09000C0E024F650069000C0740118
:2051B500F09000C1E024E850059000C1E4F09000C3E0FDC4540FFC7B001CBCFF011BC3743B
:2051D500089C74808BF063F08095F0500A740F5D4450FD9000C3F09000C3E0FD53050F7C2E
:2051F500001DBDFF011CC374089D74808CF063F08095F0500F9000C3E0FD74F05D4401FD6E
:205215009000C3F09001337401F09000C4E0FDBD0900502EED20E02A7C01C3ED9C401E8CCE
:205235000374072BFB3395E0FAEB24BDF582EA3400F583E0FBBB900050030C80DD90013394
:20525500ECF0900133E0FCC3ED9C40129000C47402F09000C57424F09000C6746CF09001D1
:2052750033E4F09000D9E0FDBD020050479000D8E07041FDBD0A0050368D0474112CFB33C3
:2052950095E0FAEB24BDF582EA3400F583E0FBBB3000401B74112CFC3395E0FBEC24BDF57E
:2052B50082EB3400F583E0FC24C640030D80C5900133EDF0900133E0FDBD0A00500B900071
:2052D500D8E4F09000D97402F09000DAE0FD24E750059000DAE4F03092079000CDE4F080DF
:2052F500129000CDE0FD6005ED24FD50069000CD7402F09000DBE0FD53050F7C001DBDFFBD
:20531500011CC3740A9D74808CF063F08095F050069000DB743BF09000DCE024FE50069001
:2053350000DC7401F0C007C006120357D006D00790F000E493FD74035D90012D04F090F077
:2053550000E493A2E2923490F000E493A2E39235921290F000E493A2E4923690F000E49354
:20537500FDA2E5923720341920351690F000E493FD5305C0E43395E0FDFC9000EDEDF08088
:20539500059000EDE4F090F01EE493FD530560E403CDC40354076DCD5407CD6DCD30E20252
:2053B50044F8FC900130EDF07D00ED2401FBE43400FC900130E0FABA02005008ED90779031
:2053D50093FA8006ED90778593FA8B828C83EAF00DBD0B0040D490012FE4F090F01E93FDFE
:2053F50053050F7C00C3ED9406EC64809480501190F01EE493FD740F5D04FC3395E0FD800F
:205415002790F01EE493FB53030F7A00740CC39BF51AE49AF51B90003CC007C006127738CC
:20543500AC82AD83D006D00790012EECF090F01EE49330E405BC3C00500690012F743DF0D4
:2054550090F000E49330E6067CFF7D0080113034067A1E7B0080047A0A7B008A048B0590ED
:2054750000ECECF090012DE0FDBD0103025534BD02028075BD0302803ABD04028003025599
:205495006A9000EBECF090F206E493FD24C4400A90F207E493FD24F4500BC007C006120FEA
:2054B50013D006D00790F206E493F55390F207E493F54F9000ECE0FD9000EAF090F204E45F
:2054D50093FD24C4400A90F205E493FD24F4500BC007C006120F13D006D00790F204E4931C
:2054F500F55290F205E493F54E9000ECE0FD9000E9F090F202E493FD24C4400A90F203E4BA
:2055150093FD24F4500BC007C006120F13D006D00790F202E493F55190F203E493F54D90F6
:2055350000ECE0FD9000E8F090F200E493FD24C4400A90F201E493FD24F4500BC007C00606
:20555500120F13D006D00790F200E493F55090F201E493F54CD2A2C007C006120388D00668
:20557500D00790F010E4936017C007C00612758DD006D007787F7600788076187881763CD5
:20559500D20390F003E4939000E6F0C007C006120F79120643D006D007202203025DE120ED
:2055B5002603025DE1202A03025DE17575007C0090F01EE493F57490F01FE493F57690F0FB
:2055D50000E493FDC22AC226C22290823E75F080C005C0041205D990824F75F0801205D9A6
:2055F50090012DE02430F5821204FBD004D005303408757755757882800675775B7578821B
:20561500C005AA77AB787D808A828B838DF0C005C0041205D9D004D005D0053035067A619B
:205635007B8280047A677B82C0057D808A828B838DF0C005C0041205D990826D75F08012AE
:2056550005D9D004D0059000EDE0FD2430F582C005C0041204FB753E047582C01204D0D0CB
:2056750004D00590012DE0149000F5F09000F4E4F0D005EC7003025A11203F03025878C028
:2056950005C23F90827175F080C005C0041205D9D004D005857477757800740F5577FB7D41
:2056B50000C3EB9406ED64809480D005500DAB74740F5B04FA3395E0FB802BC005740F5590
:2056D50077F579757A00740CC39579F51AE4957AF51B90003CC005C004127738AA82AB830E
:2056F500D004D005D0059000F4E0700B302D0875795F757A008029C0058A037D00751A0A86
:205715008D1B8B828D83C004C002127738AB82D002D00474302BFB8B793395E0F57AD005DB
:20573500857982C005C004C0021204FBD002D004D0059000F4E0700B302D0875795F757A7D
:205755000080257B00751A0A8B1B8A828B83C005C004127702AA82AB83D004D00574302AD6
:20577500FA8A793395E0F57A857982C005C0041204FB90827575F0801205D9D004D0059051
:2057950000F4E0FBBB0109302D067A5F7B008032C00574605577F579E4F57AC403C579C408
:2057B5000354076579C5795407C5796579C57930E20244F8F57AAD7974302DFA3395E0FB52
:2057D500D0058A82C005C0041204FB90827975F0801205D9D004D0059000F4E0FBBB02090B
:2057F500302D067A5F7B008030C00574105577F579E4F57AC4C579C4540F6579C579540FAF
:20581500C5796579C57930E30244F0F57AAD7974302DFA3395E0FBD0058A82C005C0041251
:2058350004FB90827D75F0801205D9D004D0059000F4E0FBBB0309302D067A5F7B008016D4
:20585500E5766008757954757A00800675794E757A00AA79AB7A8A82C005C0041204FBD0D0
:2058750004D00510220302590B9000F4E02401F0E0FBBB0102800FBB0202802ABB03028055
:2058950043BB04728046AA74530260E403CAC40354076ACA5407CA6ACA30E20244F8FB90AB
:2058B50000F5EAF08050AA74530210E4CAC4540F6ACA540FCA6ACA30E30244F0FB9000F57E
:2058D500EAF080329000F5E576F0802AC005C00412031C9000BDE054EFF09000DBE574F0DF
:2058F5009000DCE576F0120357900200120304D004D00575C76010260280659000F4E0FB04
:20591500E06006EB149000F4F09000F4E0FB600ABB0102800FBB0248802A9000F5740F5597
:2059350074F0803CAA74530260E403CAC40354076ACA5407CA6ACA30E20244F8FB9000F52F
:20595500EAF0801CAA74530210E4CAC4540F6ACA540FCA6ACA30E30244F0FB9000F5EAF02C
:20597500102A030256889000F5E02401F09000F4E0FB24FC5003025688EB2B905994738043
:205995000680218040805E9000F5E024F450059000F5E4F074F05574FB9000F5E0FA4BF5BB
:2059B500740256889000F5E024FD50059000F5E4F0741F5574FB9000F5E0C42354E0FA4B2E
:2059D500F5740256889000F5E024FE50059000F5E4F074EF5574FB9000F5E0C454F0FA4B5B
:2059F500F5740256889000F5E0FB24FE50059000F5E4F09000F5E0F5760256889000F4E005
:205A1500FB24FA5003025BCEEB2B2B905A2473025A36025A50025AA7025AF3025B3A025B94
:205A35005690012DE0149000F5F07582C4C005C004120559D004D005025BCE9000F5A234F1
:205A5500E433F0C005C0041205B4D004D005103F03025BCE302D067A817B82801B30340B4B
:205A7500757B55757C82757D808009757B5B757C82757D80AA7BAB7CC0057D808A828B8306
:205A95008DF0C005C0041205D9D004D005D005025BCE9000F5A235E433F0103F03025BCE72
:205AB500302D067A877B82801B30350B757B61757C82757D808009757B67757C82757D806A
:205AD500AA7BAB7CC0057D808A828B838DF0C005C0041205D9D004D005D005025BCE90005A
:205AF500EDE09000F5F0103F03025BCE90826D75F080C005C0041205D9D004D005302D06E9
:205B15007A5F7B00800FC0059000EDE02430FA3395E0FBD0058A82C005C0041204FBD0042B
:205B3500D005025BCE90828C75F080C005C0041205D990829E75F0801205D9D004D00580A6
:205B55007874105DFB90012DE0FA1AEA2BFB303408757B04757C008005E4F57BF57CE57B1F
:205B75002BFB90012DE0FABA01028016303508757B08757C008005E4F57BF57C8B02E57B72
:205B95002AFB20341120350E9000EDE0030354C0F57B8B022AFB900000C005C004C003127C
:205BB5000304900200120304D0038B189000001202E9D004D00575C760102A03025C6E7558
:205BD50075009000F4E0FB24FC5003025C6EEB2B905BE9738006803E804E805C9000F5E0ED
:205BF500FBBB030050090BEBFA3395E0FB80047A007B009000F5EAF00A90012DEAF07430CD
:205C15002AF582C005C0041204FB7582C4120559D004D00580439000F5E0FB7401C39BFB6F
:205C350024FF9234EBF080319000F5E0FB7401C39BFB24FF9235EBF09000F5E0FBBB0300C9
:205C550050090BEBFA3395E0FB80047A007B009000F5EAF09000EDEAF0102203025D027509
:205C750075009000F4E02401F090824F75F080C005C0041205D990012DE02430F5821204E3
:205C9500FBD004D0053034067A557B8280047A5B7B82C0057D808A828B838DF0C005C004DD
:205CB5001205D9D004D005D0053035067A617B8280047A677B82C0057D808A828B838DF063
:205CD500C005C0041205D990826D75F0801205D9D004D0059000EDE0FD2430F582C005C08F
:205CF500041204FB1205B4D004D005D0051026030256889000F4E0FBE06006EB149000F4F0
:205D1500F090823E75F080C005C0041205D990824F75F0801205D990012DE02430F582121F
:205D350004FBD004D0053034067A557B8280047A5B7B82C0057D808A828B838DF0C005C03C
:205D5500041205D9D004D005D0053035067A617B8280047A677B82C0057D808A828B838DAE
:205D7500F0C005C0041205D990826D75F0801205D9D004D0059000EDE0FD2430F582C005BE
:205D9500C0041204FBD004D005D0059000F4E06003025688AB750575EB24F7501B7C01C0AC
:205DB50005C0041205B4D004D00590F01EE4939000F5540FF0025688753E047582C0C00591
:205DD500C0041204D0D004D00502568875BC8B7533497534007535407536487537007538EF
:205DF5004090004A75F040C007C0061201BBD006D007E54A24E8400CE54924C44006E548B7
:205E150024C45014753900753A00758200C007C00612024BD006D007C007C0061200F0D2D3
:205E3500A8D28875334975340075354075364875370075384090004A75F0401201BBD00618
:205E5500D00790F01CE493FD13920A203070C007C0061220E1D006D0075063C007C0061238
:205E7500213312231E122367D006D007505090F005E4937015D2439082B075F080C007C0B9
:205E950006121C4ED006D0078029D2439082CD75F080C007C006121C4ED006D007300A1339
:205EB500C2439082CD75F080C007C006121C4ED006D007C007C0061217E9D006D007E54AD3
:205ED50024F45007E54A24F4FD8002AD4A8D4B90F005E493701C9000F67405F0C007C006A5
:205EF50012031C9000C274FFF0120357D006D00780069000F6743CF075C16590012DE0FDAC
:205F1500BD042090F206E493B5530B90F207E493FDB54F02800DC007C006120F13D006D082
:205F350007807090012DE0FD24FD502090F204E493B5520B90F205E493FDB54E02800DC0CD
:205F550007C006120F13D006D007804790012DE0FD24FE502090F202E493B5510B90F203F9
:205F7500E493FDB54D02800DC007C006120F13D006D007801E90F200E493B5500B90F2016F
:205F9500E493FDB54C02800BC007C006120F13D006D0079000F6E060069000F4E0702B9021
:205FB50000F4E4F07405B5550EC007C006120A1E858255D006D0077405B5560EC007C00684
:205FD500120C96858256D006D007101F030261499082E175F080C007C0061203B59000DE73
:205FF500E0FD7C00751A0A8C1B8D828C83127738AC8274302CF5821203A09000DEE0FD7C23
:2060150000751A0A8C1B8D828C83127702AC8274302CF5821203A09000DFE0FD7C00751A01
:206035000A8C1B8D828C83127738AC8274302CF5821203A09000DFE0FD7C00751A0A8C1B89
:206055008D828C83127702AC8274302CF5821203A09000E0E0FD7C00751A0A8C1B8D828CB4
:2060750083127738AC8274302CF5821203A09000E0E0FD7C00751A0A8C1B8D828C831277ED
:2060950002AC8274302CF5821203A0AC4A7D00751A0A8D1B8C828D83127738AC8274302C2E
:2060B500F5821203A0AC4A7D00751A0A8D1B8C828D83127702AC8274302CF5821203A0AC6C
:2060D500497D00751A0A8D1B8C828D83127738AC8274302CF5821203A0AC497D00751A0A90
:2060F5008D1B8C828D83127702AC8274302CF5821203A0AC487D00751A0A8D1B8C828D8340
:20611500127738AC8274302CF5821203A0AC487D00751A0A8D1B8C828D83127702AC827482
:20613500302CF5821203A09082E875F0801203B5D006D007203E2E30022BD2439082EE75F9
:20615500F080C007C006121C4ED006D007300A13C2439082EE75F080C007C006121C4ED0F4
:2061750006D007D23E303E2E20022BD2439082FC75F080C007C006121C4ED006D007300A3C
:2061950013C2439082FC75F080C007C006121C4ED006D007C23E9000E7E07018203815D20B
:2061B50038D24390830F75F080C007C006121C4ED006D0079000E8E0702E20392BD239D269
:2061D5004390831E75F080C007C006121C4ED006D007300A13C24390831E75F080C007C0AC
:2061F50006121C4ED006D00790012DE0FD24FE50349000E9E0702E203A2BD23AD24390836A
:206215002D75F080C007C006121C4ED006D007300A13C24390832D75F080C007C006121C6F
:206235004ED006D00790012DE0FD24FD50349000EAE0702E203B2BD23BD24390833C75F0BA
:2062550080C007C006121C4ED006D007300A13C24390833C75F080C007C006121C4ED0068E
:20627500D00790012DE0FDBD04349000EBE0702E203C2BD23CD24390834B75F080C007C035
:2062950006121C4ED006D007300A13C24390834B75F080C007C006121C4ED006D007201E31
:2062B5000302638220A0169000B8E014F0E0700D75BC83D2A09000B8741EF0D2059000E346
:2062D500E0FDE0602D9000E1E07027ED149000E3F0E0701E9000E17405F09000E3F0C007A1
:2062F500C006120A1E858255120C96858256D006D0077405B555028022E55524E8FCE434EE
:2063150000FD8C828D83E0FB60111B8C828D83EBF0EB7007C219C2177555057405B5560282
:206335008022E55624E8FCE43400FD8C828D83E0FB60111B8C828D83EBF0EB7007C21AC2D0
:20635500187556059000F6E0601090F010E49360032092069000F6E014F09000F1E0FDE0A0
:206375006009302406ED149000F1F0C21EC007C006120875D006D0079000F4E0701490F0C2
:2063950010E493FDBD020BC007C0061209BCD006D00790F003E49360159000E6E0700F90B5
:2063B500F004E493FDB54A06E54924FA40099000B9E0FD24FE50727405B5556D7405B55648
:2063D5006890F010E493600320925E90012EE0FDBD3C00501990F004E493FD753906753A6D
:2063F500008D82C007C00612024BD006D0079000B9E024FE5013D24390835A75F080C00704
:20641500C006121C4ED006D007C2AFC2A0751800900005C007C0061202E9D2A3900FA01233
:2064350004A3D006D00775C7603003030264D874FB254950030264D8201D2590F002E4931A
:20645500601EC007C006122133D006D007E54A24F45007E54A24F4FD8002AD4A8D4B80470F
:2064750075334975340075354075364875370075384090004A75F040C007C0061201BB75A8
:206495002ADE752B00752C00752DDF752E00752F007530E07531007532009000DD75F00032
:2064B500120108D006D00790F001E4936013D24390837F75F080C007C006121C4ED006D059
:2064D50007D203100C028029755A1A755B78755C8075580F755901907C6975F080C007C0F6
:2064F5000612153A90839075F0801203B5D006D007100702801190000175F000C007C006F4
:20651500121718D006D0079000F4E0FD24F8500302751FED240A83F582ED240C83F583E401
:20653500734640D18BE10D0DDB656C70747275756730054175BC8BC2059000FCE4F0C00783
:20655500C006122133AB4A7C00751A0C8C1B8B828C83127702AB828B4B122367D006D00754
:206575005013D24390839F75F080C007C006121C4ED006D007300E28C007C006123F6C751C
:206595005A15755B7E755C8075580F755901907DF075F08012153AD006D007C20E0267689C
:2065B50090012DE0FCBC01028014BC02028044BC03030266B8BC0403026654026714303413
:2065D500067BB57C8380047BBD7C838B428C43754480854C458550469000DDE0F547A22065
:2065F5009201758280C007C0061206C4D006D0070267147542C5754383754480854C45855E
:2066150050467547FDA2209201758280C007C0061206C47542C5754383754480854D458555
:2066350051467547FDA22092017582871206C49083C575F0801205D9D006D007026714303F
:206655001D067BC87C83801F90F002E493600B757BCC757C83757D808009757BD0757C835E
:20667500757D80AB7BAC7C8B428C43754480854A45854946854847A22092017582C5C0075C
:20669500C0061206C47542D4754383754480854F458553467547FBC2017582C01206C4D030
:2066B50006D0077542D4754383754480854C458550467547FBC201758280C007C006120622
:2066D500C47542D4754383754480854D458551467547FBC2017582851206C47542D475439A
:2066F50083754480854E458552467547FBC20175828A1206C47582201204FBD006D0079058
:20671500012DE0FCBC0402804A301D067B417C7B801F90F002E493600B757B51757C7B75A3
:206735007D808009757B49757C7B757D80AB7BAC7C8B428C43754480854A4585494685488F
:2067550047A22092017582C0C007C0061206C4D006D0079000F1E06003027528301703020C
:206775007528C2229000F6743CF09000E2E4F09000E1F09000E3F09000F47407F09000F5DF
:206795007401F0755605755505C2C2787F76001026028003027528D2439083D675F080C0F2
:2067B50007C006121C4ED006D007200A03027528C2439083EA75F080C007C006121C4ED042
:2067D50006D007027528102202802F9000F6743CF09000F5E02401F0E0FCBC040D90F0106C
:2067F500E49370069000F5EC04F09000F5E0FC24F950059000F5E4F0C22D102A02800D90BE
:2068150000F6743CF09000F5E4F0C22D102603026BD39000F6743CF09000F5E09000F4F00D
:206835009000F5E4F0C007C006120A1E858255120C96858256D006D0079000F4E070030230
:206855007528758280C007C0061205599000F4E075F011A424A3FB747735F0FC7A808B82BF
:206875008C838AF01205D9D006D0079000F4E0FC24F95003027528EC2C2C906893730275B5
:20689500280268A80269C5026A0C026A29026A4E026AF690012DE0FCBC012F3034067AB531
:2068B5007B8380047ABD7B838A428B43754480854C45855046754700D2017582C0C007C03B
:2068D500061206C4D006D007806EBC030050067BC07C0080047B807C008B827542C575431E
:2068F50083754480854C458550467547FDD201C007C0061206C4D006D00790012DE0FCBC9E
:20691500030050067BC77C0080047B877C008B827542C5754383754480854D4585514675A4
:2069350047FDD201C007C0061206C49083C575F0801205D9D006D00790012DE0FC24FD406D
:20695500030275287542C5754383754480854E458552467547FDD2017582C0C007C0061279
