:2000A700AF827E00751B0A8E1C8F828E83C007C006127C74AC82D006D007ECC454F0FC7555
:2000C7001B0A751C008F828E83C004127C3EAE82D004EE4CF58222E582FFC4540F75F00ADE
:2000E700A4FE740F5F2EF582221203EB7582D012042A75820712042A75821012042A02041C
:2001070006AD82AE83AFF0C007C006C0051203EB7582D012042A75820312042A1204061212
:2001270003EB7582D112042AD20012044FAC82D005D006D0078D828E838FF0EC127B74ADA2
:200147002AAE2BAF2CD200C007C006C00512044F1200DEAC82D005D006D0078D828E838FE2
:20016700F0EC127B74AD2DAE2EAF2FD200C007C006C00512044F1200DEAC82D005D006D0E5
:20018700078D828E838FF0EC127B74AD30AE31AF32C200C007C006C00512044F1200DEAC13
:2001A70082D005D006D0078D828E838FF0EC127B74020406AD82AE83AFF0C007C006C0054B
:2001C7001203EB7582D012042A75820012042A1204061203EB7582D112042AAA36AB37AC48
:2001E70038D200C004C003C00212044F1200DEA982D002D003D0048A828B838CF0E9127BA0
:2002070074AA33AB34AC35D200C004C003C00212044F1200DEA982D002D003D0048A828B1B
:20022700838CF0E9127B74C20012044F1200DEAC82D005D006D0078D828E838FF0EC127BEF
:2002470074020406AF82C0071203EB7582D012042A75820012042A853A821200A712042AA7
:200267008539821200A712042AD0078F821200A712042A020406AF82C0071203EB7582D092
:2002870012042A75820312042AD0078F8212042A853B821200A712042A853C821200A7126C
:0E02A700042A853D821200A712042A020406D2
:2002B50075C70075C50075C60075C38075C40043C11022AE82AF8375C78375C5018EC48F14
:2002D500C375C65A75C6A500AFC2C0071202B5D0078F8222AE82AF8375C78375C5028EC417
:2002F5008FC38518C275C65A75C6A5000202B5AE82AF8375C78375C5038EC48FC375C65A73
:2003150075C6A5000202B543C1107F20EF60101FEF24BDF582E43400F58374FFF080EDBF98
:2003350020005018EF24BDFDE43400FE8F827583F00FE493FC8D828E83F080E390000002BD
:2003550003047F00BF2000502975C78375C5028FC475C300EF24BDF582E43400F5830FE05E
:13037500F5C275C65A75C6A500C0071202B5D00780D2226E
:20038800759850438E40538EFE758BB2758DFFC2ABD28ED2ACD2A022E582FF700122C29922
:2003A8008F9920990543C11080F8C29922AD82AE83AFF0C2998D828E838FF0127C22FC6041
:2003C800218C9920990543C11080F8C2998D828E838FF0127C22FCBC1A01220DBD00D60E38
:0303E80080D3229D
:2003EB00D2C043C11043C110D2CD43C11043C110C2C043C11043C110C2CD22C2C043C11080
:20040B0043C110D2CD43C11043C110D2C02243C11043C110D2CD43C11043C110C2CD22AFF3
:20042B00827E00EF23540124FF92C08F05ED2DFFC007C006120419D006D0070EBE080040AB
:20044B00E20204197F00D2C07E0043C11043C110D2CD43C11043C1108F05ED2DFDA2C0E421
:1E046B00334DFFC2CD0EBE080040DFA200B392C0C007120419D007A2C092CD8F82220A
:20048900AE82AF837C007D00C3EC9EED9F500A43C1100CBC00F20D80EF22AE82AF837C007B
:2004A9007D00C3EC9EED9F501D9003E8C007C006C005C004120489D004D005D006D0070CDE
:2004C900BC00DF0D80DC22AF82E53E4FF58212055975820D020559AF82302D118F82120538
:2004E90059853F828540838541F00205D98F820205BAAF82D285EFC4540124FF9283EFA24B
:20050900E5E43324FF9282EF2323540124FF9281EF235401FE24FF9280D28400C28400EFBA
:20052900540124FF9283EF03540124FF9282EF03035401FE24FF9281EFA2E3E433FF24FF7C
:200549009280D28400C284900064120489C28522AF82C285EFC4540124FF9283EFA2E5E4D6
:200569003324FF9282EF2323540124FF9281EF235401FE24FF9280D28400C28400EF5401CE
:2005890024FF9283EF03540124FF9282EF03035401FE24FF9281EFA2E3E433FF24FF92805F
:2005A900D28400C28490006402048975820C020559E582FF600E8F82120559907CB075F03A
:2005C900800205D9758201120559900640020489AD82AE83AFF07C008D828E838FF0127C3D
:2005E90022FB6055BC10005050BB80005025EB24E050200CEC601C0DBD00010E8B82C00784
:20060900C006C005C0041204FBD004D005D006D00780C58D828E838FF0127C22FBA3AD82BA
:20062900AE838B82C007C006C005C004120559D004D005D006D007809F22C286903A98129A
:20064900048975801C00C284900FA0120489D28400C2849000A0120489D28400C284900038
:20066900A012048975801400C2849003E8120489D28400C2840075801100C2849000281217
:20068900048975801000C2840075801300C28490002812048975801000C28400758016007E
:2006A900C28490002812048975801000C2840075801800C2849003E8020489AF82E547246B
:2006C9000540030207798F821205598542828543838544F01205D974F6254540067D207E54
:2006E90000801DAB457C00751B0A8C1C8B828C83127C74AB82AC8374302BFBFD3395E0FEBF
:200709008D821204FBAD457E00751B0A8E1C8D828E83127C3EAD8274302DF5821204FBE5A3
:2007290047240350123001067D3A7E0080047D207E008D821204FBAD467E00751B0A8E1C00
:200749008D828E83C006C005127C74AB8274302BF5821204FBD005D006751B0A751C008DFC
:20076900828E83127C3EAD8274302DF5820204FB8F821205598542828543838544F01205B4
:20078900D974F6254540067E207F00801DAC457D00751B0A8D1C8C828D83127C74AC82ADF7
:2007A9008374302CFCFE3395E0FF8E821204FBAE457F00751B0A8F1C8E828F83127C3EAEC8
:2007C9008274302EF5821204FBC3E5479464E433FF60163001067D3A7E0080047D207E00B6
:2007E9008D82C0071204FBD007AD467E00751B0A8E1C8D828E83C007C006C005127C74AB5E
:200809008274302BF5821204FBD005D006751B0A751C008D828E83127C3EAD8274302DF53F
:20082900821204FBD007EF60123001067E3A7F0080047E207F008E821204FBAE477F0075CB
:200849001B648F1C8E828F83C007C006127C3E751B0A751C00127C74AC8274302CF5821236
:2008690004FBD006D007751B0A751C008E828F83127C3EAE8274302EF5821204FB75822009
:030889000204FB6B
:117CB0002020202020202020202020202020202000C3
:060000000200490210C2DB
:03000B0002148E4E
:0100130032BA
:01001B0032B2
:030023000226DFD3
:03002B00027A4016
:01003300329A
:03003B000211129D
:03004300027A300E
:0500A200C23F02004610
:030046000253164C
:20088C00E54A75F006A4FFAD497E00751B0A8E1C8D828E83C007127C74AD82D007ED2FF557
:2008AC00577E017D0190F007E493FCC3ED9C4003020956ED90F00793FC8D030BEB3395E0BD
:2008CC00FAEB2407F582EA34F0F583E493F9C3EC99E433F97C0009B900010CED90F00793E5
:2008EC00F8C3E55798E4337F0029F9EF3CFCEB2407F582EA34F0F583E493FFC3E5579FE473
:20090C00337B0029F582EB3CF583751B028B1CC006C005127C3EE5828583F0D005D00645FF
:20092C00F060218E047F008C828F83A3751B028F1CC006127C3EAC82AF83D006EC4F24FF03
:20094C0092A180060D8D060208B190F007E493FFEEB50702800122EE90F00793FF90F0089C
:20096C00E493FDC3EF9DE433FF7D000FBF00010DEE90F00793FCC3E5579CE4337B002FFFDA
:20098C00EB3DFD90F008E493FCC3E5579CE4337B002FF582EB3DF583751B028B1CC00612A7
:2009AC007C3EE5828583F0D00645F060197F008E828F83A3751B028F1C127C3EAE82AF83DF
:2009CC00EE4F24FF92A1227880B6000280107880B60103020A617880B60202805E22E54917
:2009EC00B40100E433FE3395E0FF751B05751C008E828F83127C3EE5828583F045F0605E14
:200A0C007882E6B54A127883E6B5490C9000DDE0FF7881E6B5070122AF4A7882A607AE494D
:200A2C007883A6069000DDE0FD8F198E1A8D82127AA57884765A788076022230920BD2C26A
:200A4C007880A2C2E433F6800C788486077884EF14F6EF700920920678807600C2C22220C3
:200A6C0002092036069000F4E06006C213758205229000E2E0FF601C9000E1E0600FEF13B7
:200A8C00924850091FEFFE3395E0FF80047E057F008E822290012DE0FFBF03004003020BFD
:200AAC00399000E8E07003020B33E550FFB54907E54BB54C028070854C1B751C0090003C41
:200ACC00C007127B8FE5828583F0D00724D0FD740235F0FE7C00EF2DFDEC3EFE854B1B8C33
:200AEC001C90003CC006C005127B8FAC82AF83D005D006EDC39CFDEE9FFEAC497F00EDC358
:200B0C009CF582EE9FF583751BD0751C02127C3EAE82AF83C374689E74818FF063F0809577
:200B2C00F0921375820022C21375820522E55524FE4003020BC89000E8E07003020BC8E50F
:200B4C0050FFB54907E54BB54C028070854C1B751C0090003CC007127B8FE5828583F0D0B7
:200B6C000724D0FD740235F0FE7C00EF2DFDEC3EFE854B1B8C1C90003CC006C005127B8F15
:200B8C00AC82AF83D005D006EDC39CFDEE9FFEAC497F00EDC39CF582EE9FF583751BD07559
:200BAC001C02127C3EAE82AF83C374689E74818FF063F08095F09213758200229000EAE0BC
:200BCC007003020C4EE552FFB54907E54BB54E028070854E1B751C0090003CC007127B8FAC
:200BEC00E5828583F0D00724D0FD740235F0FE7C00EF2DFDEC3EFE854B1B8C1C90003CC04D
:200C0C0006C005127B8FAC82AF83D005D006EDC39CFDEE9FFEAC497F00EDC39CF582EE9F3E
:200C2C00F583751BD0751C02127C3EAE82AF83C374689E74818FF063F08095F0921375826A
:200C4C00022274FE25555003020CDD9000E8E07003020CDDE550FFB54907E54BB54C028098
:200C6C0070854C1B751C0090003CC007127B8FE5828583F0D00724D0FD740235F0FE7C0090
:200C8C00EF2DFDEC3EFE854B1B8C1C90003CC006C005127B8FAC82AF83D005D006EDC39CAA
:200CAC00FDEE9FFEAC497F00EDC39CF582EE9FF583751BD0751C02127C3EAE82AF83C3740C
:200CCC00689E74818FF063F08095F0921375820022C2137582052290012DE0FFBF010280A6
:200CEC000C2002092036069000F4E06006C214758205229000E2E0FE601C9000E1E0600F0B
:200D0C00EE5401FD70091EEEFD3395E0FE80047D057E008D8222BF04004003020DB690004F
:200D2C00E9E07003020DB0E551FFB54907E54BB54D028070854D1B751C0090003CC007122B
:200D4C007B8FE5828583F0D00724D0FD740235F0FE7C00EF2DFDEC3EFE854B1B8C1C9000DD
:200D6C003CC006C005127B8FAC82AF83D005D006EDC39CFDEE9FFEAC497F00EDC39CF5826E
:200D8C00EE9FF583751BD0751C02127C3EAE82AF83C374689E74818FF063F08095F0921472
:200DAC0075820122C21475820522E55624FE4003020E459000E9E07003020E45E551FFB519
:200DCC004907E54BB54D028070854D1B751C0090003CC007127B8FE5828583F0D00724D03C
:200DEC00FD740235F0FE7C00EF2DFDEC3EFE854B1B8C1C90003CC006C005127B8FAC82AFB1
:200E0C0083D005D006EDC39CFDEE9FFEAC497F00EDC39CF582EE9FF583751BD0751C021283
:200E2C007C3EAE82AF83C374689E74818FF063F08095F09214758201229000EBE0700302F1
:200E4C000ECBE553FFB54907E54BB54F028070854F1B751C0090003CC007127B8FE5828530
:200E6C0083F0D00724D0FD740235F0FE7C00EF2DFDEC3EFE854B1B8C1C90003CC006C005EB
:200E8C00127B8FAC82AF83D005D006EDC39CFDEE9FFEAC497F00EDC39CF582EE9FF583759A
:200EAC001BD0751C02127C3EAE82AF83C374689E74818FF063F08095F0921475820322743B
:200ECC00FE25565003020F5A9000E9E07003020F5AE551FFB54907E54BB54D028070854D68
:200EEC001B751C0090003CC007127B8FE5828583F0D00724D0FD740235F0FE7C00EF2DFD36
:200F0C00EC3EFE854B1B8C1C90003CC006C005127B8FAC82AF83D005D006EDC39CFDEE9FB6
:200F2C00FEAC497F00EDC39CF582EE9FF583751BD0751C02127C3EAE82AF83C374689E7499
:200F4C00818FF063F08095F0921475820122C2147582052290020012030490012DE0FFBF72
:200F6C0001028043BF0202802CBF03028015BF04488553189002061202E9854F18900207C2
:200F8C001202E98552189002041202E9854E189002051202E98551189002021202E9854DF6
:200FAC00189002031202E98550189002001202E9854C189002010202E92275FA0075EA00A6
:200FCC009000E474A8F07461A3F075DA49D2DE22538E7F7589009000EDE0FF8F1B751C00BE
:200FEC009007D0C007127B8FAD82AE83D007EE3395E0FCFB7430C39D74F89EFEE49CE49BCC
:20100C008E8CEF75F0D0A4D39430F4F58AC28DD28CD2A92243C110B220A2209287D21E904D
:20102C0000F9E0FFE06006EF149000F9F09000FBE0FFE06006EF149000FBF09000F4E0FF79
:20104C00BF020122054890012EE0FF7E001FBFFF011EAC487D00C3EF9CEE64808DF063F0DA
:20106C008095F050507548009000B9E0600E9000BAE014F0E070059000B9E4F0D21F05498C
:20108C00E54924C4502FC203754900054AE54A24E8501778827618754A009000E6E0FFE0BF
:2010AC006006EF149000E6F0C204054BE54B24F45003754B0022C029C0E0C0F0C082C08304
:2010CC00C007C006C005C004C003C002C001C000C0D075D00843C1109000E774FAF0C23828
:2010EC0075D00012102075D008D0D0D000D001D002D003D004D005D006D007D083D082D05F
:20110C00F0D0E0D02932C029C0E0C0F0C082C083C007C006C005C004C003C002C001C0001E
:20112C00C0D075D00843C11010D8030214719000E4E0FEA3E0FF8EEA8FFA9000E474A82EAD
:20114C00F074613FA3F090F01FE493600CA2B6B39215A2B7B392168008A2B69215A2B79292
:20116C001690012DE0FFBF015790F01FE49360293034132015033016047F0080027F01EF91
:20118C0024FF9215803A2015072016047F0080027F01EF24FF921580273034133015073075
:2011AC0016047F0080027F01EF24FF921580113015032016047F0080027F01EF24FF921582
:2011CC007405B5550302129530150D301705D219021295D217021295201B03021289E555FB
:2011EC0024E8FEE43400FF9000ECE08E828F83F09000E1E0FFE06008EF149000E1F0806078
:20120C0030122EE5552450F9870F0FA70FEF24C4501FE5552450F87600E555244CF9870FB5
:20122C000FA70FEF24F45038E555244CF87600802F20122CE5552450F9870F1FA70FEF2404
:20124C00C3501DE5552450F8763BE555244CF9870F1FA70FEF24F35007E555244CF8760B6D
:20126C00C219C217C21B75D000120A6B75D00885825575D000120F6075D008800C30190470
:20128C00D21B800510170280007405B5560302135E30160D301805D21A02135ED21802132F
:2012AC005E201C03021352E55624E8FEE43400FF9000ECE08E828F83F09000E1E0FFE060C4
:2012CC0008EF149000E1F0806030122EE5562450F9870F0FA70FEF24C4501FE5562450F856
:2012EC007600E556244CF9870F0FA70FEF24F45038E556244CF87600802F20122CE5562459
:20130C0050F9870F1FA70FEF24C3501DE5562450F8763BE556244CF9870F1FA70FEF24F35D
:20132C005007E556244CF8760BC21AC218C21C75D000120CE375D00885825675D000120F3C
:20134C006075D008800C301A04D21C8005101802800030210930B5069000F17402F0302160
:20136C000330B5047F0080027F01EF24FF922420230330B5047F0080027F01EF24FF9221B7
:20138C0020220A2024032021047F0080027F01EF24FF9222A2B5922330250930B30690003F
:2013AC00F27402F030250330B3047F0080027F01EF24FF922820270330B3047F0080027F8C
:2013CC0001EF24FF922520260A2028032025047F0080027F01EF24FF9226A2B392273029A1
:2013EC000930B4069000F37402F030290330B4047F0080027F01EF24FF922C202B0330B43E
:20140C00047F0080027F01EF24FF9229202A0A202C032029047F0080027F01EF24FF922A2F
:20142C00A2B4922B900142E014F0E0700AD23F9001427414F0B22D9000E7E0FFE0600EEFAE
:20144C00149000E7F09001437428F08018900143E014F0E0700F9001437428F075D000123F
:20146C00102075D008D0D0D000D001D002D003D004D005D006D007D083D082D0F0D0E0D0C2
:20148C002932C0E0C082C083C0D075D01043C110303539E555B40100E43324FF92A7740152
:2014AC00B5560474018001E424FF92A57402B5550474018001E424FF92A67403B55604742A
:2014CC00018001E4FF24FF92A4021562E555700B90F000E4935407600280047F0080027F5C
:2014EC0001EF24FF92C47401B5560474018001E424FF92C32034109000E2E0700A20130737
:20150C002014047F0080027F01EF24FF92122034427405B555097405B55604E5557034E5E3
:20152C00A0540FFFE554907CD7934FF5A03012067E017F0080047EFF7FFFAF54EE2FF554DC
:20154C0024F75005755407800D7408B55408755400800353A00FD0D0D083D082D0E032AF01
:20156C00829000BBE4F0BFA100500FEF2417F582E43400F5830FE4F080EC2285825D8583F1
:20158C005E85F05FAC599000FAECF08558F0ECA4FB9000FB740A2BF0C22E855D82855E836C
:2015AC00855FF0C0041203B5D0047402255DF9E4355EFAAB5F7407255DF560E4355EF5615E
:2015CC00855F627408255DF563E4355EF564855F65A858302E030217579000FBE070030299
:2015EC00175730300302175743C110758280C004C003C002C001C000120559855A82855B98
:20160C0083855CF01205D9D000D001D002D003D004301D3275427D754380754480854A4528
:20162C00854946854847A22092017582C0C004C003C002C001C0001206C4D000D001D00251
:20164C00D003D004806990F002E4937032754285754380754480854A45854946854847A2C8
:20166C002092017582C0C004C003C002C001C0001206C4D000D001D002D003D0048030750F
:20168C00428D754380754480854A45854946854847A22092017582C0C004C003C002C001AC
:2016AC00C0001206C4D000D001D002D003D0041032028002C3229000F9E060062031030298
:2016CC0015DFC231880718EF70030217579000F9ECF09000FAECF089828A838BF0127C2290
:2016EC00FFBF2B448560828561838562F0127C22FFBF3F0280328563828564838565F012E7
:20170C007C22FFBF3F02802090809575F080C004C003C002C001C0001203B5D000D001D0F1
:20172C0002D003D0040215DF855D82855E83855FF0C004C003C002C001C0001203B5D000FC
:20174C00D001D002D003D0040215DF7582801205BA9000FCE4F0A22E22AD82AE83AFF09014
:20176C00809975F080C007C006C0051203B5D005D006D0078D828E838FF01203B5755AA0E9
:20178C00755B80755C8075580175593C90809D75F080021587900017E0602090001AE07093
:2017AC001A755AB3755B80755C807558037559019080B175F080121587C3229080C475F0CF
:2017CC00801203B530400B90000175F0001203B5800990F01175F0801203B59000FC7408A7
:2017EC00F0755AD1755B80755C8075580575593D9080CE75F080021587900017E4F0C20F22
:20180C009000FC7407F0755AF3755B80755C8075580375591E9080DF75F080121587900094
:20182C00FCE4F0900017E024FF22C20F9000FC740DF09000F7E0FFBF50028025BF6602806F
:20184C0038BF6E02804BBF7460755A04755B81755C8075580375591E9080DF75F08002159B
:20186C0087755A04755B81755C8075580375591E90811675F080021587755A04755B817561
:20188C005C8075580375591E90812A75F080021587755A04755B81755C8075580375591EB5
:2018AC009080DF75F080021587C3229000FC740EF075820012156B9000BBE4F0755A447597
:2018CC005B81755C8075580F75590190813C75F08012158750339000F8E4F07F00EF2417BC
:2018EC00F582E43400F583E0FEBE2C0122EF2417F582E43400F5830FE024D0FE9000F8E070
:20190C00FD75F00AA42EF080D4223035067E4B7F8180047E527F817D808E828F838DF012E1
:20192C0003B57F003034067D597E8180047D5D7E817C808D828E838CF0C0071203B5D007C8
:20194C008F0674312EF582C0071203A075823D1203A0D007EF24E8FDE43400FE8D828E8332
:20196C00E0700A758245C0071203A0D007EF244CF987067D00751B0A8D1C8E828D83C007E6
:20198C00C001127C74AD8274302DF5821203A0D00187067D00751B0A8D1C8E828D83127C80
:2019AC003EAD8274302DF5821203A075823A1203A0D007EF2450F987067D00751B0A8D1C4B
:2019CC008E828D83C007C001127C74AD8274302DF5821203A0D00187067D00751B0A8D1C07
:2019EC008E828D83127C3EAD8274302DF5821203A0D0070F90012DE0FEEFB5060122021959
:201A0C00302290816175F0801203B5AE4A7F00751B0A8F1C8E828F83127C74AE8274302E65
:201A2C00F5821203A0AE4A7F00751B0A8F1C8E828F83127C3EAE8274302EF5821203A07521
:201A4C00823A1203A0AE497F00751B0A8F1C8E828F83127C74AE8274302EF5821203A0AE4E
:201A6C00497F00751B0A8F1C8E828F83127C3EAE8274302EF5821203A030412190816575B4
:201A8C00F0801203B5301D067E317F0080047E307F0090F002E4932EF5820203A022787F72
:201AAC00861B751C0090001C127B8F751B00751C01127C74AE82AF83204203021B9890816F
:201ACC006B75F080C0061203B5D0063036067D307F0080047D317F008D82C0061203A090E1
:201AEC00817075F0801203B590F001E4932430F5821203A090817575F0801203B5D0069027
:201B0C0000E7E060067D317F0080047D307F008D82C0061203A090817A75F0801203B5905B
:201B2C0000E6E02430F5821203A075822F1203A090F003E4932430F5821203A090817F75F9
:201B4C00F0801203B590F004E493FF7D00751B0A8D1C8F828D83127C74AD8274302DF582EB
:201B6C001203A090F004E493FF7D00751B0A8D1C8F828D83127C3EAD8274302DF582120371
:201B8C00A090818475F0801203B5D00690818875F080C0061203B5D00630A1067D317F0097
:201BAC0080047D307F008D82C0061203A090818E75F0801203B5D0067F00751B0A8F1C8E69
:201BCC00828F83C007C006127C74AC8274302CF5821203A0D006D007751B0A751C008E82C4
:201BEC008F83127C3EAE8274302EF5821203A090F010E493700330422190819475F0801224
:201C0C0003B53092067E307F0080047E2F7F0090F010E4932EF5821203A020420122908164
:201C2C009A75F0801203B59000F8E0FF7E00751B0A8E1C8F828E83127C74AE8274302EF50B
:201C4C00821203A09000F8E0FF7E00751B0A8E1C8F828E83127C3EAE8274302EF58212039C
:201C6C00A09081A075F0801203B590F01CE4932430F5821203A090F01CE493FFBF020122CF
:201C8C0075822C1203A090F01175F0800203B5AD82AE83AFF0900130E0700122755A567563
:201CAC005B7D755C8075580F7559019081A575F080C007C006C0051215871218B7D005D023
:201CCC0006D00774012DFAE43EFB8F048A828B838CF0127C22F9B92A02801DC007C006C0C1
:201CEC0005C004C003C002121805D002D003D004D005D006D0078005900017E4F0A24392E9
:201D0C0040C007C006C005C004C003C0021217A1D002D003D004D005D006D0074001229024
:201D2C007D5675F080C007C006C005C004C003C0021203B5121916A2439241121A0EA24362
:201D4C009242121AAAD002D003D004D005D006D0078A828B838CF0127C22FABA2A028053D9
:201D6C00900017E0604D9081A975F080C007C006C0051203B590001775F0001203B5D005BD
:201D8C00D006D00730431B90001BE070159081B475F080C007C006C0051203B5D005D0067B
:201DAC00D00790001BE4F090001AF0900019F0900018F08D828E838FF0C007C006C00512F3
:201DCC0003B5D005D006D0070DBD00010E8D828E838FF0127C22FDBD2A099080B175F08002
:201DEC000203B5755ACE755B81755C807558327559019080B175F08002158790818875F0CE
:201E0C00801203B530A1067E317F0080047E307F008E821203A09081DF75F0801203B590C2
:201E2C00F007E4932430F5821203A090F007E49370099081E775F0800203B59081FC75F028
:201E4C00801203B590F007E493FF75820DC0071203A0D007EF90F00793FE7D00751B3C8DFB
:201E6C001C8E828D83C007127C74AD8274302DF5821203A0D007EF90F00793FE7D00751B3A
:201E8C00068D1C8E828D83C007127C74751B0A751C00127C3EAD8274302DF5821203A07506
:201EAC00823A1203A0D007EF90F00793FF7E00751B068E1C8F828E83127C3EAE8274302E18
:201ECC00F5821203A090820975F0801203B590F008E493FF7E00751B3C8E1C8F828E8312DA
:201EEC007C74AE8274302EF5821203A090F008E493FF7E00751B068E1C8F828E83127C74D8
:201F0C00751B0A751C00127C3EAE8274302EF5821203A075823A1203A090F008E493FF7E2E
:201F2C0000751B068E1C8F828E83127C3EAE8274302EF5821203A07582301203A07F02904C
:201F4C00F007E493FEC3EF9E40012275820DC0071203A0D007EF90F00793FE7D00751B3CAF
:201F6C008D1C8E828D83C007127C74AD8274302DF5821203A0D007EF90F00793FE7D0075C7
:201F8C001B068D1C8E828D83C007127C74751B0A751C00127C3EAD8274302DF5821203A05F
:201FAC0075823A1203A0D007EF90F00793FE7D00751B068D1C8E828D83C007127C3EAD82B3
:201FCC0074302DF5821203A090820975F0801203B5D0078F06EE04FD3395E0FCED2407F522
:201FEC0082EC34F0F583E493FB7A00751B3C8A1C8B828A83C006C005C004127C74AA827462
:20200C00302AF5821203A0D004D005ED2407F582EC34F0F583E493FB7A00751B068A1C8BBB
:20202C00828A83C005C004127C74751B0A751C00127C3EAA8274302AF5821203A075823A2C
:20204C001203A0D004D005ED2407F582EC34F0F583E493FD7C00751B068C1C8D828C8312A1
:20206C007C3EAC8274302CF5821203A07582301203A0D00674022EFF021F4BAD82AE83AFA0
:20208C00F0900130E0700122755A56755B7D755C8075580F7559019081A575F080C007C080
:2020AC0006C005121587A24492401217A1D005D006D007400122A2449241C007C006C00529
:2020CC00121A0EA2449242121AAA121E07D005D006D0078D828E838FF01203B5755A0E75B6
:2020EC005B82755C807558327559019080B175F080021587900017E4F0D2401217A14001FC
:20210C0022907D6775F0801203B5755A1F755B82755C807558327559019080B175F0800267
:20212C001587755A56755B7D755C8075580F7559019081A575F080121587503675820012B1
:20214C00156B9000BBE4F09000FC740AF0755A3A755B82755C8075580F75590190823075CC
:20216C00F080121587500990001BE0FF9000F7F0D322C3227F0090012FE0FEBE3D01227551
:20218C005A55755B82755C8075580F75590190824A75F080C007121587D0074003022360E1
:2021AC00755A70755B82755C8075580F75590190826575F080C007121587D0074003022376
:2021CC00609000FC740CF0755A8B755B82755C8075580A75593C90828075F080C007121554
:2021EC0087D0074003022360758200C00712156B9000BBE4F09000FC7402F0755AA5755B08
:20220C0082755C8075580F75590190829B75F080121587D007400302236090001AE024D0D7
:20222C0075F00AA4FE90001BE02E24D09000E0F090001DE024D075F00AA4FE90001EE02E26
:20224C0024D09000DFF0900020E024D075F00AA4FE900021E02E24D09000DEF0900023E0E6
:20226C0024D075F00AA4FE900024E02E24D0F54A900026E024D075F00AA4FE900027E02EF8
:20228C0024D0F549900029E024D075F00AA4FE90002AE02E24D0F54885493985483A854A8C
:2022AC008212024B9000DFE0FE8E1B751C00900017C006127B8F751B09751C00127C74AC49
:2022CC0082AD83D0069000DEE07A002CFCEA3DFDEE24FD50189000E0E0FE5306037B00EECC
:2022EC004BB40100E433FB3395E0FE80047B027E00EB2CFCEE3DFD9000E0E0FEFA7B002C71
:20230C00FCEB3DFD8A828B83A3A3A3751B048B1CC006C005C004127C74AA82AB83D004D003
:20232C0005EA2CFCEB3DFD8C828D83A3751B07751C00127BACAC82D0060C9000DDECF0904A
:20234C0000DEE0F53B9000DFE0F53C8E3D8C8212027D7F01EF24FF921D9000FCE4F0227561
:20236C005AC0755B82755C8075580F7559019082B575F080121587502D75820012156B90F9
:20238C0000BBE4F09000FC740BF0755ADC755B82755C8075580F7559019082D175F08012D4
:2023AC0015875002D322C32230A006900130E07002C322755AF7755B82755C8075580F75C1
:2023CC0059019082EC75F0801215875039755A1B755B83755C8075580F75590190830875B4
:2023EC00F080121587501F755A40755B83755C8075580F75590190832C75F08012158750C4
:20240C00051218B7D322C32230A006900130E07002C322755A56755B7D755C8075580F750E
:20242C0059019081A575F080121587400122755AF7755B82755C8075580F7559029082EC77
:20244C0075F0801215875036755A1B755B83755C8075580F75590190830875F08012158770
:20246C00501C755A51755B83755C8075581475590390832C75F0801215875002D322C32270
:20248C007F0090012FE0FEBE3D0122755A56755B7D755C8075580F7559019081A575F080EC
:2024AC00C007121587D00740030226D4755A6D755B83755C8075580F75590190836375F01F
:2024CC0080C007121587D00740030226D4755AC0755B82755C8075580F7559019082B575CC
:2024EC00F080C007121587D00790F002E49370030226D4755A7E755B83755C8075580F756A
:20250C00590190824A75F080C007121587D00740030226D4755A9A755B83755C8075580FA0
:20252C0075590190838F75F080C007121587D00740030226D49000FC7406F0755AB7755B62
:20254C0083755C8075580F7559029083AC75F080C007121587D00740030226D49000FDE053
:20256C00FEBE010280030226D47E007D00ED240FF582E43401F5830DE0FCBC2C060EBE0348
:20258C0000500ABD0B00500543C11080E0EE24FD40030226D48D060EEE3395E0FCEE240FA2
:2025AC00F582EC3401F583E0FEBE2C15ED04FEED240FF582E43401F583E0FC24D0F54A807C
:2025CC0029ED04FCED240FF582E43401F583E024D075F00AA4FDEC04FEEC240FF582E43431
:2025EC0001F583E0FC24D02DF54A0E8E050DED3395E0FCED240FF582EC3401F583E0FDBD11
:20260C002C15EE04FDEE240FF582E43401F583E0FC24D0F5498029EE04FCEE240FF582E434
:20262C003401F583E024D075F00AA4FEEC04FDEC240FF582E43401F583E0FC24D02EF549AC
:20264C00ED04FEFD0DED3395E0FCED240FF582EC3401F583E0FDBD2C12EE240FF582E4342C
:20266C0001F583E0FD24D0F5488026EE04FDEE240FF582E43401F583E024D075F00AA4FE24
:20268C00ED240FF582E43401F583E0FD24D02EF548AD4A7E0074072DFDE43EFEC374179DA5
:2026AC0074808EF063F08095F05007E54A24EFFE8006AD4A74072DFE8E4A85493985483AA4
:2026CC00854A8212024B7F01EF24FF921D9000FCE4F022C029C0E0C0F0C082C083C007C036
:2026EC0006C005C004C003C002C001C000C0D075D010209803023F9C43C1109000FAE090AE
:20270C0000F9F09000FEE02400F582E43401F583E599F09000FEE0FF2400F582E43401F5A6
:20272C0083E0FEBE4E0280030228658F147D00740C2CF582E43DF583751B0D8D1CC017C053
:20274C0016C015C01475D000127C3E75D010AA82AB83D014D015D016D017EA2400F582EBE8
:20276C003401F583E0FBBB49028003022865740B2CF582E43DF583751B0D751C00C017C02D
:20278C0016C015C01475D000127C3E75D010AA82AB83D014D015D016D017EA2400F582EBA8
:2027AC003401F583E0FBBB20028003022865740A2CF582E43DF583751B0D751C00C017C017
:2027CC0016C015C01475D000127C3E75D010AA82AB83D014D015D016D017EA2400F582EB68
:2027EC003401F583E0FBBB547074092CF582E43DF583751B0D751C00C017C016C015C01489
:20280C0075D000127C3E75D010AA82AB83D014D015D016D017EA2400F582EB3401F583E059
:20282C00FBBB4F3574082CF582E43DF583751B0D751C00C017C01675D000127C3E75D01059
:20284C00AC82AD83D016D017EC2400F582ED3401F583E0FDBD4E02D2309000FCE0FD24F1B6
:20286C005003023F88ED240A83F582ED241383F583E4736AEC9C3C88B41CB12788F28D023E
:20288C00179D2B332A343F353237373F292A293D289000BBE0FC04F0EC2417F582E43400B7
:2028AC00F583E599F07420B599369000FEE0FC7B00740C2CF582E43BF583751B0D8B1C75B6
:2028CC00D000127C3E75D010AB82AC83EB2400F582EC3401F583E0FCBC3A059000BBE4F08A
:2028EC00742CB599028003023F889000FCE4F09000BBF0023F887454B5996E8F137C007416
:20290C000C2BF582E43CF583751B0D8C1CC017C014C01375D000127C3E75D010A982AA83E4
:20292C00D013D014D017E92400F582EA3401F583E0FABA5334740B2BF582E43CF583751B5E
:20294C000D751C00C01775D000127C3E75D010AB82AC83D017EB2400F582EC3401F583E04E
:20296C00FCBC4405D22E023F887452B599028003023F888F137C00740C2BF582E43CF58347
:20298C00751B0D8C1CC014C01375D000127C3E75D010A982AA83D013D014E92400F582EA4C
:2029AC003401F583E0FABA4F028003023F88740B2BF582E43CF583751B0D751C0075D00001
:2029CC00127C3E75D010AB82AC83EB2400F582EC3401F583E0FCBC52028003023F88900087
:2029EC00F9E4F0023F889000BBE0FC04F0EC2417F582E43400F583E599F07422B5993690D4
:202A0C0000FEE0FC7B00740C2CF582E43BF583751B0D8B1C75D000127C3E75D010AB82AC18
:202A2C0083EB2400F582EC3401F583E0FCBC20059000BBE4F0742CB599028003023F889040
:202A4C0000FEE0FC7B00740C2CF582E43BF583751B0D8B1C75D000127C3E75D010AB82ACD8
:202A6C0083EB2400F582EC3401F583E0FCBC22028003023F889000FCE4F09000BBF0023FC4
:202A8C00887431B599028003023F88D22E023F889000BBE0FC04F0EC2417F582E43400F5D2
:202AAC0083E599F0744BB599699000FEE0FB7C00740C2BF582E43CF583751B0D8C1CC014EB
:202ACC00C01375D000127C3E75D010A982AA83D013D014E92400F582EA3401F583E0FABAE3
:202AEC004C30740B2BF582E43CF583751B0D751C0075D000127C3E75D010AB82AC83EB2496
:202B0C0000F582EC3401F583E0FCBC43059000BBE4F0740DB599028003023F889000FEE00F
:202B2C00FC7B00740C2CF582E43BF583751B0D8B1C75D000127C3E75D010AB82AC83EB2443
:202B4C0000F582EC3401F583E0FCBC22028003023F889000FCE4F09000BBF0023F88743E3B
:202B6C00B599129080B175F08075D0001203B575D010023F88BE47028003022C588F137CE8
:202B8C0000740C2BF582E43CF583751B0D8C1CC017C016C015C014C01375D000127C3E757B
:202BAC00D010A982AA83D013D014D015D016D017E92400F582EA3401F583E0FABA4E0280D9
:202BCC0003022C58740B2BF582E43CF583751B0D751C00C017C016C015C014C01375D0000B
:202BEC00127C3E75D010A982AA83D013D014D015D016D017E92400F582EA3401F583E0FAE2
:202C0C00BA4949740A2BF582E43CF583751B0D751C00C017C016C01575D000127C3E75D09E
:202C2C0010AB82AC83D015D016D017EB2400F582EC3401F583E0FCBC52129083C975F0808E
:202C4C0075D0001203B575D010023F88BE3A028003022DAA8F137C00740C2BF582E43CF590
:202C6C0083751B0D8C1CC017C016C015C014C01375D000127C3E75D010A982AA83D013D0E6
:202C8C0014D015D016D017E92400F582EA3401F583E0FABA49028003022DAA740B2BF582EB
:202CAC00E43CF583751B0D751C00C017C016C015C014C01375D000127C3E75D010A982AADE
:202CCC0083D013D014D015D016D017E92400F582EA3401F583E0FABA54028003022DAA7417
:202CEC000A2BF582E43CF583751B0D751C00C017C016C015C014C01375D000127C3E75D0D7
:202D0C0010A982AA83D013D014D015D016D017E92400F582EA3401F583E0FABA4D02800345
:202D2C00022DAA74092BF582E43CF583751B0D751C00C017C016C015C014C01375D0001249
:202D4C007C3E75D010A982AA83D013D014D015D016D017E92400F582EA3401F583E0FABAD8
:202D6C00433C74082BF582E43CF583751B0D751C00C017C016C01575D000127C3E75D010FC
:202D8C00AB82AC83D015D016D017EB2400F582EC3401F583E0FCBC2B05D20C023F88E4BEE9
:202DAC00200104FC7003022F598F127B00740C2AF582E43BF583751B0D8B1CC017C016C064
:202DCC0015C014C013C01275D000127C3E75D010A882A983D012D013D014D015D016D01742
:202DEC00E82400F582E93401F583E0F9B93A028003022F59740B2AF582E43BF583751B0D7F
:202E0C00751C00C017C016C015C014C013C01275D000127C3E75D010A882A983D012D01399
:202E2C00D014D015D016D017E82400F582E93401F583E0F9B94C028003022F59740A2AF54D
:202E4C0082E43BF583751B0D751C00C017C016C015C014C013C01275D000127C3E75D010BE
:202E6C00A882A983D012D013D014D015D016D017E82400F582E93401F583E0F9B947028021
:202E8C0003022F5974092AF582E43BF583751B0D751C00C017C016C015C014C013C0127546
:202EAC00D000127C3E75D010A882A983D012D013D014D015D016D017E82400F582E93401C3
:202ECC00F583E0F9B94D028003022F5974082AF582E43BF583751B0D751C00C017C016C031
:202EEC0015C014C013C01275D000127C3E75D010A882A983D012D013D014D015D016D01721
:202F0C00E82400F582E93401F583E0F9B9433E74072AF582E43BF583751B0D751C00C017C1
:202F2C00C016C015C01475D000127C3E75D010AA82AB83D014D015D016D017EA2400F5822B
:202F4C00EB3401F583E0FBBB2B030230EDEC70030231388F137C00740C2BF582E43CF58348
:202F6C00751B0D8C1CC017C016C015C014C01375D000127C3E75D010A982AA83D013D01452
:202F8C00D015D016D017E92400F582EA3401F583E0FABA3A028003023138740B2BF582E495
:202FAC003CF583751B0D751C00C017C016C015C014C01375D000127C3E75D010A982AA833C
:202FCC00D013D014D015D016D017E92400F582EA3401F583E0FABA50028003023138740AFF
:202FEC002BF582E43CF583751B0D751C00C017C016C015C014C01375D000127C3E75D010CE
:20300C00A982AA83D013D014D015D016D017E92400F582EA3401F583E0FABA490280030254
:20302C00313874092BF582E43CF583751B0D751C00C017C016C015C014C01375D000127C3A
:20304C003E75D010A982AA83D013D014D015D016D017E92400F582EA3401F583E0FABA4C05
:20306C0002800302313874082BF582E43CF583751B0D751C00C017C016C015C014C01375D2
:20308C00D000127C3E75D010A982AA83D013D014D015D016D017E92400F582EA3401F58347
:2030AC00E0FABA4302800302313874072BF582E43CF583751B0D751C00C017C016C0157563
:2030CC00D000127C3E75D010AB82AC83D015D016D017EB2400F582EC3401F583E0FCBC2B03
:2030EC004B8F137C0074092BF582E43CF583751B0D8C1C75D000127C3E75D010AB82AC839D
:20310C00EB2400F582EC3401F583E0FCBC4C03D38001C392064006300E03023F88C20BC20F
:20312C0009C2089000FC7403F0023F88BE4B698F137C00740C2BF582E43CF583751B0D8C81
:20314C001CC017C016C01575D000127C3E75D010AB82AC83D015D016D017EB2400F582ECDF
:20316C003401F583E0FCBC4F2FBD02059000BBE4F0A22FB3922EC22F9000BBE07003023F89
:20318C00889000BBE4F090832C75F08075D0001203B575D010023F88BE54028003023F88CB
:2031AC008F147D00740C2CF582E43DF583751B0D8D1CC015C01475D000127C3E75D010AA28
:2031CC0082AB83D014D015EA2400F582EB3401F583E0FBBB4F028003023F88740B2CF582F8
:2031EC00E43DF583751B0D751C0075D000127C3E75D010AC82AD83EC2400F582ED3401F59A
:20320C0083E0FDBD4E028003023F88D22F023F88BE20028003023F888F147D00740C2CF532
:20322C0082E43DF583751B0D8D1CC015C01475D000127C3E75D010AA82AB83D014D015EA05
:20324C002400F582EB3401F583E0FBBB3A028003023F88740B2CF582E43DF583751B0D7544
:20326C001C00C015C01475D000127C3E75D010AA82AB83D014D015EA2400F582EB3401F55A
:20328C0083E0FBBB5A028003023F88740A2CF582E43DF583751B0D751C00C015C01475D08B
:2032AC0000127C3E75D010AA82AB83D014D015EA2400F582EB3401F583E0FBBB5402800332
:2032CC00023F8874092CF582E43DF583751B0D751C00C015C01475D000127C3E75D010AA79
:2032EC0082AB83D014D015EA2400F582EB3401F583E0FBBB54028003023F8874082CF582D5
:20330C00E43DF583751B0D751C00C015C01475D000127C3E75D010AA82AB83D014D015EABE
:20332C002400F582EB3401F583E0FBBB55028003023F8874072CF582E43DF583751B0D754C
:20334C001C00C015C01475D000127C3E75D010AA82AB83D014D015EA2400F582EB3401F579
:20336C0083E0FBBB53028003023F8874062CF582E43DF583751B0D751C00C015C01475D0B5
:20338C0000127C3E75D010AA82AB83D014D015EA2400F582EB3401F583E0FBBB5002800355
:2033AC00023F888C828D83A3A3A3A3A3751B0D751C0075D000127C3E75D010AC82AD83EC0D
:2033CC002400F582ED3401F583E0FDBD2A028003023F889000FFE4F09000FC04F0023F88EE
:2033EC00740DB5990280209000FFE0FDBD1E0050169000FFED04F0ED240FF582E43401F58E
:20340C0083E599F0023F889000FFE0FD1DED3395E0FCED240FF582EC3401F583E4F0900038
:20342C00FCE09000FDF09000FCE4F0D22E023F88200B030234BF9000BBE0FD7023740DB5EA
:20344C0099028003023F8830060D9000BA7402F09000B9E02401F09000FC7405F0023F888A
:20346C00BD0A0D7422B599089000BBE4F0023F88200813ED2401F582E43400F583E0FCB5B3
:20348C0099028002D208300A0E20090DED90F01193FCB599028002D2099000BBED04F020A5
:2034AC000803023F88200903023F889000FCE4F0023F8830063CBE30398F147D00740C2CA9
:2034CC00F582E43DF583751B0D8D1CC017C01675D000127C3E75D010AC82AD83D016D0174C
:2034EC00EC2400F582ED3401F583E0FDBD220302359ABE340280030235A28F147D00740C1F
:20350C002CF582E43DF583751B0D8D1CC015C01475D000127C3E75D010AA82AB83D014D000
:20352C0015EA2400F582EB3401F583E0FBBB3866740B2CF582E43DF583751B0D751C00C070
:20354C0015C01475D000127C3E75D010AA82AB83D014D015EA2400F582EB3401F583E0FBF5
:20356C00BB2B33740A2CF582E43DF583751B0D751C0075D000127C3E75D010AC82AD83EC8E
:20358C002400F582ED3401F583E0FDBD2208D20B9000BB7401F0740DB599028003023F887C
:2035AC009000FCE4F0023F88300D3F743BB599028027740DB5990280209000BBE0FDBDA0BE
:2035CC000050169000BBED04F0ED2417F582E43400F583E599F0023F889000BBE4F0C20DF9
:2035EC009000FCE4F0D20E023F88BE2C0280030237048F147D00740C2CF582E43DF58375B9
:20360C001B0D8D1CC015C01475D000127C3E75D010AA82AB83D014D015EA2400F582EB34F7
:20362C0001F583E0FBBB43028003023704740B2CF582E43DF583751B0D751C00C015C014D8
:20364C0075D000127C3E75D010AA82AB83D014D015EA2400F582EB3401F583E0FBBB5502CB
:20366C008003023704740A2CF582E43DF583751B0D751C00C015C01475D000127C3E75D097
:20368C0010AA82AB83D014D015EA2400F582EB3401F583E0FBBB446074092CF582E43DF55E
:2036AC0083751B0D751C00C015C01475D000127C3E75D010AA82AB83D014D015EA2400F518
:2036CC0082EB3401F583E0FBBB502D74082CF582E43DF583751B0D751C0075D000127C3EBA
:2036EC0075D010AC82AD83EC2400F582ED3401F583E0FDBD2A0280047D0080027D01ED2412
:20370C00FF920D740DB599028003023F889000BB7401F09000FCE4F0023F88743EB5990AFF
:20372C009000FCE4F0D22E023F88BE52028003023F888F147D00740C2CF582E43DF58375A5
:20374C001B0D8D1CC015C01475D000127C3E75D010AA82AB83D014D015EA2400F582EB34B6
:20376C0001F583E0FBBB52028003023F88740B2CF582E43DF583751B0D751C0075D000124E
:20378C007C3E75D010AC82AD83EC2400F582ED3401F583E0FDBD45028003023F889000F9D9
:2037AC00E4F0023F88300F669000F7E0FDBD50028003BD66057420B5990FBD74028003BD39
:2037CC006E2F7464B5990280289000BBE0FDBDA000501E742EB59903023F889000BBED0485
:2037EC00F0ED2417F582E43400F583E599F0023F88C20FC2119000BBE0FD2417F582E434D1
:20380C0000F583E4F09000BBF0D22E023F889000F7E0FDBD50028003023977BE3D02800324
:20382C000239778F137C00740C2BF582E43CF583751B0D8C1CC017C016C015C014C013750F
:20384C00D000127C3E75D010A982AA83D013D014D015D016D017E92400F582EA3401F5837F
:20386C00E0FABA68028003023977740B2BF582E43CF583751B0D751C00C017C016C015C0E0
:20388C0014C01375D000127C3E75D010A982AA83D013D014D015D016D017E92400F582EA90
:2038AC003401F583E0FABA6E028003023977740A2BF582E43CF583751B0D751C00C017C099
:2038CC0016C015C014C01375D000127C3E75D010A982AA83D013D014D015D016D017E92406
:2038EC0000F582EA3401F583E0FABA6902800302397774092BF582E43CF583751B0D751C95
:20390C0000C017C016C015C014C01375D000127C3E75D010A982AA83D013D014D015D01622
:20392C00D017E92400F582EA3401F583E0FABA683A74082BF582E43CF583751B0D751C005F
:20394C00C017C016C01575D000127C3E75D010AB82AC83D015D016D017EB2400F582EC34BF
:20396C0001F583E0FCBC6303023D12BD74028003023ACFBE20028003023ACF8F137C0074B2
:20398C000C2BF582E43CF583751B0D8C1CC017C016C015C014C01375D000127C3E75D01001
:2039AC00A982AA83D013D014D015D016D017E92400F582EA3401F583E0FABA3A02800302BA
:2039CC003ACF740B2BF582E43CF583751B0D751C00C017C016C015C014C01375D000127CEF
:2039EC003E75D010A982AA83D013D014D015D016D017E92400F582EA3401F583E0FABA4761
:203A0C00028003023ACF740A2BF582E43CF583751B0D751C00C017C016C015C014C0137586
:203A2C00D000127C3E75D010A982AA83D013D014D015D016D017E92400F582EA3401F5839D
:203A4C00E0FABA4B028003023ACF74092BF582E43CF583751B0D751C00C017C016C015C0C4
:203A6C0014C01375D000127C3E75D010A982AA83D013D014D015D016D017E92400F582EAAE
:203A8C003401F583E0FABA543A74082BF582E43CF583751B0D751C00C017C016C01575D0A0
:203AAC0000127C3E75D010AB82AC83D015D016D017EB2400F582EC3401F583E0FCBC2003F1
:203ACC00023D12BD66028003023C27BE3A028003023C278F137C00740C2BF582E43CF583C2
:203AEC00751B0D8C1CC017C016C015C014C01375D000127C3E75D010A982AA83D013D014C7
:203B0C00D015D016D017E92400F582EA3401F583E0FABA43028003023C27740B2BF582E406
:203B2C003CF583751B0D751C00C017C016C015C014C01375D000127C3E75D010A982AA83B0
:203B4C00D013D014D015D016D017E92400F582EA3401F583E0FABA4B028003023C27740A7E
:203B6C002BF582E43CF583751B0D751C00C017C016C015C014C01375D000127C3E75D01042
:203B8C00A982AA83D013D014D015D016D017E92400F582EA3401F583E0FABA5402800302BE
:203BAC003C2774092BF582E43CF583751B0D751C00C017C016C015C014C01375D000127CB5
:203BCC003E75D010A982AA83D013D014D015D016D017E92400F582EA3401F583E0FABA20A6
:203BEC003A74082BF582E43CF583751B0D751C00C017C016C01575D000127C3E75D010AB08
:203C0C0082AC83D015D016D017EB2400F582EC3401F583E0FCBC2E03023D12BD6E0280034C
:203C2C00023F88BE20028003023F888F147D00740C2CF582E43DF583751B0D8D1CC015C0CC
:203C4C001475D000127C3E75D010AA82AB83D014D015EA2400F582EB3401F583E0FBBB3ACE
:203C6C00028003023F88740B2CF582E43DF583751B0D751C00C015C01475D000127C3E75D2
:203C8C00D010AA82AB83D014D015EA2400F582EB3401F583E0FBBB43028003023F88740A53
:203CAC002CF582E43DF583751B0D751C00C015C01475D000127C3E75D010AA82AB83D01441
:203CCC00D015EA2400F582EB3401F583E0FBBB4B028003023F8874092CF582E43DF5837579
:203CEC001B0D751C0075D000127C3E75D010AC82AD83EC2400F582ED3401F583E0FDBD542C
:203D0C00028003023F88D20F023F88200F03023DA89000F7E0FDBD50028003BD6E05740AE2
:203D2C00B59912BD66057422B5990ABD743D742EB5990280369000BBE0FDBD0A00502CBDC3
:203D4C000900501E8D149000BBED04F00CEC3395E0FBEC240CF582EB3400F583E599F002DE
:203D6C003F889000BBED04F0023F88C20FC2119000BBE0FDBD0A005016D22E0DED3395E0E0
:203D8C00FCED240CF582EC3400F583E4F080059000F9E4F09000BBE4F0023F889000F7E0EA
:203DAC00FDBD5040BE3A3D8F137C00740C2BF582E43CF583751B0D8C1CC017C016C0157564
:203DCC00D000127C3E75D010AB82AC83D015D016D017EB2400F582EC3401F583E0FCBC29F8
:203DEC0003023E6FBD6E3FBE303C8F137C00740C2BF582E43CF583751B0D8C1CC017C016A7
:203E0C00C01575D000127C3E75D010AB82AC83D015D016D017EB2400F582EC3401F583E04E
:203E2C00FCBC2002803DBD66028003BD743ABE34378F157E00740C2DF582E43EF583751B33
:203E4C000D8E1CC01775D000127C3E75D010AD82AE83D017ED2400F582EE3401F583E0FE1A
:203E6C00BE3805D20F023F887435B599028003023F208F157E00740C2DF582E43EF583755F
:203E8C001B0D8E1CC017C016C01575D000127C3E75D010AB82AC83D015D016D017EB24003F
:203EAC00F582EC3401F583E0FCBC3168740B2DF582E43EF583751B0D751C00C017C016C05D
:203ECC001575D000127C3E75D010AB82AC83D015D016D017EB2400F582EC3401F583E0FC52
:203EEC00BC2031740A2DF582E43EF583751B0D751C00C01775D000127C3E75D010AD82AEA5
:203F0C0083D017ED2400F582EE3401F583E0FEBE2C0280667452B599638F167F00740C2E0F
:203F2C00F582E43FF583751B0D8F1CC017C01675D000127C3E75D010AC82AD83D016D017DD
:203F4C00EC2400F582ED3401F583E0FDBD522D740B2EF582E43FF583751B0D751C0075D0E9
:203F6C0000127C3E75D010AE82AF83EE2400F582EF3401F583E0FFBF4502D2319000FEE037
:203F8C002401F0E0FF24F350059000FEE4F0C298D0D0D000D001D002D003D004D005D00694
:203FAC00D007D083D082D0F0D0E0D02932C2107F00EF2417FDE43400FE0F8D828E83E060E1
:203FCC000543C11080EBBFA000500FEF2417F582E43400F5830FE4F080EC900017E0FFBFCE
:203FEC003F028008900018E0FFBF3F06200803022100900018E0FFBF4303024703BF450334
:20400C0002489DBF48028044BF4903024F31BF5003024C31BF53030247BBBF5403024FA2A0
:20402C00BF6303024703BF650302489DBF6802801BBF6903024F31BF7003024C31BF73039E
:20404C000247BBBF7403024FA20252CC90001AE0FF24CF400302410ABF3500400302410A77
:20406C0090001DE0600302410A90001BE0FEBE44028003BE64047D04800CBE53028007BE5C
:20408C0073028002D21020101C90001CE0FEBE4102800ABE61028005EF24CD50088D0674F5
:2040AC00082EFD801720100890001CE0FEBE530A90001CE0FEBE73028002D2108F06EE2485
:2040CC00D02DFEC00612031CD0069000BDEEF0120357D2439083CE75F080121C9BC2AF90D0
:2040EC000200120304C2A07518009000051202E9D2A3900FA01204A375C7600246A0BF2B3D
:20410C000280030242C790001BE0FEC3742F9EE433FD7003024252BE3300400302425290FF
:20412C00001CE0FC24D04003024252BC3A00400302425290001DE0FB24D04003024252BBCF
:20414C003600400302425290001EE0F56D24D0400302425274C6256D500302425290002022
:20416C00E0F56924D0400302425274CD25695003024252900021E0F56A24D04003024252B3
:20418C0074C6256A5003024252900022E0F56B24D0400302425274CA256B5003024252905B
:2041AC000023E0F56C24D0400302425274C6256C50030242528E0274022AF56EAA69C39A0B
:2041CC0075F00AA42404F56E254A2CAC6AC39CFAAC6B74062CC39B75F00AA4256CAB6DC391
:2041EC009BF5668A6F757000AB497C00743C2BF571E43CF572AA667C00C3E5719AE57264AD
:20420C00808CF063F08095F0E433FA7C00E56FC39AF582E5709CF583751B0C8C1C127C3E10
:20422C00AB828B4CAC4974782CAB66C39BFC7B00751B3C8B1C8C828B83127C3EAB828B5018
:20424C00120F600246A0ED606DBE3600506890001CE0FD24D0505FBD3A00505AEE24D0755F
:20426C00F00AA42D24D0FEAD4C740C2DFDC3E5509EE433FCEDC39CFD7C00751B0C8C1C8D93
:20428C00828C83C006127C3EAC82D0068C4CAC507D00743C2CFCE43DFD7B00ECC39EF58265
:2042AC00ED9BF583751B3C8B1C127C3EAD828D50120F600246A0D2100246A0BF2D469000B2
:2042CC001BE0FF24D05038BF3600503390001CE0FE24D0502ABE3A005025EF24D075F00A2D
:2042EC00A4AD502D2E24D0F55024C4500CE54C04F54CE550FF24C4F550120F600246A0D227
:20430C00100246A090001BE0FFBF4E028003BF6E243008030252F212031C9000BDE054EF0A
:20432C00F0120357C23678807600788276187883763C0246A0BF46028003BF661A3008038E
:20434C000252F212031C9000BDE04410F0120357D236C2C20246A09001327403F075670182
:20436C00900132E0FE2417F582E43400F583E0FDBD2C46E56770099001327465F002468A1F
:20438C00AB677C0074012BF571E43CF57290012DE0FA7C0074012AF51BE43CF51C8571828A
:2043AC00857283C006127C3EAB82AC83D0068B67900132EE04F002468ABD30005015E567AC
:2043CC0070057C65FE80047CCA7E00900132ECF002468AE5677042BD6702800DBD4702808D
:2043EC0008BD61028003BD4130C2C278807600122180AD4A7E00751B0C8E1C8D828E831246
:20440C007C3EAD82AE838D4B788276187883763C9001327465F002468A900132E0FE24172F
:20442C00F582E43400F583E0FD24D04003024684BD330040030246848E037C0074012BFAE3
:20444C00E43CFFEA2417F582EF3400F583E0FF24D0400302468474012BFAE43CFFEA24173A
:20446C00F582EF3400F583E0FFBF3A00400302468474022BFAE43CFFEA2417F582EF3400BE
:20448C00F583E0FF24D0400302468474022BFAE43CFFEA2417F582EF3400F583E0FFBF36F1
:2044AC0000400302468474032BFAE43CFFEA2417F582EF3400F583E0FF24D040030246840D
:2044CC0074032BFAE43CFFEA2417F582EF3400F583E0FFBF3A004003024684E56770030236
:2044EC0045C8E56714F56F244CF5718D027F00EA24D0F51BEF34FFF51C90000AC006C004B6
:20450C00C003127B8F858273858374D003D00474012BFAE43CFFEA2417F582EF3400F58323
:20452C00E07A002573FFEA3574FAEF24D0F582EA34FFF583751B0C751C00C004C003127CC0
:20454C003EAA82D003D004A871A602E56F2450F974022BFAE43CFFEA2417F582EF3400F54E
:20456C0083E024D075F00AA4F57374032BFAE43CFFEA2417F582EF3400F583E0257324D0FF
:20458C00F7120F60AA677F0074012AF573E43FF57490012DE0FF7A0074012FF51BE43AF596
:2045AC001C857382857483127C3EAA82AF83D0068A6790013274052EF002468AC2C2788044
:2045CC00E4F6FFED24D0F51BEF34FFF51C90000AC004C003127B8FAE82AF83D003D0047418
:2045EC00012BFAE43CFDEA2417F582ED3400F583E07A002EFEEA3FFFEE24D0F582EF34FF0E
:20460C00F583751B188A1CC004C003127C3EAE82D003D0048E4A74022BFEE43CFFEE2417DF
:20462C00F582EF3400F583E024D075F00AA4FF74032BFBE43CFCEB2417F582EC3400F58388
:20464C00E02F24D0F549AE4A7F00751B0C8F1C8E828F83127C3EAE828E4B85493985483A4A
:20466C00854A8212024BC21D788276187883763C9001327465F0800690013274CAF09001D6
:20468C0032E0FFBF6400500302436CBFCA03D38001C39210120A6B858255120CE385825650
:2046AC0030102A30090ED2439083F375F080121C9B0252F2D24390840675F080121C9BC28F
:2046CC00439083F375F080121C9B0252F230090ED24390843475F080121C9B0252F2D243E4
:2046EC0090844E75F080121C9BC24390843475F080121C9B0252F290001BE0FFBF6502802D
:20470C0003BF45143008030252F2D24490847B75F0801220870252F2BF6E028003BF4E1495
:20472C003008030252F212031C9000BE7401F01203578051BF66028003BF461330080302CC
:20474C0052F212031C9000BEE4F01203578036900019E0603090001AE0602A30090ED2430B
:20476C009083F375F080121C9B0252F2D24390849375F080121C9BC2439083F375F08012C7
:20478C001C9B0252F230090ED2439084BD75F080121C9B0252F2D2439084D175F080121CE2
:2047AC009BC2439084BD75F080121C9B0252F23008030252F290001BE0FFBF7902800DBFF7
:2047CC0059028008BF44028003BF6426D2439084F875F080121C9BC2AFC2A075180090005A
:2047EC00051202E9D2A3900FA01204A375C7600252F2BF67028003BF477190001FE0FE2489
:20480C00D0505ABE3A00505512031C90001FE024D0FE9000C0F09000E6EEF0900021E0FEA0
:20482C0024D05028BE33005023900022E0FD24D0501ABD3A005015EE24D075F00AA42D240D
:20484C00D0FEBE180050059000C1EEF0120357D24390850D75F080121C9B0252F2D24390E8
:20486C00852375F080121C9B0252F2BF69028003BF4910D24390853B75F080121C9BC2A056
:20488C000252F2D24390854D75F080121C9B0252F23008030252F290001BE0FFBF580280B7
:2048AC0003BF781912031C9000C4E4F0120357D24490856675F0801220870252F212031C2E
:2048CC001203579000C4E4F09001327404F0900132E0FF2417F582E43400F583E0FE24D057
:2048EC004003024BEFBE33004003024BEF8F057F0074012DFBE43FFCEB2417F582EC340031
:20490C00F583E0FC24D04003024BEF74012DFBE43FFCEB2417F582EC3400F583E0FCBC3A01
:20492C00004003024BEF74022DFBE43FFCEB2417F582EC3400F583E0FC24D04003024BEFAB
:20494C0074022DFBE43FFCEB2417F582EC3400F583E0FCBC36004003024BEF74032DFBE489
:20496C003FFCEB2417F582EC3400F583E0FC24D04003024BEF74032DFBE43FFCEB2417F593
:20498C0082EC3400F583E0FCBC3A004003024BEF74052DFBE43FFCEB2417F582EC3400F52E
:2049AC0083E0FC24D04003024BEF74052DFBE43FFCEB2417F582EC3400F583E0FCBC330059
:2049CC004003024BEF74062DFBE43FFCEB2417F582EC3400F583E0FC24D04003024BEF7493
:2049EC00062DFBE43FFCEB2417F582EC3400F583E0FCBC3A004003024BEF74072DFBE43F12
:204A0C00FCEB2417F582EC3400F583E0FC24D04003024BEF74072DFBE43FFCEB2417F582AB
:204A2C00EC3400F583E0FCBC36004003024BEF74082DFBE43FFCEB2417F582EC3400F5838D
:204A4C00E0FC24D04003024BEF74082DFBE43FFCEB2417F582EC3400F583E0FCBC3A0040F1
:204A6C0003024BEF8E1B751C0090000AC007C006C005127B8FAB82AC83D005D006D007C00B
:204A8C000674012DFAE43FFEEA2417F582EE3400F583E07A002BFBEA3CFCC3EB9428EC64B5
:204AAC00809482D0064003024BEFC00674052DFBE43FFCEB2417F582EC3400F583E0FC8CDC
:204ACC001B751C0090000AC007C006C005127B8FAB82AC83D005D006D00774062DFAE43F74
:204AEC00FEEA2417F582EE3400F583E07A002BFBEA3CFCC3EB9428EC64809482D00640036B
:204B0C00024BEFED24FCF582EF34FFF583751B05751C00C007C006C005127C74AB82D005B3
:204B2C00D006D00774082BFC3395E0FAEC24BDF571EA3400F572EE24D075F00AA4F57374EE
:204B4C00012DFCE43FFEEC2417F582EE3400F583E0257324D075F006A4FE74022DFAE43F8D
:204B6C00FCEA2417F582EC3400F583E02E24D0857182857283F074092BFB3395E0FEEB24BD
:204B8C00BDFBEE3400FE74052DFAE43FFCEA2417F582EC3400F583E024D075F00AA4F573EF
:204BAC0074062DFAE43FFCEA2417F582EC3400F583E0257324D075F006A4FC74072DFDE4F5
:204BCC003FFFED2417F582EF3400F583E02C24D08B828E83F09000C4E0FF0F0F9000C4EFAF
:204BEC00F08006900132744BF0900132E0240AF0E0FFBF4B0050030248DA9000C4E06017F5
:204C0C00900000120304120357D24490857E75F0801220870252F2D24390859375F0801232
:204C2C001C9B0252F23008030252F290F010E493700ED2439085AE75F080121C9B0252F299
:204C4C0090001CE0FFBF54028003BF7410C2C2D2439085C375F080121C9B0252F2BF4E026E
:204C6C008003BF6E2F90F010E493FEBE011812031C9000CD7402F0120357788076007882A5
:204C8C0076187883763CD2439085CD75F080121C9B0252F2BF46028003BF662590F010E49A
:204CAC0093FEBE020EC2C212031C9000CD7401F0120357D2439085D675F080121C9B0252A4
:204CCC00F290001BE0FE24D04003024F23BE33004003024F23EF24D04003024F23BF3A0067
:204CEC004003024F2390001DE0FD24D04003024F23BD36004003024F2390001EE0FCBC309C
:204D0C00028008BC35028003024F23900020E0F56D24D04003024F2374CC256D5003024F00
:204D2C0023900021E0F56C24D04003024F2374C6256C5003024F23900022E0F57324D040E7
:204D4C0003024F2374CE25735003024F23900023E0F57124D04003024F2374C62571500368
:204D6C00024F23900024E0F56F24D04003024F2374C6256F5003024F23900025E0F56E245F
:204D8C00D04003024F2374C6256E5003024F23309203024F15D2C2E56F24D075F00AA4F5DD
:204DAC006F256E24D0F568AA737B00EA24D0F51BEB34FFF51C90000AC007C006C005C0042F
:204DCC00127B8F858273858374AA717B00EA2573FAEB3574FBEA24D0FAEB34FFFB8A1B8BF3
:204DEC001C900017C003C002127B8F751B09751C00127C74E5828583F0D002D003D004D06F
:204E0C0005D006D00724D1F57374FF35F0F574C374029A74808BF063F08095F05018AA6862
:204E2C005302037B00EA4BB40100E433FB8B713395E0F5728006757102757200E571257349
:204E4C00F573E5723574F574856871757200E5712573F573E5723574F5748571828572837F
:204E6C00A3A3A3751B04751C00C007C006C005C004127C74AA82AB83EA2573F573EB357428
:204E8C00F574AA6D7B00EA24D0F51BEB34FFF51C90000A127B8F858271858372AA6C7B00B5
:204EAC00EA2571FAEB3572FBEA2573F582EB3574F583751B07751C00127BACAA82D004D0A9
:204ECC0005D006D007EA04F582EE24D075F00AA42F24D0F519ED24D075F00AA42C24D0F580
:204EEC001A127AA59005DC1204A330920ED2439085DF75F080121C9B0252F2D2439085F446
:204F0C0075F080121C9B0252F2D24390861675F080121C9B0252F2D24390863C75F08012FE
:204F2C001C9B0252F23008030252F290001BE0FFBF42028012BF6202800D90001CE0FEBED0
:204F4C004E028003BE6E1D12031C9000BF7401F0120357122180D24390865375F080121C94
:204F6C009B0252F2BF54028012BF7402800DBE42028008BE620280030252F212031C9000A5
:204F8C00BFE4F0120357C21DD24390865C75F080121C9B0252F23008030252C190001AE0D2
:204FAC00FFBF4702800DBF67028008BF43028003BF6310D207D24390866575F080121C9BD1
:204FCC000252C1BF2B02800302510990001BE0FEBE3802800302510990001CE0FEBE340207
:204FEC00800302510990001DE0FEBE300050030250FBEE24C650030250FB90001EE0FEBEEB
:20500C00300050030250FBEE24C650030250FB90001FE0FEBE300050030250FBEE24C650F9
:20502C00030250FB900020E0FEBE300050030250FBEE24C650030250FB900021E0FEBE3003
:20504C000050030250FBEE24C650030250FB900022E0FEBE300050030250FBEE24C65003E3
:20506C000250FB900023E0FEBE300050030250FBEE24C6407A900024E0FEBE30004070EE08
:20508C0024C6406B900025E0FEBE30004061EE24C6405C12031C9000CEE4F07E018E0574F0
:2050AC00112DFD3395E0FCED24BDFDEC3400FC8E027B0074062AFAE43BFBEA2417F582EBD4
:2050CC003400F583E08D828C83F00EBE0A0040CD9000D9E0FEBE02069000D97401F0120357
:2050EC0057D24390868275F080121C9B0252C1D2439086A075F080121C9B0252C1BF30025E
:20510C00800302522190001BE0FEBE30005003025213EE24C6500302521390001CE0FEBE80
:20512C0030005003025213EE24C6500302521390001DE0FEBE30005003025213EE24C6508C
:20514C000302521390001EE0FEBE30005003025213EE24C6500302521390001FE0FEBE3098
:20516C00005003025213EE24C65003025213900020E0FEBE30005003025213EE24C6500376
:20518C00025213900021E0FEBE3000407AEE24C64075900022E0FEBE3000406BEE24C64097
:2051AC0066900023E0FEBE3000405CEE24C6405712031C7E008E0574112DFD3395E0FCED71
:2051CC0024BDFDEC3400FC8E027B0074032AFAE43BFBEA2417F582EB3400F583E08D828C5B
:2051EC0083F00EBE0A0040CD9000D9E0FEBE02069000D97401F0120357D24390868275F0F4
:20520C0080121C9B0252C1D2439086A075F080121C9B0252C1BF78028003BF581A12031C78
:20522C009000D97402F0120357D2439086C575F080121C9B0252C190F01CE493FFBF02247D
:20524C0090001BE0FFBF6E02800DBF4E028008BF66028003BF465ED2439086D475F0801262
:20526C001C9B805190001BE0FFBF4E028003BF6E1912031C9000D97401F0120357D2439028
:20528C00870675F080121C9B802BBF46028003BF661812031C9000D9E4F0120357D24390D6
:2052AC00871575F080121C9B800BD24390872475F080121C9B90F01CE493FF13920A8026A8
:2052CC0030090DD24390874175F080121C9B8016D24390875475F080121C9BC24390874140
:2052EC0075F080121C9B43C1107F00EF2417FDE43400FE8D828E83E0600FEF2417F582E430
:20530C003400F5830FE4F080E2227F007E009001337401F0900134F09001357415F09001C3
:20532C00367401F08F937594FF8F928F918F957596FF8FB28FB175B30275B41C8FCA8FC98C
:20534C008FC075B0FF8FA075B881759D088F978FBD75BC83D2ADD2AF9000E774FAF090004C
:20536C00B9E4F075560575550590000C7430F09000B8740AF09000F37402F09000F2F09024
:20538C0000F1F09000F47407F09000F57401F0C007C006120FDC12031CD006D0079000BD92
:2053AC00E0FDBDFF059000BDE4F09000BEE024FE50059000BEE4F09000BFE024FE50069024
:2053CC0000BF7401F09000C0E024F650069000C07401F09000C1E024E850059000C1E4F091
:2053EC009000C3E0FDC4540FFC7B001CBCFF011BC374089C74808BF063F08095F0500A7470
:20540C000F5D4450FD9000C3F09000C3E0FD53050F7C001DBDFF011CC374089D74808CF0EB
:20542C0063F08095F0500F9000C3E0FD74F05D4401FD9000C3F09001377401F09000C4E0D2
:20544C00FDBD0900502EED20E02A7C01C3ED9C401E8C0374072BFB3395E0FAEB24BDF582AC
:20546C00EA3400F583E0FBBB900050030C80DD900137ECF0900137E0FCC3ED9C4012900032
:20548C00C47402F09000C57424F09000C6746CF0900137E4F09000D9E0FDBD02005047900B
:2054AC0000D8E07041FDBD0A0050368D0474112CFB3395E0FAEB24BDF582EA3400F583E095
:2054CC00FBBB3000401B74112CFC3395E0FBEC24BDF582EB3400F583E0FC24C640030D80BE
:2054EC00C5900137EDF0900137E0FDBD0A00500B9000D8E4F09000D97402F09000DAE0FD1D
:20550C0024E750059000DAE4F03092079000CDE4F080129000CDE0FD6005ED24FD500690C2
:20552C0000CD7402F09000DBE0FD53050F7C001DBDFF011CC3740A9D74808CF063F0809555
:20554C00F050069000DB743BF09000DCE024FE50069000DC7401F0C007C006120357D0068B
:20556C00D00790F000E493FD74035D90012D04F090F000E493A2E2923490F000E493A2E311
:20558C009235921290F000E493A2E4923690F000E493FDA2E5923720341920351690F000B3
:2055AC00E493FD5305C0E43395E0FDFC9000EDEDF080059000EDE4F090F01EE493FD530534
:2055CC0060E403CDC40354076DCD5407CD6DCD30E20244F8FC900130EDF07D00ED2401FB79
:2055EC00E43400FC900130E0FABA02005008ED907CC193FA8006ED907CCC93FA8B828C83A1
:20560C00EAF00DBD0B0040D490012FE4F090F01E93FD53050F7C00C3ED9406EC64809480E8
:20562C00501190F01EE493FD740F5D04FC3395E0FD802790F01EE493FB53030F7A00740C50
:20564C00C39BF51BE49AF51C90003CC007C006127C74AC82AD83D006D00790012EECF090B0
:20566C00F01EE49330E405BC3C00500690012F743DF090F000E49330E6067CFF7D00801135
:20568C003034067A1E7B0080047A0A7B008A048B059000ECECF090012DE0FDBD01030257D3
:2056AC005DBD02028075BD0302803ABD040280030257939000EBECF090F206E493FD24C4E2
:2056CC00400A90F207E493FD24F4500BC007C006120F60D006D00790F206E493F55390F280
:2056EC0007E493F54F9000ECE0FD9000EAF090F204E493FD24C4400A90F205E493FD24F4DA
:20570C00500BC007C006120F60D006D00790F204E493F55290F205E493F54E9000ECE0FD89
:20572C009000E9F090F202E493FD24C4400A90F203E493FD24F4500BC007C006120F60D080
:20574C0006D00790F202E493F55190F203E493F54D9000ECE0FD9000E8F090F200E493FD2A
:20576C0024C4400A90F201E493FD24F4500BC007C006120F60D006D00790F200E493F55088
:20578C0090F201E493F54CD2A2901388C007C0061204A3120388D006D00790F010E493602C
:2057AC0017C007C006127A8FD006D00778807600788276187883763CD20390F003E493906F
:2057CC0000E6F0C007C006120FC6120643D006D007202203026010202603026010202A03AC
:2057EC000260107576007C0090F01EE493F57590F01FE493F57790F000E493FDC22AC226FB
:20580C00C22290877A75F080C005C0041205D990878B75F0801205D990012DE02430F582C9
:20582C001204FBD004D0053034087578917579878006757897757987C005AA78AB797D80BC
:20584C008A828B838DF0C005C0041205D9D004D005D0053035067A9D7B8780047AA37B8787
:20586C00C0057D808A828B838DF0C005C0041205D99087A975F0801205D9D004D00590007C
:20588C00EDE0FD2430F582C005C0041204FB753E047582C01204D0D004D00590012DE0141E
:2058AC009000F5F09000F4E4F0D005EC7003025C40203F03025AA7C005C23F9087AD75F0E9
:2058CC0080C005C0041205D9D004D005857578757900740F5578FB7D00C3EB9406ED6480D9
:2058EC009480D005500DAB75740F5B04FA3395E0FB802BC005740F5578F57A757B00740C18
:20590C00C3957AF51BE4957BF51C90003CC005C004127C74AA82AB83D004D005D0059000D5
:20592C00F4E0700B302D08757A5F757B008029C0058A037D00751B0A8D1C8B828D83C004CD
:20594C00C002127C74AB82D002D00474302BFB8B7A3395E0F57BD005857A82C005C004C01E
:20596C00021204FBD002D004D0059000F4E0700B302D08757A5F757B0080257B00751B0A51
:20598C008B1C8A828B83C005C004127C3EAA82AB83D004D00574302AFA8A7A3395E0F57BFE
:2059AC00857A82C005C0041204FB9087B175F0801205D9D004D0059000F4E0FBBB01093026
:2059CC002D067A5F7B008032C00574605578F57AE4F57BC403C57AC4035407657AC57A54BF
:2059EC0007C57A657AC57A30E20244F8F57BAD7A74302DFA3395E0FBD0058A82C005C00478
:205A0C001204FB9087B575F0801205D9D004D0059000F4E0FBBB0209302D067A5F7B0080C3
:205A2C0030C00574105578F57AE4F57BC4C57AC4540F657AC57A540FC57A657AC57A30E336
:205A4C000244F0F57BAD7A74302DFA3395E0FBD0058A82C005C0041204FB9087B975F080CF
:205A6C001205D9D004D0059000F4E0FBBB0309302D067A5F7B008016E5776008757A547592
:205A8C007B008006757A4E757B00AA7AAB7B8A82C005C0041204FBD004D005102203025BA1
:205AAC003A9000F4E02401F0E0FBBB0102800FBB0202802ABB03028043BB04728046AA75FD
:205ACC00530260E403CAC40354076ACA5407CA6ACA30E20244F8FB9000F5EAF08050AA750C
:205AEC00530210E4CAC4540F6ACA540FCA6ACA30E30244F0FB9000F5EAF080329000F5E50C
:205B0C0077F0802AC005C00412031C9000BDE054EFF09000DBE575F09000DCE577F01203CC
:205B2C0057900200120304D004D00575C76010260280659000F4E0FBE06006EB149000F4CD
:205B4C00F09000F4E0FB600ABB0102800FBB0248802A9000F5740F5575F0803CAA75530292
:205B6C0060E403CAC40354076ACA5407CA6ACA30E20244F8FB9000F5EAF0801CAA7553029F
:205B8C0010E4CAC4540F6ACA540FCA6ACA30E30244F0FB9000F5EAF0102A030258B79000FE
:205BAC00F5E02401F09000F4E0FB24FC50030258B7EB2B905BC373800680218040805E9080
:205BCC0000F5E024F450059000F5E4F074F05575FB9000F5E0FA4BF5750258B79000F5E06B
:205BEC0024FD50059000F5E4F0741F5575FB9000F5E0C42354E0FA4BF5750258B79000F5AD
:205C0C00E024FE50059000F5E4F074EF5575FB9000F5E0C454F0FA4BF5750258B79000F5EE
:205C2C00E0FB24FE50059000F5E4F09000F5E0F5770258B79000F4E0FB24FA5003025DFD9F
:205C4C00EB2B2B905C5373025C65025C7F025CD6025D22025D69025D8590012DE014900002
:205C6C00F5F07582C4C005C004120559D004D005025DFD9000F5A234E433F0C005C004127D
:205C8C0005B4D004D005103F03025DFD302D067ABD7B87801B30340B757C91757D87757E54
:205CAC00808009757C97757D87757E80AA7CAB7DC0057D808A828B838DF0C005C004120514
:205CCC00D9D004D005D005025DFD9000F5A235E433F0103F03025DFD302D067AC37B8780D2
:205CEC001B30350B757C9D757D87757E808009757CA3757D87757E80AA7CAB7DC0057D807A
:205D0C008A828B838DF0C005C0041205D9D004D005D005025DFD9000EDE09000F5F0103F6C
:205D2C0003025DFD9087A975F080C005C0041205D9D004D005302D067A5F7B00800FC00526
:205D4C009000EDE02430FA3395E0FBD0058A82C005C0041204FBD004D005025DFD9087C88A
:205D6C0075F080C005C0041205D99087DA75F0801205D9D004D005807874105DFB90012DB8
:205D8C00E0FA1AEA2BFB303408757C04757D008005E4F57CF57DE57C2BFB90012DE0FABA7B
:205DAC0001028016303508757C08757D008005E4F57CF57D8B02E57C2AFB20341120350EBF
:205DCC009000EDE0030354C0F57C8B022AFB900000C005C004C0031203049002001203047D
:205DEC00D0038B189000001202E9D004D00575C760102A03025E9D7576009000F4E0FB24A7
:205E0C00FC5003025E9DEB2B905E18738006803E804E805C9000F5E0FBBB030050090BEB40
:205E2C00FA3395E0FB80047A007B009000F5EAF00A90012DEAF074302AF582C005C004125F
:205E4C0004FB7582C4120559D004D00580439000F5E0FB7401C39BFB24FF9234EBF08031FD
:205E6C009000F5E0FB7401C39BFB24FF9235EBF09000F5E0FBBB030050090BEBFA3395E014
:205E8C00FB80047A007B009000F5EAF09000EDEAF0102203025F317576009000F4E0240191
:205EAC00F090878B75F080C005C0041205D990012DE02430F5821204FBD004D00530340659
:205ECC007A917B8780047A977B87C0057D808A828B838DF0C005C0041205D9D004D005D0C7
:205EEC00053035067A9D7B8780047AA37B87C0057D808A828B838DF0C005C0041205D99008
:205F0C0087A975F0801205D9D004D0059000EDE0FD2430F582C005C0041204FB1205B4D06D
:205F2C0004D005D0051026030258B79000F4E0FBE06006EB149000F4F090877A75F080C00F
:205F4C0005C0041205D990878B75F0801205D990012DE02430F5821204FBD004D00530347E
:205F6C00067A917B8780047A977B87C0057D808A828B838DF0C005C0041205D9D004D005F0
:205F8C00D0053035067A9D7B8780047AA37B87C0057D808A828B838DF0C005C0041205D927
:205FAC009087A975F0801205D9D004D0059000EDE0FD2430F582C005C0041204FBD004D034
:205FCC0005D0059000F4E060030258B7AB760576EB24F7501B7C01C005C0041205B4D00451
:205FEC00D00590F01EE4939000F5540FF00258B7753E047582C0C005C0041204D0D004D041
:20600C00050258B775BC8B75334975340075354075364875370075384090004A75F040C053
:20602C0007C0061201BBD006D007E54A24E8400CE54924C44006E54824C45014753900758D
:20604C003A00758200C007C00612024BD006D007C007C0061200F0D2A8D28875334975346D
:20606C000075354075364875370075384090004A75F0401201BBD006D00790F01CE493FD94
:20608C0013920A203070C007C00612212ED006D0075063C007C00612218012236B1223B46E
:2060AC00D006D007505090F005E4937015D2439087EC75F080C007C006121C9BD006D00706
:2060CC008029D24390880975F080C007C006121C9BD006D007300A13C24390880975F08095
:2060EC00C007C006121C9BD006D007C007C006121836D006D007E54A24F45007E54A24F412
:20610C00FD8002AD4A8D4B90F005E493701C9000F67405F0C007C00612031C9000C274FF2B
:20612C00F0120357D006D00780069000F6743CF075C16590012DE0FDBD042090F206E49388
:20614C00B5530B90F207E493FDB54F02800DC007C006120F60D006D007807090012DE0FD4A
:20616C0024FD502090F204E493B5520B90F205E493FDB54E02800DC007C006120F60D00602
:20618C00D007804790012DE0FD24FE502090F202E493B5510B90F203E493FDB54D02800D92
:2061AC00C007C006120F60D006D007801E90F200E493B5500B90F201E493FDB54C02800BEC
:2061CC00C007C006120F60D006D0079000F6E060069000F4E0702B9000F4E4F07405B55552
:2061EC000EC007C006120A6B858255D006D0077405B5560EC007C006120CE3858256D00615
:20620C00D007101F0302637890881D75F080C007C0061203B59000DEE0FD7C00751B0A8C2E
:20622C001C8D828C83127C74AC8274302CF5821203A09000DEE0FD7C00751B0A8C1C8D82D4
:20624C008C83127C3EAC8274302CF5821203A09000DFE0FD7C00751B0A8C1C8D828C8312F3
:20626C007C74AC8274302CF5821203A09000DFE0FD7C00751B0A8C1C8D828C83127C3EAC58
:20628C008274302CF5821203A09000E0E0FD7C00751B0A8C1C8D828C83127C74AC82743077
:2062AC002CF5821203A09000E0E0FD7C00751B0A8C1C8D828C83127C3EAC8274302CF58210
:2062CC001203A0AC4A7D00751B0A8D1C8C828D83127C74AC8274302CF5821203A0AC4A7D8A
:2062EC0000751B0A8D1C8C828D83127C3EAC8274302CF5821203A0AC497D00751B0A8D1C86
:20630C008C828D83127C74AC8274302CF5821203A0AC497D00751B0A8D1C8C828D83127CC6
:20632C003EAC8274302CF5821203A0AC487D00751B0A8D1C8C828D83127C74AC8274302C17
:20634C00F5821203A0AC487D00751B0A8D1C8C828D83127C3EAC8274302CF5821203A090AD
:20636C00882475F0801203B5D006D007203E2E30022BD24390882A75F080C007C006121C29
:20638C009BD006D007300A13C24390882A75F080C007C006121C9BD006D007D23E303E2E81
:2063AC0020022BD24390883875F080C007C006121C9BD006D007300A13C24390883875F030
:2063CC0080C007C006121C9BD006D007C23E9000E7E07018203815D238D24390884B75F0FB
:2063EC0080C007C006121C9BD006D0079000E8E0702E20392BD239D24390885A75F080C05D
:20640C0007C006121C9BD006D007300A13C24390885A75F080C007C006121C9BD006D00781
:20642C0090012DE0FD24FE50349000E9E0702E203A2BD23AD24390886975F080C007C0067F
:20644C00121C9BD006D007300A13C24390886975F080C007C006121C9BD006D00790012D41
:20646C00E0FD24FD50349000EAE0702E203B2BD23BD24390887875F080C007C006121C9B23
:20648C00D006D007300A13C24390887875F080C007C006121C9BD006D00790012DE0FDBD21
:2064AC0004349000EBE0702E203C2BD23CD24390888775F080C007C006121C9BD006D0076E
:2064CC00300A13C24390888775F080C007C006121C9BD006D007201E030265B120A0169018
:2064EC0000B8E014F0E0700D75BC83D2A09000B8741EF0D2059000E3E0FDE0602D9000E1A2
:20650C00E07027ED149000E3F0E0701E9000E17405F09000E3F0C007C006120A6B85825579
:20652C00120CE3858256D006D0077405B555028022E55524E8FCE43400FD8C828D83E0FBCD
:20654C0060111B8C828D83EBF0EB7007C219C2177555057405B556028022E55624E8FCE476
:20656C003400FD8C828D83E0FB60111B8C828D83EBF0EB7007C21AC2187556059000F6E012
:20658C00601090F010E49360032092069000F6E014F09000F1E0FDE06009302406ED149061
:2065AC0000F1F0C21EC007C00612088CD006D0079000F4E0701490F010E493FDBD020BC0B8
:2065CC0007C0061209D3D006D00790F003E49360159000E6E0700F90F004E493FDB54A0606
:2065EC00E54924FA40099000B9E0FD24FE50727405B5556D7405B5566890F010E4936003AA
:20660C0020925E90012EE0FDBD3C00501990F004E493FD753906753A008D82C007C0061257
:20662C00024BD006D0079000B9E024FE5013D24390889675F080C007C006121C9BD006D002
:20664C0007C2AFC2A0751800900005C007C0061202E9D2A3900FA01204A3D006D00775C752
:20666C006030030302670774FB25495003026707201D2590F002E493601EC007C0061221CF
:20668C0080D006D007E54A24F45007E54A24F4FD8002AD4A8D4B8047753349753400753583
:2066AC004075364875370075384090004A75F040C007C0061201BB752ADE752B00752C006A
:2066CC00752DDF752E00752F007530E07531007532009000DD75F000120108D006D00790EA
:2066EC00F001E4936013D2439088BB75F080C007C006121C9BD006D007D203100C02802947
:20670C00755A56755B7D755C8075580F7559019081A575F080C007C0061215879088CC75D0
:20672C00F0801203B5D006D007100702801190000175F000C007C006121765D006D007906E
:20674C0000F4E0FD24F85003027A21ED240A83F582ED240C83F583E47375CB5C8D6C0F0F19
:20676C000A676E7379757A7A6A30054175BC8BC2059000FCE4F0C007C006122180AB4A7C65
:20678C0000751B0C8C1C8B828C83127C3EAB828B4B1223B4D006D0075013D2439088DB7548
:2067AC00F080C007C006121C9BD006D007300E28C007C006123FB9755A51755B83755C8099
:2067CC0075580F75590190832C75F080121587D006D007C20E02699790012DE0FCBC010258
:2067EC008014BC02028044BC03030268E7BC04030268830269433034067BF17C8880047B2B
:20680C00F97C888B428C43754480854C458550469000DDE0F547A2209201758280C007C08D
:20682C00061206C4D006D007026943754201754389754480854C458550467547FDA220929F
:20684C0001758280C007C0061206C4754201754389754480854D458551467547FDA22092D9
:20686C00017582871206C490890175F0801205D9D006D007026943301D067B047C89801FF1
:20688C0090F002E493600B757C08757D89757E808009757C0C757D89757E80AB7CAC7D8B52
:2068AC00428C43754480854A45854946854847A22092017582C5C007C0061206C475421005
:2068CC00754389754480854F458553467547FBC2017582C01206C4D006D0077542107543C2
:2068EC0089754480854C458550467547FBC201758280C007C0061206C475421075438975C2
:20690C004480854D458551467547FBC2017582851206C4754210754389754480854E4585C4
:20692C0052467547FBC20175828A1206C47582201204FBD006D00790012DE0FCBC0402802B
:20694C004A301D067B7D7C80801F90F002E493600B757C8D757D80757E808009757C8575C0
