:2000A700AF827E00751A0A8E1B8F828E83C007C00612752AAC82D006D007ECC454F0FC75A8
:2000C7001A0A751B008F828E83C0041274F4AE82D004EE4CF58222E582FFC4540F75F00A32
:2000E700A4FE740F5F2EF582221203C27582D01204017582071204017582101204010203C1
:20010700DDAD82AE83AFF0C007C006C0051203C27582D01204017582041204011203DD12DF
:2001270003C27582D1120401D2001204261200DEAC82D005D006D0078D828E838FF0EC12C9
:20014700742AAD2AAE2BAF2CD200C007C006C0051204261200DEAC82D005D006D0078D8260
:200167008E838FF0EC12742AAD2DAE2EAF2FC200C007C006C0051204261200DEAC82D00575
:20018700D006D0078D828E838FF0EC12742A0203DDAD82AE83AFF0C007C006C0051203C266
:2001A7007582D01204017582001204011203DD1203C27582D1120401AA33AB34AC35D20035
:2001C700C004C003C0021204261200DEA982D002D003D0048A828B838CF0E912742AAA30F6
:2001E700AB31AC32D200C004C003C0021204261200DEA982D002D003D0048A828B838CF0BD
:20020700E912742AC2001204261200DEAC82D005D006D0078D828E838FF0EC12742A020360
:20022700DDAF82C0071203C27582D01204017582001204018537821200A7120401853682D4
:200247001200A7120401D0078F821200A71204010203DDAF82C0071203C27582D012040180
:20026700758204120401D0078F821200A71204018538821200A71204018539821200A71293
:0502870004010203DD8B
:20028C0075C70075C50075C60075C38075C40043C11022AE82AF8375C78375C5018EC48F3D
:2002AC00C375C65A75C6A500AFC2C00712028CD0078F8222AE82AF8375C78375C5028EC469
:2002CC008FC38518C275C65A75C6A50002028CAE82AF8375C78375C5038EC48FC375C65AC5
:2002EC0075C6A50002028C43C1107F20EF60101FEF24BDF582E43400F58374FFF080EDBFEB
:20030C0020005018EF24BDFDE43400FE8F827583F00FE493FC8D828E83F080E390000002E6
:20032C0002DB7F00BF2000502975C78375C5028FC475C300EF24BDF582E43400F5830FE0B1
:13034C00F5C275C65A75C6A500C00712028CD00780D222C0
:20035F00759850438E40538EFE758BB2758DFFC2ABD28ED2ACD2A022E582FF700122C2994B
:20037F008F9920990543C11080F8C29922AD82AE83AFF0C2998D828E838FF01274D8FC60BC
:20039F00218C9920990543C11080F8C2998D828E838FF01274D8FCBC1A01220DBD00D60EB3
:0303BF0080D322C6
:2003C200D2C043C11043C110D2CD43C11043C110C2C043C11043C110C2CD22C2C043C110A9
:2003E20043C110D2CD43C11043C110D2C02243C11043C110D2CD43C11043C110C2CD22AF1D
:20040200827E00EF23540124FF92C08F05ED2DFFC007C0061203F0D006D0070EBE080040FE
:20042200E20203F07F00D2C07E0043C11043C110D2CD43C11043C1108F05ED2DFDA2C0E474
:1E044200334DFFC2CD0EBE080040DFA200B392C0C0071203F0D007A2C092CD8F82225D
:20046000AE82AF837C007D00C3EC9EED9F500A43C1100CBC00F20D80EF22AE82AF837C00A4
:200480007D00C3EC9EED9F501D9003E8C007C006C005C004120460D004D005D006D0070C30
:2004A000BC00DF0D80DC22AF82E53A4FF58212053075820D020530AF82302D118F821205B7
:2004C00030853B82853C83853DF00205B08F82020591AF82D285EFC4540124FF9283EFA2FB
:2004E000E5E43324FF9282EF2323540124FF9281EF235401FE24FF9280D28400C28400EFE4
:20050000540124FF9283EF03540124FF9282EF03035401FE24FF9281EFA2E3E433FF24FFA5
:200520009280D28400C284900064120460C28522AF82C285EFC4540124FF9283EFA2E5E428
:200540003324FF9282EF2323540124FF9281EF235401FE24FF9280D28400C28400EF5401F7
:2005600024FF9283EF03540124FF9282EF03035401FE24FF9281EFA2E3E433FF24FF928088
:20058000D28400C28490006402046075820C020530E582FF600E8F8212053090756675F02F
:2005A000800205B0758201120530900640020460AD82AE83AFF07C008D828E838FF01274E9
:2005C000D8FB6055BC10005050BB80005025EB24E050200CEC601C0DBD00010E8B82C007F7
:2005E000C006C005C0041204D2D004D005D006D00780C58D828E838FF01274D8FBA3AD825F
:20060000AE838B82C007C006C005C004120530D004D005D006D007809F22C286903A9812EC
:20062000046075801C00C284900FA0120460D28400C2849000A0120460D28400C2849000DC
:20064000A012046075801400C2849003E8120460D28400C2840075801100C2849000281292
:20066000046075801000C2840075801300C28490002812046075801000C2840075801600F9
:20068000C28490002812046075801000C2840075801800C2849003E8020460AF82E54124EC
:2006A000E8500122E543240540030207578F82120530853E82853F838540F01205B074F621
:2006C000254140067D207E00801DAB417C00751A0A8C1B8B828C8312752AAB82AC83743041
:2006E0002BFBFD3395E0FE8D821204D2AD417E00751A0A8E1B8D828E831274F4AD8274301F
:200700002DF5821204D2E543240350123001067D3A7E0080047D207E008D821204D2AD42AB
:200720007E00751A0A8E1B8D828E83C006C00512752AAB8274302BF5821204D2D005D00697
:20074000751A0A751B008D828E831274F4AD8274302DF5820204D28F82120530853E828565
:200760003F838540F01205B074F6254140067E207F00801DAC417D00751A0A8D1B8C828D25
:200780008312752AAC82AD8374302CFCFE3395E0FF8E821204D2AE417F00751A0A8F1B8E1F
:2007A000828F831274F4AE8274302EF5821204D23001067E3A7F0080047E207F008E821299
:2007C00004D2AE427F00751A0A8F1B8E828F83C007C00612752AAC8274302CF5821204D2D4
:2007E000D006D007751A0A751B008E828F831274F4AE8274302EF5821204D23001067E3A37
:200800007F0080047E207F008E821204D2AE437F00751A0A8F1B8E828F83C007C0061275D7
:200820002AAC8274302CF5821204D2D006D007751A0A751B008E828F831274F4AE827430EB
:0C0840002EF5821204D27582200204D230
:11756600202020202020202020202020202020200014
:060000000200490210534A
:03000B000214419B
:0100130032BA
:01001B0032B2
:030023000225FAB9
:03002B000273302D
:01003300329A
:03003B000210A30D
:0300430002732025
:0500A200C23F02004610
:0300460002506BFA
:20084C00E54675F006A4FFAD457E00751A0A8E1B8D828E83C00712752AAD82D007ED2FF5F2
:20086C00537E017D0190F007E493FCC3ED9C4003020916ED90F00793FC8D030BEB3395E041
:20088C00FAEB2407F582EA34F0F583E493F9C3EC99E433F97C0009B900010CED90F0079325
:2008AC00F8C3E55398E4337F0029F9EF3CFCEB2407F582EA34F0F583E493FFC3E5539FE4BB
:2008CC00337B0029F582EB3CF583751A028B1BC006C0051274F4E5828583F0D005D0064594
:2008EC00F060218E047F008C828F83A3751A028F1BC0061274F4AC82AF83D006EC4F24FF98
:20090C0092A180060D8D0602087190F007E493FFEEB50702800122EE90F00793FF90F0081C
:20092C00E493FDC3EF9DE433FF7D000FBF00010DEE90F00793FCC3E5539CE4337B002FFF1E
:20094C00EB3DFD90F008E493FCC3E5539CE4337B002FF582EB3DF583751A028B1BC00612ED
:20096C0074F4E5828583F0D00645F060197F008E828F83A3751A028F1B1274F4AE82AF83C5
:20098C00EE4F24FF92A122787BB60002800E787BB60102804A787BB6024E8029787CE6B5B6
:2009AC004607787DE6B5450122AF46787CA607AE45787DA6068E198F82127395787E765A24
:2009CC00787B76022230920BD2C2787BA2C2E433F6800C787E8607787EEF14F6EF70092033
:2009EC009206787B7600C2C2222002092036069000F4E06006C213758205229000E2E0FFAF
:200A0C00601C9000E1E0600FEF13924850091FEFFE3395E0FF80047E057F008E822290015D
:200A2C002DE0FFBF03004003020ACA9000E8E07003020AC4E54CFFB54508E547B5480302C8
:200A4C000AC485481A751B0090003CC007127445E5828583F0D00724D0FD740235F0FE7CAB
:200A6C0000EF2DFDEC3EFE85471A8C1B90003CC006C005127445AC82AF83D005D006EDC3BF
:200A8C009CFDEE9FFEAC457F00EDC39CF582EE9FF583751AD0751B021274F4AE82AF83C35E
:200AAC0074689E74818FF063F08095F0921375824212037775820022C21375820522E55138
:200ACC0024FE4003020B599000E8E07003020B59E54CFFB54507E547B54802807085481ADB
:200AEC00751B0090003CC007127445E5828583F0D00724D0FD740235F0FE7C00EF2DFDECBB
:200B0C003EFE85471A8C1B90003CC006C005127445AC82AF83D005D006EDC39CFDEE9FFEFF
:200B2C00AC457F00EDC39CF582EE9FF583751AD0751B021274F4AE82AF83C374689E748172
:200B4C008FF063F08095F09213758200229000EAE07003020BDFE54EFFB54507E547B54ADD
:200B6C00028070854A1A751B0090003CC007127445E5828583F0D00724D0FD740235F0FEE0
:200B8C007C00EF2DFDEC3EFE85471A8C1B90003CC006C005127445AC82AF83D005D006EDE5
:200BAC00C39CFDEE9FFEAC457F00EDC39CF582EE9FF583751AD0751B021274F4AE82AF833D
:200BCC00C374689E74818FF063F08095F092137582022274FE25515003020C6E9000E8E031
:200BEC007003020C6EE54CFFB54507E547B54802807085481A751B0090003CC007127445D9
:200C0C00E5828583F0D00724D0FD740235F0FE7C00EF2DFDEC3EFE85471A8C1B90003CC032
:200C2C0006C005127445AC82AF83D005D006EDC39CFDEE9FFEAC457F00EDC39CF582EE9F73
:200C4C00F583751AD0751B021274F4AE82AF83C374689E74818FF063F08095F0921375829E
:200C6C000022C2137582052290012DE0FFBF0102800C2002092036069000F4E06006C21441
:200C8C00758205229000E2E0FE601C9000E1E0600FEE5401FD70091EEEFD3395E0FE8004B2
:200CAC007D057E008D8222BF04004003020D479000E9E07003020D41E54DFFB54507E54721
:200CCC00B54902807085491A751B0090003CC007127445E5828583F0D00724D0FD74023570
:200CEC00F0FE7C00EF2DFDEC3EFE85471A8C1B90003CC006C005127445AC82AF83D005D089
:200D0C0006EDC39CFDEE9FFEAC457F00EDC39CF582EE9FF583751AD0751B021274F4AE821A
:200D2C00AF83C374689E74818FF063F08095F0921475820122C21475820522E55224FE401F
:200D4C0003020DD69000E9E07003020DD6E54DFFB54507E547B54902807085491A751B0028
:200D6C0090003CC007127445E5828583F0D00724D0FD740235F0FE7C00EF2DFDEC3EFE8507
:200D8C00471A8C1B90003CC006C005127445AC82AF83D005D006EDC39CFDEE9FFEAC457FCE
:200DAC0000EDC39CF582EE9FF583751AD0751B021274F4AE82AF83C374689E74818FF0637E
:200DCC00F08095F09214758201229000EBE07003020E5CE54FFFB54507E547B54B028070C6
:200DEC00854B1A751B0090003CC007127445E5828583F0D00724D0FD740235F0FE7C00EFE4
:200E0C002DFDEC3EFE85471A8C1B90003CC006C005127445AC82AF83D005D006EDC39CFD71
:200E2C00EE9FFEAC457F00EDC39CF582EE9FF583751AD0751B021274F4AE82AF83C3746877
:200E4C009E74818FF063F08095F092147582032274FE25525003020EEB9000E9E070030255
:200E6C000EEBE54DFFB54507E547B54902807085491A751B0090003CC007127445E582855D
:200E8C0083F0D00724D0FD740235F0FE7C00EF2DFDEC3EFE85471A8C1B90003CC006C005D1
:200EAC00127445AC82AF83D005D006EDC39CFDEE9FFEAC457F00EDC39CF582EE9FF58375CF
:200ECC001AD0751B021274F4AE82AF83C374689E74818FF063F08095F0921475820122C223
:200EEC0014758205229002001202DB90012DE0FFBF01028043BF0202802CBF03028015BF8A
:200F0C000448854F189002061202C0854B189002071202C0854E189002041202C0854A1890
:200F2C009002051202C0854D189002021202C08549189002031202C0854C1890020012020A
:200F4C00C08548189002010202C02275FA0075EA009000E474A8F07461A3F075DA49D2DE69
:200F6C0022538E7F7589009000EDE0FF8F1A751B009007D0C007127445AD82AE83D007EE32
:200F8C003395E0FCFB7430C39D74F89EFEE49CE49B8E8CEF75F0D0A4D39430F4F58AC28D60
:200FAC00D28CD2A92243C110B220A2209287D21E9000F9E0FFE06006EF149000F9F09000BF
:200FCC00FBE0FFE06006EF149000FBF09000F4E0FFBF020122054490012EE0FF7E001FBFDD
:200FEC00FF011EAC447D00C3EF9CEE64808DF063F08095F050507544009000B9E0600E90E5
:20100C0000BAE014F0E070059000B9E4F0D21F0545E54524C4502FC2037545000546E546F3
:20102C0024E85017787C76187546009000E6E0FFE06006EF149000E6F0C2040547E547248E
:20104C00F4500375470022C029C0E0C0F0C082C083C007C006C005C004C003C002C001C085
:20106C0000C0D075D00843C1109000E774FAF0C23875D000120FB175D008D0D0D000D001FF
:20108C00D002D003D004D005D006D007D083D082D0F0D0E0D02932C029C0E0C0F0C082C0CE
:2010AC0083C007C006C005C004C003C002C001C000C0D075D00843C11010D80302142490DF
:2010CC0000E4E0FEA3E0FF8EEA8FFA9000E474A82EF074613FA3F090F01FE493600CA2B690
:2010EC00B39215A2B7B392168008A2B69215A2B7921690012DE0FFBF015790F01FE4936024
:20110C00293034132015033016047F0080027F01EF24FF9215803A2015072016047F008038
:20112C00027F01EF24FF921580273034133015073016047F0080027F01EF24FF92158011E9
:20114C003015032016047F0080027F01EF24FF92157405B55103021248A215E4332430F5D2
:20116C008275D00012037775D00830150D301705D219021248D217021248201B0302123C0B
:20118C00E55124E8FEE43400FF9000ECE08E828F83F09000E1E0FFE06008EF149000E1F082
:2011AC00806030122EE551244CF9870F0FA70FEF24C4501FE551244CF87600E5512448F9E4
:2011CC00870F0FA70FEF24F45038E5512448F87600802F20122CE551244CF9870F1FA70FF2
:2011EC00EF24C3501DE551244CF8763BE5512448F9870F1FA70FEF24F35007E5512448F854
:20120C00760BC219C217C21B75D0001209F575D0088582517405B5510C75825375D000128A
:20122C00037775D00875D000120EF175D008800C301904D21B800510170280007405B552C4
:20124C000302131130160D301805D21A021311D218021311201C03021305E55224E8FEE419
:20126C003400FF9000ECE08E828F83F09000E1E0FFE06008EF149000E1F0806030122EE590
:20128C0052244CF9870F0FA70FEF24C4501FE552244CF87600E5522448F9870F0FA70FEFEB
:2012AC0024F45038E5522448F87600802F20122CE552244CF9870F1FA70FEF24C3501DE531
:2012CC0052244CF8763BE5522448F9870F1FA70FEF24F35007E5522448F8760BC21AC21861
:2012EC00C21C75D000120C7475D00885825275D000120EF175D008800C301A04D21C800597
:20130C00101802800030210930B5069000F17402F030210330B5047F0080027F01EF24FF1B
:20132C00922420230330B5047F0080027F01EF24FF922120220A2024032021047F0080029D
:20134C007F01EF24FF9222A2B5922330250930B3069000F27402F030250330B3047F0080C2
:20136C00027F01EF24FF922820270330B3047F0080027F01EF24FF922520260A20280320DD
:20138C0025047F0080027F01EF24FF9226A2B3922730290930B4069000F37402F03029032E
:2013AC0030B4047F0080027F01EF24FF922C202B0330B4047F0080027F01EF24FF92292044
:2013CC002A0A202C032029047F0080027F01EF24FF922AA2B4922B90013EE014F0E0700AC2
:2013EC00D23F90013E7414F0B22D9000E7E0FFE0600EEF149000E7F090013F7428F08018A8
:20140C0090013FE014F0E0700F90013F7428F075D000120FB175D008D0D0D000D001D002DA
:20142C00D003D004D005D006D007D083D082D0F0D0E0D02932C0E0C082C083C0D075D0102D
:20144C0043C110303539E551B40100E43324FF92A77401B5520474018001E424FF92A57448
:20146C0002B5510474018001E424FF92A67403B5520474018001E4FF24FF92A4021515E55A
:20148C0051700B90F000E4935407600280047F0080027F01EF24FF92C47401B5520474015E
:2014AC008001E424FF92C32034109000E2E0700A2013072014047F0080027F01EF24FF927C
:2014CC00122034427405B551097405B55204E5517034E5A0540FFFE55090758D934FF5A04D
:2014EC003012067E017F0080047EFF7FFFAF50EE2FF55024F75005755007800D7408B55070
:20150C0008755000800353A00FD0D0D083D082D0E032AF829000BBE4F0BFA100500FEF2424
:20152C0017F582E43400F5830FE4F080EC2285825985835A85F05BAC559000FAECF085543E
:20154C00F0ECA4FB9000FB740A2BF0C22E855982855A83855BF0C00412038CD0047402258A
:20156C0059F9E4355AFAAB5B74072559F55CE4355AF55D855B5E74082559F55FE4355AF597
:20158C0060855B61A854302E0302170A9000FBE0700302170A30300302170A43C11075828C
:2015AC0080C004C003C002C001C0001205308556828557838558F01205B0D000D001D002CB
:2015CC00D003D004301D32753E33753F79754080854641854542854443A22092017582C061
:2015EC00C004C003C002C001C00012069BD000D001D002D003D004806990F002E4937032C4
:20160C00753E3B753F79754080854641854542854443A22092017582C0C004C003C002C035
:20162C0001C00012069BD000D001D002D003D0048030753E43753F79754080854641854532
:20164C0042854443A22092017582C0C004C003C002C001C00012069BD000D001D002D00361
:20166C00D0041032028002C3229000F9E06006203103021592C231880718EF700302170AF4
:20168C009000F9ECF09000FAECF089828A838BF01274D8FFBF2B44855C82855D83855EF0BA
:2016AC001274D8FFBF3F028032855F828560838561F01274D8FFBF3F02802090794B75F0B5
:2016CC0080C004C003C002C001C00012038CD000D001D002D003D004021592855982855A11
:2016EC0083855BF0C004C003C002C001C00012038CD000D001D002D003D004021592758266
:20170C00801205919000FCE4F0A22E22AD82AE83AFF090794F75F080C007C006C0051203A0
:20172C008CD005D006D0078D828E838FF012038C75565675577975588075540175553C903C
:20174C00795375F08002153A900017E0602090001AE0701A755669755779755880755403CE
:20176C0075550190796775F08012153AC32290797A75F08012038C30400B90000175F0007D
:20178C0012038C800990F01175F08012038C9000FC7408F075568775577975588075540552
:2017AC0075553D90798475F08002153A900017E4F0C20F9000FC7407F07556A975577975E2
:2017CC00588075540375551E90799575F08012153A9000FCE4F0900017E024FF22C20F9000
:2017EC0000FC740DF09000F7E0FFBF50028025BF66028038BF6E02804BBF74607556BA75EE
:20180C00577975588075540375551E90799575F08002153A7556BA75577975588075540334
:20182C0075551E9079CC75F08002153A7556BA75577975588075540375551E9079E075F090
:20184C008002153A7556BA75577975588075540375551E90799575F08002153AC322900097
:20186C00FC740EF075820012151E9000BBE4F07556FA75577975588075540F755501907990
:20188C00F275F08012153A50339000F8E4F07F00EF2417F582E43400F583E0FEBE2C01228A
:2018AC00EF2417F582E43400F5830FE024D0FE9000F8E0FD75F00AA42EF080D42230350693
:2018CC007E017F7A80047E087F7A7D808E828F838DF012038C7F003034067D0F7E7A800453
:2018EC007D137E7A7C808D828E838CF0C00712038CD0078F0674312EF582C00712037775D6
:20190C00823D120377D007EF24E8FDE43400FE8D828E83E0700A758245C007120377D007AB
:20192C00EF2448F987067D00751A0A8D1B8E828D83C007C00112752AAD8274302DF582121A
:20194C000377D00187067D00751A0A8D1B8E828D831274F4AD8274302DF582120377758251
:20196C003A120377D007EF244CF987067D00751A0A8D1B8E828D83C007C00112752AAD8293
:20198C0074302DF582120377D00187067D00751A0A8D1B8E828D831274F4AD8274302DF5BC
:2019AC0082120377D0070F90012DE0FEEFB50601220218E322907A1775F08012038CAE4604
:2019CC007F00751A0A8F1B8E828F8312752AAE8274302EF582120377AE467F00751A0A8FC6
:2019EC001B8E828F831274F4AE8274302EF58212037775823A120377AE457F00751A0A8FC8
:201A0C001B8E828F8312752AAE8274302EF582120377AE457F00751A0A8F1B8E828F8312DE
:201A2C0074F4AE8274302EF582120377304121907A1B75F08012038C301D067E317F0080EF
:201A4C00047E307F0090F002E4932EF58202037722787A861A751B0090001C127445751AE5
:201A6C0000751B0112752AAE82AF83204203021B4B907A2175F080C00612038CD006303636
:201A8C00067D307F0080047D317F008D82C006120377907A2675F08012038C90F001E49348
:201AAC002430F582120377907A2B75F08012038CD0069000E7E060067D317F0080047D3017
:201ACC007F008D82C006120377907A3075F08012038C9000E6E02430F58212037775822F87
:201AEC0012037790F003E4932430F582120377907A3575F08012038C90F004E493FF7D00C1
:201B0C00751A0A8D1B8F828D8312752AAD8274302DF58212037790F004E493FF7D00751A9D
:201B2C000A8D1B8F828D831274F4AD8274302DF582120377907A3A75F08012038CD0069019
:201B4C007A3E75F080C00612038CD00630A1067D317F0080047D307F008D82C0061203778A
:201B6C00907A4475F08012038CD0067F00751A0A8F1B8E828F83C007C00612752AAC8274EB
:201B8C00302CF582120377D006D007751A0A751B008E828F831274F4AE8274302EF58212DD
:201BAC00037790F010E4937003304221907A4A75F08012038C3092067E307F0080047E2F92
:201BCC007F0090F010E4932EF58212037720420122907A5075F08012038C9000F8E0FF7EF8
:201BEC0000751A0A8E1B8F828E8312752AAE8274302EF5821203779000F8E0FF7E00751A4B
:201C0C000A8E1B8F828E831274F4AE8274302EF582120377907A5675F08012038C90F01CE2
:201C2C00E4932430F58212037790F01CE493FFBF02012275822C12037790F01175F08002AD
:201C4C00038CAD82AE83AFF0900130E070012275560C75577675588075540F755501907AA3
:201C6C005B75F080C007C006C00512153A12186AD005D006D00774012DFAE43EFB8F048A79
:201C8C00828B838CF01274D8F9B92A02801DC007C006C005C004C003C0021217B8D002D035
:201CAC0003D004D005D006D0078005900017E4F0A2439240C007C006C005C004C003C0026D
:201CCC00121754D002D003D004D005D006D00740012290760C75F080C007C006C005C00410
:201CEC00C003C00212038C1218C9A24392411219C1A2439242121A5DD002D003D004D0058B
:201D0C00D006D0078A828B838CF01274D8FABA2A028053900017E0604D907A5F75F080C021
:201D2C0007C006C00512038C90001775F00012038CD005D006D00730431B90001BE0701597
:201D4C00907A6A75F080C007C006C00512038CD005D006D00790001BE4F090001AF0900000
:201D6C0019F0900018F08D828E838FF0C007C006C00512038CD005D006D0070DBD00010EC9
:201D8C008D828E838FF01274D8FDBD2A0990796775F08002038C75568475577A7558807510
:201DAC00543275550190796775F08002153A907A3E75F08012038C30A1067E317F008004C9
:201DCC007E307F008E82120377907A9575F08012038C90F007E4932430F58212037790F034
:201DEC0007E4937009907A9D75F08002038C907AB275F08012038C90F007E493FF75820D80
:201E0C00C007120377D007EF90F00793FE7D00751A3C8D1B8E828D83C00712752AAD82745A
:201E2C00302DF582120377D007EF90F00793FE7D00751A068D1B8E828D83C00712752A7591
:201E4C001A0A751B001274F4AD8274302DF58212037775823A120377D007EF90F00793FFA9
:201E6C007E00751A068E1B8F828E831274F4AE8274302EF582120377907ABF75F080120336
:201E8C008C90F008E493FF7E00751A3C8E1B8F828E8312752AAE8274302EF5821203779052
:201EAC00F008E493FF7E00751A068E1B8F828E8312752A751A0A751B001274F4AE827430A2
:201ECC002EF58212037775823A12037790F008E493FF7E00751A068E1B8F828E831274F4B2
:201EEC00AE8274302EF5821203777582301203777F0290F007E493FEC3EF9E4001227582F7
:201F0C000DC007120377D007EF90F00793FE7D00751A3C8D1B8E828D83C00712752AAD82C0
:201F2C0074302DF582120377D007EF90F00793FE7D00751A068D1B8E828D83C00712752A91
:201F4C00751A0A751B001274F4AD8274302DF58212037775823A120377D007EF90F0079332
:201F6C00FE7D00751A068D1B8E828D83C0071274F4AD8274302DF582120377907ABF75F00B
:201F8C008012038CD0078F06EE04FD3395E0FCED2407F582EC34F0F583E493FB7A00751A83
:201FAC003C8A1B8B828A83C006C005C00412752AAA8274302AF582120377D004D005ED2463
:201FCC0007F582EC34F0F583E493FB7A00751A068A1B8B828A83C005C00412752A751A0ADC
:201FEC00751B001274F4AA8274302AF58212037775823A120377D004D005ED2407F582ECED
:20200C0034F0F583E493FD7C00751A068C1B8D828C831274F4AC8274302CF58212037775DE
:20202C008230120377D00674022EFF021EFEAD82AE83AFF0900130E070012275560C7557E9
:20204C007675588075540F755501907A5B75F080C007C006C00512153AA2449240121754DC
:20206C00D005D006D007400122A2449241C007C006C0051219C1A2449242121A5D121DBA4C
:20208C00D005D006D0078D828E838FF012038C7556C475577A755880755432755501907981
:2020AC006775F08002153A900017E4F0D24012175440012290761D75F08012038C7556D5C1
:2020CC0075577A75588075543275550190796775F08002153A75560C7557767558807554C6
:2020EC000F755501907A5B75F08012153A503675820012151E9000BBE4F09000FC740AF074
:20210C007556F075577A75588075540F755501907AE675F08012153A500990001BE0FF9019
:20212C0000F7F0D322C3227F0090012FE0FEBE3D012275560675577B75588075540F755590
:20214C0001907AFB75F080C00712153AD007400302227B75561F75577B75588075540F75DC
:20216C005501907B1475F080C00712153AD007400302227B9000FC740CF075563B75577BCF
:20218C0075588075540A75553C907B3075F080C00712153AD007400302227B758200C0074E
:2021AC0012151E9000BBE4F09000FC7402F075565675577B75588075540F755501907B4C0E
:2021CC0075F08012153AD007400302227B90001AE024D075F00AA4FE90001BE02E24D09028
:2021EC0000E0F090001DE024D075F00AA4FE90001EE02E24D09000DFF0900020E024D07569
:20220C00F00AA4FE900021E02E24D09000DEF0900023E024D075F00AA4FE900024E02E2487
:20222C00D0F546900026E024D075F00AA4FE900027E02E24D0F545900029E024D075F00AFD
:20224C00A4FE90002AE02E24D0F5448545368544378546821202289000DEE0FE9000DFE0B7
:20226C00F5389000E0E0F5398E8212025A7F01EF24FF921D9000FCE4F02275566F75577BE5
:20228C0075588075540F755501907B6475F08012153A502D75820012151E9000BBE4F09025
:2022AC0000FC740BF075568B75577B75588075540F755501907B8075F08012153A5002D324
:2022CC0022C32230A006900130E07002C3227556A675577B75588075540F755501907B9BCF
:2022EC0075F08012153A50397556CA75577B75588075540F755501907BB775F08012153A2F
:20230C00501F7556EF75577B75588075540F755501907BDB75F08012153A500512186AD369
:20232C0022C32230A006900130E07002C32275560C75577675588075540F755501907A5B4E
:20234C0075F08012153A4001227556A675577B75588075540F755502907B9B75F08012156D
:20236C003A50367556CA75577B75588075540F755501907BB775F08012153A501C75560086
:20238C0075577C755880755414755503907BDB75F08012153A5002D322C3227F0090012F5B
:2023AC00E0FEBE3D012275560C75577675588075540F755501907A5B75F080C00712153A9A
:2023CC00D00740030225EF75561C75577C75588075540F755501907C1275F080C0071215B1
:2023EC003AD00740030225EF75566F75577B75588075540F755501907B6475F080C00712C9
:20240C00153AD00790F002E49370030225EF75562D75577C75588075540F755501907AFBD3
:20242C0075F080C00712153AD00740030225EF75564975577C75588075540F755501907CFB
:20244C003E75F080C00712153AD00740030225EF9000FC7406F075566675577C75588075C4
:20246C00540F755502907C5B75F080C00712153AD00740030225EF9000FDE0FEBE010280D1
:20248C00030225EF7E007D00ED240FF582E43401F5830DE0FCBC2C060EBE0300500ABD0B2C
:2024AC0000500543C11080E0EE24FD40030225EF8D060EEE3395E0FCEE240FF582EC3401F3
:2024CC00F583E0FEBE2C15ED04FEED240FF582E43401F583E0FC24D0F5468029ED04FCEDF6
:2024EC00240FF582E43401F583E024D075F00AA4FDEC04FEEC240FF582E43401F583E0FCC0
:20250C0024D02DF5460E8E050DED3395E0FCED240FF582EC3401F583E0FDBD2C15EE04FD1A
:20252C00EE240FF582E43401F583E0FC24D0F5458029EE04FCEE240FF582E43401F583E0BC
:20254C0024D075F00AA4FEEC04FDEC240FF582E43401F583E0FC24D02EF545ED04FEFD0D25
:20256C00ED3395E0FCED240FF582EC3401F583E0FDBD2C12EE240FF582E43401F583E0FDB0
:20258C0024D0F5448026EE04FDEE240FF582E43401F583E024D075F00AA4FEED240FF582C8
:2025AC00E43401F583E0FD24D02EF544AD467E0074072DFDE43EFEC374179D74808EF06350
:2025CC00F08095F05007E54624EFFE8006AD4674072DFE8E46854536854437854682120213
:2025EC00287F01EF24FF921D9000FCE4F022C029C0E0C0F0C082C083C007C006C005C00410
:20260C00C003C002C001C000C0D075D010209803023EB743C1109000FAE09000F9F090008A
:20262C00FEE02400F582E43401F583E599F09000FEE0FF2400F582E43401F583E0FEBE4E93
:20264C000280030227808F147D00740C2CF582E43DF583751A0D8D1BC017C016C015C014CA
:20266C0075D0001274F475D010AA82AB83D014D015D016D017EA2400F582EB3401F583E04D
:20268C00FBBB49028003022780740B2CF582E43DF583751A0D751B00C017C016C015C014C4
:2026AC0075D0001274F475D010AA82AB83D014D015D016D017EA2400F582EB3401F583E00D
:2026CC00FBBB20028003022780740A2CF582E43DF583751A0D751B00C017C016C015C014AE
:2026EC0075D0001274F475D010AA82AB83D014D015D016D017EA2400F582EB3401F583E0CD
:20270C00FBBB547074092CF582E43DF583751A0D751B00C017C016C015C01475D00012742D
:20272C00F475D010AA82AB83D014D015D016D017EA2400F582EB3401F583E0FBBB4F3574A9
:20274C00082CF582E43DF583751A0D751B00C017C01675D0001274F475D010AC82AD83D00E
:20276C0016D017EC2400F582ED3401F583E0FDBD4E02D2309000FCE0FD24F15003023EA38F
:20278C00ED240A83F582ED241383F583E4738507B757A3CF37CC42A30DA81D32B82A33296C
:2027AC00333E343136363E2929283C279000BBE0FC04F0EC2417F582E43400F583E599F0F9
:2027CC007420B599369000FEE0FC7B00740C2CF582E43BF583751A0D8B1B75D0001274F435
:2027EC0075D010AB82AC83EB2400F582EC3401F583E0FCBC3A059000BBE4F0742CB5990217
:20280C008003023EA39000FCE4F09000BBF0023EA37454B5996E8F137C00740C2BF582E420
:20282C003CF583751A0D8C1BC017C014C01375D0001274F475D010A982AA83D013D014D014
:20284C0017E92400F582EA3401F583E0FABA5334740B2BF582E43CF583751A0D751B00C07A
:20286C001775D0001274F475D010AB82AC83D017EB2400F582EC3401F583E0FCBC4405D20C
:20288C002E023EA37452B599028003023EA38F137C00740C2BF582E43CF583751A0D8C1B84
:2028AC00C014C01375D0001274F475D010A982AA83D013D014E92400F582EA3401F583E037
:2028CC00FABA4F028003023EA3740B2BF582E43CF583751A0D751B0075D0001274F475D098
:2028EC0010AB82AC83EB2400F582EC3401F583E0FCBC52028003023EA39000F9E4F0023E52
:20290C00A39000BBE0FC04F0EC2417F582E43400F583E599F07422B599369000FEE0FC7B52
:20292C0000740C2CF582E43BF583751A0D8B1B75D0001274F475D010AB82AC83EB2400F51B
:20294C0082EC3401F583E0FCBC20059000BBE4F0742CB599028003023EA39000FEE0FC7B39
:20296C0000740C2CF582E43BF583751A0D8B1B75D0001274F475D010AB82AC83EB2400F5DB
:20298C0082EC3401F583E0FCBC22028003023EA39000FCE4F09000BBF0023EA37431B5997D
:2029AC00028003023EA3D22E023EA39000BBE0FC04F0EC2417F582E43400F583E599F07495
:2029CC004BB599699000FEE0FB7C00740C2BF582E43CF583751A0D8C1BC014C01375D0001B
:2029EC001274F475D010A982AA83D013D014E92400F582EA3401F583E0FABA4C30740B2B08
:202A0C00F582E43CF583751A0D751B0075D0001274F475D010AB82AC83EB2400F582EC3459
:202A2C0001F583E0FCBC43059000BBE4F0740DB599028003023EA39000FEE0FC7B00740C76
:202A4C002CF582E43BF583751A0D8B1B75D0001274F475D010AB82AC83EB2400F582EC34D8
:202A6C0001F583E0FCBC22028003023EA39000FCE4F09000BBF0023EA3743EB59912907916
:202A8C006775F08075D00012038C75D010023EA3BE47028003022B738F137C00740C2BF5D8
:202AAC0082E43CF583751A0D8C1BC017C016C015C014C01375D0001274F475D010A982AA9B
:202ACC0083D013D014D015D016D017E92400F582EA3401F583E0FABA4E028003022B737458
:202AEC000B2BF582E43CF583751A0D751B00C017C016C015C014C01375D0001274F475D02C
:202B0C0010A982AA83D013D014D015D016D017E92400F582EA3401F583E0FABA4949740A09
:202B2C002BF582E43CF583751A0D751B00C017C016C01575D0001274F475D010AB82AC8331
:202B4C00D015D016D017EB2400F582EC3401F583E0FCBC5212907C7875F08075D0001203D9
:202B6C008C75D010023EA3BE3A028003022CC58F137C00740C2BF582E43CF583751A0D8C15
:202B8C001BC017C016C015C014C01375D0001274F475D010A982AA83D013D014D015D016E7
:202BAC00D017E92400F582EA3401F583E0FABA49028003022CC5740B2BF582E43CF5837584
:202BCC001A0D751B00C017C016C015C014C01375D0001274F475D010A982AA83D013D014D6
:202BEC00D015D016D017E92400F582EA3401F583E0FABA54028003022CC5740A2BF582E498
:202C0C003CF583751A0D751B00C017C016C015C014C01375D0001274F475D010A982AA8333
:202C2C00D013D014D015D016D017E92400F582EA3401F583E0FABA4D028003022CC574091E
:202C4C002BF582E43CF583751A0D751B00C017C016C015C014C01375D0001274F475D010C5
:202C6C00A982AA83D013D014D015D016D017E92400F582EA3401F583E0FABA433C74082BA2
:202C8C00F582E43CF583751A0D751B00C017C016C01575D0001274F475D010AB82AC83D02B
:202CAC0015D016D017EB2400F582EC3401F583E0FCBC2B05D20C023EA3E4BE200104FC704B
:202CCC0003022E748F127B00740C2AF582E43BF583751A0D8B1BC017C016C015C014C01302
:202CEC00C01275D0001274F475D010A882A983D012D013D014D015D016D017E82400F582AE
:202D0C00E93401F583E0F9B93A028003022E74740B2AF582E43BF583751A0D751B00C01762
:202D2C00C016C015C014C013C01275D0001274F475D010A882A983D012D013D014D015D09B
:202D4C0016D017E82400F582E93401F583E0F9B94C028003022E74740A2AF582E43BF58394
:202D6C00751A0D751B00C017C016C015C014C013C01275D0001274F475D010A882A983D0E6
:202D8C0012D013D014D015D016D017E82400F582E93401F583E0F9B947028003022E74740D
:202DAC00092AF582E43BF583751A0D751B00C017C016C015C014C013C01275D0001274F4E0
:202DCC0075D010A882A983D012D013D014D015D016D017E82400F582E93401F583E0F9B936
:202DEC004D028003022E7474082AF582E43BF583751A0D751B00C017C016C015C014C01348
:202E0C00C01275D0001274F475D010A882A983D012D013D014D015D016D017E82400F5828C
:202E2C00E93401F583E0F9B9433E74072AF582E43BF583751A0D751B00C017C016C015C0BC
:202E4C001475D0001274F475D010AA82AB83D014D015D016D017EA2400F582EB3401F58331
:202E6C00E0FBBB2B03023008EC70030230538F137C00740C2BF582E43CF583751A0D8C1B49
:202E8C00C017C016C015C014C01375D0001274F475D010A982AA83D013D014D015D016D02F
:202EAC0017E92400F582EA3401F583E0FABA3A028003023053740B2BF582E43CF583751AB4
:202ECC000D751B00C017C016C015C014C01375D0001274F475D010A982AA83D013D014D01D
:202EEC0015D016D017E92400F582EA3401F583E0FABA50028003023053740A2BF582E43C9B
:202F0C00F583751A0D751B00C017C016C015C014C01375D0001274F475D010A982AA83D09C
:202F2C0013D014D015D016D017E92400F582EA3401F583E0FABA4902800302305374092B32
:202F4C00F582E43CF583751A0D751B00C017C016C015C014C01375D0001274F475D010A944
:202F6C0082AA83D013D014D015D016D017E92400F582EA3401F583E0FABA4C02800302306B
:202F8C005374082BF582E43CF583751A0D751B00C017C016C015C014C01375D0001274F408
:202FAC0075D010A982AA83D013D014D015D016D017E92400F582EA3401F583E0FABA4302EB
:202FCC00800302305374072BF582E43CF583751A0D751B00C017C016C01575D0001274F4BB
:202FEC0075D010AB82AC83D015D016D017EB2400F582EC3401F583E0FCBC2B4B8F137C0017
:20300C0074092BF582E43CF583751A0D8C1B75D0001274F475D010AB82AC83EB2400F582B4
:20302C00EC3401F583E0FCBC4C03D38001C392064006300E03023EA3C20BC209C2089000F9
:20304C00FC7403F0023EA3BE4B698F137C00740C2BF582E43CF583751A0D8C1BC017C016E4
:20306C00C01575D0001274F475D010AB82AC83D015D016D017EB2400F582EC3401F583E04E
:20308C00FCBC4F2FBD02059000BBE4F0A22FB3922EC22F9000BBE07003023EA39000BBE426
:2030AC00F0907BDB75F08075D00012038C75D010023EA3BE54028003023EA38F147D00741D
:2030CC000C2CF582E43DF583751A0D8D1BC015C01475D0001274F475D010AA82AB83D0145D
:2030EC00D015EA2400F582EB3401F583E0FBBB4F028003023EA3740B2CF582E43DF5837545
:20310C001A0D751B0075D0001274F475D010AC82AD83EC2400F582ED3401F583E0FDBD4E71
:20312C00028003023EA3D22F023EA3BE20028003023EA38F147D00740C2CF582E43DF58315
:20314C00751A0D8D1BC015C01475D0001274F475D010AA82AB83D014D015EA2400F582EBCF
:20316C003401F583E0FBBB3A028003023EA3740B2CF582E43DF583751A0D751B00C015C0E2
:20318C001475D0001274F475D010AA82AB83D014D015EA2400F582EB3401F583E0FBBB5ACB
:2031AC00028003023EA3740A2CF582E43DF583751A0D751B00C015C01475D0001274F475D8
:2031CC00D010AA82AB83D014D015EA2400F582EB3401F583E0FBBB54028003023EA37409F4
:2031EC002CF582E43DF583751A0D751B00C015C01475D0001274F475D010AA82AB83D01460
:20320C00D015EA2400F582EB3401F583E0FBBB54028003023EA374082CF582E43DF5837521
:20322C001A0D751B00C015C01475D0001274F475D010AA82AB83D014D015EA2400F582EB7B
:20324C003401F583E0FBBB55028003023EA374072CF582E43DF583751A0D751B00C015C0EA
:20326C001475D0001274F475D010AA82AB83D014D015EA2400F582EB3401F583E0FBBB53F1
:20328C00028003023EA374062CF582E43DF583751A0D751B00C015C01475D0001274F475FB
:2032AC00D010AA82AB83D014D015EA2400F582EB3401F583E0FBBB50028003023EA38C8286
:2032CC008D83A3A3A3A3A3751A0D751B0075D0001274F475D010AC82AD83EC2400F582ED91
:2032EC003401F583E0FDBD2A028003023EA39000FFE4F09000FC04F0023EA3740DB5990252
:20330C0080209000FFE0FDBD1E0050169000FFED04F0ED240FF582E43401F583E599F0024C
:20332C003EA39000FFE0FD1DED3395E0FCED240FF582EC3401F583E4F09000FCE09000FD89
:20334C00F09000FCE4F0D22E023EA3200B030233DA9000BBE0FD7023740DB59902800302E0
:20336C003EA330060D9000BA7402F09000B9E02401F09000FC7405F0023EA3BD0A0D7422ED
:20338C00B599089000BBE4F0023EA3200813ED2401F582E43400F583E0FCB599028002D2F5
:2033AC0008300A0E20090DED90F01193FCB599028002D2099000BBED04F0200803023EA387
:2033CC00200903023EA39000FCE4F0023EA330063CBE30398F147D00740C2CF582E43DF59D
:2033EC0083751A0D8D1BC017C01675D0001274F475D010AC82AD83D016D017EC2400F58287
:20340C00ED3401F583E0FDBD22030234B5BE340280030234BD8F147D00740C2CF582E43D8E
:20342C00F583751A0D8D1BC015C01475D0001274F475D010AA82AB83D014D015EA2400F5E1
:20344C0082EB3401F583E0FBBB3866740B2CF582E43DF583751A0D751B00C015C01475D03D
:20346C00001274F475D010AA82AB83D014D015EA2400F582EB3401F583E0FBBB2B33740ABF
:20348C002CF582E43DF583751A0D751B0075D0001274F475D010AC82AD83EC2400F582EDD2
:2034AC003401F583E0FDBD2208D20B9000BB7401F0740DB599028003023EA39000FCE4F06B
:2034CC00023EA3300D3F743BB599028027740DB5990280209000BBE0FDBDA00050169000EF
:2034EC00BBED04F0ED2417F582E43400F583E599F0023EA39000BBE4F0C20D9000FCE4F056
:20350C00D20E023EA3BE2C02800302361F8F147D00740C2CF582E43DF583751A0D8D1BC036
:20352C0015C01475D0001274F475D010AA82AB83D014D015EA2400F582EB3401F583E0FB67
:20354C00BB4302800302361F740B2CF582E43DF583751A0D751B00C015C01475D00012742A
:20356C00F475D010AA82AB83D014D015EA2400F582EB3401F583E0FBBB5502800302361FEF
:20358C00740A2CF582E43DF583751A0D751B00C015C01475D0001274F475D010AA82AB8322
:2035AC00D014D015EA2400F582EB3401F583E0FBBB446074092CF582E43DF583751A0D7515
:2035CC001B00C015C01475D0001274F475D010AA82AB83D014D015EA2400F582EB3401F54A
:2035EC0083E0FBBB502D74082CF582E43DF583751A0D751B0075D0001274F475D010AC8203
:20360C00AD83EC2400F582ED3401F583E0FDBD2A0280047D0080027D01ED24FF920D740D56
:20362C00B599028003023EA39000BB7401F09000FCE4F0023EA3743EB5990A9000FCE4F06B
:20364C00D22E023EA3BE52028003023EA38F147D00740C2CF582E43DF583751A0D8D1BC023
:20366C0015C01475D0001274F475D010AA82AB83D014D015EA2400F582EB3401F583E0FB26
:20368C00BB52028003023EA3740B2CF582E43DF583751A0D751B0075D0001274F475D010AE
:2036AC00AC82AD83EC2400F582ED3401F583E0FDBD45028003023EA39000F9E4F0023EA3F8
:2036CC00300F669000F7E0FDBD50028003BD66057420B5990FBD74028003BD6E2F7464B58D
:2036EC00990280289000BBE0FDBDA000501E742EB59903023EA39000BBED04F0ED2417F569
:20370C0082E43400F583E599F0023EA3C20FC2119000BBE0FD2417F582E43400F583E4F058
:20372C009000BBF0D22E023EA39000F7E0FDBD50028003023892BE3D0280030238928F13AF
:20374C007C00740C2BF582E43CF583751A0D8C1BC017C016C015C014C01375D0001274F4FC
:20376C0075D010A982AA83D013D014D015D016D017E92400F582EA3401F583E0FABA6802FE
:20378C008003023892740B2BF582E43CF583751A0D751B00C017C016C015C014C01375D07B
:2037AC00001274F475D010A982AA83D013D014D015D016D017E92400F582EA3401F583E062
:2037CC00FABA6E028003023892740A2BF582E43CF583751A0D751B00C017C016C015C01430
:2037EC00C01375D0001274F475D010A982AA83D013D014D015D016D017E92400F582EA3463
:20380C0001F583E0FABA6902800302389274092BF582E43CF583751A0D751B00C017C01645
:20382C00C015C014C01375D0001274F475D010A982AA83D013D014D015D016D017E924000E
:20384C00F582EA3401F583E0FABA683A74082BF582E43CF583751A0D751B00C017C016C0C9
:20386C001575D0001274F475D010AB82AC83D015D016D017EB2400F582EC3401F583E0FC0A
:20388C00BC6303023C2DBD740280030239EABE200280030239EA8F137C00740C2BF582E408
:2038AC003CF583751A0D8C1BC017C016C015C014C01375D0001274F475D010A982AA83D0A0
:2038CC0013D014D015D016D017E92400F582EA3401F583E0FABA3A0280030239EA740B2BF6
:2038EC00F582E43CF583751A0D751B00C017C016C015C014C01375D0001274F475D010A99B
:20390C0082AA83D013D014D015D016D017E92400F582EA3401F583E0FABA470280030239BD
:20392C00EA740A2BF582E43CF583751A0D751B00C017C016C015C014C01375D0001274F4C5
:20394C0075D010A982AA83D013D014D015D016D017E92400F582EA3401F583E0FABA4B0239
:20396C0080030239EA74092BF582E43CF583751A0D751B00C017C016C015C014C01375D042
:20398C00001274F475D010A982AA83D013D014D015D016D017E92400F582EA3401F583E080
:2039AC00FABA543A74082BF582E43CF583751A0D751B00C017C016C01575D0001274F47521
:2039CC00D010AB82AC83D015D016D017EB2400F582EC3401F583E0FCBC2003023C2DBD6685
:2039EC00028003023B42BE3A028003023B428F137C00740C2BF582E43CF583751A0D8C1BA0
:203A0C00C017C016C015C014C01375D0001274F475D010A982AA83D013D014D015D016D0A3
:203A2C0017E92400F582EA3401F583E0FABA43028003023B42740B2BF582E43CF583751A25
:203A4C000D751B00C017C016C015C014C01375D0001274F475D010A982AA83D013D014D091
:203A6C0015D016D017E92400F582EA3401F583E0FABA4B028003023B42740A2BF582E43C1A
:203A8C00F583751A0D751B00C017C016C015C014C01375D0001274F475D010A982AA83D011
:203AAC0013D014D015D016D017E92400F582EA3401F583E0FABA54028003023B4274092BA2
:203ACC00F582E43CF583751A0D751B00C017C016C015C014C01375D0001274F475D010A9B9
:203AEC0082AA83D013D014D015D016D017E92400F582EA3401F583E0FABA203A74082BF5ED
:203B0C0082E43CF583751A0D751B00C017C016C01575D0001274F475D010AB82AC83D0157C
:203B2C00D016D017EB2400F582EC3401F583E0FCBC2E03023C2DBD6E028003023EA3BE20E8
:203B4C00028003023EA38F147D00740C2CF582E43DF583751A0D8D1BC015C01475D00012D1
:203B6C0074F475D010AA82AB83D014D015EA2400F582EB3401F583E0FBBB3A028003023EA7
:203B8C00A3740B2CF582E43DF583751A0D751B00C015C01475D0001274F475D010AA82ABFB
:203BAC0083D014D015EA2400F582EB3401F583E0FBBB43028003023EA3740A2CF582E43D0D
:203BCC00F583751A0D751B00C015C01475D0001274F475D010AA82AB83D014D015EA240047
:203BEC00F582EB3401F583E0FBBB4B028003023EA374092CF582E43DF583751A0D751B007C
:203C0C0075D0001274F475D010AC82AD83EC2400F582ED3401F583E0FDBD54028003023E52
:203C2C00A3D20F023EA3200F03023CC39000F7E0FDBD50028003BD6E05740AB59912BD66B7
:203C4C00057422B5990ABD743D742EB5990280369000BBE0FDBD0A00502CBD0900501E8D23
:203C6C00149000BBED04F00CEC3395E0FBEC240CF582EB3400F583E599F0023EA39000BB97
:203C8C00ED04F0023EA3C20FC2119000BBE0FDBD0A005016D22E0DED3395E0FCED240CF5AB
:203CAC0082EC3400F583E4F080059000F9E4F09000BBE4F0023EA39000F7E0FDBD5040BEB7
:203CCC003A3D8F137C00740C2BF582E43CF583751A0D8C1BC017C016C01575D0001274F405
:203CEC0075D010AB82AC83D015D016D017EB2400F582EC3401F583E0FCBC2903023D8ABDEC
:203D0C006E3FBE303C8F137C00740C2BF582E43CF583751A0D8C1BC017C016C01575D000DE
:203D2C001274F475D010AB82AC83D015D016D017EB2400F582EC3401F583E0FCBC20028041
:203D4C003DBD66028003BD743ABE34378F157E00740C2DF582E43EF583751A0D8E1BC017E2
:203D6C0075D0001274F475D010AD82AE83D017ED2400F582EE3401F583E0FEBE3805D20FFF
:203D8C00023EA37435B599028003023E3B8F157E00740C2DF582E43EF583751A0D8E1BC058
:203DAC0017C016C01575D0001274F475D010AB82AC83D015D016D017EB2400F582EC34016C
:203DCC00F583E0FCBC3168740B2DF582E43EF583751A0D751B00C017C016C01575D000126C
:203DEC0074F475D010AB82AC83D015D016D017EB2400F582EC3401F583E0FCBC2031740A66
:203E0C002DF582E43EF583751A0D751B00C01775D0001274F475D010AD82AE83D017ED24E9
:203E2C0000F582EE3401F583E0FEBE2C0280667452B599638F167F00740C2EF582E43FF5DC
:203E4C0083751A0D8F1BC017C01675D0001274F475D010AC82AD83D016D017EC2400F5821A
:203E6C00ED3401F583E0FDBD522D740B2EF582E43FF583751A0D751B0075D0001274F47564
:203E8C00D010AE82AF83EE2400F582EF3401F583E0FFBF4502D2319000FEE02401F0E0FF65
:203EAC0024F350059000FEE4F0C298D0D0D000D001D002D003D004D005D006D007D083D06F
:203ECC0082D0F0D0E0D02932C2107F00EF2417FDE43400FE0F8D828E83E0600543C1108023
:203EEC00EBBFA000500FEF2417F582E43400F5830FE4F080EC900017E0FFBF3F02800890EF
:203F0C000018E0FFBF3F062008030220B3900018E0FFBF430302461EBF45030247B8BF4899
:203F2C00028044BF4903024C80BF5003024B4CBF53030246D6BF5403024CF1BF6303024636
:203F4C001EBF65030247B8BF6802801BBF6903024C80BF7003024B4CBF73030246D6BF7401
:203F6C0003024CF102502190001AE0FF24CF4003024025BF3500400302402590001DE060CF
:203F8C000302402590001BE0FEBE44028003BE64047D04800CBE53028007BE73028002D247
:203FAC001020101C90001CE0FEBE4102800ABE61028005EF24CD50088D0674082EFD8017D5
:203FCC0020100890001CE0FEBE530A90001CE0FEBE73028002D2108F06EE24D02DFEC0066F
:203FEC001202F3D0069000BDEEF012032ED243907C7D75F080121C4EC2AF9002001202DB79
:20400C00C2A07518009000051202C0D2A3900FA012047A75C7600245BBBF2B0280030241A8
:20402C00E290001BE0FEC3742F9EE433FD700302416DBE3300400302416D90001CE0FC243E
:20404C00D0400302416DBC3A00400302416D90001DE0FB24D0400302416DBB360040030203
:20406C00416D90001EE0F56824D0400302416D74C62568500302416D900020E0F56424D00D
:20408C00400302416D74CD2564500302416D900021E0F56524D0400302416D74C62565506E
:2040AC000302416D900022E0F56624D0400302416D74CA2566500302416D900023E0F567B2
:2040CC0024D0400302416D74C62567500302416D8E0274022AF569AA64C39A75F00AA424F4
:2040EC0004F56925462CAC65C39CFAAC6674062CC39B75F00AA42567AB68C39BF5628A6AE0
:20410C00756B00AB457C00743C2BF56CE43CF56DAA627C00C3E56C9AE56D64808CF063F04E
:20412C008095F0E433FA7C00E56AC39AF582E56B9CF583751A0C8C1B1274F4AB828B48ACF2
:20414C004574782CAB62C39BFC7B00751A3C8B1B8C828B831274F4AB828B4C120EF10245B1
:20416C00BBED606DBE3600506890001CE0FD24D0505FBD3A00505AEE24D075F00AA42D24FF
:20418C00D0FEAD48740C2DFDC3E54C9EE433FCEDC39CFD7C00751A0C8C1B8D828C83C00616
:2041AC001274F4AC82D0068C48AC4C7D00743C2CFCE43DFD7B00ECC39EF582ED9BF5837582
:2041CC001A3C8B1B1274F4AD828D4C120EF10245BBD2100245BBBF2D4690001BE0FF24D0AE
:2041EC005038BF3600503390001CE0FE24D0502ABE3A005025EF24D075F00AA4AD4C2D2E04
:20420C0024D0F54C24C4500CE54804F548E54CFF24C4F54C120EF10245BBD2100245BB90CB
:20422C00001BE0FFBF4E028003BF6E243008030250471202F39000BDE054EFF012032EC255
:20424C0036787B7600787C7618787D763C0245BBBF46028003BF661A3008030250471202D7
:20426C00F39000BDE04410F012032ED236C2C20245BB9001327403F0756301900132E0FE59
:20428C002417F582E43400F583E0FDBD2C46E56370099001327465F00245A5AB637C00748D
:2042AC00012BF56CE43CF56D90012DE0FA7C0074012AF51AE43CF51B856C82856D83C00643
:2042CC001274F4AB82AC83D0068B63900132EE04F00245A5BD30005015E56370057C65FEB9
:2042EC0080047CCA7E00900132ECF00245A5E5637042BD6702800DBD47028008BD61028004
:20430C0003BD4130C2C2787B7600122133AD467E00751A0C8E1B8D828E831274F4AD82AEE1
:20432C00838D47787C7618787D763C9001327465F00245A5900132E0FE2417F582E434000E
:20434C00F583E0FD24D0400302459FBD3300400302459F8E037C0074012BFAE43CFFEA24F2
:20436C0017F582EF3400F583E0FF24D0400302459F74012BFAE43CFFEA2417F582EF340094
:20438C00F583E0FFBF3A00400302459F74022BFAE43CFFEA2417F582EF3400F583E0FF24A4
:2043AC00D0400302459F74022BFAE43CFFEA2417F582EF3400F583E0FFBF360040030245A9
:2043CC009F74032BFAE43CFFEA2417F582EF3400F583E0FF24D0400302459F74032BFAE4C4
:2043EC003CFFEA2417F582EF3400F583E0FFBF3A00400302459FE56370030244E3E56314FE
:20440C00F56A2448F56C8D027F00EA24D0F51AEF34FFF51B90000AC006C004C00312744585
:20442C0085826E85836FD003D00474012BFAE43CFFEA2417F582EF3400F583E07A00256E00
:20444C00FFEA356FFAEF24D0F582EA34FFF583751A0C751B00C004C0031274F4AA82D003AF
:20446C00D004A86CA602E56A244CF974022BFAE43CFFEA2417F582EF3400F583E024D075AE
:20448C00F00AA4F56E74032BFAE43CFFEA2417F582EF3400F583E0256E24D0F7120EF1AA04
:2044AC00637F0074012AF56EE43FF56F90012DE0FF7A0074012FF51AE43AF51B856E828593
:2044CC006F831274F4AA82AF83D0068A6390013274052EF00245A5C2C2787BE4F6FFED249C
:2044EC00D0F51AEF34FFF51B90000AC004C003127445AE82AF83D003D00474012BFAE43CF0
:20450C00FDEA2417F582ED3400F583E07A002EFEEA3FFFEE24D0F582EF34FFF583751A1815
:20452C008A1BC004C0031274F4AE82D003D0048E4674022BFEE43CFFEE2417F582EF34009D
:20454C00F583E024D075F00AA4FF74032BFBE43CFCEB2417F582EC3400F583E02F24D0F50B
:20456C0045AE467F00751A0C8F1B8E828F831274F4AE828E47854536854437854682120230
:20458C0028C21D787C7618787D763C9001327465F0800690013274CAF0900132E0FFBF6417
:2045AC00005003024287BFCA03D38001C392101209F5858251120C7485825230102A300996
:2045CC000ED243907CA275F080121C4E025047D243907CB575F080121C4EC243907CA275A5
:2045EC00F080121C4E02504730090ED243907CE375F080121C4E025047D243907CFD75F062
:20460C0080121C4EC243907CE375F080121C4E02504790001BE0FFBF65028003BF45143029
:20462C000803025047D244907D2A75F08012203A025047BF6E028003BF4E14300803025033
:20464C00471202F39000BE7401F012032E8051BF66028003BF46133008030250471202F39C
:20466C009000BEE4F012032E8036900019E0603090001AE0602A30090ED243907CA275F077
:20468C0080121C4E025047D243907D4275F080121C4EC243907CA275F080121C4E02504707
:2046AC0030090ED243907D6C75F080121C4E025047D243907D8075F080121C4EC243907D0A
:2046CC006C75F080121C4E02504730080302504790001BE0FFBF7902800DBF59028008BFE2
:2046EC0044028003BF6426D243907DA775F080121C4EC2AFC2A07518009000051202C0D2D7
:20470C00A3900FA012047A75C760025047BF67028003BF477190001FE0FE24D0505ABE3AA1
:20472C000050551202F390001FE024D0FE9000C0F09000E6EEF0900021E0FE24D05028BEF3
:20474C0033005023900022E0FD24D0501ABD3A005015EE24D075F00AA42D24D0FEBE180074
:20476C0050059000C1EEF012032ED243907DBC75F080121C4E025047D243907DD275F080B5
:20478C00121C4E025047BF69028003BF4910D243907DEA75F080121C4EC2A0025047D243B6
:2047AC00907DFC75F080121C4E02504730080302504790001BE0FFBF58028003BF7819128E
:2047CC0002F39000C4E4F012032ED244907E1575F08012203A0250471202F312032E900070
:2047EC00C4E4F09001327404F0900132E0FF2417F582E43400F583E0FE24D04003024B0A9A
:20480C00BE33004003024B0A8F057F0074012DFBE43FFCEB2417F582EC3400F583E0FC24FD
:20482C00D04003024B0A74012DFBE43FFCEB2417F582EC3400F583E0FCBC3A004003024BAF
:20484C000A74022DFBE43FFCEB2417F582EC3400F583E0FC24D04003024B0A74022DFBE464
:20486C003FFCEB2417F582EC3400F583E0FCBC36004003024B0A74032DFBE43FFCEB241770
:20488C00F582EC3400F583E0FC24D04003024B0A74032DFBE43FFCEB2417F582EC3400F523
:2048AC0083E0FCBC3A004003024B0A74052DFBE43FFCEB2417F582EC3400F583E0FC24D038
:2048CC004003024B0A74052DFBE43FFCEB2417F582EC3400F583E0FCBC33004003024B0AD8
:2048EC0074062DFBE43FFCEB2417F582EC3400F583E0FC24D04003024B0A74062DFBE43F87
:20490C00FCEB2417F582EC3400F583E0FCBC3A004003024B0A74072DFBE43FFCEB2417F511
:20492C0082EC3400F583E0FC24D04003024B0A74072DFBE43FFCEB2417F582EC3400F583F0
:20494C00E0FCBC36004003024B0A74082DFBE43FFCEB2417F582EC3400F583E0FC24D040DB
:20496C0003024B0A74082DFBE43FFCEB2417F582EC3400F583E0FCBC3A004003024B0A8EDF
:20498C001A751B0090000AC007C006C005127445AB82AC83D005D006D007C00674012DFA6A
:2049AC00E43FFEEA2417F582EE3400F583E07A002BFBEA3CFCC3EB9428EC64809482D006CC
:2049CC004003024B0AC00674052DFBE43FFCEB2417F582EC3400F583E0FC8C1A751B0090D4
:2049EC00000AC007C006C005127445AB82AC83D005D006D00774062DFAE43FFEEA2417F5CA
:204A0C0082EE3400F583E07A002BFBEA3CFCC3EB9428EC64809482D0064003024B0AED24FB
:204A2C00FCF582EF34FFF583751A05751B00C007C006C00512752AAB82D005D006D0077413
:204A4C00082BFC3395E0FAEC24BDF56CEA3400F56DEE24D075F00AA4F56E74012DFCE43FB2
:204A6C00FEEC2417F582EE3400F583E0256E24D075F006A4FE74022DFAE43FFCEA2417F5AA
:204A8C0082EC3400F583E02E24D0856C82856D83F074092BFB3395E0FEEB24BDFBEE3400E4
:204AAC00FE74052DFAE43FFCEA2417F582EC3400F583E024D075F00AA4F56E74062DFAE42A
:204ACC003FFCEA2417F582EC3400F583E0256E24D075F006A4FC74072DFDE43FFFED2417FA
:204AEC00F582EF3400F583E02C24D08B828E83F09000C4E0FF0F0F9000C4EFF080069001EF
:204B0C0032744BF0900132E0240AF0E0FFBF4B0050030247F59000C4E0601790000012021E
:204B2C00DB12032ED244907E2D75F08012203A025047D243907E4275F080121C4E025047B1
:204B4C0030080302504790F010E493700ED243907E5D75F080121C4E02504790001CE0FFEB
:204B6C00BF54028003BF7410C2C2D243907E7275F080121C4E025047BF4E028003BF6E2F4D
:204B8C0090F010E493FEBE01181202F39000CD7402F012032E787B7600787C7618787D76CA
:204BAC003CD243907E7C75F080121C4E025047BF46028003BF662590F010E493FEBE020E6D
:204BCC00C2C21202F39000CD7401F012032ED243907E8575F080121C4E02504790001BE00C
:204BEC00FE24D04003024C72BE33005079EF24D05074BF3A00506F90001DE0FD24D0506667
:204C0C00BD3600506190001EE0FC24D05058BC3A005053209242D2C2EE24D075F00AA42F79
:204C2C0024D0F582ED24D075F00AA42C24D0F5191273959005DC12047A30920ED243907ECD
:204C4C008E75F080121C4E025047D243907EA375F080121C4E025047D243907EC575F08033
:204C6C00121C4E025047D243907EEB75F080121C4E02504730080302504790001BE0FFBFEE
:204C8C0042028012BF6202800D90001CE0FEBE4E028003BE6E1D1202F39000BF7401F01251
:204CAC00032E122133D243907F0275F080121C4E025047BF54028012BF7402800DBE4202C6
:204CCC008008BE620280030250471202F39000BFE4F012032EC21DD243907F0B75F0801290
:204CEC001C4E02504730080302501690001AE0FFBF4702800DBF67028008BF43028003BFEE
:204D0C006310D207D243907F1475F080121C4E025016BF2B028003024E5B90001BE0FEBED9
:204D2C0038028003024E5B90001CE0FEBE34028003024E5B90001DE0FEBE30005003024E37
:204D4C004DEE24C65003024E4D90001EE0FEBE30005003024E4DEE24C65003024E4D900070
:204D6C001FE0FEBE30005003024E4DEE24C65003024E4D900020E0FEBE30005003024E4D18
:204D8C00EE24C65003024E4D900021E0FEBE30005003024E4DEE24C65003024E4D90002258
:204DAC00E0FEBE30005003024E4DEE24C65003024E4D900023E0FEBE30005003024E4DEE06
:204DCC0024C65003024E4D900024E0FEBE30004070EE24C6406B900025E0FEBE3000406118
:204DEC00EE24C6405C1202F39000CEE4F07E018E0574112DFD3395E0FCED24BDFDEC3400AA
:204E0C00FC8E027B0074062AFAE43BFBEA2417F582EB3400F583E08D828C83F00EBE0A00D0
:204E2C0040CD9000D9E0FEBE02069000D97401F012032ED243907F3175F080121C4E025033
:204E4C0016D243907F4F75F080121C4E025016BF30028003024F7690001BE0FEBE300050F2
:204E6C0003024F68EE24C65003024F6890001CE0FEBE30005003024F68EE24C65003024F86
:204E8C006890001DE0FEBE30005003024F68EE24C65003024F6890001EE0FEBE3000500368
:204EAC00024F68EE24C65003024F6890001FE0FEBE30005003024F68EE24C65003024F68DE
:204ECC00900020E0FEBE30005003024F68EE24C65003024F68900021E0FEBE300050030288
:204EEC004F68EE24C64075900022E0FEBE3000406BEE24C64066900023E0FEBE3000405CA0
:204F0C00EE24C640571202F37E008E0574112DFD3395E0FCED24BDFDEC3400FC8E027B00B9
:204F2C0074032AFAE43BFBEA2417F582EB3400F583E08D828C83F00EBE0A0040CD9000D943
:204F4C00E0FEBE02069000D97401F012032ED243907F3175F080121C4E025016D243907F4E
:204F6C004F75F080121C4E025016BF78028003BF581A1202F39000D97402F012032ED243F2
:204F8C00907F7475F080121C4E02501690F01CE493FFBF022490001BE0FFBF6E02800DBFBD
:204FAC004E028008BF66028003BF465ED243907F8375F080121C4E805190001BE0FFBF4E90
:204FCC00028003BF6E191202F39000D97401F012032ED243907FB575F080121C4E802BBF3E
:204FEC0046028003BF66181202F39000D9E4F012032ED243907FC475F080121C4E800BD270
:20500C0043907FD375F080121C4E90F01CE493FF13920A802630090DD243907FF075F08058
:20502C00121C4E8016D24390800375F080121C4EC243907FF075F080121C4E43C1107F00D1
:20504C00EF2417FDE43400FE8D828E83E0600FEF2417F582E43400F5830FE4F080E2227F81
:20506C00007E008F937594FF8F928F918F957596FF8FB28FB175B30275B41C8FCA8FC98FDD
:20508C00C075B0FF8FA075B881759D088F978FBD75BC83D2ADD2AF9000E774FAF09000B9E5
:2050AC00E4F075520575510590000C7430F09000B8740AF09000F37402F09000F2F09000A8
:2050CC00F1F09000F47407F09000F57401F0C007C006120F6D1202F3D006D0079000BDE00E
:2050EC00FDBDFF059000BDE4F09000BEE024FE50059000BEE4F09000BFE024FE50069000C7
:20510C00BF7401F09000C0E024F650069000C07401F09000C1E024E850059000C1E4F090C3
:20512C0000C3E0FDC4540FFC7B001CBCFF011BC374089C74808BF063F08095F0500A740FB3
:20514C005D4450FD9000C3F09000C3E0FD53050F7C001DBDFF011CC374089D74808CF0635A
:20516C00F08095F0500F9000C3E0FD74F05D4401FD9000C3F09001337401F09000C4E0FDFF
:20518C00BD0900502EED20E02A7C01C3ED9C401E8C0374072BFB3395E0FAEB24BDF582EA82
:2051AC003400F583E0FBBB900050030C80DD900133ECF0900133E0FCC3ED9C40129000C423
:2051CC007402F09000C57424F09000C6746CF0900133E4F09000D9E0FDBD02005047900096
:2051EC00D8E07041FDBD0A0050368D0474112CFB3395E0FAEB24BDF582EA3400F583E0FB5D
:20520C00BB3000401B74112CFC3395E0FBEC24BDF582EB3400F583E0FC24C640030D80C5B6
:20522C00900133EDF0900133E0FDBD0A00500B9000D8E4F09000D97402F09000DAE0FD2488
:20524C00E750059000DAE4F03092079000CDE4F080129000CDE0FD6005ED24FD50069000A9
:20526C00CD7402F09000DBE0FD53050F7C001DBDFF011CC3740A9D74808CF063F08095F028
:20528C0050069000DB743BF09000DCE024FE50069000DC7401F0C007C00612032ED006D097
:2052AC000790F000E493FD74035D90012D04F090F000E493A2E2923490F000E493A2E39212
:2052CC0035921290F000E493A2E4923690F000E493FDA2E5923720341920351690F000E424
:2052EC0093FD5305C0E43395E0FDFC9000EDEDF080059000EDE4F090F01EE493FD5305607B
:20530C00E403CDC40354076DCD5407CD6DCD30E20244F8FC900130EDF07D00ED2401FBE4B7
:20532C003400FC900130E0FABA02005008ED90757793FA8006ED90758293FA8B828C83EAFF
:20534C00F00DBD0B0040D490012FE4F090F01E93FD53050F7C00C3ED9406EC648094805045
:20536C001190F01EE493FD740F5D04FC3395E0FD802790F01EE493FB53030F7A00740CC3A0
:20538C009BF51AE49AF51B90003CC007C00612752AAC82AD83D006D00790012EECF090F099
:2053AC001EE49330E405BC3C00500690012F743DF090F000E49330E6067CFF7D00801130B8
:2053CC0034067A1E7B0080047A0A7B008A048B059000ECECF090012DE0FDBD010302549C2D
:2053EC00BD02028075BD0302803ABD040280030254D29000EBECF090F206E493FD24C44086
:20540C000A90F207E493FD24F4500BC007C006120EF1D006D00790F206E493F54F90F207EF
:20542C00E493F54B9000ECE0FD9000EAF090F204E493FD24C4400A90F205E493FD24F45057
:20544C000BC007C006120EF1D006D00790F204E493F54E90F205E493F54A9000ECE0FD9084
:20546C0000E9F090F202E493FD24C4400A90F203E493FD24F4500BC007C006120EF1D0063D
:20548C00D00790F202E493F54D90F203E493F5499000ECE0FD9000E8F090F200E493FD24D7
:2054AC00C4400A90F201E493FD24F4500BC007C006120EF1D006D00790F200E493F54C9053
:2054CC00F201E493F548D2A2C007C00612035FD006D00790F010E4936017C007C006127367
:2054EC007FD006D007787B7600787C7618787D763CD20390F003E4939000E6F0C007C00620
:20550C00120F5712061AD006D007202203025D49202603025D49202A03025D497571007CF3
:20552C000090F01EE493F57090F01FE493F57290F000E493FDC22AC226C22290802975F01E
:20554C0080C005C0041205B090803A75F0801205B090012DE02430F5821204D2D004D0057F
:20556C003034087573407574808006757346757480C005AA73AB747D808A828B838DF0C0B0
:20558C0005C0041205B0D004D005D0053035067A4C7B8080047A527B80C0057D808A828B21
:2055AC00838DF0C005C0041205B090805875F0801205B0D004D0059000EDE0FD2430F582AD
:2055CC00C005C0041204D2753A047582C01204A7D004D00590012DE0149000F5F09000F4D3
:2055EC00E4F0D005EC7003025979203F030257E0C005C23F90805C75F080C005C004120571
:20560C00B0D004D005857073757400740F5573FB7D00C3EB9406ED64809480D005500DAB07
:20562C0070740F5B04FA3395E0FB802BC005740F5573F575757600740CC39575F51AE4958A
:20564C0076F51B90003CC005C00412752AAA82AB83D004D005D0059000F4E0700B302D0896
:20566C0075755F7576008029C0058A037D00751A0A8D1B8B828D83C004C00212752AAB82B0
:20568C00D002D00474302BFB8B753395E0F576D005857582C005C004C0021204D2D002D055
:2056AC0004D0059000F4E0700B302D0875755F75760080257B00751A0A8B1B8A828B83C054
:2056CC0005C0041274F4AA82AB83D004D00574302AFA8A753395E0F576857582C005C00499
:2056EC001204D290806075F0801205B0D004D0059000F4E0FBBB0109302D067A5F7B008096
:20570C0032C00574605573F575E4F576C403C575C40354076575C5755407C5756575C57551
:20572C0030E20244F8F576AD7574302DFA3395E0FBD0058A82C005C0041204D290806475D7
:20574C00F0801205B0D004D0059000F4E0FBBB0209302D067A5F7B008030C00574105573C0
:20576C00F575E4F576C4C575C4540F6575C575540FC5756575C57530E30244F0F576AD75A4
:20578C0074302DFA3395E0FBD0058A82C005C0041204D290806875F0801205B0D004D00570
:2057AC009000F4E0FBBB0309302D067A5F7B008016E5726008757554757600800675754EC4
:2057CC00757600AA75AB768A82C005C0041204D2D004D0051022030258739000F4E02401E1
:2057EC00F0E0FBBB0102800FBB0202802ABB03028043BB04728046AA70530260E403CAC45E
:20580C000354076ACA5407CA6ACA30E20244F8FB9000F5EAF08050AA70530210E4CAC454D2
:20582C000F6ACA540FCA6ACA30E30244F0FB9000F5EAF080329000F5E572F0802AC005C068
:20584C00041202F39000BDE054EFF09000DBE570F09000DCE572F012032E9002001202DBAA
:20586C00D004D00575C76010260280659000F4E0FBE06006EB149000F4F09000F4E0FB60E3
:20588C000ABB0102800FBB0248802A9000F5740F5570F0803CAA70530260E403CAC40354E2
:2058AC00076ACA5407CA6ACA30E20244F8FB9000F5EAF0801CAA70530210E4CAC4540F6A44
:2058CC00CA540FCA6ACA30E30244F0FB9000F5EAF0102A030255F09000F5E02401F0900060
:2058EC00F4E0FB24FC50030255F0EB2B9058FC73800680218040805E9000F5E024F450050F
:20590C009000F5E4F074F05570FB9000F5E0FA4BF5700255F09000F5E024FD50059000F548
:20592C00E4F0741F5570FB9000F5E0C42354E0FA4BF5700255F09000F5E024FE5005900057
:20594C00F5E4F074EF5570FB9000F5E0C454F0FA4BF5700255F09000F5E0FB24FE5005908A
:20596C0000F5E4F09000F5E0F5720255F09000F4E0FB24FA5003025B36EB2B2B90598C73B3
:20598C0002599E0259B8025A0F025A5B025AA2025ABE90012DE0149000F5F07582C4C0050E
:2059AC00C004120530D004D005025B369000F5A234E433F0C005C00412058BD004D005104E
:2059CC003F03025B36302D067A6C7B80801B30340B75774075788075798080097577467561
:2059EC007880757980AA77AB78C0057D808A828B838DF0C005C0041205B0D004D005D005CA
:205A0C00025B369000F5A235E433F0103F03025B36302D067A727B80801B30350B75774C12
:205A2C007578807579808009757752757880757980AA77AB78C0057D808A828B838DF0C080
:205A4C0005C0041205B0D004D005D005025B369000EDE09000F5F0103F03025B369080587A
:205A6C0075F080C005C0041205B0D004D005302D067A5F7B00800FC0059000EDE02430FA86
:205A8C003395E0FBD0058A82C005C0041204D2D004D005025B3690807775F080C005C004D4
:205AAC001205B090808975F0801205B0D004D005807874105DFB90012DE0FA1AEA2BFB305F
:205ACC0034087577047578008005E4F577F578E5772BFB90012DE0FABA0102801630350885
:205AEC007577087578008005E4F577F5788B02E5772AFB20341120350E9000EDE0030354EA
:205B0C00C0F5778B022AFB900000C005C004C0031202DB9002001202DBD0038B1890000049
:205B2C001202C0D004D00575C760102A03025BD67571009000F4E0FB24FC5003025BD6EBFA
:205B4C002B905B51738006803E804E805C9000F5E0FBBB030050090BEBFA3395E0FB8004E3
:205B6C007A007B009000F5EAF00A90012DEAF074302AF582C005C0041204D27582C412059B
:205B8C0030D004D00580439000F5E0FB7401C39BFB24FF9234EBF080319000F5E0FB7401E5
:205BAC00C39BFB24FF9235EBF09000F5E0FBBB030050090BEBFA3395E0FB80047A007B0038
:205BCC009000F5EAF09000EDEAF0102203025C6A7571009000F4E02401F090803A75F08078
:205BEC00C005C0041205B090012DE02430F5821204D2D004D0053034067A407B8080047A32
:205C0C00467B80C0057D808A828B838DF0C005C0041205B0D004D005D0053035067A4C7B64
:205C2C008080047A527B80C0057D808A828B838DF0C005C0041205B090805875F080120580
:205C4C00B0D004D0059000EDE0FD2430F582C005C0041204D212058BD004D005D0051026F3
:205C6C00030255F09000F4E0FBE06006EB149000F4F090802975F080C005C0041205B090B8
:205C8C00803A75F0801205B090012DE02430F5821204D2D004D0053034067A407B808004F5
:205CAC007A467B80C0057D808A828B838DF0C005C0041205B0D004D005D0053035067A4CC5
:205CCC007B8080047A527B80C0057D808A828B838DF0C005C0041205B090805875F080126A
:205CEC0005B0D004D0059000EDE0FD2430F582C005C0041204D2D004D005D0059000F4E0C2
:205D0C0060030255F0AB710571EB24F7501B7C01C005C00412058BD004D00590F01EE49364
:205D2C009000F5540FF00255F0753A047582C0C005C0041204A7D004D0050255F075BC8BDC
:205D4C0075304575310075324075334475340075354090004675F040C007C006120198D0BE
:205D6C0006D007E54624E8400CE54524C44006E54424C45014753600753700758200C007D5
:205D8C00C006120228D006D007C007C0061200F0D2A8D28875304575310075324075334482
:205DAC0075340075354090004675F040120198D006D00790F01CE493FD13920A203070C032
:205DCC0007C0061220E1D006D0075063C007C0061221331222861222CFD006D007505090EA
:205DEC00F005E4937015D24390809B75F080C007C006121C4ED006D0078029D2439080B8C5
:205E0C0075F080C007C006121C4ED006D007300A13C2439080B875F080C007C006121C4ED3
:205E2C00D006D007C007C0061217E9D006D007E54624F45007E54624F4FD8002AD468D473A
:205E4C0090F005E493701C9000F67405F0C007C0061202F39000C274FFF012032ED006D08D
:205E6C000780069000F6743CF075C16590012DE0FDBD042090F206E493B54F0B90F207E4D1
:205E8C0093FDB54B02800DC007C006120EF1D006D007807090012DE0FD24FD502090F204EA
:205EAC00E493B54E0B90F205E493FDB54A02800DC007C006120EF1D006D007804790012DF8
:205ECC00E0FD24FE502090F202E493B54D0B90F203E493FDB54902800DC007C006120EF11B
:205EEC00D006D007801E90F200E493B54C0B90F201E493FDB54802800BC007C006120EF127
:205F0C00D006D0079000F6E060069000F4E0702B9000F4E4F07405B5510EC007C006120970
:205F2C00F5858251D006D0077405B5520EC007C006120C74858252D006D007203E2E3002EA
:205F4C002BD2439080CC75F080C007C006121C4ED006D007300A13C2439080CC75F080C0AB
:205F6C0007C006121C4ED006D007D23E303E2E20022BD2439080DA75F080C007C006121C87
:205F8C004ED006D007300A13C2439080DA75F080C007C006121C4ED006D007C23E9000E7AC
:205FAC00E07018203815D238D2439080ED75F080C007C006121C4ED006D0079000E8E07081
:205FCC002E20392BD239D2439080FC75F080C007C006121C4ED006D007300A13C2439080DA
:205FEC00FC75F080C007C006121C4ED006D00790012DE0FD24FE50349000E9E0702E203A6C
:20600C002BD23AD24390810B75F080C007C006121C4ED006D007300A13C24390810B75F09E
:20602C0080C007C006121C4ED006D00790012DE0FD24FD50349000EAE0702E203B2BD23B53
:20604C00D24390811A75F080C007C006121C4ED006D007300A13C24390811A75F080C00730
:20606C00C006121C4ED006D00790012DE0FDBD04349000EBE0702E203C2BD23CD2439081E1
:20608C002975F080C007C006121C4ED006D007300A13C24390812975F080C007C006121C04
:2060AC004ED006D007201E0302618020A0169000B8E014F0E0700D75BC83D2A09000B87474
:2060CC001EF0D2059000E3E0FDE0602D9000E1E07027ED149000E3F0E0701E9000E174056E
:2060EC00F09000E3F0C007C0061209F5858251120C74858252D006D0077405B55102802291
:20610C00E55124E8FCE43400FD8C828D83E0FB60111B8C828D83EBF0EB7007C219C2177517
:20612C0051057405B552028022E55224E8FCE43400FD8C828D83E0FB60111B8C828D83EBF7
:20614C00F0EB7007C21AC2187552059000F6E0601090F010E49360032092069000F6E014ED
:20616C00F09000F1E0FDE06009302406ED149000F1F0C21EC007C00612084CD006D00790A0
:20618C0000F4E0701490F010E493FDBD020BC007C006120993D006D00790F003E493601576
:2061AC009000E6E0700F90F004E493FDB54606E54524FA40099000B9E0FD24FE50727405F1
:2061CC00B5516D7405B5526890F010E493600320925E90012EE0FDBD3C00501990F004E478
:2061EC0093FD7536067537008D82C007C006120228D006D0079000B9E024FE5013D24390CE
:20620C00813875F080C007C006121C4ED006D007C2AFC2A0751800900005C007C006120288
:20622C00C0D2A3900FA012047AD006D00775C7603003030262CD74FB254550030262CD2021
:20624C001D2590F002E493601EC007C006122133D006D007E54624F45007E54624F4FD807F
:20626C0002AD468D47803E75304575310075324075334475340075354090004675F040C05A
:20628C0007C006120198752ADF752B00752C00752DE0752E00752F009000DE75F00012010C
:2062AC0008D006D00790F001E4936013D24390815D75F080C007C006121C4ED006D007D2C2
:2062CC0003100C02802975560C75577675588075540F755501907A5B75F080C007C00612F6
:2062EC00153A90816E75F08012038CD006D007100702801190000175F000C007C00612173B
:20630C0018D006D0079000F4E0FD24F85003027311ED240A83F582ED240C83F583E4733B97
:20632C0032C37DD3FFFFCD636A6E727072726530054175BC8BC2059000FCE4F0C007C006F5
:20634C00122133AB467C00751A0C8C1B8B828C831274F4AB828B471222CFD006D007501374
:20636C00D24390817D75F080C007C006121C4ED006D007300E28C007C006123ED4755600F1
:20638C0075577C75588075540F755501907BDB75F08012153AD006D007C20E02655A9001BE
:2063AC002DE0FCBC01028014BC02028041BC03030264AABC04030264460265063034067B61
:2063CC00937C8180047B9B7C818B3E8C3F754080854841854C42854443A2209201758280C8
:2063EC00C007C00612069BD006D007026506753EA3753F81754080854841854C427543FDA1
:20640C00A2209201758280C007C00612069B753EA3753F81754080854941854D427543FDCC
:20642C00A220920175828712069B9081A375F0801205B0D006D007026506301D067BA67C60
:20644C0081801F90F002E493600B7577AA75788175798080097577AE757881757980AB7719
:20646C00AC788B3E8C3F754080854641854542854443A22092017582C5C007C00612069BAE
:20648C00753EB2753F81754080854B41854F427543FBC2017582C012069BD006D007753EBA
:2064AC00B2753F81754080854841854C427543FBC201758280C007C00612069B753EB2758C
:2064CC003F81754080854941854D427543FBC20175828512069B753EB2753F81754080859F
:2064EC004A41854E427543FBC20175828A12069B7582201204D2D006D00790012DE0FCBC44
:20650C000402804A301D067B337C79801F90F002E493600B757743757879757980800975A5
:20652C00773B757879757980AB77AC788B3E8C3F754080854641854542854443A220920141
:20654C007582C0C007C00612069BD006D0079000F1E0600302731A30170302731AC22290EB
:20656C0000F6743CF09000E2E4F09000E1F09000E3F09000F47407F09000F57401F07552CF
:20658C0005755105C2C2787B7600102602800302731AD2439081B475F080C007C006121C6E
:2065AC004ED006D007200A0302731AC2439081C875F080C007C006121C4ED006D00702732A
:2065CC001A102202802F9000F6743CF09000F5E02401F0E0FCBC040D90F010E4937006905C
:2065EC0000F5EC04F09000F5E0FC24F950059000F5E4F0C22D102A02800D9000F6743CF0B0
:20660C009000F5E4F0C22D1026030269C59000F6743CF09000F5E09000F4F09000F5E4F065
:20662C00C007C0061209F5858251120C74858252D006D0079000F4E0700302731A758280E4
:20664C00C007C0061205309000F4E075F011A42495FB747535F0FC7A808B828C838AF0127C
:20666C0005B0D006D0079000F4E0FC24F9500302731AEC2C2C9066857302731A02669A0288
:20668C0067B70267FE02681B0268400268E890012DE0FCBC012F3034067A937B8180047AF1
:2066AC009B7B818A3E8B3F754080854841854C42754300D2017582C0C007C00612069BD0FD
:2066CC0006D007806EBC030050067BC07C0080047B807C008B82753EA3753F8175408085CA
:2066EC004841854C427543FDD201C007C00612069BD006D00790012DE0FCBC030050067B53
:20670C00C77C0080047B877C008B82753EA3753F81754080854941854D427543FDD201C0F0
:20672C0007C00612069B9081A375F0801205B0D006D00790012DE0FC24FD400302731A75BE
:20674C003EA3753F81754080854A41854E427543FDD2017582C0C007C00612069BD006D098
:20676C000790012DE0FCBC042E753EA3753F81754080854B41854F427543FDD2017582C751
:20678C00C007C00612069B9081A375F0801205B0D006D00702731A9081DE75F080C007C0B6
:2067AC00061205B0D006D00702731A301D067B337C79801F90F002E493600B7577437578AF
:2067CC0079757980800975773B757879757980AB77AC788B3E8C3F7540808546418545421B
:2067EC00854443D2017582C012069BAF46AE4502731A9081E875F080C007C0061205B07526
:20680C003A047582C01204A7D006D00702731A753EF9753F81754080754100754200754343
:20682C0000A22092017582C012069BD2C27E007F0002731A30301490820175F080C007C07A
:20684C00061205B0D006D00702731A20A01490821375F080C007C0061205B0D006D0070242
:20686C00731AC007C00612186A1217B87582C01205917582C012053090001775F0001205FD
:20688C00B0758280120530900016E4F090000C75F0001205B075828E1205309000F8E0FC0C
:2068AC007B00751A0A8B1B8C828B8312752AAB8274302BF5821204D29000F8E0FC7B007596
:2068CC001A0A8B1B8C828B831274F4AB8274302BF5821204D2D006D00702731A9082257509
:2068EC00F080C007C0061205B09000DEE0FC7B00751A0A8B1B8C828B8312752AAB82743026
:20690C002BF5821204D29000DEE0FC7B00751A0A8B1B8C828B831274F4AB8274302BF582D4
:20692C001204D290822975F0801205B09000DFE0FC7B00751A0A8B1B8C828B8312752AABFF
:20694C008274302BF5821204D29000DFE0FC7B00751A0A8B1B8C828B831274F4AB8274300F
