:2000A500AF827E00757C0A8E7D8F828E83C007C00612484EAC82D006D007ECC454F0FC75EF
:2000C5007C0A757D008F828E83C004124818AE82D004EE4CF58222E582FFC4540F75F00A78
:2000E500A4FE740F5F2EF582221203187582D012035775820712035775821012035702036E
:20010500331203187582D01203577582041203571203331203187582D1120357C200120360
:200125007C1200DCAF82C007120333D0078F8222AD82AE83AFF0C007C006C0051203187513
:2001450082D01203577582001203571203331203187582D1120357AA1BAB1CAC1DD200C0E9
:2001650004C003C00212037C1200DCA982D002D003D0048A828B838CF0E912474EAA18AB3B
:2001850019AC1AD200C004C003C00212037C1200DCA982D002D003D0048A828B838CF0E9BE
:2001A50012474EC20012037C1200DCAC82D005D006D0078D828E838FF0EC12474E02033338
:2001C500AF82C0071203187582D0120357758200120357851F821200A5120357851E8212DF
:1201E50000A5120357D0078F821200A5120357020333B4
:2001F70075C70075C50075C60075C38075C40043C11022AE82AF8375C78375C5018EC48FD3
:20021700C375C65A75C6A500AFC2C0071201F7D0078F8222AE82AF8375C78375C5028EC494
:200237008FC38528C275C65A75C6A5000201F7AE82AF8375C78375C5038EC48FC375C65AE0
:2002570075C6A5000201F743C1107F1FEF60101FEF24A3F582E43400F58374FFF080EDBF31
:200277001F005018EF24A3FDE43400FE8F827583F00FE493FC8D828E83F080E39000000297
:2002970002467F00BFCD00502975C78375C5028FC475C300EF24A3F582E43400F5830FE049
:1302B700F5C275C65A75C6A500C0071201F7D00780D222EC
:2002CA00759850438E40538EFE758BCC758DFFC2ABD28ED2ACD2A022AD82AE83AFF0C299C1
:2002EA008D828E838FF01247FCFC60218C9920990543C11080F8C2998D828E838FF01247C1
:0E030A00FCFCBC1A01220DBD00D60E80D322D1
:20031800D2C043C11043C110D2CD43C11043C110C2C043C11043C110C2CD22C2C043C11053
:2003380043C110D2CD43C11043C110D2C02243C11043C110D2CD43C11043C110C2CD22AFC7
:20035800827E00EF23540124FF92C08F05ED2DFFC007C006120346D006D0070EBE08004053
:20037800E20203467F00D2C07E0043C11043C110D2CD43C11043C1108F05ED2DFDA2C0E4C9
:1E039800334DFFC2CD0EBE080040DFA200B392C0C007120346D007A2C092CD8F8222B2
:2003B600AE82AF837C007D00C3EC9EED9F500A43C1100CBC00F20D80EF22AE82AF837C004F
:2003D6007D00C3EC9EED9F501D9003E8C007C006C005C0041203B6D004D005D006D0070C86
:2003F600BC00DF0D80DC22AF82E5294FF58212048375820D020483AF823029118F821204D4
:2004160083852A82852B83852CF00205008F820204E1E582FFC4540124FF9283EFA2E5E42E
:200436003324FF9282EF2323540124FF9281EF23540124FF9280D284D285C284EF54012485
:20045600FF9283EF03540124FF9282EF03035401FE24FF9281EFA2E3E433FF24FF9280D2E5
:200476008400C2849000321203B6C28522E582FFC4540124FF9283EFA2E5E43324FF92822B
:20049600EF2323540124FF9281EF23540124FF9280D284C285C284EF540124FF9283EF0399
:2004B600540124FF9282EF03035401FE24FF9281EFA2E3E433FF24FF9280D28400C2849031
:2004D60000320203B675820C020483E582FF600E8F8212048390488A75F0800205007582CA
:2004F600011204839006400203B6AD82AE83AFF07C008D828E838FF01247FCFB6055BC10D0
:20051600005050BB80005025EB24E050200CEC601C8B820DBD00010EC007C006C005C004A6
:20053600120428D004D005D006D00780C58D828E838FF01247FCFBA3AD82AE838B82C00706
:20055600C006C005C004120483D004D005D006D007809F22C286903A981203B675801C0080
:20057600C284900FA01203B6D28400C2849000A01203B6D28400C2849000A01203B67580F2
:200596001400C2849003E81203B6D28400C2840075801100C2849000281203B67580100035
:2005B600C2840075801300C2849000281203B675801000C2840075801600C28490002812A8
:2005D60003B675801000C2840075801800C2849003E80203B6AF82E5322405400302067D3F
:2005F600AD307E00757C0A8E7D8D828E83C007C006C00512484EAB82D005D00674302BF5CE
:2006160033757C0A757D008D828E83124818AD8274302DF534AD317E00757C0A8E7D8D8278
:200636008E83C006C00512484EAB82D005D00674302BF535757C0A757D008D828E83124828
:2006560018AD82D00774302DF5367537008F82120483852D82852E83852FF012050090005F
:200676003375F040020500AD307E00757C0A8E7D8D828E83C007C006C00512484EAB82D00D
:2006960005D00674302BF538757C0A757D008D828E83124818AD82D00774302DF5393001B8
:2006B600067D3A7E0080047D207E008D3AAD317E00757C0A8E7D8D828E83C007C006C005AF
:2006D60012484EAB82D005D00674302BF53B757C0A757D008D828E83124818AD82D007748C
:2006F600302DF53C3001067D3A7E0080047D207E008D3DAD327E00757C0A8E7D8D828E83FE
:20071600C007C006C00512484EAB82D005D00674302BF53E757C0A757D008D828E83124888
:2007360018AD82D00774302DF53F7540008F82120483852D82852E83852FF012050074E8A0
:0E0756002530400990003875F0400205002261
:11488A0020202020202020202020202020202020001D
:06000000020049020AB0F3
:03000B00020D39AA
:0100130032BA
:01001B0032B2
:03002300021B12AB
:03002B0002460981
:01003300329A
:03003B00020B00B5
:030043000245F97A
:0300A20002004613
:030046000237B7C7
:20076400E54775F006A4FFAD467E00757C0A8E7D8D828E83C00712484EAD82D007ED2FF51E
:20078400647E017D0190F008E493FCC3ED9C400302082EED90F00893FC8D030BEB3395E000
:2007A400FAEB2408F582EA34F0F583E493F9C3EC99E433F97C0009B900010CED90F008930C
:2007C400F8C3E56498E4337F0029F9EF3CFCEB2408F582EA34F0F583E493FFC3E5649FE481
:2007E400337B0029F582EB3CF583757C028B7DC006C005124818E5828583F0D005D00645C1
:20080400F060218E047F008C828F83A3757C028F7DC006124818AC82AF83D006EC4F24FFC4
:2008240092A180060D8D0602078990F008E493FFEEB50702800122EE90F00893FF90F009EB
:20084400E493FDC3EF9DE433FF7D000FBF00010DEE90F00893FCC3E5649CE4337B002FFFF5
:20086400EB3DFD90F009E493FCC3E5649CE4337B002FF582EB3DF583757C028B7DC0061200
:200884004818E5828583F0D00645F060197F008E828F83A3757C028F7D124818AE82AF83FA
:2008A400EE4F24FF92A122787FB60002800E787FB601028044787FB6024880287880E6B59C
:2008C40047077881E6B5460122AF477880A607AE467881A6068E7B8F821246B975415A78E2
:2008E4007F76022230920BD2C2787FA2C2E433F68007AF411541EF7009209206787F7600B8
:20090400C2C22220021590F000E493600E90F01EE493FF24E84004E55A60047582002290E1
:2009240000C3E0FFE060167556019000C2E060068F067F0080047E007F008E8222AF52EFA0
:2009440024C6FDE43400FE8D828E83E070030209F4EF244CF9E7FEB5460CEF244AF9E7FDA6
:20096400B548030209F49000C2E07079EF244AF987058D7C757D0090003CC007C0061247CA
:2009840069E5828583F0D00624D0FC740235F0FD7B00EE2CFCEB3DFD85487C8B7D90003C5A
:2009A400C005C004124769AB82AE83D004D005ECC39BFCED9EFDAB467E00ECC39BF582EDF6
:2009C4009EF583757CD0757D02124818AD82AE83D007C374689D74818EF063F08095F04058
:2009E400047E0080027E018E568F06EE04F582228F067401C39EFFB55202800302094375B3
:200A0400820022900200120246854C289003FE12022B854A289003FF12022B854D28900324
:200A2400FC12022B854B289003FD02022B75FA0075EA00754EA8754F6175DA49D2DE2253A5
:200A44008E7F758900758A24758CFAC28DD28CD2A92243C110B219A2199287D217E55D60E1
:200A640002155DE55F6002155F7402B55A01220545E54524C45034754500D2180546E54642
:200A840024C45027C2037546000547E54724E8500F78807618754700E55060021550C2048C
:200AA4000548E54824F4500375480022C027C0E0C0F0C082C083C007C006C005C004C003D9
:200AC400C002C001C000C0D075D00843C1109000C574FAF0C22D75D000120A5675D008D068
:200AE400D0D000D001D002D003D004D005D006D007D083D082D0F0D0E0D02732C027C0E0C1
:200B0400C0F0C082C083C007C006C005C004C003C002C001C000C0D075D00843C11010D8A7
:200B240003020D1C854EEA854FFA74A8254EF54E7461354FF54FE5527003020C1430B603D4
:200B440020B70D301005D212020C14D210020C14201403020C08E552FF14FE3395E0FDEE36
:200B640024C6F582ED3400F583741EF09000C2E0FEE06008EE149000C2F0806BE556603281
:200B8400EF14244CF9870F0FA70FEF24C45023E55214244CF87600E55214244AF9870F0FC0
:200BA400A70FEF24F45040E552FF14244AF876008035E5567031E55214244CF9870F1FA71D
:200BC4000FEF24C35021E55214244CF8763BE55214244AF9870F1FA70FEF24F35009E552A4
:200BE400FF14244AF8760BC212C210C21475D00012090775D00885825275D000120A077591
:200C0400D008800C301204D21480051010028000301A0630B503755702301A0330B5047F5E
:200C24000080027F01EF24FF921E201D0330B5047F0080027F01EF24FF921A201B0A201E01
:200C440003201A047F0080027F01EF24FF921BA2B5921D301F0630B303755802301F03307D
:200C6400B3047F0080027F01EF24FF922320220330B3047F0080027F01EF24FF921F2020C1
:200C84000A202303201F047F0080027F01EF24FF9220A2B3922230240630B403755902302E
:200CA400240330B4047F0080027F01EF24FF922820270330B4047F0080027F01EF24FF927D
:200CC4002420250A2028032024047F0080027F01EF24FF9225A2B492279001B8E014F0E0A4
:200CE40070089001B8740EF0B2299000C5E0FFE0600EEF149000C5F09001B9741CF08018B6
:200D04009001B9E014F0E0700F9001B9741CF075D000120A5675D008D0D0D000D001D00261
:200D2400D003D004D005D006D007D083D082D0F0D0E0D02732C0E0C082C083C0D075D0103E
:200D440043C110E55260517401B5520474018001E424FF92C47402B5520474018001E42441
:200D6400FF92C3E5A0540FFFE5519048A6934FF5A0E55660067E017F0080047EFF7FFFAF3C
:200D840051EE2FF55124F7500575510780137408B5510E7551008009C2C3A2C392C453A0B9
:200DA4000FD0D0D083D082D0E032AD82AE83AFF0AC668C5E8565F0ECA4240AF55FC22AAB7B
:200DC40065302A03020ECAE55F7003020ECA43C110758280C007C006C005C004C003120468
:200DE400838567828568838569F0120500D003D004D005D006D007301632752D2B752E4C3C
:200E0400752F80854730854631854532A21992017582C0C007C006C005C004C0031205EBD6
:200E2400D003D004D005D006D007806990F003E4937032752D33752E4C752F808547308597
:200E44004631854532A21992017582C0C007C006C005C004C0031205EBD003D004D005D0EF
:200E640006D0078030752D3B752E4C752F80854730854631854532A21992017582C0C00731
:200E8400C006C005C004C0031205EBD003D004D005D006D007E55D6003020DC58B021BEA06
:200EA40060248C5D8C5E8D828E838FF0C007C006C005C004C0031202E2D003D004D005D01D
:200EC40006D007020DC57582801204E1A22A22900001E06020900004E0701A756745756814
:200EE4004C756980756503756601904C4375F080120DAEC322904C5675F0801202E2303167
:200F0400067E9B7F4880047E127FF07D808E828F838DF01202E2904C6075F0801202E2902B
:200F240000051203D0D322900001E4F0C20C75600775677775684C75698075650F75660120
:200F4400904C6375F080120DAE756000900001E024FF2285826A85836B85F06C9001327415
:200F640020F0900133744BF0900134743DF0AB4A7C00757C0A8C7D8B828C8312484EAB821E
:200F840074302B900135F0AB4A7C00757C0A8C7D8B828C83124818AB8274302B900136F012
:200FA400900137743AF0AB4C7C00757C0A8C7D8B828C8312484EAB8274302B900138F0AB2C
:200FC4004C7C00757C0A8C7D8B828C83124818AB8274302B900139F090013A742CF0AB4BAC
:200FE4007C00757C0A8C7D8B828C8312484EAB8274302B90013BF0AB4B7C00757C0A8C7D7B
:201004008B828C83124818AB8274302B90013CF090013D743AF0AB4D7C00757C0A8C7D8B16
:20102400828C8312484EAB8274302B90013EF0AB4D7C00757C0A8C7D8B828C83124818AB07
:201044008274302B90013FF0900140E4F09001417420F09001427454F0900143743DF0ABD5
:20106400477C00757C0A8C7D8B828C83C004C00312484EAA82D003D00474302A900144F0F4
:20108400757C0A757D008B828C83124818AE8274302E900145F0900146743AF0AE467F0021
:2010A400757C0A8F7D8E828F83C007C00612484EAC82D006D00774302C900147F0757C0A60
:2010C400757D008E828F83124818AE8274302E900148F09001497420F090014A7447F09047
:2010E400014B7450F090014C7453F090014D743DF0A216E433FF90F003E4932F24309001FD
:201104004EF090014FE4F0787E867CF57D90001C124769757C00757D0112484EAE829001B4
:20112400507420F09001517444F09001527448F0900153743DF090F000E493243090015409
:20114400F09001557420F09001567442F090015704F0900158743DF090F002E49324309061
:201164000159F090015A7420F090015B744DF090015C7431F090015D743DF09000C6E0606E
:20118400067D317F0080047D307F0090015EEDF090015F7420F0900160744DF09001617420
:2011A40032F0900162743DF09000C7E060067D317F0080047D307F00900163EDF090016435
:2011C4007420F09001657458F09001667447F0900167743DF09000C5E060067D317F008052
:2011E400047D307F00900168EDF09001697420F090016A7452F090016B04F090016C743D18
:20120400F0AF5074302F90016DF090016E742FF090F004E493243090016FF09001707420B4
:20122400F09001717454F09001727452F0900173743DF090F005E493FF7D00757C0A8D7D25
:201244008F828D83C00612484EAD8274302D900174F090F005E493FF7D00757C0A8D7D8FFA
:20126400828D83124818AD82D00674302D900175F09001767420F09001777444F090017856
:2012840004F0900179744EF090017A743DF0A2A1E433243090017BF090017C7420F0900122
:2012A4007D7456F090017E744FF090017F744CF0900180743DF07F00757C0A8F7D8E828F9A
:2012C40083C007C00612484EAC82D006D00774302C900181F0757C0A757D008E828F831284
:2012E4004818AE8274302E900182F09001837420F0900184744DF09001857450F090018646
:201304007433F0900187743DF090F011E4932430900188F03032067E207F0080047E007F0E
:2013240000900189EEF090018A7444F090018B7454F090018C743DF090F01DE49324309064
:20134400018DF090018EE4F004256AFDE4356BFEAF6C8D828E838FF01247FCFCBC2A028093
:2013640011C007C006C005120F2BD005D006D0078005900001E4F0A2329231C007C006C06A
:2013840005120ED3D005D006D0074001229048FE75F080C007C006C0051202E29001327531
:2013A400F0001202E290014175F0001202E290015075F0001202E2D005D006D00790F01DBB
:2013C400E493FCBC0200502130321E904C8875F080C007C006C0051202E290F01275F080DF
:2013E4001202E2D005D006D0078D828E838FF01247FCFDBD2A02803B900001E06035904CFA
:201404008A75F0801202E290000175F0001202E230320F900005E07009904C9575F08012B0
:2014240002E2900005E4F0900004F0900003F0900002F0856A82856B83856CF01202E274A3
:2014440001256AFDE4356BFEAF6C8D828E838FF01247FCFDBD2A09904C4375F0800202E293
:201464007567AF75684C756980756532756601904C4375F080020DAEAD82AE83AFF090011D
:201484008F7454F0900190743DF0AB477C00757C0A8C7D8B828C83C007C006C005C004C0DB
:2014A4000312484EA982D003D004743029900191F0757C0A757D008B828C83124818AB8224
:2014C40074302B900192F0900193743AF0AB467C00757C0A8C7D8B828C83C004C0031248F6
:2014E4004EA982D003D004743029900194F0757C0A757D008B828C83124818AB8274302B6F
:20150400900195F09001967420F09001977447F09001987450F09001997453F090019A74D6
:201524003DF0A216E433FC90F003E4932C243090019BF090019C7420F090019D7444F09002
:20154400019E04F090019F744EF09001A0743DF0A2A1E43324309001A1F09001A2E4F090D9
:2015640001A3740DF09001A4744DF09001A5744FF09001A67444F09001A704F09001A874CB
:201584004EF09001A9743DF090F008E49324309001AAF09001ABE4F0A2339231120ED3D045
:2015A40005D006D00740012290018F75F000C007C006C0051202E29001A375F0001202E2B6
:2015C400D005D006D00790F008E49370030217AF904CC075F080C007C006C0051202E290F2
:2015E400F008E493FC90F00893FB7A00757C3C8A7D8B828A83C00412484EAA82D00474308E
:201604002A9001A4F0EC90F00893FB7A00757C068A7D8B828A83C00412484E757C0A757D8A
:2016240000124818AA82D00474302A9001A5F09001A6743AF0EC90F00893FC7B00757C06F6
:201644008B7D8C828B83124818AB8274302B9001A7F09001A87430F09001A97420F09001B0
:20166400AA742DF09001A375F0001202E29001A37420F090F009E493FC7B00757C3C8B7D38
:201684008C828B8312484EAB8274302B9001A4F090F009E493FC7B00757C068B7D8C828B52
:2016A4008312484E757C0A757D00124818AB8274302B9001A5F090F009E493FC7B00757C12
:2016C400068B7D8C828B83124818AB8274302B9001A7F09001A9E4F09001A375F00012028B
:2016E400E2D005D006D0077C0290F008E493FBC3EC9B40030217C4EC90F00893FB7A0075AF
:201704007C3C8A7D8B828A83C007C006C005C00412484EAA82D00474302A9001A4F0EC90BF
:20172400F00893FB7A00757C068A7D8B828A83C00412484E757C0A757D00124818AA82D0C6
:201744000474302A9001A5F0EC90F00893FB7A00757C068A7D8B828A83C004124818AA8297
:20176400D004D005D006D00774302A9001A7F08C02EA30E00D9001A37420F09001A9E4F0BE
:20178400800C9001A3740DF09001A97420F09001A375F000C007C006C005C0041202E2D0E1
:2017A40004D005D006D0070C0216ED904CCD75F080C007C006C0051202E2D005D006D00736
:2017C4008D828E838FF01202E27567E275684C756980756532756601904C4375F080020D30
:2017E400AE900001E4F0D231120ED340012290490F75F0801202E27567F375684C75698060
:20180400756532756601904C4375F080020DAE75600075670E75684D75698075650F756610
:2018240002904D0475F080120DAE50637402B5615E90011CE024D075F00AA4FF90011DE051
:201844002F24D0F547AE477F00757C0C8F7D8E828F83124818AE828E4890011FE024D07515
:20186400F00AA4FF900120E02F24D0F546900122E024D075F00AA4FF900123E02F24D0F593
:201884004585461E85451F8547821201C5D322C3227F007567FE75684875698075650F75F3
:2018A4006601904D1F75F080C007120DAED0074003021AB275672D75684D75698075650FE6
:2018C400756601904D2375F080C007120DAED0074003021AB290F003E4937003021AB27517
:2018E400674975684D75698075650F756601904D3E75F080C007120DAED0074003021AB26B
:2019040075676575684D75698075650F756601904D5A75F080C007120DAED0074003021A4F
:20192400B275600675678275684D75698075650F756602904D7775F080C007120DAED007C6
:201944004003021AB27401B561028003021AB27E007D00ED2413F582E43401F5830DE0FC84
:20196400BC2C060EBE0300500ABD0B00500543C11080E0EE24FD4003021AB28D060EEE33D9
:2019840095E0FCEE2413F582EC3401F583E0FEBE2C15ED04FEED2413F582E43401F583E0C5
:2019A400FC24D0F5478029ED04FCED2413F582E43401F583E024D075F00AA4FDEC04FEEC77
:2019C4002413F582E43401F583E0FC24D02DF5470E8E050DED3395E0FCED2413F582EC3491
:2019E40001F583E0FDBD2C15EE04FDEE2413F582E43401F583E0FC24D0F5468029EE04FCD1
:201A0400EE2413F582E43401F583E024D075F00AA4FEEC04FDEC2413F582E43401F583E0B8
:201A2400FC24D02EF546ED04FEFD0DED3395E0FCED2413F582EC3401F583E0FDBD2C12EEC5
:201A44002413F582E43401F583E0FD24D0F5458026EE04FDEE2413F582E43401F583E02472
:201A6400D075F00AA4FEED2413F582E43401F583E0FD24D02EF545AD477E0074072DFDE421
:201A84003EFEC374179D74808EF063F08095F05007E54724EFFE8006AD4774072DFE8E47C8
:201AA40085461E85451F8547821201C57F01EF24FF92167560002220A002C32275679F7562
:201AC400684D75698075650F756602904D9475F080120DAE50367567C375684D75698075E4
:201AE400650F756601904DB075F080120DAE501C7567E875684D75698075650F7566019046
:201B04004DD475F080120DAE5002D322C322C027C0E0C0F0C082C083C007C006C005C004F0
:201B2400C003C002C001C000C0D075D0102098030226ED43C110855E5DE5622404FEE4340D
:201B440001FF8E828F83E599F0E56024F850030226E0E560240B83F582E560240C83F58357
:201B6400E47376D1D110E027FF8E1B222223262420258E828F83E0FDBD22028003021D3B80
:201B8400AC627D00740C2CF582E43DF583757C0D8D7DC017C016C015C01475D000124818E5
:201BA40075D010AA82AB83D014D015D016D017EA2404F582EB3401F583E0FBBB2002800380
:201BC400021D3B740B2CF582E43DF583757C0D757D00C017C016C015C01475D000124818EF
:201BE40075D010AA82AB83D014D015D016D017EA2404F582EB3401F583E0FBBB3A02800326
:201C0400021D3B740A2CF582E43DF583757C0D757D00C017C016C015C01475D000124818AF
:201C240075D010AA82AB83D014D015D016D017EA2404F582EB3401F583E0FBBB4B028003D4
:201C4400021D3B74092CF582E43DF583757C0D757D00C017C016C015C01475D00012481870
:201C640075D010AA82AB83D014D015D016D017EA2404F582EB3401F583E0FBBB4C02800393
:201C8400021D3B74082CF582E43DF583757C0D757D00C017C016C015C01475D00012481831
:201CA40075D010AA82AB83D014D015D016D017EA2404F582EB3401F583E0FBBB430280035C
:201CC400021D3B74072CF582E43DF583757C0D757D00C017C016C015C01475D000124818F2
:201CE40075D010AA82AB83D014D015D016D017EA2404F582EB3401F583E0FBBB43397406EE
:201D04002CF582E43DF583757C0D757D00C017C01675D00012481875D010AC82AD83D01696
:201D2400D017EC2404F582ED3401F583E0FDBD2B067560020226E08E828F83E0FDBD3A02F1
:201D44008003021E8CAC627D00740C2CF582E43DF583757C0D8D7DC017C016C015C0147536
:201D6400D00012481875D010AA82AB83D014D015D016D017EA2404F582EB3401F583E0FBDC
:201D8400BB49028003021E8C740B2CF582E43DF583757C0D757D00C017C016C015C0147594
:201DA400D00012481875D010AA82AB83D014D015D016D017EA2404F582EB3401F583E0FB9C
:201DC400BB54028003021E8C740A2CF582E43DF583757C0D757D00C017C016C015C014754A
:201DE400D00012481875D010AA82AB83D014D015D016D017EA2404F582EB3401F583E0FB5C
:201E0400BB4D028003021E8C74092CF582E43DF583757C0D757D00C017C016C015C0147511
:201E2400D00012481875D010AA82AB83D014D015D016D017EA2404F582EB3401F583E0FB1B
:201E4400BB434574082CF582E43DF583757C0D757D00C017C01675D00012481875D010AC2E
:201E640082AD83D016D017EC2404F582ED3401F583E0FDBD2B12904DFA75F08075D00012D0
:201E840002E275D0100226E08E828F83E0FDBD2002800302201FAC627D00740C2CF582E4C9
:201EA4003DF583757C0D8D7DC017C016C015C01475D00012481875D010AA82AB83D014D0F1
:201EC40015D016D017EA2404F582EB3401F583E0FBBB3A02800302201F740B2CF582E43D22
:201EE400F583757C0D757D00C017C016C015C01475D00012481875D010AA82AB83D014D006
:201F040015D016D017EA2404F582EB3401F583E0FBBB4C02800302201F740A2CF582E43DD0
:201F2400F583757C0D757D00C017C016C015C01475D00012481875D010AA82AB83D014D0C5
:201F440015D016D017EA2404F582EB3401F583E0FBBB4702800302201F74092CF582E43D96
:201F6400F583757C0D757D00C017C016C015C01475D00012481875D010AA82AB83D014D085
:201F840015D016D017EA2404F582EB3401F583E0FBBB4D02800302201F74082CF582E43D51
:201FA400F583757C0D757D00C017C016C015C01475D00012481875D010AA82AB83D014D045
:201FC40015D016D017EA2404F582EB3401F583E0FBBB434774072CF582E43DF583757C0D25
:201FE400757D00C017C01675D00012481875D010AC82AD83D016D017EC2404F582ED34015A
:20200400F583E0FDBD2B14300B030226E00542C209C207C2067560030226E08E828F83E0A0
:20202400FDBD4B59AC627D00740C2CF582E43DF583757C0D8D7DC017C01675D0001248188B
:2020440075D010AC82AD83D016D017EC2404F582ED3401F583E0FDBD4F23A22BB3922AC2CD
:202064002BE54370030226E0754300904DD475F08075D0001202E275D0100226E08E828F09
:2020840083E0FDBD540280030226E0AC627D00740C2CF582E43DF583757C0D8D7DC015C05A
:2020A4001475D00012481875D010AA82AB83D014D015EA2404F582EB3401F583E0FBBB4FD3
:2020C4000280030226E0740B2CF582E43DF583757C0D757D0075D00012481875D010AC828A
:2020E400AD83EC2404F582ED3401F583E0FDBD4E0280030226E0D22B0226E08E828F83E00B
:20210400FDBD200280030226E0AC627D00740C2CF582E43DF583757C0D8D7DC015C01475E7
:20212400D00012481875D010AA82AB83D014D015EA2404F582EB3401F583E0FBBB3A02806E
:20214400030226E0740B2CF582E43DF583757C0D757D00C015C01475D00012481875D01010
:20216400AA82AB83D014D015EA2404F582EB3401F583E0FBBB5A0280030226E0740A2CF5FB
:2021840082E43DF583757C0D757D00C015C01475D00012481875D010AA82AB83D014D01558
:2021A400EA2404F582EB3401F583E0FBBB540280030226E074092CF582E43DF583757C0DCC
:2021C400757D00C015C01475D00012481875D010AA82AB83D014D015EA2404F582EB340188
:2021E400F583E0FBBB540280030226E074082CF582E43DF583757C0D757D00C015C0147526
:20220400D00012481875D010AA82AB83D014D015EA2404F582EB3401F583E0FBBB55028072
:20222400030226E074072CF582E43DF583757C0D757D00C015C01475D00012481875D01033
:20224400AA82AB83D014D015EA2404F582EB3401F583E0FBBB530280030226E074062CF525
:2022640082E43DF583757C0D757D00C015C01475D00012481875D010AA82AB83D014D01577
:20228400EA2404F582EB3401F583E0FBBB500280030226E08C828D83A3A3A3A3A3757C0D5B
:2022A400757D0075D00012481875D010AC82AD83EC2404F582ED3401F583E0FDBD2A028053
:2022C400030226E07563007560010226E0740DB59902801A74E225634014AD630563ED2413
:2022E40013F582E43401F583E599F00226E0AD631DED3395E0FCED2413F582EC3401F58357
:20230400E4F0856061F560D22A0226E030095DE5437010740DB5990280030226E0756005D2
:202324000226E0740AB5430B7422B599067543000226E020060EE54390489B93FDB59902B7
:202344008002D20630080F20070EE54390F01293FDB599028002D20705432006030226E035
:202364002007030226E07560000226E08E828F83E0FDBD34028003022417AC627D00740C8D
:202384002CF582E43DF583757C0D8D7DC015C01475D00012481875D010AA82AB83D014D032
:2023A40015EA2404F582EB3401F583E0FBBB3863740B2CF582E43DF583757C0D757D00C047
:2023C40015C01475D00012481875D010AA82AB83D014D015EA2404F582EB3401F583E0FBE5
:2023E400BB2B30740A2CF582E43DF583757C0D757D0075D00012481875D010AC82AD83ECC3
:202404002404F582ED3401F583E0FDBD2205D209754301740DB5990280030226E0756000F9
:202424000226E0300A35743BB599028021740DB59902801A746025434014AD430543ED243D
:2024440001F582E43400F583E599F00226E0754300C20A756000D20B0226E08E828F83E0BA
:20246400FDBD2C028003022573AC627D00740C2CF582E43DF583757C0D8D7DC015C01475E6
:20248400D00012481875D010AA82AB83D014D015EA2404F582EB3401F583E0FBBB43028002
:2024A40003022573740B2CF582E43DF583757C0D757D00C015C01475D00012481875D0101B
:2024C400AA82AB83D014D015EA2404F582EB3401F583E0FBBB55028003022573740A2CF50B
:2024E40082E43DF583757C0D757D00C015C01475D00012481875D010AA82AB83D014D015F5
:20250400EA2404F582EB3401F583E0FBBB446074092CF582E43DF583757C0D757D00C015DE
:20252400C01475D00012481875D010AA82AB83D014D015EA2404F582EB3401F583E0FBBBDD
:20254400502D74082CF582E43DF583757C0D757D0075D00012481875D010AC82AD83EC24D8
:2025640004F582ED3401F583E0FDBD2A0280047D0080027D01ED24FF920A740DB59902807E
:20258400030226E07560000226E0300C3B7420B59902801A746025434014AD430543ED2481
:2025A40001F582E43400F583E599F00226E0C20CC20EE5432401F582E43400F583E4F0F5DE
:2025C40043F560D22A0226E08E828F83E0FEBE3D0280030226E0AE627F00740C2EF582E43B
:2025E4003FF583757C0D8F7DC017C01675D00012481875D010AC82AD83D016D017EC24041E
:20260400F582ED3401F583E0FDBD680280030226E0740B2EF582E43FF583757C0D757D0067
:20262400C017C01675D00012481875D010AC82AD83D016D017EC2404F582ED3401F583E0AD
:20264400FDBD6E0280030226E0740A2EF582E43FF583757C0D757D00C017C01675D000120F
:20266400481875D010AC82AD83D016D017EC2404F582ED3401F583E0FDBD696074092EF54E
:2026840082E43FF583757C0D757D00C017C01675D00012481875D010AC82AD83D016D01745
:2026A400EC2404F582ED3401F583E0FDBD682D74082EF582E43FF583757C0D757D0075D0D1
:2026C4000012481875D010AE82AF83EE2404F582EF3401F583E0FFBF6302D20C0562E56215
:2026E40024F35003756200C298D0D0D000D001D002D003D004D005D006D007D083D082D08A
:20270400F0D0E0D02732C20D900001E0FFBF3F028008900002E0FFBF3F062006030217E589
:20272400900002E0FFBF4103022E76BF4303022C63BF4503022F03BF4802803EBF500302CF
:2027440032E5BF5303022D25BF5403023419BF6103022E76BF6303022C63BF6503022F03B6
:20276400BF68028015BF70030232E5BF7303022D25BF740302341902376D900004E0FFBF66
:202784002B028003022941900005E0FEC3742F9EE433FD70030228CCBE330040030228CCFB
:2027A400900006E0FC24D040030228CCBC3A0040030228CC900007E0FB24D040030228CCA8
:2027C400BB360040030228CC900008E0F57124D040030228CC74C6257150030228CC900017
:2027E4000AE0F56D24D040030228CC74CD256D50030228CC90000BE0F56E24D04003022801
:20280400CC74C6256E50030228CC90000CE0F56F24D040030228CC74CA256F50030228CCAA
:2028240090000DE0F57024D040030228CC74C6257050030228CC8E0274022AF572AA6DC3FC
:202844009A75F00AA42404F57225472CAC6EC39CFAAC6F74062CC39B75F00AA42570AB714A
:20286400C39BFC8A73757400AA467B00743C2AF575E43BF5768C027B00C3E5759AE576645C
:20288400808BF063F08095F0E433FA7B00E573C39AF582E5749BF583757C0C8B7DC00412E2
:2028A4004818AA82D0048A4AAB4674782BC39CFB7C00757C3C8C7D8B828C83124818AB8211
:2028C4008B4C120A07022C06ED606DBE36005068900006E0FD24D0505FBD3A00505AEE2497
:2028E400D075F00AA42D24D0FEAD4A740C2DFDC3E54C9EE433FCEDC39CFD7C00757C0C8C3E
:202904007D8D828C83C006124818AC82D0068C4AAC4C7D00743C2CFCE43DFD7B00ECC39ED3
:20292400F582ED9BF583757C3C8B7D124818AD828D4C120A07022C06D20D022C06BF2D46D1
:20294400900005E0FE24D05038BE36005033900006E0FD24D0502ABD3A005025EE24D07569
:20296400F00AA4AC4C2C2D24D0F54C24C4500CE54A04F54AE54CFE24C4F54C120A07022CD0
:2029840006D20D022C06900005E0FEBE4E028003BE6E2130060302379312025E9000A374AB
:2029A40001F0120299787F7600788076187881763C022C06BE46028003BE661630060302A5
:2029C400379312025E9000A3E4F0120299C2C2022C06BF2C028003022A9EBE6702800DBE9F
:2029E40047028008BE61028003BE4116C2C2787F76001218139216788076187881763C0240
:202A04002C06EE24D04003022A99BE33004003022A99900006E0FD24D0507ABD3A005075B0
:202A2400900007E0FC24D0506CBC36005067900008E0FB24D0505EBB3A0050598E02EA2475
:202A4400D075F00AA4FA2D24D0FDBD18005041C2C2787F76008D47EC24D075F00AA42B240A
:202A6400D0F546AC477D00757C0C8D7D8C828D83124818AC828C4885461E85451F8547821E
:202A84001201C5C216788076187881763C022C06D20D022C06D20D022C06EF24D0400302CF
:202AA4002C04BF33004003022C04EE24D04003022C04BE3A004003022C04900006E0FD2420
:202AC400D04003022C04BD36004003022C04900007E0FD24D04003022C04BD3A004003022C
:202AE4002C047D00EF24D0F57CED34FFF57D90000AC006124769AD82AF83D0067C00EE2D4F
:202B0400FDEC3FFFED24D0F582EF34FFF583757C0C8C7D124818AE828E4A900006E024D0AE
:202B240075F00AA4FF900007E02F24D0F54C120A07900009E0FFBF6702800DBF47028008C4
:202B4400BF61028003BF412A90F003E4937003022C06121813921690F011E4937003022C73
:202B640006C2C2787F7600788076187881763C022C06EF24D04003022C06BF330040030264
:202B84002C0690000AE0FE24D05077BE3A00507290000BE0FD24D05069BD360050649000B6
:202BA4000CE0FC24D0505BBC3A005056EF24D075F00AA42E24D0FFBF18005040C2C2787FF5
:202BC40076008F47ED24D075F00AA42C24D0F546AE477F00757C0C8F7D8E828F8312481845
:202BE400AE828E4885461E85451F8547821201C5788076187881763CC2168006D20D8002E3
:202C0400D20D300D2A30070ED232904E0975F080120F57023793D232904E1C75F080120F0D
:202C240057C232904E0975F080120F5702379312090785825230070ED232904E4275F0806C
:202C4400120F57023793D232904E5C75F080120F57C232904E4275F080120F5702379390C4
:202C64000005E0FFBF65028003BF452A30070ED233904E8975F08012147C023793D23390FC
:202C84004EA175F08012147CC233904E8975F08012147C023793BF6E028003BF4E0E12022A
:202CA4005E9000A57401F0120299804BBF66028003BF460D12025E9000A5E4F0120299803C
:202CC40036900003E06030900004E0602A30070ED232904E0975F080120F57023793D2325C
:202CE400904E1C75F080120F57C232904E0975F080120F5702379330070ED232904ECC750D
:202D0400F080120F57023793D232904EE075F080120F57C232904ECC75F080120F570237A8
:202D240093900005E0FFBF7902800DBF59028008BF44028003BF642A30070DD232904F071C
:202D440075F080120F578016D232904F2475F080120F57C232904F0775F080120F57C2AF70
:202D640080FEBF67028008BF47028003022E19900009E0FE24D05073BE3A00506E12025EF7
:202D8400900009E024D0FE9000A7F08E5090000BE0FE24D05028BE3300502390000CE0FDFD
:202DA40024D0501ABD3A005015EE24D075F00AA42D24D0FEBE180050059000A8EEF01202EC
:202DC4009930070ED232904F5475F080120F57023793D232904F7375F080120F57C232907A
:202DE4004F5475F080120F5702379330070ED232904FA575F080120F57023793D232904F2A
:202E0400C675F080120F57C232904FA575F080120F57023793BF69028003BF492B30070DC6
:202E2400D232904FFA75F080120F578016D23290501C75F080120F57C232904FFA75F080AF
:202E4400120F57C2A002379330070ED23290505175F080120F57023793D23290506A75F072
:202E640080120F57C23290505175F080120F57023793900005E0FF24CF505ABF3A00505559
:202E8400900007E0FF24CF504CBF3A00504712025E900005E024D0C454F0FF900007E0241C
:202EA400D042079000AAEFF012029930070ED23290509675F080120F57023793D232905063
:202EC400BC75F080120F57C23290509675F080120F5702379330070ED2329050F575F0803F
:202EE400120F57023793D23290511275F080120F57C2329050F575F080120F5702379390B4
:202F04000005E0FFBF58028003BF783512025E9000ABE4F012029930070ED23390514275B1
:202F2400F08012147C023793D23390515D75F08012147CC23390514275F08012147C02370D
:202F44009312025E1202999000ABE4F09001AC7404F09001ACE0FF2401F582E43400F583BF
:202F6400E0FE24D0400302326BBE3300400302326B8F057F0074012DFBE43FFCEB2401F5F2
:202F840082EC3400F583E0FC24D0400302326B74012DFBE43FFCEB2401F582EC3400F58386
:202FA400E0FCBC3A00400302326B74022DFBE43FFCEB2401F582EC3400F583E0FC24D0406D
:202FC4000302326B74022DFBE43FFCEB2401F582EC3400F583E0FCBC3600400302326B744B
:202FE400032DFBE43FFCEB2401F582EC3400F583E0FC24D0400302326B74032DFBE43FFCF4
:20300400EB2401F582EC3400F583E0FCBC3A00400302326B74052DFBE43FFCEB2401F58292
:20302400EC3400F583E0FC24D0400302326B74052DFBE43FFCEB2401F582EC3400F583E083
:20304400FCBC3300400302326B74062DFBE43FFCEB2401F582EC3400F583E0FC24D04003AC
:2030640002326B74062DFBE43FFCEB2401F582EC3400F583E0FCBC3A00400302326B74079E
:203084002DFBE43FFCEB2401F582EC3400F583E0FC24D0400302326B74072DFBE43FFCEB67
:2030A4002401F582EC3400F583E0FCBC3600400302326B74082DFBE43FFCEB2401F582ECF2
:2030C4003400F583E0FC24D0400302326B74082DFBE43FFCEB2401F582EC3400F583E0FCD0
:2030E400BC3A00400302326B8E7C757D0090000AC007C006C005124769AB82AC83D005D049
:2031040006D007C00674012DFAE43FFEEA2401F582EE3400F583E07A002BFBEA3CFCC3EBDB
:203124009428EC64809482D006400302326BC00674052DFBE43FFCEB2401F582EC3400F50F
:2031440083E0FC8C7C757D0090000AC007C006C005124769AB82AC83D005D006D00774060C
:203164002DFAE43FFEEA2401F582EE3400F583E07A002BFBEA3CFCC3EB9428EC64809482F1
:20318400D006400302326BED24FCF582EF34FFF583757C05757D00C007C006C00512484E73
:2031A400AB82D005D006D00774092BFC3395E0FAEC24A3F573EA3400F574EE24D075F00A23
:2031C400A4F57574012DFCE43FFEEC2401F582EE3400F583E0257524D075F006A4FE74020B
:2031E4002DFAE43FFCEA2401F582EC3400F583E02E24D0857382857483F0740A2BFB339513
:20320400E0FEEB24A3FBEE3400FE74052DFAE43FFCEA2401F582EC3400F583E024D075F0E9
:203224000AA4F57574062DFAE43FFCEA2401F582EC3400F583E0257524D075F006A4FC74A7
:20324400072DFDE43FFFED2401F582EF3400F583E02C24D08B828E83F09000ABE0FF0F0FAD
:203264009000ABEFF080069001AC744BF09001ACE0240AF0E0FFBF4B005003022F56900030
:20328400ABE0603390000012024612029930070ED23390518B75F08012147C023793D23367
:2032A4009051AB75F08012147CC23390518B75F08012147C02379330070ED2329051DE75C6
:2032C400F080120F57023793D23290520075F080120F57C2329051DE75F080120F570237AA
:2032E4009330060302379390F011E493700ED23290523575F080120F57023793900006E0F2
:20330400FFBF54028003BF7410C2C2D23290524A75F080120F57023793BF4E028003BF6E33
:203324002F90F011E493FEBE011812025E9000B47402F0120299787F7600788076187881C8
:20334400763CD23290525475F080120F57023793BF46028003BF662590F011E493FEBE02BA
:203364000EC2C212025E9000B47401F0120299D23290525D75F080120F57023793900005EE
:20338400E0FE24D0400302340BBE33005079EF24D05074BF3A00506F900007E0FD24D05002
:2033A40066BD36005061900008E0FC24D05058BC3A005053209242D2C2EE24D075F00AA4D9
:2033C4002F24D0F582ED24D075F00AA42C24D0F57B1246B99005DC1203D030920ED2329000
:2033E400526675F080120F57023793D23290527B75F080120F57023793D23290529D75F076
:2034040080120F57023793D2329052C375F080120F57023793300603023762900004E0FFCB
:20342400BF47028003BF671D12025E9000A67401F0120299121895D2329052DA75F080128A
:203444000F57023762BF41028003BF611B12025E9000A6E4F0120299C216D2329052E37568
:20346400F080120F57023762BF2B0280030235A8900005E0FEBE380280030235A890000614
:20348400E0FEBE340280030235A8900007E0FEBE3000500302359AEE24C6500302359A90E1
:2034A4000008E0FEBE3000500302359AEE24C6500302359A900009E0FEBE30005003023525
:2034C4009AEE24C6500302359A90000AE0FEBE3000500302359AEE24C6500302359A90003C
:2034E4000BE0FEBE3000500302359AEE24C6500302359A90000CE0FEBE3000500302359A45
:20350400EE24C6500302359A90000DE0FEBE3000500302359AEE24C6500302359A90000E84
:20352400E0FEBE3000406FEE24C6406A90000FE0FEBE30004060EE24C6405B12025E90000A
:20354400B5E4F07E018E0574122DFD3395E0FCED24A3FDEC3400FC8E027B0074062AFAE41E
:203564003BFBEA2401F582EB3400F583E08D828C83F00EBE0A0040CD9000C0E0FEBE020530
:203584009000C0E4F0120299D2329052EC75F080120F57023762D23290530A75F080120F95
:2035A40057023762BF300280030236C2900005E0FEBE300050030236B4EE24C650030236A4
:2035C400B4900006E0FEBE300050030236B4EE24C650030236B4900007E0FEBE30005003C5
:2035E4000236B4EE24C650030236B4900008E0FEBE300050030236B4EE24C650030236B40A
:20360400900009E0FEBE300050030236B4EE24C650030236B490000AE0FEBE300050030230
:2036240036B4EE24C650030236B490000BE0FEBE300050030236B4EE24C6407490000CE0D7
:20364400FEBE3000406AEE24C6406590000DE0FEBE3000405BEE24C6405612025E7E008E63
:203664000574122DFD3395E0FCED24A3FDEC3400FC8E027B0074032AFAE43BFBEA2401F55C
:2036840082EB3400F583E08D828C83F00EBE0A0040CD9000C0E0FEBE02059000C0E4F01213
:2036A4000299D2329052EC75F080120F57023762D23290530A75F080120F57023762BF7881
:2036C400028003BF581A12025E9000C07402F0120299D23290532F75F080120F570237624D
:2036E40090F01DE493FFBF0224900005E0FFBF6E02800DBF4E028008BF66028003BF465EFA
:20370400D23290533E75F080120F578051900005E0FFBF4E028003BF6E1912025E9000C044
:203724007401F0120299D23290537075F080120F57802BBF46028003BF661812025E90004B
:20374400C0E4F0120299D23290537F75F080120F57800BD23290538E75F080120F5790F084
:203764001DE493FF139208802630070DD2329053AB75F080120F578016D2329053BE75F08C
:2037840080120F57C2329053AB75F080120F5743C1107F00EF2401FDE43400FE8D828E8374
:2037A400E0600FEF2401F582E43400F5830FE4F080E2227F008F778F937594FF8F928F9144
:2037C4008F957596FF8FB28FB175B30275B41C8FCA8FC98FC075B0FF8FA075B881759D08AC
:2037E4008F978FBD75BC83D2ADD2AF9000C574FAF09000C6741EF09000C7F09000A2740A1D
:20380400F0755902755802755702755A05755B01C007120A4312025ED0079000A3E024FEFE
:2038240050069000A37401F09000A5E024FE50059000A5E4F09000A6E024FE50069000A63D
:203844007401F09000A7E024F650069000A77401F09000A8E024E850059000A8E4F09000C7
:20386400AAE0FDC4540FFC7B001CBCFF011BC374089C74808BF063F08095F0500A740F5D50
:203884004450FD9000AAF09000AAE0FD53050F7C001DBDFF011CC374089D74808CF063F0DA
:2038A4008095F0500F9000AAE0FD74F05D4401FD9000AAF09001AD7401F09000ABE0FDBDE4
:2038C4000900502EED20E02A7C01C3ED9C401E8C0374082BFB3395E0FAEB24A3F582EA3405
:2038E40000F583E0FBBB900050030C80DD9001ADECF09001ADE0FCC3ED9C40129000AB74E9
:2039040002F09000AC7424F09000AD746CF09001ADE4F09000C0E0FDBD020050479000BFFC
:20392400E07041FDBD0A0050368D0474122CFB3395E0FAEB24A3F582EA3400F583E0FBBB73
:203944003000401B74122CFC3395E0FBEC24A3F582EB3400F583E0FC24C640030D80C590DB
:2039640001ADEDF09001ADE0FDBD0A00500B9000BFE4F09000C07402F09000C1E0FD24E769
:2039840050059000C1E4F03092079000B4E4F080129000B4E0FD6005ED24FD50069000B408
:2039A4007402F0C007120299D00790F3FEE493FD24C4400A90F3FFE493FD24F45009C007FD
:2039C400120A07D007800E90F3FEE493F54C90F3FFE493F54AD2A2C0071202CAD00790F07A
:2039E40011E4936013C0071246A3D007787F7600788076187881763CD20390F004E493F5CC
:203A040050C007120A3112056A751846751900751A40751B45751C00751D4090004775F019
:203A240040120135D007E54724E8400CE54624C44006E54524C45010751E00751F007582B6
:203A440000C0071201C5D007C0071200EED2A8D288751846751900751A40751B45751C00BB
:203A6400751D4090004775F040120135D007E54724F45007E54724F4FD8002AD478D48901E
:203A8400F01DE493FD13920875BC8B90F006E4937015755C05C00712025E9000A974FFF00B
:203AA400120299D0078003755C3C75C16590F3FEE493B54C0B90F3FFE493FDB54A028007D1
:203AC400C007120A07D007E55C6004E55A7011755A00E552700AC007120907858252D00723
:203AE400201703023B8920A0169000A2E014F0E0700D75BC83D2A09000A2741EF0D2059038
:203B040000C4E0FDE060239000C2E0701DED149000C4F0E070149000C27405F09000C4F036
:203B2400C007120907858252D007E552603CE552FD14FC3395E0FBEC24C6FCEB3400FB8C36
:203B4400828B83E060241DED3395E0FCED24C6FDEC3400FC8D828C83E0FB1B8D828C83EBB2
:203B6400F0EB7006F552C212C210E55C600C90F011E4936003209202155CE5576005301ED7
:203B8400021557C217C007120764D007E55A701790F000E493601090F011E493FDBD0207C7
:203BA400C0071208ABD00790F004E4936036E550703290F005E493FDB54729E54624FA507F
:203BC40023E552701F90F011E4936003209215C2AF75280090000612022BD2A39007D012F5
:203BE40003D080FE9000C5E07026202D23D22DD2329053E475F080C007120F57D007300838
:203C04000FC2329053E475F080C007120F57D0079000C6E07026202E23D22ED232905401B5
:203C240075F080C007120F57D00730080FC23290540175F080C007120F57D0079000C7E033
:203C44007026202F23D22FD23290541A75F080C007120F57D00730080FC23290541A75F0BC
:203C640080C007120F57D00720035274FB2546404C20160E90F003E4936007C007121895A4
:203C8400D007E54724F45007E54724F4FD8002AD478D4890F002E4936021D2329054337518
:203CA400F080C007120F57D00730080FC23290543375F080C007120F57D007D203E55A24F5
:203CC400FA50030245EDE55A75F003A4903CD473023CE60240260242680245A502442D0268
:203CE4003E6330054975BC8BC205756000C007121895AC477D00757C0C8D7D8C828D83121C
:203D04004818AC828C48121ABBD0075021D23290544475F080C007120F57D00730080FC2DE
:203D24003290544475F080C007120F57D007300B14C00712270A904DD475F0801202E2D075
:203D440007C20B8045752D61752E54752F80854A30854C317532FDA2199201758280C00777
:203D64001205EB752D61752E54752F80854B30854D317532FDA21992017582851205EB901C
:203D8400546375F080120500D007301622752D2B752E4C752F80854730854631854532A2B7
:203DA4001992017582C0C0071205EBD007804990F003E4936022752D3B752E4C752F808542
:203DC4004730854631854532A21992017582C0C0071205EBD0078020752D33752E4C752FC3
:203DE40080854730854631854532A21992017582C0C0071205EBD007E55760030245F3309D
:203E040010030245F3C21B755C3C9000C3E4F09000C2F09000C4F0755A05755B01F552C20C
:203E2400C2787F760010200280030245F330081DD23290546A75F080C007120F57C2329011
:203E4400547E75F080120F57D0070245F3D23290547E75F080C007120F57D0070245F31073
:203E64001B02801E755C3C055B7404B55B0990F011E4937002055BE55B24FB5003755B0029
:203E8400C2291025028008755C3C755B00C229102003023FC8755C3C855B5A755B00C00792
:203EA400120907858252D007E55A70030245F3758280C007120483E55A75F010A424AEFCC3
:203EC400744835F0FD7B808C828D838BF0120500D0077401B55A02801A7402B55A02805BFC
:203EE4007403B55A03023F897404B55A03023FA20245F3752D61752E54752F80854A308522
:203F04004C317532FDA21992017582C0C0071205EB752D61752E54752F80854B30854D318D
:203F24007532FDA21992017582C51205EB90546375F080120500D0070245F33016067C2B86
:203F44007D4C801F90F003E493600B75783B75794C757A80800975783375794C757A80ACC1
:203F640078AD798C2D8D2E752F80854730854631854532A21992017582C01205EBAF478591
:203F840046770245F390549475F080C0071205007529047582C01203FDD0070245F3752DCD
:203FA400A5752E54752F80753000753100753200A21992017582C01205EBD2C27577007F45
:203FC400000245F33016067C2B7D4C801990F003E49360087A3B7B4C7E8080067A337B4C78
:203FE4007E808A048B058C2D8D2E752F80854730854631855C32A21992017582C0C0071220
:2040040005EBE55B75F010A424AEFD744835F0FE8D2A8E2B752C8075828012040DD00702A1
:2040240045F3AE5B0EAC5B7D00757C048D7D8C828D83C007C00612484EAC82D006EC2EF544
:20404400297582C01203FDD00710250302421F755C3CE55B24F850030241DAE55B240B832D
:20406400F582E55B240C83F583E4737FABEC05335E9BB24040404141414141E54AFE24F2C2
:20408400501D8E047D00757C0A8D7D8C828D83C007124818AC82AD83D0078C4A0241DA74A8
:2040A4000A2EF54A0241DAE54A24E95006754A140241DAAE4A8E047D00757C0A8D7D8C82CC
:2040C4008D83C007C006124818AC82AD83D006D007BC090DBD000A8E05ED24F7F54A02410C
:2040E400DAEE04F54A0241DAE54CFE24CE500A8E05ED24CEF54C0241DA740A2EF54C024119
:20410400DAE54C04FE8E4C7D00757C0A8D7D8E828D83C007124818E5828583F0D00745F06E
:2041240060030241DAE54CFE24F6F54C0241DAE54BFE24F2501D8E047D00757C0A8D7D8C03
:20414400828D83C007124818AC82AD83D0078C4B0241DA740A2EF54B807CE54BFE24E950F4
:2041640005754B1480708E047D00757C0A8D7D8C828D83C007C006124818AC82AD83D0060D
:20418400D007BC090CBD00098E05ED24F7F54B8045EE04F54B803FE54DFE24CE50098E050E
:2041A400ED24CEF54D802F740A2EF54D8028E54D04FE8E4D7D00757C0A8D7D8E828D83C024
:2041C40007124818E5828583F0D00745F07007E54DFE24F6F54D752D61752E54752F808551
:2041E4004A30854C317532FDA21992017582C0C0071205EB752D61752E54752F80854B30AF
:20420400854D317532FDA21992017582C51205EB90546375F080120500D007102002800912
:20422400755C3CE55B6002155B101B030245F3755C3C055BE55B24F840030245F3C00712D4
:2042440004DB855A5B755A05AD4A7E00757C0C8E7D8D828E83124818AD828D4A120A07D065
:20426400070245F3AE5B74072EFEAC5B7D00757C028D7D8C828D83C007C00612484EAC8247
:20428400D006EC2EF5297582C01203FDD00790F003E4936031E557702D855A5B755A057882
:2042A4008076187881763C90F003E4936007C007121895D007E54724F45007E54724F4FEA6
:2042C4008002AE478E481025030243C6755C3CE55B24FC5003024387E55B75F003A49042A0
:2042E400E6730242F2024317024349024361EF24F250188F057E00757C0A8E7D8D828E83F6
:20430400124818AD82AE838D0780788F06740A2EFF8070EF24E950047F1480678F057E002F
:20432400757C0A8E7D8D828E83C007124818AD82AE83D007BD090BBE00088F06EE24F7FFAF
:2043440080410F803EE57724CE5009E577FE24CEF577802FAE77740A2EF57780260577ADB1
:20436400777E00757C0A8E7D8D828E83C007124818E5828583F0D00745F07007E577FE2485
:20438400F6F5773016067D2B7E4C801990F003E49360087A3B7B4C7C8080067A337B4C7C10
:2043A400808A058B068D2D8E2E752F808F30857731855C32A21992017582C0C0071205EBF2
:2043C400D0071020028009755C3CE55B6002155B101B030245F3755C3C055BE55B24FC40B3
:2043E400030245F3C0071204DBD007855A5B755A058F4785774685461E85451F854782C0E7
:20440400071201C5AD477E00757C0C8E7D8D828E83124818AD82AE83D0078D48C2167880D1
:2044240076187881763C0245F3AE5B74072EFEAC5B7D00757C028D7D8C828D83C007C00629
:2044440012484EAC82D006EC2EF5297582C01203FDD007E5577008855A5B755A05C2C2107E
:20446400250302453F755C3CE55B24FC5003024520E55B75F003A490447F7302448B02443A
:20448400B00244E20244FAEF24F250188F057E00757C0A8E7D8D828E83124818AD82AE8389
:2044A4008D0780788F06740A2EFF8070EF24E950047F1480678F057E00757C0A8E7D8D824B
:2044C4008E83C007124818AD82AE83D007BD090BBE00088F06EE24F7FF80410F803EE57739
:2044E40024CE5009E577FE24CEF577802FAE77740A2EF57780260577AD777E00757C0A8E7C
:204504007D8D828E83C007124818E5828583F0D00745F07007E577FE24F6F577752DA57543
:204524002E54752F808F30857731753200A21992017582C0C0071205EBD0071020028009DE
:20454400755C3CE55B6002155B101B030245F3755C3C055BE55B24FC40030245F3755B00B6
:2045640085777B8F82C0071246B99000641203D0D0073092067DAD7E5480047DB57E548D4E
:204584002D8E2E752F808F30857731753200A21992017582C0C0071205EB1204DBD0078061
:2045A4004E101B0280209000C27405F0AE5B9000C3EE04F09000C47405F0855A5BF55AC0DD
:2045C400071204DBD0071025028024AE5B7401C39EF55BAE5B74312EF582C0071204287531
:2045E40082C4120483D0078006755B00755A0043C110023AB1C0E043C110E59A30E0035342
:204604009AFED0E032C027C0E0C0F0C082C083C007C006C005C004C003C002C001C000C084
:20462400D075D00075BC83AFBD787EA607E552704E30021DBF52005004C2A28042EF24912B
:20464400503DC202D2329054BD75F080120F57802EBF5C005029D20275520053A00F90F3A1
:20466400FEE493B54C0B90F3FFE493FFB54A028003120A07D2329054D275F080120F57758A
:1F468400BC8BD0D0D000D001D002D003D004D005D006D007D083D082D0F0D0E0D0273256
:20489B00303934393834373039380080901030206040C02020202020204558495400000019
:2048BB0000000020204348494E482047494F204B494D00204348494E482047494F205448EE
:2048DB005543002020202043414E48204B494D000000002020202054455354204D503300DA
:2048FB0000000020535445502047505320312E312E31200044482C4F4E20646F6E67206863
:20491B006F2063686179202D2044482C4F464620646F6E6720686F2064756E670A44482CF9
:20493B002B6D6D206B696D2070687574206C6563682064756F6E67206D6D20706875742021
:20495B002D2044482C2D6D6D206C65636820616D206D6D20706875740A44482C6B6B6B6B3D
:20497B002C74747474206368696E682067696F206B696D2067696F20746875632067696FA4
:20499B0020747520646F6E67207468617920747474742062616E67206175746F0A42432C19
:2049BB004F4E2062616F2063616F206461752067696F202D2042432C4F464620746174205F
:2049DB0062616F2063616F206461752067696F0A4243206775692062616F2063616F202D98
:2049FB002042432C44454E2042432C4D50332062616F2063616F2064656E2062616F206382
:204A1B00616F206D70330A52532072657365743A52532C73797320726573657420686520CF
:204A3B0074686F6E67202D2052532C73696D20726573657420677073206D6F64756C650A57
:204A5B0052532C472C6E6E2C6767206D6F69206E6E206E6761792076616F2067696F2067A5
:204A7B00673A303620626F2064696575206B6869656E2072657365740A44454E2C584F41F5
:204A9B0020786F6120746F616E20626F2074686F6E6720736F2064656E20746174206465E5
:204ABB006E0A44454E2C747474742C6D6D6D6D20783A20736F206361702067696F20746134
:204ADB00742F6D6F20747474742C6D6D6D6D2067696F207461742F6D6F2064656E0A4D509B
:204AFB00332C582C616C6C20786F6120746174206361202D204D70332C582C61612C62620B
:204B1B002C63632C2E2E2E20786F61206361632067696F2061612C62622C63630A4D503326
:204B3B002C542C676770702C32322C31312C2E2E2E206C6170206C616920746F6920646128
:204B5B00203132206C616E20676770703A67696F20706875742070686174206E6861630AA3
:204B7B0032322C3131207468752074752062616920686174206C616E206C756F74207472C0
:204B9B006F6E6720746875206D7563203220766120310A44542C3078787878787878787810
:204BBB002044542C2B3834787878787878787878207468617920646F6920736F20646965A1
:204BDB006E2074686F6169207068750A44542C584F4120786F6120736F206469656E207436
:204BFB00686F6169207068750A44542C4F4E2044542C4F4646202D20626174207461742035
:204C1B006469656E2074686F6169207068750A002020475053202000204153494120200045
:204C3B0020202044532020001A00544B3C31303030204B2042414F43414F0041542B434DEC
:204C5B0047533D2200220D0041542B435553443D312C222A31303123222C0D0020204B4958
:204C7B00454D2054524120544B202020002C000D544B204368696E683D000D546169206B8C
:204C9B00686F616E20636F6E2064756F692031303030300044414E47204755492042414F00
:204CBB002043414F000D47696F204D6F2044656E3A000D4B686F6E6720636F2067696F20F8
:204CDB006D6F2064656E004755492042414F2043414F2044454E2000204755492048554F94
:204CFB004E472044414E20200041542B43434C4B3F0D00202053454E44494E472043434C6E
:204D1B004B20200041540D0041542B4950523D300D00202053454E44494E472049505220B3
:204D3B0020200041542B434C54533D310D00202053454E44494E4720434C54532020004188
:204D5B00542B4346554E3D300D00202053454E44494E47204346554E3020200041542B430C
:204D7B0046554E3D310D00202053454E44494E47204346554E3120200041542B434D4746D2
:204D9B003D310D00202053454E44494E4720434D474620200041542B434E4D493D312C3106
:204DBB002C302C302C310D00202053454E44494E4720434E4D4920200041542B434D47440C
:204DDB00413D2244454C20414C4C220D00202053454E44494E4720434D47444120200041D6
:204DFB00542B434D474C3D22414C4C220D000D6C656E68206B686F6E6720686F70206C654C
:204E1B00000D6C656E68206B686F6E6720686F70206C650D50686F6E6520706875206775C4
:204E3B0069206C656E68000D6368696E6820646F6E6720686F207468616E6820636F6E6757
:204E5B00000D6368696E6820646F6E6720686F207468616E6820636F6E670D50686F6E6560
:204E7B002070687520677569206C656E68000D62616F2063616F2064656E207468616E6862
:204E9B0020636F6E67000D62616F2063616F2064656E207468616E6820636F6E670D506888
:204EBB006F6E652070687520677569206C656E68000D62616F2063616F207468616E682017
:204EDB00636F6E67000D62616F2063616F207468616E6820636F6E670D50686F6E652070ED
:204EFB00687520677569206C656E68000D6B686F6920646F6E67206C616920626F206469DA
:204F1B006575206B6869656E000D6B686F6920646F6E67206C616920626F206469657520BF
:204F3B006B6869656E0D50686F6E652070687520677569206C656E68000D646174206E676C
:204F5B0061792067696F207265736574207468616E6820636F6E67000D646174206E676124
:204F7B00792067696F207265736574207468616E6820636F6E670D50686F6E65207068758D
:204F9B0020677569206C656E68000D646174206E6761792067696F207265736574206B6820
:204FBB006F6E6720686F70206C65000D646174206E6761792067696F207265736574206BF8
:204FDB00686F6E6720686F70206C650D50686F6E652070687520677569206C656E68000D05
:204FFB0067736D206D6F64756C65206B686F6920646F6E67206C6169207361752031307363
:20501B00000D67736D206D6F64756C65206B686F6920646F6E67206C6169207361752031D8
:20503B0030730D50686F6E652070687520677569206C656E68000D6C656E6820726573658F
:20505B0074206B686F6E6720686F70206C65000D6C656E68207265736574206B686F6E6704
:20507B0020686F70206C650D50686F6E652070687520677569206C656E68000D746861795A
:20509B0020646F692067696F20736163207861206163717569207468616E6820636F6E67BD
:2050BB00000D7468617920646F692067696F20736163207861206163717569207468616E09
:2050DB006820636F6E670D50686F6E652070687520677569206C656E68000D4C656E682032
:2050FB00736163206163717569206B686F6E6720686F70206C65000D4C656E6820736163B1
:20511B00206163717569206B686F6E6720686F70206C650D50686F6E652070687520677542
:20513B0069206C656E68000D786F6120746174206D6F2064656E207468616E6820636F6E80
:20515B0067000D786F6120746174206D6F2064656E207468616E6820636F6E670D50686F8E
:20517B006E652070687520677569206C656E68000D677569206C656E6820746174206D6F2A
:20519B002064656E207468616E6820636F6E67000D677569206C656E6820746174206D6F25
:2051BB002064656E207468616E6820636F6E670D50686F6E652070687520677569206C65B9
:2051DB006E68000D74686F6E6720736F20746174206D6F2064656E206B686F6E6720686FC5
:2051FB0070206C65000D74686F6E6720736F20746174206D6F2064656E206B686F6E6720F1
:20521B00686F70206C650D50686F6E652070687520677569206C656E68000D4B686F6E6797
:20523B0020436F204D6F64756C65204D7033000D44756E67204D7033000D426174206D701F
:20525B0033000D546174206D7033000D54657374206D7033207468616E6820636F6E6700C3
:20527B000D6B686F6E672064756E672067696F207068617420686F6163206D7033206C6F0F
:20529B0069000D4D70332064616E672063686F69206E686163206E656E20636875612074A0
:2052BB0068652074657374000D4C656E68204D5033206B686F6E6720686F70206C65000D06
:2052DB0042617420475053000D54617420475053000D6768692070686F6E65207068752046
:2052FB006D6F69207468616E6820636F6E67000D7468617920646F692070686F6E6520706B
:20531B006875206B686F6E67207468616E6820636F6E67000D586F612070686F6E65207065
:20533B006875000D6C656E68206B686F6E67207468616E6820636F6E6720646F206368753D
:20535B0061206B686F692074616F2070686F6E6520706875000D4261742070686F6E65207D
:20537B00706875000D5461742070686F6E6520706875000D4C656E682070686F6E6520708A
:20539B006875206B686F6E6720686F70206C65000D4C656E68206B686F6E6720686F702034
:2053BB006C65000D4C656E68206B686F6E6720686F70206C650D50686F6E6520706875204A
:2053DB00677569206C656E68000D70686174206869656E206C6F69206D61742078756E6780
:2053FB002067696179000D70686174206869656E206C6F6920646F632063616D2031000DE1
:20541B0070686174206869656E206C6F6920646F632063616D2032000D62616F2063616F11
:20543B00206461752067696F000D67736D206D6F64756C65207265736574207468616E6828
:20545B0020636F6E67002000202020202020000D6368696E682067696F2062616E672074C8
:20547B006179000D2A6368696E682067696F2062616E67207461792A00C04D41592031202F
:20549B002020202020202020200020204D503320200020204F4B2020200020204E4F20202A
:2054BB0020000D2A6469656E206170206B686F6920706875632A000D2A6469656E2061705C
:0F54DB0020616371756920746861702A0014285C
:2046A30075BA01759A50438E0475D7C875D6FE438E1075AF0122AF828F7C757D00900064EC
:2046C300124769AE82AF83AC7B7D00EC2EFEED3FFF8E058D037C0074E9C39BFB74FE9CFC6D
:2046E3008F017A00EBC399FBEC9AFC9001AE747EF09001AF74FFF09001B07406F09001B138
:204703007412F09001B2E4F08F069001B3EEF09001B4EDF08C079001B5EFF09001B6EBF056
:204723009001B774EFF07F00EF24AEF582E43401F583E0F59BE59A035401700543C1108043
:0B474300F4539AFD0FBF0A0040DE2275
:06007800E478FFF6D8FD5C
:200056007902E94400601B7A019054E878B875A001E493F2A308B8000205A0D9F4DAF27559
:02007600A0FFE9
:1B474E0020F71130F6138883A88220F509F6A8837583002280FEF280F5F0226A
:1D476900E582857CF0A4C582C0F0857DF0A4D0F025F0C583857CF0A42583F58322B6
:20478600E57C457D60467A01E57C25E0F57CE57D334012F57DE582957CE583957D40030A60
:2047A60080E6C3E57D13F57DE57C13F57CC3E582957CF5F0E583957D4005F58385F082C3ED
:0D47C600E57D13F57DE57C13F57CDAE1223D
:20007E007800E84400600A790175A000E4F309D8FC78B7E84401600C7902900001E4F0A3C6
:04009E00D8FCD9FAB7
:2047D3007A10E4FBFCE58225E0F582E58333F583EB33FBEC33FCEB957CF5F0EC957D400612
:0947F300FCABF0438201DADD2287
:0D004900758181124886E582600302004641
:1C47FC0020F71430F6148883A88220F507E6A88375830022E280F7E49322E022CC
:20481800C2D5E58330E70DD2D5E4C39582F582E49583F583E57D30E70BE4C3957CF57CE47C
:16483800957DF57D12478630D50BE4C39582F582E49583F583222C
:20484E00C2D5E58330E70DD2D5E4C39582F582E49583F583E57D30E70DB2D5E4C3957CF51D
:18486E007CE4957DF57D1247D330D50BE4C39582F582E49583F5832247
:044886007582002215
:00000001FF
