:2000A700AF827E00751A0A8E1B8F828E83C007C00612741FAC82D006D007ECC454F0FC75B4
:2000C7001A0A751B008F828E83C0041273E9AE82D004EE4CF58222E582FFC4540F75F00A3E
:2000E700A4FE740F5F2EF582221203C27582D01204017582071204017582101204010203C1
:20010700DDAD82AE83AFF0C007C006C0051203C27582D01204017582041204011203DD12DF
:2001270003C27582D1120401D2001204261200DEAC82D005D006D0078D828E838FF0EC12C9
:20014700731FAD2AAE2BAF2CD200C007C006C0051204261200DEAC82D005D006D0078D826C
:200167008E838FF0EC12731FAD2DAE2EAF2FC200C007C006C0051204261200DEAC82D00581
:20018700D006D0078D828E838FF0EC12731F0203DDAD82AE83AFF0C007C006C0051203C272
:2001A7007582D01204017582001204011203DD1203C27582D1120401AA33AB34AC35D20035
:2001C700C004C003C0021204261200DEA982D002D003D0048A828B838CF0E912731FAA3002
:2001E700AB31AC32D200C004C003C0021204261200DEA982D002D003D0048A828B838CF0BD
:20020700E912731FC2001204261200DEAC82D005D006D0078D828E838FF0EC12731F020378
:20022700DDAF82C0071203C27582D01204017582001204018537821200A7120401853682D4
:200247001200A7120401D0078F821200A71204010203DDAF82C0071203C27582D012040180
:20026700758204120401D0078F821200A71204018538821200A71204018539821200A71293
:0502870004010203DD8B
:20028C0075C70075C50075C60075C38075C40043C11022AE82AF8375C78375C5018EC48F3D
:2002AC00C375C65A75C6A500AFC2C00712028CD0078F8222AE82AF8375C78375C5028EC469
:2002CC008FC38518C275C65A75C6A50002028CAE82AF8375C78375C5038EC48FC375C65AC5
:2002EC0075C6A50002028C43C1107F1FEF60101FEF24BDF582E43400F58374FFF080EDBFEC
:20030C001F005018EF24BDFDE43400FE8F827583F00FE493FC8D828E83F080E390000002E7
:20032C0002DB7F00BF1F00502975C78375C5028FC475C300EF24BDF582E43400F5830FE0B2
:13034C00F5C275C65A75C6A500C00712028CD00780D222C0
:20035F00759850438E40538EFE758BB2758DFFC2ABD28ED2ACD2A022E582FF700122C2994B
:20037F008F9920990543C11080F8C29922AD82AE83AFF0C2998D828E838FF01273CDFC60C8
:20039F00218C9920990543C11080F8C2998D828E838FF01273CDFCBC1A01220DBD00D60EBF
:0303BF0080D322C6
:2003C200D2C043C11043C110D2CD43C11043C110C2C043C11043C110C2CD22C2C043C110A9
:2003E20043C110D2CD43C11043C110D2C02243C11043C110D2CD43C11043C110C2CD22AF1D
:20040200827E00EF23540124FF92C08F05ED2DFFC007C0061203F0D006D0070EBE080040FE
:20042200E20203F07F00D2C07E0043C11043C110D2CD43C11043C1108F05ED2DFDA2C0E474
:1E044200334DFFC2CD0EBE080040DFA200B392C0C0071203F0D007A2C092CD8F82225D
:20046000AE82AF837C007D00C3EC9EED9F500A43C1100CBC00F20D80EF22AE82AF837C00A4
:200480007D00C3EC9EED9F501D9003E8C007C006C005C004120460D004D005D006D0070C30
:2004A000BC00DF0D80DC22AF82E53A4FF58212053075820D020530AF82302D118F821205B7
:2004C00030853B82853C83853DF00205B08F82020591AF82D285EFC4540124FF9283EFA2FB
:2004E000E5E43324FF9282EF2323540124FF9281EF235401FE24FF9280D28400C28400EFE4
:20050000540124FF9283EF03540124FF9282EF03035401FE24FF9281EFA2E3E433FF24FFA5
:200520009280D28400C284900064120460C28522AF82C285EFC4540124FF9283EFA2E5E428
:200540003324FF9282EF2323540124FF9281EF235401FE24FF9280D28400C28400EF5401F7
:2005600024FF9283EF03540124FF9282EF03035401FE24FF9281EFA2E3E433FF24FF928088
:20058000D28400C28490006402046075820C020530E582FF600E8F8212053090745B75F03B
:2005A000800205B0758201120530900640020460AD82AE83AFF07C008D828E838FF01273EA
:2005C000CDFB6055BC10005050BB80005025EB24E050200CEC601C0DBD00010E8B82C00702
:2005E000C006C005C0041204D2D004D005D006D00780C58D828E838FF01273CDFBA3AD826B
:20060000AE838B82C007C006C005C004120530D004D005D006D007809F22C286903A9812EC
:20062000046075801C00C284900FA0120460D28400C2849000A0120460D28400C2849000DC
:20064000A012046075801400C2849003E8120460D28400C2840075801100C2849000281292
:20066000046075801000C2840075801300C28490002812046075801000C2840075801600F9
:20068000C28490002812046075801000C2840075801800C2849003E8020460AF82E54124EC
:2006A000E8500122E543240540030207578F82120530853E82853F838540F01205B074F621
:2006C000254140067D207E00801DAB417C00751A0A8C1B8B828C8312741FAB82AC8374304D
:2006E0002BFBFD3395E0FE8D821204D2AD417E00751A0A8E1B8D828E831273E9AD8274302B
:200700002DF5821204D2E543240350123001067D3A7E0080047D207E008D821204D2AD42AB
:200720007E00751A0A8E1B8D828E83C006C00512741FAB8274302BF5821204D2D005D006A3
:20074000751A0A751B008D828E831273E9AD8274302DF5820204D28F82120530853E828571
:200760003F838540F01205B074F6254140067E207F00801DAC417D00751A0A8D1B8C828D25
:200780008312741FAC82AD8374302CFCFE3395E0FF8E821204D2AE417F00751A0A8F1B8E2B
:2007A000828F831273E9AE8274302EF5821204D23001067E3A7F0080047E207F008E8212A5
:2007C00004D2AE427F00751A0A8F1B8E828F83C007C00612741FAC8274302CF5821204D2E0
:2007E000D006D007751A0A751B008E828F831273E9AE8274302EF5821204D23001067E3A43
:200800007F0080047E207F008E821204D2AE437F00751A0A8F1B8E828F83C007C0061274D8
:200820001FAC8274302CF5821204D2D006D007751A0A751B008E828F831273E9AE82743002
:0C0840002EF5821204D27582200204D230
:11745B00202020202020202020202020202020200020
:0600000002004902104C51
:03000B000213D706
:0100130032BA
:01001B0032B2
:0300230002259023
:03002B0002722539
:01003300329A
:03003B0002109C14
:0300430002721531
:0500A200C23F02004610
:0300460002500164
:20084C00E54675F006A4FFAD457E00751A0A8E1B8D828E83C00712741FAD82D007ED2FF5FE
:20086C00537E017D0190F007E493FCC3ED9C4003020916ED90F00793FC8D030BEB3395E041
:20088C00FAEB2407F582EA34F0F583E493F9C3EC99E433F97C0009B900010CED90F0079325
:2008AC00F8C3E55398E4337F0029F9EF3CFCEB2407F582EA34F0F583E493FFC3E5539FE4BB
:2008CC00337B0029F582EB3CF583751A028B1BC006C0051273E9E5828583F0D005D00645A0
:2008EC00F060218E047F008C828F83A3751A028F1BC0061273E9AC82AF83D006EC4F24FFA4
:20090C0092A180060D8D0602087190F007E493FFEEB50702800122EE90F00793FF90F0081C
:20092C00E493FDC3EF9DE433FF7D000FBF00010DEE90F00793FCC3E5539CE4337B002FFF1E
:20094C00EB3DFD90F008E493FCC3E5539CE4337B002FF582EB3DF583751A028B1BC00612ED
:20096C0073E9E5828583F0D00645F060197F008E828F83A3751A028F1B1273E9AE82AF83DD
:20098C00EE4F24FF92A122787AB60002800E787AB60102804A787AB6024E8029787BE6B5BA
:2009AC004607787CE6B5450122AF46787BA607AE45787CA6068E198F8212728A787D765A34
:2009CC00787A76022230920BD2C2787AA2C2E433F6800C787D8607787DEF14F6EF70092037
:2009EC009206787A7600C2C2222002092036069000F3E06006C213758205229000E1E0FFB2
:200A0C00601C9000E0E0600FEF13924850091FEFFE3395E0FF80047E057F008E822290015E
:200A2C002CE0FFBF03004003020AC39000E7E07003020ABDE54CFFB54507E547B54802805C
:200A4C007085481A751B0090003CC00712733AE5828583F0D00724D0FD740235F0FE7C0015
:200A6C00EF2DFDEC3EFE85471A8C1B90003CC006C00512733AAC82AF83D005D006EDC39C2F
:200A8C00FDEE9FFEAC457F00EDC39CF582EE9FF583751AD0751B021273E9AE82AF83C37492
:200AAC00689E74818FF063F08095F0921375820022C21375820522E55124FE4003020B52AD
:200ACC009000E7E07003020B52E54CFFB54507E547B54802807085481A751B0090003CC092
:200AEC000712733AE5828583F0D00724D0FD740235F0FE7C00EF2DFDEC3EFE85471A8C1B1A
:200B0C0090003CC006C00512733AAC82AF83D005D006EDC39CFDEE9FFEAC457F00EDC39C18
:200B2C00F582EE9FF583751AD0751B021273E9AE82AF83C374689E74818FF063F08095F063
:200B4C009213758200229000E9E07003020BD8E54EFFB54507E547B54A028070854A1A756C
:200B6C001B0090003CC00712733AE5828583F0D00724D0FD740235F0FE7C00EF2DFDEC3E7D
:200B8C00FE85471A8C1B90003CC006C00512733AAC82AF83D005D006EDC39CFDEE9FFEAC1D
:200BAC00457F00EDC39CF582EE9FF583751AD0751B021273E9AE82AF83C374689E74818F1B
:200BCC00F063F08095F092137582022274FE25515003020C679000E7E07003020C67E54CE1
:200BEC00FFB54507E547B54802807085481A751B0090003CC00712733AE5828583F0D007CF
:200C0C0024D0FD740235F0FE7C00EF2DFDEC3EFE85471A8C1B90003CC006C00512733AAC32
:200C2C0082AF83D005D006EDC39CFDEE9FFEAC457F00EDC39CF582EE9FF583751AD0751B4E
:200C4C00021273E9AE82AF83C374689E74818FF063F08095F0921375820022C2137582051E
:200C6C002290012CE0FFBF0102800C2002092036069000F3E06006C214758205229000E1A7
:200C8C00E0FE601C9000E0E0600FEE5401FD70091EEEFD3395E0FE80047D057E008D822212
:200CAC00BF04004003020D409000E8E07003020D3AE54DFFB54507E547B5490280708549A3
:200CCC001A751B0090003CC00712733AE5828583F0D00724D0FD740235F0FE7C00EF2DFDB7
:200CEC00EC3EFE85471A8C1B90003CC006C00512733AAC82AF83D005D006EDC39CFDEE9F3C
:200D0C00FEAC457F00EDC39CF582EE9FF583751AD0751B021273E9AE82AF83C374689E741F
:200D2C00818FF063F08095F0921475820122C21475820522E55224FE4003020DCF9000E8A9
:200D4C00E07003020DCFE54DFFB54507E547B54902807085491A751B0090003CC007127378
:200D6C003AE5828583F0D00724D0FD740235F0FE7C00EF2DFDEC3EFE85471A8C1B90003C57
:200D8C00C006C00512733AAC82AF83D005D006EDC39CFDEE9FFEAC457F00EDC39CF582EEFD
:200DAC009FF583751AD0751B021273E9AE82AF83C374689E74818FF063F08095F09214752B
:200DCC008201229000EAE07003020E55E54FFFB54507E547B54B028070854B1A751B0090D4
:200DEC00003CC00712733AE5828583F0D00724D0FD740235F0FE7C00EF2DFDEC3EFE8547DC
:200E0C001A8C1B90003CC006C00512733AAC82AF83D005D006EDC39CFDEE9FFEAC457F00A0
:200E2C00EDC39CF582EE9FF583751AD0751B021273E9AE82AF83C374689E74818FF063F019
:200E4C008095F092147582032274FE25525003020EE49000E8E07003020EE4E54DFFB545A5
:200E6C0007E547B54902807085491A751B0090003CC00712733AE5828583F0D00724D0FD52
:200E8C00740235F0FE7C00EF2DFDEC3EFE85471A8C1B90003CC006C00512733AAC82AF83ED
:200EAC00D005D006EDC39CFDEE9FFEAC457F00EDC39CF582EE9FF583751AD0751B021273F9
:200ECC00E9AE82AF83C374689E74818FF063F08095F0921475820122C2147582052290026C
:200EEC00001202DB90012CE0FFBF01028043BF0202802CBF03028015BF0448854F18900285
:200F0C00061202C0854B189002071202C0854E189002041202C0854A189002051202C0856A
:200F2C004D189002021202C08549189002031202C0854C189002001202C0854818900201C2
:200F4C000202C02275FA0075EA009000E374A8F07461A3F075DA49D2DE22538E7F75890022
:200F6C009000ECE0FF8F1A751B009007D0C00712733AAD82AE83D007EE3395E0FCFB74307C
:200F8C00C39D74F89EFEE49CE49B8E8CEF75F0D0A4D39430F4F58AC28DD28CD2A92243C1A4
:200FAC0010B220A2209287D21E9000F8E0FFE06006EF149000F8F09000FAE0FFE06006EFB2
:200FCC00149000FAF09000F3E0FFBF020122054490012DE0FF7E001FBFFF011EAC447D0064
:200FEC00C3EF9CEE64808DF063F08095F050507544009000B9E0600E9000BAE014F0E07082
:20100C00059000B9E4F0D21F0545E54524C4502FC2037545000546E54624E85017787B7605
:20102C00187546009000E5E0FFE06006EF149000E5F0C2040547E54724F450037547002248
:20104C00C029C0E0C0F0C082C083C007C006C005C004C003C002C001C000C0D075D008438A
:20106C00C1109000E674FAF0C23875D000120FAA75D008D0D0D000D001D002D003D004D0DE
:20108C0005D006D007D083D082D0F0D0E0D02932C029C0E0C0F0C082C083C007C006C00542
:2010AC00C004C003C002C001C000C0D075D00843C11010D8030213BA9000E3E0FEA3E0FFDC
:2010CC008EEA8FFA9000E374A82EF074613FA3F0A2B6B39215A2B7B3921690012CE0FFBFEE
:2010EC0001273034132015033016047F0080027F01EF24FF921580112015072016047F0003
:20110C0080027F01EF24FF92157405B551030211DE30150D301705D2190211DED21702111F
:20112C00DE201B030211D2E55124E7FEE43400FF9000EBE08E828F83F09000E0E0FFE06050
:20114C0008EF149000E0F0806030122EE551244CF9870F0FA70FEF24C4501FE551244CF8EA
:20116C007600E5512448F9870F0FA70FEF24F45038E5512448F87600802F20122CE55124F1
:20118C004CF9870F1FA70FEF24C3501DE551244CF8763BE5512448F9870F1FA70FEF24F3F5
:2011AC005007E5512448F8760BC219C217C21B75D0001209F575D00885825175D000120EC1
:2011CC00EA75D008800C301904D21B800510170280007405B552030212A720B70D30180569
:2011EC00D21A0212A7D2180212A7201C0302129BE55224E7FEE43400FF9000EBE08E828F58
:20120C0083F09000E0E0FFE06008EF149000E0F0806030122EE552244CF9870F0FA70FEF1B
:20122C0024C4501FE552244CF87600E5522448F9870F0FA70FEF24F45038E5522448F8769F
:20124C0000802F20122CE552244CF9870F1FA70FEF24C3501DE552244CF8763BE552244834
:20126C00F9870F1FA70FEF24F35007E5522448F8760BC21AC218C21C75D000120C6D75D0DC
:20128C000885825275D000120EEA75D008800C301A04D21C8005101802800030210930B50F
:2012AC00069000F07402F030210330B5047F0080027F01EF24FF922420230330B5047F0002
:2012CC0080027F01EF24FF922120220A2024032021047F0080027F01EF24FF9222A2B59233
:2012EC002330250930B3069000F17402F030250330B3047F0080027F01EF24FF92282027BE
:20130C000330B3047F0080027F01EF24FF922520260A2028032025047F0080027F01EF2415
:20132C00FF9226A2B3922730290930B4069000F27402F030290330B4047F0080027F01EFF4
:20134C0024FF922C202B0330B4047F0080027F01EF24FF9229202A0A202C032029047F00AD
:20136C0080027F01EF24FF922AA2B4922B90013DE014F0E0700AD23F90013D7414F0B22D3C
:20138C009000E6E0FFE0600EEF149000E6F090013E7428F0801890013EE014F0E0700F90A0
:2013AC00013E7428F075D000120FAA75D008D0D0D000D001D002D003D004D005D006D007BD
:2013CC00D083D082D0F0D0E0D02932C0E0C082C083C0D075D01043C110303539E551B4011A
:2013EC0000E43324FF92A77401B5520474018001E424FF92A57402B5510474018001E4243C
:20140C00FF92A67403B5520474018001E4FF24FF92A40214ABE551700B90F000E493540711
:20142C00600280047F0080027F01EF24FF92C47401B5520474018001E424FF92C32034109B
:20144C009000E1E0700A2013072014047F0080027F01EF24FF92122034427405B55109747A
:20146C0005B55204E5517034E5A0540FFFE550907482934FF5A03012067E017F0080047E15
:20148C00FF7FFFAF50EE2FF55024F75005755007800D7408B55008755000800353A00FD0F6
:2014AC00D0D083D082D0E032AF829000BBE4F0BFA100500FEF2417F582E43400F5830FE496
:2014CC00F080EC2285825985835A85F05BAC559000F9ECF08554F0ECA4FB9000FA740A2B03
:2014EC00F0C22E855982855A83855BF0C00412038CD00474022559F9E4355AFAAB5B74075A
:20150C002559F55CE4355AF55D855B5E74082559F55FE4355AF560855B61A854302E030237
:20152C0016A09000FAE070030216A03030030216A043C110758280C004C003C002C001C0E4
:20154C00001205308556828557838558F01205B0D000D001D002D003D004301D32753E2874
:20156C00753F78754080854641854542854443A22092017582C0C004C003C002C001C00004
:20158C0012069BD000D001D002D003D004806990F002E4937032753E30753F787540808525
:2015AC004641854542854443A22092017582C0C004C003C002C001C00012069BD000D00156
:2015CC00D002D003D0048030753E38753F78754080854641854542854443A220920175821A
:2015EC00C0C004C003C002C001C00012069BD000D001D002D003D0041032028002C322904D
:20160C0000F8E06006203103021528C231880718EF70030216A09000F8ECF09000F9ECF070
:20162C0089828A838BF01273CDFFBF2B44855C82855D83855EF01273CDFFBF3F0280328569
:20164C005F828560838561F01273CDFFBF3F02802090784075F080C004C003C002C001C077
:20166C000012038CD000D001D002D003D004021528855982855A83855BF0C004C003C00289
:20168C00C001C00012038CD000D001D002D003D0040215287582801205919000FBE4F0A2A3
:2016AC002E22AD82AE83AFF090784475F080C007C006C00512038CD005D006D0078D828E8C
:2016CC00838FF012038C75564B75577875588075540175553C90784875F0800214D0900039
:2016EC0017E0602090001AE0701A75565E75577875588075540375550190785C75F08012A7
:20170C0014D0C32290786F75F08012038C30400B90000175F00012038C800990F01175F066
:20172C008012038C9000FB7408F075567C75577875588075540575553D90787975F0800270
:20174C0014D0900017E4F0C20F9000FB7407F075569E75577875588075540375551E9078A1
:20176C008A75F0801214D09000FBE4F0900017E024FF22C20F9000FB740DF09000F6E0FF9B
:20178C00BF50028025BF66028038BF6E02804BBF74607556AF75577875588075540375557A
:2017AC001E90788A75F0800214D07556AF75577875588075540375551E9078C175F0800233
:2017CC0014D07556AF75577875588075540375551E9078D575F0800214D07556AF755778F4
:2017EC0075588075540375551E90788A75F0800214D0C3229000FB740EF07582001214B4CC
:20180C009000BBE4F07556EF75577875588075540F7555019078E775F0801214D0503390D2
:20182C0000F7E4F07F00EF2417F582E43400F583E0FEBE2C0122EF2417F582E43400F58305
:20184C000FE024D0FE9000F7E0FD75F00AA42EF080D4223035067EF67F7880047EFD7F78C4
:20186C007D808E828F838DF012038C7F003034067D047E7980047D087E797C808D828E83A2
:20188C008CF0C00712038CD0078F0674312EF582C00712037775823D120377D007EF24E7BE
:2018AC00FDE43400FE8D828E83E0700A758245C007120377D007EF2448F987067D00751A3C
:2018CC000A8D1B8E828D83C007C00112741FAD8274302DF582120377D00187067D00751A90
:2018EC000A8D1B8E828D831273E9AD8274302DF58212037775823A120377D007EF244CF9AD
:20190C0087067D00751A0A8D1B8E828D83C007C00112741FAD8274302DF582120377D0014F
:20192C0087067D00751A0A8D1B8E828D831273E9AD8274302DF582120377D0070F90012C1C
:20194C00E0FEEFB50601220218792290790C75F08012038CAE467F00751A0A8F1B8E828F2B
:20196C008312741FAE8274302EF582120377AE467F00751A0A8F1B8E828F831273E9AE82B8
:20198C0074302EF58212037775823A120377AE457F00751A0A8F1B8E828F8312741FAE82FD
:2019AC0074302EF582120377AE457F00751A0A8F1B8E828F831273E9AE8274302EF5821276
:2019CC00037730412190791075F08012038C301D067E317F0080047E307F0090F002E49325
:2019EC002EF582020377227879861A751B0090001C12733A751A00751B0112741FAE82AF68
:201A0C0083204203021AE190791675F080C00612038CD0063036067D307F0080047D317F4B
:201A2C00008D82C00612037790791B75F08012038C90F001E4932430F58212037790792017
:201A4C0075F08012038CD0069000E6E060067D317F0080047D307F008D82C0061203779094
:201A6C00792575F08012038C9000E5E02430F58212037775822F12037790F003E49324308A
:201A8C00F58212037790792A75F08012038C90F004E493FF7D00751A0A8D1B8F828D831293
:201AAC00741FAD8274302DF58212037790F004E493FF7D00751A0A8D1B8F828D831273E93D
:201ACC00AD8274302DF58212037790792F75F08012038CD00690793375F080C00612038CDB
:201AEC00D00630A1067D317F0080047D307F008D82C00612037790793975F08012038CD057
:201B0C00067F00751A0A8F1B8E828F83C007C00612741FAC8274302CF582120377D006D0F6
:201B2C0007751A0A751B008E828F831273E9AE8274302EF58212037790F010E4937003302A
:201B4C00422190793F75F08012038C3092067E307F0080047E2F7F0090F010E4932EF582F7
:201B6C001203772042012290794575F08012038C9000F7E0FF7E00751A0A8E1B8F828E832C
:201B8C0012741FAE8274302EF5821203779000F7E0FF7E00751A0A8E1B8F828E831273E9D9
:201BAC00AE8274302EF58212037790794B75F08012038C90F01CE4932430F5821203779040
:201BCC00F01CE493FFBF02012275822C12037790F01175F08002038CAD82AE83AFF090014D
:201BEC002FE070012275560175577575588075540F75550190795075F080C007C006C005AA
:201C0C001214D0121800D005D006D00774012DFAE43EFB8F048A828B838CF01273CDF9B930
:201C2C002A02801DC007C006C005C004C003C00212174ED002D003D004D005D006D0078042
:201C4C0005900017E4F0A2439240C007C006C005C004C003C0021216EAD002D003D004D04B
:201C6C0005D006D00740012290750175F080C007C006C005C004C003C00212038C12185F93
:201C8C00A2439241121957A24392421219F3D002D003D004D005D006D0078A828B838CF096
:201CAC001273CDFABA2A028053900017E0604D90795475F080C007C006C00512038C90001A
:201CCC001775F00012038CD005D006D00730431B90001BE0701590795F75F080C007C006E1
:201CEC00C00512038CD005D006D00790001BE4F090001AF0900019F0900018F08D828E8386
:201D0C008FF0C007C006C00512038CD005D006D0070DBD00010E8D828E838FF01273CDFDFC
:201D2C00BD2A0990785C75F08002038C75567975577975588075543275550190785C75F068
:201D4C00800214D090793375F08012038C30A1067E317F0080047E307F008E82120377906D
:201D6C00798A75F08012038C90F007E4932430F58212037790F007E493700990799275F002
:201D8C008002038C9079A775F08012038C90F007E493FF75820DC007120377D007EF90F056
:201DAC000793FE7D00751A3C8D1B8E828D83C00712741FAD8274302DF582120377D007EF3A
:201DCC0090F00793FE7D00751A068D1B8E828D83C00712741F751A0A751B001273E9AD82D3
:201DEC0074302DF58212037775823A120377D007EF90F00793FF7E00751A068E1B8F828E0C
:201E0C00831273E9AE8274302EF5821203779079B475F08012038C90F008E493FF7E00758C
:201E2C001A3C8E1B8F828E8312741FAE8274302EF58212037790F008E493FF7E00751A06BA
:201E4C008E1B8F828E8312741F751A0A751B001273E9AE8274302EF58212037775823A1227
:201E6C00037790F008E493FF7E00751A068E1B8F828E831273E9AE8274302EF5821203778D
:201E8C007582301203777F0290F007E493FEC3EF9E40012275820DC007120377D007EF90A6
:201EAC00F00793FE7D00751A3C8D1B8E828D83C00712741FAD8274302DF582120377D00738
:201ECC00EF90F00793FE7D00751A068D1B8E828D83C00712741F751A0A751B001273E9AD65
:201EEC008274302DF58212037775823A120377D007EF90F00793FE7D00751A068D1B8E821B
:201F0C008D83C0071273E9AD8274302DF5821203779079B475F08012038CD0078F06EE04CC
:201F2C00FD3395E0FCED2407F582EC34F0F583E493FB7A00751A3C8A1B8B828A83C006C0E1
:201F4C0005C00412741FAA8274302AF582120377D004D005ED2407F582EC34F0F583E493D3
:201F6C00FB7A00751A068A1B8B828A83C005C00412741F751A0A751B001273E9AA827430F7
:201F8C002AF58212037775823A120377D004D005ED2407F582EC34F0F583E493FD7C007526
:201FAC001A068C1B8D828C831273E9AC8274302CF582120377758230120377D00674022E94
:201FCC00FF021E94AD82AE83AFF090012FE070012275560175577575588075540F75550113
:201FEC0090795075F080C007C006C0051214D0A24492401216EAD005D006D007400122A2FE
:20200C00449241C007C006C005121957A24492421219F3121D50D005D006D0078D828E83D0
:20202C008FF012038C7556B975577975588075543275550190785C75F0800214D0900017C2
:20204C00E4F0D2401216EA40012290751275F08012038C7556CA75577975588075543275E5
:20206C00550190785C75F0800214D075560175577575588075540F75550190795075F08094
:20208C001214D050367582001214B49000BBE4F09000FB740AF07556E57557797558807518
:2020AC00540F7555019079DB75F0801214D0500990001BE0FF9000F6F0D322C3227F0090E5
:2020CC00012EE0FEBE3D01227556FB75577975588075540F7555019079F075F080C0071217
:2020EC0014D0D007400302221175561475577A75588075540F755501907A0975F080C007CD
:20210C001214D0D00740030222119000FB740CF075563075577A75588075540A75553C907C
:20212C007A2575F080C0071214D0D0074003022211758200C0071214B49000BBE4F09000BC
:20214C00FB7402F075564B75577A75588075540F755501907A4175F0801214D0D007400386
:20216C0002221190001AE024D075F00AA4FE90001BE02E24D09000DFF090001DE024D0758D
:20218C00F00AA4FE90001EE02E24D09000DEF0900020E024D075F00AA4FE900021E02E2411
:2021AC00D09000DDF0900023E024D075F00AA4FE900024E02E24D0F546900026E024D0755E
:2021CC00F00AA4FE900027E02E24D0F545900029E024D075F00AA4FE90002AE02E24D0F515
:2021EC00448545368544378546821202289000DDE0FE9000DEE0F5389000DFE0F5398E82B3
:20220C0012025A7F01EF24FF921D9000FBE4F02275566475577A75588075540F755501908D
:20222C007A5975F0801214D0502D7582001214B49000BBE4F09000FB740BF0755680755766
:20224C007A75588075540F755501907A7575F0801214D05002D322C32230A00690012FE00C
:20226C007002C32275569B75577A75588075540F755501907A9075F0801214D05039755696
:20228C00BF75577A75588075540F755501907AAC75F0801214D0501F7556E475577A75587B
:2022AC008075540F755501907AD075F0801214D05005121800D322C32230A00690012FE06B
:2022CC007002C32275560175577575588075540F75550190795075F0801214D04001227592
:2022EC00569B75577A75588075540F755502907A9075F0801214D050367556BF75577A756A
:20230C00588075540F755501907AAC75F0801214D0501C7556F575577A7558807554147594
:20232C005503907AD075F0801214D05002D322C3227F0090012EE0FEBE3D012275560175DD
:20234C00577575588075540F75550190795075F080C0071214D0D007400302258575561118
:20236C0075577B75588075540F755501907B0775F080C0071214D0D00740030225857556D5
:20238C006475577A75588075540F755501907A5975F080C0071214D0D00790F002E4937052
:2023AC000302258575562275577B75588075540F7555019079F075F080C0071214D0D007CC
:2023CC00400302258575563E75577B75588075540F755501907B3375F080C0071214D0D012
:2023EC000740030225859000FB7406F075565B75577B75588075540F755502907B5075F0C8
:20240C0080C0071214D0D00740030225859000FCE0FEBE010280030225857E007D00ED2447
:20242C000EF582E43401F5830DE0FCBC2C060EBE0300500ABD0B00500543C11080E0EE24D7
:20244C00FD40030225858D060EEE3395E0FCEE240EF582EC3401F583E0FEBE2C15ED04FE55
:20246C00ED240EF582E43401F583E0FC24D0F5468029ED04FCED240EF582E43401F583E081
:20248C0024D075F00AA4FDEC04FEEC240EF582E43401F583E0FC24D02DF5460E8E050DED45
:2024AC003395E0FCED240EF582EC3401F583E0FDBD2C15EE04FDEE240EF582E43401F5834B
:2024CC00E0FC24D0F5458029EE04FCEE240EF582E43401F583E024D075F00AA4FEEC04FD55
:2024EC00EC240EF582E43401F583E0FC24D02EF545ED04FEFD0DED3395E0FCED240EF58252
:20250C00EC3401F583E0FDBD2C12EE240EF582E43401F583E0FD24D0F5448026EE04FDEE89
:20252C00240EF582E43401F583E024D075F00AA4FEED240EF582E43401F583E0FD24D02E4A
:20254C00F544AD467E0074072DFDE43EFEC374179D74808EF063F08095F05007E54624EFB6
:20256C00FE8006AD4674072DFE8E468545368544378546821202287F01EF24FF921D900004
:20258C00FBE4F022C029C0E0C0F0C082C083C007C006C005C004C003C002C001C000C0D0D4
:2025AC0075D010209803023E4D43C1109000F9E09000F8F09000FDE024FFF582E43400F569
:2025CC0083E599F09000FDE0FF24FFF582E43400F583E0FEBE4E0280030227168F147D009A
:2025EC00740C2CF582E43DF583751A0D8D1BC017C016C015C01475D0001273E975D010AAC7
:20260C0082AB83D014D015D016D017EA24FFF582EB3400F583E0FBBB490280030227167436
:20262C000B2CF582E43DF583751A0D751B00C017C016C015C01475D0001273E975D010AA13
:20264C0082AB83D014D015D016D017EA24FFF582EB3400F583E0FBBB20028003022716741F
:20266C000A2CF582E43DF583751A0D751B00C017C016C015C01475D0001273E975D010AAD4
:20268C0082AB83D014D015D016D017EA24FFF582EB3400F583E0FBBB547074092CF582E46F
:2026AC003DF583751A0D751B00C017C016C015C01475D0001273E975D010AA82AB83D01491
:2026CC00D015D016D017EA24FFF582EB3400F583E0FBBB4F3574082CF582E43DF583751AC0
:2026EC000D751B00C017C01675D0001273E975D010AC82AD83D016D017EC24FFF582ED34AA
:20270C0000F583E0FDBD4E02D2309000FBE0FD24F15003023E39ED240A83F582ED24138344
:20272C00F583E4731B9D4DED3965CD62D839A33EB3C84E2A3229323E343036353E282927CA
:20274C003B279000BBE0FC04F0EC2417F582E43400F583E599F07420B599369000FDE0FCD3
:20276C007B00740C2CF582E43BF583751A0D8B1B75D0001273E975D010AB82AC83EB24FF64
:20278C00F582EC3400F583E0FCBC3A059000BBE4F0742CB599028003023E399000FBE4F0DD
:2027AC009000BBF0023E397454B5996E8F137C00740C2BF582E43CF583751A0D8C1BC017E3
:2027CC00C014C01375D0001273E975D010A982AA83D013D014D017E924FFF582EA3400F5A2
:2027EC0083E0FABA5334740B2BF582E43CF583751A0D751B00C01775D0001273E975D0106B
:20280C00AB82AC83D017EB24FFF582EC3400F583E0FCBC4405D22E023E397452B59902805C
:20282C0003023E398F137C00740C2BF582E43CF583751A0D8C1BC014C01375D0001273E99B
:20284C0075D010A982AA83D013D014E924FFF582EA3400F583E0FABA4F028003023E39748A
:20286C000B2BF582E43CF583751A0D751B0075D0001273E975D010AB82AC83EB24FFF582F2
:20288C00EC3400F583E0FCBC52028003023E399000F8E4F0023E399000BBE0FC04F0EC24AC
:2028AC0017F582E43400F583E599F07422B599369000FDE0FC7B00740C2CF582E43BF583C8
:2028CC00751A0D8B1B75D0001273E975D010AB82AC83EB24FFF582EC3400F583E0FCBC2071
:2028EC00059000BBE4F0742CB599028003023E399000FDE0FC7B00740C2CF582E43BF5831E
:20290C00751A0D8B1B75D0001273E975D010AB82AC83EB24FFF582EC3400F583E0FCBC222E
:20292C00028003023E399000FBE4F09000BBF0023E397431B599028003023E39D22E023E49
:20294C00399000BBE0FC04F0EC2417F582E43400F583E599F0744BB599699000FDE0FB7C21
:20296C0000740C2BF582E43CF583751A0D8C1BC014C01375D0001273E975D010A982AA8347
:20298C00D013D014E924FFF582EA3400F583E0FABA4C30740B2BF582E43CF583751A0D7571
:2029AC001B0075D0001273E975D010AB82AC83EB24FFF582EC3400F583E0FCBC43059000FF
:2029CC00BBE4F0740DB599028003023E399000FDE0FC7B00740C2CF582E43BF583751A0D55
:2029EC008B1B75D0001273E975D010AB82AC83EB24FFF582EC3400F583E0FCBC2202800365
:202A0C00023E399000FBE4F09000BBF0023E39743EB5991290785C75F08075D00012038CDD
:202A2C0075D010023E39BE47028003022B098F137C00740C2BF582E43CF583751A0D8C1BE1
:202A4C00C017C016C015C014C01375D0001273E975D010A982AA83D013D014D015D016D07F
:202A6C0017E924FFF582EA3400F583E0FABA4E028003022B09740B2BF582E43CF583751A35
:202A8C000D751B00C017C016C015C014C01375D0001273E975D010A982AA83D013D014D06D
:202AAC0015D016D017E924FFF582EA3400F583E0FABA4949740A2BF582E43CF583751A0D95
:202ACC00751B00C017C016C01575D0001273E975D010AB82AC83D015D016D017EB24FFF5BF
:202AEC0082EC3400F583E0FCBC5212907B6D75F08075D00012038C75D010023E39BE3A02A9
:202B0C008003022C5B8F137C00740C2BF582E43CF583751A0D8C1BC017C016C015C014C06C
:202B2C001375D0001273E975D010A982AA83D013D014D015D016D017E924FFF582EA3400FC
:202B4C00F583E0FABA49028003022C5B740B2BF582E43CF583751A0D751B00C017C016C0B4
:202B6C0015C014C01375D0001273E975D010A982AA83D013D014D015D016D017E924FFF5B3
:202B8C0082EA3400F583E0FABA54028003022C5B740A2BF582E43CF583751A0D751B00C077
:202BAC0017C016C015C014C01375D0001273E975D010A982AA83D013D014D015D016D017C7
:202BCC00E924FFF582EA3400F583E0FABA4D028003022C5B74092BF582E43CF583751A0D8E
:202BEC00751B00C017C016C015C014C01375D0001273E975D010A982AA83D013D014D01504
:202C0C00D016D017E924FFF582EA3400F583E0FABA433C74082BF582E43CF583751A0D75E8
:202C2C001B00C017C016C01575D0001273E975D010AB82AC83D015D016D017EB24FFF58250
:202C4C00EC3400F583E0FCBC2B05D20C023E39E4BE200104FC7003022E0A8F127B00740CA5
:202C6C002AF582E43BF583751A0D8B1BC017C016C015C014C013C01275D0001273E975D0DB
:202C8C0010A882A983D012D013D014D015D016D017E824FFF582E93400F583E0F9B93A0282
:202CAC008003022E0A740B2AF582E43BF583751A0D751B00C017C016C015C014C013C0126D
:202CCC0075D0001273E975D010A882A983D012D013D014D015D016D017E824FFF582E93490
:202CEC0000F583E0F9B94C028003022E0A740A2AF582E43BF583751A0D751B00C017C01624
:202D0C00C015C014C013C01275D0001273E975D010A882A983D012D013D014D015D016D0B7
:202D2C0017E824FFF582E93400F583E0F9B947028003022E0A74092AF582E43BF583751A7D
:202D4C000D751B00C017C016C015C014C013C01275D0001273E975D010A882A983D012D0BF
:202D6C0013D014D015D016D017E824FFF582E93400F583E0F9B94D028003022E0A74082A43
:202D8C00F582E43BF583751A0D751B00C017C016C015C014C013C01275D0001273E975D0FA
:202DAC0010A882A983D012D013D014D015D016D017E824FFF582E93400F583E0F9B9433E1C
:202DCC0074072AF582E43BF583751A0D751B00C017C016C015C01475D0001273E975D010AA
:202DEC00AA82AB83D014D015D016D017EA24FFF582EB3400F583E0FBBB2B03022F9EEC70CD
:202E0C0003022FE98F137C00740C2BF582E43CF583751A0D8C1BC017C016C015C014C01345
:202E2C0075D0001273E975D010A982AA83D013D014D015D016D017E924FFF582EA3400F517
:202E4C0083E0FABA3A028003022FE9740B2BF582E43CF583751A0D751B00C017C016C0150F
:202E6C00C014C01375D0001273E975D010A982AA83D013D014D015D016D017E924FFF58243
:202E8C00EA3400F583E0FABA50028003022FE9740A2BF582E43CF583751A0D751B00C01752
:202EAC00C016C015C014C01375D0001273E975D010A982AA83D013D014D015D016D017E9F2
:202ECC0024FFF582EA3400F583E0FABA49028003022FE974092BF582E43CF583751A0D7572
:202EEC001B00C017C016C015C014C01375D0001273E975D010A982AA83D013D014D015D0A6
:202F0C0016D017E924FFF582EA3400F583E0FABA4C028003022FE974082BF582E43CF5835A
:202F2C00751A0D751B00C017C016C015C014C01375D0001273E975D010A982AA83D013D01D
:202F4C0014D015D016D017E924FFF582EA3400F583E0FABA43028003022FE974072BF582F3
:202F6C00E43CF583751A0D751B00C017C016C01575D0001273E975D010AB82AC83D015D0E6
:202F8C0016D017EB24FFF582EC3400F583E0FCBC2B4B8F137C0074092BF582E43CF58375B3
:202FAC001A0D8C1B75D0001273E975D010AB82AC83EB24FFF582EC3400F583E0FCBC4C03CF
:202FCC00D38001C392064006300E03023E39C20BC209C2089000FB7403F0023E39BE4B69F7
:202FEC008F137C00740C2BF582E43CF583751A0D8C1BC017C016C01575D0001273E975D030
:20300C0010AB82AC83D015D016D017EB24FFF582EC3400F583E0FCBC4F2FBD02059000BB44
:20302C00E4F0A22FB3922EC22F9000BBE07003023E399000BBE4F0907AD075F08075D00041
:20304C0012038C75D010023E39BE54028003023E398F147D00740C2CF582E43DF583751A7A
:20306C000D8D1BC015C01475D0001273E975D010AA82AB83D014D015EA24FFF582EB340018
:20308C00F583E0FBBB4F028003023E39740B2CF582E43DF583751A0D751B0075D000127318
:2030AC00E975D010AC82AD83EC24FFF582ED3400F583E0FDBD4E028003023E39D22F023E22
:2030CC0039BE20028003023E398F147D00740C2CF582E43DF583751A0D8D1BC015C0147591
:2030EC00D0001273E975D010AA82AB83D014D015EA24FFF582EB3400F583E0FBBB3A0280A1
:20310C0003023E39740B2CF582E43DF583751A0D751B00C015C01475D0001273E975D0108F
:20312C00AA82AB83D014D015EA24FFF582EB3400F583E0FBBB5A028003023E39740A2CF5B8
:20314C0082E43DF583751A0D751B00C015C01475D0001273E975D010AA82AB83D014D01548
:20316C00EA24FFF582EB3400F583E0FBBB54028003023E3974092CF582E43DF583751A0DEB
:20318C00751B00C015C01475D0001273E975D010AA82AB83D014D015EA24FFF582EB34001C
:2031AC00F583E0FBBB54028003023E3974082CF582E43DF583751A0D751B00C015C01475A1
:2031CC00D0001273E975D010AA82AB83D014D015EA24FFF582EB3400F583E0FBBB550280A5
:2031EC0003023E3974072CF582E43DF583751A0D751B00C015C01475D0001273E975D010B3
:20320C00AA82AB83D014D015EA24FFF582EB3400F583E0FBBB53028003023E3974062CF5E2
:20322C0082E43DF583751A0D751B00C015C01475D0001273E975D010AA82AB83D014D01567
:20324C00EA24FFF582EB3400F583E0FBBB50028003023E398C828D83A3A3A3A3A3751A0D7A
:20326C00751B0075D0001273E975D010AC82AD83EC24FFF582ED3400F583E0FDBD2A0280E7
:20328C0003023E399000FEE4F09000FB04F0023E39740DB5990280209000FEE0FDBD1E0095
:2032AC0050169000FEED04F0ED240EF582E43401F583E599F0023E399000FEE0FD1DED3377
:2032CC0095E0FCED240EF582EC3401F583E4F09000FBE09000FCF09000FBE4F0D22E023EE8
:2032EC0039200B030233709000BBE0FD7023740DB599028003023E3930060D9000BA74022B
:20330C00F09000B9E02401F09000FB7405F0023E39BD0A0D7422B599089000BBE4F0023EE7
:20332C0039200813ED2401F582E43400F583E0FCB599028002D208300A0E20090DED90F081
:20334C001193FCB599028002D2099000BBED04F0200803023E39200903023E399000FBE430
:20336C00F0023E3930063CBE30398F147D00740C2CF582E43DF583751A0D8D1BC017C01672
:20338C0075D0001273E975D010AC82AD83D016D017EC24FFF582ED3400F583E0FDBD220310
:2033AC0002344BBE340280030234538F147D00740C2CF582E43DF583751A0D8D1BC015C0CB
:2033CC001475D0001273E975D010AA82AB83D014D015EA24FFF582EB3400F583E0FBBB38B9
:2033EC0066740B2CF582E43DF583751A0D751B00C015C01475D0001273E975D010AA82ABEC
:20340C0083D014D015EA24FFF582EB3400F583E0FBBB2B33740A2CF582E43DF583751A0DEF
:20342C00751B0075D0001273E975D010AC82AD83EC24FFF582ED3400F583E0FDBD2208D2D5
:20344C000B9000BB7401F0740DB599028003023E399000FBE4F0023E39300D3F743BB59987
:20346C00028027740DB5990280209000BBE0FDBDA00050169000BBED04F0ED2417F582E48C
:20348C003400F583E599F0023E399000BBE4F0C20D9000FBE4F0D20E023E39BE2C02800378
:2034AC000235B58F147D00740C2CF582E43DF583751A0D8D1BC015C01475D0001273E97523
:2034CC00D010AA82AB83D014D015EA24FFF582EB3400F583E0FBBB430280030235B5740BF9
:2034EC002CF582E43DF583751A0D751B00C015C01475D0001273E975D010AA82AB83D01469
:20350C00D015EA24FFF582EB3400F583E0FBBB550280030235B5740A2CF582E43DF5837514
:20352C001A0D751B00C015C01475D0001273E975D010AA82AB83D014D015EA24FFF582EB85
:20354C003400F583E0FBBB446074092CF582E43DF583751A0D751B00C015C01475D0001294
:20356C0073E975D010AA82AB83D014D015EA24FFF582EB3400F583E0FBBB502D74082CF5A0
:20358C0082E43DF583751A0D751B0075D0001273E975D010AC82AD83EC24FFF582ED3400CB
:2035AC00F583E0FDBD2A0280047D0080027D01ED24FF920D740DB599028003023E399000B4
:2035CC00BB7401F09000FBE4F0023E39743EB5990A9000FBE4F0D22E023E39BE5202800370
:2035EC00023E398F147D00740C2CF582E43DF583751A0D8D1BC015C01475D0001273E97555
:20360C00D010AA82AB83D014D015EA24FFF582EB3400F583E0FBBB52028003023E39740B1B
:20362C002CF582E43DF583751A0D751B0075D0001273E975D010AC82AD83EC24FFF582ED3D
:20364C003400F583E0FDBD45028003023E399000F8E4F0023E39300F669000F6E0FDBD50EB
:20366C00028003BD66057420B5990FBD74028003BD6E2F7464B5990280289000BBE0FDBDDB
:20368C00A000501E742EB59903023E399000BBED04F0ED2417F582E43400F583E599F002D9
:2036AC003E39C20FC2119000BBE0FD2417F582E43400F583E4F09000BBF0D22E023E399061
:2036CC0000F6E0FDBD50028003023828BE3D0280030238288F137C00740C2BF582E43CF5E0
:2036EC0083751A0D8C1BC017C016C015C014C01375D0001273E975D010A982AA83D013D0BC
:20370C0014D015D016D017E924FFF582EA3400F583E0FABA68028003023828740B2BF582BA
:20372C00E43CF583751A0D751B00C017C016C015C014C01375D0001273E975D010A982AAB3
:20374C0083D013D014D015D016D017E924FFF582EA3400F583E0FABA6E02800302382874EB
:20376C000A2BF582E43CF583751A0D751B00C017C016C015C014C01375D0001273E975D0AC
:20378C0010A982AA83D013D014D015D016D017E924FFF582EA3400F583E0FABA69028003A1
:2037AC0002382874092BF582E43CF583751A0D751B00C017C016C015C014C01375D0001238
:2037CC0073E975D010A982AA83D013D014D015D016D017E924FFF582EA3400F583E0FABAAE
:2037EC00683A74082BF582E43CF583751A0D751B00C017C016C01575D0001273E975D010AF
:20380C00AB82AC83D015D016D017EB24FFF582EC3400F583E0FCBC6303023BC3BD740280C0
:20382C0003023980BE200280030239808F137C00740C2BF582E43CF583751A0D8C1BC017AE
:20384C00C016C015C014C01375D0001273E975D010A982AA83D013D014D015D016D017E948
:20386C0024FFF582EA3400F583E0FABA3A028003023980740B2BF582E43CF583751A0D7534
:20388C001B00C017C016C015C014C01375D0001273E975D010A982AA83D013D014D015D0FC
:2038AC0016D017E924FFF582EA3400F583E0FABA47028003023980740A2BF582E43CF58313
:2038CC00751A0D751B00C017C016C015C014C01375D0001273E975D010A982AA83D013D074
:2038EC0014D015D016D017E924FFF582EA3400F583E0FABA4B02800302398074092BF5829F
:20390C00E43CF583751A0D751B00C017C016C015C014C01375D0001273E975D010A982AAD1
:20392C0083D013D014D015D016D017E924FFF582EA3400F583E0FABA543A74082BF582E442
:20394C003CF583751A0D751B00C017C016C01575D0001273E975D010AB82AC83D015D016CA
:20396C00D017EB24FFF582EC3400F583E0FCBC2003023BC3BD66028003023AD8BE3A028046
:20398C0003023AD88F137C00740C2BF582E43CF583751A0D8C1BC017C016C015C014C013C0
:2039AC0075D0001273E975D010A982AA83D013D014D015D016D017E924FFF582EA3400F58C
:2039CC0083E0FABA43028003023AD8740B2BF582E43CF583751A0D751B00C017C016C01581
:2039EC00C014C01375D0001273E975D010A982AA83D013D014D015D016D017E924FFF582B8
:203A0C00EA3400F583E0FABA4B028003023AD8740A2BF582E43CF583751A0D751B00C017D1
:203A2C00C016C015C014C01375D0001273E975D010A982AA83D013D014D015D016D017E966
:203A4C0024FFF582EA3400F583E0FABA54028003023AD874092BF582E43CF583751A0D75E1
:203A6C001B00C017C016C015C014C01375D0001273E975D010A982AA83D013D014D015D01A
:203A8C0016D017E924FFF582EA3400F583E0FABA203A74082BF582E43CF583751A0D751B34
:203AAC0000C017C016C01575D0001273E975D010AB82AC83D015D016D017EB24FFF582ECF1
:203ACC003400F583E0FCBC2E03023BC3BD6E028003023E39BE20028003023E398F147D0040
:203AEC00740C2CF582E43DF583751A0D8D1BC015C01475D0001273E975D010AA82AB83D0DF
:203B0C0014D015EA24FFF582EB3400F583E0FBBB3A028003023E39740B2CF582E43DF583FC
:203B2C00751A0D751B00C015C01475D0001273E975D010AA82AB83D014D015EA24FFF582F5
:203B4C00EB3400F583E0FBBB43028003023E39740A2CF582E43DF583751A0D751B00C01530
:203B6C00C01475D0001273E975D010AA82AB83D014D015EA24FFF582EB3400F583E0FBBB89
:203B8C004B028003023E3974092CF582E43DF583751A0D751B0075D0001273E975D010AC37
:203BAC0082AD83EC24FFF582ED3400F583E0FDBD54028003023E39D20F023E39200F0302AE
:203BCC003C599000F6E0FDBD50028003BD6E05740AB59912BD66057422B5990ABD743D7449
:203BEC002EB5990280369000BBE0FDBD0A00502CBD0900501E8D149000BBED04F00CEC33EE
:203C0C0095E0FBEC240CF582EB3400F583E599F0023E399000BBED04F0023E39C20FC211CE
:203C2C009000BBE0FDBD0A005016D22E0DED3395E0FCED240CF582EC3400F583E4F0800500
:203C4C009000F8E4F09000BBE4F0023E399000F6E0FDBD5040BE3A3D8F137C00740C2BF5C1
:203C6C0082E43CF583751A0D8C1BC017C016C01575D0001273E975D010AB82AC83D015D040
:203C8C0016D017EB24FFF582EC3400F583E0FCBC2903023D20BD6E3FBE303C8F137C0074B5
:203CAC000C2BF582E43CF583751A0D8C1BC017C016C01575D0001273E975D010AB82AC8389
:203CCC00D015D016D017EB24FFF582EC3400F583E0FCBC2002803DBD66028003BD743ABEC1
:203CEC0034378F157E00740C2DF582E43EF583751A0D8E1BC01775D0001273E975D010AD9C
:203D0C0082AE83D017ED24FFF582EE3400F583E0FEBE3805D20F023E397435B5990280032D
:203D2C00023DD18F157E00740C2DF582E43EF583751A0D8E1BC017C016C01575D0001273F6
:203D4C00E975D010AB82AC83D015D016D017EB24FFF582EC3400F583E0FCBC3168740B2D11
:203D6C00F582E43EF583751A0D751B00C017C016C01575D0001273E975D010AB82AC83D044
:203D8C0015D016D017EB24FFF582EC3400F583E0FCBC2031740A2DF582E43EF583751A0DD7
:203DAC00751B00C01775D0001273E975D010AD82AE83D017ED24FFF582EE3400F583E0FE42
:203DCC00BE2C0280667452B599638F167F00740C2EF582E43FF583751A0D8F1BC017C016B7
:203DEC0075D0001273E975D010AC82AD83D016D017EC24FFF582ED3400F583E0FDBD522D4C
:203E0C00740B2EF582E43FF583751A0D751B0075D0001273E975D010AE82AF83EE24FFF53B
:203E2C0082EF3400F583E0FFBF4502D2319000FDE02401F0E0FF24F350059000FDE4F0C281
:203E4C0098D0D0D000D001D002D003D004D005D006D007D083D082D0F0D0E0D02932C21070
:203E6C007F00EF2417FDE43400FE0F8D828E83E0600543C11080EBBFA000500FEF2417F5AA
:203E8C0082E43400F5830FE4F080EC900017E0FFBF3F028008900018E0FFBF3F06200803F1
:203EAC00022049900018E0FFBF43030245B4BF450302474EBF48028044BF4903024C16BF6B
:203ECC005003024AE2BF530302466CBF5403024C87BF63030245B4BF650302474EBF68029A
:203EEC00801BBF6903024C16BF7003024AE2BF730302466CBF7403024C87024FB790001A86
:203F0C00E0FF24CF4003023FBBBF35004003023FBB90001DE06003023FBB90001BE0FEBE1E
:203F2C0044028003BE64047D04800CBE53028007BE73028002D21020101C90001CE0FEBEB4
:203F4C004102800ABE61028005EF24CD50088D0674082EFD801720100890001CE0FEBE5306
:203F6C000A90001CE0FEBE73028002D2108F06EE24D02DFEC0061202F3D0069000BDEEF09A
:203F8C0012032ED243907B7275F080121BE4C2AF9002001202DBC2A07518009000051202C0
:203FAC00C0D2A3900FA012047A75C760024551BF2B02800302417890001BE0FEC3742F9E06
:203FCC00E433FD7003024103BE3300400302410390001CE0FC24D04003024103BC3A004053
:203FEC000302410390001DE0FB24D04003024103BB3600400302410390001EE0F56824D00E
:20400C00400302410374C625685003024103900020E0F56424D0400302410374CD2564502B
:20402C0003024103900021E0F56524D0400302410374C625655003024103900022E0F56679
:20404C0024D0400302410374CA25665003024103900023E0F56724D0400302410374C625AA
:20406C006750030241038E0274022AF569AA64C39A75F00AA42404F56925462CAC65C39C9B
:20408C00FAAC6674062CC39B75F00AA42567AB68C39BF5628A6A756B00AB457C00743C2B82
:2040AC00F56CE43CF56DAA627C00C3E56C9AE56D64808CF063F08095F0E433FA7C00E56AF5
:2040CC00C39AF582E56B9CF583751A0C8C1B1273E9AB828B48AC4574782CAB62C39BFC7B01
:2040EC0000751A3C8B1B8C828B831273E9AB828B4C120EEA024551ED606DBE36005068901D
:20410C00001CE0FD24D0505FBD3A00505AEE24D075F00AA42D24D0FEAD48740C2DFDC3E5FB
:20412C004C9EE433FCEDC39CFD7C00751A0C8C1B8D828C83C0061273E9AC82D0068C48AC99
:20414C004C7D00743C2CFCE43DFD7B00ECC39EF582ED9BF583751A3C8B1B1273E9AD828DBA
:20416C004C120EEA024551D210024551BF2D4690001BE0FF24D05038BF3600503390001C6F
:20418C00E0FE24D0502ABE3A005025EF24D075F00AA4AD4C2D2E24D0F54C24C4500CE5486A
:2041AC0004F548E54CFF24C4F54C120EEA024551D21002455190001BE0FFBF4E028003BF62
:2041CC006E24300803024FDD1202F39000BDE054EFF012032EC236787A7600787B761878D5
:2041EC007C763C024551BF46028003BF661A300803024FDD1202F39000BDE04410F012032E
:20420C002ED236C2C20245519001317403F0756301900131E0FE2417F582E43400F583E07C
:20422C00FDBD2C46E56370099001317465F002453BAB637C0074012BF56CE43CF56D9001DA
:20424C002CE0FA7C0074012AF51AE43CF51B856C82856D83C0061273E9AB82AC83D0068B19
:20426C0063900131EE04F002453BBD30005015E56370057C65FE80047CCA7E00900131ECC5
:20428C00F002453BE5637042BD6702800DBD47028008BD61028003BD4130C2C2787A7600A8
:2042AC001220C9AD467E00751A0C8E1B8D828E831273E9AD82AE838D47787B7618787C7695
:2042CC003C9001317465F002453B900131E0FE2417F582E43400F583E0FD24D0400302454C
:2042EC0035BD330040030245358E037C0074012BFAE43CFFEA2417F582EF3400F583E0FFF2
:20430C0024D0400302453574012BFAE43CFFEA2417F582EF3400F583E0FFBF3A00400302D1
:20432C00453574022BFAE43CFFEA2417F582EF3400F583E0FF24D0400302453574022BFAD9
:20434C00E43CFFEA2417F582EF3400F583E0FFBF3600400302453574032BFAE43CFFEA249F
:20436C0017F582EF3400F583E0FF24D0400302453574032BFAE43CFFEA2417F582EF3400FC
:20438C00F583E0FFBF3A004003024535E5637003024479E56314F56A2448F56C8D027F00F2
:2043AC00EA24D0F51AEF34FFF51B90000AC006C004C00312733A85826E85836FD003D00499
:2043CC0074012BFAE43CFFEA2417F582EF3400F583E07A00256EFFEA356FFAEF24D0F58213
:2043EC00EA34FFF583751A0C751B00C004C0031273E9AA82D003D004A86CA602E56A244CAE
:20440C00F974022BFAE43CFFEA2417F582EF3400F583E024D075F00AA4F56E74032BFAE4DC
:20442C003CFFEA2417F582EF3400F583E0256E24D0F7120EEAAA637F0074012AF56EE43FE5
:20444C00F56F90012CE0FF7A0074012FF51AE43AF51B856E82856F831273E9AA82AF83D06D
:20446C00068A6390013174052EF002453BC2C2787AE4F6FFED24D0F51AEF34FFF51B900061
:20448C000AC004C00312733AAE82AF83D003D00474012BFAE43CFDEA2417F582ED3400F54E
:2044AC0083E07A002EFEEA3FFFEE24D0F582EF34FFF583751A188A1BC004C0031273E9AEDD
:2044CC0082D003D0048E4674022BFEE43CFFEE2417F582EF3400F583E024D075F00AA4FFF4
:2044EC0074032BFBE43CFCEB2417F582EC3400F583E02F24D0F545AE467F00751A0C8F1BCD
:20450C008E828F831273E9AE828E47854536854437854682120228C21D787B7618787C76A7
:20452C003C9001317465F0800690013174CAF0900131E0FFBF6400500302421DBFCA03D35B
:20454C008001C392101209F5858251120C6D85825230102A30090ED243907B9775F08012BE
:20456C001BE4024FDDD243907BAA75F080121BE4C243907B9775F080121BE4024FDD30093E
:20458C000ED243907BD875F080121BE4024FDDD243907BF275F080121BE4C243907BD87580
:2045AC00F080121BE4024FDD90001BE0FFBF65028003BF4514300803024FDDD244907C1F4B
:2045CC0075F080121FD0024FDDBF6E028003BF4E14300803024FDD1202F39000BE7401F0C5
:2045EC0012032E8051BF66028003BF4613300803024FDD1202F39000BEE4F012032E80364E
:20460C00900019E0603090001AE0602A30090ED243907B9775F080121BE4024FDDD243909A
:20462C007C3775F080121BE4C243907B9775F080121BE4024FDD30090ED243907C6175F0CC
:20464C0080121BE4024FDDD243907C7575F080121BE4C243907C6175F080121BE4024FDD6D
:20466C00300803024FDD90001BE0FFBF7902800DBF59028008BF44028003BF6426D243905C
:20468C007C9C75F080121BE4C2AFC2A07518009000051202C0D2A3900FA012047A75C76057
:2046AC00024FDDBF67028003BF477190001FE0FE24D0505ABE3A0050551202F390001FE040
:2046CC0024D0FE9000C0F09000E5EEF0900021E0FE24D05028BE33005023900022E0FD2437
:2046EC00D0501ABD3A005015EE24D075F00AA42D24D0FEBE180050059000C1EEF012032E67
:20470C00D243907CB175F080121BE4024FDDD243907CC775F080121BE4024FDDBF690280E1
:20472C0003BF4910D243907CDF75F080121BE4C2A0024FDDD243907CF175F080121BE402C2
:20474C004FDD300803024FDD90001BE0FFBF58028003BF78191202F39000C4E4F012032ED0
:20476C00D244907D0A75F080121FD0024FDD1202F312032E9000C4E4F09001317404F090C0
:20478C000131E0FF2417F582E43400F583E0FE24D04003024AA0BE33004003024AA08F0505
:2047AC007F0074012DFBE43FFCEB2417F582EC3400F583E0FC24D04003024AA074012DFBE1
:2047CC00E43FFCEB2417F582EC3400F583E0FCBC3A004003024AA074022DFBE43FFCEB24AC
:2047EC0017F582EC3400F583E0FC24D04003024AA074022DFBE43FFCEB2417F582EC34000E
:20480C00F583E0FCBC36004003024AA074032DFBE43FFCEB2417F582EC3400F583E0FC2424
:20482C00D04003024AA074032DFBE43FFCEB2417F582EC3400F583E0FCBC3A004003024A19
:20484C00A074052DFBE43FFCEB2417F582EC3400F583E0FC24D04003024AA074052DFBE433
:20486C003FFCEB2417F582EC3400F583E0FCBC33004003024AA074062DFBE43FFCEB2417DB
:20488C00F582EC3400F583E0FC24D04003024AA074062DFBE43FFCEB2417F582EC3400F58B
:2048AC0083E0FCBC3A004003024AA074072DFBE43FFCEB2417F582EC3400F583E0FC24D0A1
:2048CC004003024AA074072DFBE43FFCEB2417F582EC3400F583E0FCBC36004003024AA0A9
:2048EC0074082DFBE43FFCEB2417F582EC3400F583E0FC24D04003024AA074082DFBE43FEE
:20490C00FCEB2417F582EC3400F583E0FCBC3A004003024AA08E1A751B0090000AC007C000
:20492C0006C00512733AAB82AC83D005D006D007C00674012DFAE43FFEEA2417F582EE34C2
:20494C0000F583E07A002BFBEA3CFCC3EB9428EC64809482D0064003024AA0C00674052D70
:20496C00FBE43FFCEB2417F582EC3400F583E0FC8C1A751B0090000AC007C006C005127359
:20498C003AAB82AC83D005D006D00774062DFAE43FFEEA2417F582EE3400F583E07A002B76
:2049AC00FBEA3CFCC3EB9428EC64809482D0064003024AA0ED24FCF582EF34FFF583751ACC
:2049CC0005751B00C007C006C00512741FAB82D005D006D00774082BFC3395E0FAEC24BD7E
:2049EC00F56CEA3400F56DEE24D075F00AA4F56E74012DFCE43FFEEC2417F582EE3400F5FE
:204A0C0083E0256E24D075F006A4FE74022DFAE43FFCEA2417F582EC3400F583E02E24D0A1
:204A2C00856C82856D83F074092BFB3395E0FEEB24BDFBEE3400FE74052DFAE43FFCEA2495
:204A4C0017F582EC3400F583E024D075F00AA4F56E74062DFAE43FFCEA2417F582EC34005E
:204A6C00F583E0256E24D075F006A4FC74072DFDE43FFFED2417F582EF3400F583E02C240F
:204A8C00D08B828E83F09000C4E0FF0F0F9000C4EFF08006900131744BF0900131E0240AE1
:204AAC00F0E0FFBF4B00500302478B9000C4E060179000001202DB12032ED244907D2275C3
:204ACC00F080121FD0024FDDD243907D3775F080121BE4024FDD300803024FDD90F010E4D1
:204AEC0093700ED243907D5275F080121BE4024FDD90001CE0FFBF54028003BF7410C2C217
:204B0C00D243907D6775F080121BE4024FDDBF4E028003BF6E2F90F010E493FEBE01181200
:204B2C0002F39000CD7402F012032E787A7600787B7618787C763CD243907D7175F0801255
:204B4C001BE4024FDDBF46028003BF662590F010E493FEBE020EC2C21202F39000CD740118
:204B6C00F012032ED243907D7A75F080121BE4024FDD90001BE0FE24D04003024C08BE332F
:204B8C00005079EF24D05074BF3A00506F90001DE0FD24D05066BD3600506190001EE0FC7F
:204BAC0024D05058BC3A005053209242D2C2EE24D075F00AA42F24D0F582ED24D075F00A4D
:204BCC00A42C24D0F51912728A9005DC12047A30920ED243907D8375F080121BE4024FDD4F
:204BEC00D243907D9875F080121BE4024FDDD243907DBA75F080121BE4024FDDD243907DA9
:204C0C00E075F080121BE4024FDD300803024FDD90001BE0FFBF42028012BF6202800D90BC
:204C2C00001CE0FEBE4E028003BE6E1D1202F39000BF7401F012032E1220C9D243907DF782
:204C4C0075F080121BE4024FDDBF54028012BF7402800DBE42028008BE62028003024FDD5E
:204C6C001202F39000BFE4F012032EC21DD243907E0075F080121BE4024FDD300803024F09
:204C8C00AC90001AE0FFBF4702800DBF67028008BF43028003BF6310D207D243907E09755B
:204CAC00F080121BE4024FACBF2B028003024DF190001BE0FEBE38028003024DF190001CCB
:204CCC00E0FEBE34028003024DF190001DE0FEBE30005003024DE3EE24C65003024DE39048
:204CEC00001EE0FEBE30005003024DE3EE24C65003024DE390001FE0FEBE30005003024DBF
:204D0C00E3EE24C65003024DE3900020E0FEBE30005003024DE3EE24C65003024DE3900059
:204D2C0021E0FEBE30005003024DE3EE24C65003024DE3900022E0FEBE30005003024DE395
:204D4C00EE24C65003024DE3900023E0FEBE30005003024DE3EE24C65003024DE3900024D5
:204D6C00E0FEBE30004070EE24C6406B900025E0FEBE30004061EE24C6405C1202F39000FB
:204D8C00CEE4F07E018E0574112DFD3395E0FCED24BDFDEC3400FC8E027B0074062AFAE48C
:204DAC003BFBEA2417F582EB3400F583E08D828C83F00EBE0A0040CD9000D9E0FEBE0206A0
:204DCC009000D97401F012032ED243907E2675F080121BE4024FACD243907E4475F080121C
:204DEC001BE4024FACBF30028003024F0C90001BE0FEBE30005003024EFEEE24C650030295
:204E0C004EFE90001CE0FEBE30005003024EFEEE24C65003024EFE90001DE0FEBE300050DF
:204E2C0003024EFEEE24C65003024EFE90001EE0FEBE30005003024EFEEE24C65003024E06
:204E4C00FE90001FE0FEBE30005003024EFEEE24C65003024EFE900020E0FEBE30005003E4
:204E6C00024EFEEE24C65003024EFE900021E0FEBE30005003024EFEEE24C6407590002202
:204E8C00E0FEBE3000406BEE24C64066900023E0FEBE3000405CEE24C640571202F37E0002
:204EAC008E0574112DFD3395E0FCED24BDFDEC3400FC8E027B0074032AFAE43BFBEA241734
:204ECC00F582EB3400F583E08D828C83F00EBE0A0040CD9000D9E0FEBE02069000D97401FC
:204EEC00F012032ED243907E2675F080121BE4024FACD243907E4475F080121BE4024FACDD
:204F0C00BF78028003BF581A1202F39000D97402F012032ED243907E6975F080121BE402FB
:204F2C004FAC90F01CE493FFBF022490001BE0FFBF6E02800DBF4E028008BF66028003BF2D
:204F4C00465ED243907E7875F080121BE4805190001BE0FFBF4E028003BF6E191202F39046
:204F6C0000D97401F012032ED243907EAA75F080121BE4802BBF46028003BF66181202F368
:204F8C009000D9E4F012032ED243907EB975F080121BE4800BD243907EC875F080121BE447
:204FAC0090F01CE493FF13920A802630090DD243907EE575F080121BE48016D243907EF889
:204FCC0075F080121BE4C243907EE575F080121BE443C1107F00EF2417FDE43400FE8D8202
:204FEC008E83E0600FEF2417F582E43400F5830FE4F080E2227F007E008F937594FF8F9265
:20500C008F918F957596FF8FB28FB175B30275B41C8FCA8FC98FC075B0FF8FA075B88175D0
:20502C009D088F978FBD75BC83D2ADD2AF9000E674FAF09000B9E4F0755205755105900081
:20504C000C7430F09000B8740AF09000F27402F09000F1F09000F0F09000F37407F09000A7
:20506C00F47401F0C007C006120F661202F3D006D0079000BDE0FDBDFF059000BDE4F09067
:20508C0000BEE024FE50059000BEE4F09000BFE024FE50069000BF7401F09000C0E024F628
:2050AC0050069000C07401F09000C1E024E850059000C1E4F09000C3E0FDC4540FFC7B0054
:2050CC001CBCFF011BC374089C74808BF063F08095F0500A740F5D4450FD9000C3F0900091
:2050EC00C3E0FD53050F7C001DBDFF011CC374089D74808CF063F08095F0500F9000C3E0F5
:20510C00FD74F05D4401FD9000C3F09001327401F09000C4E0FDBD0900502EED20E02A7C10
:20512C0001C3ED9C401E8C0374072BFB3395E0FAEB24BDF582EA3400F583E0FBBB90005097
:20514C00030C80DD900132ECF0900132E0FCC3ED9C40129000C47402F09000C57424F090D4
:20516C0000C6746CF0900132E4F09000D9E0FDBD020050479000D8E07041FDBD0A00503617
:20518C008D0474112CFB3395E0FAEB24BDF582EA3400F583E0FBBB3000401B74112CFC334A
:2051AC0095E0FBEC24BDF582EB3400F583E0FC24C640030D80C5900132EDF0900132E0FDFD
:2051CC00BD0A00500B9000D8E4F09000D97402F09000DAE0FD24E750059000DAE4F03092EF
:2051EC00079000CDE4F080129000CDE0FD6005ED24FD50069000CD7402F09000DBE0FD5378
:20520C00050F7C001DBDFF011CC3740A9D74808CF063F08095F050069000DB743BF0C0072F
:20522C00C00612032ED006D00790F000E493FD74035D90012C04F090F000E493A2E29234F2
:20524C0090F000E493A2E39235921290F000E493A2E4923690F000E493FDA2E5923720347E
:20526C001920351690F000E493FD5305C0E43395E0FDFC9000ECEDF080059000ECE4F0904F
:20528C00F01EE493FD530560E403CDC40354076DCD5407CD6DCD30E20244F8FC90012FED5D
:2052AC00F07D00ED2401FBE43400FC90012FE0FABA02005008ED90746C93FA8006ED907445
:2052CC007793FA8B828C83EAF00DBD0B0040D490012EE4F090F01E93FD53050F7C00C3ED8B
:2052EC009406EC64809480501190F01EE493FD740F5D04FC3395E0FD802790F01EE493FB75
:20530C0053030F7A00740CC39BF51AE49AF51B90003CC007C00612741FAC82AD83D006D025
:20532C000790012DECF090F01EE49330E405BC3C00500690012E743DF090F000E49330E6D7
:20534C00067CFF7D0080113034067A1E7B0080047A0A7B008A048B059000EBECF090012C80
:20536C00E0FDBD0103025424BD02028075BD0302803ABD0402800302545A9000EAECF090FB
:20538C00F206E493FD24C4400A90F207E493FD24F4500BC007C006120EEAD006D00790F22D
:2053AC0006E493F54F90F207E493F54B9000EBE0FD9000E9F090F204E493FD24C4400A9063
:2053CC00F205E493FD24F4500BC007C006120EEAD006D00790F204E493F54E90F205E49361
:2053EC00F54A9000EBE0FD9000E8F090F202E493FD24C4400A90F203E493FD24F4500BC04C
:20540C0007C006120EEAD006D00790F202E493F54D90F203E493F5499000EBE0FD9000E7B6
:20542C00F090F200E493FD24C4400A90F201E493FD24F4500BC007C006120EEAD006D0079A
:20544C0090F200E493F54C90F201E493F548D2A2901388C007C00612047A12035FD006D0F9
:20546C000790F010E4936017C007C006127274D006D007787A7600787B7618787C763CD208
:20548C000390F003E4939000E5F0C007C006120F5012061AD006D007202203025C3E20269A
:2054AC0003025C3E202A03025C3E7571007C0090F01EE493F57090F000E493FAC22AC226B7
:2054CC00C222907F1E75F080C004C0021205B0907F2F75F0801205B090012CE02430F5822B
:2054EC001204D2D002D00430340875723575737F800675723B75737FC002AA72AB737D801B
:20550C008A828B838DF0C004C0021205B0D002D004D0023035067B417D7F80047B477D7FBE
:20552C00C0028D027D808B828A838DF0C004C0021205B0907F4D75F0801205B09000ECE0C9
:20554C002430F5821204D2753A047582C01204A7D002D00490012CE0FD149000F4F090000D
:20556C00F3E4F0D002EC700302586B203F03025726C002C23F907F5175F080C004C00212E1
:20558C0005B0D002D004857072757300740F5572FA7D00C3EA9406ED64809480D002500D39
:2055AC00AB70740F5B04FB3395E0FD802BC002740F5572F574757500740CC39574F51AE4F9
:2055CC009575F51B90003CC004C00212741FAB82AD83D002D004D0029000F3E0700B302D9E
:2055EC000875745F757500802BC0028B027D00751A0A8D1B8A828D83C004C00312741FAABB
:20560C0082AD83D003D00474302AFA8A743395E0F575D002857482C004C003C0021204D2CF
:20562C00D002D003D0049000F3E0700B302D0875745F75750080257D00751A0A8D1B8B8200
:20564C008D83C004C0021273E9AB82AD83D002D00474302BFB8B743395E0F575857482C021
:20566C0004C0021204D2907F5575F0801205B0D002D0049000F3E0FDBD0109302D067B5F56
:20568C007D008032C00274605572F574E4F575C403C574C40354076574C5745407C574658E
:2056AC0074C57430E20244F8F575AA7474302AFB3395E0FDD0028B82C004C0021204D2900E
:2056CC007F5A75F0801205B0D002D0049000F3E0FDBD0209302D067B5F7D008030C00274CB
:2056EC00105572F574E4F575C4C574C4540F6574C574540FC5746574C57430E30244F0F5EE
:20570C0075AA7474302AFB3395E0FDD0028B82C004C0021204D2D002D004102202807A90CB
:20572C0000F3E02401F0E0FDBD0102800ABD02028025BD0364803EAB70530360E403CBC4BF
:20574C000354076BCB5407CB6BCB30E20244F8FD9000F4EBF08042AB70530310E4CBC45497
:20576C000F6BCB540FCB6BCB30E30244F0FD9000F4EBF08024C004C0021202F39000BDE071
:20578C0054EFF09000DBE570F012032E9002001202DBD002D00475C760102602804290008A
:2057AC00F3E0FDE06006ED149000F3F09000F3E0FD6005BD012A800A9000F4740F5570F060
:2057CC00801EAB70530360E403CBC40354076BCB5407CB6BCB30E20244F8FD9000F4EBF03C
:2057EC00102A030255719000F4E02401F09000F3E0FD600DBD01028025BD02028041025514
:20580C00719000F4E024F450059000F4E4F074F05570FD9000F4E0FB4DF570025571900053
:20582C00F4E024FD50059000F4E4F0741F5570FD9000F4E0C42354E0FB4DF57002557190E1
:20584C0000F4E024FE50059000F4E4F074EF5570FD9000F4E0C454F0FB4DF5700255719003
:20586C0000F3E0FD24FA5003025A35ED2D2D90587E730258900258AA0259030259510259D7
:20588C00980259B590012CE0149000F4F07582C4C004C002120530D002D004025A359000E0
:2058AC00F4A234E433F0C004C00212058BD002D004103F03025A35302D067B607D7F801B85
:2058CC0030340B75763575777F757880800975763B75777F757880AB76AD77C0028D027DBB
:2058EC00808B828A838DF0C004C0021205B0D002D004D002025A359000F4A235E433F010BD
:20590C003F03025A35302D067B667D7F801B30350B75764175777F75788080097576477529
:20592C00777F757880AB76AD77C0028D027D808B828A838DF0C004C0021205B0D002D004DB
:20594C00D002025A359000ECE09000F4F0103F03025A35907F4D75F080C004C0021205B097
:20596C00D002D004302D067B5F7D00800FC0029000ECE02430FB3395E0FDD0028B82C00477
:20598C00C0021204D2D002D004025A35907F6B75F080C004C0021205B0907F7D75F08012EB
:2059AC0005B0D002D004025A3574105AFD90012CE0FB1BEB2DFD3034087576047577008085
:2059CC0005E4F576F577E5762DFD90012CE0FBBB010280163035087576087577008005E4D5
:2059EC00F576F5778D03E5762BFD20341120350E9000ECE0030354C0F5768D032BFD9000C0
:205A0C0000C005C004C0021202DB9002001202DBD002D004D0058D18900000C004C0021277
:205A2C0002C0D002D00475C760102A03025AD57571009000F3E0FD24FC5003025AD5ED2DE4
:205A4C00905A50738006803E804E805C9000F4E0FDBD030050090DEDFB3395E0FD80047B8C
:205A6C00007D009000F4EBF00B90012CEBF074302BF582C004C0021204D27582C4120530E5
:205A8C00D002D00480439000F4E0FD7401C39DFD24FF9234EDF080319000F4E0FD7401C34E
:205AAC009DFD24FF9235EDF09000F4E0FDBD030050090DEDFB3395E0FD80047B007D009059
:205ACC0000F4EBF09000ECEBF0102203025B647571009000F3E02401F0907F2F75F080C05D
:205AEC0004C0021205B090012CE02430F5821204D2D002D0043034067B357D7F80047B3BC7
:205B0C007D7FC0028D027D808B828A838DF0C004C0021205B0D002D004D0023035067B41AC
:205B2C007D7F80047B477D7FC0028D027D808B828A838DF0C004C0021205B0907F4D75F028
:205B4C00801205B09000ECE02430F5821204D212058BD002D004D002102603025571900038
:205B6C00F3E0FDE06006ED149000F3F0907F1E75F080C004C0021205B0907F2F75F08012FB
:205B8C0005B090012CE02430F5821204D2D002D0043034067B357D7F80047B3B7D7FC00240
:205BAC008D027D808B828A838DF0C004C0021205B0D002D004D0023035067B417D7F80044A
:205BCC007B477D7FC0028D027D808B828A838DF0C004C0021205B0907F4D75F0801205B0C1
:205BEC009000ECE02430F5821204D2D002D004D0029000F3E06003025571AD710571ED24DF
:205C0C00F7501B7C01C004C00212058BD002D00490F01EE4939000F4540FF0025571753A68
:205C2C00047582C0C004C0021204A7D002D00402557175BC8B753045753100753240753311
:205C4C004475340075354090004675F040C007C006120198D006D007E54624E8400CE54554
:205C6C0024C44006E54424C45014753600753700758200C007C006120228D006D007C007EA
:205C8C00C0061200F0D2A8D28875304575310075324075334475340075354090004675F02B
:205CAC0040120198D006D00790F01CE493FD13920A203070C007C006122077D006D007508E
:205CCC0063C007C0061220C912221C122265D006D007505090F005E4937015D243907F8F63
:205CEC0075F080C007C006121BE4D006D0078029D243907FAC75F080C007C006121BE4D09C
:205D0C0006D007300A13C243907FAC75F080C007C006121BE4D006D007C007C00612177F28
:205D2C00D006D007E54624F45007E54624F4FD8002AD468D4790F005E493701C9000F57406
:205D4C0005F0C007C0061202F39000C274FFF012032ED006D00780069000F5743CF075C128
:205D6C006590012CE0FDBD042090F206E493B54F0B90F207E493FDB54B02800DC007C00610
:205D8C00120EEAD006D007807090012CE0FD24FD502090F204E493B54E0B90F205E493FD1F
:205DAC00B54A02800DC007C006120EEAD006D007804790012CE0FD24FE502090F202E49317
:205DCC00B54D0B90F203E493FDB54902800DC007C006120EEAD006D007801E90F200E49349
:205DEC00B54C0B90F201E493FDB54802800BC007C006120EEAD006D0079000F5E06006906B
:205E0C0000F3E0702B9000F3E4F07405B5510EC007C0061209F5858251D006D0077405B554
:205E2C00520EC007C006120C6D858252D006D007203E2E30022BD243907FC075F080C0075F
:205E4C00C006121BE4D006D007300A13C243907FC075F080C007C006121BE4D006D007D28F
:205E6C003E303E2E20022BD243907FCE75F080C007C006121BE4D006D007300A13C24390EB
:205E8C007FCE75F080C007C006121BE4D006D007C23E9000E6E07018203815D238D243907F
:205EAC007FE175F080C007C006121BE4D006D0079000E7E0702E20392BD239D243907FF0AE
:205ECC0075F080C007C006121BE4D006D007300A13C243907FF075F080C007C006121BE4B2
:205EEC00D006D00790012CE0FD24FE50349000E8E0702E203A2BD23AD243907FFF75F0801A
:205F0C00C007C006121BE4D006D007300A13C243907FFF75F080C007C006121BE4D006D0A1
:205F2C000790012CE0FD24FD50349000E9E0702E203B2BD23BD24390800E75F080C007C0E6
:205F4C0006121BE4D006D007300A13C24390800E75F080C007C006121BE4D006D007900140
:205F6C002CE0FDBD04349000EAE0702E203C2BD23CD24390801D75F080C007C006121BE4C5
:205F8C00D006D007300A13C24390801D75F080C007C006121BE4D006D007201E0302607581
:205FAC0020A0169000B8E014F0E0700D75BC83D2A09000B8741EF0D2059000E2E0FDE06020
:205FCC002D9000E0E07027ED149000E2F0E0701E9000E07405F09000E2F0C007C0061209ED
:205FEC00F5858251120C6D858252D006D0077405B551028022E55124E7FCE43400FD8C8234
:20600C008D83E0FB60111B8C828D83EBF0EB7007C219C2177551057405B552028022E552C8
:20602C0024E7FCE43400FD8C828D83E0FB60111B8C828D83EBF0EB7007C21AC218755205D6
:20604C009000F5E0601090F010E49360032092069000F5E014F09000F0E0FDE060093024DA
:20606C0006ED149000F0F0C21EC007C00612084CD006D0079000F3E0701490F010E493FD32
:20608C00BD020BC007C006120993D006D00790F003E49360159000E5E0700F90F004E49304
:2060AC00FDB54606E54524FA40099000B9E0FD24FE50727405B5516D7405B5526890F010D7
:2060CC00E493600320925E90012DE0FDBD3C00501990F004E493FD7536067537008D82C0A9
:2060EC0007C006120228D006D0079000B9E024FE5013D24390802C75F080C007C006121B40
:20610C00E4D006D007C2AFC2A0751800900005C007C0061202C0D2A3900FA012047AD00672
:20612C00D00775C7603003030261C274FB254550030261C2201D2590F002E493601EC00794
:20614C00C0061220C9D006D007E54624F45007E54624F4FD8002AD468D47803E7530457585
:20616C00310075324075334475340075354090004675F040C007C006120198752ADE752BAC
:20618C0000752C00752DDF752E00752F009000DD75F000120108D006D00790F001E4936098
:2061AC0013D24390805175F080C007C006121BE4D006D007D203100C0280297556017557E6
:2061CC007575588075540F75550190795075F080C007C0061214D090806275F08012038C95
:2061EC00D006D007100702801190000175F000C007C0061216AED006D0079000F3E0FD24B2
:20620C00F85003027206ED240A83F582ED240C83F583E4733027B872C8F4F4C262696D718D
:20622C006F71716430054175BC8BC2059000FBE4F0C007C0061220C9AB467C00751A0C8C29
:20624C001B8B828C831273E9AB828B47122265D006D0075013D24390807175F080C007C0E3
:20626C0006121BE4D006D007300E28C007C006123E6A7556F575577A75588075540F7555AC
:20628C0001907AD075F0801214D0D006D007C20E02644F90012CE0FCBC01028014BC02025E
:2062AC008041BC030302639FBC040302633B0263FB3034067B877C8080047B8F7C808B3ECD
:2062CC008C3F754080854841854C42854443A2209201758280C007C00612069BD006D007CC
:2062EC000263FB753E97753F80754080854841854C427543FDA2209201758280C007C00650
:20630C0012069B753E97753F80754080854941854D427543FDA220920175828712069B901D
:20632C00809775F0801205B0D006D0070263FB301D067B9A7C80801F90F002E493600B75A5
:20634C00769E75778075788080097576A2757780757880AB76AC778B3E8C3F75408085467D
:20636C0041854542854443A22092017582C5C007C00612069B753EA6753F80754080854BD5
:20638C0041854F427543FBC2017582C012069BD006D007753EA6753F8075408085484185B8
:2063AC004C427543FBC201758280C007C00612069B753EA6753F80754080854941854D4231
:2063CC007543FBC20175828512069B753EA6753F80754080854A41854E427543FBC201753A
:2063EC00828A12069B7582201204D2D006D00790012CE0FCBC0402804A301D067B287C7817
:20640C00801F90F002E493600B7576387577787578808009757630757778757880AB76AC37
:20642C00778B3E8C3F754080854641854542854443A22092017582C0C007C00612069BD0D0
:20644C0006D0079000F0E0600302720F30170302720FC2229000F5743CF09000E1E4F09062
:20646C0000E0F09000E2F09000F37407F09000F47401F0755205755105C2C2787A76001074
:20648C002602800302720FD2439080A875F080C007C006121BE4D006D007200A0302720F15
:2064AC00C2439080BC75F080C007C006121BE4D006D00702720F102202802F9000F5743C34
:2064CC00F09000F4E02401F0E0FCBC040D90F010E49370069000F4EC04F09000F4E0FC2439
:2064EC00F950059000F4E4F0C22D102A02800D9000F5743CF09000F4E4F0C22D102603028B
:20650C0068BA9000F5743CF09000F4E09000F3F09000F4E4F0C007C0061209F585825112F2
:20652C000C6D858252D006D0079000F3E0700302720F758280C007C0061205309000F3E0C9
:20654C0075F011A4248AFB747435F0FC7A808B828C838AF01205B0D006D0079000F3E0FC00
:20656C0024F9500302720FEC2C2C90657A7302720F02658F0266AC0266F3026710026735F7
:20658C000267DD90012CE0FCBC012F3034067A877B8080047A8F7B808A3E8B3F75408085EA
:2065AC004841854C42754300D2017582C0C007C00612069BD006D007806EBC030050067B86
:2065CC00C07C0080047B807C008B82753E97753F80754080854841854C427543FDD201C04F
:2065EC0007C00612069BD006D00790012CE0FCBC030050067BC77C0080047B877C008B82E7
:20660C00753E97753F80754080854941854D427543FDD201C007C00612069B90809775F0C4
:20662C00801205B0D006D00790012CE0FC24FD400302720F753E97753F80754080854A4117
:20664C00854E427543FDD2017582C0C007C00612069BD006D00790012CE0FCBC042E753EB3
:20666C0097753F80754080854B41854F427543FDD2017582C7C007C00612069B9080977545
:20668C00F0801205B0D006D00702720F9080D275F080C007C0061205B0D006D00702720F3C
:2066AC00301D067B287C78801F90F002E493600B757638757778757880800975763075775D
:2066CC0078757880AB76AC778B3E8C3F754080854641854542854443D2017582C012069B5B
:2066EC00AF46AE4502720F9080DC75F080C007C0061205B0753A047582C01204A7D006D031
:20670C000702720F753EED753F80754080754100754200754300A22092017582C012069BF6
:20672C00D2C27E007F0002720F3030149080F575F080C007C0061205B0D006D00702720F57
:20674C0020A01490810775F080C007C0061205B0D006D00702720FC007C0061218001217F8
:20676C004E7582C01205917582C012053090001775F0001205B0758280120530900016E447
:20678C00F090000C75F0001205B075828E1205309000F7E0FC7B00751A0A8B1B8C828B8330
:2067AC0012741FAB8274302BF5821204D29000F7E0FC7B00751A0A8B1B8C828B831273E926
:2067CC00AB8274302BF5821204D2D006D00702720F90811975F080C007C0061205B090002F
:2067EC00DDE0FC7B00751A0A8B1B8C828B8312741FAB8274302BF5821204D29000DDE0FCB5
:20680C007B00751A0A8B1B8C828B831273E9AB8274302BF5821204D290811D75F0801205A3
:20682C00B09000DEE0FC7B00751A0A8B1B8C828B8312741FAB8274302BF5821204D29000EC
:20684C00DEE0FC7B00751A0A8B1B8C828B831273E9AB8274302BF5821204D290811D75F040
:20686C00801205B09000DFE0FC7B00751A0A8B1B8C828B8312741FAB8274302BF582120476
:20688C00D29000DFE0FC7B00751A0A8B1B8C828B831273E9AB8274302BF5821204D2908020
:2068AC009775F0801205B0D006D00702720F301D067B287C78801F90F002E493600B757681
:2068CC00387577787578808009757630757778757880AB76AC778B3E8C3F7540809000F59C
:2068EC00E0F543854641854542A22092017582C0C007C00612069B9000F4E075F011A4246E
:20690C008AFB747435F0FC8B3B8C3C753D807582801204B7D006D00702720F9000F4E0FC49
:20692C00BC0800500F90012CE0FC24FD50067B807C0080047BC07C0090012CE0FCBC0132DE
:20694C00C0039000F4E0FC2407FA8C037C00751A028C1B8B828C83C007C006C00212741F90
