:2000A500AF827E0075740A8E758F828E83C007C0061247DFAC82D006D007ECC454F0FC756F
:2000C500740A7575008F828E83C0041247A9AE82D004EE4CF58222E582FFC4540F75F00AF8
:2000E500A4FE740F5F2EF582221203187582D012035775820712035775821012035702036E
:20010500331203187582D01203577582041203571203331203187582D1120357C200120360
:200125007C1200DCAF82C007120333D0078F8222AD82AE83AFF0C007C006C0051203187513
:2001450082D01203577582001203571203331203187582D1120357AA1BAB1CAC1DD200C0E9
:2001650004C003C00212037C1200DCA982D002D003D0048A828B838CF0E91246DFAA18ABAB
:2001850019AC1AD200C004C003C00212037C1200DCA982D002D003D0048A828B838CF0E9BE
:2001A5001246DFC20012037C1200DCAC82D005D006D0078D828E838FF0EC1246DF02033318
:2001C500AF82C0071203187582D0120357758200120357851F821200A5120357851E8212DF
:1201E50000A5120357D0078F821200A5120357020333B4
:2001F70075C70075C50075C60075C38075C40043C11022AE82AF8375C78375C5018EC48FD3
:20021700C375C65A75C6A500AFC2C0071201F7D0078F8222AE82AF8375C78375C5028EC494
:200237008FC38528C275C65A75C6A5000201F7AE82AF8375C78375C5038EC48FC375C65AE0
:2002570075C6A5000201F743C1107F1FEF60101FEF24A3F582E43400F58374FFF080EDBF31
:200277001F005018EF24A3FDE43400FE8F827583F00FE493FC8D828E83F080E39000000297
:2002970002467F00BFCD00502975C78375C5028FC475C300EF24A3F582E43400F5830FE049
:1302B700F5C275C65A75C6A500C0071201F7D00780D222EC
:2002CA00759850438E40538EFE758BCC758DFFC2ABD28ED2ACD2A022AD82AE83AFF0C299C1
:2002EA008D828E838FF012478DFC60218C9920990543C11080F8C2998D828E838FF0124730
:0E030A008DFCBC1A01220DBD00D60E80D32240
:20031800D2C043C11043C110D2CD43C11043C110C2C043C11043C110C2CD22C2C043C11053
:2003380043C110D2CD43C11043C110D2C02243C11043C110D2CD43C11043C110C2CD22AFC7
:20035800827E00EF23540124FF92C08F05ED2DFFC007C006120346D006D0070EBE08004053
:20037800E20203467F00D2C07E0043C11043C110D2CD43C11043C1108F05ED2DFDA2C0E4C9
:1E039800334DFFC2CD0EBE080040DFA200B392C0C007120346D007A2C092CD8F8222B2
:2003B600AE82AF837C007D00C3EC9EED9F500A43C1100CBC00F20D80EF22AE82AF837C004F
:2003D6007D00C3EC9EED9F501D9003E8C007C006C005C0041203B6D004D005D006D0070C86
:2003F600BC00DF0D80DC22AF82E5294FF58212048375820D020483AF82302A118F821204D3
:2004160083852A82852B83852CF00205008F820204E1E582FFC4540124FF9283EFA2E5E42E
:200436003324FF9282EF2323540124FF9281EF23540124FF9280D284D285C284EF54012485
:20045600FF9283EF03540124FF9282EF03035401FE24FF9281EFA2E3E433FF24FF9280D2E5
:200476008400C2849000321203B6C28522E582FFC4540124FF9283EFA2E5E43324FF92822B
:20049600EF2323540124FF9281EF23540124FF9280D284C285C284EF540124FF9283EF0399
:2004B600540124FF9282EF03035401FE24FF9281EFA2E3E433FF24FF9280D28400C2849031
:2004D60000320203B675820C020483E582FF600E8F8212048390481B75F080020500758239
:2004F600011204839006400203B6AD82AE83AFF07C008D828E838FF012478DFB6055BC103F
:20051600005050BB80005025EB24E050200CEC601C8B820DBD00010EC007C006C005C004A6
:20053600120428D004D005D006D00780C58D828E838FF012478DFBA3AD82AE838B82C00775
:20055600C006C005C004120483D004D005D006D007809F22C286903A981203B675801C0080
:20057600C284900FA01203B6D28400C2849000A01203B6D28400C2849000A01203B67580F2
:200596001400C2849003E81203B6D28400C2840075801100C2849000281203B67580100035
:2005B600C2840075801300C2849000281203B675801000C2840075801600C28490002812A8
:2005D60003B675801000C2840075801800C2849003E80203B6AF82AD307E0075740A8E75F6
:2005F6008D828E83C007C006C0051247DFAB82D005D00674302BF53375740A7575008D8280
:200616008E831247A9AD82D00774302DF5343001067D3A7E0080047D207E008D35AD317E88
:200636000075740A8E758D828E83C007C006C0051247DFAB82D005D00674302BF536757449
:200656000A7575008D828E831247A9AD82D00774302DF5373001067D3A7E0080047D207E60
:20067600008D38AD327E0075740A8E758D828E83C007C006C0051247DFAB82D005D0067456
:20069600302BF53975740A7575008D828E831247A9AD82D00774302DF53A753B008F8212E3
:1E06B6000483852D82852E83852FF012050074E82530400990003375F04002050022EF
:11481B0020202020202020202020202020202020008C
:06000000020049020A762D
:03000B00020D459E
:0100130032BA
:01001B0032B2
:03002300021A8E30
:03002B0002458803
:01003300329A
:03003B00020AC6F0
:03004300024578FB
:0300A20002004613
:03004600023796E8
:2006D400E54275F006A4FFAD417E0075740A8E758D828E83C0071247DFAD82D007ED2FF539
:2006F4005C7E017D0190F008E493FCC3ED9C400302079EED90F00893FC8D030BEB3395E02A
:20071400FAEB2408F582EA34F0F583E493F9C3EC99E433F97C0009B900010CED90F008939C
:20073400F8C3E55C98E4337F0029F9EF3CFCEB2408F582EA34F0F583E493FFC3E55C9FE421
:20075400337B0029F582EB3CF5837574028B75C006C0051247A9E5828583F0D005D00645D1
:20077400F060218E047F008C828F83A37574028F75C0061247A9AC82AF83D006EC4F24FFD5
:2007940092A180060D8D060206F990F008E493FFEEB50702800122EE90F00893FF90F0090D
:2007B400E493FDC3EF9DE433FF7D000FBF00010DEE90F00893FCC3E55C9CE4337B002FFF8E
:2007D400EB3DFD90F009E493FCC3E55C9CE4337B002FF582EB3DF5837574028B75C00612A9
:2007F40047A9E5828583F0D00645F060197F008E828F83A37574028F751247A9AE82AF837B
:20081400EE4F24FF92A1227877B60002800E7877B6010280447877B6024880287878E6B54C
:2008340042077879E6B5410122AF427878A607AE417879A6068E738F8212464A753C5A781A
:200854007776022230920BD2C27877A2C2E433F68007AF3C153CEF7009209206787776006A
:20087400C2C22290F001E49360069000C7E070389000C6E0603220022F90F000E4936028E9
:2008940090F01EE493FF24E8401EE552701A9000C2E0FFE07014E541B54607E543B5450224
:2008B40080069000C4E06002C322754E01EF706D854574F57590003C1246FAE5828583F06E
:2008D40024D0FE740235F0FFAC467D00EC2EFEED3FFF8543748D7590003CC007C0061246D7
:2008F400FAAC82AD83D006D007EEC39CFEEF9DFFAC417D00EEC39CF582EF9DF5837574D01E
:200914007575021247A9AE82AF83C3742D9E74808FF063F08095F040047F0080027F01EFF2
:2009340024FF2290F001E49370069000C6E070389000C7E0603220022F90F000E493602879
:2009540090F01EE493FF24E8401EE552701A9000C2E0FFE07017E541B54607E543B5450260
:2009740080069000C4E0600553A00FC322EF706D854574F57590003C1246FAE5828583F06C
:2009940024D0FE740235F0FFAC467D00EC2EFEED3FFF8543748D7590003CC007C006124616
:2009B400FAAC82AD83D006D007EEC39CFEEF9DFFAC417D00EEC39CF582EF9DF5837574D05D
:2009D4007575021247A9AE82AF83C374689E74818FF063F08095F040047F0080027F018F56
:2009F4004ED32275FA0075EA007547A875486175DA49D2DE22538E7F758900758A24758C64
:200A1400FAC28DD28CD2A92243C110B219A2199287D217E55560021555E55760021557745E
:200A340002B55201220540E54024C45034754000D2180541E54124C45027C20375410005B6
:200A540042E54224E8500F78787618754200E54960021549C2040543E54324F45003754332
:200A74000022C027C0E0C0F0C082C083C007C006C005C004C003C002C001C000C0D075D093
:200A94000843C1109000C574FAF0C22E75D000120A1C75D008D0D0D000D001D002D003D003
:200AB40004D005D006D007D083D082D0F0D0E0D02732C027C0E0C0F0C082C083C007C00615
:200AD400C005C004C003C002C001C000C0D075D00843C11010D803020D288547EA8548FAE3
:200AF40074A82547F54774613548F548301A07A2B6B3920F8004A2B6920F20C406201A03EE
:200B1400020C20300F0D301005D212020C20D210020C20201403020C1430C4239000C7E435
:200B3400F09000C6741EF090F001E493603A75280090000175D00012022B75D0088029900F
:200B540000C6E4F09000C77405F090F001E4937017F5D012025E75D0089000A474FFF07518
:200B7400D00012029975D0089000C2E0FFE06008EF149000C2F08036E54E60180546E54602
:200B940024C450107546000545E54524F4501F754500801AE54E70161546E54624C3500E6B
:200BB40075463B1545E54524F3500375450BC212C210C21475D00012087753D0E743D00801
:200BD4004002C2C475D00012093753D0E743D0084002C21A90020075D00012024675D008E1
:200BF4008546289003FE75D00012022B75D0088545289003FF75D00012022B75D008800CAB
:200C1400301204D21480051010028000301B0630B503754F02301B0330B5047F0080027FB7
:200C340001EF24FF921F201E0330B5047F0080027F01EF24FF921B201C0A201F03201B04AB
:200C54007F0080027F01EF24FF921CA2B5921E30200630B30375500230200330B3047F007C
:200C740080027F01EF24FF922420230330B3047F0080027F01EF24FF922020210A20240392
:200C94002020047F0080027F01EF24FF9221A2B3922330250630B40375510230250330B466
:200CB400047F0080027F01EF24FF922920280330B4047F0080027F01EF24FF922520260A01
:200CD4002029032025047F0080027F01EF24FF9226A2B492289001B2E014F0E07008900100
:200CF400B2740EF0B22A9000C5E0FFE0600EEF149000C5F09001B3741CF080189001B3E096
:200D140014F0E0700F9001B3741CF075D000120A1C75D008D0D0D000D001D002D003D00414
:200D3400D005D006D007D083D082D0F0D0E0D02732C0E0C082C083C0D075D01043C1103091
:200D54001A33E5A0540FFFE54A904837934FF5A0E54E60067E017F0080047EFF7FFFAF4A87
:200D7400EE2FF54A24F75005754A0780087408B54A03754A00D0D0D083D082D0E032AD82B2
:200D9400AE83AFF0AC5E8C56855DF0ECA4240AF557C22BAB5D302B03020EAEE557700302E5
:200DB4000EAE43C110758280C007C006C005C004C003120483855F828560838561F01205AB
:200DD40000D003D004D005D006D007301632752DBC752E4B752F8085423085413185403209
:200DF400A21992017582C0C007C006C005C004C0031205EBD003D004D005D006D0078069ED
:200E140090F003E4937032752DC4752E4B752F80854230854131854032A21992017582C0C0
:200E3400C007C006C005C004C0031205EBD003D004D005D006D0078030752DCC752E4B7519
:200E54002F80854230854131854032A21992017582C0C007C006C005C004C0031205EBD03A
:200E740003D004D005D006D007E5556003020DA98B021BEA60248C558C568D828E838FF038
:200E9400C007C006C005C004C0031202E2D003D004D005D006D007020DA97582801204E120
:200EB400A22B22900001E06020900004E0701A755FD675604B756180755D03755E01904B9C
:200ED400D475F080120D92C322904BE775F0801202E23031067E2C7F4880047E127FF07D3A
:200EF400808E828F838DF01202E2904BF175F0801202E29000051203D0D322900001E4F04E
:200F1400C20C755807755F0875604C756180755D0F755E01904BF475F080120D92755800E1
:200F3400900001E024FF2285826285836385F0649001327420F0900133744BF09001347447
:200F54003DF0AB457C0075740A8C758B828C83C004C0031247DFAA82D003D00474302A90E4
:200F74000135F075740A7575008B828C831247A9AE8274302E900136F0900137743AF0AE6F
:200F9400467F0075740A8F758E828F83C007C0061247DFAC82D006D00774302C900138F036
:200FB40075740A7575008E828F831247A9AE8274302E900139F090013AE4F090013B742061
:200FD400F090013C7454F090013D743DF0AE427F0075740A8F758E828F83C007C0061247AB
:200FF400DFAC82D006D00774302C90013EF075740A7575008E828F831247A9AE8274302E91
:2010140090013FF0900140743AF0AE417F0075740A8F758E828F83C007C0061247DFAC8213
:20103400D006D00774302C900141F075740A7575008E828F831247A9AE8274302E90014287
:20105400F09001437420F09001447447F09001457450F09001467453F0900147743DF0A281
:2010740016E433FF90F003E4932F2430900148F0900149E4F078768674F57590001C1246E6
:20109400FA7574007575011247DFAE8290014A7420F090014B7444F090014C7448F0900109
:2010B4004D743DF090F000E493243090014EF090014F7420F09001507442F090015104F053
:2010D400900152743DF090F002E4932430900153F09001547420F09001557444F090015679
:2010F40014F0900157743DF09000C6E060067D317F0080047D307F00900158EDF090015926
:201114007420F090015A7453F090015B04F090015C743DF09000C7E060067D317F008004D9
:201134007D307F0090015DEDF090015E7420F090015F7458F09001607447F0900161743D46
:20115400F09000C5E060067D317F0080047D307F00900162EDF09001637420F09001647462
:2011740052F090016504F0900166743DF0AF4974302F900167F0900168742FF090F004E4F0
:20119400932430900169F090016A7420F090016B7454F090016C7452F090016D743DF09055
:2011B400F005E493FF7D0075740A8D758F828D83C0061247DFAD8274302D90016EF090F0B0
:2011D40005E493FF7D0075740A8D758F828D831247A9AD82D00674302D90016FF090017024
:2011F4007420F09001717444F090017204F0900173744EF0900174743DF0A2A1E4332430AC
:20121400900175F09001767420F09001777456F0900178744FF0900179744CF090017A7482
:201234003DF07F0075740A8F758E828F83C007C0061247DFAC82D006D00774302C90017B59
:20125400F075740A7575008E828F831247A9AE8274302E90017CF090017D7420F090017EE9
:20127400744DF090017F7450F09001807433F0900181743DF090F011E4932430900182F02B
:201294003032067E207F0080047E007F00900183EEF09001847444F09001857454F0900126
:2012B40086743DF090F01DE4932430900187F0900188E4F0042562FDE43563FEAF648D8272
:2012D4008E838FF012478DFCBC2A028011C007C006C005120F0FD005D006D00780059000F6
:2012F40001E4F0A2329231C007C006C005120EB7D005D006D00740012290488F75F080C054
:2013140007C006C0051202E290013275F0001202E290013B75F0001202E290014A75F000AC
:201334001202E2D005D006D00790F01DE493FCBC0200502130321E904C1975F080C007C001
:2013540006C0051202E290F01275F0801202E2D005D006D0078D828E838FF012478DFDBD8A
:201374002A02803B900001E06035904C1B75F0801202E290000175F0001202E230320F90AD
:201394000005E07009904C2675F0801202E2900005E4F0900004F0900003F0900002F08587
:2013B40062828563838564F01202E274012562FDE43563FEAF648D828E838FF012478DFDF3
:2013D400BD2A09904BD475F0800202E2755F4075604C756180755D32755E01904BD475F018
:2013F40080020D92AD82AE83AFF09001897454F090018A743DF0AB427C0075740A8C758B43
:20141400828C83C007C006C005C004C0031247DFA982D003D00474302990018BF075740A78
:201434007575008B828C831247A9AB8274302B90018CF090018D743AF0AB417C0075740A70
:201454008C758B828C83C004C0031247DFA982D003D00474302990018EF075740A75750011
:201474008B828C831247A9AB8274302B90018FF09001907420F09001917447F09001927425
:2014940050F09001937453F0900194743DF0A216E433FC90F003E4932C2430900195F0906C
:2014B40001967420F09001977444F090019804F0900199744EF090019A743DF0A2A1E4330E
:2014D400243090019BF090019CE4F090019D740DF090019E744DF090019F744FF09001A0F4
:2014F4007444F09001A104F09001A2744EF09001A3743DF090F008E49324309001A4F09048
:2015140001A5E4F0A2339231120EB7D005D006D00740012290018975F000C007C006C00518
:201534001202E290019D75F0001202E2D005D006D00790F008E493700302172B904C51753E
:20155400F080C007C006C0051202E290F008E493FC90F00893FB7A0075743C8A758B828A79
:2015740083C0041247DFAA82D00474302A90019EF0EC90F00893FB7A007574068A758B8274
:201594008A83C0041247DF75740A7575001247A9AA82D00474302A90019FF09001A0743A82
:2015B400F0EC90F00893FC7B007574068B758C828B831247A9AB8274302B9001A1F09001ED
:2015D400A27430F09001A37420F09001A4742DF090019D75F0001202E290019D7420F09078
:2015F400F009E493FC7B0075743C8B758C828B831247DFAB8274302B90019EF090F009E4EF
:2016140093FC7B007574068B758C828B831247DF75740A7575001247A9AB8274302B9001FD
:201634009FF090F009E493FC7B007574068B758C828B831247A9AB8274302B9001A1F090D5
:2016540001A3E4F090019D75F0001202E2D005D006D0077C0290F008E493FBC3EC9B4003EE
:20167400021740EC90F00893FB7A0075743C8A758B828A83C007C006C005C0041247DFAA4B
:2016940082D00474302A90019EF0EC90F00893FB7A007574068A758B828A83C0041247DF73
:2016B40075740A7575001247A9AA82D00474302A90019FF0EC90F00893FB7A007574068A54
:2016D400758B828A83C0041247A9AA82D004D005D006D00774302A9001A1F08C02EA30E0A7
:2016F4000D90019D7420F09001A3E4F0800C90019D740DF09001A37420F090019D75F00099
:20171400C007C006C005C0041202E2D004D005D006D0070C021669904C5E75F080C007C020
:2017340006C0051202E2D005D006D0078D828E838FF01202E2755F7375604C756180755D2D
:2017540032755E01904BD475F080020D92900001E4F0D231120EB74001229048A075F0803B
:201774001202E2755F8475604C756180755D32755E01904BD475F080020D92755800755FE2
:201794009F75604C756180755D0F755E02904C9575F080120D9250637402B5595E90011C20
:2017B400E024D075F00AA4FF90011DE02F24D0F542AE427F0075740C8F758E828F83124764
:2017D400A9AE828E4390011FE024D075F00AA4FF900120E02F24D0F541900122E024D075CF
:2017F400F00AA4FF900123E02F24D0F54085411E85401F8542821201C5D322C3227F007595
:201814005F8F756048756180755D0F755E01904CB075F080C007120D92D0074003021A2E51
:20183400755FBE75604C756180755D0F755E01904CB475F080C007120D92D0074003021AB3
:201854002E90F003E4937003021A2E755FDA75604C756180755D0F755E01904CCF75F08025
:20187400C007120D92D0074003021A2E755FF675604C756180755D0F755E01904CEB75F056
:2018940080C007120D92D0074003021A2E755806755F1375604D756180755D0F755E029060
:2018B4004D0875F080C007120D92D0074003021A2E7401B559028003021A2E7E007D00EDC4
:2018D4002413F582E43401F5830DE0FCBC2C060EBE0300500ABD0B00500543C11080E0EE36
:2018F40024FD4003021A2E8D060EEE3395E0FCEE2413F582EC3401F583E0FEBE2C15ED04F0
:20191400FEED2413F582E43401F583E0FC24D0F5428029ED04FCED2413F582E43401F583C0
:20193400E024D075F00AA4FDEC04FEEC2413F582E43401F583E0FC24D02DF5420E8E050DB4
:20195400ED3395E0FCED2413F582EC3401F583E0FDBD2C15EE04FDEE2413F582E43401F53A
:2019740083E0FC24D0F5418029EE04FCEE2413F582E43401F583E024D075F00AA4FEEC0431
:20199400FDEC2413F582E43401F583E0FC24D02EF541ED04FEFD0DED3395E0FCED2413F534
:2019B40082EC3401F583E0FDBD2C12EE2413F582E43401F583E0FD24D0F5408026EE04FD58
:2019D400EE2413F582E43401F583E024D075F00AA4FEED2413F582E43401F583E0FD24D0E4
:2019F4002EF540AD427E0074072DFDE43EFEC374179D74808EF063F08095F05007E54224E7
:201A1400EFFE8006AD4274072DFE8E4285411E85401F8542821201C57F01EF24FF92167542
:201A340058002220A002C322755F3075604D756180755D0F755E02904D2575F080120D92A7
:201A54005036755F5475604D756180755D0F755E01904D4175F080120D92501C755F7975B5
:201A7400604D756180755D0F755E01904D6575F080120D925002D322C322C027C0E0C0F05F
:201A9400C082C083C007C006C005C004C003C002C001C000C0D075D010209803022669431D
:201AB400C110855655E55A2404FEE43401FF8E828F83E599F0E55824F8500302265CE55897
:201AD400240B83F582E558240C83F583E473F24D4D8C5CA37B0A1A222222262320258E8250
:201AF4008F83E0FDBD22028003021CB7AC5A7D00740C2CF582E43DF58375740D8D75C0179C
:201B1400C016C015C01475D0001247A975D010AA82AB83D014D015D016D017EA2404F5821D
:201B3400EB3401F583E0FBBB20028003021CB7740B2CF582E43DF58375740D757500C01777
:201B5400C016C015C01475D0001247A975D010AA82AB83D014D015D016D017EA2404F582DD
:201B7400EB3401F583E0FBBB3A028003021CB7740A2CF582E43DF58375740D757500C0171E
:201B9400C016C015C01475D0001247A975D010AA82AB83D014D015D016D017EA2404F5829D
:201BB400EB3401F583E0FBBB4B028003021CB774092CF582E43DF58375740D757500C017CE
:201BD400C016C015C01475D0001247A975D010AA82AB83D014D015D016D017EA2404F5825D
:201BF400EB3401F583E0FBBB4C028003021CB774082CF582E43DF58375740D757500C0178E
:201C1400C016C015C01475D0001247A975D010AA82AB83D014D015D016D017EA2404F5821C
:201C3400EB3401F583E0FBBB43028003021CB774072CF582E43DF58375740D757500C01757
:201C5400C016C015C01475D0001247A975D010AA82AB83D014D015D016D017EA2404F582DC
:201C7400EB3401F583E0FBBB433974062CF582E43DF58375740D757500C017C01675D0001E
:201C94001247A975D010AC82AD83D016D017EC2404F582ED3401F583E0FDBD2B06755802EF
:201CB40002265C8E828F83E0FDBD3A028003021E08AC5A7D00740C2CF582E43DF5837574C1
:201CD4000D8D75C017C016C015C01475D0001247A975D010AA82AB83D014D015D016D017FF
:201CF400EA2404F582EB3401F583E0FBBB49028003021E08740B2CF582E43DF58375740D72
:201D1400757500C017C016C015C01475D0001247A975D010AA82AB83D014D015D016D017E3
:201D3400EA2404F582EB3401F583E0FBBB54028003021E08740A2CF582E43DF58375740D27
:201D5400757500C017C016C015C01475D0001247A975D010AA82AB83D014D015D016D017A3
:201D7400EA2404F582EB3401F583E0FBBB4D028003021E0874092CF582E43DF58375740DEF
:201D9400757500C017C016C015C01475D0001247A975D010AA82AB83D014D015D016D01763
:201DB400EA2404F582EB3401F583E0FBBB434574082CF582E43DF58375740D757500C01761
:201DD400C01675D0001247A975D010AC82AD83D016D017EC2404F582ED3401F583E0FDBD93
:201DF4002B12904D8B75F08075D0001202E275D01002265C8E828F83E0FDBD2002800302CE
:201E14001F9BAC5A7D00740C2CF582E43DF58375740D8D75C017C016C015C01475D0001210
:201E340047A975D010AA82AB83D014D015D016D017EA2404F582EB3401F583E0FBBB3A0266
:201E54008003021F9B740B2CF582E43DF58375740D757500C017C016C015C01475D00012E7
:201E740047A975D010AA82AB83D014D015D016D017EA2404F582EB3401F583E0FBBB4C0214
:201E94008003021F9B740A2CF582E43DF58375740D757500C017C016C015C01475D00012A8
:201EB40047A975D010AA82AB83D014D015D016D017EA2404F582EB3401F583E0FBBB4702D9
:201ED4008003021F9B74092CF582E43DF58375740D757500C017C016C015C01475D0001269
:201EF40047A975D010AA82AB83D014D015D016D017EA2404F582EB3401F583E0FBBB4D0293
:201F14008003021F9B74082CF582E43DF58375740D757500C017C016C015C01475D0001229
:201F340047A975D010AA82AB83D014D015D016D017EA2404F582EB3401F583E0FBBB434717
:201F540074072CF582E43DF58375740D757500C017C01675D0001247A975D010AC82AD832F
:201F7400D016D017EC2404F582ED3401F583E0FDBD2B14300B0302265C053DC209C207C228
:201F94000675580302265C8E828F83E0FDBD4B59AC5A7D00740C2CF582E43DF58375740D3E
:201FB4008D75C017C01675D0001247A975D010AC82AD83D016D017EC2404F582ED3401F5F5
:201FD40083E0FDBD4F23A22CB3922BC22CE53E700302265C753E00904D6575F08075D000F9
:201FF4001202E275D01002265C8E828F83E0FDBD5402800302265CAC5A7D00740C2CF5823F
:20201400E43DF58375740D8D75C015C01475D0001247A975D010AA82AB83D014D015EA24A5
:2020340004F582EB3401F583E0FBBB4F02800302265C740B2CF582E43DF58375740D7575F0
:202054000075D0001247A975D010AC82AD83EC2404F582ED3401F583E0FDBD4E02800302DE
:20207400265CD22C02265C8E828F83E0FDBD2002800302265CAC5A7D00740C2CF582E43D9C
:20209400F58375740D8D75C015C01475D0001247A975D010AA82AB83D014D015EA2404F54D
:2020B40082EB3401F583E0FBBB3A02800302265C740B2CF582E43DF58375740D757500C0BE
:2020D40015C01475D0001247A975D010AA82AB83D014D015EA2404F582EB3401F583E0FB48
:2020F400BB5A02800302265C740A2CF582E43DF58375740D757500C015C01475D0001247CD
:20211400A975D010AA82AB83D014D015EA2404F582EB3401F583E0FBBB5402800302265C76
:2021340074092CF582E43DF58375740D757500C015C01475D0001247A975D010AA82AB8353
:20215400D014D015EA2404F582EB3401F583E0FBBB5402800302265C74082CF582E43DF559
:202174008375740D757500C015C01475D0001247A975D010AA82AB83D014D015EA2404F579
:2021940082EB3401F583E0FBBB5502800302265C74072CF582E43DF58375740D757500C0C6
:2021B40015C01475D0001247A975D010AA82AB83D014D015EA2404F582EB3401F583E0FB67
:2021D400BB5302800302265C74062CF582E43DF58375740D757500C015C01475D0001247F7
:2021F400A975D010AA82AB83D014D015EA2404F582EB3401F583E0FBBB5002800302265C9A
:202214008C828D83A3A3A3A3A375740D75750075D0001247A975D010AC82AD83EC2404F57A
:2022340082ED3401F583E0FDBD2A02800302265C755B0075580102265C740DB59902801A14
:2022540074E2255B4014AD5B055BED2413F582E43401F583E599F002265CAD5B1DED3395E0
:20227400E0FCED2413F582EC3401F583E4F0855859F558D22B02265C30095DE53E701074B5
:202294000DB59902800302265C75580502265C740AB53E0B7422B59906753E0002265C20B3
:2022B400060EE53E90482C93FDB599028002D20630080F20070EE53E90F01293FDB5990284
:2022D4008002D207053E20060302265C20070302265C75580002265C8E828F83E0FDBD34B0
:2022F400028003022393AC5A7D00740C2CF582E43DF58375740D8D75C015C01475D0001256
:2023140047A975D010AA82AB83D014D015EA2404F582EB3401F583E0FBBB3863740B2CF54F
:2023340082E43DF58375740D757500C015C01475D0001247A975D010AA82AB83D014D01526
:20235400EA2404F582EB3401F583E0FBBB2B30740A2CF582E43DF58375740D75750075D078
:20237400001247A975D010AC82AD83EC2404F582ED3401F583E0FDBD2205D209753E0174AB
:202394000DB59902800302265C75580002265C300A35743BB599028021740DB59902801AFA
:2023B4007460253E4014AD3E053EED2401F582E43400F583E599F002265C753E00C20A7551
:2023D4005800D20B02265C8E828F83E0FDBD2C0280030224EFAC5A7D00740C2CF582E43DE7
:2023F400F58375740D8D75C015C01475D0001247A975D010AA82AB83D014D015EA2404F5EA
:2024140082EB3401F583E0FBBB430280030224EF740B2CF582E43DF58375740D757500C0C0
:2024340015C01475D0001247A975D010AA82AB83D014D015EA2404F582EB3401F583E0FBE4
:20245400BB550280030224EF740A2CF582E43DF58375740D757500C015C01475D0001247DD
:20247400A975D010AA82AB83D014D015EA2404F582EB3401F583E0FBBB446074092CF582AC
:20249400E43DF58375740D757500C015C01475D0001247A975D010AA82AB83D014D015EA5D
:2024B4002404F582EB3401F583E0FBBB502D74082CF582E43DF58375740D75750075D000E1
:2024D4001247A975D010AC82AD83EC2404F582ED3401F583E0FDBD2A0280047D0080027D48
:2024F40001ED24FF920A740DB59902800302265C75580002265C300C3B7420B59902801AFD
:202514007460253E4014AD3E053EED2401F582E43400F583E599F002265CC20CC20EE53E22
:202534002401F582E43400F583E4F0F53EF558D22B02265C8E828F83E0FEBE3D0280030204
:20255400265CAE5A7F00740C2EF582E43FF58375740D8F75C017C01675D0001247A975D06B
:2025740010AC82AD83D016D017EC2404F582ED3401F583E0FDBD6802800302265C740B2E2F
:20259400F582E43FF58375740D757500C017C01675D0001247A975D010AC82AD83D016D0D8
:2025B40017EC2404F582ED3401F583E0FDBD6E02800302265C740A2EF582E43FF583757413
:2025D4000D757500C017C01675D0001247A975D010AC82AD83D016D017EC2404F582ED34D0
:2025F40001F583E0FDBD696074092EF582E43FF58375740D757500C017C01675D000124703
:20261400A975D010AC82AD83D016D017EC2404F582ED3401F583E0FDBD682D74082EF58208
:20263400E43FF58375740D75750075D0001247A975D010AE82AF83EE2404F582EF3401F567
:2026540083E0FFBF6302D20C055AE55A24F35003755A00C298D0D0D000D001D002D003D01B
:2026740004D005D006D007D083D082D0F0D0E0D02732C20D900001E0FFBF3F02800890002B
:2026940002E0FFBF3F06200603021761900002E0FFBF4103022E55BF4303022C42BF450329
:2026B400022EE2BF4802803EBF50030232C4BF5303022D04BF54030233F8BF6103022E55F0
:2026D400BF6303022C42BF6503022EE2BF68028015BF70030232C4BF7303022D04BF740392
:2026F4000233F802374C900004E0FFBF2B0280030228ED900005E0FEC3742F9EE433FD7020
:202714000302285DBE3300400302285D900006E0FC24D0400302285DBC3A00400302285D70
:20273400900007E0FB24D0400302285DBB3600400302285D900008E0F56924D04003022863
:202754005D74C62569500302285D90000AE0F56524D0400302285D74CD2565500302285D2F
:2027740090000BE0F56624D0400302285D74C62566500302285D90000CE0F56724D0400303
:2027940002285D74CA2567500302285D90000DE0F56824D0400302285D74C6256850030246
:2027B400285D8E0274022AF56AAA65C39A75F00AA42404F56A25422CAC66C39CFAAC677466
:2027D400062CC39B75F00AA42568AB69C39BFC8A6B756C00AA417B00743C2AF56DE43BF5BB
:2027F4006E8C027B00C3E56D9AE56E64808BF063F08095F0E433FA7B00E56BC39AF582E500
:202814006C9BF58375740C8B75C0041247A9AA82D0048A45AB4174782BC39CFB7C007574D9
:202834003C8C758B828C831247A9AB828B469002001202468546289003FE12022B8545288A
:202854009003FF12022B022BE1ED70030228E8BE360040030228E8900006E0FD24D050749F
:20287400BD3A00506FEE24D075F00AA42D24D0FEAD45740C2DFDC3E5469EE433FCEDC39CF3
:20289400FD7C0075740C8C758D828C83C0061247A9AC82D0068C45AC467D00743C2CFCE4CF
:2028B4003DFD7B00ECC39EF582ED9BF58375743C8B751247A9AD828D4690020012024685F1
:2028D40046289003FE12022B8545289003FF12022B022BE1D20D022BE1BF2D58900005E02F
:2028F400FE24D0504ABE36005045900006E0FD24D0503CBD3A005037EE24D075F00AA4AC9D
:20291400462C2D24D0F54624C450090545E546FE24C4F5469002001202468546289003FE8E
:2029340012022B8545289003FF12022B022BE1D20D022BE1900005E0FEBE4E028003BE6E56
:202954002130060302377212025E9000A37401F012029978777600787876187879763C021F
:202974002BE1BE46028003BE661630060302377212025E9000A3E4F0120299C2C2022BE1D8
:20299400BF2C028003022A5CBE6702800DBE47028008BE61028003BE4116C2C27877760046
:2029B40012178F9216787876187879763C022BE1EE24D04003022A57BE33004003022A5715
:2029D400900006E0FD24D0507ABD3A005075900007E0FC24D0506CBC36005067900008E0B2
:2029F400FB24D0505EBB3A0050598E02EA24D075F00AA4FA2D24D0FDBD18005041C2C2788D
:202A14007776008D42EC24D075F00AA42B24D0F541AC427D0075740C8D758C828D831247C5
:202A3400A9AC828C4385411E85401F8542821201C5C216787876187879763C022BE1D20D0D
:202A5400022BE1D20D022BE1EF24D04003022BDFBF33004003022BDFEE24D04003022BDFC3
:202A7400BE3A004003022BDF900006E0FD24D04003022BDFBD36004003022BDF900007E08C
:202A9400FC24D04003022BDFBC3A004003022BDF7B00EF24D0F574EB34FFF57590000AC0F5
:202AB40006C005C0041246FAAB82AF83D004D005D0067A00EE2BFBEA3FFFEB24D0F582EF48
:202AD40034FFF58375740C8A75C005C0041247A9AE82D004D0058E45ED24D075F00AA42CEC
:202AF40024D0F5469002001202468546289003FE12022B8545289003FF12022B900009E0A8
:202B1400FFBF6702800DBF47028008BF61028003BF412A90F003E4937003022BE112178F5B
:202B3400921690F011E4937003022BE1C2C278777600787876187879763C022BE1EF24D055
:202B54004003022BE1BF33004003022BE190000AE0FE24D05077BE3A00507290000BE0FD68
:202B740024D05069BD3600506490000CE0FC24D0505BBC3A005056EF24D075F00AA42E24F2
:202B9400D0FFBF18005040C2C2787776008F42ED24D075F00AA42C24D0F541AE427F007503
:202BB400740C8F758E828F831247A9AE828E4385411E85401F8542821201C5787876187879
:202BD40079763CC2168006D20D8002D20D300D2A30070ED232904D9A75F080120F3B023777
:202BF40072D232904DAD75F080120F3BC232904D9A75F080120F3B023772120937921A1219
:202C1400087792C430070ED232904DD375F080120F3B023772D232904DED75F080120F3BD7
:202C3400C232904DD375F080120F3B023772900005E0FFBF65028003BF452A30070ED2335B
:202C5400904E1A75F0801213F8023772D233904E3275F0801213F8C233904E1A75F08012C0
:202C740013F8023772BF6E028003BF4E0E12025E9000A57401F0120299804BBF660280038F
:202C9400BF460D12025E9000A5E4F01202998036900003E06030900004E0602A30070ED218
:202CB40032904D9A75F080120F3B023772D232904DAD75F080120F3BC232904D9A75F0804C
:202CD400120F3B02377230070ED232904E5D75F080120F3B023772D232904E7175F080121F
:202CF4000F3BC232904E5D75F080120F3B023772900005E0FFBF7902800DBF59028008BFBF
:202D140044028003BF642A30070DD232904E9875F080120F3B8016D232904EB575F0801266
:202D34000F3BC232904E9875F080120F3BC2AF80FEBF67028008BF47028003022DF89000A9
:202D540009E0FE24D05073BE3A00506E12025E900009E024D0FE9000A7F08E4990000BE0B5
:202D7400FE24D05028BE3300502390000CE0FD24D0501ABD3A005015EE24D075F00AA42D1C
:202D940024D0FEBE180050059000A8EEF012029930070ED232904EE575F080120F3B0237B9
:202DB40072D232904F0475F080120F3BC232904EE575F080120F3B02377230070ED23290E9
:202DD4004F3675F080120F3B023772D232904F5775F080120F3BC232904F3675F080120FE4
:202DF4003B023772BF69028003BF492B30070DD232904F8B75F080120F3B8016D232904F8D
:202E1400AD75F080120F3BC232904F8B75F080120F3BC2A002377230070ED232904FE27585
:202E3400F080120F3B023772D232904FFB75F080120F3BC232904FE275F080120F3B0237B9
:202E540072900005E0FF24CF505ABF3A005055900007E0FF24CF504CBF3A00504712025E36
:202E7400900005E024D0C454F0FF900007E024D042079000AAEFF012029930070ED232907B
:202E9400502775F080120F3B023772D23290504D75F080120F3BC23290502775F080120F48
:202EB4003B02377230070ED23290508675F080120F3B023772D2329050A375F080120F3BB5
:202ED400C23290508675F080120F3B023772900005E0FFBF58028003BF783512025E90001A
:202EF400ABE4F012029930070ED2339050D375F0801213F8023772D2339050EE75F080121E
:202F140013F8C2339050D375F0801213F802377212025E1202999000ABE4F09001A6740460
:202F3400F09001A6E0FF2401F582E43400F583E0FE24D0400302324ABE3300400302324A06
:202F54008F057F0074012DFBE43FFCEB2401F582EC3400F583E0FC24D0400302324A740169
:202F74002DFBE43FFCEB2401F582EC3400F583E0FCBC3A00400302324A74022DFBE43FFC87
:202F9400EB2401F582EC3400F583E0FC24D0400302324A74022DFBE43FFCEB2401F582EC3D
:202FB4003400F583E0FCBC3600400302324A74032DFBE43FFCEB2401F582EC3400F583E005
:202FD400FC24D0400302324A74032DFBE43FFCEB2401F582EC3400F583E0FCBC3A0040033A
:202FF40002324A74052DFBE43FFCEB2401F582EC3400F583E0FC24D0400302324A74052D29
:20301400FBE43FFCEB2401F582EC3400F583E0FCBC3300400302324A74062DFBE43FFCEB2B
:203034002401F582EC3400F583E0FC24D0400302324A74062DFBE43FFCEB2401F582EC344F
:2030540000F583E0FCBC3A00400302324A74072DFBE43FFCEB2401F582EC3400F583E0FC94
:2030740024D0400302324A74072DFBE43FFCEB2401F582EC3400F583E0FCBC360040030293
:20309400324A74082DFBE43FFCEB2401F582EC3400F583E0FC24D0400302324A74082DFB89
:2030B400E43FFCEB2401F582EC3400F583E0FCBC3A00400302324A8E7475750090000AC0E5
:2030D40007C006C0051246FAAB82AC83D005D006D007C00674012DFAE43FFEEA2401F58211
:2030F400EE3400F583E07A002BFBEA3CFCC3EB9428EC64809482D006400302324AC006745F
:20311400052DFBE43FFCEB2401F582EC3400F583E0FC8C7475750090000AC007C006C0057E
:203134001246FAAB82AC83D005D006D00774062DFAE43FFEEA2401F582EE3400F583E07A0F
:20315400002BFBEA3CFCC3EB9428EC64809482D006400302324AED24FCF582EF34FFF5830E
:20317400757405757500C007C006C0051247DFAB82D005D006D00774092BFC3395E0FAECF8
:2031940024A3F56BEA3400F56CEE24D075F00AA4F56D74012DFCE43FFEEC2401F582EE34B5
:2031B40000F583E0256D24D075F006A4FE74022DFAE43FFCEA2401F582EC3400F583E02E28
:2031D40024D0856B82856C83F0740A2BFB3395E0FEEB24A3FBEE3400FE74052DFAE43FFC3B
:2031F400EA2401F582EC3400F583E024D075F00AA4F56D74062DFAE43FFCEA2401F582EC22
:203214003400F583E0256D24D075F006A4FC74072DFDE43FFFED2401F582EF3400F583E0B2
:203234002C24D08B828E83F09000ABE0FF0F0F9000ABEFF080069001A6744BF09001A6E077
:20325400240AF0E0FFBF4B005003022F359000ABE0603390000012024612029930070ED23E
:203274003390511C75F0801213F8023772D23390513C75F0801213F8C23390511C75F08062
:203294001213F802377230070ED23290516F75F080120F3B023772D23290519175F0801260
:2032B4000F3BC23290516F75F080120F3B02377230060302377290F011E493700ED2329082
:2032D40051C675F080120F3B023772900006E0FFBF54028003BF7410C2C2D2329051DB75CE
:2032F400F080120F3B023772BF4E028003BF6E2F90F011E493FEBE011812025E9000B4744E
:2033140002F012029978777600787876187879763CD2329051E575F080120F3B023772BFFF
:2033340046028003BF662590F011E493FEBE020EC2C212025E9000B47401F0120299D23240
:203354009051EE75F080120F3B023772900005E0FE24D040030233EABE33005079EF24D038
:203374005074BF3A00506F900007E0FD24D05066BD36005061900008E0FC24D05058BC3AF5
:20339400005053209242D2C2EE24D075F00AA42F24D0F582ED24D075F00AA42C24D0F573E3
:2033B40012464A9005DC1203D030920ED2329051F775F080120F3B023772D23290520C7502
:2033D400F080120F3B023772D23290522E75F080120F3B023772D23290525475F080120F22
:2033F4003B023772300603023741900004E0FFBF47028003BF671D12025E9000A67401F0D2
:20341400120299121811D23290526B75F080120F3B023741BF41028003BF611B12025E90E2
:2034340000A6E4F0120299C216D23290527475F080120F3B023741BF2B02800302358790A7
:203454000005E0FEBE38028003023587900006E0FEBE34028003023587900007E0FEBE3030
:20347400005003023579EE24C65003023579900008E0FEBE30005003023579EE24C65003C8
:20349400023579900009E0FEBE30005003023579EE24C6500302357990000AE0FEBE3000BF
:2034B4005003023579EE24C6500302357990000BE0FEBE30005003023579EE24C650030283
:2034D400357990000CE0FEBE30005003023579EE24C6500302357990000DE0FEBE3000502B
:2034F40003023579EE24C6500302357990000EE0FEBE3000406FEE24C6406A90000FE0FE12
:20351400BE30004060EE24C6405B12025E9000B5E4F07E018E0574122DFD3395E0FCED2494
:20353400A3FDEC3400FC8E027B0074062AFAE43BFBEA2401F582EB3400F583E08D828C83DD
:20355400F00EBE0A0040CD9000C0E0FEBE02059000C0E4F0120299D23290527D75F0801266
:203574000F3B023741D23290529B75F080120F3B023741BF300280030236A1900005E0FE77
:20359400BE30005003023693EE24C65003023693900006E0FEBE30005003023693EE24C6BD
:2035B4005003023693900007E0FEBE30005003023693EE24C65003023693900008E0FEBE2E
:2035D40030005003023693EE24C65003023693900009E0FEBE30005003023693EE24C650E8
:2035F4000302369390000AE0FEBE30005003023693EE24C6500302369390000BE0FEBE3008
:20361400005003023693EE24C6407490000CE0FEBE3000406AEE24C6406590000DE0FEBE24
:203634003000405BEE24C6405612025E7E008E0574122DFD3395E0FCED24A3FDEC3400FC99
:203654008E027B0074032AFAE43BFBEA2401F582EB3400F583E08D828C83F00EBE0A004075
:20367400CD9000C0E0FEBE02059000C0E4F0120299D23290527D75F080120F3B023741D2B5
:203694003290529B75F080120F3B023741BF78028003BF581A12025E9000C07402F0120283
:2036B40099D2329052C075F080120F3B02374190F01DE493FFBF0224900005E0FFBF6E0261
:2036D400800DBF4E028008BF66028003BF465ED2329052CF75F080120F3B8051900005E069
:2036F400FFBF4E028003BF6E1912025E9000C07401F0120299D23290530175F080120F3BE2
:20371400802BBF46028003BF661812025E9000C0E4F0120299D23290531075F080120F3BA8
:20373400800BD23290531F75F080120F3B90F01DE493FF139208802630070DD23290533CD6
:2037540075F080120F3B8016D23290534F75F080120F3BC23290533C75F080120F3B43C1AF
:20377400107F00EF2401FDE43400FE8D828E83E0600FEF2401F582E43400F5830FE4F08092
:20379400E2227F008F6F8F937594FF8F928F918F957596FF8FB28FB175B30275B41C8FCAB2
:2037B4008FC98FC075B0FF8FA0759D088F978FBD75BC83D2ADD2AF9000C574FAF09000C6B2
:2037D400741EF09000C77405F09000A223F0755102755002754F02755205755301C007128B
:2037F4000A0912025ED0079000A3E024FE50069000A37401F09000A5E024FE50059000A575
:20381400E4F09000A6E024FE50069000A67401F09000A7E024F650069000A77401F09000E4
:20383400A8E024E850059000A8E4F09000AAE0FDC4540FFC7B001CBCFF011BC374089C7488
:20385400808BF063F08095F0500A740F5D4450FD9000AAF09000AAE0FD53050F7C001DBD38
:20387400FF011CC374089D74808CF063F08095F0500F9000AAE0FD74F05D4401FD9000AAC1
:20389400F09001A77401F09000ABE0FDBD0900502EED20E02A7C01C3ED9C401E8C037408E2
:2038B4002BFB3395E0FAEB24A3F582EA3400F583E0FBBB900050030C80DD9001A7ECF090E7
:2038D40001A7E0FCC3ED9C40129000AB7402F09000AC7424F09000AD746CF09001A7E4F034
:2038F4009000C0E0FDBD020050479000BFE07041FDBD0A0050368D0474122CFB3395E0FA27
:20391400EB24A3F582EA3400F583E0FBBB3000401B74122CFC3395E0FBEC24A3F582EB3419
:2039340000F583E0FC24C640030D80C59001A7EDF09001A7E0FDBD0A00500B9000BFE4F031
:203954009000C07402F09000C1E0FD24E750059000C1E4F03092079000B4E4F080129000E7
:20397400B4E0FD6005ED24FD50069000B47402F0C007120299D00790F3FEE493FD24C440C7
:203994000A90F3FFE493FD24F4501E900200C0071202467528009003FE12022B7528009040
:2039B40003FF12022BD007800E90F3FEE493F54690F3FFE493F545D2A2C0071202CAD007F7
:2039D40090F011E4936013C007124634D00778777600787876187879763CD20390F004E46B
:2039F40093F549C0071209F712056A751841751900751A40751B40751C00751D4090004258
:203A140075F040120135D007E54224E8400CE54124C44006E54024C45010751E00751F0067
:203A3400758200C0071201C5D007C0071200EED2A8D288751841751900751A40751B4075FA
:203A54001C00751D4090004275F040120135121811D007E54224F45007E54224F4FD80023F
:203A7400AD428D4390F01DE49313920875BC8BC007121A37D0075021D23290537575F08043
:203A9400C007120F3BD00730080FC23290537575F080C007120F3BD00790F006E493701524
:203AB400755405C00712025E9000A974FFF0120299D007800375543C75C16590F3FEE493B0
:203AD400B5460B90F3FFE493FDB54502801C900200C0071202468546289003FE12022B8543
:203AF40045289003FF12022BD007E5546004E552701B755200201A09C007120937921AD09F
:203B14000720C409C00712087792C4D007201703023BC420A0169000A2E014F0E0700D751F
:203B3400BC83D2A09000A2741EF0D2059000C4E0FDE0602B9000C2E07025ED149000C4F08D
:203B5400E0701C9000C3E09000C2F09000C47405F0C007120937921A12087792C4D0073000
:203B7400C4199000C6E0FDE06011ED149000C6F0E07008C2C4A2C492129210301A1790000E
:203B9400C7E0FDE0600FED149000C7F0E07006C21AC212C210E554600C90F011E4936003EE
:203BB4002092021554E54F6005301F02154FC21790F01EE493FDBD18005022C0071206D4A1
:203BD400D007E552701790F000E493601090F011E493FDBD0207C00712081BD00790F004B3
:203BF400E4936038E549703490F005E493FDB5422BE54124FA5025201A2220C41F90F0110C
:203C1400E4936003209215C2AF75280090000612022BD2A39007D01203D080FE9000C5E098
:203C34007026202E23D22ED23290539775F080C007120F3BD00730080FC23290539775F0F2
:203C540080C007120F3BD0079000C6E070329000C7E0702C202F29C2C4A2C4921AD22FD248
:203C7400329053B475F080C007120F3BD00730080FC2329053B475F080C007120F3BD007D7
:203C940020037374FB2541406D20161090F003E4936009C007121811D007801F7518417594
:203CB4001900751A40751B40751C00751D4090004275F040C007120135D007E54224F450E9
:203CD40007E54224F4FD8002AD428D4390F002E4936021D2329053CB75F080C007120F3B18
:203CF400D00730080FC2329053CB75F080C007120F3BD007D203E55224FA500302456CE5FC
:203D14005275F003A4903D1D73023D2F0240450241C40245250243AD023E9430054975BCF7
:203D34008BC205755800C007121811AC427D0075740C8D758C828D831247A9AC828C4312BD
:203D54001A37D0075021D2329053DC75F080C007120F3BD00730080FC2329053DC75F08035
:203D7400C007120F3BD007300B14C007122686904D6575F0801202E2D007C20B802F90F071
:203D940001E49360067CF97D5380047C017D548C2D8D2E752F80854530854631854032A2F3
:203DB400199201758280C0071205EBD007301622752DBC752E4B752F8085423085413185E1
:203DD4004032A21992017582C0C0071205EBD007804990F003E4936022752DCC752E4B75A2
:203DF4002F80854230854131854032A21992017582C0C0071205EBD0078020752DC4752ECD
:203E14004B752F80854230854131854032A21992017582C0C0071205EBD007E54F600302FC
:203E34004572C21C75543C9000C3E4F09000C2F09000C4F0755205755301C2C4A2C4921AFA
:203E5400C2C278777600102102800302457230081DD23290540975F080C007120F3BC232B4
:203E740090541D75F080120F3BD007024572D23290541D75F080C007120F3BD007024572BF
:203E9400101C02801E75543C05537404B5530990F011E49370020553E55324FB5003755318
:203EB40000C22A102602800875543C755300C22A102103023FE775543C855352755300C076
:203ED40007120937921A12087792C4D007E5527003024572758280C007120483E55275F035
:203EF40010A4243FFC744835F0FD7B808C828D838BF0120500D0077401B55202801A7402AD
:203F1400B5520280457403B55203023FA87404B55203023FC102457290F001E49360067C3E
:203F3400F97D5380047C017D548C2D8D2E752F80854530854631753200A21992017582C098
:203F5400C0071205EBD0070245723016067CBC7D4B801F90F003E493600B7570CC75714BC2
:203F740075728080097570C475714B757280AC70AD718C2D8D2E752F8085423085413185B7
:203F94004032A21992017582C01205EBAF4285416F02457290543375F080C0071205007566
:203FB40029007582C01203FDD007024572752D45752E54752F80753000753100753200A2D5
:203FD4001992017582C01205EBD2C2756F007F000245723016067CBC7D4B801990F003E46C
:203FF4009360087ACC7B4B7E8080067AC47B4B7E808A048B058C2D8D2E752F8085423085EE
:204014004131855432A21992017582C0C0071205EBE55375F010A4243FFD744835F0FE8D24
:204034002A8E2B752C8075828012040DD007024572AE5374072EFEAC537D007574028D752D
:204054008C828D83C007C0061247DFAC82D006EC2EF5297582C01203FDD007102603024111
:204074006675543CE55324FC5003024137E55375F003A490408B730240970240C30240F971
:20409400024111E54524F2501DAD457E0075740A8E758D828E83C0071247A9AD82AE83D08C
:2040B400078D45024137AE45740A2EF5458074E54524E950057545148069AD457E00757430
:2040D4000A8E758D828E83C0071247A9AD82AE83D007BD090CBE0009E545FE24F7F5458009
:2040F400420545803EE54624CE5009E546FE24CEF546802FAE46740A2EF54680260546AD6E
:20411400467E0075740A8E758D828E83C0071247A9E5828583F0D00745F07007E546FE24B9
:20413400F6F54690F001E49360067DF97E5380047D017E548D2D8E2E752F80854530854662
:2041540031753200A21992017582C0C0071205EBD007102102800975543CE553600215530B
:20417400101C0302457275543C0553E55324FC4003024572C0071204DB855253755205AD37
:20419400457E0075740C8E758D828E831247A9AD828D459002001202468546289003FE12AB
:2041B400022B8545289003FF12022BD007024572AE5374072EFEAC537D007574028D758CCE
:2041D400828D83C007C0061247DFAC82D006EC2EF5297582C01203FDD00790F003E493603E
:2041F40055E54F7051855253755205787876187879763C20161090F003E4936009C00712C8
:204214001811D007801F751841751900751A40751B40751C00751D4090004275F040C0074F
:20423400120135D007E54224F45007E54224F4FE8002AE428E4310260302434675543CE587
:204254005324FC5003024307E55375F003A4904266730242720242970242C90242E1EF2473
:20427400F250188F057E0075740A8E758D828E831247A9AD82AE838D0780788F06740A2E79
:20429400FF8070EF24E950047F1480678F057E0075740A8E758D828E83C0071247A9AD8231
:2042B400AE83D007BD090BBE00088F06EE24F7FF80410F803EE56F24CE5009E56FFE24CE3D
:2042D400F56F802FAE6F740A2EF56F8026056FAD6F7E0075740A8E758D828E83C0071247A0
:2042F400A9E5828583F0D00745F07007E56FFE24F6F56F3016067DBC7E4B801990F003E401
:204314009360087ACC7B4B7C8080067AC47B4B7C808A058B068D2D8E2E752F808F30856F93
:2043340031855432A21992017582C0C0071205EBD007102102800975543CE55360021553C5
:20435400101C0302457275543C0553E55324FC4003024572C0071204DBD007855253755230
:20437400058F42856F4185411E85401F854282C0071201C5AD427E0075740C8E758D828E6C
:20439400831247A9AD82AE83D0078D43C216787876187879763C024572AE5374072EFEAC77
:2043B400537D007574028D758C828D83C007C0061247DFAC82D006EC2EF5297582C0120341
:2043D400FDD007E54F7008855253755205C2C21026030244BF75543CE55324FC500302449B
:2043F400A0E55375F003A49043FF7302440B02443002446202447AEF24F250188F057E00D2
:2044140075740A8E758D828E831247A9AD82AE838D0780788F06740A2EFF8070EF24E95008
:20443400047F1480678F057E0075740A8E758D828E83C0071247A9AD82AE83D007BD090BF1
:20445400BE00088F06EE24F7FF80410F803EE56F24CE5009E56FFE24CEF56F802FAE6F74D0
:204474000A2EF56F8026056FAD6F7E0075740A8E758D828E83C0071247A9E5828583F0D0CA
:204494000745F07007E56FFE24F6F56F752D45752E54752F808F30856F31753200A21992AB
:2044B400017582C0C0071205EBD007102102800975543CE55360021553101C030245727570
:2044D400543C0553E55324FC4003024572755300856F738F82C00712464A9000641203D00A
:2044F400D0073092067D4D7E5480047D557E548D2D8E2E752F808F30856F31753200A21965
:2045140092017582C0C0071205EB1204DBD007804D101C02801FAE530E9000C3EEF0900042
:20453400C2EEF09000C47405F0855253F552C0071204DBD0071026028024AE537404C39E54
:20455400F553AE5374312EF582C0071204287582C0120483D007800675530075520043C16F
:2045740010023ACFC0E043C110E59A30E003539AFED0E032C027C0E0C0F0C082C083C00776
:20459400C006C005C004C003C002C001C000C0D075D00075BC83AFBD7876A60730021DBF14
:2045B40052005004C2A28058EF24915053C202D23290545D75F080120F3B8044BF5C005045
:2045D4003FD202C21AC2C453A00F90F3FEE493B5460B90F3FFE493FFB54502801890020034
:2045F4001202468546289003FE12022B8545289003FF12022BD23290547275F080120F3B2C
:2046140075BC8BD0D0D000D001D002D003D004D005D006D007D083D082D0F0D0E0D0273250
:20482C00303934393834373039380080901030206040C02020202020204558495400000088
:20484C0000000020204348494E482047494F204B494D00204348494E482047494F2054485D
:20486C005543002020202043414E48204B494D000000002020202054455354204D50330049
:20488C0000000020415349412047505320332E332E35320044482C4F4E20646F6E672068D6
:2048AC006F2063686179202D2044482C4F464620646F6E6720686F2064756E670A44482C69
:2048CC002B6D6D206B696D2070687574206C6563682064756F6E67206D6D20706875742091
:2048EC002D2044482C2D6D6D206C65636820616D206D6D20706875740A44482C6B6B6B6BAD
:20490C002C74747474206368696E682067696F206B696D2067696F20746875632067696F13
:20492C0020747520646F6E67207468617920747474742062616E67206175746F0A42432C88
:20494C004F4E2062616F2063616F206461752067696F202D2042432C4F46462074617420CE
:20496C0062616F2063616F206461752067696F0A4243206775692062616F2063616F202D07
:20498C002042432C44454E2042432C4D50332062616F2063616F2064656E2062616F2063F1
:2049AC00616F206D70330A52532072657365743A52532C737973207265736574206865203F
:2049CC0074686F6E67202D2052532C73696D20726573657420677073206D6F64756C650AC7
:2049EC0052532C472C6E6E2C6767206D6F69206E6E206E6761792076616F2067696F206715
:204A0C00673A303620626F2064696575206B6869656E2072657365740A44454E2C584F4164
:204A2C0020786F6120746F616E20626F2074686F6E6720736F2064656E2074617420646554
:204A4C006E0A44454E2C747474742C6D6D6D6D20783A20736F206361702067696F207461A3
:204A6C00742F6D6F20747474742C6D6D6D6D2067696F207461742F6D6F2064656E0A4D500A
:204A8C00332C582C616C6C20786F6120746174206361202D204D70332C582C61612C62627A
:204AAC002C63632C2E2E2E20786F61206361632067696F2061612C62622C63630A4D503396
:204ACC002C542C676770702C32322C31312C2E2E2E206C6170206C616920746F6920646198
:204AEC00203132206C616E20676770703A67696F20706875742070686174206E6861630A13
:204B0C0032322C3131207468752074752062616920686174206C616E206C756F742074722F
:204B2C006F6E6720746875206D7563203220766120310A44542C307878787878787878787F
:204B4C002044542C2B3834787878787878787878207468617920646F6920736F2064696510
:204B6C006E2074686F6169207068750A44542C584F4120786F6120736F206469656E2074A5
:204B8C00686F6169207068750A44542C4F4E2044542C4F4646202D206261742074617420A4
:204BAC006469656E2074686F6169207068750A0020204750532020002041534941202000B5
:204BCC0020202044532020001A00544B3C31303030204B2042414F43414F0041542B434D5C
:204BEC0047533D2200220D0041542B435553443D312C222A31303123222C0D0020204B49C8
:204C0C00454D2054524120544B202020002C000D544B204368696E683D000D546169206BFB
:204C2C00686F616E20636F6E2064756F692031303030300044414E47204755492042414F6F
:204C4C002043414F000D47696F204D6F2044656E3A000D4B686F6E6720636F2067696F2067
:204C6C006D6F2064656E004755492042414F2043414F2044454E2000204755492048554F03
:204C8C004E472044414E20200041542B43434C4B3F0D00202053454E44494E472043434CDD
:204CAC004B20200041540D0041542B4950523D300D00202053454E44494E47204950522023
:204CCC0020200041542B434C54533D310D00202053454E44494E4720434C545320200041F8
:204CEC00542B4346554E3D300D00202053454E44494E47204346554E3020200041542B437C
:204D0C0046554E3D310D00202053454E44494E47204346554E3120200041542B434D474641
:204D2C003D310D00202053454E44494E4720434D474620200041542B434E4D493D312C3175
:204D4C002C302C302C310D00202053454E44494E4720434E4D4920200041542B434D47447B
:204D6C00413D2244454C20414C4C220D00202053454E44494E4720434D4744412020004145
:204D8C00542B434D474C3D22414C4C220D000D6C656E68206B686F6E6720686F70206C65BB
:204DAC00000D6C656E68206B686F6E6720686F70206C650D50686F6E652070687520677534
:204DCC0069206C656E68000D6368696E6820646F6E6720686F207468616E6820636F6E67C7
:204DEC00000D6368696E6820646F6E6720686F207468616E6820636F6E670D50686F6E65D0
:204E0C002070687520677569206C656E68000D62616F2063616F2064656E207468616E68D1
:204E2C0020636F6E67000D62616F2063616F2064656E207468616E6820636F6E670D5068F7
:204E4C006F6E652070687520677569206C656E68000D62616F2063616F207468616E682086
:204E6C00636F6E67000D62616F2063616F207468616E6820636F6E670D50686F6E6520705C
:204E8C00687520677569206C656E68000D6B686F6920646F6E67206C616920626F20646949
:204EAC006575206B6869656E000D6B686F6920646F6E67206C616920626F2064696575202F
:204ECC006B6869656E0D50686F6E652070687520677569206C656E68000D646174206E67DC
:204EEC0061792067696F207265736574207468616E6820636F6E67000D646174206E676194
:204F0C00792067696F207265736574207468616E6820636F6E670D50686F6E6520706875FC
:204F2C0020677569206C656E68000D646174206E6761792067696F207265736574206B688F
:204F4C006F6E6720686F70206C65000D646174206E6761792067696F207265736574206B67
:204F6C00686F6E6720686F70206C650D50686F6E652070687520677569206C656E68000D74
:204F8C0067736D206D6F64756C65206B686F6920646F6E67206C61692073617520313073D2
:204FAC00000D67736D206D6F64756C65206B686F6920646F6E67206C616920736175203148
:204FCC0030730D50686F6E652070687520677569206C656E68000D6C656E682072657365FF
:204FEC0074206B686F6E6720686F70206C65000D6C656E68207265736574206B686F6E6774
:20500C0020686F70206C650D50686F6E652070687520677569206C656E68000D74686179C9
:20502C0020646F692067696F20736163207861206163717569207468616E6820636F6E672C
:20504C00000D7468617920646F692067696F20736163207861206163717569207468616E78
:20506C006820636F6E670D50686F6E652070687520677569206C656E68000D4C656E6820A1
:20508C00736163206163717569206B686F6E6720686F70206C65000D4C656E682073616320
:2050AC00206163717569206B686F6E6720686F70206C650D50686F6E6520706875206775B2
:2050CC0069206C656E68000D786F6120746174206D6F2064656E207468616E6820636F6EF0
:2050EC0067000D786F6120746174206D6F2064656E207468616E6820636F6E670D50686FFE
:20510C006E652070687520677569206C656E68000D677569206C656E6820746174206D6F99
:20512C002064656E207468616E6820636F6E67000D677569206C656E6820746174206D6F94
:20514C002064656E207468616E6820636F6E670D50686F6E652070687520677569206C6528
:20516C006E68000D74686F6E6720736F20746174206D6F2064656E206B686F6E6720686F34
:20518C0070206C65000D74686F6E6720736F20746174206D6F2064656E206B686F6E672060
:2051AC00686F70206C650D50686F6E652070687520677569206C656E68000D4B686F6E6707
:2051CC0020436F204D6F64756C65204D7033000D44756E67204D7033000D426174206D708F
:2051EC0033000D546174206D7033000D54657374206D7033207468616E6820636F6E670033
:20520C000D6B686F6E672064756E672067696F207068617420686F6163206D7033206C6F7E
:20522C0069000D4D70332064616E672063686F69206E686163206E656E206368756120740F
:20524C0068652074657374000D4C656E68204D5033206B686F6E6720686F70206C65000D75
:20526C0042617420475053000D54617420475053000D6768692070686F6E652070687520B5
:20528C006D6F69207468616E6820636F6E67000D7468617920646F692070686F6E652070DA
:2052AC006875206B686F6E67207468616E6820636F6E67000D586F612070686F6E652070D5
:2052CC006875000D6C656E68206B686F6E67207468616E6820636F6E6720646F20636875AD
:2052EC0061206B686F692074616F2070686F6E6520706875000D4261742070686F6E6520ED
:20530C00706875000D5461742070686F6E6520706875000D4C656E682070686F6E652070F9
:20532C006875206B686F6E6720686F70206C65000D4C656E68206B686F6E6720686F7020A3
:20534C006C65000D4C656E68206B686F6E6720686F70206C650D50686F6E652070687520B9
:20536C00677569206C656E68000D626F2064696575206B6869656E206B686F6920646F6E15
:20538C00672073616E2073616E67000D70686174206869656E206C6F69206D61742078751E
:2053AC006E672067696179000D70686174206869656E206C6F6920646F632063616D000DAC
:2053CC0062616F2063616F206461752067696F000D67736D206D6F64756C652072657365BA
:2053EC0074207468616E6820636F6E670020204D535420200020204D44432020000D636893
:20540C00696E682067696F2062616E6720746179000D2A6368696E682067696F2062616ECB
:20542C0067207461792A00C0312050485554202020202020202020200020204D503320207F
:20544C000020204F4B2020200020204E4F202020000D2A6469656E206170206B686F692016
:1E546C00706875632A000D2A6469656E20617020616371756920746861702A0014281A
:2046340075BA01759A50438E0475D7C875D6FE438E1075AF0122AF828F747575009000646B
:204654001246FAAE82AF83AC737D00EC2EFEED3FFF8E058D037C0074E9C39BFB74FE9CFC54
:204674008F017A00EBC399FBEC9AFC9001A8747EF09001A974FFF09001AA7406F09001ABBF
:204694007412F09001ACE4F08F069001ADEEF09001AEEDF08C079001AFEFF09001B0EBF0E4
:2046B4009001B174EFF07F00EF24A8F582E43401F583E0F59BE59A035401700543C11080BF
:0B46D400F4539AFD0FBF0A0040DE22E5
:06007800E478FFF6D8FD5C
:200056007902E94400601B7A0190548878B275A001E493F2A308B8000205A0D9F4DAF275BF
:02007600A0FFE9
:1B46DF0020F71130F6138883A88220F509F6A8837583002280FEF280F5F022DA
:1D46FA00E5828574F0A4C582C0F08575F0A4D0F025F0C5838574F0A42583F583223E
:20471700E574457560467A01E57425E0F574E575334012F575E5829574E583957540030A0F
:2047370080E6C3E57513F575E57413F574C3E5829574F5F0E58395754005F58385F082C38C
:0D475700E57513F575E57413F574DAE122CC
:20007E007800E84400600A790175A000E4F309D8FC78B1E84401600C7902900001E4F0A3CC
:04009E00D8FCD9FAB7
:204764007A10E4FBFCE58225E0F582E58333F583EB33FBEC33FCEB9574F5F0EC9575400691
:09478400FCABF0438201DADD22F6
:0D004900758179124817E5826003020046B8
:1C478D0020F71430F6148883A88220F507E6A88375830022E280F7E49322E0223B
:2047A900C2D5E58330E70DD2D5E4C39582F582E49583F583E57530E70BE4C39574F574E404
:1647C9009575F57512471730D50BE4C39582F582E49583F583221B
:2047DF00C2D5E58330E70DD2D5E4C39582F582E49583F583E57530E70DB2D5E4C39574F59D
:1847FF0074E49575F57512476430D50BE4C39582F582E49583F583223E
:044817007582002284
:00000001FF
