:2000A700AF827E00751B0A8E1C8F828E83C007C0061277F1AC82D006D007ECC454F0FC75DD
:2000C7001B0A751C008F828E83C0041277BBAE82D004EE4CF58222E582FFC4540F75F00A66
:2000E700A4FE740F5F2EF582221203EB7582D012042A75820712042A75821012042A02041C
:2001070006AD82AE83AFF0C007C006C0051203EB7582D012042A75820312042A1204061212
:2001270003EB7582D112042AD20012044FAC82D005D006D0078D828E838FF0EC1276F1AD2A
:200147002AAE2BAF2CD200C007C006C00512044F1200DEAC82D005D006D0078D828E838FE2
:20016700F0EC1276F1AD2DAE2EAF2FD200C007C006C00512044F1200DEAC82D005D006D06D
:20018700078D828E838FF0EC1276F1AD30AE31AF32C200C007C006C00512044F1200DEAC9B
:2001A70082D005D006D0078D828E838FF0EC1276F1020406AD82AE83AFF0C007C006C005D3
:2001C7001203EB7582D012042A75820012042A1204061203EB7582D112042AAA36AB37AC48
:2001E70038D200C004C003C00212044F1200DEA982D002D003D0048A828B838CF0E91276A5
:20020700F1AA33AB34AC35D200C004C003C00212044F1200DEA982D002D003D0048A828B9E
:20022700838CF0E91276F1C20012044F1200DEAC82D005D006D0078D828E838FF0EC12767C
:20024700F1020406AF82C0071203EB7582D012042A75820012042A853A821200A712042A2A
:200267008539821200A712042AD0078F821200A712042A020406AF82C0071203EB7582D092
:2002870012042A75820312042AD0078F8212042A853B821200A712042A853C821200A7126C
:0E02A700042A853D821200A712042A020406D2
:2002B50075C70075C50075C60075C38075C40043C11022AE82AF8375C78375C5018EC48F14
:2002D500C375C65A75C6A500AFC2C0071202B5D0078F8222AE82AF8375C78375C5028EC417
:2002F5008FC38518C275C65A75C6A5000202B5AE82AF8375C78375C5038EC48FC375C65A73
:2003150075C6A5000202B543C1107F20EF60101FEF24BDF582E43400F58374FFF080EDBF98
:2003350020005018EF24BDFDE43400FE8F827583F00FE493FC8D828E83F080E390000002BD
:2003550003047F00BF2000502975C78375C5028FC475C300EF24BDF582E43400F5830FE05E
:13037500F5C275C65A75C6A500C0071202B5D00780D2226E
:20038800759850438E40538EFE758BB2758DFFC2ABD28ED2ACD2A022E582FF700122C29922
:2003A8008F9920990543C11080F8C29922AD82AE83AFF0C2998D828E838FF012779FFC60C9
:2003C800218C9920990543C11080F8C2998D828E838FF012779FFCBC1A01220DBD00D60EC0
:0303E80080D3229D
:2003EB00D2C043C11043C110D2CD43C11043C110C2C043C11043C110C2CD22C2C043C11080
:20040B0043C110D2CD43C11043C110D2C02243C11043C110D2CD43C11043C110C2CD22AFF3
:20042B00827E00EF23540124FF92C08F05ED2DFFC007C006120419D006D0070EBE080040AB
:20044B00E20204197F00D2C07E0043C11043C110D2CD43C11043C1108F05ED2DFDA2C0E421
:1E046B00334DFFC2CD0EBE080040DFA200B392C0C007120419D007A2C092CD8F82220A
:20048900AE82AF837C007D00C3EC9EED9F500A43C1100CBC00F20D80EF22AE82AF837C007B
:2004A9007D00C3EC9EED9F501D9003E8C007C006C005C004120489D004D005D006D0070CDE
:2004C900BC00DF0D80DC22AF82E53E4FF58212055975820D020559AF82302D118F82120538
:2004E90059853F828540838541F00205D98F820205BAAF82D285EFC4540124FF9283EFA24B
:20050900E5E43324FF9282EF2323540124FF9281EF235401FE24FF9280D28400C28400EFBA
:20052900540124FF9283EF03540124FF9282EF03035401FE24FF9281EFA2E3E433FF24FF7C
:200549009280D28400C284900064120489C28522AF82C285EFC4540124FF9283EFA2E5E4D6
:200569003324FF9282EF2323540124FF9281EF235401FE24FF9280D28400C28400EF5401CE
:2005890024FF9283EF03540124FF9282EF03035401FE24FF9281EFA2E3E433FF24FF92805F
:2005A900D28400C28490006402048975820C020559E582FF600E8F8212055990782D75F0C1
:2005C900800205D9758201120559900640020489AD82AE83AFF07C008D828E838FF0127742
:2005E9009FFB6055BC10005050BB80005025EB24E050200CEC601C0DBD00010E8B82C00707
:20060900C006C005C0041204FBD004D005D006D00780C58D828E838FF012779FFBA3AD8242
:20062900AE838B82C007C006C005C004120559D004D005D006D007809F22C286903A98129A
:20064900048975801C00C284900FA0120489D28400C2849000A0120489D28400C284900038
:20066900A012048975801400C2849003E8120489D28400C2840075801100C2849000281217
:20068900048975801000C2840075801300C28490002812048975801000C28400758016007E
:2006A900C28490002812048975801000C2840075801800C2849003E8020489AF82E545246D
:2006C900E8500122E547240540030207808F821205598542828543838544F01205D974F66D
:2006E900254540067D207E00801DAB457C00751B0A8C1C8B828C831277F1AB82AC83743045
:200709002BFBFD3395E0FE8D821204FBAD457E00751B0A8E1C8D828E831277BBAD827430FC
:200729002DF5821204FBE547240350123001067D3A7E0080047D207E008D821204FBAD4628
:200749007E00751B0A8E1C8D828E83C006C0051277F1AB8274302BF5821204FBD005D0067A
:20076900751B0A751C008D828E831277BBAD8274302DF5820204FB8F82120559854282851A
:2007890043838544F01205D974F6254540067E207F00801DAC457D00751B0A8D1C8C828DC1
:2007A900831277F1AC82AD8374302CFCFE3395E0FF8E821204FBAE457F00751B0A8F1C8EFE
:2007C900828F831277BBAE8274302EF5821204FB3001067E3A7F0080047E207F008E82127D
:2007E90004FBAE467F00751B0A8F1C8E828F83C007C0061277F1AC8274302CF5821204FB8A
:20080900D006D007751B0A751C008E828F831277BBAE8274302EF5821204FB3001067E3A18
:200829007F0080047E207F008E821204FBAE477F00751B0A8F1C8E828F83C007C00612777D
:20084900F1AC8274302CF5821204FBD006D007751B0A751C008E828F831277BBAE82743006
:0C0869002EF5821204FB7582200204FBB5
:11782D0020202020202020202020202020202020004A
:060000000200490210ABF2
:03000B0002147765
:0100130032BA
:01001B0032B2
:030023000226C8EA
:03002B000275BD9E
:01003300329A
:03003B000210FBB5
:030043000275AD96
:0500A200C23F02004610
:0300460002515410
:20087500E54A75F006A4FFAD497E00751B0A8E1C8D828E83C0071277F1AD82D007ED2FF5F6
:20089500577E017D0190F007E493FCC3ED9C400302093FED90F00793FC8D030BEB3395E0EB
:2008B500FAEB2407F582EA34F0F583E493F9C3EC99E433F97C0009B900010CED90F00793FC
:2008D500F8C3E55798E4337F0029F9EF3CFCEB2407F582EA34F0F583E493FFC3E5579FE48A
:2008F500337B0029F582EB3CF583751B028B1CC006C0051277BBE5828583F0D005D006459F
:20091500F060218E047F008C828F83A3751B028F1CC0061277BBAC82AF83D006EC4F24FFA2
:2009350092A180060D8D0602089A90F007E493FFEEB50702800122EE90F00793FF90F008CA
:20095500E493FDC3EF9DE433FF7D000FBF00010DEE90F00793FCC3E5579CE4337B002FFFF1
:20097500EB3DFD90F008E493FCC3E5579CE4337B002FF582EB3DF583751B028B1CC00612BE
:2009950077BBE5828583F0D00645F060197F008E828F83A3751B028F1C1277BBAE82AF8306
:2009B500EE4F24FF92A1227880B6000280107880B60103020A4A7880B60202805E22E54945
:2009D500B40100E433FE3395E0FF751B05751C008E828F831277BBE5828583F045F0605EB3
:2009F5007882E6B54A127883E6B5490C9000DDE0FF7881E6B5070122AF4A7882A607AE4965
:200A15007883A6069000DDE0FD8F198E1A8D821276227884765A788076022230920BD2C208
:200A35007880A2C2E433F6800C788486077884EF14F6EF700920920678807600C2C22220DA
:200A550002092036069000F4E06006C213758205229000E2E0FF601C9000E1E0600FEF13CE
:200A7500924850091FEFFE3395E0FF80047E057F008E822290012DE0FFBF03004003020B14
:200A9500229000E8E07003020B1CE550FFB54907E54BB54C028070854C1B751C0090003C86
:200AB500C00712770CE5828583F0D00724D0FD740235F0FE7C00EF2DFDEC3EFE854B1B8CD1
:200AD5001C90003CC006C00512770CAC82AF83D005D006EDC39CFDEE9FFEAC497F00EDC3F6
:200AF5009CF582EE9FF583751BD0751C021277BBAE82AF83C374689E74818FF063F0809517
:200B1500F0921375820022C21375820522E55524FE4003020BB19000E8E07003020BB1E554
:200B350050FFB54907E54BB54C028070854C1B751C0090003CC00712770CE5828583F0D055
:200B55000724D0FD740235F0FE7C00EF2DFDEC3EFE854B1B8C1C90003CC006C00512770CB3
:200B7500AC82AF83D005D006EDC39CFDEE9FFEAC497F00EDC39CF582EE9FF583751BD07570
:200B95001C021277BBAE82AF83C374689E74818FF063F08095F09213758200229000EAE05B
:200BB5007003020C37E552FFB54907E54BB54E028070854E1B751C0090003CC00712770C61
:200BD500E5828583F0D00724D0FD740235F0FE7C00EF2DFDEC3EFE854B1B8C1C90003CC064
:200BF50006C00512770CAC82AF83D005D006EDC39CFDEE9FFEAC497F00EDC39CF582EE9FDD
:200C1500F583751BD0751C021277BBAE82AF83C374689E74818FF063F08095F09213758209
:200C3500022274FE25555003020CC69000E8E07003020CC6E550FFB54907E54BB54C0280DD
:200C550070854C1B751C0090003CC00712770CE5828583F0D00724D0FD740235F0FE7C002E
:200C7500EF2DFDEC3EFE854B1B8C1C90003CC006C00512770CAC82AF83D005D006EDC39C48
:200C9500FDEE9FFEAC497F00EDC39CF582EE9FF583751BD0751C021277BBAE82AF83C374AB
:200CB500689E74818FF063F08095F0921375820022C2137582052290012DE0FFBF010280BD
:200CD5000C2002092036069000F4E06006C214758205229000E2E0FE601C9000E1E0600F22
:200CF500EE5401FD70091EEEFD3395E0FE80047D057E008D8222BF04004003020D9F90007E
:200D1500E9E07003020D99E551FFB54907E54BB54D028070854D1B751C0090003CC0071259
:200D3500770CE5828583F0D00724D0FD740235F0FE7C00EF2DFDEC3EFE854B1B8C1C90007B
:200D55003CC006C00512770CAC82AF83D005D006EDC39CFDEE9FFEAC497F00EDC39CF5820C
:200D7500EE9FF583751BD0751C021277BBAE82AF83C374689E74818FF063F08095F0921411
:200D950075820122C21475820522E55624FE4003020E2E9000E9E07003020E2EE551FFB55E
:200DB5004907E54BB54D028070854D1B751C0090003CC00712770CE5828583F0D00724D0DA
:200DD500FD740235F0FE7C00EF2DFDEC3EFE854B1B8C1C90003CC006C00512770CAC82AF4F
:200DF50083D005D006EDC39CFDEE9FFEAC497F00EDC39CF582EE9FF583751BD0751C02129B
:200E150077BBAE82AF83C374689E74818FF063F08095F09214758201229000EBE070030290
:200E35000EB4E553FFB54907E54BB54F028070854F1B751C0090003CC00712770CE58285E5
:200E550083F0D00724D0FD740235F0FE7C00EF2DFDEC3EFE854B1B8C1C90003CC006C00502
:200E750012770CAC82AF83D005D006EDC39CFDEE9FFEAC497F00EDC39CF582EE9FF5837538
:200E95001BD0751C021277BBAE82AF83C374689E74818FF063F08095F092147582032274DA
:200EB500FE25565003020F439000E9E07003020F43E551FFB54907E54BB54D028070854DAD
:200ED5001B751C0090003CC00712770CE5828583F0D00724D0FD740235F0FE7C00EF2DFDD4
:200EF500EC3EFE854B1B8C1C90003CC006C00512770CAC82AF83D005D006EDC39CFDEE9F55
:200F1500FEAC497F00EDC39CF582EE9FF583751BD0751C021277BBAE82AF83C374689E7438
:200F3500818FF063F08095F0921475820122C2147582052290020012030490012DE0FFBF89
:200F550001028043BF0202802CBF03028015BF04488553189002061202E9854F18900207D9
:200F75001202E98552189002041202E9854E189002051202E98551189002021202E9854D0D
:200F9500189002031202E98550189002001202E9854C189002010202E92275FA0075EA00BD
:200FB5009000E474A8F07461A3F075DA49D2DE22538E7F7589009000EDE0FF8F1B751C00D5
:200FD5009007D0C00712770CAD82AE83D007EE3395E0FCFB7430C39D74F89EFEE49CE49B6A
:200FF5008E8CEF75F0D0A4D39430F4F58AC28DD28CD2A92243C110B220A2209287D21E9065
:2010150000F9E0FFE06006EF149000F9F09000FBE0FFE06006EF149000FBF09000F4E0FF90
:20103500BF020122054890012EE0FF7E001FBFFF011EAC487D00C3EF9CEE64808DF063F0F1
:201055008095F050507548009000B9E0600E9000BAE014F0E070059000B9E4F0D21F0549A3
:20107500E54924C4502FC203754900054AE54A24E8501778827618754A009000E6E0FFE0D6
:201095006006EF149000E6F0C204054BE54B24F45003754B0022C029C0E0C0F0C082C0831B
:2010B500C007C006C005C004C003C002C001C000C0D075D00843C1109000E774FAF0C2383F
:2010D50075D00012100975D008D0D0D000D001D002D003D004D005D006D007D083D082D08D
:2010F500F0D0E0D02932C029C0E0C0F0C082C083C007C006C005C004C003C002C001C00036
:20111500C0D075D00843C11010D80302145A9000E4E0FEA3E0FF8EEA8FFA9000E474A82EDB
:20113500F074613FA3F090F01FE493600CA2B6B39215A2B7B392168008A2B69215A2B792A9
:201155001690012DE0FFBF015790F01FE49360293034132015033016047F0080027F01EFA8
:2011750024FF9215803A2015072016047F0080027F01EF24FF92158027303413301507308C
:2011950016047F0080027F01EF24FF921580113015032016047F0080027F01EF24FF921599
:2011B5007405B5550302127E30150D301705D21902127ED21702127E201B03021272E5556E
:2011D50024E8FEE43400FF9000ECE08E828F83F09000E1E0FFE06008EF149000E1F080608F
:2011F50030122EE5552450F9870F0FA70FEF24C4501FE5552450F87600E555244CF9870FCD
:201215000FA70FEF24F45038E555244CF87600802F20122CE5552450F9870F1FA70FEF241B
:20123500C3501DE5552450F8763BE555244CF9870F1FA70FEF24F35007E555244CF8760B84
:20125500C219C217C21B75D000120A5475D00885825575D000120F4975D008800C301904B5
:20127500D21B800510170280007405B5560302134730160D301805D21A021347D218021374
:2012950047201C0302133BE55624E8FEE43400FF9000ECE08E828F83F09000E1E0FFE06009
:2012B50008EF149000E1F0806030122EE5562450F9870F0FA70FEF24C4501FE5562450F86D
:2012D5007600E556244CF9870F0FA70FEF24F45038E556244CF87600802F20122CE5562470
:2012F50050F9870F1FA70FEF24C3501DE5562450F8763BE556244CF9870F1FA70FEF24F375
:201315005007E556244CF8760BC21AC218C21C75D000120CCC75D00885825675D000120F6A
:201335004975D008800C301A04D21C8005101802800030210930B5069000F17402F030218E
:201355000330B5047F0080027F01EF24FF922420230330B5047F0080027F01EF24FF9221CE
:2013750020220A2024032021047F0080027F01EF24FF9222A2B5922330250930B306900056
:20139500F27402F030250330B3047F0080027F01EF24FF922820270330B3047F0080027FA3
:2013B50001EF24FF922520260A2028032025047F0080027F01EF24FF9226A2B392273029B8
:2013D5000930B4069000F37402F030290330B4047F0080027F01EF24FF922C202B0330B455
:2013F500047F0080027F01EF24FF9229202A0A202C032029047F0080027F01EF24FF922A47
:20141500A2B4922B90013EE014F0E0700AD23F90013E7414F0B22D9000E7E0FFE0600EEFCD
:20143500149000E7F090013F7428F0801890013FE014F0E0700F90013F7428F075D0001262
:20145500100975D008D0D0D000D001D002D003D004D005D006D007D083D082D0F0D0E0D0F0
:201475002932C0E0C082C083C0D075D01043C110303539E555B40100E43324FF92A7740169
:20149500B5560474018001E424FF92A57402B5550474018001E424FF92A67403B556047441
:2014B500018001E4FF24FF92A402154BE555700B90F000E4935407600280047F0080027F8A
:2014D50001EF24FF92C47401B5560474018001E424FF92C32034109000E2E0700A2013074E
:2014F5002014047F0080027F01EF24FF92122034427405B555097405B55604E5557034E5FB
:20151500A0540FFFE554907854934FF5A03012067E017F0080047EFF7FFFAF54EE2FF5547A
:2015350024F75005755407800D7408B55408755400800353A00FD0D0D083D082D0E032AF18
:20155500829000BBE4F0BFA100500FEF2417F582E43400F5830FE4F080EC2285825D858308
:201575005E85F05FAC599000FAECF08558F0ECA4FB9000FB740A2BF0C22E855D82855E8383
:20159500855FF0C0041203B5D0047402255DF9E4355EFAAB5F7407255DF560E4355EF56175
:2015B500855F627408255DF563E4355EF564855F65A858302E030217409000FBE0700302C7
:2015D500174030300302174043C110758280C004C003C002C001C000120559855A82855BDD
:2015F50083855CF01205D9D000D001D002D003D004301D327542FA75437B754480854A45C8
:20161500854946854847A22092017582C0C004C003C002C001C0001206C4D000D001D00268
:20163500D003D004806990F002E493703275420275437C754480854A45854946854847A266
:201655002092017582C0C004C003C002C001C0001206C4D000D001D002D003D00480307526
:20167500420A75437C754480854A45854946854847A22092017582C0C004C003C002C0014A
:20169500C0001206C4D000D001D002D003D0041032028002C3229000F9E0600620310302AF
:2016B50015C8C231880718EF70030217409000F9ECF09000FAECF089828A838BF012779F5D
:2016D500FFBF2B448560828561838562F012779FFFBF3F0280328563828564838565F01286
:2016F500779FFFBF3F028020907C1275F080C004C003C002C001C0001203B5D000D001D018
:2017150002D003D0040215C8855D82855E83855FF0C004C003C002C001C0001203B5D0002A
:20173500D001D002D003D0040215C87582801205BA9000FCE4F0A22E22AD82AE83AFF09042
:201755007C1675F080C007C006C0051203B5D005D006D0078D828E838FF01203B5755A1D0A
:20177500755B7C755C8075580175593C907C1A75F080021570900017E0602090001AE0704C
:201795001A755A30755B7C755C80755803755901907C2E75F080121570C322907C4175F092
:2017B500801203B530400B90000175F0001203B5800990F01175F0801203B59000FC7408BE
:2017D500F0755A4E755B7C755C8075580575593D907C4B75F080021570900017E4F0C20F5E
:2017F5009000FC7407F0755A70755B7C755C8075580375591E907C5C75F0801215709000D1
:20181500FCE4F0900017E024FF22C20F9000FC740DF09000F7E0FFBF50028025BF66028086
:2018350038BF6E02804BBF7460755A81755B7C755C8075580375591E907C5C75F0800215C1
:2018550070755A81755B7C755C8075580375591E907C9375F080021570755A81755B7C753E
:201875005C8075580375591E907CA775F080021570755A81755B7C755C8075580375591EF3
:20189500907C5C75F080021570C3229000FC740EF07582001215549000BBE4F0755AC175E6
:2018B5005B7C755C8075580F755901907CB975F08012157050339000F8E4F07F00EF241777
:2018D500F582E43400F583E0FEBE2C0122EF2417F582E43400F5830FE024D0FE9000F8E087
:2018F500FD75F00AA42EF080D4223035067EC87F7C80047ECF7F7C7D808E828F838DF01209
:2019150003B57F003034067DD67E7C80047DDA7E7C7C808D828E838CF0C0071203B5D007EF
:201935008F0674312EF582C0071203A075823D1203A0D007EF24E8FDE43400FE8D828E8349
:20195500E0700A758245C0071203A0D007EF244CF987067D00751B0A8D1C8E828D83C007FD
:20197500C0011277F1AD8274302DF5821203A0D00187067D00751B0A8D1C8E828D83127724
:20199500BBAD8274302DF5821203A075823A1203A0D007EF2450F987067D00751B0A8D1CE5
:2019B5008E828D83C007C0011277F1AD8274302DF5821203A0D00187067D00751B0A8D1CA6
:2019D5008E828D831277BBAD8274302DF5821203A0D0070F90012DE0FEEFB50601220219F8
:2019F5001922907CDE75F0801203B5AE4A7F00751B0A8F1C8E828F831277F1AE8274302EA4
:201A1500F5821203A0AE4A7F00751B0A8F1C8E828F831277BBAE8274302EF5821203A075C0
:201A3500823A1203A0AE497F00751B0A8F1C8E828F831277F1AE8274302EF5821203A0AEED
:201A5500497F00751B0A8F1C8E828F831277BBAE8274302EF5821203A0304121907CE275DB
:201A7500F0801203B5301D067E317F0080047E307F0090F002E4932EF5820203A022787F89
:201A9500861B751C0090001C12770C751B00751C011277F1AE82AF83204203021B81907CB1
:201AB500E875F080C0061203B5D0063036067D307F0080047D317F008D82C0061203A0907B
:201AD5007CED75F0801203B590F001E4932430F5821203A0907CF275F0801203B5D006904E
:201AF50000E7E060067D317F0080047D307F008D82C0061203A0907CF775F0801203B590FB
:201B150000E6E02430F5821203A075822F1203A090F003E4932430F5821203A0907CFC7598
:201B3500F0801203B590F004E493FF7D00751B0A8D1C8F828D831277F1AD8274302DF5828A
:201B55001203A090F004E493FF7D00751B0A8D1C8F828D831277BBAD8274302DF582120310
:201B7500A0907D0175F0801203B5D006907D0575F080C0061203B5D00630A1067D317F00BC
:201B950080047D307F008D82C0061203A0907D0B75F0801203B5D0067F00751B0A8F1C8E07
:201BB500828F83C007C0061277F1AC8274302CF5821203A0D006D007751B0A751C008E8263
:201BD5008F831277BBAE8274302EF5821203A090F010E4937003304221907D1175F080124A
:201BF50003B53092067E307F0080047E2F7F0090F010E4932EF5821203A020420122907D80
:201C15001775F0801203B59000F8E0FF7E00751B0A8E1C8F828E831277F1AE8274302EF52D
:201C3500821203A09000F8E0FF7E00751B0A8E1C8F828E831277BBAE8274302EF58212033B
:201C5500A0907D1D75F0801203B590F01CE4932430F5821203A090F01CE493FFBF0201226D
:201C750075822C1203A090F01175F0800203B5AD82AE83AFF0900130E0700122755AD375FD
:201C95005B78755C8075580F755901907D2275F080C007C006C0051215701218A0D005D0F4
:201CB50006D00774012DFAE43EFB8F048A828B838CF012779FF9B92A02801DC007C006C060
:201CD50005C004C003C0021217EED002D003D004D005D006D0078005900017E4F0A2439218
:201CF50040C007C006C005C004C003C00212178AD002D003D004D005D006D0074001229053
:201D150078D375F080C007C006C005C004C003C0021203B51218FFA24392411219F7A24331
:201D35009242121A93D002D003D004D005D006D0078A828B838CF012779FFABA2A0280538F
:201D5500900017E0604D907D2675F080C007C006C0051203B590001775F0001203B5D0055B
:201D7500D006D00730431B90001BE07015907D3175F080C007C006C0051203B5D005D00619
:201D9500D00790001BE4F090001AF0900019F0900018F08D828E838FF0C007C006C005120A
:201DB50003B5D005D006D0070DBD00010E8D828E838FF012779FFDBD2A09907C2E75F08028
:201DD5000203B5755A4B755B7D755C80755832755901907C2E75F080021570907D0575F091
:201DF500801203B530A1067E317F0080047E307F008E821203A0907D5C75F0801203B59061
:201E1500F007E4932430F5821203A090F007E4937009907D6475F0800203B5907D7975F04D
:201E3500801203B590F007E493FF75820DC0071203A0D007EF90F00793FE7D00751B3C8D12
:201E55001C8E828D83C0071277F1AD8274302DF5821203A0D007EF90F00793FE7D00751BD9
:201E7500068D1C8E828D83C0071277F1751B0A751C001277BBAD8274302DF5821203A0752D
:201E9500823A1203A0D007EF90F00793FF7E00751B068E1C8F828E831277BBAE8274302EB7
:201EB500F5821203A0907D8675F0801203B590F008E493FF7E00751B3C8E1C8F828E831279
:201ED50077F1AE8274302EF5821203A090F008E493FF7E00751B068E1C8F828E831277F1FF
:201EF500751B0A751C001277BBAE8274302EF5821203A075823A1203A090F008E493FF7ECE
:201F150000751B068E1C8F828E831277BBAE8274302EF5821203A07582301203A07F0290EB
:201F3500F007E493FEC3EF9E40012275820DC0071203A0D007EF90F00793FE7D00751B3CC6
:201F55008D1C8E828D83C0071277F1AD8274302DF5821203A0D007EF90F00793FE7D007566
:201F75001B068D1C8E828D83C0071277F1751B0A751C001277BBAD8274302DF5821203A086
:201F950075823A1203A0D007EF90F00793FE7D00751B068D1C8E828D83C0071277BBAD8252
:201FB50074302DF5821203A0907D8675F0801203B5D0078F06EE04FD3395E0FCED2407F5C1
:201FD50082EC34F0F583E493FB7A00751B3C8A1C8B828A83C006C005C0041277F1AA827401
:201FF500302AF5821203A0D004D005ED2407F582EC34F0F583E493FB7A00751B068A1C8BD3
:20201500828A83C005C0041277F1751B0A751C001277BBAA8274302AF5821203A075823A53
:202035001203A0D004D005ED2407F582EC34F0F583E493FD7C00751B068C1C8D828C8312B8
:2020550077BBAC8274302CF5821203A07582301203A0D00674022EFF021F34AD82AE83AF56
:20207500F0900130E0700122755AD3755B78755C8075580F755901907D2275F080C007C0A6
:2020950006C005121570A244924012178AD005D006D007400122A2449241C007C006C0056E
:2020B5001219F7A2449242121A93121DF0D005D006D0078D828E838FF01203B5755A8B7597
:2020D5005B7D755C80755832755901907C2E75F080021570900017E4F0D24012178A4001CD
:2020F500229078E475F0801203B5755A9C755B7D755C80755832755901907C2E75F0800216
:202115001570755AD3755B78755C8075580F755901907D2275F08012157050367582001205
:2021350015549000BBE4F09000FC740AF0755AB7755B7D755C8075580F755901907DAD750A
:20215500F080121570500990001BE0FF9000F7F0D322C3227F0090012FE0FEBE3D0122757F
:202175005AD2755B7D755C8075580F755901907DC775F080C007121570D007400302234936
:20219500755AED755B7D755C8075580F755901907DE275F080C007121570D00740030223B4
:2021B500499000FC740CF0755A08755B7E755C8075580A75593C907DFD75F080C007121591
:2021D50070D0074003022349758200C0071215549000BBE4F09000FC7402F0755A22755BE7
:2021F5007E755C8075580F755901907E1875F080121570D007400302234990001AE024D0A8
:2022150075F00AA4FE90001BE02E24D09000E0F090001DE024D075F00AA4FE90001EE02E3D
:2022350024D09000DFF0900020E024D075F00AA4FE900021E02E24D09000DEF0900023E0FD
:2022550024D075F00AA4FE900024E02E24D0F54A900026E024D075F00AA4FE900027E02E0F
:2022750024D0F549900029E024D075F00AA4FE90002AE02E24D0F54885493985483A854AA3
:202295008212024B9000DFE0FE8E1B751C00900017C00612770C751B09751C001277F1AC6F
:2022B50082AD83D0069000DEE07A002CFCEA3DFDEE24FD50189000E0E0FE5306037B00EEE3
:2022D5004BB40100E433FB3395E0FE80047B027E00EB2CFCEE3DFD9000E0E0FEFA7B002C88
:2022F500FCEB3DFD8A828B83A3A3A3751B048B1CC006C005C0041277F1AA82AB83D004D0A3
:2023150005EA2CFCEB3DFD8C828D83A3751B07751C00127729AC82D0060C9000DDECF090E8
:2023350000DEE0F53B9000DFE0F53C8E3D8C8212027D7F01EF24FF921D9000FCE4F0227578
:202355005A3D755B7E755C8075580F755901907E3275F080121570502D758200121554904C
:2023750000BBE4F09000FC740BF0755A59755B7E755C8075580F755901907E4E75F08012F9
:2023950015705002D322C32230A006900130E07002C322755A74755B7E755C8075580F7576
:2023B5005901907E6975F0801215705039755A98755B7E755C8075580F755901907E857579
:2023D500F080121570501F755ABD755B7E755C8075580F755901907EA975F0801215705019
:2023F500051218A0D322C32230A006900130E07002C322755AD3755B78755C8075580F75C5
:202415005901907D2275F080121570400122755A74755B7E755C8075580F755902907E693A
:2024350075F0801215705036755A98755B7E755C8075580F755901907E8575F080121570C5
:20245500501C755ACE755B7E755C80755814755903907EA975F0801215705002D322C322AE
:202475007F0090012FE0FEBE3D0122755AD3755B78755C8075580F755901907D2275F08012
:20249500C007121570D00740030226BD755AEA755B7E755C8075580F755901907EE075F074
:2024B50080C007121570D00740030226BD755A3D755B7E755C8075580F755901907E32751F
:2024D500F080C007121570D00790F002E49370030226BD755AFB755B7E755C8075580F7537
:2024F5005901907DC775F080C007121570D00740030226BD755A17755B7F755C8075580FF5
:20251500755901907F0C75F080C007121570D00740030226BD9000FC7406F0755A34755BB1
:202535007F755C8075580F755902907F2975F080C007121570D00740030226BD9000FDE023
:20255500FEBE010280030226BD7E007D00ED240FF582E43401F5830DE0FCBC2C060EBE0376
:2025750000500ABD0B00500543C11080E0EE24FD40030226BD8D060EEE3395E0FCEE240FD0
:20259500F582EC3401F583E0FEBE2C15ED04FEED240FF582E43401F583E0FC24D0F54A8093
:2025B50029ED04FCED240FF582E43401F583E024D075F00AA4FDEC04FEEC240FF582E43448
:2025D50001F583E0FC24D02DF54A0E8E050DED3395E0FCED240FF582EC3401F583E0FDBD28
:2025F5002C15EE04FDEE240FF582E43401F583E0FC24D0F5498029EE04FCEE240FF582E44C
:202615003401F583E024D075F00AA4FEEC04FDEC240FF582E43401F583E0FC24D02EF549C3
:20263500ED04FEFD0DED3395E0FCED240FF582EC3401F583E0FDBD2C12EE240FF582E43443
:2026550001F583E0FD24D0F5488026EE04FDEE240FF582E43401F583E024D075F00AA4FE3B
:20267500ED240FF582E43401F583E0FD24D02EF548AD4A7E0074072DFDE43EFEC374179DBC
:2026950074808EF063F08095F05007E54A24EFFE8006AD4A74072DFE8E4A85493985483ABB
:2026B500854A8212024B7F01EF24FF921D9000FCE4F022C029C0E0C0F0C082C083C007C04D
:2026D50006C005C004C003C002C001C000C0D075D010209803023F8543C1109000FAE090DC
:2026F50000F9F09000FEE02400F582E43401F583E599F09000FEE0FF2400F582E43401F5BE
:2027150083E0FEBE4E02800302284E8F147D00740C2CF582E43DF583751B0D8D1CC017C081
:2027350016C015C01475D0001277BB75D010AA82AB83D014D015D016D017EA2400F582EB87
:202755003401F583E0FBBB4902800302284E740B2CF582E43DF583751B0D751C00C017C05B
:2027750016C015C01475D0001277BB75D010AA82AB83D014D015D016D017EA2400F582EB47
:202795003401F583E0FBBB2002800302284E740A2CF582E43DF583751B0D751C00C017C045
:2027B50016C015C01475D0001277BB75D010AA82AB83D014D015D016D017EA2400F582EB07
:2027D5003401F583E0FBBB547074092CF582E43DF583751B0D751C00C017C016C015C014A0
:2027F50075D0001277BB75D010AA82AB83D014D015D016D017EA2400F582EB3401F583E0F9
:20281500FBBB4F3574082CF582E43DF583751B0D751C00C017C01675D0001277BB75D010F8
:20283500AC82AD83D016D017EC2400F582ED3401F583E0FDBD4E02D2309000FCE0FD24F1CD
:202855005003023F71ED240A83F582ED241383F583E47353D58525719D059A1071DB76EB97
:2028750000862B332A343F353237373F292A283D289000BBE0FC04F0EC2417F582E43400FD
:20289500F583E599F07420B599369000FEE0FC7B00740C2CF582E43BF583751B0D8B1C75CD
:2028B500D0001277BB75D010AB82AC83EB2400F582EC3401F583E0FCBC3A059000BBE4F029
:2028D500742CB599028003023F719000FCE4F09000BBF0023F717454B5996E8F137C00745B
:2028F5000C2BF582E43CF583751B0D8C1CC017C014C01375D0001277BB75D010A982AA8384
:20291500D013D014D017E92400F582EA3401F583E0FABA5334740B2BF582E43CF583751B75
:202935000D751C00C01775D0001277BB75D010AB82AC83D017EB2400F582EC3401F583E0ED
:20295500FCBC4405D22E023F717452B599028003023F718F137C00740C2BF582E43CF5838C
:20297500751B0D8C1CC014C01375D0001277BB75D010A982AA83D013D014E92400F582EAEB
:202995003401F583E0FABA4F028003023F71740B2BF582E43CF583751B0D751C0075D0002F
:2029B5001277BB75D010AB82AC83EB2400F582EC3401F583E0FCBC52028003023F7190003D
:2029D500F9E4F0023F719000BBE0FC04F0EC2417F582E43400F583E599F07422B599369002
:2029F50000FEE0FC7B00740C2CF582E43BF583751B0D8B1C75D0001277BB75D010AB82ACB8
:202A150083EB2400F582EC3401F583E0FCBC20059000BBE4F0742CB599028003023F71906E
:202A350000FEE0FC7B00740C2CF582E43BF583751B0D8B1C75D0001277BB75D010AB82AC77
:202A550083EB2400F582EC3401F583E0FCBC22028003023F719000FCE4F09000BBF0023FF2
:202A7500717431B599028003023F71D22E023F719000BBE0FC04F0EC2417F582E43400F52E
:202A950083E599F0744BB599699000FEE0FB7C00740C2BF582E43CF583751B0D8C1CC01402
:202AB500C01375D0001277BB75D010A982AA83D013D014E92400F582EA3401F583E0FABA82
:202AD5004C30740B2BF582E43CF583751B0D751C0075D0001277BB75D010AB82AC83EB2435
:202AF50000F582EC3401F583E0FCBC43059000BBE4F0740DB599028003023F719000FEE03E
:202B1500FC7B00740C2CF582E43BF583751B0D8B1C75D0001277BB75D010AB82AC83EB24E2
:202B350000F582EC3401F583E0FCBC22028003023F719000FCE4F09000BBF0023F71743E80
:202B5500B59912907C2E75F08075D0001203B575D010023F71BE47028003022C418F137CB4
:202B750000740C2BF582E43CF583751B0D8C1CC017C016C015C014C01375D0001277BB751A
:202B9500D010A982AA83D013D014D015D016D017E92400F582EA3401F583E0FABA4E0280F0
:202BB50003022C41740B2BF582E43CF583751B0D751C00C017C016C015C014C01375D00039
:202BD5001277BB75D010A982AA83D013D014D015D016D017E92400F582EA3401F583E0FA81
:202BF500BA4949740A2BF582E43CF583751B0D751C00C017C016C01575D0001277BB75D03E
:202C150010AB82AC83D015D016D017EB2400F582EC3401F583E0FCBC5212907F4675F0802C
:202C350075D0001203B575D010023F71BE3A028003022D938F137C00740C2BF582E43CF5D5
:202C550083751B0D8C1CC017C016C015C014C01375D0001277BB75D010A982AA83D013D085
:202C750014D015D016D017E92400F582EA3401F583E0FABA49028003022D93740B2BF58219
:202C9500E43CF583751B0D751C00C017C016C015C014C01375D0001277BB75D010A982AA7D
:202CB50083D013D014D015D016D017E92400F582EA3401F583E0FABA54028003022D937445
:202CD5000A2BF582E43CF583751B0D751C00C017C016C015C014C01375D0001277BB75D076
:202CF50010A982AA83D013D014D015D016D017E92400F582EA3401F583E0FABA4D0280035D
:202D1500022D9374092BF582E43CF583751B0D751C00C017C016C015C014C01375D0001277
:202D350077BB75D010A982AA83D013D014D015D016D017E92400F582EA3401F583E0FABA77
:202D5500433C74082BF582E43CF583751B0D751C00C017C016C01575D0001277BB75D0109B
:202D7500AB82AC83D015D016D017EB2400F582EC3401F583E0FCBC2B05D20C023F71E4BE17
:202D9500200104FC7003022F428F127B00740C2AF582E43BF583751B0D8B1CC017C016C092
:202DB50015C014C013C01275D0001277BB75D010A882A983D012D013D014D015D016D017E1
:202DD500E82400F582E93401F583E0F9B93A028003022F42740B2AF582E43BF583751B0DAD
:202DF500751C00C017C016C015C014C013C01275D0001277BB75D010A882A983D012D01339
:202E1500D014D015D016D017E82400F582E93401F583E0F9B94C028003022F42740A2AF57B
:202E350082E43BF583751B0D751C00C017C016C015C014C013C01275D0001277BB75D0105D
:202E5500A882A983D012D013D014D015D016D017E82400F582E93401F583E0F9B947028038
:202E750003022F4274092AF582E43BF583751B0D751C00C017C016C015C014C013C0127574
:202E9500D0001277BB75D010A882A983D012D013D014D015D016D017E82400F582E9340162
:202EB500F583E0F9B94D028003022F4274082AF582E43BF583751B0D751C00C017C016C05F
:202ED50015C014C013C01275D0001277BB75D010A882A983D012D013D014D015D016D017C0
:202EF500E82400F582E93401F583E0F9B9433E74072AF582E43BF583751B0D751C00C017D9
:202F1500C016C015C01475D0001277BB75D010AA82AB83D014D015D016D017EA2400F582CA
:202F3500EB3401F583E0FBBB2B030230D6EC70030231218F137C00740C2BF582E43CF5838D
:202F5500751B0D8C1CC017C016C015C014C01375D0001277BB75D010A982AA83D013D014F1
:202F7500D015D016D017E92400F582EA3401F583E0FABA3A028003023121740B2BF582E4C3
:202F95003CF583751B0D751C00C017C016C015C014C01375D0001277BB75D010A982AA83DB
:202FB500D013D014D015D016D017E92400F582EA3401F583E0FABA50028003023121740A2D
:202FD5002BF582E43CF583751B0D751C00C017C016C015C014C01375D0001277BB75D0106D
:202FF500A982AA83D013D014D015D016D017E92400F582EA3401F583E0FABA49028003026C
:20301500312174092BF582E43CF583751B0D751C00C017C016C015C014C01375D00012776D
:20303500BB75D010A982AA83D013D014D015D016D017E92400F582EA3401F583E0FABA4C9F
:2030550002800302312174082BF582E43CF583751B0D751C00C017C016C015C014C0137500
:20307500D0001277BB75D010A982AA83D013D014D015D016D017E92400F582EA3401F583E6
:20309500E0FABA4302800302312174072BF582E43CF583751B0D751C00C017C016C0157591
:2030B500D0001277BB75D010AB82AC83D015D016D017EB2400F582EC3401F583E0FCBC2BA2
:2030D5004B8F137C0074092BF582E43CF583751B0D8C1C75D0001277BB75D010AB82AC833C
:2030F500EB2400F582EC3401F583E0FCBC4C03D38001C392064006300E03023F71C20BC23E
:2031150009C2089000FC7403F0023F71BE4B698F137C00740C2BF582E43CF583751B0D8CAF
:203135001CC017C016C01575D0001277BB75D010AB82AC83D015D016D017EB2400F582EC7E
:203155003401F583E0FCBC4F2FBD02059000BBE4F0A22FB3922EC22F9000BBE07003023FA0
:20317500719000BBE4F0907EA975F08075D0001203B575D010023F71BE54028003023F71AF
:203195008F147D00740C2CF582E43DF583751B0D8D1CC015C01475D0001277BB75D010AAC7
:2031B50082AB83D014D015EA2400F582EB3401F583E0FBBB4F028003023F71740B2CF58226
:2031D500E43DF583751B0D751C0075D0001277BB75D010AC82AD83EC2400F582ED3401F539
:2031F50083E0FDBD4E028003023F71D22F023F71BE20028003023F718F147D00740C2CF58F
:2032150082E43DF583751B0D8D1CC015C01475D0001277BB75D010AA82AB83D014D015EAA4
:203235002400F582EB3401F583E0FBBB3A028003023F71740B2CF582E43DF583751B0D7572
:203255001C00C015C01475D0001277BB75D010AA82AB83D014D015EA2400F582EB3401F5F9
:2032750083E0FBBB5A028003023F71740A2CF582E43DF583751B0D751C00C015C01475D0B9
:20329500001277BB75D010AA82AB83D014D015EA2400F582EB3401F583E0FBBB54028003D1
:2032B500023F7174092CF582E43DF583751B0D751C00C015C01475D0001277BB75D010AA2F
:2032D50082AB83D014D015EA2400F582EB3401F583E0FBBB54028003023F7174082CF58203
:2032F500E43DF583751B0D751C00C015C01475D0001277BB75D010AA82AB83D014D015EA5E
:203315002400F582EB3401F583E0FBBB55028003023F7174072CF582E43DF583751B0D757A
:203335001C00C015C01475D0001277BB75D010AA82AB83D014D015EA2400F582EB3401F518
:2033550083E0FBBB53028003023F7174062CF582E43DF583751B0D751C00C015C01475D0E3
:20337500001277BB75D010AA82AB83D014D015EA2400F582EB3401F583E0FBBB50028003F4
:20339500023F718C828D83A3A3A3A3A3751B0D751C0075D0001277BB75D010AC82AD83ECC3
:2033B5002400F582ED3401F583E0FDBD2A028003023F719000FFE4F09000FC04F0023F7133
:2033D500740DB5990280209000FFE0FDBD1E0050169000FFED04F0ED240FF582E43401F5A5
:2033F50083E599F0023F719000FFE0FD1DED3395E0FCED240FF582EC3401F583E4F0900067
:20341500FCE09000FDF09000FCE4F0D22E023F71200B030234A89000BBE0FD7023740DB52F
:2034350099028003023F7130060D9000BA7402F09000B9E02401F09000FC7405F0023F71CF
:20345500BD0A0D7422B599089000BBE4F0023F71200813ED2401F582E43400F583E0FCB5E1
:2034750099028002D208300A0E20090DED90F01193FCB599028002D2099000BBED04F020BC
:203495000803023F71200903023F719000FCE4F0023F7130063CBE30398F147D00740C2C05
:2034B500F582E43DF583751B0D8D1CC017C01675D0001277BB75D010AC82AD83D016D017EB
:2034D500EC2400F582ED3401F583E0FDBD2203023583BE3402800302358B8F147D00740C64
:2034F5002CF582E43DF583751B0D8D1CC015C01475D0001277BB75D010AA82AB83D014D0A0
:2035150015EA2400F582EB3401F583E0FBBB3866740B2CF582E43DF583751B0D751C00C087
:2035350015C01475D0001277BB75D010AA82AB83D014D015EA2400F582EB3401F583E0FB94
:20355500BB2B33740A2CF582E43DF583751B0D751C0075D0001277BB75D010AC82AD83EC2D
:203575002400F582ED3401F583E0FDBD2208D20B9000BB7401F0740DB599028003023F71AA
:203595009000FCE4F0023F71300D3F743BB599028027740DB5990280209000BBE0FDBDA0EC
:2035B5000050169000BBED04F0ED2417F582E43400F583E599F0023F719000BBE4F0C20D27
:2035D5009000FCE4F0D20E023F71BE2C0280030236ED8F147D00740C2CF582E43DF58375FF
:2035F5001B0D8D1CC015C01475D0001277BB75D010AA82AB83D014D015EA2400F582EB3497
:2036150001F583E0FBBB430280030236ED740B2CF582E43DF583751B0D751C00C015C01407
:2036350075D0001277BB75D010AA82AB83D014D015EA2400F582EB3401F583E0FBBB55026A
:2036550080030236ED740A2CF582E43DF583751B0D751C00C015C01475D0001277BB75D04E
:2036750010AA82AB83D014D015EA2400F582EB3401F583E0FBBB446074092CF582E43DF575
:2036950083751B0D751C00C015C01475D0001277BB75D010AA82AB83D014D015EA2400F5B7
:2036B50082EB3401F583E0FBBB502D74082CF582E43DF583751B0D751C0075D0001277BB59
:2036D50075D010AC82AD83EC2400F582ED3401F583E0FDBD2A0280047D0080027D01ED2429
:2036F500FF920D740DB599028003023F719000BB7401F09000FCE4F0023F71743EB5990A45
:203715009000FCE4F0D22E023F71BE52028003023F718F147D00740C2CF582E43DF58375EA
:203735001B0D8D1CC015C01475D0001277BB75D010AA82AB83D014D015EA2400F582EB3455
:2037550001F583E0FBBB52028003023F71740B2CF582E43DF583751B0D751C0075D000127C
:2037750077BB75D010AC82AD83EC2400F582ED3401F583E0FDBD45028003023F719000F98F
:20379500E4F0023F71300F669000F7E0FDBD50028003BD66057420B5990FBD74028003BD67
:2037B5006E2F7464B5990280289000BBE0FDBDA000501E742EB59903023F719000BBED04B3
:2037D500F0ED2417F582E43400F583E599F0023F71C20FC2119000BBE0FD2417F582E434FF
:2037F50000F583E4F09000BBF0D22E023F719000F7E0FDBD50028003023960BE3D0280036A
:203815000239608F137C00740C2BF582E43CF583751B0D8C1CC017C016C015C014C013753D
:20383500D0001277BB75D010A982AA83D013D014D015D016D017E92400F582EA3401F5831E
:20385500E0FABA68028003023960740B2BF582E43CF583751B0D751C00C017C016C015C00E
:2038750014C01375D0001277BB75D010A982AA83D013D014D015D016D017E92400F582EA2F
:203895003401F583E0FABA6E028003023960740A2BF582E43CF583751B0D751C00C017C0C7
:2038B50016C015C014C01375D0001277BB75D010A982AA83D013D014D015D016D017E924A5
:2038D50000F582EA3401F583E0FABA6902800302396074092BF582E43CF583751B0D751CC3
:2038F50000C017C016C015C014C01375D0001277BB75D010A982AA83D013D014D015D016C2
:20391500D017E92400F582EA3401F583E0FABA683A74082BF582E43CF583751B0D751C0076
:20393500C017C016C01575D0001277BB75D010AB82AC83D015D016D017EB2400F582EC345E
:2039550001F583E0FCBC6303023CFBBD74028003023AB8BE20028003023AB88F137C00740F
:203975000C2BF582E43CF583751B0D8C1CC017C016C015C014C01375D0001277BB75D010A0
:20399500A982AA83D013D014D015D016D017E92400F582EA3401F583E0FABA3A02800302D1
:2039B5003AB8740B2BF582E43CF583751B0D751C00C017C016C015C014C01375D000127722
:2039D500BB75D010A982AA83D013D014D015D016D017E92400F582EA3401F583E0FABA47FB
:2039F500028003023AB8740A2BF582E43CF583751B0D751C00C017C016C015C014C01375B5
:203A1500D0001277BB75D010A982AA83D013D014D015D016D017E92400F582EA3401F5833C
:203A3500E0FABA4B028003023AB874092BF582E43CF583751B0D751C00C017C016C015C0F2
:203A550014C01375D0001277BB75D010A982AA83D013D014D015D016D017E92400F582EA4D
:203A75003401F583E0FABA543A74082BF582E43CF583751B0D751C00C017C016C01575D0B7
:203A9500001277BB75D010AB82AC83D015D016D017EB2400F582EC3401F583E0FCBC200390
:203AB500023CFBBD66028003023C10BE3A028003023C108F137C00740C2BF582E43CF5831F
:203AD500751B0D8C1CC017C016C015C014C01375D0001277BB75D010A982AA83D013D01466
:203AF500D015D016D017E92400F582EA3401F583E0FABA43028003023C10740B2BF582E435
:203B15003CF583751B0D751C00C017C016C015C014C01375D0001277BB75D010A982AA834F
:203B3500D013D014D015D016D017E92400F582EA3401F583E0FABA4B028003023C10740AAC
:203B55002BF582E43CF583751B0D751C00C017C016C015C014C01375D0001277BB75D010E1
:203B7500A982AA83D013D014D015D016D017E92400F582EA3401F583E0FABA5402800302D5
:203B95003C1074092BF582E43CF583751B0D751C00C017C016C015C014C01375D0001277E8
:203BB500BB75D010A982AA83D013D014D015D016D017E92400F582EA3401F583E0FABA2040
:203BD5003A74082BF582E43CF583751B0D751C00C017C016C01575D0001277BB75D010ABA7
:203BF50082AC83D015D016D017EB2400F582EC3401F583E0FCBC2E03023CFBBD6E0280037C
:203C1500023F71BE20028003023F718F147D00740C2CF582E43DF583751B0D8D1CC015C011
:203C35001475D0001277BB75D010AA82AB83D014D015EA2400F582EB3401F583E0FBBB3A6D
:203C5500028003023F71740B2CF582E43DF583751B0D751C00C015C01475D0001277BB7588
:203C7500D010AA82AB83D014D015EA2400F582EB3401F583E0FBBB43028003023F71740A81
:203C95002CF582E43DF583751B0D751C00C015C01475D0001277BB75D010AA82AB83D014E0
:203CB500D015EA2400F582EB3401F583E0FBBB4B028003023F7174092CF582E43DF58375A7
:203CD5001B0D751C0075D0001277BB75D010AC82AD83EC2400F582ED3401F583E0FDBD54CB
:203CF500028003023F71D20F023F71200F03023D919000F7E0FDBD50028003BD6E05740A3F
:203D1500B59912BD66057422B5990ABD743D742EB5990280369000BBE0FDBD0A00502CBDDA
:203D35000900501E8D149000BBED04F00CEC3395E0FBEC240CF582EB3400F583E599F002F5
:203D55003F719000BBED04F0023F71C20FC2119000BBE0FDBD0A005016D22E0DED3395E025
:203D7500FCED240CF582EC3400F583E4F080059000F9E4F09000BBE4F0023F719000F7E018
:203D9500FDBD5040BE3A3D8F137C00740C2BF582E43CF583751B0D8C1CC017C016C015757B
:203DB500D0001277BB75D010AB82AC83D015D016D017EB2400F582EC3401F583E0FCBC2997
:203DD50003023E58BD6E3FBE303C8F137C00740C2BF582E43CF583751B0D8C1CC017C016D5
:203DF500C01575D0001277BB75D010AB82AC83D015D016D017EB2400F582EC3401F583E0EE
:203E1500FCBC2002803DBD66028003BD743ABE34378F157E00740C2DF582E43EF583751B4A
:203E35000D8E1CC01775D0001277BB75D010AD82AE83D017ED2400F582EE3401F583E0FEB9
:203E5500BE3805D20F023F717435B599028003023F098F157E00740C2DF582E43EF58375A4
:203E75001B0D8E1CC017C016C01575D0001277BB75D010AB82AC83D015D016D017EB2400DE
:203E9500F582EC3401F583E0FCBC3168740B2DF582E43EF583751B0D751C00C017C016C074
:203EB5001575D0001277BB75D010AB82AC83D015D016D017EB2400F582EC3401F583E0FCF1
:203ED500BC2031740A2DF582E43EF583751B0D751C00C01775D0001277BB75D010AD82AE44
:203EF50083D017ED2400F582EE3401F583E0FEBE2C0280667452B599638F167F00740C2E27
:203F1500F582E43FF583751B0D8F1CC017C01675D0001277BB75D010AC82AD83D016D0177C
:203F3500EC2400F582ED3401F583E0FDBD522D740B2EF582E43FF583751B0D751C0075D000
:203F5500001277BB75D010AE82AF83EE2400F582EF3401F583E0FFBF4502D2319000FEE0D6
:203F75002401F0E0FF24F350059000FEE4F0C298D0D0D000D001D002D003D004D005D006AB
:203F9500D007D083D082D0F0D0E0D02932C2107F00EF2417FDE43400FE0F8D828E83E060F8
:203FB5000543C11080EBBFA000500FEF2417F582E43400F5830FE4F080EC900017E0FFBFE5
:203FD5003F028008900018E0FFBF3F062008030220E9900018E0FFBF43030246ECBF45037B
:203FF500024886BF48028044BF4903024D69BF5003024C1ABF53030247A4BF5403024DDA91
:20401500BF63030246ECBF6503024886BF6802801BBF6903024D69BF7003024C1ABF7303C5
:204035000247A4BF7403024DDA02510A90001AE0FF24CF40030240F3BF350040030240F362
:2040550090001DE060030240F390001BE0FEBE44028003BE64047D04800CBE53028007BE8B
:2040750073028002D21020101C90001CE0FEBE4102800ABE61028005EF24CD50088D06740C
:20409500082EFD801720100890001CE0FEBE530A90001CE0FEBE73028002D2108F06EE249C
:2040B500D02DFEC00612031CD0069000BDEEF0120357D243907F4B75F080121C84C2AF9085
:2040D5000200120304C2A07518009000051202E9D2A3900FA01204A375C760024689BF2B6B
:2040F5000280030242B090001BE0FEC3742F9EE433FD700302423BBE3300400302423B905C
:20411500001CE0FC24D0400302423BBC3A00400302423B90001DE0FB24D0400302423BBB2B
:204135003600400302423B90001EE0F56C24D0400302423B74C6256C500302423B90002080
:20415500E0F56824D0400302423B74CD2568500302423B900021E0F56924D0400302423B12
:2041750074C62569500302423B900022E0F56A24D0400302423B74CA256A500302423B90BA
:204195000023E0F56B24D0400302423B74C6256B500302423B8E0274022AF56DAA68C39A54
:2041B50075F00AA42404F56D254A2CAC69C39CFAAC6A74062CC39B75F00AA4256BAB6CC3AD
:2041D5009BF5668A6E756F00AB497C00743C2BF570E43CF571AA667C00C3E5709AE57164CA
:2041F500808CF063F08095F0E433FA7C00E56EC39AF582E56F9CF583751B0C8C1C1277BBB2
:20421500AB828B4CAC4974782CAB66C39BFC7B00751B3C8B1C8C828B831277BBAB828B50B7
:20423500120F49024689ED606DBE3600506890001CE0FD24D0505FBD3A00505AEE24D075A4
:20425500F00AA42D24D0FEAD4C740C2DFDC3E5509EE433FCEDC39CFD7C00751B0C8C1C8DAA
:20427500828C83C0061277BBAC82D0068C4CAC507D00743C2CFCE43DFD7B00ECC39EF58204
:20429500ED9BF583751B3C8B1C1277BBAD828D50120F49024689D210024689BF2D46900096
:2042B5001BE0FF24D05038BF3600503390001CE0FE24D0502ABE3A005025EF24D075F00A44
:2042D500A4AD502D2E24D0F55024C4500CE54C04F54CE550FF24C4F550120F49024689D26C
:2042F5001002468990001BE0FFBF4E028003BF6E2430080302513012031C9000BDE054EFFC
:20431500F0120357C23678807600788276187883763C024689BF46028003BF661A300803BC
:2043350002513012031C9000BDE04410F0120357D236C2C20246899001327403F075670173
:20435500900132E0FE2417F582E43400F583E0FDBD2C46E56770099001327465F00246734D
:20437500AB677C0074012BF570E43CF57190012DE0FA7C0074012AF51BE43CF51C857082A4
:20439500857183C0061277BBAB82AC83D0068B67900132EE04F0024673BD30005015E56763
:2043B50070057C65FE80047CCA7E00900132ECF0024673E5677042BD6702800DBD470280BB
:2043D50008BD61028003BD4130C2C278807600122169AD4A7E00751B0C8E1C8D828E831274
:2043F50077BBAD82AE838D4B788276187883763C9001327465F0024673900132E0FE2417E6
:20441500F582E43400F583E0FD24D0400302466DBD3300400302466D8E037C0074012BFA28
:20443500E43CFFEA2417F582EF3400F583E0FF24D0400302466D74012BFAE43CFFEA241768
:20445500F582EF3400F583E0FFBF3A00400302466D74022BFAE43CFFEA2417F582EF3400EC
:20447500F583E0FF24D0400302466D74022BFAE43CFFEA2417F582EF3400F583E0FFBF361F
:2044950000400302466D74032BFAE43CFFEA2417F582EF3400F583E0FF24D0400302466D52
:2044B50074032BFAE43CFFEA2417F582EF3400F583E0FFBF3A00400302466DE56770030264
:2044D50045B1E56714F56E244CF5708D027F00EA24D0F51BEF34FFF51C90000AC006C004E6
:2044F500C00312770C858272858373D003D00474012BFAE43CFFEA2417F582EF3400F583C4
:20451500E07A002572FFEA3573FAEF24D0F582EA34FFF583751B0C751C00C004C0031277DE
:20453500BBAA82D003D004A870A602E56E2450F974022BFAE43CFFEA2417F582EF3400F5EA
:2045550083E024D075F00AA4F57274032BFAE43CFFEA2417F582EF3400F583E0257224D018
:20457500F7120F49AA677F0074012AF572E43FF57390012DE0FF7A0074012FF51BE43AF5C6
:204595001C8572828573831277BBAA82AF83D0068A6790013274052EF0024673C2C27880FC
:2045B500E4F6FFED24D0F51BEF34FFF51C90000AC004C00312770CAE82AF83D003D00474B6
:2045D500012BFAE43CFDEA2417F582ED3400F583E07A002EFEEA3FFFEE24D0F582EF34FF25
:2045F500F583751B188A1CC004C0031277BBAE82D003D0048E4A74022BFEE43CFFEE24177F
:20461500F582EF3400F583E024D075F00AA4FF74032BFBE43CFCEB2417F582EC3400F5839F
:20463500E02F24D0F549AE4A7F00751B0C8F1C8E828F831277BBAE828E4B85493985483AE9
:20465500854A8212024BC21D788276187883763C9001327465F0800690013274CAF09001ED
:2046750032E0FFBF64005003024355BFCA03D38001C39210120A54858255120CCC858256AC
:2046950030102A30090ED243907F7075F080121C84025130D243907F8375F080121C84C2A6
:2046B50043907F7075F080121C8402513030090ED243907FB175F080121C84025130D243BE
:2046D500907FCB75F080121C84C243907FB175F080121C8402513090001BE0FFBF65028045
:2046F50003BF4514300803025130D244907FF875F080122070025130BF6E028003BF4E14D2
:2047150030080302513012031C9000BE7401F01203578051BF66028003BF461330080302A6
:20473500513012031C9000BEE4F01203578036900019E0603090001AE0602A30090ED243E5
:20475500907F7075F080121C84025130D24390801075F080121C84C243907F7075F0801264
:204775001C8402513030090ED24390803A75F080121C84025130D24390804E75F080121CBB
:2047950084C24390803A75F080121C8402513030080302513090001BE0FFBF7902800DBF49
:2047B50059028008BF44028003BF6426D24390807575F080121C84C2AFC2A075180090000F
:2047D500051202E9D2A3900FA01204A375C760025130BF67028003BF477190001FE0FE2463
:2047F500D0505ABE3A00505512031C90001FE024D0FE9000C0F09000E6EEF0900021E0FEB8
:2048150024D05028BE33005023900022E0FD24D0501ABD3A005015EE24D075F00AA42D2424
:20483500D0FEBE180050059000C1EEF0120357D24390808A75F080121C84025130D2439061
:2048550080A075F080121C84025130BF69028003BF4910D2439080B875F080121C84C2A06E
:20487500025130D2439080CA75F080121C8402513030080302513090001BE0FFBF580280B6
:2048950003BF781912031C9000C4E4F0120357D2449080E375F08012207002513012031CA7
:2048B5001203579000C4E4F09001327404F0900132E0FF2417F582E43400F583E0FE24D06E
:2048D5004003024BD8BE33004003024BD88F057F0074012DFBE43FFCEB2417F582EC340076
:2048F500F583E0FC24D04003024BD874012DFBE43FFCEB2417F582EC3400F583E0FCBC3A30
:20491500004003024BD874022DFBE43FFCEB2417F582EC3400F583E0FC24D04003024BD8F0
:2049350074022DFBE43FFCEB2417F582EC3400F583E0FCBC36004003024BD874032DFBE4B7
:204955003FFCEB2417F582EC3400F583E0FC24D04003024BD874032DFBE43FFCEB2417F5C1
:2049750082EC3400F583E0FCBC3A004003024BD874052DFBE43FFCEB2417F582EC3400F55C
:2049950083E0FC24D04003024BD874052DFBE43FFCEB2417F582EC3400F583E0FCBC330087
:2049B5004003024BD874062DFBE43FFCEB2417F582EC3400F583E0FC24D04003024BD874D8
:2049D500062DFBE43FFCEB2417F582EC3400F583E0FCBC3A004003024BD874072DFBE43F40
:2049F500FCEB2417F582EC3400F583E0FC24D04003024BD874072DFBE43FFCEB2417F582DA
:204A1500EC3400F583E0FCBC36004003024BD874082DFBE43FFCEB2417F582EC3400F583BB
:204A3500E0FC24D04003024BD874082DFBE43FFCEB2417F582EC3400F583E0FCBC3A00401F
:204A550003024BD88E1B751C0090000AC007C006C00512770CAB82AC83D005D006D007C0C0
:204A75000674012DFAE43FFEEA2417F582EE3400F583E07A002BFBEA3CFCC3EB9428EC64CC
:204A9500809482D0064003024BD8C00674052DFBE43FFCEB2417F582EC3400F583E0FC8C0A
:204AB5001B751C0090000AC007C006C00512770CAB82AC83D005D006D00774062DFAE43F12
:204AD500FEEA2417F582EE3400F583E07A002BFBEA3CFCC3EB9428EC64809482D006400382
:204AF500024BD8ED24FCF582EF34FFF583751B05751C00C007C006C0051277F1AB82D0056A
:204B1500D006D00774082BFC3395E0FAEC24BDF570EA3400F571EE24D075F00AA4F5727408
:204B3500012DFCE43FFEEC2417F582EE3400F583E0257224D075F006A4FE74022DFAE43FA5
:204B5500FCEA2417F582EC3400F583E02E24D0857082857183F074092BFB3395E0FEEB24D6
:204B7500BDFBEE3400FE74052DFAE43FFCEA2417F582EC3400F583E024D075F00AA4F57207
:204B950074062DFAE43FFCEA2417F582EC3400F583E0257224D075F006A4FC74072DFDE40D
:204BB5003FFFED2417F582EF3400F583E02C24D08B828E83F09000C4E0FF0F0F9000C4EFC6
:204BD500F08006900132744BF0900132E0240AF0E0FFBF4B0050030248C39000C4E0601723
:204BF500900000120304120357D2449080FB75F080122070025130D24390811075F0801233
:204C15001C8402513030080302513090F010E493700ED24390812B75F080121C84025130AE
:204C350090001CE0FFBF54028003BF7410C2C2D24390814075F080121C84025130BF4E02E6
:204C55008003BF6E2F90F010E493FEBE011812031C9000CD7402F0120357788076007882BC
:204C750076187883763CD24390814A75F080121C84025130BF46028003BF662590F010E412
:204C950093FEBE020EC2C212031C9000CD7401F0120357D24390815375F080121C8402515A
:204CB5003090001BE0FE24D04003024D5BBE33004003024D5BEF24D04003024D5BBF3A009E
:204CD5004003024D5B90001DE0FD24D05078BD3600507390001EE0FCBC30028003BC356684
:204CF500900020E0FB24CF505DBB38005058209247D2C2EB24D0F582EE24D075F00AA42FD2
:204D150024D0F519ED24D075F00AA42C24D0F51A1276229005DC1204A330920ED24390818F
:204D35005C75F080121C84025130D24390817175F080121C84025130D24390819375F08099
:204D5500121C84025130D2439081B975F080121C8402513030080302513090001BE0FFBF09
:204D750042028012BF6202800D90001CE0FEBE4E028003BE6E1D12031C9000BF7401F0123D
:204D95000357122169D2439081D075F080121C84025130BF54028012BF7402800DBE42028D
:204DB5008008BE6202800302513012031C9000BFE4F0120357C21DD2439081D975F0801299
:204DD5001C840251303008030250FF90001AE0FFBF4702800DBF67028008BF43028003BFFB
:204DF5006310D207D2439081E275F080121C840250FFBF2B028003024F4490001BE0FEBE17
:204E150038028003024F4490001CE0FEBE34028003024F4490001DE0FEBE30005003024F78
:204E350036EE24C65003024F3690001EE0FEBE30005003024F36EE24C65003024F369000DF
:204E55001FE0FEBE30005003024F36EE24C65003024F36900020E0FEBE30005003024F3670
:204E7500EE24C65003024F36900021E0FEBE30005003024F36EE24C65003024F36900022B0
:204E9500E0FEBE30005003024F36EE24C65003024F36900023E0FEBE30005003024F36EE5E
:204EB50024C65003024F36900024E0FEBE30004070EE24C6406B900025E0FEBE3000406144
:204ED500EE24C6405C12031C9000CEE4F07E018E0574112DFD3395E0FCED24BDFDEC340096
:204EF500FC8E027B0074062AFAE43BFBEA2417F582EB3400F583E08D828C83F00EBE0A00E7
:204F150040CD9000D9E0FEBE02069000D97401F0120357D2439081FF75F080121C8402501A
:204F3500FFD24390821D75F080121C840250FFBF3002800302505F90001BE0FEBE30005045
:204F550003025051EE24C6500302505190001CE0FEBE30005003025051EE24C650030250DD
:204F75005190001DE0FEBE30005003025051EE24C6500302505190001EE0FEBE30005003C1
:204F9500025051EE24C6500302505190001FE0FEBE30005003025051EE24C650030250514C
:204FB500900020E0FEBE30005003025051EE24C65003025051900021E0FEBE3000500302CA
:204FD5005051EE24C64075900022E0FEBE3000406BEE24C64066900023E0FEBE3000405CCC
:204FF500EE24C6405712031C7E008E0574112DFD3395E0FCED24BDFDEC3400FC8E027B00A6
:2050150074032AFAE43BFBEA2417F582EB3400F583E08D828C83F00EBE0A0040CD9000D959
:20503500E0FEBE02069000D97401F0120357D2439081FF75F080121C840250FFD243908249
:205055001D75F080121C840250FFBF78028003BF581A12031C9000D97402F0120357D243C8
:2050750090824275F080121C840250FF90F01CE493FFBF022490001BE0FFBF6E02800DBFE3
:205095004E028008BF66028003BF465ED24390825175F080121C84805190001BE0FFBF4E9F
:2050B500028003BF6E1912031C9000D97401F0120357D24390828375F080121C84802BBFFA
:2050D50046028003BF661812031C9000D9E4F0120357D24390829275F080121C84800BD22C
:2050F500439082A175F080121C8490F01CE493FF13920A802630090DD2439082BE75F08097
:20511500121C848016D2439082D175F080121C84C2439082BE75F080121C8443C1107F00A4
:20513500EF2417FDE43400FE8D828E83E0600FEF2417F582E43400F5830FE4F080E2227F97
:20515500007E007575018F937594FF8F928F918F957596FF8FB28FB175B30275B41C8FCAEF
:205175008FC98FC075B0FF8FA075B881759D088F978FBD75BC83D2ADD2AF9000E774FAF05D
:205195009000B9E4F075560575550590000C7430F09000B8740AF09000F37402F09000F2ED
:2051B500F09000F1F09000F47407F09000F57401F0C007C006120FC512031CD006D00790BF
:2051D50000BDE0FCBCFF059000BDE4F09000BEE024FE50059000BEE4F09000BFE024FE50D8
:2051F500069000BF7401F09000C0E024F650069000C07401F09000C1E024E850059000C1A8
:20521500E4F09000C3E0FCC4540FFB7A001BBBFF011AC374089B74808AF063F08095F050FA
:205235000A740F5C4450FC9000C3F09000C3E0FC53040F7B001CBCFF011BC374089C7480CB
:205255008BF063F08095F0500F9000C3E0FC74F05C4401FC9000C3F09001337401F09000DB
:20527500C4E0FCBC0900502EEC20E02A7B01C3EC9B401E8B0274072AFA3395E0FDEA24BD60
:20529500F582ED3400F583E0FDBD900050030B80DD900133EBF0900133E0FDC3EC9D401226
:2052B5009000C47402F09000C57424F09000C6746CF0900133E4F09000D9E0FDBD0200502F
:2052D500479000D8E07041FDBD0A0050368D0474112CFB3395E0FAEB24BDF582EA3400F5FA
:2052F50083E0FBBB3000401B74112CFC3395E0FBEC24BDF582EB3400F583E0FC24C64003C1
:205315000D80C5900133EDF0900133E0FDBD0A00500B9000D8E4F09000D97402F09000DA4D
:20533500E0FD24E750059000DAE4F03092079000CDE4F080129000CDE0FD6005ED24FD5054
:20535500069000CD7402F09000DBE0FD53050F7C001DBDFF011CC3740A9D74808CF063F0AD
:205375008095F050069000DB743BF09000DCE024FE50069000DC7401F0C007C00612035725
:20539500D006D00790F000E493FD74035D90012D04F090F000E493A2E2923490F000E49399
:2053B500A2E39235921290F000E493A2E4923690F000E493FDA2E5923720341920351690F7
:2053D500F000E493FD5305C0E43395E0FDFC9000EDEDF080059000EDE4F090F01EE493FD75
:2053F500530560E403CDC40354076DCD5407CD6DCD30E20244F8FC900130EDF07D00ED24F6
:2054150001FBE43400FC900130E0FABA02005008ED90784993FA8006ED90783E93FA8B829A
:205435008C83EAF00DBD0B0040D490012FE4F090F01E93FD53050F7C00C3ED9406EC6480C6
:205455009480501190F01EE493FD740F5D04FC3395E0FD802790F01EE493FB53030F7A0095
:20547500740CC39BF51BE49AF51C90003CC007C0061277F1AC82AD83D006D00790012EEC11
:20549500F090F01EE49330E405BC3C00500690012F743DF090F000E49330E6067CFF7D001F
:2054B50080113034067A1E7B0080047A0A7B008A048B059000ECECF090012DE0FDBD010374
:2054D500025588BD02028075BD0302803ABD040280030255BE9000EBECF090F206E493FDF8
:2054F50024C4400A90F207E493FD24F4500BC007C006120F49D006D00790F206E493F5530A
:2055150090F207E493F54F9000ECE0FD9000EAF090F204E493FD24C4400A90F205E493FD48
:2055350024F4500BC007C006120F49D006D00790F204E493F55290F205E493F54E9000EC3E
:20555500E0FD9000E9F090F202E493FD24C4400A90F203E493FD24F4500BC007C006120FAC
:2055750049D006D00790F202E493F55190F203E493F54D9000ECE0FD9000E8F090F200E47A
:2055950093FD24C4400A90F201E493FD24F4500BC007C006120F49D006D00790F200E4932D
:2055B500F55090F201E493F54CD2A2C007C006120388D006D00790F010E4936017C007C006
:2055D5000612760CD006D00778807600788276187883763CD20390F003E4939000E6F0C0D7
:2055F50007C006120FAF120643D006D007202203025E35202603025E35202A03025E3575E2
:2056150076007C0090F01EE493F57490F01FE493F57790F000E493FDC22AC226C2229082C5
:20563500F775F080C005C0041205D990830875F0801205D990012DE02430F5821204FBD0C6
:2056550004D00530340875780E7579838006757814757983C005AA78AB797D808A828B836A
:205675008DF0C005C0041205D9D004D005D0053035067A1A7B8380047A207B83C0057D80C6
:205695008A828B838DF0C005C0041205D990832675F0801205D9D004D0059000EDE0FD24B0
:2056B50030F582C005C0041204FB753E047582C01204D0D004D00590012DE0149000F5F070
:2056D5009000F4E4F0D005EC7003025A65203F030258CCC005C23F90832A75F080C005C073
:2056F500041205D9D004D005857478757900740F5578FB7D00C3EB9406ED64809480D005CF
:20571500500DAB74740F5B04FA3395E0FB802BC005740F5578F57A757B00740CC3957AF513
:205735001BE4957BF51C90003CC005C0041277F1AA82AB83D004D005D0059000F4E0700BAE
:20575500302D08757A5F757B008029C0058A037D00751B0A8D1C8B828D83C004C0021277AA
:20577500F1AB82D002D00474302BFB8B7A3395E0F57BD005857A82C005C004C0021204FBB7
:20579500D002D004D0059000F4E0700B302D08757A5F757B0080257B00751B0A8B1C8A828A
:2057B5008B83C005C0041277BBAA82AB83D004D00574302AFA8A7A3395E0F57B857A82C0D1
:2057D50005C0041204FB90832E75F0801205D9D004D0059000F4E0FBBB0109302D067A5FBB
:2057F5007B008032C00574605578F57AE4F57BC403C57AC4035407657AC57A5407C57A65F9
:205815007AC57A30E20244F8F57BAD7A74302DFA3395E0FBD0058A82C005C0041204FB905A
:20583500833275F0801205D9D004D0059000F4E0FBBB0209302D067A5F7B008030C005745B
:20585500105578F57AE4F57BC4C57AC4540F657AC57A540FC57A657AC57A30E30244F0F54D
:205875007BAD7A74302DFA3395E0FBD0058A82C005C0041204FB90833675F0801205D9D09A
:2058950004D0059000F4E0FBBB0309302D067A5F7B008016E5776008757A54757B0080062A
:2058B500757A4E757B00AA7AAB7B8A82C005C0041204FBD004D00510220302595F9000F49A
:2058D500E02401F0E0FBBB0102800FBB0202802ABB03028043BB04728046AA74530260E4FC
:2058F50003CAC40354076ACA5407CA6ACA30E20244F8FB9000F5EAF08050AA74530210E436
:20591500CAC4540F6ACA540FCA6ACA30E30244F0FB9000F5EAF080329000F5E577F0802A1C
:20593500C005C00412031C9000BDE054EFF09000DBE574F09000DCE577F0120357900200CE
:20595500120304D004D00575C76010260280659000F4E0FBE06006EB149000F4F09000F41B
:20597500E0FB600ABB0102800FBB0248802A9000F5740F5574F0803CAA74530260E403CAD0
:20599500C40354076ACA5407CA6ACA30E20244F8FB9000F5EAF0801CAA74530210E4CAC408
:2059B500540F6ACA540FCA6ACA30E30244F0FB9000F5EAF0102A030256DC9000F5E024013C
:2059D500F09000F4E0FB24FC50030256DCEB2B9059E873800680218040805E9000F5E02414
:2059F500F450059000F5E4F074F05574FB9000F5E0FA4BF5740256DC9000F5E024FD5005A6
:205A15009000F5E4F0741F5574FB9000F5E0C42354E0FA4BF5740256DC9000F5E024FE5088
:205A3500059000F5E4F074EF5574FB9000F5E0C454F0FA4BF5740256DC9000F5E0FB24FEFB
:205A550050059000F5E4F09000F5E0F5770256DC9000F4E0FB24FA5003025C22EB2B2B905D
:205A75005A7873025A8A025AA4025AFB025B47025B8E025BAA90012DE0149000F5F07582DB
:205A9500C4C005C004120559D004D005025C229000F5A234E433F0C005C0041205B4D00481
:205AB500D005103F03025C22302D067A3A7B83801B30340B757C0E757D83757E8080097526
:205AD5007C14757D83757E80AA7CAB7DC0057D808A828B838DF0C005C0041205D9D004D075
:205AF50005D005025C229000F5A235E433F0103F03025C22302D067A407B83801B30350BDC
:205B1500757C1A757D83757E808009757C20757D83757E80AA7CAB7DC0057D808A828B83D1
:205B35008DF0C005C0041205D9D004D005D005025C229000EDE09000F5F0103F03025C22B8
:205B550090832675F080C005C0041205D9D004D005302D067A5F7B00800FC0059000EDE088
:205B75002430FA3395E0FBD0058A82C005C0041204FBD004D005025C2290834575F080C07E
:205B950005C0041205D990835775F0801205D9D004D005807874105DFB90012DE0FA1AEADF
:205BB5002BFB303408757C04757D008005E4F57CF57DE57C2BFB90012DE0FABA0102801699
:205BD500303508757C08757D008005E4F57CF57D8B02E57C2AFB20341120350E9000EDE0D4
:205BF500030354C0F57C8B022AFB900000C005C004C003120304900200120304D0038B183D
:205C15009000001202E9D004D00575C760102A03025CC27576009000F4E0FB24FC50030281
:205C35005CC2EB2B905C3D738006803E804E805C9000F5E0FBBB030050090BEBFA3395E082
:205C5500FB80047A007B009000F5EAF00A90012DEAF074302AF582C005C0041204FB7582E4
:205C7500C4120559D004D00580439000F5E0FB7401C39BFB24FF9234EBF080319000F5E067
:205C9500FB7401C39BFB24FF9235EBF09000F5E0FBBB030050090BEBFA3395E0FB80047A59
:205CB500007B009000F5EAF09000EDEAF0102203025D567576009000F4E02401F090830835
:205CD50075F080C005C0041205D990012DE02430F5821204FBD004D0053034067A0E7B833E
:205CF50080047A147B83C0057D808A828B838DF0C005C0041205D9D004D005D005303506C4
:205D15007A1A7B8380047A207B83C0057D808A828B838DF0C005C0041205D990832675F050
:205D3500801205D9D004D0059000EDE0FD2430F582C005C0041204FB1205B4D004D005D032
:205D5500051026030256DC9000F4E0FBE06006EB149000F4F09082F775F080C005C004121B
:205D750005D990830875F0801205D990012DE02430F5821204FBD004D0053034067A0E7BB0
:205D95008380047A147B83C0057D808A828B838DF0C005C0041205D9D004D005D0053035A6
:205DB500067A1A7B8380047A207B83C0057D808A828B838DF0C005C0041205D9908326759A
:205DD500F0801205D9D004D0059000EDE0FD2430F582C005C0041204FBD004D005D00590D8
:205DF50000F4E060030256DCAB760576EB24F7501B7C01C005C0041205B4D004D00590F01C
:205E15001EE4939000F5540FF00256DC753E047582C0C005C0041204D0D004D0050256DC12
:205E350075BC8B75334975340075354075364875370075384090004A75F040C007C0061263
:205E550001BBD006D007E54A24E8400CE54924C44006E54824C45014753900753A00758214
:205E750000C007C00612024BD006D007C007C0061200F0D2A8D2887533497534007535408D
:205E950075364875370075384090004A75F0401201BBD006D00790F01CE493FD13920A2088
:205EB5003070C007C006122117D006D0075063C007C00612216912235412239DD006D007C5
:205ED500505090F005E4937015D24390836975F080C007C006121C84D006D0078029D2436C
:205EF50090838675F080C007C006121C84D006D007300A13C24390838675F080C007C006C6
:205F1500121C84D006D007C007C00612181FD006D007E54A24F45007E54A24F4FD8002AD79
:205F35004A8D4B90F005E493701C9000F67405F0C007C00612031C9000C274FFF0120357D4
:205F5500D006D00780069000F6743CF075C16590012DE0FDBD042090F206E493B5530B901A
:205F7500F207E493FDB54F02800DC007C006120F49D006D007807090012DE0FD24FD50204C
:205F950090F204E493B5520B90F205E493FDB54E02800DC007C006120F49D006D0078047E5
:205FB50090012DE0FD24FE502090F202E493B5510B90F203E493FDB54D02800DC007C0067C
:205FD500120F49D006D007801E90F200E493B5500B90F201E493FDB54C02800BC007C006DC
:205FF500120F49D006D0079000F6E060069000F4E0702B9000F4E4F07405B5550EC007C03A
:2060150006120A54858255D006D0077405B5560EC007C006120CCC858256D006D007101FAA
:206035000302619D90839A75F080C007C0061203B59000DEE0FD7C00751B0A8C1C8D828CBB
:20605500831277F1AC8274302CF5821203A09000DEE0FD7C00751B0A8C1C8D828C83127754
:20607500BBAC8274302CF5821203A09000DFE0FD7C00751B0A8C1C8D828C831277F1AC8256
:2060950074302CF5821203A09000DFE0FD7C00751B0A8C1C8D828C831277BBAC8274302C85
:2060B500F5821203A09000E0E0FD7C00751B0A8C1C8D828C831277F1AC8274302CF5821275
:2060D50003A09000E0E0FD7C00751B0A8C1C8D828C831277BBAC8274302CF5821203A0ACC5
:2060F5004A7D00751B0A8D1C8C828D831277F1AC8274302CF5821203A0AC4A7D00751B0AB2
:206115008D1C8C828D831277BBAC8274302CF5821203A0AC497D00751B0A8D1C8C828D8362
:206135001277F1AC8274302CF5821203A0AC497D00751B0A8D1C8C828D831277BBAC8274ED
:20615500302CF5821203A0AC487D00751B0A8D1C8C828D831277F1AC8274302CF5821203CC
:20617500A0AC487D00751B0A8D1C8C828D831277BBAC8274302CF5821203A09083A175F011
:20619500801203B5D006D007203E2E30022BD2439083A775F080C007C006121C84D006D071
:2061B50007300A13C2439083A775F080C007C006121C84D006D007D23E303E2E20022BD21B
:2061D500439083B575F080C007C006121C84D006D007300A13C2439083B575F080C007C048
:2061F50006121C84D006D007C23E9000E7E07018203815D238D2439083C875F080C007C073
:2062150006121C84D006D0079000E8E0702E20392BD239D2439083D775F080C007C00612FC
:206235001C84D006D007300A13C2439083D775F080C007C006121C84D006D00790012DE051
:20625500FD24FE50349000E9E0702E203A2BD23AD2439083E675F080C007C006121C84D0FC
:2062750006D007300A13C2439083E675F080C007C006121C84D006D00790012DE0FD24FD54
:2062950050349000EAE0702E203B2BD23BD2439083F575F080C007C006121C84D006D007EC
:2062B500300A13C2439083F575F080C007C006121C84D006D00790012DE0FDBD043490007E
:2062D500EBE0702E203C2BD23CD24390840475F080C007C006121C84D006D007300A13C29E
:2062F5004390840475F080C007C006121C84D006D007201E030263D620A0169000B8E014CF
:20631500F0E0700D75BC83D2A09000B8741EF0D2059000E3E0FDE0602D9000E1E07027EDC2
:20633500149000E3F0E0701E9000E17405F09000E3F0C007C006120A54858255120CCC855E
:206355008256D006D0077405B555028022E55524E8FCE43400FD8C828D83E0FB60111B8C14
:20637500828D83EBF0EB7007C219C2177555057405B556028022E55624E8FCE43400FD8CAA
:20639500828D83E0FB60111B8C828D83EBF0EB7007C21AC2187556059000F6E0601090F0B8
:2063B50010E49360032092069000F6E014F09000F1E0FDE06009302406ED149000F1F0C287
:2063D5001EC007C006120875D006D0079000F4E0701490F010E493FDBD020BC007C006126C
:2063F50009BCD006D00790F003E49360159000E6E0700F90F004E493FDB54A06E54924FA89
:2064150040099000B9E0FD24FE50727405B5556D7405B5566890F010E493600320925E902E
:20643500012EE0FDBD3C00501990F004E493FD753906753A008D82C007C00612024BD006AD
:20645500D0079000B9E024FE5013D24390841375F080C007C006121C84D006D007C2AFC262
:20647500A0751800900005C007C0061202E9D2A3900FA01204A3D006D00775C760300303CF
:2064950002652C74FB2549500302652C201D2590F002E493601EC007C006122169D006D0E9
:2064B50007E54A24F45007E54A24F4FD8002AD4A8D4B80477533497534007535407536484F
:2064D50075370075384090004A75F040C007C0061201BB752ADE752B00752C00752DDF7580
:2064F5002E00752F007530E07531007532009000DD75F000120108D006D00790F001E49351
:206515006013D24390843875F080C007C006121C84D006D007D203100C028029755AD3750E
:206535005B78755C8075580F755901907D2275F080C007C00612157090844975F0801203E8
:20655500B5D006D007100702801190000175F000C007C00612174ED006D0079000F4E0FD12
:2065750024F8500302759EED240A83F582ED240C83F583E4739A97280A388C8C2F656C71DA
:20659500757375756830054175BC8BC2059000FCE4F0C007C006122169AB4A7C00751B0C1D
:2065B5008C1C8B828C831277BBAB828B4B12239DD006D0075013D24390845875F080C007AC
:2065D500C006121C84D006D007300E28C007C006123FA2755ACE755B7E755C8075580F750E
:2065F5005901907EA975F080121570D006D007C20E0267BC90012DE0FCBC01028014BC02AC
:20661500028044BC030302670CBC04030266A80267683034067B6E7C8480047B767C848B71
:20663500428C43754480854C458550469000DDE0F547A2209201758280C007C0061206C40C
:20665500D006D00702676875427E754384754480854C458550467547FDA220920175828047
:20667500C007C0061206C475427E754384754480854D458551467547FDA220920175828733
:206695001206C490847E75F0801205D9D006D007026768301D067B817C84801F90F002E4D0
:2066B50093600B757C85757D84757E808009757C89757D84757E80AB7CAC7D8B428C43751B
:2066D5004480854A45854946854847A22092017582C5C007C0061206C475428D7543847536
:2066F5004480854F458553467547FBC2017582C01206C4D006D00775428D75438475448017
:20671500854C458550467547FBC201758280C007C0061206C475428D754384754480854D4E
:20673500458551467547FBC2017582851206C475428D754384754480854E45855246754767
:20675500FBC20175828A1206C47582201204FBD006D00790012DE0FCBC0402804A301D06BB
:206775007BFA7C7B801F90F002E493600B757C0A757D7C757E808009757C02757D7C757EDC
:2067950080AB7CAC7D8B428C43754480854A45854946854847A22092017582C0C007C0066A
:2067B5001206C4D006D0079000F1E060030275A73017030275A7C2229000F6743CF0900057
:2067D500E2E4F09000E1F09000E3F09000F47407F09000F57401F0755605755505C2C278B6
:2067F50080760010260280030275A7D24390848F75F080C007C006121C84D006D007200A02
:20681500030275A7C2439084A375F080C007C006121C84D006D0070275A7102202802F9024
:2068350000F6743CF09000F5E02401F0E0FCBC040D90F010E49370069000F5EC04F0900018
:20685500F5E0FC24F950059000F5E4F0C22D102A02800D9000F6743CF09000F5E4F0C22D61
:20687500102603026C2A9000F6743CF09000F5E09000F4F09000F5E4F0C007C006120A54DD
:20689500858255120CCC858256D006D0079000F4E070030275A7758280C007C0061205592A
:2068B5009000F4E075F011A4245CFB747835F0FC7A808B828C838AF01205D9D006D0079000
:2068D50000F4E0FC24F950030275A7EC2C2C9068E7730275A70268FC026A19026A60026A6E
:2068F5007D026AA5026B4D90012DE0FCBC012F3034067A6E7B8480047A767B848A428B4357
:20691500754480854C45855046754700D2017582C0C007C0061206C4D006D007806EBC03EF
:206935000050067BC07C0080047B807C008B8275427E754384754480854C45855046754796
:20695500FDD201C007C0061206C4D006D00790012DE0FCBC030050067BC77C0080047B8749
