:2000A500AF827E0075730A8E748F828E83C007C0061246CBAC82D006D007ECC454F0FC7586
:2000C500730A7574008F828E83C004124695AE82D004EE4CF58222E582FFC4540F75F00A0F
:2000E500A4FE740F5F2EF582221203167582D0120355758207120355758210120355020376
:20010500311203167582D01203557582041203551203311203167582D1120355C20012036E
:200125007A1200DCAF82C007120331D0078F8222AD82AE83AFF0C007C006C0051203167519
:2001450082D01203557582001203551203311203167582D1120355AA1BAB1CAC1DD200C0F3
:2001650004C003C00212037A1200DCA982D002D003D0048A828B838CF0E91245CBAA18ABC2
:2001850019AC1AD200C004C003C00212037A1200DCA982D002D003D0048A828B838CF0E9C0
:2001A5001245CBC20012037A1200DCAC82D005D006D0078D828E838FF0EC1245CB02033146
:2001C500AF82C0071203167582D0120355758200120355851F821200A5120355851E8212E7
:1201E50000A5120355D0078F821200A5120355020331BA
:2001F70075C70075C50075C60075C38075C40043C11022AE82AF8375C78375C5018EC48FD3
:20021700C375C65A75C6A500AFC2C0071201F7D0078F8222AE82AF8375C78375C5028EC494
:200237008FC38528C275C65A75C6A5000201F7AE82AF8375C78375C5038EC48FC375C65AE0
:2002570075C6A5000201F743C1107F1EEF60101FEF24A3F582E43400F58374FFF080EDBF32
:200277001E005018EF24A3FDE43400FE8F827583F00FE493FC8D828E83F080E39000000298
:2002970002467F00BFCD00502975C78375C5028FC475C300EF24A3F582E43400F5830FE049
:1302B700F5C275C65A75C6A500C0071201F7D00780D222EC
:2002CA00759850438E40538EFE758BCC758DFFC2ABD28ED2ACD2A022AD82AE83AFF08D820D
:2002EA008E838FF0124679FC60218C9920990543C11080F8C2998D828E838FF0124679FCE0
:0C030A00BC1A01220DBD00D60E80D322CB
:20031600D2C043C11043C110D2CD43C11043C110C2C043C11043C110C2CD22C2C043C11055
:2003360043C110D2CD43C11043C110D2C02243C11043C110D2CD43C11043C110C2CD22AFC9
:20035600827E00EF23540124FF92C08F05ED2DFFC007C006120344D006D0070EBE08004057
:20037600E20203447F00D2C07E0043C11043C110D2CD43C11043C1108F05ED2DFDA2C0E4CD
:1E039600334DFFC2CD0EBE080040DFA200B392C0C007120344D007A2C092CD8F8222B6
:2003B400AE82AF837C007D00C3EC9EED9F500A43C1100CBC00F20D80EF22AE82AF837C0051
:2003D4007D00C3EC9EED9F501D9003E8C007C006C005C0041203B4D004D005D006D0070C8A
:2003F400BC00DF0D80DC22AF82E5294FF58212048175820D020481AF823029118F821204DA
:2004140081852A82852B83852CF00204FE8F820204DFE582FFC4540124FF9283EFA2E5E437
:200434003324FF9282EF2323540124FF9281EF23540124FF9280D284D285C284EF54012487
:20045400FF9283EF03540124FF9282EF03035401FE24FF9281EFA2E3E433FF24FF9280D2E7
:200474008400C2849000321203B4C28522E582FFC4540124FF9283EFA2E5E43324FF92822F
:20049400EF2323540124FF9281EF23540124FF9280D284C285C284EF540124FF9283EF039B
:2004B400540124FF9282EF03035401FE24FF9281EFA2E3E433FF24FF9280D28400C2849033
:2004D40000320203B475820C020481E582FF600E8F8212048190470775F0800204FE758259
:2004F400011204819006400203B4AD82AE83AFF07C008D828E838FF0124679FB6055BC105A
:20051400005050BB80005025EB24E050200CEC601C8B820DBD00010EC007C006C005C004A8
:20053400120426D004D005D006D00780C58D828E838FF0124679FBA3AD82AE838B82C0078E
:20055400C006C005C004120481D004D005D006D007809F22C286903A981203B475801C0086
:20057400C284900FA01203B4D28400C2849000A01203B4D28400C2849000A01203B47580FA
:200594001400C2849003E81203B4D28400C2840075801100C2849000281203B4758010003B
:2005B400C2840075801300C2849000281203B475801000C2840075801600C28490002812AC
:2005D40003B475801000C2840075801800C2849003E80203B4AF82AD307E0075730A8E74FE
:2005F4008D828E83C007C006C0051246CBAB82D005D00674302BF53375730A7574008D8299
:200614008E83124695AD82D00774302DF5343001067D3A7E0080047D207E008D35AD317E9F
:200634000075730A8E748D828E83C007C006C0051246CBAB82D005D00674302BF536757363
:200654000A7574008D828E83124695AD82D00774302DF5373001067D3A7E0080047D207E78
:20067400008D38AD327E0075730A8E748D828E83C007C006C0051246CBAB82D005D006746F
:20069400302BF53975730A7574008D828E83124695AD82D00774302DF53A753B008F8212FC
:1E06B4000481852D82852E83852FF01204FE74E82530400990003375F0400204FE22F9
:114707002020202020202020202020202020202000A1
:06000000020049020A3F64
:03000B00020CC024
:0100130032BA
:01001B0032B2
:030023000219F9C6
:03002B0002447418
:01003300329A
:03003B00020A8C2A
:0300430002446410
:0300A20002004613
:030046000236A3DC
:2006D200E54275F006A4FFAD417E0075730A8E748D828E83C0071246CBAD82D007ED2FF552
:2006F2005B7E017D0190F007E493FCC3ED9C400302079CED90F00793FC8D030BEB3395E031
:20071200FAEB2407F582EA34F0F583E493F9C3EC99E433F97C0009B900010CED90F00793A0
:20073200F8C3E55B98E4337F0029F9EF3CFCEB2407F582EA34F0F583E493FFC3E55B9FE426
:20075200337B0029F582EB3CF5837573028B74C006C005124695E5828583F0D005D00645EA
:20077200F060218E047F008C828F83A37573028F74C006124695AC82AF83D006EC4F24FFEE
:2007920092A180060D8D060206F790F007E493FFEEB50702800122EE90F00793FF90F00814
:2007B200E493FDC3EF9DE433FF7D000FBF00010DEE90F00793FCC3E55B9CE4337B002FFF92
:2007D200EB3DFD90F008E493FCC3E55B9CE4337B002FF582EB3DF5837573028B74C00612AF
:2007F2004695E5828583F0D00645F060197F008E828F83A37573028F74124695AE82AF83A9
:20081200EE4F24FF92A1227876B60002800E7876B6010280447876B6024880287877E6B552
:2008320042077878E6B5410122AF427877A607AE417878A6068E728F82124536753C5A7835
:200852007676022230920BD2C27876A2C2E433F68007AF3C153CEF7009209206787676006F
:20087200C2C2229000C5E0603220022F90F000E493602890F01DE493FF24E8401EE5527005
:200892001A9000C1E0FFE07014E541B54607E543B5450280069000C3E06002C322EF706D80
:2008B200854573F57490003C1245E6E5828583F024D0FE740235F0FFAC467D00EC2EFEED18
:2008D2003FFF8543738D7490003CC007C0061245E6AC82AD83D006D007EEC39CFEEF9DFF15
:2008F200AC417D00EEC39CF582EF9DF5837573D0757402124695AE82AF83C3742D9E7480CC
:200912008FF063F08095F040047F0080027F01EF24FF229000C6E0603220022F90F000E478
:2009320093602890F01DE493FF24E8401EE552701A9000C1E0FFE07017E541B54607E54365
:20095200B5450280069000C3E0600553A00FC322EF706D854573F57490003C1245E6E582A2
:200972008583F024D0FE740235F0FFAC467D00EC2EFEED3FFF8543738D7490003CC007C0A0
:20099200061245E6AC82AD83D006D007EEC39CFEEF9DFFAC417D00EEC39CF582EF9DF583EF
:2009B2007573D0757402124695AE82AF83C374689E74818FF063F08095F040047F008002E5
:2009D2007F018F4ED322538E7F758900758A24758CFAC28DD28CD2A92243C110B218A21855
:2009F2009287D216E555600215557402B55201220540E54024C45034754000D2170541E59F
:200A12004124C45027C2037541000542E54224E8500F78777618754200E54960021549C2EC
:200A3200040543E54324F4500375430022C027C0E0C0F0C082C083C007C006C005C004C059
:200A520003C002C001C000C0D075D0089000C474FAF0C22D75D0001209EB75D008D0D0D0B8
:200A720000D001D002D003D004D005D006D007D083D082D0F0D0E0D02732C027C0E0C0F023
:200A9200C082C083C007C006C005C004C003C002C001C000C0D075D00843C11010D80302C5
:200AB2000CA38547EA8548FA74A02547F547748C3548F548201903020B4230B76C301265FD
:200AD2009000C6740AF09000C5E4F0C2C49000C1E0FFE06008EF149000C1F08036E54E608C
:200AF200180546E54624C450107546000545E54524F4501F754500801AE54E70161546E50B
:200B12004624C3500E75463B1545E54524F3500375450B75D00012092553D0E743D00840A5
:200B320002C219C212C2108007301002D212D21030C45620B64C3011459000C5741EF09038
:200B520000C6E4F0C2199000C1E0FFE06008EF149000C1F080160546E54624C4500E754645
:200B7200000545E54524F4500375450075D00012087553D0E743D0084002C2C4C211C20F65
:200B92008007300F02D211D20F301A0630B503754F02301A0330B5047F0080027F01EF24EF
:200BB200FF921E201D0330B5047F0080027F01EF24FF921A201B0A201E03201A047F008049
:200BD200027F01EF24FF921BA2B5921D301F0630B303755002301F0330B3047F0080027F01
:200BF20001EF24FF922320220330B3047F0080027F01EF24FF921F20200A202303201F04D8
:200C12007F0080027F01EF24FF9220A2B3922230240630B40375510230240330B4047F00AD
:200C320080027F01EF24FF922820270330B4047F0080027F01EF24FF922420250A202803BF
:200C52002024047F0080027F01EF24FF9225A2B492279001B1E014F0E070089001B1740E9F
:200C7200F0B2299000C4E0FFE0600EEF149000C4F09001B2741CF080189001B2E014F0E06D
:200C9200700F9001B2741CF075D0001209EB75D008D0D0D000D001D002D003D004D005D009
:200CB20006D007D083D082D0F0D0E0D02732C0E0C082C083C0D075D01043C110301933E588
:200CD200A0540FFFE54A904723934FF5A0E54E60067E017F0080047EFF7FFFAF4AEE2FF53F
:200CF2004A24F75005754A0780087408B54A03754A00D0D0D083D082D0E032AD82AE83AF67
:200D1200F0AC5D8C56C22AAB5C302A03020E1943C110758280C007C006C005C004C00312F7
:200D32000481855E82855F838560F01204FED003D004D005D006D007301532752DA7752EDB
:200D52004A752F80854230854131854032A21892017582C0C007C006C005C004C00312053A
:200D7200E9D003D004D005D006D007806990F002E4937032752DAF752E4A752F8085423072
:200D9200854131854032A21892017582C0C007C006C005C004C0031205E9D003D004D005FA
:200DB200D006D0078030752DB7752E4A752F80854230854131854032A21892017582C0C0B1
:200DD20007C006C005C004C0031205E9D003D004D005D006D007E5556003020D1B8B021B50
:200DF200EA60248C558C568D828E838FF0C007C006C005C004C0031202E2D003D004D005C6
:200E1200D006D007020D1B7582801204DFA22A22900001E06020900004E0701A755EC17597
:200E32005F4A756080755C03755D01904ABF75F080120D0DC322904AD275F0801202E230B5
:200E520030067E187F4780047E117FF07D808E828F838DF01202E2904ADC75F0801202E249
:200E72009000051203CED322900001E4F0C20C755707755EF3755F4A756080755C0F755D02
:200E920001904ADF75F080120D0D755700900001E024FF2285826185836285F06390013187
:200EB2007420F0900132744BF0900133743DF0AB457C0075730A8C748B828C83C004C003C4
:200ED2001246CBAA82D003D00474302A900134F075730A7574008B828C83124695AE8274FF
:200EF200302E900135F0900136743AF0AE467F0075730A8F748E828F83C007C0061246CB2D
:200F1200AC82D006D00774302C900137F075730A7574008E828F83124695AE8274302E90E0
:200F32000138F0900139E4F090013A7420F090013B7454F090013C743DF0AE427F00757340
:200F52000A8F748E828F83C007C0061246CBAC82D006D00774302C90013DF075730A75745C
:200F7200008E828F83124695AE8274302E90013EF090013F743AF0AE417F0075730A8F74BE
:200F92008E828F83C007C0061246CBAC82D006D00774302C900140F075730A7574008E8216
:200FB2008F83124695AE8274302E900141F09001427420F09001437447F09001447450F0FD
:200FD2009001457453F0900146743DF0A215E433FF90F002E4932F2430900147F090014810
:200FF200E4F078758673F57490001C1245E67573007574011246CBAE829001497420F090C0
:20101200014A7444F090014B7448F090014C743DF090F000E493243090014DF090014E7459
:2010320020F090014F7442F090015004F0900151743DF090F001E4932430900152F0900100
:20105200537420F09001547444F090015514F0900156743DF09000C5E060067D317F008060
:20107200047D307F00900157EDF09001587420F09001597453F090015A04F090015B743DDF
:20109200F09000C6E060067D317F0080047D307F0090015CEDF090015D7420F090015E7436
:2010B20058F090015F7447F0900160743DF09000C4E060067D317F0080047D307F009001A1
:2010D20061EDF09001627420F09001637452F090016404F0900165743DF0AF4974302F90C4
:2010F2000166F0900167742FF090F003E4932430900168F09001697420F090016A7454F094
:2011120090016B7452F090016C743DF090F004E493FF7D0075730A8D748F828D83C006120A
:2011320046CBAD8274302D90016DF090F004E493FF7D0075730A8D748F828D83124695AD79
:2011520082D00674302D90016EF090016F7420F09001707444F090017104F0900172744E7D
:20117200F0900173743DF0A2A1E4332430900174F09001757420F09001767456F0900177D2
:20119200744FF0900178744CF0900179743DF07F0075730A8F748E828F83C007C0061246AB
:2011B200CBAC82D006D00774302C90017AF075730A7574008E828F83124695AE8274302EC0
:2011D20090017BF090017C7420F090017D744DF090017E7450F090017F7433F090018074C2
:2011F2003DF090F010E4932430900181F03031067E207F0080047E007F00900182EEF090CD
:2012120001837444F09001847454F0900185743DF090F01CE4932430900186F0900187E4A2
:20123200F0042561FDE43562FEAF638D828E838FF0124679FCBC2A028011C007C006C00563
:20125200120E7AD005D006D0078005900001E4F0A2319230C007C006C005120E22D005D0A8
:2012720006D00740012290477B75F080C007C006C0051202E290013175F0001202E29001EF
:201292003A75F0001202E290014975F0001202E2D005D006D00790F01CE493FCBC020050D3
:2012B2002130311E904B0475F080C007C006C0051202E290F01175F0801202E2D005D00659
:2012D200D0078D828E838FF0124679FDBD2A02803B900001E06035904B0675F0801202E252
:2012F20090000175F0001202E230310F900005E07009904B1175F0801202E2900005E4F062
:20131200900004F0900003F0900002F08561828562838563F01202E274012561FDE435621F
:20133200FEAF638D828E838FF0124679FDBD2A09904ABF75F0800202E2755E2B755F4B7538
:201352006080755C32755D01904ABF75F080020D0DAD82AE83AFF09001887454F090018941
:20137200743DF0AB427C0075730A8C748B828C83C007C006C005C004C0031246CBA982D04C
:2013920003D00474302990018AF075730A7574008B828C83124695AB8274302B90018BF0A0
:2013B20090018C743AF0AB417C0075730A8C748B828C83C004C0031246CBA982D003D0046E
:2013D20074302990018DF075730A7574008B828C83124695AB8274302B90018EF090018F11
:2013F2007420F09001907447F09001917450F09001927453F0900193743DF0A215E433FC4C
:2014120090F002E4932C2430900194F09001957420F09001967444F090019704F09001986E
:20143200744EF0900199743DF0A2A1E433243090019AF090019BE4F090019C740DF0900125
:201452009D744DF090019E744FF090019F7444F09001A004F09001A1744EF09001A2743D85
:20147200F090F007E49324309001A3F09001A4E4F0A2329230120E22D005D006D007400150
:201492002290018875F000C007C006C0051202E290019C75F0001202E2D005D006D00790B8
:2014B200F007E4937003021696904B3C75F080C007C006C0051202E290F007E493FC90F0CD
:2014D2000793FB7A0075733C8A748B828A83C0041246CBAA82D00474302A90019DF0EC9060
:2014F200F00793FB7A007573068A748B828A83C0041246CB75730A757400124695AA82D02A
:201512000474302A90019EF090019F743AF0EC90F00793FC7B007573068B748C828B831262
:201532004695AB8274302B9001A0F09001A17430F09001A27420F09001A3742DF090019C32
:2015520075F0001202E290019C7420F090F008E493FC7B0075733C8B748C828B831246CB95
:20157200AB8274302B90019DF090F008E493FC7B007573068B748C828B831246CB75730AAB
:20159200757400124695AB8274302B90019EF090F008E493FC7B007573068B748C828B83C9
:2015B200124695AB8274302B9001A0F09001A2E4F090019C75F0001202E2D005D006D007FE
:2015D2007C0290F007E493FBC3EC9B40030216ABEC90F00793FB7A0075733C8A748B828AFE
:2015F20083C007C006C005C0041246CBAA82D00474302A90019DF0EC90F00793FB7A007541
:2016120073068A748B828A83C0041246CB75730A757400124695AA82D00474302A90019E7B
:20163200F0EC90F00793FB7A007573068A748B828A83C004124695AA82D004D005D006D0FB
:201652000774302A9001A0F08C02EA30E00D90019C7420F09001A2E4F0800C90019C740DFB
:20167200F09001A27420F090019C75F000C007C006C005C0041202E2D004D005D006D007BD
:201692000C0215D4904B4975F080C007C006C0051202E2D005D006D0078D828E838FF012BD
:2016B20002E2755E5E755F4B756080755C32755D01904ABF75F080020D0D900001E4F0D2E8
:2016D20030120E2240012290478B75F0801202E2755E6F755F4B756080755C32755D0190CA
:2016F2004ABF75F080020D0D755700755E8A755F4B756080755C0F755D02904B8075F0803D
:20171200120D0D50637402B5585E90011BE024D075F00AA4FF90011CE02F24D0F542AE428E
:201732007F0075730C8F748E828F83124695AE828E4390011EE024D075F00AA4FF90011FCC
:20175200E02F24D0F541900121E024D075F00AA4FF900122E02F24D0F54085411E85401FF3
:201772008542821201C5D322C3227F00755E7B755F47756080755C0F755D01904B9B75F091
:2017920080C007120D0DD0074003021999755EA9755F4B756080755C0F755D01904B9F7564
:2017B200F080C007120D0DD007400302199990F002E4937003021999755EC5755F4B75603A
:2017D20080755C0F755D01904BBA75F080C007120D0DD0074003021999755EE1755F4B7541
:2017F2006080755C0F755D01904BD675F080C007120D0DD0074003021999755706755EFE4A
:20181200755F4B756080755C0F755D02904BF375F080C007120D0DD00740030219997401A5
:20183200B5580280030219997E007D00ED2412F582E43401F5830DE0FCBC2C060EBE030084
:20185200500ABD0B00500543C11080E0EE24FD40030219998D060EEE3395E0FCEE2412F539
:2018720082EC3401F583E0FEBE2C15ED04FEED2412F582E43401F583E0FC24D0F542802994
:20189200ED04FCED2412F582E43401F583E024D075F00AA4FDEC04FEEC2412F582E434019A
:2018B200F583E0FC24D02DF5420E8E050DED3395E0FCED2412F582EC3401F583E0FDBD2C32
:2018D20015EE04FDEE2412F582E43401F583E0FC24D0F5418029EE04FCEE2412F582E43476
:2018F20001F583E024D075F00AA4FEEC04FDEC2412F582E43401F583E0FC24D02EF541ED40
:2019120004FEFD0DED3395E0FCED2412F582EC3401F583E0FDBD2C12EE2412F582E4340159
:20193200F583E0FD24D0F5408026EE04FDEE2412F582E43401F583E024D075F00AA4FEED84
:201952002412F582E43401F583E0FD24D02EF540AD427E0074072DFDE43EFEC374179D7472
:20197200808EF063F08095F05007E54224EFFE8006AD4274072DFE8E4285411E85401F8538
:2019920042821201C57F01EF24FF92157557002220A002C322755E1B755F4C756080755C97
:2019B2000F755D02904C1075F080120D0D5036755E3F755F4C756080755C0F755D01904C99
:2019D2002C75F080120D0D501C755E64755F4C756080755C0F755D01904C5075F080120DBD
:2019F2000D5002D322C322C027C0E0C0F0C082C083C007C006C005C004C003C002C001C0C4
:201A120000C0D075D0102098030225D443C110855655E5592403FEE43401FF8E828F83E553
:201A320099F0E55724F850030225C7E557240B83F582E557240C83F583E4735DB8B8F7C7C4
:201A52000EE6751A21212125231F248E828F83E0FDBD22028003021C22AC597D00740C2C32
:201A7200F582E43DF58375730D8D74C017C016C015C01475D00012469575D010AA82AB8317
:201A9200D014D015D016D017EA2403F582EB3401F583E0FBBB20028003021C22740B2CF563
:201AB20082E43DF58375730D757400C017C016C015C01475D00012469575D010AA82AB83E4
:201AD200D014D015D016D017EA2403F582EB3401F583E0FBBB3A028003021C22740A2CF50A
:201AF20082E43DF58375730D757400C017C016C015C01475D00012469575D010AA82AB83A4
:201B1200D014D015D016D017EA2403F582EB3401F583E0FBBB4B028003021C2274092CF5B9
:201B320082E43DF58375730D757400C017C016C015C01475D00012469575D010AA82AB8363
:201B5200D014D015D016D017EA2403F582EB3401F583E0FBBB4C028003021C2274082CF579
:201B720082E43DF58375730D757400C017C016C015C01475D00012469575D010AA82AB8323
:201B9200D014D015D016D017EA2403F582EB3401F583E0FBBB43028003021C2274072CF543
:201BB20082E43DF58375730D757400C017C016C015C01475D00012469575D010AA82AB83E3
:201BD200D014D015D016D017EA2403F582EB3401F583E0FBBB433974062CF582E43DF58375
:201BF20075730D757400C017C01675D00012469575D010AC82AD83D016D017EC2403F5820C
:201C1200ED3401F583E0FDBD2B067557020225C78E828F83E0FDBD3A028003021D73AC597F
:201C32007D00740C2CF582E43DF58375730D8D74C017C016C015C01475D00012469575D096
:201C520010AA82AB83D014D015D016D017EA2403F582EB3401F583E0FBBB49028003021DCF
:201C720073740B2CF582E43DF58375730D757400C017C016C015C01475D00012469575D079
:201C920010AA82AB83D014D015D016D017EA2403F582EB3401F583E0FBBB54028003021D84
:201CB20073740A2CF582E43DF58375730D757400C017C016C015C01475D00012469575D03A
:201CD20010AA82AB83D014D015D016D017EA2403F582EB3401F583E0FBBB4D028003021D4B
:201CF2007374092CF582E43DF58375730D757400C017C016C015C01475D00012469575D0FB
:201D120010AA82AB83D014D015D016D017EA2403F582EB3401F583E0FBBB434574082CF5D6
:201D320082E43DF58375730D757400C017C01675D00012469575D010AC82AD83D016D01739
:201D5200EC2403F582ED3401F583E0FDBD2B12904C7675F08075D0001202E275D010022588
:201D7200C78E828F83E0FDBD20028003021F06AC597D00740C2CF582E43DF58375730D8D42
:201D920074C017C016C015C01475D00012469575D010AA82AB83D014D015D016D017EA24E2
:201DB20003F582EB3401F583E0FBBB3A028003021F06740B2CF582E43DF58375730D7574EA
:201DD20000C017C016C015C01475D00012469575D010AA82AB83D014D015D016D017EA2416
:201DF20003F582EB3401F583E0FBBB4C028003021F06740A2CF582E43DF58375730D757499
:201E120000C017C016C015C01475D00012469575D010AA82AB83D014D015D016D017EA24D5
:201E320003F582EB3401F583E0FBBB47028003021F0674092CF582E43DF58375730D75745E
:201E520000C017C016C015C01475D00012469575D010AA82AB83D014D015D016D017EA2495
:201E720003F582EB3401F583E0FBBB4D028003021F0674082CF582E43DF58375730D757419
:201E920000C017C016C015C01475D00012469575D010AA82AB83D014D015D016D017EA2455
:201EB20003F582EB3401F583E0FBBB434774072CF582E43DF58375730D757400C017C0169C
:201ED20075D00012469575D010AC82AD83D016D017EC2403F582ED3401F583E0FDBD2B1441
:201EF200300B030225C7053DC209C207C2067557030225C78E828F83E0FDBD4B59AC597D67
:201F120000740C2CF582E43DF58375730D8D74C017C01675D00012469575D010AC82AD836B
:201F3200D016D017EC2403F582ED3401F583E0FDBD4F23A22BB3922AC22BE53E70030225AC
:201F5200C7753E00904C5075F08075D0001202E275D0100225C78E828F83E0FDBD540280D4
:201F7200030225C7AC597D00740C2CF582E43DF58375730D8D74C015C01475D0001246954F
:201F920075D010AA82AB83D014D015EA2403F582EB3401F583E0FBBB4F0280030225C774CB
:201FB2000B2CF582E43DF58375730D75740075D00012469575D010AC82AD83EC2403F5827B
:201FD200ED3401F583E0FDBD4E0280030225C7D22B0225C78E828F83E0FDBD2002800302AC
:201FF20025C7AC597D00740C2CF582E43DF58375730D8D74C015C01475D00012469575D08F
:2020120010AA82AB83D014D015EA2403F582EB3401F583E0FBBB3A0280030225C7740B2C6D
:20203200F582E43DF58375730D757400C015C01475D00012469575D010AA82AB83D014D062
:2020520015EA2403F582EB3401F583E0FBBB5A0280030225C7740A2CF582E43DF583757334
:202072000D757400C015C01475D00012469575D010AA82AB83D014D015EA2403F582EB345E
:2020920001F583E0FBBB540280030225C774092CF582E43DF58375730D757400C015C01418
:2020B20075D00012469575D010AA82AB83D014D015EA2403F582EB3401F583E0FBBB540258
:2020D20080030225C774082CF582E43DF58375730D757400C015C01475D00012469575D0C7
:2020F20010AA82AB83D014D015EA2403F582EB3401F583E0FBBB550280030225C774072C76
:20211200F582E43DF58375730D757400C015C01475D00012469575D010AA82AB83D014D081
:2021320015EA2403F582EB3401F583E0FBBB530280030225C774062CF582E43DF58375735E
:202152000D757400C015C01475D00012469575D010AA82AB83D014D015EA2403F582EB347D
:2021720001F583E0FBBB500280030225C78C828D83A3A3A3A3A375730D75740075D00012F9
:20219200469575D010AC82AD83EC2403F582ED3401F583E0FDBD2A0280030225C7755A0075
:2021B2007557010225C7740DB59902801A74E2255A4014AD5A055AED2412F582E43401F5B0
:2021D20083E599F00225C7AD5A1DED3395E0FCED2412F582EC3401F583E4F0855758F557D2
:2021F200D22A0225C730095DE53E7010740DB5990280030225C77557050225C7740AB53E38
:202212000B7422B59906753E000225C720060EE53E90471893FDB599028002D20630080F4F
:2022320020070EE53E90F01193FDB599028002D207053E2006030225C72007030225C77581
:2022520057000225C78E828F83E0FDBD340280030222FEAC597D00740C2CF582E43DF58352
:2022720075730D8D74C015C01475D00012469575D010AA82AB83D014D015EA2403F582EB90
:202292003401F583E0FBBB3863740B2CF582E43DF58375730D757400C015C01475D00012B5
:2022B200469575D010AA82AB83D014D015EA2403F582EB3401F583E0FBBB2B30740A2CF509
:2022D20082E43DF58375730D75740075D00012469575D010AC82AD83EC2403F582ED340162
:2022F200F583E0FDBD2205D209753E01740DB5990280030225C77557000225C7300A357425
:202312003BB599028021740DB59902801A7460253E4014AD3E053EED2401F582E43400F5C5
:2023320083E599F00225C7753E00C20A755700D20B0225C78E828F83E0FDBD2C0280030227
:20235200245AAC597D00740C2CF582E43DF58375730D8D74C015C01475D00012469575D099
:2023720010AA82AB83D014D015EA2403F582EB3401F583E0FBBB4302800302245A740B2C6F
:20239200F582E43DF58375730D757400C015C01475D00012469575D010AA82AB83D014D0FF
:2023B20015EA2403F582EB3401F583E0FBBB5502800302245A740A2CF582E43DF583757344
:2023D2000D757400C015C01475D00012469575D010AA82AB83D014D015EA2403F582EB34FB
:2023F20001F583E0FBBB446074092CF582E43DF58375730D757400C015C01475D00012463B
:202412009575D010AA82AB83D014D015EA2403F582EB3401F583E0FBBB502D74082CF5824B
:20243200E43DF58375730D75740075D00012469575D010AC82AD83EC2403F582ED3401F58D
:2024520083E0FDBD2A0280047D0080027D01ED24FF920A740DB5990280030225C775570066
:202472000225C7300C3B7420B59902801A7460253E4014AD3E053EED2401F582E43400F518
:2024920083E599F00225C7C20CC20EE53E2401F582E43400F583E4F0F53EF557D22A0225E8
:2024B200C78E828F83E0FEBE3D0280030225C7AE597F00740C2EF582E43FF58375730D8F0B
:2024D20074C017C01675D00012469575D010AC82AD83D016D017EC2403F582ED3401F583F3
:2024F200E0FDBD680280030225C7740B2EF582E43FF58375730D757400C017C01675D000C6
:2025120012469575D010AC82AD83D016D017EC2403F582ED3401F583E0FDBD6E0280030289
:2025320025C7740A2EF582E43FF58375730D757400C017C01675D00012469575D010AC829F
:20255200AD83D016D017EC2403F582ED3401F583E0FDBD696074092EF582E43FF583757340
:202572000D757400C017C01675D00012469575D010AC82AD83D016D017EC2403F582ED3449
:2025920001F583E0FDBD682D74082EF582E43FF58375730D75740075D00012469575D01060
:2025B200AE82AF83EE2403F582EF3401F583E0FFBF6302D20C0559E55924F35003755900CA
:2025D200C298D0D0D000D001D002D003D004D005D006D007D083D082D0F0D0E0D02732C253
:2025F2000D900001E0FFBF3F028008900002E0FFBF3F062006030216CC900002E0FFBF41D1
:2026120003022D62BF4303022B4FBF4503022DEFBF4802803EBF50030231D1BF5303022C4E
:2026320011BF5403023305BF6103022D62BF6303022B4FBF6503022DEFBF68028015BF70A0
:20265200030231D1BF7303022C11BF7403023305023659900004E0FFBF2B028003022826BA
:20267200900005E0FEC3742F9EE433FD70030227B2BE330040030227B2900006E0FC24D0FA
:2026920040030227B2BC3A0040030227B2900007E0FB24D040030227B2BB36004003022715
:2026B200B2900008E0F56824D040030227B274C6256850030227B290000AE0F56424D04073
:2026D200030227B274CD256450030227B290000BE0F56524D040030227B274C62565500314
:2026F2000227B290000CE0F56624D040030227B274CA256650030227B290000DE0F5672410
:20271200D040030227B274C6256750030227B28E0274022AF569AA64C39A75F00AA4240491
:20273200F56925422CAC65C39CFAAC6674062CC39B75F00AA42567AB68C39BFC8A6A756B36
:2027520000AA417B00743C2AF56CE43BF56D8C027B00C3E56C9AE56D64808BF063F0809575
:20277200F0E433FA7B00E56AC39AF582E56B9BF58375730C8B74C004124695AA82D0048A17
:2027920045AB4174782BC39CFB7C0075733C8C748B828C83124695AB82AC838B46022AEE95
:2027B200ED606CBE36005067900006E0FD24D0505EBD3A005059EE24D075F00AA42D24D0D8
:2027D200FEAD45740C2DFDC3E5469EE433FCEDC39CFD7C0075730C8C748D828C83C00612FF
:2027F2004695AC82D0068C45AC467D00743C2CFCE43DFD7B00ECC39EF582ED9BF58375738B
:202812003C8B74124695AD82AE838D46022AEED20D022AEEBF2D44900005E0FE24D050361B
:20283200BE36005031900006E0FD24D05028BD3A005023EE24D075F00AA4AC462CFE2D2466
:20285200D0F54624C44003022AEE0545E546FE24C4F546022AEED20D022AEE900005E0FEFA
:20287200BE4E028003BE6E2130060302367F12025E9000A37401F01202997876760078776E
:2028920076187878763C022AEEBE46028003BE661630060302367F12025E9000A3E4F0129E
:2028B2000299C2C2022AEEBF2C028003022981BE6702800DBE47028008BE61028003BE41CB
:2028D20016C2C2787676001216FA9215787776187878763C022AEEEE24D0400302297CBE5C
:2028F2003300400302297C900006E0FD24D0507ABD3A005075900007E0FC24D0506CBC36A7
:20291200005067900008E0FB24D0505EBB3A0050598E02EA24D075F00AA4FA2D24D0FDBDE5
:2029320018005041C2C2787676008D42EC24D075F00AA42B24D0F541AC427D0075730C8DF1
:20295200748C828D83124695AC828C4385411E85401F8542821201C5C215787776187878BC
:20297200763C022AEED20D022AEED20D022AEEEF24D04003022AECBF33004003022AECEE0E
:2029920024D04003022AECBE3A004003022AEC900006E0FD24D04003022AECBD360040038B
:2029B200022AEC900007E0FC24D04003022AECBC3A004003022AEC7B00EF24D0F573EB34F5
:2029D200FFF57490000AC006C005C0041245E6AB82AF83D004D005D0067A00EE2BFBEA3FC2
:2029F200FFEB24D0F582EF34FFF58375730C8A74C005C004124695AE82D004D0058E45EDD5
:202A120024D075F00AA42C24D0F546900009E0FFBF6702800DBF47028008BF61028003BF21
:202A3200412A90F002E4937003022AEE1216FA921590F010E4937003022AEEC2C27876764E
:202A520000787776187878763C022AEEEF24D04003022AEEBF33004003022AEE90000AE022
:202A7200FE24D05077BE3A00507290000BE0FD24D05069BD3600506490000CE0FC24D05049
:202A92005BBC3A005056EF24D075F00AA42E24D0FFBF18005040C2C2787676008F42ED24E5
:202AB200D075F00AA42C24D0F541AE427F0075730C8F748E828F83124695AE828E4385418F
:202AD2001E85401F8542821201C5787776187878763CC2158006D20D8002D20D300D2A306E
:202AF200070ED231904C8575F080120EA602367FD231904C9875F080120EA6C231904C8573
:202B120075F080120EA602367F120925921912087592C430070ED231904CBE75F080120E8A
:202B3200A602367FD231904CD875F080120EA6C231904CBE75F080120EA602367F90000540
:202B5200E0FFBF65028003BF452A30070ED232904D0575F08012136302367FD232904D1D60
:202B720075F080121363C232904D0575F08012136302367FBF6E028003BF4E0E12025E900D
:202B920000A47401F0120299804BBF66028003BF460D12025E9000A4E4F012029980369079
:202BB2000003E06030900004E0602A30070ED231904C8575F080120EA602367FD231904CA8
:202BD2009875F080120EA6C231904C8575F080120EA602367F30070ED231904D4875F08098
:202BF200120EA602367FD231904D5C75F080120EA6C231904D4875F080120EA602367F9055
:202C12000005E0FFBF7902800DBF59028008BF44028003BF642A30070DD231904D8375F074
:202C320080120EA68016D231904DA075F080120EA6C231904D8375F080120EA6C2AF80FE8E
:202C5200BF67028008BF47028003022D05900009E0FE24D05073BE3A00506E12025E90000D
:202C720009E024D0FE9000A6F08E4990000BE0FE24D05028BE3300502390000CE0FD24D0B4
:202C9200501ABD3A005015EE24D075F00AA42D24D0FEBE180050059000A7EEF0120299302B
:202CB200070ED231904DD075F080120EA602367FD231904DEF75F080120EA6C231904DD0C1
:202CD20075F080120EA602367F30070ED231904E2175F080120EA602367FD231904E42753F
:202CF200F080120EA6C231904E2175F080120EA602367FBF69028003BF492B30070DD23111
:202D1200904E7675F080120EA68016D231904E9875F080120EA6C231904E7675F080120E9C
:202D3200A6C2A002367F30070ED231904ECD75F080120EA602367FD231904EE675F08012AF
:202D52000EA6C231904ECD75F080120EA602367F900005E0FF24CF505ABF3A00505590006E
:202D720007E0FF24CF504CBF3A00504712025E900005E024D0C454F0FF900007E024D042AD
:202D9200079000A9EFF012029930070ED231904F1275F080120EA602367FD231904F38752B
:202DB200F080120EA6C231904F1275F080120EA602367F30070ED231904F7175F080120EE8
:202DD200A602367FD231904F8E75F080120EA6C231904F7175F080120EA602367F9000052F
:202DF200E0FFBF58028003BF783512025E9000AAE4F012029930070ED232904FBE75F080E2
:202E120012136302367FD232904FD975F080121363C232904FBE75F08012136302367F1271
:202E3200025E1202999000AAE4F09001A57404F09001A5E0FF2401F582E43400F583E0FEA8
:202E520024D04003023157BE330040030231578F057F0074012DFBE43FFCEB2401F582EC9F
:202E72003400F583E0FC24D0400302315774012DFBE43FFCEB2401F582EC3400F583E0FC40
:202E9200BC3A00400302315774022DFBE43FFCEB2401F582EC3400F583E0FC24D04003026C
:202EB200315774022DFBE43FFCEB2401F582EC3400F583E0FCBC3600400302315774032D5D
:202ED200FBE43FFCEB2401F582EC3400F583E0FC24D0400302315774032DFBE43FFCEB243D
:202EF20001F582EC3400F583E0FCBC3A00400302315774052DFBE43FFCEB2401F582EC34AA
:202F120000F583E0FC24D0400302315774052DFBE43FFCEB2401F582EC3400F583E0FCBC13
:202F32003300400302315774062DFBE43FFCEB2401F582EC3400F583E0FC24D04003023159
:202F52005774062DFBE43FFCEB2401F582EC3400F583E0FCBC3A00400302315774072DFBE6
:202F7200E43FFCEB2401F582EC3400F583E0FC24D0400302315774072DFBE43FFCEB240192
:202F9200F582EC3400F583E0FCBC3600400302315774082DFBE43FFCEB2401F582EC34000B
:202FB200F583E0FC24D0400302315774082DFBE43FFCEB2401F582EC3400F583E0FCBC3A36
:202FD2000040030231578E7375740090000AC007C006C0051245E6AB82AC83D005D006D028
:202FF20007C00674012DFAE43FFEEA2401F582EE3400F583E07A002BFBEA3CFCC3EB942809
:20301200EC64809482D0064003023157C00674052DFBE43FFCEB2401F582EC3400F583E090
:20303200FC8C7375740090000AC007C006C0051245E6AB82AC83D005D006D00774062DFAF2
:20305200E43FFEEA2401F582EE3400F583E07A002BFBEA3CFCC3EB9428EC64809482D00655
:203072004003023157ED24FCF582EF34FFF583757305757400C007C006C0051246CBAB82DB
:20309200D005D006D00774082BFC3395E0FAEC24A3F56AEA3400F56BEE24D075F00AA4F5DD
:2030B2006C74012DFCE43FFEEC2401F582EE3400F583E0256C24D075F006A4FE74022DFAA2
:2030D200E43FFCEA2401F582EC3400F583E02E24D0856A82856B83F074092BFB3395E0FE82
:2030F200EB24A3FBEE3400FE74052DFAE43FFCEA2401F582EC3400F583E024D075F00AA42D
:20311200F56C74062DFAE43FFCEA2401F582EC3400F583E0256C24D075F006A4FC74072D46
:20313200FDE43FFFED2401F582EF3400F583E02C24D08B828E83F09000AAE0FF0F0F900065
:20315200AAEFF080069001A5744BF09001A5E0240AF0E0FFBF4B005003022E429000AAE06D
:20317200603390000012024612029930070ED23290500775F08012136302367FD2329050DB
:203192002775F080121363C23290500775F08012136302367F30070ED23190505A75F08023
:2031B200120EA602367FD23190507C75F080120EA6C23190505A75F080120EA602367F30B7
:2031D200060302367F90F010E493700ED2319050B175F080120EA602367F900006E0FFBF6E
:2031F20054028003BF7410C2C2D2319050C675F080120EA602367FBF4E028003BF6E2F9094
:20321200F010E493FEBE011812025E9000B37402F012029978767600787776187878763C05
:20323200D2319050D075F080120EA602367FBF46028003BF662590F010E493FEBE020EC2FE
:20325200C212025E9000B37401F0120299D2319050D975F080120EA602367F900005E0FE42
:2032720024D040030232F7BE33005079EF24D05074BF3A00506F900007E0FD24D05066BDE6
:2032920036005061900008E0FC24D05058BC3A005053209242D2C2EE24D075F00AA42F24BC
:2032B200D0F582ED24D075F00AA42C24D0F5721245369005DC1203CE30920ED2319050E2C4
:2032D20075F080120EA602367FD2319050F775F080120EA602367FD23190511975F080124A
:2032F2000EA602367FD23190513F75F080120EA602367F30060302364E900004E0FFBF4794
:20331200028003BF671D12025E9000A57401F012029912177CD23190515675F080120EA690
:2033320002364EBF41028003BF611B12025E9000A5E4F0120299C215D23190515F75F0800E
:20335200120EA602364EBF2B028003023494900005E0FEBE38028003023494900006E0FEAA
:20337200BE34028003023494900007E0FEBE30005003023486EE24C6500302348690000809
:20339200E0FEBE30005003023486EE24C65003023486900009E0FEBE30005003023486EEF7
:2033B20024C6500302348690000AE0FEBE30005003023486EE24C6500302348690000BE02B
:2033D200FEBE30005003023486EE24C6500302348690000CE0FEBE30005003023486EE2470
:2033F200C6500302348690000DE0FEBE30005003023486EE24C6500302348690000EE0FE0B
:20341200BE3000406FEE24C6406A90000FE0FEBE30004060EE24C6405B12025E9000B4E463
:20343200F07E018E0574112DFD3395E0FCED24A3FDEC3400FC8E027B0074062AFAE43BFB95
:20345200EA2401F582EB3400F583E08D828C83F00EBE0A0040CD9000BFE0FEBE02059000EA
:20347200BFE4F0120299D23190516875F080120EA602364ED23190518675F080120EA60266
:20349200364EBF300280030235AE900005E0FEBE300050030235A0EE24C650030235A09020
:2034B2000006E0FEBE300050030235A0EE24C650030235A0900007E0FEBE3000500302350F
:2034D200A0EE24C650030235A0900008E0FEBE300050030235A0EE24C650030235A0900018
:2034F20009E0FEBE300050030235A0EE24C650030235A090000AE0FEBE300050030235A029
:20351200EE24C650030235A090000BE0FEBE300050030235A0EE24C6407490000CE0FEBE42
:203532003000406AEE24C6406590000DE0FEBE3000405BEE24C6405612025E7E008E0574B9
:20355200112DFD3395E0FCED24A3FDEC3400FC8E027B0074032AFAE43BFBEA2401F582EB7C
:203572003400F583E08D828C83F00EBE0A0040CD9000BFE0FEBE02059000BFE4F0120299FA
:20359200D23190516875F080120EA602364ED23190518675F080120EA602364EBF78028048
:2035B20003BF581A12025E9000BF7402F0120299D2319051AB75F080120EA602364E90F0B1
:2035D2001CE493FFBF0224900005E0FFBF6E02800DBF4E028008BF66028003BF465ED2318B
:2035F2009051BA75F080120EA68051900005E0FFBF4E028003BF6E1912025E9000BF740120
:20361200F0120299D2319051EC75F080120EA6802BBF46028003BF661812025E9000BFE469
:20363200F0120299D2319051FB75F080120EA6800BD23190520A75F080120EA690F01CE4AC
:2036520093FF139208802630070DD23190522775F080120EA68016D23190523A75F08012CC
:203672000EA6C23190522775F080120EA643C1107F00EF2401FDE43400FE8D828E83E060C3
:203692000FEF2401F582E43400F5830FE4F080E2227F008F6E8F937594FF8F928F918F957C
:2036B2007596FF8FB28FB175B30275B41C8FCA8FC98FC075B0FF8FA0759D088F978FBD75AA
:2036D200BC83D2ADD2AF9000C474FAF09000C5741EF09000C6740AF09000A2F075510275ED
:2036F2005002754F02755205755301C0071209D812025ED0079000A3E024FE50069000A34A
:203712007401F09000A4E024FE50059000A4E4F09000A5E024FE50069000A57401F09000E8
:20373200A6E024F650069000A67401F09000A7E024E850059000A7E4F09000A9E0FDC45435
:203752000FFC7B001CBCFF011BC374089C74808BF063F08095F0500A740F5D4450FD9000E1
:20377200A9F09000A9E0FD53050F7C001DBDFF011CC374089D74808CF063F08095F0500FAC
:203792009000A9E0FD74F05D4401FD9000A9F09001A67401F09000AAE0FDBD0900502EEDF1
:2037B20020E02A7C01C3ED9C401E8C0374072BFB3395E0FAEB24A3F582EA3400F583E0FB3A
:2037D200BB900050030C80DD9001A6ECF09001A6E0FCC3ED9C40129000AA7402F09000AB31
:2037F2007424F09000AC746CF09001A6E4F09000BFE0FDBD020050479000BEE07041FDBDFD
:203812000A0050368D0474112CFB3395E0FAEB24A3F582EA3400F583E0FBBB3000401B74D3
:20383200112CFC3395E0FBEC24A3F582EB3400F583E0FC24C640030D80C59001A6EDF090DA
:2038520001A6E0FDBD0A00500B9000BEE4F09000BF7402F09000C0E0FD24E750059000C0FC
:20387200E4F03092079000B3E4F080129000B3E0FD6005ED24FD50069000B37402F0C00797
:20389200120299D00790F3FEE493FD24C4400A90F3FFE493FD24F4501E900200C007120282
:2038B200467528009003FE12022B7528009003FF12022BD007800E90F3FEE493F54690F3BA
:2038D200FFE493F545D2A2C0071202CAD00790F010E4936013C007124520D0077876760043
:2038F200787776187878763CD20390F003E493F54975FA0075EA007547A075488C75DA497F
:20391200D2DEC007120568751841751900751A40751B40751C00751D4090004275F04012B8
:203932000135D007E54224E8400CE54124C44006E54024C45010751E00751F00758200C04A
:20395200071201C5D007C0071200EED2A8D288751841751900751A40751B40751C00751DE6
:203972004090004275F04012013512177CD007E54224F45007E54224F4FD8002AD428D43A7
:2039920090F01CE49313920875BC8BC0071219A2D0075021D23190526075F080C007120EAC
:2039B200A6D00730080FC23190526075F080C007120EA6D00790F005E4937015755405C0A4
:2039D2000712025E9000A874FFF0120299D007800375543C75C16590F3FEE493B5460B908C
:2039F200F3FFE493FDB54502801C900200C0071202468546289003FE12022B8545289003BC
:203A1200FF12022BD007E5546004E552701B755200201909C0071209259219D00720C409A1
:203A3200C00712087592C4D007201603023AD220A0169000A2E014F0E0700D75BC83D2A03B
:203A52009000A2741EF0D2059000C3E0FDE0600C9000C1E07006ED149000C3F09000C3E02F
:203A720070219000C2E0FDE060199000C1EDF09000C37405F0C0071209259219120875925E
:203A9200C4D00730C40E9000C5E0FDE06006ED149000C5F030190E9000C6E0FDE06006EDFC
:203AB200149000C6F0E554600C90F010E49360032092021554E54F6005301E02154FC21649
:203AD20090F01DE493FDBD18005022C0071206D2D007E552701790F000E493601090F0103F
:203AF200E493FDBD0207C007120819D00790F003E4936044E549704090F004E493FDB5423E
:203B120037E54124FA503190F3FFE493FDB5452890F3FEE493FDB5461F90F010E493600306
:203B3200209215C2AF75280090000512022BD2A39007D01203CE80FE9000C4E07026202D76
:203B520023D22DD23190528275F080C007120EA6D00730080FC23190528275F080C0071225
:203B72000EA6D0079000C5E070329000C6E0702C202E29D22EC2C4A2C49219D23190529F6D
:203B920075F080C007120EA6D00730080FC23190529F75F080C007120EA6D00720037374BC
:203BB200FB2541406D20151090F002E4936009C00712177CD007801F751841751900751A71
:203BD20040751B40751C00751D4090004275F040C007120135D007E54224F45007E5422422
:203BF200F4FD8002AD428D4390F001E4936021D2319052B675F080C007120EA6D0073008EC
:203C12000FC2319052B675F080C007120EA6D007D203E55224FA5003024458E55275F003F5
:203C3200A4903C3773023C49023F400240B0024411024299023D9F30054975BC8BC20575D6
:203C52005700C00712177CAC427D0075730C8D748C828D83124695AC828C431219A2D00783
:203C72005021D2319052C775F080C007120EA6D00730080FC2319052C775F080C007120E1D
:203C9200A6D007300B14C0071225F1904C5075F0801202E2D007C20B8020752DE4752E5291
:203CB200752F80854530854631854032A2189201758280C0071205E9D007301522752DA7CF
:203CD200752E4A752F80854230854131854032A21892017582C0C0071205E9D007804990E1
:203CF200F002E4936022752DB7752E4A752F80854230854131854032A21892017582C0C0B4
:203D1200071205E9D0078020752DAF752E4A752F80854230854131854032A2189201758288
:203D3200C0C0071205E9D007E54F600302445EC21B75543C9000C2E4F09000C1F09000C33C
:203D5200F0755205755301C2C4A2C49219C2C278767600102002800302445E30081DD2319C
:203D72009052EC75F080C007120EA6C23190530075F080120EA6D00702445ED2319053000F
:203D920075F080C007120EA6D00702445E101B02801E75543C05537404B5530990F010E4FF
:203DB2009370020553E55324FB5003755300C229102502800875543C755300C2291020038D
:203DD200023EE275543C855352755300C007120925921912087592C4D007E552700302445A
:203DF2005E758280C007120481E55275F010A4242BFC744735F0FD7B808C828D838BF01260
:203E120004FED0077401B5520280197402B5520280357403B5520280787404B55203023E32
:203E3200BC02445E752DE4752E52752F80854530854631753200A21892017582C0C00712F7
:203E520005E9D00702445E3015067CA77D4A801F90F002E493600B756FB775704A7571807F
:203E72008009756FAF75704A757180AC6FAD708C2D8D2E752F80854230854131854032A228
:203E92001892017582C01205E9AF4285416E02445E90531675F080C0071204FE7529007519
:203EB20082C01203FBD00702445E752D28752E53752F80753000753100753200A218920100
:203ED2007582C01205E9D2C2756E007F0002445E3015067CA77D4A801990F002E493600850
:203EF2007AB77B4A7E8080067AAF7B4A7E808A048B058C2D8D2E752F808542308541318521
:203F12005432A21892017582C0C0071205E9E55375F010A4242BFD744735F0FE8D2A8E2B53
:203F3200752C8075828012040BD00702445EAE5374072EFEAC537D007573028D748C828D91
:203F520083C007C0061246CBAC82D006EC2EF5297582C01203FBD0071025030240527554AD
:203F72003CE55324FC5003024032E55375F003A4903F8673023F92023FBE023FF402400C73
:203F9200E54524F2501DAD457E0075730A8E748D828E83C007124695AD82AE83D0078D4521
:203FB200024032AE45740A2EF5458074E54524E950057545148069AD457E0075730A8E7407
:203FD2008D828E83C007124695AD82AE83D007BD090CBE0009E545FE24F7F54580420545A2
:203FF200803EE54624CE5009E546FE24CEF546802FAE46740A2EF54680260546AD467E0039
:2040120075730A8E748D828E83C007124695E5828583F0D00745F07007E546FE24F6F54666
:20403200752DE4752E52752F80854530854631753200A21892017582C0C0071205E9D00790
:20405200102002800975543CE55360021553101B0302445E75543C0553E55324FC400302C0
:20407200445EC0071204D9855253755205AD457E0075730C8E748D828E83124695AD828DB1
:20409200459002001202468546289003FE12022B8545289003FF12022BD00702445EAE53DB
:2040B20074072EFEAC537D007573028D748C828D83C007C0061246CBAC82D006EC2EF529D6
:2040D2007582C01203FBD00790F002E4936055E54F705185525375520578777618787876B4
:2040F2003C20151090F002E4936009C00712177CD007801F751841751900751A40751B40EE
:20411200751C00751D4090004275F040C007120135D007E54224F45007E54224F4FE800278
:20413200AE428E4310250302423275543CE55324FC50030241F3E55375F003A4904152733E
:2041520002415E0241830241B50241CDEF24F250188F057E0075730A8E748D828E831246F3
:2041720095AD82AE838D0780788F06740A2EFF8070EF24E950047F1480678F057E007573B8
:204192000A8E748D828E83C007124695AD82AE83D007BD090BBE00088F06EE24F7FF804101
:2041B2000F803EE56E24CE5009E56EFE24CEF56E802FAE6E740A2EF56E8026056EAD6E7E50
:2041D2000075730A8E748D828E83C007124695E5828583F0D00745F07007E56EFE24F6F5C3
:2041F2006E3015067DA77E4A801990F002E49360087AB77B4A7C8080067AAF7B4A7C808A22
:20421200058B068D2D8E2E752F808F30856E31855432A21892017582C0C0071205E9D007CC
:20423200102002800975543CE55360021553101B0302445E75543C0553E55324FC400302DE
:20425200445EC0071204D9D0078552537552058F42856E4185411E85401F854282C0071238
:2042720001C5AD427E0075730C8E748D828E83124695AD82AE83D0078D43C215787776189B
:204292007878763C02445EAE5374072EFEAC537D007573028D748C828D83C007C0061246B4
:2042B200CBAC82D006EC2EF5297582C01203FBD007E54F7008855253755205C2C2102503E9
:2042D2000243AB75543CE55324FC500302438CE55375F003A49042EB730242F702431C0249
:2042F200434E024366EF24F250188F057E0075730A8E748D828E83124695AD82AE838D07FC
:2043120080788F06740A2EFF8070EF24E950047F1480678F057E0075730A8E748D828E8373
:20433200C007124695AD82AE83D007BD090BBE00088F06EE24F7FF80410F803EE56E24CE79
:204352005009E56EFE24CEF56E802FAE6E740A2EF56E8026056EAD6E7E0075730A8E748D3F
:20437200828E83C007124695E5828583F0D00745F07007E56EFE24F6F56E752D28752E5374
:20439200752F808F30856E31753200A21892017582C0C0071205E9D0071020028009755437
:2043B2003CE55360021553101B0302445E75543C0553E55324FC400302445E755300856E84
:2043D200728F82C0071245369000641203CED0073092067D307E5380047D387E538D2D8EAE
:2043F2002E752F808F30856E31753200A21892017582C0C0071205E91204D9D007804D1061
:204412001B02801FAE530E9000C2EEF09000C1EEF09000C37405F0855253F552C007120456
:20443200D9D0071025028024AE537404C39EF553AE5374312EF582C0071204267582C012A6
:204452000481D007800675530075520043C1100239E9C0E043C110E59A30E003539AFED0A0
:20447200E032C027C0E0C0F0C082C083C007C006C005C004C003C002C001C000C0D075D06B
:204492000075BC83AFBD7875A60730021DBF52005004C2A28058EF24915053C202D23190C2
:2044B200534075F080120EA68044BF5C00503FD202C219C2C453A00F90F3FEE493B5460B09
:2044D20090F3FFE493FFB5450280189002001202468546289003FE12022B8545289003FF0B
:2044F20012022BD23190535575F080120EA675BC8BD0D0D000D001D002D003D004D005D06A
:0E45120006D007D083D082D0F0D0E0D0273280
:20471800303934393834373039380080901030206040C0202020202020455849540000009D
:2047380000000020204348494E482047494F204B494D00204348494E482047494F20544872
:204758005543002020202043414E48204B494D000000002020202054455354204D5033005E
:2047780000000020415349412047505320332E332E300044482C4F4E20646F6E6720686FB3
:204798002063686179202D2044482C4F464620646F6E6720686F2064756E670A44482C2BC2
:2047B8006D6D206B696D2070687574206C6563682064756F6E67206D6D2070687574202DA4
:2047D8002044482C2D6D6D206C65636820616D206D6D20706875740A44482C6B6B6B6B2CC3
:2047F80074747474206368696E682067696F206B696D2067696F20746875632067696F2035
:20481800747520646F6E67207468617920747474742062616E67206175746F0A42432C4F6E
:204838004E2062616F2063616F206461752067696F202D2042432C4F4646207461742062D0
:20485800616F2063616F206461752067696F0A4243206775692062616F2063616F202D205E
:2048780042432C44454E2042432C4D50332062616F2063616F2064656E2062616F206361C5
:204898006F206D70330A52532072657365743A52532C737973207265736574206865207441
:2048B800686F6E67202D2052532C73696D20726573657420677073206D6F64756C650A52FE
:2048D800532C472C6E6E2C6767206D6F69206E6E206E6761792076616F2067696F20676715
:2048F8003A303620626F2064696575206B6869656E2072657365740A44454E2C584F4120C1
:20491800786F6120746F616E20626F2074686F6E6720736F2064656E207461742064656E1B
:204938000A44454E2C747474742C6D6D6D6D20783A20736F206361702067696F20746174B2
:204958002F6D6F20747474742C6D6D6D6D2067696F207461742F6D6F2064656E0A4D503360
:204978002C582C616C6C20786F6120746174206361202D204D70332C582C61612C62622C96
:2049980063632C2E2E2E20786F61206361632067696F2061612C62622C63630A4D50332CAB
:2049B800542C676770702C32322C31312C2E2E2E206C6170206C616920746F6920646120B9
:2049D8003132206C616E20676770703A67696F20706875742070686174206E6861630A3216
:2049F800322C3131207468752074752062616920686174206C616E206C756F742074726F08
:204A18006E6720746875206D7563203220766120310A44542C3078787878787878787820E3
:204A380044542C2B3834787878787878787878207468617920646F6920736F206469656ED7
:204A58002074686F6169207068750A44542C584F4120786F6120736F206469656E207468C0
:204A78006F6169207068750A44542C4F4E2044542C4F4646202D20626174207461742064BD
:204A980069656E2074686F6169207068750A0020204750532020002041534941202000200E
:204AB800202044532020001A00544B3C31303030204B2042414F43414F0041542B434D474A
:204AD800533D2200220D0041542B435553443D312C222A31303123222C0D0020204B4945DF
:204AF8004D2054524120544B202020002C000D544B204368696E683D000D546169206B68EE
:204B18006F616E20636F6E2064756F692031303030300044414E47204755492042414F20CC
:204B380043414F000D47696F204D6F2044656E3A000D4B686F6E6720636F2067696F206D2F
:204B58006F2064656E004755492042414F2043414F2044454E2000204755492048554F4E37
:204B7800472044414E20200041542B43434C4B3F0D00202053454E44494E472043434C4BF5
:204B980020200041540D0041542B4950523D300D00202053454E44494E4720495052202063
:204BB800200041542B434C54533D310D00202053454E44494E4720434C54532020004154D9
:204BD8002B4346554E3D300D00202053454E44494E47204346554E3020200041542B43469F
:204BF800554E3D310D00202053454E44494E47204346554E3120200041542B434D47463D60
:204C1800310D00202053454E44494E4720434D474620200041542B434E4D493D312C312C9B
:204C3800302C302C310D00202053454E44494E4720434E4D4920200041542B434D4744417B
:204C58003D2244454C20414C4C220D00202053454E44494E4720434D474441202000415447
:204C78002B434D474C3D22414C4C220D000D6C656E68206B686F6E6720686F70206C650024
:204C98000D6C656E68206B686F6E6720686F70206C650D50686F6E652070687520677569E0
:204CB800206C656E68000D6368696E6820646F6E6720686F207468616E6820636F6E670045
:204CD8000D6368696E6820646F6E6720686F207468616E6820636F6E670D50686F6E6520C5
:204CF80070687520677569206C656E68000D62616F2063616F2064656E207468616E6820E7
:204D1800636F6E67000D62616F2063616F2064656E207468616E6820636F6E670D50686FBD
:204D38006E652070687520677569206C656E68000D62616F2063616F207468616E682063A7
:204D58006F6E67000D62616F2063616F207468616E6820636F6E670D50686F6E652070686C
:204D78007520677569206C656E68000D6B686F6920646F6E67206C616920626F2064696561
:204D980075206B6869656E000D6B686F6920646F6E67206C616920626F2064696575206B3E
:204DB8006869656E0D50686F6E652070687520677569206C656E68000D646174206E6761FB
:204DD800792067696F207265736574207468616E6820636F6E67000D646174206E67617991
:204DF8002067696F207265736574207468616E6820636F6E670D50686F6E6520706875206B
:204E1800677569206C656E68000D646174206E6761792067696F207265736574206B686F55
:204E38006E6720686F70206C65000D646174206E6761792067696F207265736574206B6883
:204E58006F6E6720686F70206C650D50686F6E652070687520677569206C656E68000D678A
:204E7800736D206D6F64756C65206B686F6920646F6E67206C61692073617520313073004E
:204E98000D67736D206D6F64756C65206B686F6920646F6E67206C6169207361752031302D
:204EB800730D50686F6E652070687520677569206C656E68000D6C656E68207265736574D0
:204ED800206B686F6E6720686F70206C65000D6C656E68207265736574206B686F6E6720DD
:204EF800686F70206C650D50686F6E652070687520677569206C656E68000D7468617920DF
:204F1800646F692067696F20736163207861206163717569207468616E6820636F6E670061
:204F38000D7468617920646F692067696F20736163207861206163717569207468616E6825
:204F580020636F6E670D50686F6E652070687520677569206C656E68000D4C656E682073AB
:204F78006163206163717569206B686F6E6720686F70206C65000D4C656E68207361632088
:204F98006163717569206B686F6E6720686F70206C650D50686F6E6520706875206775697E
:204FB800206C656E68000D786F6120746174206D6F2064656E207468616E6820636F6E6707
:204FD800000D786F6120746174206D6F2064656E207468616E6820636F6E670D50686F6E0C
:204FF800652070687520677569206C656E68000D677569206C656E6820746174206D6F20FD
:2050180064656E207468616E6820636F6E67000D677569206C656E6820746174206D6F20A9
:2050380064656E207468616E6820636F6E670D50686F6E652070687520677569206C656EEF
:2050580068000D74686F6E6720736F20746174206D6F2064656E206B686F6E6720686F7047
:20507800206C65000D74686F6E6720736F20746174206D6F2064656E206B686F6E6720687D
:205098006F70206C650D50686F6E652070687520677569206C656E68000D4B686F6E672064
:2050B800436F204D6F64756C65204D7033000D44756E67204D7033000D426174206D703391
:2050D800000D546174206D7033000D54657374206D7033207468616E6820636F6E67000D6E
:2050F8006B686F6E672064756E672067696F207068617420686F6163206D7033206C6F6938
:20511800000D4D70332064616E672063686F69206E686163206E656E206368756120746825
:20513800652074657374000D4C656E68204D5033206B686F6E6720686F70206C65000D42B0
:20515800617420475053000D54617420475053000D6768692070686F6E6520706875206D9F
:205178006F69207468616E6820636F6E67000D7468617920646F692070686F6E65207068F4
:2051980075206B686F6E67207468616E6820636F6E67000D586F612070686F6E65207068EA
:2051B80075000D6C656E68206B686F6E67207468616E6820636F6E6720646F2063687561C9
:2051D800206B686F692074616F2070686F6E6520706875000D4261742070686F6E652070F3
:2051F8006875000D5461742070686F6E6520706875000D4C656E682070686F6E6520706817
:2052180075206B686F6E6720686F70206C65000D4C656E68206B686F6E6720686F70206CB4
:2052380065000D4C656E68206B686F6E6720686F70206C650D50686F6E65207068752067D3
:205258007569206C656E68000D626F2064696575206B6869656E206B686F6920646F6E672A
:205278002073616E2073616E67000D70686174206869656E206C6F69206D61742078756E2C
:20529800672067696179000D70686174206869656E206C6F6920646F632063616D000D62CD
:2052B800616F2063616F206461752067696F000D67736D206D6F64756C65207265736574BD
:2052D800207468616E6820636F6E670020204B494D2020000D6368696E682067696F206263
:2052F800616E6720746179000D2A6368696E682067696F2062616E67207461792A00C03111
:205318002050485554202020202020202020200020204D503320200020204F4B202020004A
:2053380020204E4F202020000D2A6469656E206170206B686F6920706875632A000D2A64F0
:1553580069656E20617020616371756920746861702A001428AD
:2045200075BA01759A50438E0475D7C875D6FE438E1075AF0122AF828F7375740090006482
:204540001245E6AE82AF83AC727D00EC2EFEED3FFF8E058D037C0074E9C39BFB74FE9CFC7F
:204560008F017A00EBC399FBEC9AFC9001A7747EF09001A874FFF09001A97406F09001AAD8
:204580007412F09001ABE4F08F069001ACEEF09001ADEDF08C079001AEEFF09001AFEBF0FE
:2045A0009001B074EFF07F00EF24A7F582E43401F583E0F59BE59A035401700543C11080D6
:0B45C000F4539AFD0FBF0A0040DE22FA
:06007800E478FFF6D8FD5C
:200056007902E94400601B7A0190536B78B175A001E493F2A308B8000205A0D9F4DAF275DE
:02007600A0FFE9
:1B45CB0020F71130F6138883A88220F509F6A8837583002280FEF280F5F022EF
:1D45E600E5828573F0A4C582C0F08574F0A4D0F025F0C5838573F0A42583F5832256
:20460300E573457460467A01E57325E0F573E574334012F574E5829573E583957440030A2C
:2046230080E6C3E57413F574E57313F573C3E5829573F5F0E58395744005F58385F082C3A7
:0D464300E57413F574E57313F573DAE122E5
:20007E007800E84400600A790175A000E4F309D8FC78B0E84401600C7902900001E4F0A3CD
:04009E00D8FCD9FAB7
:204650007A10E4FBFCE58225E0F582E58333F583EB33FBEC33FCEB9573F5F0EC95744006A8
:09467000FCABF0438201DADD220B
:0D004900758178124703E5826003020046CE
:1C46790020F71430F6148883A88220F507E6A88375830022E280F7E49322E02250
:20469500C2D5E58330E70DD2D5E4C39582F582E49583F583E57430E70BE4C39573F573E41C
:1646B5009574F57412460330D50BE4C39582F582E49583F5832247
:2046CB00C2D5E58330E70DD2D5E4C39582F582E49583F583E57430E70DB2D5E4C39573F5B4
:1846EB0073E49574F57412465030D50BE4C39582F582E49583F583226B
:044703007582002299
:00000001FF
