:2000A700AF827E00756B0A8E6C8F828E83C007C006126489AC82D006D007ECC454F0FC75B8
:2000C7006B0A756C008F828E83C004126453AE82D004EE4CF58222E582FFC4540F75F00A41
:2000E700A4FE740F5F2EF5822212032F7582D012036E75820712036E75821012036E020310
:200107004A12032F7582D012036E75820412036E12034A12032F7582D112036EC2001203BD
:20012700931200DEAF82C00712034AD0078F8222AD82AE83AFF0C007C006C00512032F75CA
:2001470082D012036E75820012036E12034A12032F7582D112036EAA1BAB1CAC1DD200C074
:2001670004C003C0021203931200DEA982D002D003D0048A828B838CF0E9126389AA18ABC9
:2001870019AC1AD200C004C003C0021203931200DEA982D002D003D0048A828B838CF0E9A3
:2001A700126389C2001203931200DEAC82D005D006D0078D828E838FF0EC12638902034A58
:2001C700AF82C00712032F7582D012036E75820012036E851F821200A712036E851E82127F
:1201E70000A712036ED0078F821200A712036E02034A69
:2001F90075C70075C50075C60075C38075C40043C11022AE82AF8375C78375C5018EC48FD1
:20021900C375C65A75C6A500AFC2C0071201F9D0078F8222AE82AF8375C78375C5028EC490
:200239008FC3852AC275C65A75C6A5000201F9AE82AF8375C78375C5038EC48FC375C65ADA
:2002590075C6A5000201F943C1107F1FEF60101FEF24AEF582E43400F58374FFF080EDBF22
:200279001F005018EF24AEFDE43400FE8F827583F00FE493FC8D828E83F080E3900000028A
:2002990002487F00BF1F00502975C78375C5028FC475C300EF24AEF582E43400F5830FE0E8
:1302B900F5C275C65A75C6A500C0071201F9D00780D222E8
:2002CC00759850438E40538EFE758BB2758DFFC2ABD28ED2ACD2A022E582FF700122C299DF
:2002EC008F9920990543C11080F8C29922AD82AE83AFF0C2998D828E838FF0126437FC6001
:20030C00218C9920990543C11080F8C2998D828E838FF0126437FCBC1A01220DBD00D60EF7
:03032C0080D32259
:20032F00D2C043C11043C110D2CD43C11043C110C2C043C11043C110C2CD22C2C043C1103C
:20034F0043C110D2CD43C11043C110D2C02243C11043C110D2CD43C11043C110C2CD22AFB0
:20036F00827E00EF23540124FF92C08F05ED2DFFC007C00612035DD006D0070EBE08004025
:20038F00E202035D7F00D2C07E0043C11043C110D2CD43C11043C1108F05ED2DFDA2C0E49B
:1E03AF00334DFFC2CD0EBE080040DFA200B392C0C00712035DD007A2C092CD8F822284
:2003CD00AE82AF837C007D00C3EC9EED9F500A43C1100CBC00F20D80EF22AE82AF837C0038
:2003ED007D00C3EC9EED9F501D9003E8C007C006C005C0041203CDD004D005D006D0070C58
:20040D00BC00DF0D80DC22AF82E52B4FF58212049D75820D02049DAF82302D118F82120482
:20042D009D852C82852D83852EF002051D8F820204FEAF82D285EFC4540124FF9283EFA275
:20044D00E5E43324FF9282EF2323540124FF9281EF235401FE24FF9280D28400C28400EF77
:20046D00540124FF9283EF03540124FF9282EF03035401FE24FF9281EFA2E3E433FF24FF39
:20048D009280D28400C2849000641203CDC28522AF82C285EFC4540124FF9283EFA2E5E450
:2004AD003324FF9282EF2323540124FF9281EF235401FE24FF9280D28400C28400EF54018B
:2004CD0024FF9283EF03540124FF9282EF03035401FE24FF9281EFA2E3E433FF24FF92801C
:2004ED00D28400C2849000640203CD75820C02049DE582FF600E8F8212049D9064C575F031
:20050D008002051D75820112049D9006400203CDAD82AE83AFF07C008D828E838FF0126447
:20052D0037FB6055BC10005050BB80005025EB24E050200CEC601C0DBD00010E8B82C0072B
:20054D00C006C005C00412043FD004D005D006D00780C58D828E838FF0126437FBA3AD8236
:20056D00AE838B82C007C006C005C00412049DD004D005D006D007809F22C286903A981214
:20058D0003CD75801C00C284900FA01203CDD28400C2849000A01203CDD28400C28490002C
:2005AD00A01203CD75801400C2849003E81203CDD28400C2840075801100C284900028124E
:2005CD0003CD75801000C2840075801300C2849000281203CD75801000C2840075801600B5
:2005ED00C2849000281203CD75801000C2840075801800C2849003E80203CDAF82E53224B7
:20060D00E8500122E534240540030206C48F8212049D852F828530838531F012051D74F6AB
:20062D00253240067D207E00801DAB327C00756B0A8C6C8B828C83126489AB82AC83743002
:20064D002BFBFD3395E0FE8D8212043FAD327E00756B0A8E6C8D828E83126453AD82743063
:20066D002DF58212043FE534240350123001067D3A7E0080047D207E008D8212043FAD3383
:20068D007E00756B0A8E6C8D828E83C006C005126489AB8274302BF58212043FD005D006CE
:2006AD00756B0A756C008D828E83126453AD8274302DF58202043F8F8212049D852F82853E
:2006CD0030838531F012051D74F6253240067E207F00801DAC327D00756B0A8D6C8C828DE6
:2006ED0083126489AC82AD8374302CFCFE3395E0FF8E8212043FAE327F00756B0A8F6C8E65
:20070D00828F83126453AE8274302EF58212043F3001067E3A7F0080047E207F008E821270
:20072D00043FAE337F00756B0A8F6C8E828F83C007C006126489AC8274302CF58212043FAC
:20074D00D006D007756B0A756C008E828F83126453AE8274302EF58212043F3001067E3A6C
:20076D007F0080047E207F008E8212043FAE347F00756B0A8F6C8E828F83C007C00612647C
:20078D0089AC8274302CF58212043FD006D007756B0A756C008E828F83126453AE827430C2
:0C07AD002EF58212043F75822002043FEA
:1164C5002020202020202020202020202020202000C6
:06000000020049020FA9F5
:03000B00021334A9
:0100130032BA
:01001B0032B2
:03002300022115A2
:03002B0002628FDF
:01003300329A
:03003B00020FF9B8
:0300430002627FD7
:0500A200C23D02004612
:0300460002428CE7
:2007B900E53C75F006A4FFAD3B7E00756B0A8E6C8D828E83C007126489AD82D007ED2FF5AA
:2007D9004A7E017D0190F007E493FCC3ED9C4003020883ED90F00793FC8D030BEB3395E072
:2007F900FAEB2407F582EA34F0F583E493F9C3EC99E433F97C0009B900010CED90F00793B9
:20081900F8C3E54A98E4337F0029F9EF3CFCEB2407F582EA34F0F583E493FFC3E54A9FE460
:20083900337B0029F582EB3CF583756B028B6CC006C005126453E5828583F0D005D0064536
:20085900F060218E047F008C828F83A3756B028F6CC006126453AC82AF83D006EC4F24FF3A
:2008790092A180060D8D060207DE90F007E493FFEEB50702800122EE90F00793FF90F00844
:20089900E493FDC3EF9DE433FF7D000FBF00010DEE90F00793FCC3E54A9CE4337B002FFFBB
:2008B900EB3DFD90F008E493FCC3E54A9CE4337B002FF582EB3DF583756B028B6CC00612E8
:2008D9006453E5828583F0D00645F060197F008E828F83A3756B028F6C126453AE82AF8319
:2008F900EE4F24FF92A122786EB60002800E786EB601028044786EB602488028786FE6B58B
:200919003C077870E6B53B0122AF3C786FA607AE3B7870A6068E6A8F821262F475355A78B1
:200939006E76022230920BD2C2786EA2C2E433F68007AF351535EF7009209206786E7600AD
:20095900C2C2222002092034069000E0E06006C213758205229000CEE0FF601C9000CDE0B4
:20097900600FEF13924850091FEFFE3395E0FF80047E057F008E8222900117E0FFBF030006
:200999004003020A2A9000D4E07003020A24E543FFB53B07E53DB53F028070853F6B756CA8
:2009B9000090003CC0071263A4E5828583F0D00724D0FD740235F0FE7C00EF2DFDEC3EFEF5
:2009D900853D6B8C6C90003CC006C0051263A4AC82AF83D005D006EDC39CFDEE9FFEAC3BA3
:2009F9007F00EDC39CF582EE9FF583756BD0756C02126453AE82AF83C374689E74818FF028
:200A190063F08095F0921375820022C21375820522E54824FE4003020AB99000D4E07003A6
:200A3900020AB9E543FFB53B07E53DB53F028070853F6B756C0090003CC0071263A4E5828F
:200A59008583F0D00724D0FD740235F0FE7C00EF2DFDEC3EFE853D6B8C6C90003CC006C0F0
:200A7900051263A4AC82AF83D005D006EDC39CFDEE9FFEAC3B7F00EDC39CF582EE9FF58332
:200A9900756BD0756C02126453AE82AF83C374689E74818FF063F08095F0921375820022B8
:200AB9009000D6E07003020B3FE545FFB53B07E53DB54102807085416B756C0090003CC050
:200AD900071263A4E5828583F0D00724D0FD740235F0FE7C00EF2DFDEC3EFE853D6B8C6C3B
:200AF90090003CC006C0051263A4AC82AF83D005D006EDC39CFDEE9FFEAC3B7F00EDC39CDC
:200B1900F582EE9FF583756BD0756C02126453AE82AF83C374689E74818FF063F08095F079
:200B390092137582022274FE25485003020BCE9000D4E07003020BCEE543FFB53B07E53DFD
:200B5900B53F028070853F6B756C0090003CC0071263A4E5828583F0D00724D0FD74023508
:200B7900F0FE7C00EF2DFDEC3EFE853D6B8C6C90003CC006C0051263A4AC82AF83D005D017
:200B990006EDC39CFDEE9FFEAC3B7F00EDC39CF582EE9FF583756BD0756C02126453AE82A8
:200BB900AF83C374689E74818FF063F08095F0921375820022C21375820522900117E0FFA9
:200BD900BF0102800C2002092034069000E0E06006C214758205229000CEE0FE601C900037
:200BF900CDE0600FEE5401FD70091EEEFD3395E0FE80047D057E008D8222BF04004003029B
:200C19000CA79000D5E07003020CA1E544FFB53B07E53DB54002807085406B756C009000D8
:200C39003CC0071263A4E5828583F0D00724D0FD740235F0FE7C00EF2DFDEC3EFE853D6BD5
:200C59008C6C90003CC006C0051263A4AC82AF83D005D006EDC39CFDEE9FFEAC3B7F00EDE1
:200C7900C39CF582EE9FF583756BD0756C02126453AE82AF83C374689E74818FF063F0803E
:200C990095F0921475820122C21475820522E54924FE4003020D369000D5E07003020D362D
:200CB900E544FFB53B07E53DB54002807085406B756C0090003CC0071263A4E5828583F0D7
:200CD900D00724D0FD740235F0FE7C00EF2DFDEC3EFE853D6B8C6C90003CC006C0051263EC
:200CF900A4AC82AF83D005D006EDC39CFDEE9FFEAC3B7F00EDC39CF582EE9FF583756BD07A
:200D1900756C02126453AE82AF83C374689E74818FF063F08095F09214758201229000D77C
:200D3900E07003020DBCE546FFB53B07E53DB54202807085426B756C0090003CC007126335
:200D5900A4E5828583F0D00724D0FD740235F0FE7C00EF2DFDEC3EFE853D6B8C6C90003C68
:200D7900C006C0051263A4AC82AF83D005D006EDC39CFDEE9FFEAC3B7F00EDC39CF582EEC0
:200D99009FF583756BD0756C02126453AE82AF83C374689E74818FF063F08095F092147541
:200DB90082032274FE25495003020E4B9000D5E07003020E4BE544FFB53B07E53DB540029A
:200DD900807085406B756C0090003CC0071263A4E5828583F0D00724D0FD740235F0FE7C11
:200DF90000EF2DFDEC3EFE853D6B8C6C90003CC006C0051263A4AC82AF83D005D006EDC349
:200E19009CFDEE9FFEAC3B7F00EDC39CF582EE9FF583756BD0756C02126453AE82AF83C3E6
:200E390074689E74818FF063F08095F0921475820122C21475820522900200120248900120
:200E590017E0FFBF01028043BF0202802CBF03028015BF044885462A90020612022D854296
:200E79002A90020712022D85452A90020412022D85412A90020512022D85442A9002021229
:200E9900022D85402A90020312022D85432A90020012022D853F2A90020102022D2275FA3D
:200EB9000075EA009000D074A8F07461A3F075DA49D2DE22538E7F7589009000D9E0FF8F47
:200ED9006B756C009007D0C0071263A4AD82AE83D007EE3395E0FCFB7430C39D74F89EFE96
:200EF900E49CE49B8E8CEF75F0D0A4D39430F4F58AC28DD28CD2A92243C110B220A220926A
:200F190087D21E9000E3E0FFE06006EF149000E3F09000E5E0FFE06006EF149000E5F090B1
:200F390000E0E0FFBF020122053A900118E0FF7E001FBFFF011EAC3A7D00C3EF9CEE648031
:200F59008DF063F08095F05046753A00E5366006D53703753600D21F053BE53B24C4502F6B
:200F7900C203753B00053CE53C24E85017786F7618753C009000D2E0FFE06006EF149000CE
:200F9900D2F0C204053DE53D24F45003753D0022C029C0E0C0F0C082C083C007C006C005FD
:200FB900C004C003C002C001C000C0D075D00843C1109000D374FAF0C23675D000120F112D
:200FD90075D008D0D0D000D001D002D003D004D005D006D007D083D082D0F0D0E0D029322F
:200FF900C029C0E0C0F0C082C083C007C006C005C004C003C002C001C000C0D075D00843DE
:20101900C11010D8030213179000D0E0FEA3E0FF8EEA8FFA9000D074A82EF074613FA3F0CD
:20103900A2B6B39215A2B7B39216900117E0FFBF01273032132015033016047F0080027F4C
:2010590001EF24FF921580112015072016047F0080027F01EF24FF92157405B548030211F0
:201079003B30150D301705D21902113BD21702113B201B0302112FE54824D4FEE43400FF54
:201099009000D8E08E828F83F09000CDE0FFE06008EF149000CDF0806030122EE548244325
:2010B900F9870F0FA70FEF24C4501FE5482443F87600E548243FF9870F0FA70FEF24F45040
:2010D90038E548243FF87600802F20122CE5482443F9870F1FA70FEF24C3501DE5482443E5
:2010F900F8763BE548243FF9870F1FA70FEF24F35007E548243FF8760BC219C217C21B75CE
:20111900D00012095C75D00885824875D000120E5175D008800C301904D21B80051017025C
:2011390080007405B5490302120420B70D301805D21A021204D218021204201C030211F803
:20115900E54924D4FEE43400FF9000D8E08E828F83F09000CDE0FFE06008EF149000CDF00D
:20117900806030122EE5492443F9870F0FA70FEF24C4501FE5492443F87600E549243FF94A
:20119900870F0FA70FEF24F45038E549243FF87600802F20122CE5492443F9870F1FA70F47
:2011B900EF24C3501DE5492443F8763BE549243FF9870F1FA70FEF24F35007E549243FF8BA
:2011D900760BC21AC218C21C75D000120BD475D00885824975D000120E5175D008800C304F
:2011F9001A04D21C8005101802800030210930B5069000DD7402F030210330B5047F008047
:20121900027F01EF24FF922420230330B5047F0080027F01EF24FF922120220A2024032043
:2012390021047F0080027F01EF24FF9222A2B5922330250930B3069000DE7402F0302503AA
:2012590030B3047F0080027F01EF24FF922820270330B3047F0080027F01EF24FF922520A6
:20127900260A2028032025047F0080027F01EF24FF9226A2B3922730290930B4069000DF7D
:201299007402F030290330B4047F0080027F01EF24FF922C202B0330B4047F0080027F0183
:2012B900EF24FF9229202A0A202C032029047F0080027F01EF24FF922AA2B4922B9001283D
:2012D900E014F0E0700AD23D9001287414F0B22D9000D3E0FFE0600EEF149000D3F0900121
:2012F900297428F08018900129E014F0E0700F9001297428F075D000120F1175D008D0D0E1
:20131900D000D001D002D003D004D005D006D007D083D082D0F0D0E0D02932C0E0C082C036
:2013390083C0D075D01043C110303339E548B40100E43324FF92A77401B5490474018001BA
:20135900E424FF92A57402B5480474018001E424FF92A67403B5490474018001E4FF24FF15
:2013790092A4021408E548700B90F000E4935407600280047F0080027F01EF24FF92C474C3
:2013990001B5490474018001E424FF92C32032109000CEE0700A2013072014047F00800252
:2013B9007F01EF24FF92122032427405B548097405B54904E5487034E5A0540FFFE54790DC
:2013D90064EC934FF5A03012067E017F0080047EFF7FFFAF47EE2FF54724F75005754707E6
:2013F900800D7408B54708754700800353A00FD0D0D083D082D0E03285825085835185F03A
:2014190052AC4C9000E4ECF0854BF0ECA4FB9000E5740A2BF0C22E8550828551838552F059
:20143900C0041202F9D00474022550F9E43551FAAB52A84B302E0302159E9000E5E07003D8
:2014590002159E43C110758280C004C003C002C001C00012049D854D82854E83854FF01236
:20147900051DD000D001D002D003D004301D32752F76753068753180853C32853B33853AA6
:2014990034A22092017582C0C004C003C002C001C000120608D000D001D002D003D004806F
:2014B9006990F002E4937032752F7E753068753180853C32853B33853A34A2209201758295
:2014D900C0C004C003C002C001C000120608D000D001D002D003D0048030752F8675306848
:2014F900753180853C32853B33853A34A22092017582C0C004C003C002C001C000120608DE
:20151900D000D001D002D003D0049000E3E0600302144D880718EF606C9000E3ECF090003E
:20153900E4ECF089828A838BF0126437FFBF2B0280108550828551838552F0126437FFBF35
:201559000D2090688E75F080C004C003C002C001C0001202F9D000D001D002D003D00402E7
:20157900144D8550828551838552F0C004C003C002C001C0001202F9D000D001D002D0035D
:20159900D00402144D7582801204FEA22E22AD82AE83AFF090689275F080C007C006C005BE
:2015B9001202F9D005D006D0078D828E838FF01202F9754D99754E68754F80754B01754C8B
:2015D9003C90689675F08002141190000CE0602090000FE0701A754DAC754E68754F8075C5
:2015F9004B03754C019068AA75F080121411C3229068BD75F0801202F9303E0B90000175F9
:20161900F0001202F9800990F01175F0801202F99000E67408F0754DCA754E68754F807556
:201639004B05754C3D9068C775F08002141190000CE4F0C20F9000E67407F0754DEC754EE5
:2016590068754F80754B03754C1E9068D875F0801214119000E6E4F090000CE024FF2230FC
:2016790033067EFD7F6880047E047F697D808E828F838DF01202F97F003032067D0B7E69C9
:2016990080047D0F7E697C808D828E838CF0C0071202F9D0078F0674312EF582C00712023D
:2016B900E475823D1202E4D007EF24D4FDE43400FE8D828E83E0700A758245C0071202E4BB
:2016D900D007EF243FF987067D00756B0A8D6C8E828D83C007C001126489AD8274302DF546
:2016F900821202E4D00187067D00756B0A8D6C8E828D83126453AD8274302DF5821202E441
:2017190075823A1202E4D007EF2443F987067D00756B0A8D6C8E828D83C007C001126489CD
:20173900AD8274302DF5821202E4D00187067D00756B0A8D6C8E828D83126453AD827430A7
:201759002DF5821202E4D0070F900117E0FEEFB50601220216922290691375F0801202F9D1
:20177900AE3C7F00756B0A8F6C8E828F83126489AE8274302EF5821202E4AE3C7F00756B27
:201799000A8F6C8E828F83126453AE8274302EF5821202E475823A1202E4AE3B7F00756B5E
:2017B9000A8F6C8E828F83126489AE8274302EF5821202E4AE3B7F00756B0A8F6C8E828F8D
:2017D90083126453AE8274302EF5821202E4303F2190691775F0801202F9301D067E317F20
:2017F9000080047E307F0090F002E4932EF5820202E422786D866B756C0090001C1263A4FB
:20181900756B00756C01126489AE82AF832040030218FA90691D75F080C0061202F9D00671
:201839003034067D307F0080047D317F008D82C0061202E490692275F0801202F990F001ED
:20185900E4932430F5821202E490692775F0801202F9D0069000D3E060067D317F008004F3
:201879007D307F008D82C0061202E490692C75F0801202F99000D2E02430F5821202E475C5
:20189900822F1202E490F003E4932430F5821202E490693175F0801202F990F004E493FFB3
:2018B9007D00756B0A8D6C8F828D83126489AD8274302DF5821202E490F004E493FF7D00A9
:2018D900756B0A8D6C8F828D83126453AD8274302DF5821202E490693675F0801202F9D0C2
:2018F9000690693A75F080C0061202F9D00630A1067D317F0080047D307F008D82C006126D
:2019190002E490694075F0801202F9D0067F00756B0A8F6C8E828F83C007C006126489AC09
:201939008274302CF5821202E4D006D007756B0A756C008E828F83126453AE8274302EF573
:20195900821202E490F010E493700330402190694675F0801202F93092067E307F0080043F
:201979007E2F7F0090F010E4932EF5821202E42040012290694C75F0801202F990F01CE444
:20199900932430F5821202E490F01CE493FFBF02012275822C1202E490F01175F08002024D
:2019B900F9AD82AE83AFF090011AE0700122754D49754E65754F80754B0F754C01906951A6
:2019D90075F080C007C006C005121411D005D006D00774012DFAE43EFB8F048A828B838C0C
:2019F900F0126437F9B92A02801DC007C006C005C004C003C002121647D002D003D004D063
:201A190005D006D007800590000CE4F0A241923EC007C006C005C004C003C0021215E3D0DE
:201A390002D003D004D005D006D00740012290654975F080C007C006C005C004C003C00241
:201A59001202F9121678A241923F121770A241924012180CD002D003D004D005D006D0078D
:201A79008A828B838CF0126437FABA2A02805390000CE0604D90695575F080C007C006C0AE
:201A9900051202F990000C75F0001202F9D005D006D00730411B900010E07015906960752C
:201AB900F080C007C006C0051202F9D005D006D007900010E4F090000FF090000EF090009B
:201AD9000DF08D828E838FF0C007C006C0051202F9D005D006D0070DBD00010E8D828E8377
:201AF9008FF0126437FDBD2A099068AA75F0800202F9754D7A754E69754F80754B32754CD1
:201B1900019068AA75F08002141190693A75F0801202F930A1067E317F0080047E307F0022
:201B39008E821202E490698B75F0801202F990F007E4932430F5821202E490F007E49370DF
:201B59000990699375F0800202F99069A875F0801202F990F007E493FF75820DC007120286
:201B7900E4D007EF90F00793FE7D00756B3C8D6C8E828D83C007126489AD8274302DF5829B
:201B99001202E4D007EF90F00793FE7D00756B068D6C8E828D83C007126489756B0A756C49
:201BB90000126453AD8274302DF5821202E475823A1202E4D007EF90F00793FF7E00756B6E
:201BD900068E6C8F828E83126453AE8274302EF5821202E49069B575F0801202F990F00868
:201BF900E493FF7E00756B3C8E6C8F828E83126489AE8274302EF5821202E490F008E49331
:201C1900FF7E00756B068E6C8F828E83126489756B0A756C00126453AE8274302EF582120E
:201C390002E475823A1202E490F008E493FF7E00756B068E6C8F828E83126453AE82743061
:201C59002EF5821202E47582301202E47F0290F007E493FEC3EF9E40012275820DC00712A2
:201C790002E4D007EF90F00793FE7D00756B3C8D6C8E828D83C007126489AD8274302DF51A
:201C9900821202E4D007EF90F00793FE7D00756B068D6C8E828D83C007126489756B0A7532
:201CB9006C00126453AD8274302DF5821202E475823A1202E4D007EF90F00793FE7D00756E
:201CD9006B068D6C8E828D83C007126453AD8274302DF5821202E49069B575F0801202F9C2
:201CF900D0078F06EE04FD3395E0FCED2407F582EC34F0F583E493FB7A00756B3C8A6C8B2C
:201D1900828A83C006C005C004126489AA8274302AF5821202E4D004D005ED2407F582EC40
:201D390034F0F583E493FB7A00756B068A6C8B828A83C005C004126489756B0A756C0012A7
:201D59006453AA8274302AF5821202E475823A1202E4D004D005ED2407F582EC34F0F58361
:201D7900E493FD7C00756B068C6C8D828C83126453AC8274302CF5821202E47582301202ED
:201D9900E4D00674022EFF021C67AD82AE83AFF090011AE0700122754D49754E65754F80B4
:201DB900754B0F754C0190695175F080C007C006C005121411A242923E1215E3D005D00658
:201DD900D007400122A242923FC007C006C005121770A242924012180C121B23D005D00629
:201DF900D0078D828E838FF01202F9754DBA754E69754F80754B32754C019068AA75F08020
:201E190002141190000CE4F0D23E1215E340012290655A75F0801202F9754DCB754E697526
:201E39004F80754B32754C019068AA75F0800214117F00900119E0FEBE3D0122754D4975B3
:201E59004E65754F80754B0F754C0190695175F080C007121411D0074003022092754DE63E
:201E7900754E69754F80754B0F754C019069DC75F080C007121411D0074003022092754D00
:201E990002754E6A754F80754B0F754C019069F775F080C007121411D00790F002E4937012
:201EB90003022092754D1E754E6A754F80754B0F754C01906A1375F080C007121411D007A9
:201ED9004003022092754D3A754E6A754F80754B0F754C01906A2F75F080C007121411D018
:201EF9000740030220929000E67406F0754D57754E6A754F80754B0F754C02906A4C75F024
:201F190080C007121411D00740030220929000E7E0FEBE010280030220927E007D00ED2403
:201F3900F9F582E43400F5830DE0FCBC2C060EBE0300500ABD0B00500543C11080E0EE24E5
:201F5900FD40030220928D060EEE3395E0FCEE24F9F582EC3400F583E0FEBE2C15ED04FE5B
:201F7900ED24F9F582E43400F583E0FC24D0F53C8029ED04FCED24F9F582E43400F583E0AF
:201F990024D075F00AA4FDEC04FEEC24F9F582E43400F583E0FC24D02DF53C0E8E050DED5D
:201FB9003395E0FCED24F9F582EC3400F583E0FDBD2C15EE04FDEE24F9F582E43400F5836F
:201FD900E0FC24D0F53B8029EE04FCEE24F9F582E43400F583E024D075F00AA4FEEC04FD6D
:201FF900EC24F9F582E43400F583E0FC24D02EF53BED04FEFD0DED3395E0FCED24F9F5827F
:20201900EC3400F583E0FDBD2C12EE24F9F582E43400F583E0FD24D0F53A8026EE04FDEEA2
:2020390024F9F582E43400F583E024D075F00AA4FEED24F9F582E43400F583E0FD24D02E6E
:20205900F53AAD3C7E0074072DFDE43EFEC374179D74808EF063F08095F05007E53C24EFCC
:20207900FE8006AD3C74072DFE8E3C853B1E853A1F853C821201C77F01EF24FF921D9000C0
:20209900E6E4F02230A00690011AE07002C322754D49754E65754F80754B0F754C01906992
:2020B9005175F080121411400122754D74754E6A754F80754B0F754C02906A6975F08012A4
:2020D90014115036754D98754E6A754F80754B0F754C01906A8575F080121411501C754D17
:2020F900BD754E6A754F80754B14754C03906AA975F0801214115002D322C322C029C0E08D
:20211900C0F0C082C083C007C006C005C004C003C002C001C000C0D075D010209803023083
:20213900D843C1109000E4E09000E3F09000E8E0FF24EAF582E43400F583E599F09000E693
:20215900E0FF24F750030230C4EF240A83F582EF240D83F583E473828686D6C454A666CC46
:20217900212B2B2B302D292F2E743EB599129068AA75F08075D0001202F975D0100230C48B
:202199009000E8E0FF24EAF582E43400F583E0FEBE2202800302236B8F147D00740C2CF526
:2021B90082E43DF583756B0D8D6CC017C016C015C01475D00012645375D010AA82AB83D022
:2021D90014D015D016D017EA24EAF582EB3400F583E0FBBB2002800302236B740B2CF5822D
:2021F900E43DF583756B0D756C00C017C016C015C01475D00012645375D010AA82AB83D07C
:2022190014D015D016D017EA24EAF582EB3400F583E0FBBB3A02800302236B740A2CF582D3
:20223900E43DF583756B0D756C00C017C016C015C01475D00012645375D010AA82AB83D03B
:2022590014D015D016D017EA24EAF582EB3400F583E0FBBB4B02800302236B74092CF58283
:20227900E43DF583756B0D756C00C017C016C015C01475D00012645375D010AA82AB83D0FB
:2022990014D015D016D017EA24EAF582EB3400F583E0FBBB4C02800302236B74082CF58243
:2022B900E43DF583756B0D756C00C017C016C015C01475D00012645375D010AA82AB83D0BB
:2022D90014D015D016D017EA24EAF582EB3400F583E0FBBB4302800302236B74072CF5820D
:2022F900E43DF583756B0D756C00C017C016C015C01475D00012645375D010AA82AB83D07B
:2023190014D015D016D017EA24EAF582EB3400F583E0FBBB433C74062CF582E43DF5837598
:202339006B0D756C00C017C01675D00012645375D010AC82AD83D016D017EC24EAF582ED92
:202359003400F583E0FDBD2B099000E67402F00230C4BE470280030224368F147D00740C92
:202379002CF582E43DF583756B0D8D6CC017C016C015C01475D00012645375D010AA82AB92
:2023990083D014D015D016D017EA24EAF582EB3400F583E0FBBB4E028003022436740B2C95
:2023B900F582E43DF583756B0D756C00C017C016C015C01475D00012645375D010AA82AB96
:2023D90083D014D015D016D017EA24EAF582EB3400F583E0FBBB4945740A2CF582E43DF56A
:2023F90083756B0D756C00C017C01675D00012645375D010AC82AD83D016D017EC24EAF549
:2024190082ED3400F583E0FDBD5212906ACF75F08075D0001202F975D0100230C4BE3A0245
:2024390080030225748F147D00740C2CF582E43DF583756B0D8D6CC017C016C015C01475D8
:20245900D00012645375D010AA82AB83D014D015D016D017EA24EAF582EB3400F583E0FBA4
:20247900BB49028003022574740B2CF582E43DF583756B0D756C00C017C016C015C01475CB
:20249900D00012645375D010AA82AB83D014D015D016D017EA24EAF582EB3400F583E0FB64
:2024B900BB54028003022574740A2CF582E43DF583756B0D756C00C017C016C015C0147581
:2024D900D00012645375D010AA82AB83D014D015D016D017EA24EAF582EB3400F583E0FB24
:2024F900BB4D02800302257474092CF582E43DF583756B0D756C00C017C016C015C0147549
:20251900D00012645375D010AA82AB83D014D015D016D017EA24EAF582EB3400F583E0FBE3
:20253900BB433874082CF582E43DF583756B0D756C00C017C01675D00012645375D010AC0A
:2025590082AD83D016D017EC24EAF582ED3400F583E0FDBD2B05D20C0230C4E4BE20010474
:20257900FD700302270B8F137C00740C2BF582E43CF583756B0D8C6CC017C016C015C0148B
:20259900C01375D00012645375D010A982AA83D013D014D015D016D017E924EAF582EA348F
:2025B90000F583E0FABA3A02800302270B740B2BF582E43CF583756B0D756C00C017C016CF
:2025D900C015C014C01375D00012645375D010A982AA83D013D014D015D016D017E924EA3B
:2025F900F582EA3400F583E0FABA4C02800302270B740A2BF582E43CF583756B0D756C0096
:20261900C017C016C015C014C01375D00012645375D010A982AA83D013D014D015D016D05B
:2026390017E924EAF582EA3400F583E0FABA4702800302270B74092BF582E43CF583756B3B
:202659000D756C00C017C016C015C014C01375D00012645375D010A982AA83D013D014D0F8
:2026790015D016D017E924EAF582EA3400F583E0FABA4D02800302270B74082BF582E43C83
:20269900F583756B0D756C00C017C016C015C014C01375D00012645375D010A982AA83D027
:2026B90013D014D015D016D017E924EAF582EA3400F583E0FABA433A74072BF582E43CF511
:2026D90083756B0D756C00C017C016C01575D00012645375D010AB82AC83D015D016D0179D
:2026F900EB24EAF582EC3400F583E0FCBC2B03022887ED70030228D28F147D00740C2CF525
:2027190082E43DF583756B0D8D6CC017C016C015C01475D00012645375D010AA82AB83D0BC
:2027390014D015D016D017EA24EAF582EB3400F583E0FBBB3A0280030228D2740B2CF58241
:20275900E43DF583756B0D756C00C017C016C015C01475D00012645375D010AA82AB83D016
:2027790014D015D016D017EA24EAF582EB3400F583E0FBBB500280030228D2740A2CF582EC
:20279900E43DF583756B0D756C00C017C016C015C01475D00012645375D010AA82AB83D0D6
:2027B90014D015D016D017EA24EAF582EB3400F583E0FBBB490280030228D274092CF582B4
:2027D900E43DF583756B0D756C00C017C016C015C01475D00012645375D010AA82AB83D096
:2027F90014D015D016D017EA24EAF582EB3400F583E0FBBB4C0280030228D274082CF58272
:20281900E43DF583756B0D756C00C017C016C015C01475D00012645375D010AA82AB83D055
:2028390014D015D016D017EA24EAF582EB3400F583E0FBBB430280030228D274072CF5823B
:20285900E43DF583756B0D756C00C017C01675D00012645375D010AC82AD83D016D017ECD1
:2028790024EAF582ED3400F583E0FDBD2B4B8F147D0074092CF582E43DF583756B0D8D6C52
:2028990075D00012645375D010AC82AD83EC24EAF582ED3400F583E0FDBD4C03D38001C354
:2028B90092064006300E030230C4C20BC209C2089000E67403F00230C4BE4B598F147D0033
:2028D900740C2CF582E43DF583756B0D8D6CC017C01675D00012645375D010AC82AD83D0FF
:2028F90016D017EC24EAF582ED3400F583E0FDBD4F23A22FB3922EC22FE53870030230C4F1
:20291900753800906AA975F08075D0001202F975D0100230C4BE540280030230C48F167F1B
:2029390000740C2EF582E43FF583756B0D8F6CC017C01675D00012645375D010AC82AD8368
:20295900D016D017EC24EAF582ED3400F583E0FDBD4F0280030230C4740B2EF582E43FF5E7
:2029790083756B0D756C0075D00012645375D010AE82AF83EE24EAF582EF3400F583E0FF3B
:20299900BF4E0280030230C4D22F0230C49000E8E0FF24EAF582E43400F583E0FEBE200275
:2029B90080030230C48F167F00740C2EF582E43FF583756B0D8F6CC017C01675D000126451
:2029D9005375D010AC82AD83D016D017EC24EAF582ED3400F583E0FDBD3A0280030230C4B2
:2029F900740B2EF582E43FF583756B0D756C00C017C01675D00012645375D010AC82AD83C3
:202A1900D016D017EC24EAF582ED3400F583E0FDBD5A0280030230C4740A2EF582E43FF51C
:202A390083756B0D756C00C017C01675D00012645375D010AC82AD83D016D017EC24EAF502
:202A590082ED3400F583E0FDBD540280030230C474092EF582E43FF583756B0D756C00C08E
:202A790017C01675D00012645375D010AC82AD83D016D017EC24EAF582ED3400F583E0FDDB
:202A9900BD540280030230C474082EF582E43FF583756B0D756C00C017C01675D00012649F
:202AB9005375D010AC82AD83D016D017EC24EAF582ED3400F583E0FDBD550280030230C4B6
:202AD90074072EF582E43FF583756B0D756C00C017C01675D00012645375D010AC82AD83E6
:202AF900D016D017EC24EAF582ED3400F583E0FDBD530280030230C474062EF582E43FF547
:202B190083756B0D756C00C017C01675D00012645375D010AC82AD83D016D017EC24EAF521
:202B390082ED3400F583E0FDBD500280030230C48E828F83A3A3A3A3A3756B0D756C007568
:202B5900D00012645375D010AE82AF83EE24EAF582EF3400F583E0FFBF2A0280030230C4BB
:202B79009000E9E4F09000E604F00230C4740DB5990280209000E9E0FFBF1E0050169000F3
:202B9900E9EF04F0EF24F9F582E43400F583E599F00230C49000E9E0FF1FEF3395E0FEEFDE
:202BB90024F9F582EE3400F583E4F09000E6E09000E7F09000E6E4F0D22E0230C4200B03CF
:202BD900022C4CE538701B740DB5990280030230C430060575370205369000E67405F0026B
:202BF90030C4740AB5380B7422B599067538000230C4200814E5382401F582E43400F58340
:202C1900E0FFB599028002D208300A0F20090EE53890F01193FFB599028002D20905382046
:202C390008030230C42009030230C49000E6E4F00230C43006429000E8E0FF24EAF582E4E0
:202C59003400F583E0FEBE302F7E00740C2FF582E43EF583756B0D8E6C75D000126453750C
:202C7900D010AE82AF83EE24EAF582EF3400F583E0FFBF2203022D3D9000E8E0FF24EAF562
:202C990082E43400F583E0FEBE34028003022D428F167F00740C2EF582E43FF583756B0D72
:202CB9008F6CC017C01675D00012645375D010AC82AD83D016D017EC24EAF582ED3400F53E
:202CD90083E0FDBD3863740B2EF582E43FF583756B0D756C00C017C01675D0001264537566
:202CF900D010AC82AD83D016D017EC24EAF582ED3400F583E0FDBD2B30740A2EF582E43F6B
:202D1900F583756B0D756C0075D00012645375D010AE82AF83EE24EAF582EF3400F583E0A1
:202D3900FFBF2205D20B753801740DB5990280030230C49000E6E4F00230C4300D37743B5D
:202D5900B599028021740DB59902801A746025384014AF380538EF240CF582E43400F5832F
:202D7900E599F00230C4753800C20D9000E6E4F0D20E0230C49000E8E0FF24EAF582E43446
:202D990000F583E0FEBE2C028003022EAC8F167F00740C2EF582E43FF583756B0D8F6CC0ED
:202DB90017C01675D00012645375D010AC82AD83D016D017EC24EAF582ED3400F583E0FD98
:202DD900BD43028003022EAC740B2EF582E43FF583756B0D756C00C017C01675D000126484
:202DF9005375D010AC82AD83D016D017EC24EAF582ED3400F583E0FDBD55028003022EAC8D
:202E1900740A2EF582E43FF583756B0D756C00C017C01675D00012645375D010AC82AD839F
:202E3900D016D017EC24EAF582ED3400F583E0FDBD446074092EF582E43FF583756B0D7545
:202E59006C00C017C01675D00012645375D010AC82AD83D016D017EC24EAF582ED3400F52B
:202E790083E0FDBD502D74082EF582E43FF583756B0D756C0075D00012645375D010AE8282
:202E9900AF83EE24EAF582EF3400F583E0FFBF2A0280047F0080027F01EF24FF920D740DD8
:202EB900B5990280030230C47538019000E6E4F00230C4743EB5990A9000E6E4F0D22E02EC
:202ED90030C49000E8E0FF24EAF582E43400F583E0FEBE520280030230C48F167F00740C6C
:202EF9002EF582E43FF583756B0D8F6CC017C01675D00012645375D010AC82AD83D016D06D
:202F190017EC24EAF582ED3400F583E0FDBD520280030230C4740B2EF582E43FF583756B71
:202F39000D756C0075D00012645375D010AE82AF83EE24EAF582EF3400F583E0FFBF4502D2
:202F590080030230C49000E3E4F00230C4300F3D7420B59902801A746025384014AF380537
:202F790038EF240CF582E43400F583E599F00230C4C20FC211E538240CF582E43400F5837E
:202F9900E4F0F5389000E6F0D22E0230C49000E8E0FF24EAF582E43400F583E0FEBE3D0274
:202FB90080030230C48F167F00740C2EF582E43FF583756B0D8F6CC017C01675D00012644B
:202FD9005375D010AC82AD83D016D017EC24EAF582ED3400F583E0FDBD680280030230C47E
:202FF900740B2EF582E43FF583756B0D756C00C017C01675D00012645375D010AC82AD83BD
:20301900D016D017EC24EAF582ED3400F583E0FDBD6E0280030230C4740A2EF582E43FF502
:2030390083756B0D756C00C017C01675D00012645375D010AC82AD83D016D017EC24EAF5FC
:2030590082ED3400F583E0FDBD696074092EF582E43FF583756B0D756C00C017C01675D05C
:203079000012645375D010AC82AD83D016D017EC24EAF582ED3400F583E0FDBD682D740839
:203099002EF582E43FF583756B0D756C0075D00012645375D010AE82AF83EE24EAF582EFE2
:2030B9003400F583E0FFBF6302D20F9000E8E02401F0E0FF24F350059000E8E4F0C298D039
:2030D900D0D000D001D002D003D004D005D006D007D083D082D0F0D0E0D02932C2107F00DA
:2030F900EF240CFDE43400FE0F8D828E83E0600543C11080EBBFA000500FEF240CF582E45A
:203119003400F5830FE4F080EC90000CE0FFBF3F02800890000DE0FFBF3F06200803021ECD
:203139001C90000DE0FFBF430302383FBF45030239D9BF48028044BF4903023EA1BF50037A
:20315900023D6DBF53030238F7BF5403023F12BF630302383FBF65030239D9BF6802801B5E
:20317900BF6903023EA1BF7003023D6DBF73030238F7BF7403023F1202424290000FE0FF59
:2031990024CF4003023246BF35004003023246900012E06003023246900010E0FEBE4402D4
:2031B9008003BE64047D04800CBE53028007BE73028002D21020101C900011E0FEBE410243
:2031D900800ABE61028005EF24CD50088D0674082EFD8017201008900011E0FEBE530A903B
:2031F9000011E0FEBE73028002D2108F06EE24D02DFEC006120260D0069000AEEEF012024E
:203219009BD241906AD475F0801219BAC2AF900200120248C2A0752A0090000512022DD247
:20323900A3900FA01203E775C7600237DCBF2B028003023403900010E0FEC3742F9EE433A5
:20325900FD700302338EBE3300400302338E900011E0FC24D0400302338EBC3A0040030279
:20327900338E900012E0FB24D0400302338EBB3600400302338E900013E0F55924D04003FE
:2032990002338E74C62559500302338E900015E0F55524D0400302338E74CD2555500302AB
:2032B900338E900016E0F55624D0400302338E74C62556500302338E900017E0F55724D0D7
:2032D900400302338E74CA2557500302338E900018E0F55824D0400302338E74C625585029
:2032F9000302338E8E0274022AF55AAA55C39A75F00AA42404F55A253C2CAC56C39CFAACF6
:203319005774062CC39B75F00AA42558AB59C39BF5538A5B755C00AB3B7C00743C2BF55DBA
:20333900E43CF55EAA537C00C3E55D9AE55E64808CF063F08095F0E433FA7C00E55BC39AC4
:20335900F582E55C9CF583756B0C8C6C126453AB828B3FAC3B74782CAB53C39BFC7B00759D
:203379006B3C8B6C8C828B83126453AB828B43120E510237DCED606DBE3600506890001129
:20339900E0FD24D0505FBD3A00505AEE24D075F00AA42D24D0FEAD3F740C2DFDC3E5439EC0
:2033B900E433FCEDC39CFD7C00756B0C8C6C8D828C83C006126453AC82D0068C3FAC437D50
:2033D90000743C2CFCE43DFD7B00ECC39EF582ED9BF583756B3C8B6C126453AD828D4312B2
:2033F9000E510237DCD2100237DCBF2D46900010E0FF24D05038BF36005033900011E0FE25
:2034190024D0502ABE3A005025EF24D075F00AA4AD432D2E24D0F54324C4500CE53F04F5EA
:203439003FE543FF24C4F543120E510237DCD2100237DC900010E0FFBF4E028003BF6E240E
:203459003008030242681202609000AEE054EFF012029BC234786E7600786F7618787076D3
:203479003C0237DCBF46028003BF661A3008030242681202609000AEE04410F012029BD2DB
:2034990034C2C20237DC90011C7403F075540190011CE0FE240CF582E43400F583E0FDBD0C
:2034B9002C46E554700990011C7465F00237C6AB547C0074012BF55DE43CF55E900117E0F2
:2034D900FA7C0074012AF56BE43CF56C855D82855E83C006126453AB82AC83D0068B5490E3
:2034F900011CEE04F00237C6BD30005015E55470057C65FE80047CCA7E0090011CECF00203
:2035190037C6E5547042BD6702800DBD47028008BD61028003BD4130C2C2786E7600121E88
:203539004AAD3C7E00756B0C8E6C8D828E83126453AD82AE838D3D786F76187870763C9029
:20355900011C7465F00237C690011CE0FE240CF582E43400F583E0FD24D040030237C0BDE1
:20357900330040030237C08E037C0074012BFAE43CFFEA240CF582EF3400F583E0FF24D0FE
:2035990040030237C074012BFAE43CFFEA240CF582EF3400F583E0FFBF3A0040030237C0DD
:2035B90074022BFAE43CFFEA240CF582EF3400F583E0FF24D040030237C074022BFAE43C42
:2035D900FFEA240CF582EF3400F583E0FFBF360040030237C074032BFAE43CFFEA240CF5CD
:2035F90082EF3400F583E0FF24D040030237C074032BFAE43CFFEA240CF582EF3400F5839F
:20361900E0FFBF3A0040030237C0E5547003023704E55414F55B243FF55D8D027F00EA2426
:20363900D0F56BEF34FFF56C90000AC006C004C0031263A485825F858360D003D0047401D4
:203659002BFAE43CFFEA240CF582EF3400F583E07A00255FFFEA3560FAEF24D0F582EA3413
:20367900FFF583756B0C756C00C004C003126453AA82D003D004A85DA602E55B2443F97409
:20369900022BFAE43CFFEA240CF582EF3400F583E024D075F00AA4F55F74032BFAE43CFFA9
:2036B900EA240CF582EF3400F583E0255F24D0F7120E51AA547F0074012AF55FE43FF5601D
:2036D900900117E0FF7A0074012FF56BE43AF56C855F82856083126453AA82AF83D0068AF8
:2036F9005490011C74052EF00237C6C2C2786EE4F6FFED24D0F56BEF34FFF56C90000AC0B9
:2037190004C0031263A4AE82AF83D003D00474012BFAE43CFDEA240CF582ED3400F583E0E6
:203739007A002EFEEA3FFFEE24D0F582EF34FFF583756B188A6CC004C003126453AE82D071
:2037590003D0048E3C74022BFEE43CFFEE240CF582EF3400F583E024D075F00AA4FF740364
:203779002BFBE43CFCEB240CF582EC3400F583E02F24D0F53BAE3C7F00756B0C8F6C8E8231
:203799008F83126453AE828E3D853B1E853A1F853C821201C7C21D786F76187870763C90E3
:2037B900011C7465F0800690011C74CAF090011CE0FFBF640050030234A8BFCA03D38001E9
:2037D900C3921012095C858248120BD485824930102A30090ED241906AF975F0801219BAE3
:2037F900024268D241906B0C75F0801219BAC241906AF975F0801219BA02426830090ED29B
:2038190041906B3A75F0801219BA024268D241906B5475F0801219BAC241906B3A75F0805A
:203839001219BA024268900010E0FFBF65028003BF4514300803024268D242906B8175F0C2
:2038590080121DA3024268BF6E028003BF4E143008030242681202609000AF7401F012026B
:203879009B8051BF66028003BF46133008030242681202609000AFE4F012029B803690009E
:203899000EE0603090000FE0602A30090ED241906AF975F0801219BA024268D241906B991E
:2038B90075F0801219BAC241906AF975F0801219BA02426830090ED241906BC375F08012AA
:2038D90019BA024268D241906BD775F0801219BAC241906BC375F0801219BA024268300832
:2038F90003024268900010E0FFBF7902800DBF59028008BF44028003BF6426D241906BFE3B
:2039190075F0801219BAC2AFC2A0752A0090000512022DD2A3900FA01203E775C7600242EC
:2039390068BF67028003BF4771900014E0FE24D0505ABE3A005055120260900014E024D03B
:20395900FE9000B1F09000D2EEF0900016E0FE24D05028BE33005023900017E0FD24D050C3
:203979001ABD3A005015EE24D075F00AA42D24D0FEBE180050059000B2EEF012029BD24197
:20399900906C1375F0801219BA024268D241906C2975F0801219BA024268BF69028003BF6F
:2039B9004910D241906C4175F0801219BAC2A0024268D241906C5375F0801219BA02426895
:2039D900300803024268900010E0FFBF58028003BF78191202609000B5E4F012029BD2422C
:2039F900906C6C75F080121DA302426812026012029B9000B5E4F090011C7404F090011CE5
:203A1900E0FF240CF582E43400F583E0FE24D04003023D2BBE33004003023D2B8F057F0047
:203A390074012DFBE43FFCEB240CF582EC3400F583E0FC24D04003023D2B74012DFBE43F4A
:203A5900FCEB240CF582EC3400F583E0FCBC3A004003023D2B74022DFBE43FFCEB240CF5DB
:203A790082EC3400F583E0FC24D04003023D2B74022DFBE43FFCEB240CF582EC3400F583AF
:203A9900E0FCBC36004003023D2B74032DFBE43FFCEB240CF582EC3400F583E0FC24D0409A
:203AB90003023D2B74032DFBE43FFCEB240CF582EC3400F583E0FCBC3A004003023D2B74A5
:203AD900052DFBE43FFCEB240CF582EC3400F583E0FC24D04003023D2B74052DFBE43FFC1A
:203AF900EB240CF582EC3400F583E0FCBC33004003023D2B74062DFBE43FFCEB240CF582B8
:203B1900EC3400F583E0FC24D04003023D2B74062DFBE43FFCEB240CF582EC3400F583E0AC
:203B3900FCBC3A004003023D2B74072DFBE43FFCEB240CF582EC3400F583E0FC24D04003CE
:203B5900023D2B74072DFBE43FFCEB240CF582EC3400F583E0FCBC36004003023D2B7408FF
:203B79002DFBE43FFCEB240CF582EC3400F583E0FC24D04003023D2B74082DFBE43FFCEB90
:203B9900240CF582EC3400F583E0FCBC3A004003023D2B8E6B756C0090000AC007C006C08D
:203BB900051263A4AB82AC83D005D006D007C00674012DFAE43FFEEA240CF582EE3400F5C5
:203BD90083E07A002BFBEA3CFCC3EB9428EC64809482D0064003023D2BC00674052DFBE489
:203BF9003FFCEB240CF582EC3400F583E0FC8C6B756C0090000AC007C006C0051263A4ABE3
:203C190082AC83D005D006D00774062DFAE43FFEEA240CF582EE3400F583E07A002BFBEA01
:203C39003CFCC3EB9428EC64809482D0064003023D2BED24FCF582EF34FFF583756B0575E8
:203C59006C00C007C006C005126489AB82D005D006D00774082BFC3395E0FAEC24AEF55D8A
:203C7900EA3400F55EEE24D075F00AA4F55F74012DFCE43FFEEC240CF582EE3400F583E0A5
:203C9900255F24D075F006A4FE74022DFAE43FFCEA240CF582EC3400F583E02E24D0855DBD
:203CB90082855E83F074092BFB3395E0FEEB24AEFBEE3400FE74052DFAE43FFCEA240CF524
:203CD90082EC3400F583E024D075F00AA4F55F74062DFAE43FFCEA240CF582EC3400F5838D
:203CF900E0255F24D075F006A4FC74072DFDE43FFFED240CF582EF3400F583E02C24D08BC7
:203D1900828E83F09000B5E0FF0F0F9000B5EFF0800690011C744BF090011CE0240AF0E034
:203D3900FFBF4B005003023A169000B5E0601790000012024812029BD242906C8475F0800C
:203D5900121DA3024268D241906C9975F0801219BA02426830080302426890F010E4937050
:203D79000ED241906CB475F0801219BA024268900011E0FFBF54028003BF7410C2C2D241F1
:203D9900906CC975F0801219BA024268BF4E028003BF6E2F90F010E493FEBE011812026091
:203DB9009000BE7402F012029B786E7600786F76187870763CD241906CD375F0801219BA70
:203DD900024268BF46028003BF662590F010E493FEBE020EC2C21202609000BE7401F012BA
:203DF900029BD241906CDC75F0801219BA024268900010E0FE24D04003023E93BE330050E3
:203E190079EF24D05074BF3A00506F900012E0FD24D05066BD36005061900013E0FC24D071
:203E39005058BC3A005053209242D2C2EE24D075F00AA42F24D0F582ED24D075F00AA42CF1
:203E590024D0F56A1262F49005DC1203E730920ED241906CE575F0801219BA024268D241D4
:203E7900906CFA75F0801219BA024268D241906D1C75F0801219BA024268D241906D427554
:203E9900F0801219BA024268300803024268900010E0FFBF42028012BF6202800D900011BC
:203EB900E0FEBE4E028003BE6E1D1202609000B07401F012029B121E4AD241906D5975F021
:203ED900801219BA024268BF54028012BF7402800DBE42028008BE62028003024268120260
:203EF900609000B0E4F012029BC21DD241906D6275F0801219BA0242683008030242379079
:203F1900000FE0FFBF4702800DBF67028008BF43028003BF6310D207D241906D6B75F08063
:203F39001219BA024237BF2B02800302407C900010E0FEBE3802800302407C900011E0FEA5
:203F5900BE3402800302407C900012E0FEBE3000500302406EEE24C6500302406E90001324
:203F7900E0FEBE3000500302406EEE24C6500302406E900014E0FEBE3000500302406EEE1D
:203F990024C6500302406E900015E0FEBE3000500302406EEE24C6500302406E900016E046
:203FB900FEBE3000500302406EEE24C6500302406E900017E0FEBE3000500302406EEE2496
:203FD900C6500302406E900018E0FEBE3000500302406EEE24C6500302406E900019E0FE26
:203FF900BE30004070EE24C6406B90001AE0FEBE30004061EE24C6405C1202609000BFE455
:20401900F07E018E0574112DFD3395E0FCED24AEFDEC3400FC8E027B0074062AFAE43BFB97
:20403900EA240CF582EB3400F583E08D828C83F00EBE0A0040CD9000CAE0FEBE02069000E0
:20405900CA7401F012029BD241906D8875F0801219BA024237D241906DA675F0801219BA0C
:20407900024237BF30028003024197900010E0FEBE30005003024189EE24C65003024189DC
:20409900900011E0FEBE30005003024189EE24C65003024189900012E0FEBE3000500302C1
:2040B9004189EE24C65003024189900013E0FEBE30005003024189EE24C650030241899011
:2040D9000014E0FEBE30005003024189EE24C65003024189900015E0FEBE300050030241CA
:2040F90089EE24C65003024189900016E0FEBE30005003024189EE24C64075900017E0FE84
:20411900BE3000406BEE24C64066900018E0FEBE3000405CEE24C640571202607E008E056B
:2041390074112DFD3395E0FCED24AEFDEC3400FC8E027B0074032AFAE43BFBEA240CF582EA
:20415900EB3400F583E08D828C83F00EBE0A0040CD9000CAE0FEBE02069000CA7401F0120F
:20417900029BD241906D8875F0801219BA024237D241906DA675F0801219BA024237BF787A
:20419900028003BF581A1202609000CA7402F012029BD241906DCB75F0801219BA0242374D
:2041B90090F01CE493FFBF0224900010E0FFBF6E02800DBF4E028008BF66028003BF465E10
:2041D900D241906DDA75F0801219BA8051900010E0FFBF4E028003BF6E191202609000CA1C
:2041F9007401F012029BD241906E0C75F0801219BA802BBF46028003BF6618120260900035
:20421900CAE4F012029BD241906E1B75F0801219BA800BD241906E2A75F0801219BA90F032
:204239001CE493FF13920A802630090DD241906E4775F0801219BA8016D241906E5A75F0B0
:20425900801219BAC241906E4775F0801219BA43C1107F00EF240CFDE43400FE8D828E83E9
:20427900E0600FEF240CF582E43400F5830FE4F080E2227F007E008F937594FF8F928F91E1
:204299008F957596FF8FB28FB175B30275B41C8FCA8FC98FC075B0FF8FA075B881759D08CC
:2042B9008F978FBD75BC83D2ADD2AF9000D374FAF07536007549057548059000AD740AF023
:2042D9009000DF7402F09000DEF09000DDF09000E07405F09000E17401F0C007C006120ED9
:2042F900CD120260D006D0079000AEE0FDBDFF069000AE7404F09000AFE024FE500590000E
:20431900AFE4F09000B0E024FE50069000B07401F09000B1E024F650069000B17401F090FD
:2043390000B2E024E850059000B2E4F09000B4E0FDC4540FFC7B001CBCFF011BC374089CCE
:2043590074808BF063F08095F0500A740F5D4450FD9000B4F09000B4E0FD53050F7C001D5D
:20437900BDFF011CC374089D74808CF063F08095F0500F9000B4E0FD74F05D4401FD900094
:20439900B4F090011D7401F09000B5E0FDBD0900502EED20E02A7C01C3ED9C401E8C0374A6
:2043B900072BFB3395E0FAEB24AEF582EA3400F583E0FBBB900050030C80DD90011DECF0DF
:2043D90090011DE0FCC3ED9C40129000B57402F09000B67424F09000B7746CF090011DE47A
:2043F900F09000CAE0FDBD020050479000C9E07041FDBD0A0050368D0474112CFB3395E00E
:20441900FAEB24AEF582EA3400F583E0FBBB3000401B74112CFC3395E0FBEC24AEF582EB2E
:204439003400F583E0FC24C640030D80C590011DEDF090011DE0FDBD0A00500B9000C9E4E7
:20445900F09000CA7402F09000CBE0FD24E750059000CBE4F03092079000BEE4F0801290BF
:2044790000BEE0FD6005ED24FD50069000BE7402F09000CCE0FD53050F7C001DBDFF011CF9
:20449900C3740A9D74808CF063F08095F050069000CC743BF0C007C00612029BD006D00723
:2044B90090F000E493FD74035D90011704F090F000E493A2E2923290F000E493A2E39233FF
:2044D900921290F000E493A2E4923490F000E493FDA2E5923520321920331690F000E493CF
:2044F900FD5305C0E43395E0FDFC9000D9EDF080059000D9E4F090F01EE493FD530560E453
:2045190003CDC40354076DCD5407CD6DCD30E20244F8FC90011AEDF07D00ED2401FBE4347E
:2045390000FC90011AE0FABA02005008ED9064D693FA8006ED9064E193FA8B828C83EAF0BE
:204559000DBD0B0040D4900119E4F090F01E93FD53050F7C00C3ED9406EC6480948050113B
:2045790090F01EE493FD740F5D04FC3395E0FD802790F01EE493FB53030F7A00740CC39B17
:20459900F56BE49AF56C90003CC007C006126489AC82AD83D006D007900118ECF090F01E3D
:2045B900E49330E405BC3C005006900119743DF090F000E49330E6067CFF7D0080113032BB
:2045D900067A1E7B0080047A0A7B008A048B059000D8ECF0900117E0FDBD01030246A8BDD1
:2045F90002028075BD0302803ABD040280030246DE9000D7ECF090F206E493FD24C4400A50
:2046190090F207E493FD24F4500BC007C006120E51D006D00790F206E493F54690F207E4BF
:2046390093F5429000D8E0FD9000D6F090F204E493FD24C4400A90F205E493FD24F4500B62
:20465900C007C006120E51D006D00790F204E493F54590F205E493F5419000D8E0FD900056
:20467900D5F090F202E493FD24C4400A90F203E493FD24F4500BC007C006120E51D006D022
:204699000790F202E493F54490F203E493F5409000D8E0FD9000D4F090F200E493FD24C41E
:2046B900400A90F201E493FD24F4500BC007C006120E51D006D00790F200E493F54390F2CF
:2046D90001E493F53FD2A2C007C0061202CCD006D00790F010E4936017C007C0061262DE2A
:2046F900D006D007786E7600786F76187870763CD20390F003E4939000D2F0C007C00612C9
:204719000EB7120587D006D007202203024EBC202603024EBC202A03024EBC7562007C001E
:2047390090F01EE493F56190F000E493FAC22AC226C222906E8075F080C004C00212051D2F
:20475900906E9175F08012051D900117E02430F58212043FD002D004303208756397756498
:204779006E800675639D75646EC002AA63AB647D808A828B838DF0C004C00212051DD00272
:20479900D004D0023033067BA37D6E80047BAA7D6EC0028D027D808B828A838DF0C004C0EB
:2047B9000212051D906EB175F08012051D9000D9E02430F58212043F752B047582C0120408
:2047D90014D002D004900117E0FD149000E1F09000E0E4F0D002EC7003024AE9203D030200
:2047F90049A4C002C23D906EB675F080C004C00212051DD002D004856163756400740F55FF
:2048190063FA7D00C3EA9406ED64809480D002500DAB61740F5B04FB3395E0FD802BC0024F
:20483900740F5563F565756600740CC39565F56BE49566F56C90003CC004C002126489AB16
:2048590082AD83D002D004D0029000E0E0700B302D0875655F756600802BC0028B027D005A
:20487900756B0A8D6C8A828D83C004C003126489AA82AD83D003D00474302AFA8A65339518
:20489900E0F566D002856582C004C003C00212043FD002D003D0049000E0E0700B302D083F
:2048B90075655F75660080257D00756B0A8D6C8B828D83C004C002126453AB82AD83D0022B
:2048D900D00474302BFB8B653395E0F566856582C004C00212043F906EBA75F08012051D16
:2048F900D002D0049000E0E0FDBD0109302D067B5F7D008032C00274605563F565E4F56692
:20491900C403C565C40354076565C5655407C5656565C56530E20244F8F566AA6574302A76
:20493900FB3395E0FDD0028B82C004C00212043F906EBF75F08012051DD002D0049000E018
:20495900E0FDBD0209302D067B5F7D008030C00274105563F565E4F566C4C565C4540F651E
:2049790065C565540FC5656565C56530E30244F0F566AA6574302AFB3395E0FDD0028B820E
:20499900C004C00212043FD002D004102202807A9000E0E02401F0E0FDBD0102800ABD0204
:2049B900028025BD0364803EAB61530360E403CBC40354076BCB5407CB6BCB30E20244F8DD
:2049D900FD9000E1EBF08042AB61530310E4CBC4540F6BCB540FCB6BCB30E30244F0FD90FB
:2049F90000E1EBF08024C004C0021202609000AEE054EFF09000CCE561F012029B90020020
:204A1900120248D002D00475C76010260280429000E0E0FDE06006ED149000E0F09000E081
:204A3900E0FD6005BD012A800A9000E1740F5561F0801EAB61530360E403CBC40354076B70
:204A5900CB5407CB6BCB30E20244F8FD9000E1EBF0102A030247EF9000E1E02401F0900012
:204A7900E0E0FD600DBD01028025BD020280410247EF9000E1E024F450059000E1E4F0745D
:204A9900F05561FD9000E1E0FB4DF5610247EF9000E1E024FD50059000E1E4F0741F5561DE
:204AB900FD9000E1E0C42354E0FB4DF5610247EF9000E1E024FE50059000E1E4F074EF55D9
:204AD90061FD9000E1E0C454F0FB4DF5610247EF9000E0E0FD24FA5003024CB3ED2D2D909A
:204AF9004AFC73024B0E024B28024B81024BCF024C16024C33900117E0149000E1F0758251
:204B1900C4C004C00212049DD002D004024CB39000E1A232E433F0C004C0021204F8D00226
:204B3900D004103D03024CB3302D067BC57D6E801B30320B75679775686E75698080097587
:204B5900679D75686E756980AB67AD68C0028D027D808B828A838DF0C004C00212051DD0F9
:204B790002D004D002024CB39000E1A233E433F0103D03024CB3302D067BCB7D6E801B3076
:204B9900330B7567A375686E75698080097567AA75686E756980AB67AD68C0028D027D8069
:204BB9008B828A838DF0C004C00212051DD002D004D002024CB39000D9E09000E1F0103D1B
:204BD90003024CB3906EB175F080C004C00212051DD002D004302D067B5F7D00800FC002B9
:204BF9009000D9E02430FB3395E0FDD0028B82C004C00212043FD002D004024CB3906ED12F
:204C190075F080C004C00212051D906EE375F08012051DD002D004024CB374105AFD9001CF
:204C390017E0FB1BEB2DFD3032087567047568008005E4F567F568E5672DFD900117E0FBF7
:204C5900BB010280163033087567087568008005E4F567F5688D03E5672BFD2032112033DF
:204C79000E9000D9E0030354C0F5678D032BFD900000C005C004C0021202489002001202B9
:204C990048D002D004D0058D2A900000C004C00212022DD002D00475C760102A03024D5309
:204CB9007562009000E0E0FD24FC5003024D53ED2D904CCE738006803E804E805C9000E10C
:204CD900E0FDBD030050090DEDFB3395E0FD80047B007D009000E1EBF00B900117EBF07461
:204CF900302BF582C004C00212043F7582C412049DD002D00480439000E1E0FD7401C39DF4
:204D1900FD24FF9232EDF080319000E1E0FD7401C39DFD24FF9233EDF09000E1E0FDBD0315
:204D39000050090DEDFB3395E0FD80047B007D009000E1EBF09000D9EBF0102203024DE2F5
:204D59007562009000E0E02401F0906E9175F080C004C00212051D900117E02430F582126B
:204D7900043FD002D0043032067B977D6E80047B9D7D6EC0028D027D808B828A838DF0C0A0
:204D990004C00212051DD002D004D0023033067BA37D6E80047BAA7D6EC0028D027D808BA9
:204DB900828A838DF0C004C00212051D906EB175F08012051D9000D9E02430F58212043FE3
:204DD9001204F8D002D004D0021026030247EF9000E0E0FDE06006ED149000E0F0906E8051
:204DF90075F080C004C00212051D906E9175F08012051D900117E02430F58212043FD002D9
:204E1900D0043032067B977D6E80047B9D7D6EC0028D027D808B828A838DF0C004C002123C
:204E3900051DD002D004D0023033067BA37D6E80047BAA7D6EC0028D027D808B828A838DC4
:204E5900F0C004C00212051D906EB175F08012051D9000D9E02430F58212043FD002D004B8
:204E7900D0029000E0E060030247EFAD620562ED24F7501B7C01C004C0021204F8D002D0C0
:204E99000490F01EE4939000E1540FF00247EF752B047582C0C004C002120414D002D00433
:204EB9000247EF75BC8B75183B751900751A40751B3A751C00751D4090003C75F040C0075B
:204ED900C006120137D006D007E53C24E8400CE53B24C44006E53A24C45014751E00751FA3
:204EF90000758200C007C0061201C7D006D007C007C0061200F0D2A8D28875183B751900D5
:204F1900751A40751B3A751C00751D4090003C75F040120137121E4A90F01CE49313920A85
:204F390012209DD006D007504590F005E4937015D241906EF575F080C007C0061219BAD099
:204F590006D0078029D241906F1275F080C007C0061219BAD006D007300A13C241906F1229
:204F790075F080C007C0061219BAD006D007E53C24F45007E53C24F4FD8002AD3C8D3D9089
:204F9900F005E493701C9000E27405F0C007C0061202609000B374FFF012029BD006D00722
:204FB90080069000E2743CF075C165900117E0FDBD042090F206E493B5460B90F207E4933A
:204FD900FDB54202800DC007C006120E51D006D0078070900117E0FD24FD502090F204E41A
:204FF90093B5450B90F205E493FDB54102800DC007C006120E51D006D0078047900117E086
:20501900FD24FE502090F202E493B5440B90F203E493FDB54002800DC007C006120E51D09E
:2050390006D007801E90F200E493B5430B90F201E493FDB53F02800BC007C006120E51D09A
:2050590006D0079000E2E060069000E0E0702B9000E0E4F07405B5480EC007C00612095CEB
:20507900858248D006D0077405B5490EC007C006120BD4858249D006D007203C2E30022B34
:20509900D241906F2675F080C007C0061219BAD006D007300A13C241906F2675F080C0079A
:2050B900C0061219BAD006D007D23C303C2E20022BD241906F3475F080C007C0061219BAED
:2050D900D006D007300A13C241906F3475F080C007C0061219BAD006D007C23C9000D3E042
:2050F9007018203615D236D241906F4775F080C007C0061219BAD006D0079000D4E0702E5D
:2051190020372BD237D241906F5675F080C007C0061219BAD006D007300A13C241906F56DA
:2051390075F080C007C0061219BAD006D007900117E0FD24FE50349000D5E0702E20382BC1
:20515900D238D241906F6575F080C007C0061219BAD006D007300A13C241906F6575F08018
:20517900C007C0061219BAD006D007900117E0FD24FD50349000D6E0702E20392BD239D288
:2051990041906F7475F080C007C0061219BAD006D007300A13C241906F7475F080C007C00F
:2051B900061219BAD006D007900117E0FDBD04349000D7E0702E203A2BD23AD241906F83B9
:2051D90075F080C007C0061219BAD006D007300A13C241906F8375F080C007C0061219BA89
:2051F900D006D007201E030252CC20A0169000ADE014F0E0700D75BC83D2A09000AD741E3F
:20521900F0D2059000CFE0FDE0602D9000CDE07027ED149000CFF0E0701E9000CD7405F0AD
:205239009000CFF0C007C00612095C858248120BD4858249D006D0077405B548028022E5C6
:205259004824D4FCE43400FD8C828D83E0FB60111B8C828D83EBF0EB7007C219C217754893
:20527900057405B549028022E54924D4FCE43400FD8C828D83E0FB60111B8C828D83EBF040
:20529900EB7007C21AC2187549059000E2E0601090F010E49360032092069000E2E014F0E0
:2052B9009000DDE0FDE06009302406ED149000DDF0C21EC007C0061207B9D006D00790000E
:2052D900E0E0701B90F000E493601490F010E493FDBD020BC007C006120900D006D007904C
:2052F900F003E49360159000D2E0700F90F004E493FDB53C06E53B24FA4006E53624FE50F5
:20531900707405B5486B7405B5496690F010E493600320925C900118E0FDBD3C0050199056
:20533900F004E493FD751E06751F008D82C007C0061201C7D006D007E53624FE5013D241E9
:20535900906F9275F080C007C0061219BAD006D007C2AFC2A0752A00900005C007C00612F9
:20537900022DD2A3900FA01203E7D006D00775C76020034874FB253B4042201D2390F0024E
:20539900E493601CC007C006121E4AD006D007E53C24F45007E53C24F4FD8002AD3C8D3D52
:2053B90090F001E4936013D241906FB775F080C007C0061219BAD006D007D203100C028029
:2053D90029754D49754E65754F80754B0F754C0190695175F080C007C006121411906FC8C9
:2053F90075F0801202F9D006D007100702801190000175F000C007C0061215A7D006D0074D
:205419009000E0E0FD24FA5003026270ED2D2D90542C7302543E0259A7025E380261F20292
:2054390060480256D030054175BC8BC2059000E6E4F0C007C006121E4AAB3C7C00756B0CEA
:205459008C6C8B828C83126453AB828B3D12209DD006D0075013D241906FD775F080C007ED
:20547900C0061219BAD006D007300E28C007C0061230F5754DBD754E6A754F80754B0F755D
:205499004C01906AA975F080121411D006D007C20E02565D900117E0FCBC01028014BC0220
:2054B900028041BC03030255ADBC04030255490256093032067BED7C6F80047BF57C6F8B61
:2054D9002F8C30753180853F32854333853A34A2209201758280C007C006120608D006D09F
:2054F90007025609752FFD75306F753180853F328543337534FDA2209201758280C007C066
:2055190006120608752FFD75306F7531808540328544337534FDA2209201758287120608E5
:20553900906FFD75F08012051DD006D007025609301D067B007C70801F90F002E493600B72
:205559007567047568707569808009756708756870756980AB67AC688B2F8C307531808548
:205579003C32853B33853A34A22092017582C5C007C006120608752F0C7530707531808590
:2055990042328546337534FBC2017582C0120608D006D007752F0C753070753180853F32B4
:2055B9008543337534FBC201758280C007C006120608752F0C7530707531808540328544A1
:2055D900337534FBC201758285120608752F0C7530707531808541328545337534FBC20135
:2055F90075828A12060875822012043FD006D007900117E0FCBC0402804A301D067B767C08
:2056190068801F90F002E493600B756786756868756980800975677E756868756980AB6769
:20563900AC688B2F8C30753180853C32853B33853A34A22092017582C0C007C0061206080F
:20565900D006D0079000DDE06003026279301703026279C2229000E2743CF09000CEE4F0A8
:205679009000CDF09000CFF09000E07405F09000E17401F0754905754805C2C2786E760061
:205699001026028003026279D24190700E75F080C007C0061219BAD006D007200A030262A3
:2056B90079C24190702275F080C007C0061219BAD006D007026279102202802F9000E27489
:2056D9003CF09000E1E02401F0E0FCBC040D90F010E49370069000E1EC04F09000E1E0FC5B
:2056F90024FB50059000E1E4F0C22D102A02800D9000E2743CF09000E1E4F0C22D102603A1
:2057190002593A9000E2743CF09000E1E09000E0F09000E1E4F0C007C00612095C85824880
:20573900120BD4858249D006D0079000E0E07003026279758280C007C00612049D9000E09B
:20575900E075F011A424F4FB746435F0FC7A808B828C838AF012051DD006D0079000E0E069
:20577900FCBC01028015BC02030258B1BC03030258F8BC0403025915026279900117E0FC4C
:20579900BC012F3032067AED7B6F80047AF57B6F8A2F8B30753180853F328543337534003A
:2057B900D2017582C0C007C006120608D006D007806EBC030050067BC07C0080047B807C37
:2057D900008B82752FFD75306F753180853F328543337534FDD201C007C006120608D006DB
:2057F900D007900117E0FCBC030050067BC77C0080047B877C008B82752FFD75306F7531F8
:20581900808540328544337534FDD201C007C006120608906FFD75F08012051DD006D00714
:20583900900117E0FC24FD4003026279752FFD75306F7531808541328545337534FDD20141
:205859007582C0C007C006120608D006D007900117E0FCBC042E752FFD75306F753180854C
:2058790042328546337534FDD2017582C7C007C006120608906FFD75F08012051DD006D0FE
:205899000702627990703875F080C007C00612051DD006D007026279301D067B767C6880FB
:2058B9001F90F002E493600B756786756868756980800975677E756868756980AB67AC689B
:2058D9008B2F8C30753180853C32853B33853A34D2017582C0120608AF3CAE3B026279904F
:2058F900704275F080C007C00612051D752B047582C0120414D006D007026279752F5375BC
:205919003070753180753200753300753400A22092017582C0120608D2C27E007F0002628F
:2059390079301D067B767C68801F90F002E493600B756786756868756980800975677E754D
:205959006868756980AB67AC688B2F8C307531809000E2E0F534853C32853B33A220920188
:205979007582C0C007C0061206089000E1E075F011A424F4FB746435F0FC8B2C8C2D752E20
:2059990080758280120424D006D0070262799000E1E0FCBC0800500F900117E0FC24FD50CE
:2059B900067B807C0080047BC07C00900117E0FCBC0132C0039000E1E0FC2407FA8C037C63
:2059D90000756B028C6C8B828C83C007C006C002126489AB82AC83D002D006D007EB2AF585
:2059F90067D003804FC0039000E1E0FC7A0074075CF5638A64AB6374022BF565756B028A69
:205A19006C856382856483C007C006126489E5822565FB756B04756C00856382856483C058
:205A390003126489AA82AC83D003D006D007EA2BF567D00385672B8B82C007C00612041451
:205A5900D006D0079000DDE0706CC007C0061204F89000E0E09000E1F09000E07405F0AB87
:205A79003F7C00756B0C8C6C8B828C83126453AB828B3FAB407C00756B0C8C6C8B828C832B
:205A9900126453AB828B40AB417C00756B0C8C6C8B828C83126453AB828B41AB427C007524
:205AB9006B0C8C6C8B828C83126453AB828B42120E51D006D007102A03025D579000E27488
:205AD9003CF09000E1E0FC24F05003025C3FEC240A83F582EC241483F583E4731563CDFF62
:205AF9001563CDFF1563CDFF1563CDFF5B5B5B5B5B5B5B5B5B5B5B5B5B5B5B5B8C027B0008
:205B1900756B048B6C8A828B83C007C006126489AA82D006D007EA243FF9E7FB24F2502361
:205B3900C0068B027E00756B0A8E6C8A828E83C007C001126453AA82D001D007A702D006D6
:205B5900025C3F740A2BF7025C3F8C027B00756B048B6C8A828B83C007C006126489AA829C
:205B7900AB83D006D007EA243FF9E7F56724E950057714025C3FC001AA677B00756B0A8B5C
:205B99006C8A828B83C007C006C001126453AA82AB83D001D006D007BA0905BB000280046E
:205BB900D001800AD001E567FB24F7F78078E56704F780728C027B00756B048B6C8A828B9B
:205BD90083C007C006126489AA82D006D007EA2443F9E7FB24CE50088B02EA24CEF7804628
:205BF900740A2BF780407B00756B048B6C8C828B83C007C006126489E5822443F987040CD0
:205C1900A7047B00756B0A8B6C8C828B83C001126453E5828583F0D001D006D00745F0703C
:205C390005E7FC24F6F7900117E0FCBC01313032067AED7B6F80047AF57B6F8A2F8B307561
:205C59003180853F32854333753400A22092017582C0C007C006120608D006D007806EBCD0
:205C7900030050067BC07C0080047B807C008B82752FFD75306F753180853F3285433375B2
:205C990034FDD201C007C006120608D006D007900117E0FCBC030050067BC77C0080047B37
:205CB900877C008B82752FFD75306F7531808540328544337534FDD201C007C006120608C7
:205CD900906FFD75F08012051DD006D007900117E0FC24FD5068752FFD75306F753180852C
:205CF90041328545337534FDD2017582C0C007C006120608D006D007900117E0FCBC042D20
:205D1900752FFD75306F7531808542328546337534FDD2017582C7C007C006120608906FB5
:205D3900FD75F08012051DD006D007801190703875F080C007C00612051DD006D007102635
:205D59000280249000E2743CF09000E1E0FCE06008EC149000E1F0800E900117E025E0253C
:205D7900E0FC149000E1F0202203026279C006C2229000E2743CF09000E1E02401F09001E4
:205D990017E07B0025E0FCEB33FBEC2CFCEB33FB1CBCFF011B9000E1E0FA7E00C3EC9AEB41
:205DB90064808EF063F08095F0D0064003026279C007C0061204F89000E0E09000E1F0903E
:205DD90000E07405F0AB3F7C00756B0C8C6C8B828C83126453AB828B3FAB407C00756B0CE8
:205DF9008C6C8B828C83126453AB828B40AB417C00756B0C8C6C8B828C83126453AB828BCC
:205E190041AB427C00756B0C8C6C8B828C83126453AB828B42120E51D006D0070262799071
:205E390000E1E0FC2407FB7A00756B028A6C8C828A83C007C006C003126489AA82D003EAC1
:205E59002BF52B7582C0120414D006D00790F002E493603F9000DDE070399000E0E09000E2
:205E7900E1F09000E07405F0786F76187870763C90F002E493600BC007C006121E4AD0060F
:205E9900D007E53C24F45007E53C24F4FC8002AC3C8C3D102A03025FB79000E2743CF09023
:205EB90000E1E0FC24FC5003025F6EEC2C905ECA738006802D80618074EF24F2501C8F037C
:205ED9007C00756B0A8C6C8B828C83C006126453AB82AC83D0068B07807B8F04740A2CFFA5
:205EF9008073EF24E950047F14806A8F037C00756B0A8C6C8B828C83C007C006126453ABBC
:205F190082AC83D006D007BB090BBC00088F04EC24F7FF80400F803DEE24CE50088E04EC9C
:205F390024CEFE80308E04740A2CFE80280E8E037C00756B0A8C6C8B828C83C007C006120E
:205F59006453E5828583F0D006D00745F070068E04EC24F6FE301D067B767C68801F90F0DD
:205F790002E493600B756786756868756980800975677E756868756980AB67AC688B2F8C2D
:205F9900307531809000E2E0F5348F328E33D2017582C0C007C006120608D006D00710267B
:205FB90002801C9000E2743CF09000E1E0FCE06008EC149000E1F080069000E17403F010B4
:205FD90022030262799000E2743CF09000E1E02401F0E0FC24FC4003026279C007C0061273
:205FF90004F8D006D0079000E0E09000E1F09000E07405F08F3C8E3B853B1E853A1F853C44
:2060190082C007C0061201C7AB3C7C00756B0C8C6C8B828C83126453AB82AC83D006D00749
:206039008B3DC21D786F76187870763C0262799000E1E0FC2407FB7A00756B028A6C8C82E1
:206059008A83C007C006C003126489AA82D003EA2BF52B7582C0120414D006D0079000DD9C
:20607900E070109000E0E09000E1F09000E07405F0C2C2102A030261709000E2743CF090E7
:2060990000E1E0FC24FC500302614EEC2C9060AA738006802D80618074EF24F2501C8F03D6
:2060B9007C00756B0A8C6C8B828C83C006126453AB82AC83D0068B07807B8F04740A2CFFC3
:2060D9008073EF24E950047F14806A8F037C00756B0A8C6C8B828C83C007C006126453ABDA
:2060F90082AC83D006D007BB090BBC00088F04EC24F7FF80400F803DEE24CE50088E04ECBB
:2061190024CEFE80308E04740A2CFE80280E8E037C00756B0A8C6C8B828C83C007C006122C
:206139006453E5828583F0D006D00745F070068E04EC24F6FE752F537530707531808F324F
:206159008E33753400A22092017582C0C007C006120608D006D00710260280149000E274A4
:206179003CF09000E1E0FCE06006EC149000E1F01022030262799000E2743CF09000E1E071
:206199002401F0E0FC24FC40030262799000E1E4F08E6A8F82C007C0061262F4900064126C
:2061B90003E7D006D0073092067B5B7C7080047B637C708B2F8C307531808F328E33753490
:2061D90000A22092017582C0C007C0061206081204F8D006D007026279102202802B9000E6
:2061F900CD7405F09000E1E09000CE04F09000CF7405F09000E1EDF09000E07405F0C007F7
:20621900C0061204F8D006D007102A0280529000E1E02401F0900117E0FD7C001DBDFF0195
:206239001C9000E1E0FB7A00C3ED9BEC64808AF063F08095F050059000E1E4F09000E1E08B
:206259002431F582C007C00612043F7582C412049DD006D00780099000E1E4F09000E0F02E
:2062790043C110024FC4C0E043C110E59A30E003539AFED0E032C0E0C007C000C0D075D0CD
:206299000075BC83AFBD786DA6077405B5482A7405B54925300212BF52005004C2A2801951
:2062B900EF24915014C2028010BF5C00500BD20275490575480553A00F75BC8BD0D0D0006C
:0562D900D007D0E03207
:2064D6003039343938343730393800303938383838383930310080901030206040C0202061
:2064F60020202020455849542020202020200020204348494E482047494F204B494D200042
:20651600204348494E482047494F205448554320002020202043414E48204B494D2020206D
:2065360020002020202054455354204D5033202020200020415349412047505320342E31FA
:206556002E36420044482C4F4E20646F6E6720686F2063686179202D2044482C4F46462086
:20657600646F6E6720686F2064756E670A44482C2B6D6D206B696D2070687574206C65633B
:20659600682064756F6E67206D6D2070687574202D2044482C2D6D6D206C65636820616D8F
:2065B600206D6D20706875740A44482C6B6B6B6B2C74747474206368696E682067696F20D7
:2065D6006B696D2067696F20746875632067696F20747520646F6E67207468617920747423
:2065F60074742062616E67206175746F0A42432C4F4E2062616F2063616F2064617520672E
:20661600696F202D2042432C4F4646207461742062616F2063616F206461752067696F0AC2
:206636004243206775692062616F2063616F202D2042432C44454E2042432C4D503320629D
:20665600616F2063616F2064656E2062616F2063616F206D70330A52532072657365743AA9
:2066760052532C7379732072657365742068652074686F6E67202D2052532C73696D20724B
:206696006573657420677073206D6F64756C650A52532C472C6E6E2C6767206D6F69206E0C
:2066B6006E206E6761792076616F2067696F2067673A303620626F2064696575206B686920
:2066D600656E2072657365740A44454E2C584F4120786F6120746F616E20626F2074686F03
:2066F6006E6720736F2064656E207461742064656E0A44454E2C747474742C6D6D6D6D20B9
:20671600783A20736F206361702067696F207461742F6D6F20747474742C6D6D6D6D206731
:20673600696F207461742F6D6F2064656E0A4D50332C582C616C6C20786F612074617420EC
:206756006361202D204D70332C582C61612C62622C63632C2E2E2E20786F61206361632029
:2067760067696F2061612C62622C63630A4D50332C542C676770702C32322C31312C2E2E26
:206796002E206C6170206C616920746F69206461203132206C616E20676770703A67696F8C
:2067B60020706875742070686174206E6861630A32322C3131207468752074752062616999
:2067D60020686174206C616E206C756F742074726F6E6720746875206D756320322076619E
:2067F60020310A44542C307878787878787878782044542C2B383478787878787878787849
:20681600207468617920646F6920736F206469656E2074686F6169207068750A44542C58A6
:206836004F4120786F6120736F206469656E2074686F6169207068750A44542C4F4E204417
:20685600542C4F4646202D2062617420746174206469656E2074686F6169207068750A004E
:20687600202047505320200020415349412020002020204453202000412F0D00415444008D
:206896003B0D002020202043414C4C494E472020202020001A00544B3C31303030204B203F
:2068B60042414F43414F0041542B434D47533D2200220D0020202053454E44494E472020FD
:2068D600200041542B435553443D312C222A31303123222C0D0020204B49454D2054524130
:2068F60020544B202020000D3839433535000D535443313500204443002053540020543DBC
:2069160000204750533D002044483D002042433D002058473D002052533D002054523D004E
:206936003A3036002044454E3D0020564F4C3D00204D50333D002044543D0041540D000D4E
:20695600544B204368696E683D000D546169206B686F616E20636F6E2064756F692031302D
:206976003030300044414E47204755492042414F2043414F000D4D4F44454E3D000D4B68F0
:206996006F6E6720636F2067696F206D6F2064656E000D47696F204D6F2044656E3A003050
:2069B600202D20004755492042414F2043414F2044454E2000204755492048554F4E4720AD
:2069D60044414E20200041542B4950523D300D00202053454E44494E4720495052202020B6
:2069F6000041542B434C49503D310D00202053454E44494E4720434C495020200041542B8E
:206A1600434C54533D310D00202053454E44494E4720434C545320200041542B4346554EE5
:206A36003D300D00202053454E44494E47204346554E3020200041542B4346554E3D310D5B
:206A560000202053454E44494E47204346554E3120200041542B434D47463D310D00202083
:206A760053454E44494E4720434D474620200041542B434E4D493D312C312C302C302C31B4
:206A96000D00202053454E44494E4720434E4D4920200041542B434D4744413D2244454CB4
:206AB60020414C4C220D00202053454E44494E4720434D4744412020004154480D000D7429
:206AD60068617920646F69206D617920766120726573657420626F2064696575206B68694D
:206AF600656E000D6C656E68206B686F6E6720686F70206C65000D6C656E6820646F6E67EE
:206B160020686F206B686F6E6720686F70206C650D50686F6E652070687520677569206C74
:206B3600656E68000D6368696E6820646F6E6720686F207468616E6820636F6E67000D63C4
