:2000A700AF827E00751B0A8E1C8F828E83C007C00612849CAC82D006D007ECC454F0FC7525
:2000C7001B0A751C008F828E83C004128466AE82D004EE4CF58222E582FFC4540F75F00AAE
:2000E700A4FE740F5F2EF582221204037582D012044275820E12044275821812044212049C
:200107001E1204037582D012044275820E12044275821012044202041EAD82AE83AFF0C0E3
:2001270007C006C0051204037582D012044275820312044212041E1204037582D11204422F
:20014700D200120467AC82D005D006D0078D828E838FF0EC1283C5AD2BAE2CAF2DD200C094
:2001670007C006C0051204671200DEAC82D005D006D0078D828E838FF0EC1283C5AD2EAE5B
:200187002FAF30D200C007C006C0051204671200DEAC82D005D006D0078D828E838FF0EC7E
:2001A7001283C5AD31AE32AF33C200C007C006C0051204671200DEAC82D005D006D0078D80
:2001C700828E838FF0EC1283C502041EAD82AE83AFF0C007C006C0051204037582D0120455
:2001E7004275820012044212041E1204037582D1120442AA37AB38AC39D200C004C003C038
:20020700021204671200DEA982D002D003D0048A828B838CF0E91283C5AA34AB35AC36D279
:2002270000C004C003C0021204671200DEA982D002D003D0048A828B838CF0E91283C5C2C2
:20024700001204671200DEAC82D005D006D0078D828E838FF0EC1283C502041EAF82C00779
:200267001204037582D0120442758200120442853B821200A7120442853A821200A712048D
:2002870042D0078F821200A712044202041EAF82C0071204037582D01204427582031204B8
:2002A70042D0078F82120442853C821200A7120442853D821200A7120442853E821200A70E
:0602C70012044202041EB5
:2002CD0075C70075C50075C60075C38075C40043C11022AE82AF8375C78375C5018EC48FFC
:2002ED00C375C65A75C6A500AFC2C0071202CDD0078F8222AE82AF8375C78375C5028EC4E7
:20030D008FC38518C275C65A75C6A5000202CDAE82AF8375C78375C5038EC48FC375C65A42
:20032D0075C6A5000202CD43C1107F20EF60101FEF24BDF582E43400F58374FFF080EDBF68
:20034D0020005018EF24BDFDE43400FE8F827583F00FE493FC8D828E83F080E390000002A5
:20036D00031C7F00BF2000502975C78375C5028FC475C300EF24BDF582E43400F5830FE02E
:13038D00F5C275C65A75C6A500C0071202CDD00780D2223E
:2003A000759850438E40538EFE758BB2758DFFC2ABD28ED2ACD2A022E582FF700122C2990A
:2003C0008F9920990543C11080F8C29922AD82AE83AFF0C2998D828E838FF012844AFC60F9
:2003E000218C9920990543C11080F8C2998D828E838FF012844AFCBC1A01220DBD00D60EF0
:0304000080D32284
:20040300D2C043C11043C110D2CD43C11043C110C2C043C11043C110C2CD22C2C043C11067
:2004230043C110D2CD43C11043C110D2C02243C11043C110D2CD43C11043C110C2CD22AFDB
:20044300827E00EF23540124FF92C08F05ED2DFFC007C006120431D006D0070EBE0800407B
:20046300E20204317F00D2C07E0043C11043C110D2CD43C11043C1108F05ED2DFDA2C0E4F1
:1E048300334DFFC2CD0EBE080040DFA200B392C0C007120431D007A2C092CD8F8222DA
:2004A100AE82AF837C007D00C3EC9EED9F500A43C1100CBC00F20D80EF22AE82AF837C0063
:2004C1007D00C3EC9EED9F501D9003E8C007C006C005C0041204A1D004D005D006D0070CAE
:2004E100BC00DF0D80DC22AF82E53F4FF58212057175820D020571AF82302D118F821205EF
:20050100718540828541838542F00205F18F820205D2AF82D285EFC4540124FF9283EFA2E7
:20052100E5E43324FF9282EF2323540124FF9281EF235401FE24FF9280D28400C28400EFA2
:20054100540124FF9283EF03540124FF9282EF03035401FE24FF9281EFA2E3E433FF24FF64
:200561009280D28400C2849000641204A1C28522AF82C285EFC4540124FF9283EFA2E5E4A6
:200581003324FF9282EF2323540124FF9281EF235401FE24FF9280D28400C28400EF5401B6
:2005A10024FF9283EF03540124FF9282EF03035401FE24FF9281EFA2E3E433FF24FF928047
:2005C100D28400C2849000640204A175820C020571E582FF600E8F821205719084D875F0AA
:2005E100800205F17582011205719006400204A1AD82AE83AFF07C008D828E838FF01284D5
:200601004AFB6055BC10005050BB80005025EB24E050200CEC601C0DBD00010E8B82C00743
:20062100C006C005C004120513D004D005D006D00780C58D828E838FF012844AFBA3AD8259
:20064100AE838B82C007C006C005C004120571D004D005D006D007809F22C286903A98126A
:2006610004A175801C00C284900FA01204A1D28400C2849000A01204A1D28400C2849000D8
:20068100A01204A175801400C2849003E81204A1D28400C2840075801100C28490002812CF
:2006A10004A175801000C2840075801300C2849000281204A175801000C284007580160036
:2006C100C2849000281204A175801000C2840075801800C2849003E80204A1AF82E5482422
:2006E1000540030207918F821205718543828544838545F01205F174F6254640067D207EF0
:2007010000801DAB467C00751B0A8C1C8B828C8312849CAB82AC8374302BFBFD3395E0FE75
:200721008D82120513AD467E00751B0A8E1C8D828E83128466AD8274302DF582120513E528
:2007410048240350123001067D3A7E0080047D207E008D82120513AD477E00751B0A8E1CCD
:200761008D828E83C006C00512849CAB8274302BF582120513D005D006751B0A751C008D9B
:20078100828E83128466AD8274302DF5820205138F821205718543828544838545F0120538
:2007A100F174F6254640067E207F00801DAC467D00751B0A8D1C8C828D8312849CAC82AD95
:2007C1008374302CFCFE3395E0FF8E82120513AE467F00751B0A8F1C8E828F83128466AE66
:2007E1008274302EF582120513C3E5489464E433FF60163001067D3A7E0080047D207E0084
:200801008D82C007120513D007AD477E00751B0A8E1C8D828E83C007C006C00512849CABFB
:200821008274302BF582120513D005D006751B0A751C008D828E83128466AD8274302DF5DE
:2008410082120513D007EF60123001067E3A7F0080047E207F008E82120513AE487F007580
:200861001B648F1C8E828F83C007C006128466751B0A751C0012849CAC8274302CF58212BE
:200881000513D006D007751B0A751C008E828F83128466AE8274302EF5821205137582208F
:0308A1000205133A
:1184D800202020202020202020202020202020200093
:060000000200490210E3BA
:03000B000214A23A
:0100130032BA
:01001B0032B2
:03002300022A6549
:03002B0002823816
:01003300329A
:03003B000211337C
:030043000282280E
:0500A200C23F02004610
:030046000257213D
:2008A400E54B75F006A4FFAD4A7E00751B0A8E1C8D828E83C00712849CAD82D007ED2FF50D
:2008C400587E017D0190F007E493FCC3ED9C400302096EED90F00793FC8D030BEB3395E08C
:2008E400FAEB2407F582EA34F0F583E493F9C3EC99E433F97C0009B900010CED90F00793CD
:20090400F8C3E55898E4337F0029F9EF3CFCEB2407F582EA34F0F583E493FFC3E5589FE458
:20092400337B0029F582EB3CF583751B028B1CC006C005128466E5828583F0D005D00645B7
:20094400F060218E047F008C828F83A3751B028F1CC006128466AC82AF83D006EC4F24FFBB
:2009640092A180060D8D060208C990F007E493FFEEB50702800122EE90F00793FF90F0086C
:20098400E493FDC3EF9DE433FF7D000FBF00010DEE90F00793FCC3E5589CE4337B002FFFC1
:2009A400EB3DFD90F008E493FCC3E5589CE4337B002FF582EB3DF583751B028B1CC006128E
:2009C4008466E5828583F0D00645F060197F008E828F83A3751B028F1C128466AE82AF8367
:2009E400EE4F24FF92A122787EB600028010787EB60103020A82787EB60202806722788011
:200A0400E6B54B077881E6B54A0122AF4B7880A607AE4A7881A60690F010E493FDBD020CD9
:200A24008F198E1A75820A12829D802F8E047D00751B058D1C8C828D83C007C0061284668D
:200A4400E5828583F0D006D00745F0700E9000DDE0FD8F198E1A8D8212829D7882765A78B7
:200A64007E76022230920BD2C2787EA2C2E433F6800C788286077882EF14F6EF7009209272
:200A840006787E7600C2C2222002092036069000F4E06006C213758205229000E2E0FF6045
:200AA4001C9000E1E0600FEF5401FE60091FEFFE3395E0FF80047E057F008E822290012F80
:200AC400E0FFBF03004003020B5A9000E8E07003020B54E551FFB54A07E54CB54D0280703B
:200AE400854D1B751C0090003CC0071283E0E5828583F0D00724D0FD740235F0FE7C00EF41
:200B04002DFDEC3EFE854C1B8C1C90003CC006C0051283E0AC82AF83D005D006EDC39CFDCB
:200B2400EE9FFEAC4A7F00EDC39CF582EE9FF583751BD0751C02128466AE82AF83C37468F9
:200B44009E74818FF063F08095F0921375820022C21375820522E55624FE4003020BE99050
:200B640000E8E07003020BE9E551FFB54A07E54CB54D028070854D1B751C0090003CC007CF
:200B84001283E0E5828583F0D00724D0FD740235F0FE7C00EF2DFDEC3EFE854C1B8C1C903B
:200BA400003CC006C0051283E0AC82AF83D005D006EDC39CFDEE9FFEAC4A7F00EDC39CF560
:200BC40082EE9FF583751BD0751C02128466AE82AF83C374689E74818FF063F08095F0929E
:200BE40013758200229000EAE07003020C6FE553FFB54A07E54CB54F028070854F1B751C97
:200C04000090003CC0071283E0E5828583F0D00724D0FD740235F0FE7C00EF2DFDEC3EFE4B
:200C2400854C1B8C1C90003CC006C0051283E0AC82AF83D005D006EDC39CFDEE9FFEAC4A7B
:200C44007F00EDC39CF582EE9FF583751BD0751C02128466AE82AF83C374689E74818FF047
:200C640063F08095F092137582022274FE25565003020CFE9000E8E07003020CFEE551FF00
:200C8400B54A07E54CB54D028070854D1B751C0090003CC0071283E0E5828583F0D0072445
:200CA400D0FD740235F0FE7C00EF2DFDEC3EFE854C1B8C1C90003CC006C0051283E0AC827F
:200CC400AF83D005D006EDC39CFDEE9FFEAC4A7F00EDC39CF582EE9FF583751BD0751C022F
:200CE400128466AE82AF83C374689E74818FF063F08095F0921375820022C21375820522D8
:200D040090012FE0FFBF0102800C2002092036069000F4E06006C214758205229000E2E04B
:200D2400FE601C9000E1E0600FEE5401FD70091EEEFD3395E0FE80047D057E008D8222BF99
:200D440004004003020DD79000E9E07003020DD1E552FFB54A07E54CB54E028070854E1B66
:200D6400751C0090003CC0071283E0E5828583F0D00724D0FD740235F0FE7C00EF2DFDEC95
:200D84003EFE854C1B8C1C90003CC006C0051283E0AC82AF83D005D006EDC39CFDEE9FFED4
:200DA400AC4A7F00EDC39CF582EE9FF583751BD0751C02128466AE82AF83C374689E74816F
:200DC4008FF063F08095F0921475820122C21475820522E55724FE4003020E669000E9E014
:200DE4007003020E66E552FFB54A07E54CB54E028070854E1B751C0090003CC0071283E01D
:200E0400E5828583F0D00724D0FD740235F0FE7C00EF2DFDEC3EFE854C1B8C1C90003CC031
:200E240006C0051283E0AC82AF83D005D006EDC39CFDEE9FFEAC4A7F00EDC39CF582EE9FCA
:200E4400F583751BD0751C02128466AE82AF83C374689E74818FF063F08095F0921475821F
:200E640001229000EBE07003020EECE554FFB54A07E54CB55002807085501B751C0090000A
:200E84003CC0071283E0E5828583F0D00724D0FD740235F0FE7C00EF2DFDEC3EFE854C1B6D
:200EA4008C1C90003CC006C0051283E0AC82AF83D005D006EDC39CFDEE9FFEAC4A7F00ED79
:200EC400C39CF582EE9FF583751BD0751C02128466AE82AF83C374689E74818FF063F0805E
:200EE40095F092147582032274FE25575003020F7B9000E9E07003020F7BE552FFB54A0746
:200F0400E54CB54E028070854E1B751C0090003CC0071283E0E5828583F0D00724D0FD7485
:200F24000235F0FE7C00EF2DFDEC3EFE854C1B8C1C90003CC006C0051283E0AC82AF83D03B
:200F440005D006EDC39CFDEE9FFEAC4A7F00EDC39CF582EE9FF583751BD0751C02128466B2
:200F6400AE82AF83C374689E74818FF063F08095F0921475820122C21475820522900200BC
:200F840012031C90012FE0FFBF01028043BF0202802CBF03028015BF04488554189002069C
:200FA400120301855018900207120301855318900204120301854F1890020512030185526F
:200FC40018900202120301854E18900203120301855118900200120301854D1890020102A0
:200FE40003012275FA0075EA009000E474A8F07461A3F075DA49D2DE22538E7F75890090B9
:2010040000EDE0FF8F1B751C009007D0C0071283E0AD82AE83D007EE3395E0FCFB7430C3F7
:201024009D74F89EFEE49CE49B8E8CEF75F0D0A4D39430F4F58AC28DD28CD2A92243C110BE
:20104400B220A2209287D21E9000FBE0FFE06006EF149000FBF09000FDE0FFE06006EF140C
:201064009000FDF09000F4E0FFBF0201220549900130E0FF7E001FBFFF011EAC497D00C30B
:20108400EF9CEE64808DF063F08095F050507549009000B9E0600E9000BAE014F0E07005A2
:2010A4009000B9E4F0D21F054AE54A24C4502FC203754A00054BE54B24E85017788076183C
:2010C400754B009000E6E0FFE06006EF149000E6F0C204054CE54C24F45003754C0022C0F2
:2010E4002AC0E0C0F0C082C083C007C006C005C004C003C002C001C000C0D075D00843C1F0
:20110400109000E774FAF0C23875D00012104175D008D0D0D000D001D002D003D004D00568
:20112400D006D007D083D082D0F0D0E0D02A32C02AC0E0C0F0C082C083C007C006C005C0EC
:2011440004C003C002C001C000C0D075D00843C11010D8030214859000E4E0FEA3E0FF8EA8
:20116400EA8FFA9000E474A82EF074613FA3F090F01FE493600CA2B6B39215A2B7B39216BB
:201184008008A2B69215A2B7921690012FE0FFBF015390F01FE49360273034122015033096
:2011A4001604C2408002D240A24092158037201507201604C2408002D240A2409215802501
:2011C400303412301507301604C2408002D240A24092158010301503201604C2408002D278
:2011E40040A24092157405B556030212B230150D301705D2190212B2D2170212B2201B0399
:201204000212A6E55624E8FEE43400FF9000ECE08E828F83F09000E1E0FFE06008EF14901B
:2012240000E1F0806030122EE5562451F9870F0FA70FEF24C4501FE5562451F87600E556E6
:20124400244DF9870F0FA70FEF24F45038E556244DF87600802F20122CE5562451F9870FD0
:201264001FA70FEF24C3501DE5562451F8763BE556244DF9870F1FA70FEF24F35007E55651
:20128400244DF8760BC219C217C21B75D000120A8C75D00885825675D000120F8175D00804
:2012A400800C301904D21B800510170280007405B5570302137B30160D301805D21A02137D
:2012C4007BD21802137B201C0302136FE55724E8FEE43400FF9000ECE08E828F83F09000F7
:2012E400E1E0FFE06008EF149000E1F0806030122EE5572451F9870F0FA70FEF24C4501FE3
:20130400E5572451F87600E557244DF9870F0FA70FEF24F45038E557244DF87600802F2030
:20132400122CE5572451F9870F1FA70FEF24C3501DE5572451F8763BE557244DF9870F1F5E
:20134400A70FEF24F35007E557244DF8760BC21AC218C21C75D000120D0475D008858257A9
:2013640075D000120F8175D008800C301A04D21C8005101802800030210930B5069000F178
:201384007402F030210330B504C2408002D240A240922420230330B504C2408002D240A211
:2013A40040922120220A202403202104C2408002D240A2409222A2B5922330250930B306DF
:2013C4009000F27402F030250330B304C2408002D240A240922820270330B304C2408002FB
:2013E400D240A240922520260A202803202504C2408002D240A2409226A2B39227302909BA
:2014040030B4069000F37402F030290330B404C2408002D240A240922C202B0330B404C283
:20142400408002D240A2409229202A0A202C03202904C2408002D240A240922AA2B4922B00
:20144400900144E014F0E0700AD23F9001447414F0B22D9000E7E0FFE0600EEF149000E71A
:20146400F09001457428F08018900145E014F0E0700F9001457428F075D00012104175D016
:2014840008D0D0D000D001D002D003D004D005D006D007D083D082D0F0D0E0D02A32C0E023
:2014A400C082C083C0D075D01043C110303543E556B401009241E43324FF92A77401B5574B
:2014C40003D38001C39241E43324FF92A57402B55603D38001C39241E43324FF92A6740353
:2014E400B55703D38001C39241E43324FF92A4021585E556700B90F000E4935407600280F9
:2015040004C2418002D241A241E43324FF92C47401B55703D38001C39241E43324FF92C3BB
:201524002034109000E2E0700A201307201404C2418002D241A24192122034427405B556CC
:20154400097405B55704E5567034E5A0540FFFE5559084FF934FF5A03012067E017F0080A5
:20156400047EFF7FFFAF55EE2FF55524F75005755507800D7408B55508755500800353A061
:201584000FD0D0D083D082D0E032AF829000BBE4F0BFA100500FEF2417F582E43400F583D1
:2015A4000FE4F080EC2285825E85835F85F060AC5A9000FCECF08559F0ECA4FB9000FD744D
:2015C4000A2BF0C22E855E82855F838560F0C0041203CDD0047402255EF9E4355FFAAB6068
:2015E4007407255EF561E4355FF5628560637408255EF564E4355FF565856066A859302EA8
:201604000302177A9000FDE0700302177A30300302177A43C110758280C004C003C002C033
:2016240001C000120571855B82855C83855DF01205F1D000D001D002D003D004301D3275AF
:2016440043A5754488754580854B46854A47854948A22092017582C0C004C003C002C001CB
:20166400C0001206DCD000D001D002D003D004806990F002E49370327543AD7544887545B4
:2016840080854B46854A47854948A22092017582C0C004C003C002C001C0001206DCD000EA
:2016A400D001D002D003D00480307543B5754488754580854B46854A47854948A2209201AD
:2016C4007582C0C004C003C002C001C0001206DCD000D001D002D003D0041032028002C3EE
:2016E400229000FBE06006203103021602C231880718EF700302177A9000FBECF09000FC03
:20170400ECF089828A838BF012844AFFBF2B448561828562838563F012844AFFBF3F028040
:20172400328564828565838566F012844AFFBF3F0280209088BD75F080C004C003C002C07E
:2017440001C0001203CDD000D001D002D003D004021602855E82855F838560F0C004C00386
:20176400C002C001C0001203CDD000D001D002D003D0040216027582801205D29000FEE43A
:20178400F0A22E22AD82AE83AFF09088C175F080C007C006C0051203CDD005D006D0078D63
:2017A400828E838FF01203CD755BC8755C88755D80755901755A3C9088C575F0800215AA91
:2017C400900017E0602090001AE0701A755BDB755C88755D80755903755A019088D975F09D
:2017E400801215AAC3229088EC75F0801203CD30420B90000175F0001203CD800990F01175
:2018040075F0801203CD9000FE7408F0755BF9755C88755D80755905755A3D9088F675F03D
:20182400800215AA900017E4F0C20F9000FE7407F0755B1B755C89755D80755903755A1EC9
:2018440090890775F0801215AA9000FEE4F0900017E024FF22C20F9000FE740DF09000F927
:20186400E0FFBF50028025BF66028038BF6E02804BBF7460755B2C755C89755D80755903EA
:20188400755A1E90890775F0800215AA755B2C755C89755D80755903755A1E90893E75F06F
:2018A400800215AA755B2C755C89755D80755903755A1E90895275F0800215AA755B2C75FB
:2018C4005C89755D80755903755A1E90890775F0800215AAC3229000FE740EF0758200125B
:2018E400158E9000BBE4F0755B6C755C89755D8075590F755A0190896475F0801215AA500A
:20190400339000FAE4F07F00EF2417F582E43400F583E0FEBE2C0122EF2417F582E43400DE
:20192400F5830FE024D0FE9000FAE0FD75F00AA42EF080D422787D861B751C0090001C1257
:2019440083E0751B00751C0112849CAE823035067D387F0080047D537F008D82C006120340
:20196400B8D0063034067D447F0080047D537F008D82C0061203B8D0067F00EF24E8FCE486
:201984003400FD8C828D83E0700E758245C007C0061203B8D006D007EF244DF987057C00F2
:2019A400751B0A8C1C8D828C83C007C006C00112849CAC8274302CF5821203B8D0018705A4
:2019C4007C00751B0A8C1C8D828C83128466AC8274302CF5821203B8D006D007EF2451F9DF
:2019E40087057C00751B0A8C1C8D828C83C007C006C00112849CAC8274302CF5821203B8B9
:201A0400D00187057C00751B0A8C1C8D828C83128466AC8274302CF5821203B8D006D0079E
:201A24000F90012FE0FDEFB50502800302197F304323301D1390F002E49360067D477F0096
:201A4400800A7D447F0080047D647F008D82C0061203B8D006AD4B7F00751B0A8F1C8D8291
:201A64008F83C00612849CAD8274302DF5821203B8AD4B7F00751B0A8F1C8D828F831284A1
:201A840066AD8274302DF5821203B8AD4A7F00751B0A8F1C8D828F8312849CAD8274302D8A
:201AA400F5821203B8AD4A7F00751B0A8F1C8D828F83128466AD8274302DF5821203B89032
:201AC40000DDE02430F5821203B87582201203B8D0063036067D307F0080047D317F008D1D
:201AE40082C0061203B8D0069000E7E060067D317F0080047D307F008D82C0061203B8D0EB
:201B04000630A1067D317F0080047D307F008D82C0061203B8D00690F010E49354037003BE
:201B240030431C3092067D307F0080047D2F7F0090F010E4932DF582C0061203B8D00675E6
:201B44008220C0061203B8D0067F00751B0A8F1C8E828F83C007C00612849CAC8274302CD3
:201B6400F5821203B8D006D007751B0A751C008E828F83128466AE8274302EF5821203B8E1
:201B8400204301229000FAE0FF7E00751B0A8E1C8F828E8312849CAE8274302EF5821203AE
:201BA400B89000FAE0FF7E00751B0A8E1C8F828E83128466AE8274302EF5820203B8303585
:201BC400067E737F8980047E7A7F897D808E828F838DF01203CD7F003034067D817E898092
:201BE400047D857E897C808D828E838CF0C0071203CDD0078F0674312EF582C0071203B849
:201C040075823D1203B8D007EF24E8FDE43400FE8D828E83E0700A758245C0071203B8D0C0
:201C240007EF244DF987067D00751B0A8D1C8E828D83C007C00112849CAD8274302DF582A2
:201C44001203B8D00187067D00751B0A8D1C8E828D83128466AD8274302DF5821203B875C0
:201C6400823A1203B8D007EF2451F987067D00751B0A8D1C8E828D83C007C00112849CADCF
:201C84008274302DF5821203B8D00187067D00751B0A8D1C8E828D83128466AD8274302D6F
:201CA400F5821203B8D0070F90012FE0FEEFB5060122021BDC2290898975F0801203CDAE59
:201CC4004B7F00751B0A8F1C8E828F8312849CAE8274302EF5821203B8AE4B7F00751B0A45
:201CE4008F1C8E828F83128466AE8274302EF5821203B875823A1203B8AE4A7F00751B0AC2
:201D04008F1C8E828F8312849CAE8274302EF5821203B8AE4A7F00751B0A8F1C8E828F839C
:201D2400128466AE8274302EF5821203B89000DDE0FFBF010B90898D75F0801203CD801A3F
:201D440090899275F0801203CD9000DDE02430F5821203B875822C1203B89000DEE0FF7E6D
:201D640000751B0A8E1C8F828E8312849CAE8274302EF5821203B89000DEE0FF7E00751B26
:201D84000A8E1C8F828E83128466AE8274302EF5821203B875822F1203B89000DFE0FF7E68
:201DA40000751B0A8E1C8F828E8312849CAE8274302EF5821203B89000DFE0FF7E00751BE5
:201DC4000A8E1C8F828E83128466AE8274302EF5821203B875822F1203B89000E0E0FF7E27
:201DE40000751B0A8E1C8F828E8312849CAE8274302EF5821203B89000E0E0FF7E00751BA4
:201E04000A8E1C8F828E83128466AE8274302EF5821203B830442190899575F0801203CD9C
:201E2400301D067E317F0080047E307F0090F002E4932EF5820203B822787D861B751C00C8
:201E440090001C1283E0751B00751C0112849CAE82AF83204503021F2B90899B75F080C09A
:201E6400061203CDD0063036067D307F0080047D317F008D82C0061203B89089A075F08017
:201E84001203CD90F001E4932430F5821203B89089A575F0801203CDD0069000E7E06006B4
:201EA4007D317F0080047D307F008D82C0061203B89089AA75F0801203CD9000E6E024306B
:201EC400F5821203B875822F1203B890F003E4932430F5821203B89089AF75F0801203CDA6
:201EE40090F004E493FF7D00751B0A8D1C8F828D8312849CAD8274302DF5821203B890F00D
:201F040004E493FF7D00751B0A8D1C8F828D83128466AD8274302DF5821203B89089B475E0
:201F2400F0801203CDD0069089B875F080C0061203CDD00630A1067D317F0080047D307F8D
:201F4400008D82C0061203B89089BE75F0801203CDD0067F00751B0A8F1C8E828F83C007BA
:201F6400C00612849CAC8274302CF5821203B8D006D007751B0A751C008E828F831284662D
:201F8400AE8274302EF5821203B890F010E493540370033045219089C475F0801203CD30BC
:201FA40092067E307F0080047E2F7F0090F010E4932EF5821203B8204501229089CA75F05F
:201FC400801203CD9000FAE0FF7E00751B0A8E1C8F828E8312849CAE8274302EF58212038E
:201FE400B89000FAE0FF7E00751B0A8E1C8F828E83128466AE8274302EF5821203B890897D
:20200400D075F0801203CD90F01CE4932430F5821203B890F01CE493FFBF02012275822C61
:202024001203B890F01175F0800203CDAD82AE83AFF0900132E0700122755BD9755C8975DA
:202044005D8075590F755A019089D575F080C007C006C0051215AA1218DAD005D006D00776
:2020640074012DFAE43EFB8F048A828B838CF012844AF9B92A02801DC007C006C005C00409
:20208400C003C002121828D002D003D004D005D006D0078005900017E4F0A2469242C007E7
:2020A400C006C005C004C003C0021217C4D002D003D004D005D006D007400122900132E05A
:2020C40024FD5016A2469243C007C006C005121939D005D006D00702218790857E75F0805E
:2020E400C007C006C005C004C003C0021203CD121BC2A2469244121CBAA2469245121E3D9E
:20210400D002D003D004D005D006D0078A828B838CF012844AFABA2A028053900017E060B0
:202124004D9089EA75F080C007C006C0051203CD90001775F0001203CDD005D006D0073092
:20214400461B90001BE070159089F575F080C007C006C0051203CDD005D006D00790001BB6
:20216400E4F090001AF0900019F0900018F08D828E838FF0C007C006C0051203CDD005D044
:2021840006D0070DBD00010E8D828E838FF012844AFDBD2A099088D975F0800203CD755BA1
:2021A4000F755C8A755D80755932755A019088D975F0800215AA9089B875F0801203CD3030
:2021C400A1067E317F0080047E307F008E821203B8908A2075F0801203CD90F007E4932475
:2021E40030F5821203B890F007E4937009908A2875F0800203CD908A3D75F0801203CD9049
:20220400F007E493FF75820DC0071203B8D007EF90F00793FE7D00751B3C8D1C8E828D83C5
:20222400C00712849CAD8274302DF5821203B8D007EF90F00793FE7D00751B068D1C8E82B3
:202244008D83C00712849C751B0A751C00128466AD8274302DF5821203B875823A1203B808
:20226400D007EF90F00793FF7E00751B068E1C8F828E83128466AE8274302EF5821203B859
:20228400908A4A75F0801203CD90F008E493FF7E00751B3C8E1C8F828E8312849CAE827425
:2022A400302EF5821203B890F008E493FF7E00751B068E1C8F828E8312849C751B0A751C3D
:2022C40000128466AE8274302EF5821203B875823A1203B890F008E493FF7E00751B068E1A
:2022E4001C8F828E83128466AE8274302EF5821203B87582301203B87F0290F007E493FEE9
:20230400C3EF9E40012275820DC0071203B8D007EF90F00793FE7D00751B3C8D1C8E828D01
:2023240083C00712849CAD8274302DF5821203B8D007EF90F00793FE7D00751B068D1C8EB1
:20234400828D83C00712849C751B0A751C00128466AD8274302DF5821203B875823A12033D
:20236400B8D007EF90F00793FE7D00751B068D1C8E828D83C007128466AD8274302DF582AD
:202384001203B8908A4A75F0801203CDD0078F06EE04FD3395E0FCED2407F582EC34F0F5AE
:2023A40083E493FB7A00751B3C8A1C8B828A83C006C005C00412849CAA8274302AF582121A
:2023C40003B8D004D005ED2407F582EC34F0F583E493FB7A00751B068A1C8B828A83C00577
:2023E400C00412849C751B0A751C00128466AA8274302AF5821203B875823A1203B8D004AC
:20240400D005ED2407F582EC34F0F583E493FD7C00751B068C1C8D828C83128466AC8274E2
:20242400302CF5821203B87582301203B8D00674022EFF0222FEAD82AE83AFF0900132E0C7
:20244400700122755BD9755C89755D8075590F755A019089D575F080C007C006C005121597
:20246400AAA24792421217C4D005D006D007400122A2479244C007C006C005121CBAA2473D
:202484009245121E3D1221BAD005D006D0078D828E838FF01203CD755B4F755C8A755D8038
:2024A400755932755A019088D975F0800215AA900017E4F0D2421217C440012290858F75B9
:2024C400F0801203CD755B60755C8A755D80755932755A019088D975F0800215AA755B7121
:2024E400755C8A755D8075590F755A019089D575F0801215AA503675820012158E9000BB5D
:20250400E4F09000FE740AF0755B8C755C8A755D8075590F755A01908A8275F0801215AADF
:20252400500990001BE0FF9000F9F0D322C322C248900131E0FFBF3D0122755BA7755C8AC5
:20254400755D8075590F755A01908A9C75F0801215AA4003022700755BC2755C8A755D8061
:2025640075590F755A01908AB775F0801215AA40030227009000FE740CF0755BDD755C8AB1
:20258400755D8075590A755A3C908AD275F0801215AA400302270075820012158E9000BBFD
:2025A400E4F09000FE7402F0755BF7755C8A755D8075590F755A01908AED75F0801215AA71
:2025C400400302270090001AE024D075F00AA4FF90001BE02F24D09000E0F090001DE0243C
:2025E400D075F00AA4FF90001EE02F24D09000DFF0900020E024D075F00AA4FF900021E0BE
:202604002F24D09000DEF0900023E024D075F00AA4FF900024E02F24D0F54B900026E024EB
:20262400D075F00AA4FF900027E02F24D0F54A900029E024D075F00AA4FF90002AE02F242F
:20264400D0F549854A3A85493B854B821202639000DFE0FF8F1B751C00900017C007128301
:20266400E0751B09751C0012849CAD82AE83D0079000DEE07B002DFDEB3EFEEF24FD501554
:202684009000E0E054037F004FB401009249E433FC7F0080047C027F00EC2DFDEF3EFE904D
:2026A40000E0E0FFFB7C002DFDEC3EFE8B828C83A3A3A3751B048C1CC007C006C005128465
:2026C4009CAB82AC83D005D006EB2DFDEC3EFE8D828E83A3751B07751C001283FDAD82D09A
:2026E400070D9000DDEDF09000DEE0F53C9000DFE0F53D8F3E8D82120295D248A248921D40
:202704009000FEE4F022755B12755C8B755D8075590F755A01908B0775F0801215AA502D9F
:2027240075820012158E9000BBE4F09000FE740BF0755B2E755C8B755D8075590F755A0174
:20274400908B2375F0801215AA5002D322C32230A006900132E07002C322755B49755C8B10
:20276400755D8075590F755A01908B3E75F0801215AA5039755B6D755C8B755D8075590FF6
:20278400755A01908B5A75F0801215AA501F755B92755C8B755D8075590F755A01908B7E75
:2027A40075F0801215AA50051218DAD322C32230A006900132E07002C322755BA3755C8B8D
:2027C400755D8075590F755A019089D575F0801215AA400122755B49755C8B755D8075595A
:2027E4000F755A02908B3E75F0801215AA5036755B6D755C8B755D8075590F755A01908BAD
:202804005A75F0801215AA501C755BB4755C8B755D80755914755A03908B7E75F0801215AD
:20282400AA5002D322C322C24A900131E0FFBF3D0122755BC6755C8B755D8075590F755A02
:20284400019089D575F0801215AA4003022A5B755BE1755C8B755D8075590F755A01908BDE
:20286400D775F0801215AA4003022A5B755B12755C8B755D8075590F755A01908B0775F039
:20288400801215AA90F002E4937003022A5B755BF2755C8B755D8075590F755A01908A9C1D
:2028A40075F0801215AA4003022A5B755B0E755C8C755D8075590F755A01908C0375F08056
:2028C4001215AA4003022A5B9000FE7406F0755B2B755C8C755D8075590F755A02908C20CD
:2028E40075F0801215AA4003022A5B9000FFE0FFBF01028003022A5B7F007E00EE2411F505
:2029040082E43401F5830EE0FDBD2C060FBF0300500ABE0B00500543C11080E0EF24FD40B9
:2029240003022A5B8E070FEF3395E0FDEF2411F582ED3401F583E0FFBF2C15EE04FFEE24BA
:2029440011F582E43401F583E0FD24D0F54B8029EE04FDEE2411F582E43401F583E024D0B2
:2029640075F00AA4FEED04FFED2411F582E43401F583E0FD24D02EF54B0F8F060EEE339581
:20298400E0FDEE2411F582ED3401F583E0FEBE2C15EF04FEEF2411F582E43401F583E0FD4B
:2029A40024D0F54A8029EF04FDEF2411F582E43401F583E024D075F00AA4FFED04FEED2435
:2029C40011F582E43401F583E0FD24D02FF54AEE04FFFE0EEE3395E0FDEE2411F582ED3450
:2029E40001F583E0FEBE2C12EF2411F582E43401F583E0FE24D0F5498026EF04FEEF241189
:202A0400F582E43401F583E024D075F00AA4FFEE2411F582E43401F583E0FE24D02FF5495A
:202A2400AE4B7F0074072EFEE43FFFC374179E74808FF063F08095F05007E54B24EFFF8081
:202A440006AE4B74072EFF8F4B854A3A85493B854B82120263D24AA24A921D9000FEE4F0FD
:202A640022C02AC0E0C0F0C082C083C007C006C005C004C003C002C001C000C0D075D01070
:202A840020980302432143C1109000FCE09000FBF0900100E02402F582E43401F583E599F9
:202AA400F0900100E0FF2402F582E43401F583E0FEBE4E028003022BEB8F147D00740C2C31
:202AC400F582E43DF583751B0D8D1CC017C016C015C01475D00012846675D010AA82AB8356
:202AE400D014D015D016D017EA2402F582EB3401F583E0FBBB49028003022BEB740B2CF501
:202B040082E43DF583751B0D751C00C017C016C015C01475D00012846675D010AA82AB8322
:202B2400D014D015D016D017EA2402F582EB3401F583E0FBBB20028003022BEB740A2CF5EA
:202B440082E43DF583751B0D751C00C017C016C015C01475D00012846675D010AA82AB83E2
:202B6400D014D015D016D017EA2402F582EB3401F583E0FBBB547074092CF582E43DF58389
:202B8400751B0D751C00C017C016C015C01475D00012846675D010AA82AB83D014D015D024
:202BA40016D017EA2402F582EB3401F583E0FBBB4F3574082CF582E43DF583751B0D751CF5
:202BC40000C017C01675D00012846675D010AC82AD83D016D017EC2402F582ED3401F58360
:202BE400E0FDBD4E02D2309000FEE0FD24F1500302430DED240A83F582ED241383F583E4A8
:202C040073F07222C20D3AA236AC0D7813889C232E372E374339353B3A432D2E2C402C9097
:202C240000BBE0FC04F0EC2417F582E43400F583E599F07420B59936900100E0FC7B0074F5
:202C44000C2CF582E43BF583751B0D8B1C75D00012846675D010AB82AC83EB2402F582EC80
:202C64003401F583E0FCBC3A059000BBE4F0742CB59902800302430D9000FEE4F09000BB3B
:202C8400F002430D7454B5996E8F137C00740C2BF582E43CF583751B0D8C1CC017C014C0E2
:202CA4001375D00012846675D010A982AA83D013D014D017E92402F582EA3401F583E0FA6A
:202CC400BA5334740B2BF582E43CF583751B0D751C00C01775D00012846675D010AB82AC82
:202CE40083D017EB2402F582EC3401F583E0FCBC4405D22E02430D7452B599028003024334
:202D04000D8F137C00740C2BF582E43CF583751B0D8C1CC014C01375D00012846675D01048
:202D2400A982AA83D013D014E92402F582EA3401F583E0FABA4F02800302430D740B2BF5FA
:202D440082E43CF583751B0D751C0075D00012846675D010AB82AC83EB2402F582EC34018C
:202D6400F583E0FCBC5202800302430D9000FBE4F002430D9000BBE0FC04F0EC2417F582AC
:202D8400E43400F583E599F07422B59936900100E0FC7B00740C2CF582E43BF583751B0DD8
:202DA4008B1C75D00012846675D010AB82AC83EB2402F582EC3401F583E0FCBC2005900008
:202DC400BBE4F0742CB59902800302430D900100E0FC7B00740C2CF582E43BF583751B0D5C
:202DE4008B1C75D00012846675D010AB82AC83EB2402F582EC3401F583E0FCBC22028003D6
:202E040002430D9000FEE4F09000BBF002430D7431B59902800302430DD22E02430D9000C1
:202E2400BBE0FC04F0EC2417F582E43400F583E599F0744BB59969900100E0FB7C00740C89
:202E44002BF582E43CF583751B0D8C1CC014C01375D00012846675D010A982AA83D013D0A7
:202E640014E92402F582EA3401F583E0FABA4C30740B2BF582E43CF583751B0D751C0075B1
:202E8400D00012846675D010AB82AC83EB2402F582EC3401F583E0FCBC43059000BBE4F091
:202EA400740DB59902800302430D900100E0FC7B00740C2CF582E43BF583751B0D8B1C750D
:202EC400D00012846675D010AB82AC83EB2402F582EC3401F583E0FCBC2202800302430DBF
:202EE4009000FEE4F09000BBF002430D743EB599129088D975F08075D0001203CD75D0107B
:202F040002430DBE47028003022FDE8F137C00740C2BF582E43CF583751B0D8C1CC017C00E
:202F240016C015C014C01375D00012846675D010A982AA83D013D014D015D016D017E92487
:202F440002F582EA3401F583E0FABA4E028003022FDE740B2BF582E43CF583751B0D751C00
:202F640000C017C016C015C014C01375D00012846675D010A982AA83D013D014D015D016A4
:202F8400D017E92402F582EA3401F583E0FABA4949740A2BF582E43CF583751B0D751C001D
:202FA400C017C016C01575D00012846675D010AB82AC83D015D016D017EB2402F582EC343F
:202FC40001F583E0FCBC5212908C3D75F08075D0001203CD75D01002430DBE3A02800302ED
:202FE40031308F137C00740C2BF582E43CF583751B0D8C1CC017C016C015C014C01375D0E1
:203004000012846675D010A982AA83D013D014D015D016D017E92402F582EA3401F583E08D
:20302400FABA49028003023130740B2BF582E43CF583751B0D751C00C017C016C015C0146A
:20304400C01375D00012846675D010A982AA83D013D014D015D016D017E92402F582EA348E
:2030640001F583E0FABA54028003023130740A2BF582E43CF583751B0D751C00C017C01670
:20308400C015C014C01375D00012846675D010A982AA83D013D014D015D016D017E924023A
:2030A400F582EA3401F583E0FABA4D02800302313074092BF582E43CF583751B0D751C0050
:2030C400C017C016C015C014C01375D00012846675D010A982AA83D013D014D015D016D073
:2030E40017E92402F582EA3401F583E0FABA433C74082BF582E43CF583751B0D751C00C0E1
:2031040017C016C01575D00012846675D010AB82AC83D015D016D017EB2402F582EC34019C
:20312400F583E0FCBC2B05D20C02430DE4BE200104FC70030232DF8F127B00740C2AF58295
:20314400E43BF583751B0D8B1CC017C016C015C014C013C01275D00012846675D010A882D5
:20316400A983D012D013D014D015D016D017E82402F582E93401F583E0F9B93A0280030256
:2031840032DF740B2AF582E43BF583751B0D751C00C017C016C015C014C013C01275D000F5
:2031A40012846675D010A882A983D012D013D014D015D016D017E82402F582E93401F583EE
:2031C400E0F9B94C0280030232DF740A2AF582E43BF583751B0D751C00C017C016C015C04F
:2031E40014C013C01275D00012846675D010A882A983D012D013D014D015D016D017E824BF
:2032040002F582E93401F583E0F9B9470280030232DF74092AF582E43BF583751B0D751C47
:2032240000C017C016C015C014C013C01275D00012846675D010A882A983D012D013D014FA
:20324400D015D016D017E82402F582E93401F583E0F9B94D0280030232DF74082AF582E425
:203264003BF583751B0D751C00C017C016C015C014C013C01275D00012846675D010A882AE
:20328400A983D012D013D014D015D016D017E82402F582E93401F583E0F9B9433E74072AD0
:2032A400F582E43BF583751B0D751C00C017C016C015C01475D00012846675D010AA82AB0B
:2032C40083D014D015D016D017EA2402F582EB3401F583E0FBBB2B03023473EC70030234B0
:2032E400BE8F137C00740C2BF582E43CF583751B0D8C1CC017C016C015C014C01375D00081
:2033040012846675D010A982AA83D013D014D015D016D017E92402F582EA3401F583E0FA90
:20332400BA3A0280030234BE740B2BF582E43CF583751B0D751C00C017C016C015C014C01F
:203344001375D00012846675D010A982AA83D013D014D015D016D017E92402F582EA34014A
:20336400F583E0FABA500280030234BE740A2BF582E43CF583751B0D751C00C017C016C021
:2033840015C014C01375D00012846675D010A982AA83D013D014D015D016D017E92402F502
:2033A40082EA3401F583E0FABA490280030234BE74092BF582E43CF583751B0D751C00C0F5
:2033C40017C016C015C014C01375D00012846675D010A982AA83D013D014D015D016D01719
:2033E400E92402F582EA3401F583E0FABA4C0280030234BE74082BF582E43CF583751B0D00
:20340400751C00C017C016C015C014C01375D00012846675D010A982AA83D013D014D01554
:20342400D016D017E92402F582EA3401F583E0FABA430280030234BE74072BF582E43CF51C
:2034440083751B0D751C00C017C016C01575D00012846675D010AB82AC83D015D016D01791
:20346400EB2402F582EC3401F583E0FCBC2B4B8F137C0074092BF582E43CF583751B0D8C1B
:203484001C75D00012846675D010AB82AC83EB2402F582EC3401F583E0FCBC4C03D38001BE
:2034A400C392064006300E0302430DC20BC209C2089000FE7403F002430DBE4B698F137C9B
:2034C40000740C2BF582E43CF583751B0D8C1CC017C016C01575D00012846675D010AB82A4
:2034E400AC83D015D016D017EB2402F582EC3401F583E0FCBC4F2FBD02059000BBE4F0A22B
:203504002FB3922EC22F9000BBE0700302430D9000BBE4F0908B7E75F08075D0001203CD60
:2035240075D01002430DBE5402800302430D8F147D00740C2CF582E43DF583751B0D8D1CD5
:20354400C015C01475D00012846675D010AA82AB83D014D015EA2402F582EB3401F583E006
:20356400FBBB4F02800302430D740B2CF582E43DF583751B0D751C0075D00012846675D0FC
:2035840010AC82AD83EC2402F582ED3401F583E0FDBD4E02800302430DD22F02430DBE20A6
:2035A40002800302430D8F147D00740C2CF582E43DF583751B0D8D1CC015C01475D000120E
:2035C400846675D010AA82AB83D014D015EA2402F582EB3401F583E0FBBB3A0280030243CC
:2035E4000D740B2CF582E43DF583751B0D751C00C015C01475D00012846675D010AA82ABBB
:2036040083D014D015EA2402F582EB3401F583E0FBBB5A02800302430D740A2CF582E43D32
:20362400F583751B0D751C00C015C01475D00012846675D010AA82AB83D014D015EA24026E
:20364400F582EB3401F583E0FBBB5402800302430D74092CF582E43DF583751B0D751C00AF
:20366400C015C01475D00012846675D010AA82AB83D014D015EA2402F582EB3401F583E0E5
:20368400FBBB5402800302430D74082CF582E43DF583751B0D751C00C015C01475D000125F
:2036A400846675D010AA82AB83D014D015EA2402F582EB3401F583E0FBBB550280030243D0
:2036C4000D74072CF582E43DF583751B0D751C00C015C01475D00012846675D010AA82ABDE
:2036E40083D014D015EA2402F582EB3401F583E0FBBB5302800302430D74062CF582E43D5D
:20370400F583751B0D751C00C015C01475D00012846675D010AA82AB83D014D015EA24028D
:20372400F582EB3401F583E0FBBB5002800302430D8C828D83A3A3A3A3A3751B0D751C003E
:2037440075D00012846675D010AC82AD83EC2402F582ED3401F583E0FDBD2A0280030243C0
:203764000D900101E4F09000FE04F002430D740DB599028020900101E0FDBD1E005016904D
:203784000101ED04F0ED2411F582E43401F583E599F002430D900101E0FD1DED3395E0FC3B
:2037A400ED2411F582EC3401F583E4F09000FEE09000FFF09000FEE4F0D22E02430D200B33
:2037C400030238459000BBE0FD7023740DB59902800302430D30060D9000BA7402F090007F
:2037E400B9E02401F09000FE7405F002430DBD0A0D7422B599089000BBE4F002430D200875
:2038040013ED2401F582E43400F583E0FCB599028002D208300A0E20090DED90F01193FC65
:20382400B599028002D2099000BBED04F020080302430D20090302430D9000FEE4F0024309
:203844000D30063CBE30398F147D00740C2CF582E43DF583751B0D8D1CC017C01675D000AA
:2038640012846675D010AC82AD83D016D017EC2402F582ED3401F583E0FDBD22030239208B
:20388400BE340280030239288F147D00740C2CF582E43DF583751B0D8D1CC015C01475D03A
:2038A4000012846675D010AA82AB83D014D015EA2402F582EB3401F583E0FBBB3866740BBE
:2038C4002CF582E43DF583751B0D751C00C015C01475D00012846675D010AA82AB83D014FD
:2038E400D015EA2402F582EB3401F583E0FBBB2B33740A2CF582E43DF583751B0D751C00E4
:2039040075D00012846675D010AC82AD83EC2402F582ED3401F583E0FDBD2208D20B90005B
:20392400BB7401F0740DB59902800302430D9000FEE4F002430D300D3F743BB599028027E7
:20394400740DB5990280209000BBE0FDBDA00050169000BBED04F0ED2417F582E43400F52F
:2039640083E599F002430D9000BBE4F0C20D9000FEE4F0D20E02430DBE2C028003023A8A49
:203984008F147D00740C2CF582E43DF583751B0D8D1CC015C01475D00012846675D010AA18
:2039A40082AB83D014D015EA2402F582EB3401F583E0FBBB43028003023A8A740B2CF58225
:2039C400E43DF583751B0D751C00C015C01475D00012846675D010AA82AB83D014D015EAD0
:2039E4002402F582EB3401F583E0FBBB55028003023A8A740A2CF582E43DF583751B0D758C
:203A04001C00C015C01475D00012846675D010AA82AB83D014D015EA2402F582EB3401F588
:203A240083E0FBBB446074092CF582E43DF583751B0D751C00C015C01475D000128466757F
:203A4400D010AA82AB83D014D015EA2402F582EB3401F583E0FBBB502D74082CF582E43DED
:203A6400F583751B0D751C0075D00012846675D010AC82AD83EC2402F582ED3401F583E0A5
:203A8400FDBD2A028004C24B8002D24BA24B920D740DB59902800302430D9000BB7401F02A
:203AA4009000FEE4F002430D743EB5990A9000FEE4F0D22E02430DBE5202800302430D8F1A
:203AC400147D00740C2CF582E43DF583751B0D8D1CC015C01475D00012846675D010AA82E4
:203AE400AB83D014D015EA2402F582EB3401F583E0FBBB5202800302430D740B2CF582E4E7
:203B04003DF583751B0D751C0075D00012846675D010AC82AD83EC2402F582ED3401F583A7
:203B2400E0FDBD4502800302430D9000FBE4F002430D300F669000F9E0FDBD50028003BDC0
:203B440066057420B5990FBD74028003BD6E2F7464B5990280289000BBE0FDBDA000501E32
:203B6400742EB5990302430D9000BBED04F0ED2417F582E43400F583E599F002430DC20F10
:203B8400C2119000BBE0FD2417F582E43400F583E4F09000BBF0D22E02430D9000F9E0FD1D
:203BA400BD50028003023CFCBE3D028003023CFC8F137C00740C2BF582E43CF583751B0D06
:203BC4008C1CC017C016C015C014C01375D00012846675D010A982AA83D013D014D015D0A6
:203BE40016D017E92402F582EA3401F583E0FABA68028003023CFC740B2BF582E43CF58333
:203C0400751B0D751C00C017C016C015C014C01375D00012846675D010A982AA83D013D0A8
:203C240014D015D016D017E92402F582EA3401F583E0FABA6E028003023CFC740A2BF582BC
:203C4400E43CF583751B0D751C00C017C016C015C014C01375D00012846675D010A982AA06
:203C640083D013D014D015D016D017E92402F582EA3401F583E0FABA69028003023CFC74F7
:203C8400092BF582E43CF583751B0D751C00C017C016C015C014C01375D00012846675D000
:203CA40010A982AA83D013D014D015D016D017E92402F582EA3401F583E0FABA683A740850
:203CC4002BF582E43CF583751B0D751C00C017C016C01575D00012846675D010AB82AC8304
:203CE400D015D016D017EB2402F582EC3401F583E0FCBC6303024097BD74028003023E54CC
:203D0400BE20028003023E548F137C00740C2BF582E43CF583751B0D8C1CC017C016C01509
:203D2400C014C01375D00012846675D010A982AA83D013D014D015D016D017E92402F582EB
:203D4400EA3401F583E0FABA3A028003023E54740B2BF582E43CF583751B0D751C00C01723
:203D6400C016C015C014C01375D00012846675D010A982AA83D013D014D015D016D017E99D
:203D84002402F582EA3401F583E0FABA47028003023E54740A2BF582E43CF583751B0D752D
:203DA4001C00C017C016C015C014C01375D00012846675D010A982AA83D013D014D015D050
:203DC40016D017E92402F582EA3401F583E0FABA4B028003023E5474092BF582E43CF58316
:203DE400751B0D751C00C017C016C015C014C01375D00012846675D010A982AA83D013D0C7
:203E040014D015D016D017E92402F582EA3401F583E0FABA543A74082BF582E43CF583756E
:203E24001B0D751C00C017C016C01575D00012846675D010AB82AC83D015D016D017EB2490
:203E440002F582EC3401F583E0FCBC2003024097BD66028003023FACBE20028003023FACD3
:203E64008F137C00740C2BF582E43CF583751B0D8C1CC017C016C015C014C01375D00012A1
:203E8400846675D010A982AA83D013D014D015D016D017E92402F582EA3401F583E0FABA5D
:203EA40043028003023FAC740B2BF582E43CF583751B0D751C00C017C016C015C014C01339
:203EC40075D00012846675D010A982AA83D013D014D015D016D017E92402F582EA3401F5DD
:203EE40083E0FABA4B028003023FAC740A2BF582E43CF583751B0D751C00C017C016C01582
:203F0400C014C01375D00012846675D010A982AA83D013D014D015D016D017E92402F58209
:203F2400EA3401F583E0FABA54028003023FAC74092BF582E43CF583751B0D751C00C017D0
:203F4400C016C015C014C01375D00012846675D010A982AA83D013D014D015D016D017E9BB
:203F64002402F582EA3401F583E0FABA203A74082BF582E43CF583751B0D751C00C017C0A0
:203F840016C01575D00012846675D010AB82AC83D015D016D017EB2402F582EC3401F5836D
:203FA400E0FCBC2E03024097BD6E02800302430DBE2002800302430D8F147D00740C2CF5E3
:203FC40082E43DF583751B0D8D1CC015C01475D00012846675D010AA82AB83D014D015EA30
:203FE4002402F582EB3401F583E0FBBB3A02800302430D740B2CF582E43DF583751B0D7514
:204004001C00C015C01475D00012846675D010AA82AB83D014D015EA2402F582EB3401F582
:2040240083E0FBBB4302800302430D740A2CF582E43DF583751B0D751C00C015C01475D073
:204044000012846675D010AA82AB83D014D015EA2402F582EB3401F583E0FBBB4B02800363
:2040640002430D74092CF582E43DF583751B0D751C0075D00012846675D010AC82AD83EC23
:204084002402F582ED3401F583E0FDBD5402800302430DD20F02430D200F0302412D9000BB
:2040A400F9E0FDBD50028003BD6E05740AB59912BD66057422B5990ABD743D742EB5990210
:2040C40080369000BBE0FDBD0A00502CBD0900501E8D149000BBED04F00CEC3395E0FBEC33
:2040E400240CF582EB3400F583E599F002430D9000BBED04F002430DC20FC2119000BBE071
:20410400FDBD0A005016D22E0DED3395E0FCED240CF582EC3400F583E4F080059000FBE4DF
:20412400F09000BBE4F002430D9000F9E0FDBD5040BE3A3D8F137C00740C2BF582E43CF5DD
:2041440083751B0D8C1CC017C016C01575D00012846675D010AB82AC83D015D016D017EB82
:204164002402F582EC3401F583E0FCBC29030241F4BD6E3FBE303C8F137C00740C2BF58236
:20418400E43CF583751B0D8C1CC017C016C01575D00012846675D010AB82AC83D015D016FF
:2041A400D017EB2402F582EC3401F583E0FCBC2002803DBD66028003BD743ABE34378F159C
:2041C4007E00740C2DF582E43EF583751B0D8E1CC01775D00012846675D010AD82AE83D0BB
:2041E40017ED2402F582EE3401F583E0FEBE3805D20F02430D7435B5990280030242A58F7F
:20420400157E00740C2DF582E43EF583751B0D8E1CC017C016C01575D00012846675D010EA
:20422400AB82AC83D015D016D017EB2402F582EC3401F583E0FCBC3168740B2DF582E43ED5
:20424400F583751B0D751C00C017C016C01575D00012846675D010AB82AC83D015D016D0A5
:2042640017EB2402F582EC3401F583E0FCBC2031740A2DF582E43EF583751B0D751C00C06F
:204284001775D00012846675D010AD82AE83D017ED2402F582EE3401F583E0FEBE2C0280B7
:2042A400667452B599638F167F00740C2EF582E43FF583751B0D8F1CC017C01675D00012ED
:2042C400846675D010AC82AD83D016D017EC2402F582ED3401F583E0FDBD522D740B2EF592
:2042E40082E43FF583751B0D751C0075D00012846675D010AE82AF83EE2402F582EF3401C8
:20430400F583E0FFBF4502D231900100E02401F0E0FF24F35005900100E4F0C298D0D0D039
:2043240000D001D002D003D004D005D006D007D083D082D0F0D0E0D02A32C2107F00EF2408
:2043440017FDE43400FE0F8D828E83E0600543C11080EBBFA000500FEF2417F582E43400C5
:20436400F5830FE4F080EC900017E0FFBF3F028008900018E0FFBF3F062008030224B39045
:204384000018E0FFBF4303024AD9BF4503024C73BF48028044BF4903025339BF5003025066
:2043A40007BF5303024B91BF54030253AABF6303024AD9BF6503024C73BF6802801BBF69CC
:2043C40003025339BF7003025007BF7303024B91BF74030253AA0256D790001AE0FFC37486
:2043E400309FE433FE7D007003024496BF3500400302449690001DE0600302449690001B7F
:20440400E0FEBE44028003BE64047D04800CBE53028007BE73028002D21020101C90001CD7
:20442400E0FEBE4102800ABE61028005EF24CD50088D0674082EFD801720100890001CE09C
:20444400FEBE530A90001CE0FEBE73028002D2108F06EE24D02DFEC006120334D006900007
:20446400BDEEF012036FD246908C4275F080122030C2AF90020012031CC2A07518009000A9
:2044840005120301D2A3900FA01204BB75C760024A76BF2B02800302465390001BE0FEC3C4
:2044A400742F9EE433FD70030245DEBE330040030245DE90001CE0FC24D040030245DEBC12
:2044C4003A0040030245DE90001DE0FB24D040030245DEBB360040030245DE90001EE0F576
:2044E4006D24D040030245DE74C6256D50030245DE900020E0F56924D040030245DE74CD20
:20450400256950030245DE900021E0F56A24D040030245DE74C6256A50030245DE90002252
:20452400E0F56B24D040030245DE74CA256B50030245DE900023E0F56C24D040030245DE45
:2045440074C6256C50030245DE8E0274022AF56EAA69C39A75F00AA42404F56E254B2CAC2B
:204564006AC39CFAAC6B74062CC39B75F00AA4256CAB6DC39BF5678A6F757000AB4A7C0094
:20458400743C2BF571E43CF572AA677C00C3E5719AE57264808CF063F08095F0E433FA7C73
:2045A40000E56FC39AF582E5709CF583751B0C8C1C128466AB828B4DAC4A74782CAB67C33E
:2045C4009BFC7B00751B3C8B1C8C828B83128466AB828B51120F81024A76ED606DBE36001F
:2045E400506890001CE0FD24D0505FBD3A00505AEE24D075F00AA42D24D0FEAD4D740C2D77
:20460400FDC3E5519EE433FCEDC39CFD7C00751B0C8C1C8D828C83C006128466AC82D00602
:204624008C4DAC517D00743C2CFCE43DFD7B00ECC39EF582ED9BF583751B3C8B1C1284667F
:20464400AD828D51120F81024A76D210024A76BF2D4690001BE0FF24D05038BF3600503391
:2046640090001CE0FE24D0502ABE3A005025EF24D075F00AA4AD512D2E24D0F55124C45010
:204684000CE54D04F54DE551FF24C4F551120F81024A76D210024A7690001BE0FFBF4E028E
:2046A4008003BF6E243008030256FD1203349000BDE054EFF012036FC236787E7600788009
:2046C40076187881763C024A76BF46028003BF66393008030256FD1203349000BDE0441099
:2046E400F012036FD23690F010E4935403FE7F00BE0212BF000F30920C751900751A00755F
:20470400820912829DC2C2024A769001347403F0756801900134E0FE2417F582E43400F527
:2047240083E0FDBD2C46E56870099001347465F0024A60AB687C0074012BF571E43CF572CA
:2047440090012FE0FA7C0074012AF51BE43CF51C857182857283C006128466AB82AC83D07F
:20476400068B68900134EE04F0024A60BD30005015E56870057C65FE80047CCA7E0090011D
:2047840034ECF0024A60E5687051BD6702800DBD47028008BD61028003BD413F30920C75E7
:2047A4001900751A0075820912829DC2C2787E7600122533AD4B7E00751B0C8E1C8D828E69
:2047C40083128466AD82AE838D4C788076187881763C9001347465F0024A60900134E0FE0F
:2047E4002417F582E43400F583E0FD24D04003024A5ABD33004003024A5A8E037C0074015E
:204804002BFAE43CFFEA2417F582EF3400F583E0FF24D04003024A5A74012BFAE43CFFEABA
:204824002417F582EF3400F583E0FFBF3A004003024A5A74022BFAE43CFFEA2417F582EF21
:204844003400F583E0FF24D04003024A5A74022BFAE43CFFEA2417F582EF3400F583E0FF1C
:20486400BF36004003024A5A74032BFAE43CFFEA2417F582EF3400F583E0FF24D04003024C
:204884004A5A74032BFAE43CFFEA2417F582EF3400F583E0FFBF3A004003024A5AE5687000
:2048A40003024982AF681FEF244DF5717A00ED24D0F51BEA34FFF51C90000AC007C006C0A8
:2048C40004C0031283E085826F858370D003D00474012BFAE43CFDEA2417F582ED3400F59A
:2048E40083E07A00256FFDEA3570FAED24D0F582EA34FFF583751B0C751C00C004C003120A
:204904008466AA82D003D004D006D007A871A602EF2451F974022BFDE43CFFED2417F582AF
:20492400EF3400F583E024D075F00AA4FF74032BFBE43CFCEB2417F582EC3400F583E02FF5
:2049440024D0F7C006120F81D006AD687F000DBD00010F90012FE0FC7B0074012CF51BE410
:204964003BF51C8D828F83C006128466AD82AF83D0068D6890013474052EF0024A6030920E
:204984000C751900751A0075820912829DC2C2787E7600900134E0FF2417F582E43400F566
:2049A40083E07D0024D0F51BED34FFF51C90000AC0071283E0AD82AE83D0077C0074012FB1
:2049C400FAE43CFBEA2417F582EB3400F583E07A002DFDEA3EFEED24D0F582EE34FFF583F0
:2049E400751B188C1CC007C004128466AD82D004D0078D4B74022FFDE43CFEED2417F582CB
:204A0400EE3400F583E024D075F00AA4FE74032FFFE43CFCEF2417F582EC3400F583E02E0B
:204A240024D0F54AAE4B7F00751B0C8F1C8E828F83128466AE828E4C854A3A85493B854B76
:204A440082120263C21D788076187881763C9001347465F0800690013474CAF0900134E09D
:204A6400FFBF64005003024717BFCA03D38001C39210120A8C858256120D04858257301052
:204A84002A30090ED246908C6775F0801220300256FDD246908C7A75F080122030C24690DD
:204AA4008C6775F0801220300256FD30090ED246908CA875F0801220300256FDD246908C70
:204AC400C275F080122030C246908CA875F0801220300256FD90001BE0FFBF65028003BF6F
:204AE40045143008030256FDD247908CEF75F08012243A0256FDBF6E028003BF4E143008F0
:204B0400030256FD1203349000BE7401F012036F8051BF66028003BF46133008030256FD96
:204B24001203349000BEE4F012036F8036900019E0603090001AE0602A30090ED246908C24
:204B44006775F0801220300256FDD246908D0775F080122030C246908C6775F080122030F9
:204B64000256FD30090ED246908D3175F0801220300256FDD246908D4575F080122030C210
:204B840046908D3175F0801220300256FD3008030256FD90001BE0FFBF7902800DBF5902E6
:204BA4008008BF44028003BF6426D246908D6C75F080122030C2AFC2A075180090000512A9
:204BC4000301D2A3900FA01204BB75C7600256FDBF67028003BF477190001FE0FE24D05064
:204BE4005ABE3A00505512033490001FE024D0FE9000C0F09000E6EEF0900021E0FE24D0D9
:204C04005028BE33005023900022E0FD24D0501ABD3A005015EE24D075F00AA42D24D0FE57
:204C2400BE180050059000C1EEF012036FD246908D8175F0801220300256FDD246908D9774
:204C440075F0801220300256FDBF69028003BF4910D246908DAF75F080122030C2A002560A
:204C6400FDD246908DC175F0801220300256FD3008030256FD90001BE0FFBF58028003BF2C
:204C840078191203349000C4E4F012036FD247908DDA75F08012243A0256FD120334120372
:204CA4006F9000C4E4F09001347404F0900134E0FF2417F582E43400F583E0FE24D0400331
:204CC400024FC5BE33004003024FC58F057F0074012DFBE43FFCEB2417F582EC3400F5836C
:204CE400E0FC24D04003024FC574012DFBE43FFCEB2417F582EC3400F583E0FCBC3A004084
:204D040003024FC574022DFBE43FFCEB2417F582EC3400F583E0FC24D04003024FC57402E5
:204D24002DFBE43FFCEB2417F582EC3400F583E0FCBC36004003024FC574032DFBE43FFC0E
:204D4400EB2417F582EC3400F583E0FC24D04003024FC574032DFBE43FFCEB2417F582ECAA
:204D64003400F583E0FCBC3A004003024FC574052DFBE43FFCEB2417F582EC3400F583E083
:204D8400FC24D04003024FC574052DFBE43FFCEB2417F582EC3400F583E0FCBC33004003C3
:204DA400024FC574062DFBE43FFCEB2417F582EC3400F583E0FC24D04003024FC574062D13
:204DC400FBE43FFCEB2417F582EC3400F583E0FCBC3A004003024FC574072DFBE43FFCEBA8
:204DE4002417F582EC3400F583E0FC24D04003024FC574072DFBE43FFCEB2417F582EC34BD
:204E040000F583E0FCBC36004003024FC574082DFBE43FFCEB2417F582EC3400F583E0FC1B
:204E240024D04003024FC574082DFBE43FFCEB2417F582EC3400F583E0FCBC3A0040030212
:204E44004FC58E1B751C0090000AC007C006C0051283E0AB82AC83D005D006D007C0067487
:204E6400012DFAE43FFEEA2417F582EE3400F583E07A002BFBEA3CFCC3EB9428EC6480943F
:204E840082D0064003024FC5C00674052DFBE43FFCEB2417F582EC3400F583E0FC8C1B75AA
:204EA4001C0090000AC007C006C0051283E0AB82AC83D005D006D00774062DFAE43FFEEAE7
:204EC4002417F582EE3400F583E07A002BFBEA3CFCC3EB9428EC64809482D0064003024F26
:204EE400C5ED24FCF582EF34FFF583751B05751C00C007C006C00512849CAB82D005D00649
:204F0400D00774082BFC3395E0FAEC24BDF56FEA3400F570EE24D075F00AA4F57174012DC0
:204F2400FCE43FFEEC2417F582EE3400F583E0257124D075F006A4FE74022DFAE43FFCEAFB
:204F44002417F582EC3400F583E02E24D0856F82857083F074092BFB3395E0FEEB24BDFB13
:204F6400EE3400FE74052DFAE43FFCEA2417F582EC3400F583E024D075F00AA4F571740653
:204F84002DFAE43FFCEA2417F582EC3400F583E0257124D075F006A4FC74072DFDE43FFF57
:204FA400ED2417F582EF3400F583E02C24D08B828E83F09000C4E0FF0F0F9000C4EFF080A1
:204FC40006900134744BF0900134E0240AF0E0FFBF4B005003024CB09000C4E0601790001B
:204FE4000012031C12036FD247908DF275F08012243A0256FDD246908E0775F080122030A2
:205004000256FD3008030256FD90F010E4935403700ED246908E2275F0801220300256FDD7
:2050240090001CE0FFBF54028003BF741F30920C751900751A0075820912829DC2C2D2463F
:20504400908E3775F0801220300256FDBF4E028003BF6E3B90F010E4935403FD7E00BD01CA
:2050640020BE001D1203349000CDE0FE0E9000CDEEF012036F787E7600788076187881767F
:205084003CD246908E4175F0801220300256FDBF46028003BF664090F010E4935403FD7EF5
:2050A40000BD0225BE002230920C751900751A0075820912829DC2C21203349000CDE0FE04
:2050C4001E9000CDEEF012036FD246908E4A75F0801220300256FD90001BE0FE24D0400313
:2050E40002532BBE3300400302532BEF24D0400302532BBF3A00400302532B90001DE0FF8A
:2051040024D0400302532BBF3600400302532B90001EE0FFBF30028008BF35028003025348
:205124002B900020E0FF24D0400302532BBF3400400302532B900021E0FF24D04003025328
:205144002BBF3A00400302532B900022E0FF24D0400302532BBF3200400302532B900023B5
:20516400E0FF24D0400302532BBF3A00400302532B900024E0FF24D0400302532BBF3A0096
:20518400400302532B900025E0FF24D0400302532BBF3A00400302532B30920C7519007570
:2051A4001A0075820912829D30920302531DD2C2900024E024D075F00AA4FF900025E02F77
:2051C40024D0FF900022E07D0024D0F51BED34FFF51C90000AC0071283E0AD82AE839000CE
:2051E40023E07B002DFDEB3EFEED24D0FDEE34FFFE8D1B8E1C900017C006C0051283E07571
:205204001B09751C0012849CE5828583F0D005D006D00724D1FB74FF35F0FCC374029D74F4
:20522400808EF063F08095F0501274035F7E004EB40100924CE433FD7E0080047D027E006A
:20524400ED2BFBEE3CFC7E00EF2BFBEE3CFC8F828E83A3A3A3751B048E1CC004C0031284F2
:205264009CAE82AF83D003D004EE2BFBEF3CFC900020E07E0024D0F51BEE34FFF51C900076
:205284000AC004C0031283E0AE82AF83D003D004900021E0FD7A002EFEEA3FFFEE2BFEEF99
:2052A4003CFF90F010E493FD24FC5017751B07751C008E828F831283FDAE820EEE3395E074
:2052C400FF80047E0A7F0090001BE024D075F00AA4FF90001CE02F24D0F51990001DE02441
:2052E400D075F00AA4FF90001EE02F24D0F51A8E8212829D9005DC1204BB30920ED246900D
:205304008E5375F0801220300256FDD246908E6875F0801220300256FDD246908E8A75F0AD
:20532400801220300256FDD246908EB075F0801220300256FD3008030256FD90001BE0FF96
:20534400BF42028012BF6202800D90001CE0FEBE4E028003BE6E1D1203349000BF7401F0A3
:2053640012036F122533D246908EC775F0801220300256FDBF54028012BF7402800DBE4239
:20538400028008BE620280030256FD1203349000BFE4F012036FC21DD246908ED075F080CB
:2053A4001220300256FD3008030256C990001AE0FFBF4702800DBF67028008BF4302800381
:2053C400BF6310D207D246908ED975F0801220300256C9BF2B02800302551190001BE0FEE7
:2053E400BE3802800302551190001CE0FEBE3402800302551190001DE0FEBE30005003028F
:205404005503EE24C6500302550390001EE0FEBE30005003025503EE24C65003025503906F
:20542400001FE0FEBE30005003025503EE24C65003025503900020E0FEBE30005003025525
:2054440003EE24C65003025503900021E0FEBE30005003025503EE24C65003025503900081
:2054640022E0FEBE30005003025503EE24C65003025503900023E0FEBE30005003025503DC
:20548400EE24C6407A900024E0FEBE30004070EE24C6406B900025E0FEBE30004061EE248F
:2054A400C6405C1203349000CEE4F07E018E0574112DFD3395E0FCED24BDFDEC3400FC8E31
:2054C400027B0074062AFAE43BFBEA2417F582EB3400F583E08D828C83F00EBE0A0040CD8F
:2054E4009000D9E0FEBE02069000D97401F012036FD246908EF675F0801220300256C9D2E3
:2055040046908F1475F0801220300256C9BF3002800302562990001BE0FEBE3000500302E5
:20552400561BEE24C6500302561B90001CE0FEBE3000500302561BEE24C6500302561B90EC
:20554400001DE0FEBE3000500302561BEE24C6500302561B90001EE0FEBE300050030256D5
:205564001BEE24C6500302561B90001FE0FEBE3000500302561BEE24C6500302561B9000FF
:2055840020E0FEBE3000500302561BEE24C6500302561B900021E0FEBE3000407AEE24C6A8
:2055A4004075900022E0FEBE3000406BEE24C64066900023E0FEBE3000405CEE24C6405701
:2055C4001203347E008E0574112DFD3395E0FCED24BDFDEC3400FC8E027B0074032AFAE4A9
:2055E4003BFBEA2417F582EB3400F583E08D828C83F00EBE0A0040CD9000D9E0FEBE020660
:205604009000D97401F012036FD246908EF675F0801220300256C9D246908F1475F080125E
:2056240020300256C9BF78028003BF581A1203349000D97402F012036FD246908F3975F097
:20564400801220300256C990F01CE493FFBF022490001BE0FFBF6E02800DBF4E028008BFB0
:2056640066028003BF465ED246908F4875F080122030805190001BE0FFBF4E028003BF6EF8
:20568400191203349000D97401F012036FD246908F7A75F080122030802BBF46028003BF66
:2056A40066181203349000D9E4F012036FD246908F8975F080122030800BD246908F987588
:2056C400F08012203090F01CE4935401FF24FF920A802630090DD246908FB575F0801220DF
:2056E400308016D246908FC875F080122030C246908FB575F08012203043C1107F00EF24D1
:2057040017FDE43400FE8D828E83E0600FEF2417F582E43400F5830FE4F080E2227F007E57
:20572400009001357401F0900136F09001377415F09001387401F08F937594FF8F928F91A9
:205744008F957596FF8FB28FB175B30275B41C8FCA8FC98FC075B0FF8FA075B881759D080C
:205764008F978FBD75BC83D2ADD2AF9000E774FAF09000B9E4F075570575560590000C745C
:2057840030F09000B8740AF09000F37402F09000F2F09000F1F09000F47407F09000F5747B
:2057A40001F0C007C00612065B75828012057190857E75F0801205F19013881204BB758282
:2057C40080120571908FEE75F0801205F1120334D006D0079000BDE0FDBDFF059000BDE4B1
:2057E400F09000BEE024FE50059000BEE4F09000BFE024FE50069000BF7401F09000C0E063
:2058040024F650069000C07401F09000C1E024E850059000C1E4F09000C3E0FDC4540FFC55
:205824007B001CBCFF011BC374089C74808BF063F08095F0500A740F5D4450FD9000C3F046
:205844009000C3E0FD53050F7C001DBDFF011CC374089D74808CF063F08095F0500F9000A8
:20586400C3E0FD74F05D4401FD9000C3F09001397401F09000C4E0FDBD0900502EED20E0AD
:205884002A7C01C3ED9C401E8C0374072BFB3395E0FAEB24BDF582EA3400F583E0FBBB90E2
:2058A4000050030C80DD900139ECF0900139E0FCC3ED9C40129000C47402F09000C5742497
:2058C400F09000C6746CF0900139E4F09000D9E0FDBD020050479000D8E07041FDBD0A00B7
:2058E40050368D0474112CFB3395E0FAEB24BDF582EA3400F583E0FBBB3000401B74112C94
:20590400FC3395E0FBEC24BDF582EB3400F583E0FC24C640030D80C5900139EDF09001393D
:20592400E0FDBD0A00500B9000D8E4F09000D97402F09000DAE0FD24E750059000DAE4F074
:2059440030920A9000CDE05404FDF0801D9000CDE0FD24F950089000CD7402F0800CED5419
:205964000370070D0D9000CDEDF09000DBE0FD53050F7C001DBDFF011CC3740A9D74808CD6
:20598400F063F08095F050069000DB743BF09000DCE024FE50069000DC7401F0C007C00639
:2059A40012036FD006D00790F000E493FD74035D90012F04F090F000E4930303540124FFC1
:2059C4009234E493A2E3E43324FF9235921290F000E493C4540124FF9236E493A2E5E4334C
:2059E400FD24FF923720341920351690F000E493FD5305C0E43395E0FDFC9000EDEDF08077
:205A0400059000EDE4F090F01EE493FD530560E403CDC40354076DCD5407CD6DCD30E202DC
:205A240044F8FC900132EDF0BD021D7D00ED2401FBE43400FCED9084F493FA8B828C83F082
:205A44000DBD0B0040E7801B7D00ED2401FBE43400FCED9084E993FA8B828C83F00DBD0BB5
:205A64000040E7900131E4F090F01E93FD53050F7C00C3ED9406EC64809480501190F01E27
:205A8400E493FD740F5D04FC3395E0FD802790F01EE493FB53030F7A00740CC39BF51BE4A1
:205AA4009AF51C90003CC007C00612849CAC82AD83D006D007900130ECF090F01EE49330BF
:205AC400E405BC3C005006900131743DF090F000E49330E6067CFF7D0080113034067A1E8A
:205AE4007B0080047A0A7B008A048B059000ECECF090012FE0FDBD0103025BB0BD02028082
:205B040075BD0302803ABD04028003025BE69000EBECF090F206E493FD24C4400A90F207F9
:205B2400E493FD24F4500BC007C006120F81D006D00790F206E493F55490F207E493F55011
:205B44009000ECE0FD9000EAF090F204E493FD24C4400A90F205E493FD24F4500BC007C05D
:205B640006120F81D006D00790F204E493F55390F205E493F54F9000ECE0FD9000E9F090F3
:205B8400F202E493FD24C4400A90F203E493FD24F4500BC007C006120F81D006D00790F29D
:205BA40002E493F55290F203E493F54E9000ECE0FD9000E8F090F200E493FD24C4400A9069
:205BC400F201E493FD24F4500BC007C006120F81D006D00790F200E493F55190F201E493D2
:205BE400F54DD2A2758280C007C006120571908FFF75F0801205F11203A0758280120571A0
:205C040090901075F0801205F1D006D00790F010E4935403FC7D00BC021ABD0017C007C0AC
:205C240006128287D006D007787E7600788076187881763CD20390F003E4939000E6F0C000
:205C440007C006120FE7D006D00720220302640C20260302640C202A0302640C7574009014
:205C6400F010E493F575C24D90F01EE493F57390F000E493FAC22AC226C22290902175F064
:205C840080C0021205F190903275F0801205F190012FE02430F582120513D002303408752F
:205CA4007838757990800675783E757990AB78AC797D808B828C838DF0C0021205F1D00209
:205CC4003035067C447D9080047C4A7D907B808C828D838BF0C0021205F190905075F0807E
:205CE4001205F19000EDE02430F582120513753F047582C01204E8D00290012FE0FD1490C6
:205D040000F5F09000F4E4F0204D030260AC203F03025EF8C002C23F90905475F080C0022C
:205D24001205F1D002AB737D00740F5BFA7C00C3EA9406EC64809480D0025010AC73740F97
:205D44005C04FC8C783395E0F579802CC002740F5BFA7C00740CC39AF51BE49CF51C9000F9
:205D64003CC005C003C00212849C858278858379D002D003D005D00285787A9000F4E070D0
:205D84000B302D0875785F757900802BC002AA7A7C00751B0A8C1C8A828C83C005C0031251
:205DA400849CAA82AC83D003D00574302AFA8A783395E0F579D002857882C005C003C00241
:205DC400120513D002D003D0059000F4E0700B302D0875785F757900802BC002AA7A7C0090
:205DE400751B0A8C1C8A828C83C005C003128466AA82AC83D003D00574302AFA8A78339529
:205E0400E0F579D002857882C005C003C00212051390905875F0801205F1D002D003D0058C
:205E24009000F4E0FCBC010B302D0875785F7579008027C00274605BFAE403CAC403540732
:205E44006ACA5407CA6ACA30E20244F8FC74302AFA8A783395E0F579D002857882C005C0AF
:205E640003C00212051390905C75F0801205F1D002D003D0059000F4E0FCBC020B302D08BE
:205E840075785F7579008020530310E4CBC4540F6BCB540FCB6BCB30E30244F0FD74302B39
:205EA400FB8B783395E0F579857882C00212051390906075F0801205F1D0029000F4E0FDBF
:205EC400BD0309302D067C5F7D00801FC002AA75530204E4A2E713CA13CAA2E713CA13CAF7
:205EE400FB74302AFC3395E0FDD0028C82C002120513D002102203025F9C9000F4E02401DB
:205F0400F0E0FDBD01028012BD0202802DBD03028046BD0402805B025F9CAB73530360E415
:205F240003CBC40354076BCB5407CB6BCB30E20244F8FD9000F5EBF0805EAB73530310E4E8
:205F4400CBC4540F6BCB540FCB6BCB30E30244F0FD9000F5EBF08040AC75530404E4A2E762
:205F640013CC13CCA2E713CC13CCFD9000F5ECF08026C0021203349000BDE054EFF0900019
:205F8400DBE573F09000CDE575F012036F90020012031CD00275C76010260280659000F4DD
:205FA400E0FDE06006ED149000F4F09000F4E0FD600ABD0102800FBD0248802A9000F57481
:205FC4000F5573F0803CAB73530360E403CBC40354076BCB5407CB6BCB30E20244F8FD9023
:205FE40000F5EBF0801CAB73530310E4CBC4540F6BCB540FCB6BCB30E30244F0FD9000F572
:20600400EBF0102A03025D0C9000F5E02401F09000F4E0FD24FC5003025D0CED2D90602511
:2060240073800680218040805E9000F5E024F450059000F5E4F074F05573FD9000F5E0FC6F
:206044004DF573025D0C9000F5E024FC50059000F5E4F0749F5573FD9000F5E0C42354E091
:20606400FC4DF573025D0C9000F5E024FE50059000F5E4F074EF5573FD9000F5E0C454F036
:20608400FC4DF573025D0C9000F5E024FE50059000F5E4F074035575FD9000F5E025E025DE
:2060A400E0FC4DF575025D0C9000F4E0FD24FA500302622DED2D2D9060BF730260D102607D
:2060C400E702612C02616A0261A60261BE90012FE0149000F5F07582C4C002120571D0024F
:2060E40002622D9000F5A234E433F0C0021205CCD002103F0302622D302D067C647D90807F
:2061040015303408757838757990800675783E757990AC78AD797B808C828D838BF0C00288
:206124001205F1D00202622D9000F5A235E433F0103F0302622D302D067C6A7D908015308F
:206144003508757844757990800675784A757990AC78AD797B808C828D838BF0C00212055D
:20616400F1D00202622D9000EDE09000F5F0103F0302622D90905075F080C0021205F1D023
:2061840002302D067C5F7D00800C9000EDE02430FBFC3395E0FD8C82C002120513D0020297
:2061A400622D90906F75F080C0021205F190908175F0801205F1D002806F74105AFD900153
:2061C4002FE0FC1CEC2DFD3034067B047C0080047B007C00EB2DFD90012FE0FCBC010280AE
:2061E400123035067B087C0080047B007C008D04EB2CFD20341020350D9000EDE003035482
:20620400C0FC8D032BFD900000C005C00212031C90020012031CD002D0058D18900000C05F
:2062240002120301D00275C760102A030262DC7574009000F4E0FD24FC50030262DCED2D40
:20624400906248738006803A804A806B9000F5E0FDBD030050090DEDFC3395E0FD80047C82
:20626400007D009000F5ECF00C90012FECF074302CF582C0021205137582C4120571D0024C
:2062840080569000F5E0FD7401C39DFD24FF9234EDF0804490012FE0FD24FD500A9000F5C9
:2062A4007401F0D23580109000F5E0FD7401C39DFD24FF9235EDF09000F5E0FDBD03005071
:2062C400090DEDFC3395E0FD80047C007D009000F5ECF09000EDECF01022028071757400D1
:2062E4009000F4E02401F090903275F080C0021205F190012FE02430F582120513D0023089
:2063040034067C387D9080047C3E7D907B808C828D838BF0C0021205F1D0023035067C44D8
:206324007D9080047C4A7D907B808C828D838BF0C0021205F190905075F0801205F19000AA
:20634400EDE02430F5821205131205CCD002102603025D0C9000F4E0FDE06006ED149000E6
:20636400F4F090902175F080C0021205F190903275F0801205F190012FE02430F582120584
:2063840013D0023034067C387D9080047C3E7D907B808C828D838BF0C0021205F1D002303E
:2063A40035067C447D9080047C4A7D907B808C828D838BF0C0021205F190905075F08012B5
:2063C40005F19000EDE02430F582120513D0029000F4E06003025D0CAD740574ED24F7507B
:2063E40017D24DC0021205CCD00290F01EE4939000F5540FF0025D0C753F047582C0C00263
:206404001204E8D002025D0C75BC8B758280C007C00612057190909375F0801205F17534AC
:206424004A75350075364075374975380075394090004B75F0401201D3D006D007E54B2482
:20644400E8400CE54A24C44006E54924C45014753A00753B00758200C007C006120263D003
:2064640006D007C007C0061200F0D2A8D28875344A753500753640753749753800753940C0
:2064840090004B75F0401201D37582801205719090A475F0801205F1D006D00790012FE095
:2064A400FD24FD400302654C75761430B60302654CAC761576EC700302654C7582C0C007EC
:2064C400C006120571AB767C00751B0A8C1C8B828C83C004C00312849CAA8274302AF58245
:2064E400120513D003D004751B0A751C008B828C83128466AC8274302CF582120513D0060F
:20650400D007D2A73034067CE87D0380047CFA7D008C828D83C007C0061204BBD006D00739
:20652400C2A720B686D2A63034067CE87D0380047CFA7D008C828D83C007C0061204BBD009
:2065440006D007C2A60264AF758280C007C0061205719090B575F0801205F1D006D0079052
:20656400012FE0FD24FC400302660F75770530B70302660FAC771577EC700302660F758262
:20658400C0C007C006120571AB777C00751B0A8C1C8B828C83C004C00312849CAA8274309D
:2065A4002AF582120513D003D004751B0A751C008B828C83128466AC8274302CF582120596
:2065C40013D006D007D2A53034067CE87D0380047CFA7D008C828D83C007C0061204BBD06F
:2065E40006D007C2A520B786D2A43034067CE87D0380047CFA7D008C828D83C007C00612FE
:2066040004BBD006D007C2A4026572758280C007C0061205719090C675F0801205F1120F4B
:20662400FDD006D00790F01CE4935401FD24FF920A203070C007C0061224E1D006D0075027
:2066440063C007C00612253312270A122753D006D007505090F005E4937015D2469090D730
:2066640075F080C007C006122030D006D0078029D2469090F475F080C007C006122030D01C
:2066840006D007300A13C2469090F475F080C007C006122030D006D007C007C0061218591F
:2066A400D006D007E54B24F45007E54B24F4FD8002AD4B8D4C90F005E493701C9000F67470
:2066C40005F0C007C0061203349000C274FFF012036FD006D00780069000F6743CF075C123
:2066E4006590012FE0FDBD042090F206E493B5540B90F207E493FDB55002800DC007C00682
:20670400120F81D006D007807090012FE0FD24FD502090F204E493B5530B90F205E493FDFD
:20672400B54F02800DC007C006120F81D006D007804790012FE0FD24FE502090F202E493F5
:20674400B5520B90F203E493FDB54E02800DC007C006120F81D006D007801E90F200E49325
:20676400B5510B90F201E493FDB54D02800BC007C006120F81D006D0079000F6E060069046
:2067840000F4E0702B9000F4E4F07405B5560EC007C006120A8C858256D006D0077405B52F
:2067A400570EC007C006120D04858257D006D007101F0302691E90910875F080C007C0065F
:2067C4001203CD9000DEE0FD7C00751B0A8C1C8D828C8312849CAC8274302CF5821203B838
:2067E4009000DEE0FD7C00751B0A8C1C8D828C83128466AC8274302CF5821203B89000DFC1
:20680400E0FD7C00751B0A8C1C8D828C8312849CAC8274302CF5821203B89000DFE0FD7C7F
:2068240000751B0A8C1C8D828C83128466AC8274302CF5821203B89000E0E0FD7C00751B5D
:206844000A8C1C8D828C8312849CAC8274302CF5821203B89000E0E0FD7C00751B0A8C1CE5
:206864008D828C83128466AC8274302CF5821203B8AC4B7D00751B0A8D1C8C828D8312844D
:206884009CAC8274302CF5821203B8AC4B7D00751B0A8D1C8C828D83128466AC8274302C47
:2068A400F5821203B8AC4A7D00751B0A8D1C8C828D8312849CAC8274302CF5821203B8AC9C
:2068C4004A7D00751B0A8D1C8C828D83128466AC8274302CF5821203B8AC497D00751B0A42
:2068E4008D1C8C828D8312849CAC8274302CF5821203B8AC497D00751B0A8D1C8C828D8386
:20690400128466AC8274302CF5821203B890910F75F0801203CDD006D007203E2E30022BA8
:20692400D24690911575F080C007C006122030D006D007300A13C24690911575F080C0074D
:20694400C006122030D006D007D23E303E2E20022BD24690912375F080C007C00612203035
